:40000000021415008F828E83E0540100000070F82278FFE4F6D8FD02147A900000EFF0E4F53FF540F541F54275430AC200121F87EF60057F00121FB7122067D2AF9044F4FC
:4000400074FDF0E4F53B754900754A00754B37900000E0FF70067EFF7FFF80008F4C7B017A0079017D2C7C011212FA8F3E900000E060021543E5436004E53E70C9E53E6046
:400080000302059FC3E5389407E53794004008900001E064016005753B04807E900004E0FE900003E0FDEEF53FEDF54074062540F5827400353FF583E0FE74052540F58228
:4000C0007400353FF583E0FDEEF53CEDF53DE5402407FFE4353FFED3EF9538EE95374005753B03803574072540F5827400353FF583E064176005753B04801F7B017A0079B1
:4001000001E5402404FDE4353FFC121C66EF653D7003EE653C6003753B08E4F539F53AE53B600302058E900005E0F536753B04900002E012088801553101823202083403A0
:400140007A3503883703D438020839040F3A05783B0000058B20000302058EE540453F600302058EFF120D84EF70047F0180027F00900005EFF0753900753A01E4F53B0260
:40018000058E20000302058EE5406401453F600302058EE536C39401400302058E900357E0FEA3E0F5828E83120842E4FBFA7901F81207188F24E536B5241E900357E0FE6B
:4001C000A3E0F5828E83120842E4FB7A01F9F81207187522008F238014E536D395244007E4F522F5238006752201752300E523900005F0E522A3F0A374FFF0E4A3F0F539B6
:40020000753A04F53B02058E900002E06434703C20000302058EE5406403453F600302058EE536C39440400FE536D3947F50087541007542108006754101754220AE41AF47
:40024000427D007B017A01792D1208FF20000302058EC3E5409403E53F9400500302058EE54024FDFFE53F34FFFE742D2542F974013541A801FC7D017B017A0079081209F7
:40028000E7E54024FDFFE53F34FFFEEF2542F542EE3541F541E536C394404012E536D3947F500B121DA8753F007540108006753F01754020E54265407004E541653F600369
:4002C00002036F900007E0FE900006E0FDEEF541EDF542E536D3943F506FE5367F00FEEF2542FFE5413E900259F0A3EFF0900357E0FEA3E0F5828E83120842E4FB7A01F9AA
:40030000F812071890025BEEF0A3EFF0900357E0FEA3E0F5828E83120842EFE4EF600A90025BE475F0011205DA90025BE0FEA3E0FFC390025AE09F900259E09E500B753BD5
:400340000AE4F541F54202058E7B017A01792D900263E53FF0A3E540F0AD42AC41AF36120F0BEF60047F0A80027F008F3B8003753B03E4F541F54202058E20000302058EC7
:40038000E4F541F54202059F20000302058EE5422540FFE541353FFED3EF942CEE9401502DE4F53BAE3FAF40742D2542F974013541A801FC7D017B017A0079051209E7E58F
:4003C000402542F542E53F3541F54102058E753B0302058EE540453F600302058E78257C00FD7BFF7A25791FFE7F081209E7D200753900753A08AE39AF3A78057C007D0105
:400400007B007A0079251209E7E4F53B02058E20000302058EE5406403453F600302058E900007E0FE900006E0FDEEF52FEDF530E536C394404038E536D3947F5031AE2F29
:40044000AF307C007D101208D28F348E338D328C318F4B8E4A8D498C48E4754F10F54EF54DF54CFF7E80FDFC12192C8F358050AE2FAF307C017D001208D2C004C005C006FC
:40048000C007AF36E4FCFDFEFBFA7901F812068DD003D002D001D0001206728F348E338D328C318F4B8E4A8D498C48E4F54F754E01F54DF54CFFFE7D10FC12192C8F35E588
:4004C00036D3943F5072AF367E007C207D001208D2E42FFFE43EFEED3408FDE43CFCC004A905AA06AB07AE2FAF307C007D201208D2D0001206728F348E338D328C31E4F5BA
:400500002DF52EC3E52E9420E52D9400502AE4E52E2534FFE52D3533FEE43532FDE43531A907AA06AB05121CF3EF2535F535052EE52E7002052D80CBE536702AAE2FAF301E
:40054000FCFD7BFFFAF9F8C31207C57019FD7F05120A3DC3E5359FF535E4FD7F06120A3DC3E5359FF535E535F404900005F0E4F53BF539753A018016E4FF120D84EF700604
:400580009046FA7480F01220718003753B057B017A007901853948853A49AF3B1215ED900000E0700302004330000302004322BB010689828A83E0225002E722BBFE02E399
:4005C0002289828A83E49322BB010689828A83F0225002F722BBFE01F322C5F0F8A3E028F0C5F0F8E582158270021583E038F022BB010A89828A83E0F5F0A3E022500687B6
:40060000F009E71922BBFE07E3F5F009E3192289828A83E493F5F074019322BB010789828A830205DA500B09C5F027F7C5F01937F722BBFE0D09F8E325F0F3C5F019E338A6
:40064000F322F889828A8374019325F0C5F0F8E4933822BB010A89828A83F0E5F0A3F0225006F709A7F01922BBFE06F3E5F009F31922EF2BFFEE3AFEED39FDEC38FC22C315
:40068000EF9BFFEE9AFEED99FDEC98FC22E88FF0A4CC8BF0A42CFCE98EF0A42CFC8AF0EDA42CFCEA8EF0A4CDA8F08BF0A42DCC3825F0FDE98FF0A42CCD35F0FCEB8EF0A47C
:4006C000FEA9F0EB8FF0A4CFC5F02ECD39FEE43CFCEAA42DCE35F0FDE43CFC2275F008758200EF2FFFEE33FECD33CDCC33CCC58233C5829BED9AEC99E58298400CF582EE4A
:400700009BFEED9AFDEC99FC0FD5F0D6E4CEFBE4CDFAE4CCF9A88222B800C1B90059BA002DEC8BF084CFCECDFCE5F0CBF97818EF2FFFEE33FEED33FDEC33FCEB33FB10D7C4
:4007400003994004EB99FB0FD8E5E4F9FA227818EF2FFFEE33FEED33FDEC33FCC933C910D7059BE99A4007EC9BFCE99AF90FD8E0E4C9FAE4CCFB2275F010EF2FFFEE33FE50
:40078000ED33FDCC33CCC833C810D7079BEC9AE899400AED9BFDEC9AFCE899F80FD5F0DAE4CDFBE4CCFAE4C8F922EF4BFFEE4AFEED49FDEC48FC22C3E49FFFE49EFEE49D2F
:4007C000FDE49CFC22EB9FF5F0EA9E42F0E99D42F0E89C45F022E8600FECC313FCED13FDEE13FEEF13FFD8F122E8600FEFC333FFEE33FEED33FDEC33FCD8F122BB010789DC
:40080000828A830208365005E9F8020A0DBBFE05E9F8020A1989828A83020842BB010789828A8302085E5005E9F8020A25BBFE05E9F8020A3122E0FCA3E0FDA3E0FEA3E06A
:40084000FF22E493FC740193FD740293FE740393FF22E0F8A3E0F9A3E0FAA3E0FB22ECF0A3EDF0A3EEF0A3EFF022E0FBA3E0FAA3E0F922EBF0A3EAF0A3E9F022E493FB74E9
:400880000193FA740293F922D083D082F8E4937012740193700DA3A393F8740193F5828883E4737402936860EFA3A3A380DFE5092582F582E5083583F583B50804858209B7
:4008C0002210AF06858209F50822858209F508D2AF22EC8EF0A4CCC5F0CCCDF8EFA4CEC5F02DFDE43CFCE8A42EC8C5F03DFDE43CFCEFA4FFE5F028FEE43DFDE43CFC22EF51
:400900004E6012EF60010EEDBB010B89828A83F0A3DFFCDEFA2289F05007F709DFFCA9F022BBFEFCF309DFFCA9F022E709F608DFFA8046E709F208DFFA803E88828C83E7AA
:4009400009F0A3DFFA8032E309F608DFFA806EE309F208DFFA806688828C83E309F0A3DFFA805A89828A83E0A3F608DFFA804E89828A83E0A3F208DFFA804280D280FA80F3
:40098000C680D4805580F28029801080A680EA809A80A880DA80E280CA802988848C8589828A83E493A30586F0A30586DFF5DEF3800B89828A83E493A3F608DFF9ECFAA95D
:4009C000F0EDFB2288848C8589828A83E0A30586F0A30586DFF6DEF480E389828A83E493A3F208DFF980D688F0EF60010E4E60CD88F0ED2402B4040050C3F582EB2402B455
:400A0000040050B9232345822390097B73E6FC08E6FD08E6FE08E6FF22E2FC08E2FD08E2FE08E2FF22ECF608EDF608EEF608EFF622ECF208EDF208EEF208EFF22290025D03
:400A4000EDF0AB079002627402F0E4FFFEFDFCA312085EEB1208880A79010AA6020ACB030AF0040B15050B40060B8F070B6B080BB3090BD70A00000C0190025DE0FF7E005E
:400A80007C017D001208D21207B7EF24C0FFEE34FFFEED3410FDE43CFCA312085E9002627401F0020C0C90025DE0FF7E007C017D001208D2C374C39FFF74FF9EFE74109DBD
:400AC000FDE49CFCA312085E020C0C90025DE0FF7E007C017D001208D2C374C79FFF74FF9EFE74109DFDE49CFCA312085E020C0C90025DE0FF7E007C017D001208D2C37433
:400B0000CB9FFF74FF9EFE74109DFDE49CFCA312085E020C0C90025DE0FF7E007C017D001208D2C374D09FFF74FF9EFE74109DFDE49CFCA312085E9002627401F0020C0C60
:400B400090025DE0FF7E007C017D001208D2C374D19FFF74FF9EFE74109DFDE49CFCA312085E9002627401F0020C0C90025DE0FF7E007C017D001208D2C374D69FFF74FF16
:400B80009EFE74109DFDE49CFCA312085E807D90025DE0FF7E007C017D001208D2C374D29FFF74FF9EFE74109DFDE49CFCA312085E805990025DE0FF7E007C017D00120811
:400BC000D2C374D49FFF74FF9EFE74109DFDE49CFCA312085E803590025DE0FF7E007C017D001208D2C374D89FFF74FF9EFE74109DFDE49CFCA312085E9002627404F08082
:400C00000BE4FFFEFDFC90025E12085E900262E0B4011990025E120836A907AA06AB05121CF3E4FCFDFE90026312085E900262E06402705C90025E120836EF2401FFE43E91
:400C4000FEE43DFDE43CA907AA06AB05121CF3E4FCFDFE90026312085E900263120852C000C001C002C00390025E120836A907AA06AB05121CF3E4FCFDFE78081207E9D0BA
:400C800003D002D001D0001207AA90026312085E900262E064046003020D7D90025E120836EF2403FFE43EFEE43DFDE43CA907AA06AB05121CF3E4FCFDFE90026312085E37
:400CC000900263120852C000C001C002C00390025E120836EF2402FFE43EFEE43DFDE43CA907AA06AB05121CF3E4FCFDFE78081207E9D003D002D001D0001207AA9002634F
:400D000012085E900263120852C000C001C002C00390025E120836EF2401FFE43EFEE43DFDE43CA907AA06AB05121CF3E4FCFDFE78101207E9D003D002D001D0001207AA84
:400D400090026312085E900263120852C000C001C002C00390025E120836A907AA06AB05121CF3E4FCFDFE78181207E9D003D002D001D0001207AA90026312085E90026356
:400D8000120836228F44AD447F03120A3DEF2401FFE43EFEE43DFDE43CFCE4FB7A01F9F812068DC004C005C006C007AD447F04120A3DD003D002D001D0001206728F4C8EA9
:400DC0004B8D4A8C49C201E4F54DAD447F03120A3DEF2401FFE43EFEE43DFDE43CFCE4FB7A01F9F812068D8F488E478D468C45AF4CAE4BAD4AAC49AB48AA47A946A845C337
:400E00001207C55032854882854783E493F54E6005F46002D201E54E254DF54DAF48AE47AD46AC45E47B01FAF9F81206728F488E478D468C4580B8AD447F03120A3DEF2479
:400E400001FFE43EFEE43DFDE43CFCE4FB7A01F9F812068D78031207D68F488E478D468C45E47FC07EFFFDFCAB4CAA4BA94AA849C31207C57007FF7E20FDFC800DAF4CAE21
:400E80004BAD4AAC4978031207D68F4C8E4B8D4A8C49AF4CAE4BAD4AAC49AB48AA47A946A845C31207C55039E42548FFE43547FEE5463408FDE43545A907AA06AB05121CB9
:400EC000F3EF254DF54DAF48AE47AD46AC45E47B01FAF9F81206728F488E478D468C4580B1E54DF404F54DAD447F01120A3DA804A905AA06AB07AF4DE4FCFDFEC31207C5CC
:400F000070032001037F06227F002290025EECF0A3EDF0A312087390025DEFF0E4900265F0EFD3943F500E90025DE0940140069002657401F090025DE0FFD3947F4006903A
:400F400002657401F0EFC39440400CEFD3944140069002657401F0EFD3943F501E90025EE0FEA3E0FFE4FCFDFB7A01F9F8C31207C5502F9002657401F08027D390025FE03C
:400F8000948090025EE0940040069002657401F0900263E07004A3E0641060069002657401F090026012086AE94A4B700590026504F0900265E0600302108A121EFEEF606E
:400FC0000302108490025EE0FCA3E0FDA312086A900263E0FFA3E090026CCFF0A3EFF090025DE0FF1211DE900265EFF06407600302107F904722E0540270087F01FE121EF6
:401000006480F0904722E054026009E0FF1313543FFF80027FFFEF7006900265F0800690026574FFF0900265E0705490025DE0FFA3E0FCA3E0FD900353E0FBA3E090026AD9
:40104000F0121A90900265EFF064077032904722E0540270087F01FE121E6480F0904722E054026009E0FF1313543FFF80027FFFEF7006900265F0800690026574FFF0124B
:40108000205180069002657404F0900265E0FF227B007A4679E8121CF3EF4401FD7B007A4679E8122045E4F52CE52CC3940A502CE52C75F005A42461F582E43424AF82F571
:4010C000218F22F58312087C8F82852183740393FC740493FD121F6E052C80CDE4F52CE52CC394015046E52C75F007A42413F582E43425AF82F5238F24F58312087C8B25E1
:401100008A2689278F82852383740393FE7404938E28F529740593F52A740693F52BAD29AC28FFAE2A121EB8052C80B37E207F92121DD97B017A507903121CF3EF4402FD3B
:401140007B017A5079031220457B017A507913121CF3EF4402FD7B017A5079131220459043A0E04440F09043C2E04410F07C207D827B007A5179127F087E00121EB87C2053
:401180007D8A7B007A5179227F087E00121EB89044F47401F0904322E04408F09046ECE0C394055006904689743AF090480074F1F012150690480074B1F0121F1D7B007A41
:4011C0004379A0C00179B0900005120873D0017F0E7E00121D749043B0E054FDF022900266EFF0A3ECF0A3EDF0A312087390026E7407F0904722E0540270030212EE904756
:401200002074B6F074D5F07402F0904722E0540260030212E6900266E0904720F0E490026FF0A3F090026CE0FEA3E0FF90026FE0FCA3E0FDC39FEC9E501F90026912086A8D
:40124000E92DF9EA3CFA1205AF904720F090026FE475F0011205DA80CB90026CE064017002A3E060030212F4900266E0FFD3943F40030212F47E007C207D001208D2E42F0A
:40128000FFE43EFEED3408FDE43CFCC004A905AA06AB07A3E0FEA3E0FF7C007D201208D2D00012067290027112085EE490026FF0A3F090026FE0FEA3E0FFC39420EE94005A
:4012C0005032E4FCFDA3120852120672A907AA06AB05121CF3904720EFF090026FE475F0011205DA80CC90026E7409F0800690026E7404F090026EE0FF228B448A4589469E
:401300008C478D48755505E4F54DF54EE54C75F00AA4FFC3E54E9FE54D95F0503B121B34EF6022121B347553008F54E47F19FEFDFC1218C7121B34D3EF9554E4955350E366
:40134000E4F5558013E47F01FEFDFC1218C7054EE54E7002054D80B4AB49AA4AA94BE4F5F0120653E4F54FF550121B34EFD394005003021412121B347551008F52AB49AA8D
:401380004AA94BE5518552F012061BAB49AA4AA94B1205F0C39548E5F09547505FE4F54DF54EC3E54E9552E54D95515025121C1CAB44E5462550F9E545354FFAEF1205C8C1
:4013C0000550E5507002054F054EE54E7002054D80D0AB44E55024FFFFE54F34FFFEE5462FF9E5453EFA1205AF64177003021369E47F05FEFDFC1218C7021369AB49AA4ABB
:40140000A94B1205F0C39552FFE5F095518FF0120653AF552275930078007583467582E8E04401F0009046ECE0F99046FAE0FA90034BF0B903225420B40012B8001AEA9014
:401440001FFFF07401901FFEF09046F6F0901FFEE06005901FFFE0FA90480074C0F0758156121EDE90000078007920E4F0A3D8FCD9FAEA90034BF002001175081F7509FD1F
:401480001210900214C1022079E493A3F8E493A34003F68001F208DFF48029E493A3F85407240CC8C333C4540F4420C8834004F456800146F6DFE4800B0102040810204063
:4014C00080901B83E47E019360BCA3FF543F30E509541FFEE493A360010ECF54C025E060A840B8E493A3FAE493A3F8E493A3C8C582C8CAC583CAF0A3C8C582C8CAC583CABE
:40150000DFE9DEE780BE7B007A4079807D337C001220279040827418F09043007402F09040007408F09042007403F07B0C7A017908121CF39046A1EFF07B007A4279227D68
:40154000087C001220277B007A4279207D517C12122027E4900004F07F19FEFDFC90000012085E900000120836D3EF9400EE9400403B900004E0FF64036032904225E05440
:4015800001FEEF25E04E5403900004F0E47FE07E01FDFC121D0090000012083674FFFBFAF9F812067290000012085E80B6900000120836EF4E70057F0312207F7B007A402A
:4015C00079047D007C011220279040047407F0904006E4F09040087448F0904004E4F09040017402F09043A2E04401F0228B458A46894774011205C8AB452547F9E43546AB
:40160000FAEF1205C8E549AB45E5472402F9E43546FAE5491205C8E548FFAB45E5472403F9E43546FAEF1205C8AB45AA46A947E5492404FDE43548FC121C668E4A8F4BEFCF
:40164000AB45E5492404FDE43548FCE5472DF9E5463CFAEF1205C8E54AFFAB45E5492405FDE43548FCE5472DF9E5463CFAEF1205C8AB45E5492406FFE43548FEE5472FF9FF
:40168000E5463EFA74171205C8E5492407FDE43548FC755100755200755348755496AB45AA46A947121BD122C0E0C083C082C085C084C086758600C093759300C0D075D09F
:4016C00000C001C002C003C006C007E4FBA2AF33FAD2AF9044F474FDF090646CE0FFFE541EF960069002FDE049F0EF30E54590644AE0FE9002F9E02478F582E43402F583E5
:40170000EEF07B01EB602C900276E060069002FC7401F09002F9E004F0E0C394404002E4F0900277E0FE9002F9E0B506069002767401F0EF20E5A2AF02EA24FF92AFD007BF
:40174000D006D003D002D001D0D0D093D086D084D085D082D083D0E032752106E4FF120D84EF7002F521E4F54BF54AF549F548900357E0FEA3E0F5828E831208428F4F8E82
:401780004E8D4D8C4CE4FFFE7D10FC12192C900355E0FCA3E0F5828C83E493FEC3EF9EFFF404FFB50612900357E0FEA3E0F5828E83120842EF4E70057F00121FB79046FAFB
:4017C000E054C064406004E52160099046FAE4F0FF12001A12205D22C0E0C083C082C085C084C086758600C093759300C0D075D000C006C007A2AFE433FFD2AF9044F4742E
:40180000FDF09002FAE0FE9002B8E06E602C90646EE020E2259002B8E0C394404002E4F09002B8E024B9F582E43402F583E090644DF09002B8E004F080C8EF24FF92AFD043
:4018400007D006D0D0D093D086D084D085D082D083D0E032A9079002FAE0FF9002B8E0FEEFC39E501AEE24FFFDE434FFFCEF7A00B50508EAB504047D0180027D00800CC346
:40188000EF9EB43F047D0180027D00ED70C8EEB5070D90646EE020E20690644DE9F022EFC394404002E4FF74B92FF582E43402F583E9F00F9002FAEFF090646EE030E10609
:4018C0009044D07402F02290FFFC1208AE12085E850883850982120836D3EF9400EE9480402E90034C120836121D00850883850982C083C082120836E42FFFEE3480FEEDC9
:4019000034FFFDEC34FFFCD082D08312085E80C090034212083685088385098212085212068D121D009000041208AE228F478E468D458C44E4F550D3E54F9400E54E940025
:40194000404BAF4FAE4EAD4DAC4C74FFFBFAF9F81206728F4F8E4E8D4D8C4CE547254BFFE546354AFEE5453549FDE5443548FCEF254FFFEE354EFEED354DFDEC354CA907BD
:40198000AA06AB051205AF2550F55080AAAF5022121FE190025E74FFF0121EFEEF703B7F01121E35EF6407702C7B017A0379537D021219E6EFB40215E490025EF090472228
:4019C000E0540270107F01FE121E6480F0904722E0540260D4122051800690025E7404F090025EE0FF2290025F120873900262EDF0E4A3F0900262E0FFA3E0C39F50379065
:401A00004722E054016003D38001C340097F017E00121E6480E9904720E0FF90025F12086A900263E029F9E43AFAEF1205C8900263E004F080BE900263E0FF2290025EEC49
:401A4000F0A3EDF090025DEFF0541F25E0FFE433FEE42FFFEE3444FAA9077B0112201A900260EEF0A3EFF090025DE075F002A42400FFE5F03444FAA9077B01A3E0FEA3E0EC
:401A8000FFFDAC06122029900260E0FEA3E0FF22900267ECF0A3EDF0AC077D07904722E05402603B90472074B6F074D8F07405F0904722E054027023904720ECF09002670F
:401AC000E0904720F0900267E0A3E0904720F0EBF090026AE0904720F080067D0980027D04AF0522121FE1121EFEEF703B121F3A90025EEFF06407702A904722E0540270A1
:401B0000087F01FE121E6480F0904722E054026009E0FF1313543FFF80027FFFEF700490025EF0122051800690025E7404F090025EE0FF229044C87401F09002F9E0FE905D
:401B40000277E0B5060E900276E060047F40802CE4FF80289002F9E0FE900277E0C39E500BE0FE9002F9E0C39EFF8010900277E0FEC374409EFE9002F9E02EFF9044C07420
:401B800001F022420355251A420357251B430350000000440347016E360044034200005DC04103461844034C2EE000004102FB004102B8004102FA004102FD00410277003B
:401BC0004102F900410276004102FC0041035B00008B4C8A4D894E8C4F8D50E4F555F556121E07C3E5569550E555954F501DAB4CE54E2556F9E54D3555FA1205AFFF121874
:401C0000540556E5567002055580D8AB51AA52A953E54F8550F01206537F00229044C87401F0900277E0FE9002F9E0FD900276E07004EE6D602474782EF582E43402F583EF
:401C4000E0FF0EEEC394404002E4FE900277EEF0900276E06009E4F0800590644AE0FF9044C07401F0228B4C8A4D894EE4F54FF550D3ED9400EC94004025AB4CED24FFFFD4
:401C8000EC34FFFEE54E2FF9E54D3EFA1205AF2550F550E4354FF54FED1D70011C80D2E550F4FFE54FF4FEEF2401FFE43EFE227C167DA8E4FF121A3C7D07E4FF121F55E4B7
:401CC0009002FDF090648A7469F090648C7420F07C177DD87F01121A3C7D077F01121F5590642E7406F090643E7447F090648E7402F0228B938A838982E0759300FF22000A
:401D0000EC4D4E700D78FCEF24E950032840FD2200007BF178DA0000EF28FF78FFEE38FEED38FDEC38FC50E7EF2BFFEE38FEED38FDEC38FC40F22205020304121FCC9002FD
:401D40005DEFF090649AE04420F090649CE04410F09044C07401F090649EE04410F09044D87402F09044C0F012203690025DE0FF121F9F22758600EF4E6027EF60010E75B2
:401D80009300900005E0F595A3E0F585A3E0F5848B938A838982E0A30586F0A31586DFF6DEF4E4F593F59522121FCC9043A0E04408F09043B0E04408F090470174C8F090A8
:401DC00043ACE04410F09043BCE04410F0904700E0542060F8121F9F22ACEAADA08E838F82E493F9601CA3E493F5EAA3E493F5A0A3E49360F1FAA3E493F8A3E493F2DAF6BC
:401E0000D9E48DA08CEA22121FCC90649AE04401F0E054FEF0121F9F9044C87401F0E4900277F09002F9F0900276F09002FCF09044C004F0227E07904722E05402601F9052
:401E4000472074B6F074E1F0740EF0904722E054027007904720EFF080067E0980027E04AF062200EEFA900346E0F88FF0A4FFAEF0E88AF0A42EFEE5F03400FDEF24C9FF5A
:401E800078FFEE38FEED38FDE438FC5003021D0022121FCC90649DE04401F0E054FEF0121F9F9044C87402F0E49002B8F09002FAF09044C07402F022758600EF4E601BEFCA
:401EC00060010E8C838D828B958A858984E493A30586F0A31586DFF5DEF3E4F595229046FAE054C064807015F0FD7F02120A3DEF4E600AE4FD7F02120A3D122009229002CC
:401F0000667404F0121FCC90035BE0700704F0E4900266F0121F9F900266E0FF227B0C7A0179CF121CF3EF540790586EF0EFC4540FA3F09058767444F0227F07904722E0DD
:401F40005402600E90472074B6F074E0F0740DF080027F0422AC07ED540775F020A4FFEC541F2480F582E43444F583EFF022EC4D6011ED60010C8B938A838982E4F0A3DDB0
:401F8000FCDCFA75930022121AE490025DEFF0700812199090025DEFF090025DE0FF22EF54016004D2AF8002C2AFEF5402FF9044F4E054FD4FF02290FFFF1208AEEFF090D7
:401FC00046EA7401F09000011208AE229044F4E0F84402F0E85402FF10AF012274014FFF22121FCC9043A0E04408F09043B0E04408F0121F9F229002FBE07009121CAF9087
:4020000002FB7401F0121D3B2290034BE0FA8E838F827400758101738B938A838982E0FFA3E0FE759300228B938A838982EDF0A3ECF0759300229043A2E04401F09043B26F
:40204000E04401F0228B938A838982EDF075930022121FCCE490035BF0121F9F229046FA7480F012207122121FF6121E07121E91229046F6E04401F02212175980FE2280DC
:40208000FE22007F7B007B00000030D8C800D800000016005205082309121098118814200064047E3F8A698C3A8E0F010101E204010301E6020105028702E008010604B82E
:4020C00002BE01D804DF010107021B02A702010A088501890195019901B101BF01D904DF01010B4F00400106038808010A040B111028130219641A041B0A202021082230E9
:40210000274028282A022B022E033080310232103304340836203708382239803A083C283E084028410843824A024B0152045B4068286A016B027090712072108D408E104D
:402140008F809042910493109621980199029B0C9D649E049F80A004A102A202A490A520A702AB01B021B405B602B744C00FC20FC40ECA0FCC6FCE6FD00FD208D608E0083A
:40218000E801010C4C0001021608E70A180E3F101E120114C6163918481C88208824DD262228232ADC2CC8301F320834E03A22541A560458045B045F018008824284F88698
:4021C000018704880F89028AF08D068EC792849308943996C698109C20A020A101A43FA6C0A906AA08AC30B031B106B308B501B6FFB702B982BE40BF11C062C101C5E0C6DA
:40220000CBC80EC9FFCAFFCBFFCEF0CF44D00CD804D904DA04DF01E6C0EA40EB02010D46002901100210030B04010709080209260A310D220E11108012481388151016502C
:402240001780180219021C081D021E201F20200421012208230128402920320238C839A43A083B10414042084921502053405E205F026540674887409088912093089502C2
:40228000978098409B4A9C029D259E049F04A420A504A72AB001B301C0DFC2FFC4FFCA05CC01CE0ED00CD204D6A0D8B0010E4E040906D007230B080C0C0D210E710F0E1048
:4022C00014141016AC170C18DC1A221B201E0321102410264029212A202B062D0C2F2330E03310350F361F37203A023B203F444004464049FF4A074BFF4C404D204EF04F8A
:4023000005500854015604580459045A045B045F01604061A862406320871F89198B0691019304950997029A01A506A719A919AA01AB06AF0FB201B310B507B708B908BB65
:4023400020BE04D804D904DB04DF01010F3C004404040504084809200A010B800E0810081210160418C01A011F042130224425102604270A280829212A802F2A303031047A
:402380003402370438883A103D284101500C5210581059015A886380680169046A206B406F0171407304821083408550868089048B04C005C24FC446CA7DCCC6CE6ED00101
:4023C000D60FD801E40C014005322035808180CC30E2200141038620A620E6400144058301870188C0E004E40401450F0C0857025B046401660193029889A040A301B009C2
:40240000C204D607D801E801EC0401460D8702900893029888A040A301A702AB04B40CB601E808EC02EE08014705900893029888A040A301014C0E5004544057015808607D
:40244000806702900893029888A040A301D406D607D80201500300010C010E01015101000F005100001000513000400051C000100051F000100100000A00010A800580018E
:40248000140008000140000A00014C000200015000002000008080207D050000040800130C0400030204200A031410130C0C7300088000400800004043003C404F003000DE
:4024C0000000734000303F0FC0800008002028000040003402010005C0000E12FFFFFF62A0F0410C00000000000210040404040000000100000000000040020010301000CE
:4025000010101200000000000000000000000000000000010A002493008061000026006930091E031E010100000000000000000000000000000000000000000000000000BD
:40254000000000000000000000000000000000000000000000000000000000000000000000000000000000000000000000000000000000000000000000000000000000005B
:40258000000000000000000000000000000000000000000000000000000000000000000000000000000000000000000000000000000000000000000000000000000000001B
:4025C00000000000000000000000000000000000000000000000000000000000000000000000000000000000000000000000000000000000000000000000000000000000DB
:40260000025C70008F828E83E0540100000070F82278FFE4F6D8FD025CFE0227F7E86480F8E933E83360110460F0ED33EC337009E8FCE9FDEAFEEBFF220460DED3EB9FEA8A
:402640009EE99DE8C2E78CF0C2F795F0400CE8CCF8E9CDF9EACEFAEBCFFB1227C285D0F05804700320D5B3E80470075002B2D502280192D5EC0460F7E4CCC0E0C398F8600E
:402680003B94186008400DD0E0FB0227D9E4FBFAC9FC8028E830E406E4C9FBE4CAFCE830E305E4C9CACBFCE854076010F8C3E913F9EA13FAEB13FBEC13FCD8F130F52FC3CB
:4026C000E49CFCEF9BFFEE9AFEED99FDD0E0FBEF4E4D4C701222DB030227FEEC2CFCEF33FFEE33FEED33FDED30E7EB0227D9EF2BFFEE3AFEED39FDD0E0FB50130BBB000307
:40270000022801ED13FDEE13FEEF13FFEC13FC0227D974F8CC6480CCC86480C8F58204604FC3EB9FF5F0EA9E42F0E99D42F0E89C45F0603C501DE5825FFFE582D313CB5B50
:40274000CBF42B5582FB50280ABA002409B9002008801DE5825BFBE582D313CF5FCFF4C3132F5582FF50090EBE00050DBD00010CC3EB9FF5F0EA9E42F0E99D42F0E89C4572
:40278000F06007CC4820E701B3EC22EDD2E7CD33EC3392D524814006E4FFFEFDFC22FCE4CFCECDCC24E0501174FF80EDC3CC13CCCD13CDCE13CECF13CF0470F030D5DE02B3
:4027C0002CEBE9D2E7C933E833F892D5EDD2E7CD33EC33FC5002B2D522EC30E7100FBF000C0EBE00080DBD00040BEB6014A2D5EB13FCED92E7FD2274FFFCFDFEFF22E48010
:40280000F8A2D574FF13FC7D80E480EFF920E73624F950037907E4F42402FBE582158270021583DBF6E024FB501BE96014E4F0E582158270021583E004F0B40A08E4F0D975
:40284000EE7401F00A22C2D522ED33EC3392D5FA602AB4FF33EDC2E77BFF60067A28796EE4227A28797720D5047A287972224E614E002B494E46002D494E4600E47A08F06C
:40288000A3DAFC7B00740722C083C082ECC0E0EDC0E0EEC0E0EFC0E0EA75F010A4CAABF075F04DA42BFBE435F0FCEA2410FAEB34C5FBEC34D9FCEDC2E7FF75F056A4F424EB
:4028C00011C5F0F434C58FF0A42AE5F03BE43CF020E714122B24D0E0FFD0E0FED0E0FDD0E0FC122A578014F404122B24D0E0FFD0E0FED0E0FDD0E0FC12294ED082D083E042
:40290000FAEDD2E7CD33EC332482FBE4C3CF33CFCE33CECD33CD33DBF37B0775F00A846004F0A31B0AE5F0F0A38FF0740AA4FFACF08EF0740AA42CFEACF050010C8DF07439
:402940000AA42CFDE435F0F0A3DBDE740722EC4D6011E8497017ED33EC3304600DE4FCFFFEFD22E933E8330470F80227F71227C258046009E4CC24815006285009022801A6
:402980002840030227FEC0E0EB4A7044B98006D0E0FB0227EDEF4E701CBD8008EBFFEAFEE9FD80EBE98DF0A4FEE5F0022A37E9CDF9EAFEEBFFEF89F0A4FCE5F0CE89F0A442
:4029C0002EFFE435F0CD89F0A42DFEE435F08067EF4E7005BD80D780C3EF8BF0A4ACF0EE8BF0A42CFCE435F0F8EF8AF0A42CE5F038FCE433CB8DF0A42CFCE5F03BF8EE8AC6
:402A0000F0A42CFCE5F038F8E433CF89F0A42CFCE5F038CF3400CE89F0A42FFFE5F03EFEE433C98DF0A42EFEE5F039CD8AF0A42FFFE5F03EFEE43DFD33D0E0FB50070BBBF2
:402A4000000F022801EC2CFCEF33FFEE33FEED33FD0227D9022801EC5D046005E8590470030227F71227C2580460F6EC4860F2EC7004FDFEFF22C860DB2481C85009C39821
:402A8000600250060227FE9850CAF582E9294B4A7005AB820227ED75F0007C1A7880C3EF9BEE9AED99400DC3EF9BFFEE9AFEED99FDE842F0DC23ACF0D0E0FFD0E0FED0E0FD
:402AC000FDAB8220E7101BEB60BAEC2CFCEF33FFEE33FEED33FD0227D9E803F830E705C0F075F000EF2FFFEE33FEED33FD40B830E7C280AA3F8000004120000042C8000070
:402B0000447A0000461C400047C35000497424004B1896804CBEBC205A0E1BCA6753C21C749DC5AEFB60065407601C2323122B52EB54386009122B3E122B4D12294EECF8D3
:402B4000EDF9EEFAEFCB22EB122B4D80F1543803241C902AF4FE93FC0EEE93FD0EEE930ECE93FF22BB010689828A83E0225002E722BBFE02E32289828A83E49322BB010CA0
:402B8000E58229F582E5833AF583E0225006E92582F8E622BBFE06E92582F8E222E58229F582E5833AF583E49322BB010689828A83F0225002F722BBFE01F322EF8DF0A4D1
:402BC000A8F0CF8CF0A428CE8DF0A42EFE22E88FF0A4CC8BF0A42CFCE98EF0A42CFC8AF0EDA42CFCEA8EF0A4CDA8F08BF0A42DCC3825F0FDE98FF0A42CCD35F0FCEB8EF003
:402C0000A4FEA9F0EB8FF0A4CFC5F02ECD39FEE43CFCEAA42DCE35F0FDE43CFC2275F008758200EF2FFFEE33FECD33CDCC33CCC58233C5829BED9AEC99E58298400CF5822E
:402C4000EE9BFEED9AFDEC99FC0FD5F0D6E4CEFBE4CDFAE4CCF9A88222B800C1B90059BA002DEC8BF084CFCECDFCE5F0CBF97818EF2FFFEE33FEED33FDEC33FCEB33FB1048
:402C8000D703994004EB99FB0FD8E5E4F9FA227818EF2FFFEE33FEED33FDEC33FCC933C910D7059BE99A4007EC9BFCE99AF90FD8E0E4C9FAE4CCFB2275F010EF2FFFEE3312
:402CC000FEED33FDCC33CCC833C810D7079BEC9AE899400AED9BFDEC9AFCE899F80FD5F0DAE4CDFBE4CCFAE4C8F922C3E49FFFE49EFEE49DFDE49CFC22EB9FF5F0EA9E42EC
:402D0000F0E99D42F0EC6480C864809845F022EB9FF5F0EA9E42F0E99D42F0E89C45F022E8600FECC313FCED13FDEE13FEEF13FFD8F122E86010ECA2E713FCED13FDEE13ED
:402D4000FEEF13FFD8F022E8600FEFC333FFEE33FEED33FDEC33FCD8F122BB010789828A8302305E5005E9F8023052BBFE05E9F802306A89828A83023076BB010789828A75
:402D800083022D945005E9F8023086BBFE05E9F802309222ECF0A3EDF0A3EEF0A3EFF022A42582F582E5F03583F58322F8E0FBA3A3E0F925F0F0E582158270021583E0FA17
:402DC00038F022EBF0A3EAF0A3E9F022D083D082F8E4937012740193700DA3A393F8740193F5828883E4737402936860EFA3A3A380DFE5232582F582E5223583F583B5228A
:402E0000048582232210AF06858223F52222858223F522D2AF22EC8EF0A4CCC5F0CCCDF8EFA4CEC5F02DFDE43CFCE8A42EC8C5F03DFDE43CFCEFA4FFE5F028FEE43DFDE49E
:402E40003CFC22EF4E6012EF60010EEDBB010B89828A83F0A3DFFCDEFA2289F05007F709DFFCA9F022BBFEFCF309DFFCA9F022E709F608DFFA8046E709F208DFFA803E8874
:402E8000828C83E709F0A3DFFA8032E309F608DFFA806EE309F208DFFA806688828C83E309F0A3DFFA805A89828A83E0A3F608DFFA804E89828A83E0A3F208DFFA804280E2
:402EC000D280FA80C680D4805580F28029801080A680EA809A80A880DA80E280CA802988848C8589828A83E493A30586F0A30586DFF5DEF3800B89828A83E493A3F608DFB4
:402F0000F9ECFAA9F0EDFB2288848C8589828A83E0A30586F0A30586DFF6DEF480E389828A83E493A3F208DFF980D688F0EF60010E4E60CD88F0ED2402B4040050C3F5822C
:402F4000EB2402B4040050B92323458223902EBF73E709F60870FA8046E709F20870FA803E88828C83E709F0A370FA8074E309F60870FA806CE309F20870FA806488828C2B
:402F800083E309F0A370FA805889828A83E0A3F60870FA804C89828A83E0A3F20870FA804080D280FA80C680D4805180F28027801080A680EA809A80A880DA80E280CA8007
:402FC0002788848C8589828A83E493A30586F0A3058670F5800B89828A83E493A3F60870F9ECFAA9F0EDFB2288848C8589828A83E0A30586F0A3058670F680E589828A835C
:40300000E493A3F20870F980D888F0ED2402B4040050CEF582EB2402B4040050C42323458223902FA173C5F0F8A3E028F0C5F0F8E582158270021583E038F022A3F8E0C59C
:40304000F025F0F0E582158270021583E0C838F0E822E6FC08E6FD08E6FE08E6FF22E0FCA3E0FDA3E0FEA3E0FF22E2FC08E2FD08E2FE08E2FF22E493FC740193FD740293F7
:40308000FE740393FF22ECF608EDF608EEF608EFF622ECF208EDF208EEF208EFF222900588EBF0A3EAF0A3E9F0900001E064FA70030238B6900588E0FBA3E0FAA3E0F8ACA8
:4030C00002AD037BFF7A3F79C51230099005F474FFF0A3743FF0A374C6F0900588E0FBA3E0FAA3E0F91269B59005F474FFF0A3743FF0A374C9F0900588E0FBA3E0FAA3E048
:40310000F91269B59005F474FFF0A3743FF0A374DCF0900588E0FBA3E0FAA3E0F91269B59005F474FFF0A3743FF0A374EDF0900588E0FBA3E0FAA3E0F91269B59005F474EC
:40314000FFF0A3743FF0A374F2F0900588E0FBA3E0FAA3E0F91269B5900A2674FFF0A37440F0A37400F0900001E0FF900A29E4F0A3EFF07B017A05798D1245FB9005F474B6
:4031800001F0A37405F0A3748DF0900588E0FBA3E0FAA3E0F91269B5900A2674FFF0A37440F0A37409F0900180E0FF900A29E4F0A3EFF07B017A05798D1245FB9005F4748A
:4031C00001F0A37405F0A3748DF0900588E0FBA3E0FAA3E0F91269B59005F474FFF0A3743FF0A374C6F0900588E0FBA3E0FAA3E0F91269B59005F474FFF0A37440F0A374B3
:403200001DF0900588E0FBA3E0FAA3E0F91269B5E490058BF0A3F0900180E0FFC390058CE09F7480F890058BE064809840030234BC900A2674FFF0A37440F0A37432F090B6
:40324000058BE0FEA3E0FF900A29EEF0A3EFF02404F58274003EF583E0FF900A2BE4F0A3EFF07B017A05798D1245FB9005F47401F0A37405F0A3748DF0900588E0FBA3E01C
:40328000FAA3E0F91269B5900A2674FFF0A37440F0A37445F07B017A05798D1245FB90058BE0FEA3E02404F58274003EF583E075F005A4242BF582E43405F583E0601990E3
:4032C00005F474FFF0A37440F0A37457F07B017A05798D1269B580179005F474FFF0A37440F0A3745DF07B017A05798D1269B59005F474FFF0A37440F0A37462F07B017AAB
:4033000005798D1269B590058BE0FEA3E02404F58274003EF583E075F005A4242CF582E43405F583E060199005F474FFF0A37440F0A37457F07B017A05798D1269B580170C
:403340009005F474FFF0A37440F0A3745DF07B017A05798D1269B59005F474FFF0A37440F0A37470F07B017A05798D1269B590058BE0FEA3E02404F58274003EF583E0750B
:40338000F005A4242DF582E43405F583E060199005F474FFF0A37440F0A37457F07B017A05798D1269B580179005F474FFF0A37440F0A3745DF07B017A05798D1269B5900D
:4033C00005F474FFF0A37440F0A37481F07B017A05798D1269B590058BE0FEA3E02404F58274003EF583E075F005A4242EF582E43405F583E060199005F474FFF0A374403F
:40340000F0A37457F07B017A05798D1269B580179005F474FFF0A37440F0A3745DF07B017A05798D1269B59005F474FFF0A37440F0A3748FF07B017A05798D1269B590051F
:403440008BE0FEA3E02404F58274003EF583E075F005A4242FF582E43405F583E060199005F474FFF0A37440F0A37457F07B017A05798D1269B580179005F474FFF0A37495
:4034800040F0A3745DF07B017A05798D1269B59005F47401F0A37405F0A3748DF0900588E0FBA3E0FAA3E0F91269B590058CE004F0700690058BE004F00232179005F474F1
:4034C000FFF0A3743FF0A374C6F0900588E0FBA3E0FAA3E0F91269B59005F474FFF0A37440F0A3749EF0900588E0FBA3E0FAA3E0F91269B5E490058BF0A3F0900180E0FF39
:40350000C390058CE09F7480F890058BE0648098400302381E900A2674FFF0A37440F0A37432F090058BE0FEA3E0FF900A29EEF0A3EFF02404F58274003EF583E0FF900A9D
:403540002BE4F0A3EFF07B017A05798D1245FB9005F47401F0A37405F0A3748DF0900588E0FBA3E0FAA3E0F91269B590058BE0FEA3E0FF2404F58274003EF583E075F00535
:40358000A4242BF582E43405F583E07003023625900A2674FFF0A37440F0A374ADF090001C75F015EF122DA0EE75F015A42583F583E0FDA3E0900A29CDF0A3EDF090001E10
:4035C00075F015EF122DA0EE75F015A42583F583E0FFA3E0900A2BCFF0A3EFF090058BE0A3E090002075F015122DA0EE75F015A42583F583E0FFA3E0900A2DCFF0A3EFF0CD
:403600007B017A05798D1245FB9005F47401F0A37405F0A3748DF0900588E0FBA3E0FAA3E0F91269B590058BE0FEA3E0FF2404F58274003EF583E075F005A4242CF582E4A6
:403640003405F583E070030236DF900A2674FFF0A37440F0A374BEF090002275F015EF122DA0EE75F015A42583F583E0FDA3E0900A29CDF0A3EDF090002475F015EF122D1E
:40368000A0EE75F015A42583F583E0FFA3E0900A2BCFF0A3EFF090058BE0A3E090002675F015122DA0EE75F015A42583F583E0FFA3E0900A2DCFF0A3EFF07B017A05798DAD
:4036C0001245FB9005F47401F0A37405F0A3748DF0900588E0FBA3E0FAA3E0F91269B590058BE0FEA3E0FF2404F58274003EF583E075F005A4242DF582E43405F583E070E5
:4037000003023799900A2674FFF0A37440F0A374D0F090002875F015EF122DA0EE75F015A42583F583E0FDA3E0900A29CDF0A3EDF090002A75F015EF122DA0EE75F015A4D9
:403740002583F583E0FFA3E0900A2BCFF0A3EFF090058BE0A3E090002C75F015122DA0EE75F015A42583F583E0FFA3E0900A2DCFF0A3EFF07B017A05798D1245FB9005F4B7
:403780007401F0A37405F0A3748DF0900588E0FBA3E0FAA3E0F91269B590058BE0FEA3E0FF2404F58274003EF583E075F005A4242FF582E43405F583E06052900A2674FF88
:4037C000F0A37440F0A374E1F090002E75F015EF122DA0EE75F015A42583F583E0FFA3E0900A29CFF0A3EFF07B017A05798D1245FB9005F47401F0A37405F0A3748DF090A1
:403800000588E0FBA3E0FAA3E0F91269B590058CE004F0700690058BE004F00234FB900A2674FFF0A37440F0A374F4F090026FE0F8A3E0F9A3E0FAA3E0FB9004B8E0FCA3E7
:40384000E0FDA3E0FEA3E0C39BFFEE9AFEED99FDEC98FC900A29122D947B017A05798D1245FB9005F47401F0A37405F0A3748DF0900588E0FBA3E0FAA3E0F91269B5900554
:40388000F474FFF0A3743FF0A374C6F0900588E0FBA3E0FAA3E0F91269B59005F474FFF0A3743FF0A374C6F0900588E0FBA3E0FAA3E0F91269B522900588EEF0A3EFF07846
:4038C0008A7C057D017BFF7A4079FF7E047F1B122F2B900180E075F032A424C9FEE435F09009A5F0A3CEF078A77C097D017BFF7A45791A7E007F0F122F2B78B67C097D01C5
:403900007BFF7A4579297E007F1E122F2B78D47C097D017BFF7A4579477E007F0D122F2B78E17C097D017BFF7A4579547E007F18122F2B78F97C097D017BFF7A45796C7E74
:40394000007F2A122F2B7B017A0979A71274458F0F7B017A0979B61274458F107B017A0979D41274458F117B017A0979E11274458F127B017A0979F91274458F1390058A99
:40398000740CF0900180E0240490058BF0900588E0FEA3E0FFEE6003023E1CEF147003023E1224FC4003023FA924056003023E1C90058C7402F0A314F0900001E090058E85
:4039C000F0750B00850F0CE50C450B602CC3E50F950CFFE4950BFE74A72FF58274093EF583E0FD748F2FF58274053EF583EDF0E50C150C7002150B80CE9005BE7402F0A33D
:403A000014F0900180E09005C0F0750B0085100CE50C450B602CC3E510950CFFE4950BFE74B62FF58274093EF583E0FD74C12FF58274053EF583EDF0E50C150C7002150B19
:403A400080CE9005F07402F0900180E09005F1F0E4F50BF50C900180E0FFC3E50C9FE50B940050267404250CF5827400350BF583E0FF74F2250CF5827405350BF583EFF03B
:403A8000050CE50C7002050B80CB750D0085110EE50E450D6041C3E511950EFFE4950DFE74D42FF58274093EF583E0FFE511FD900180E02DFDE433FCC3ED950EFDEC950D4D
:403AC000FC74F22DF58274053CF583EFF0E50E150E7002150D80B99006227402F0900180E075F003A4900623F0E4F50BF50C900180E0FFC3E50C9FE50B94004003023BA43D
:403B00007404250CF5827400350BF583E075F003A42477F582E43402F583E0FF90062475F003E50C122DA0E50B75F003A42583F583EFF07404250CF5827400350BF583E0B1
:403B400075F003A42478F582E43402F583E0FF90062575F003E50C122DA0E50B75F003A42583F583EFF07404250CF5827400350BF583E075F003A42479F582E43402F583E9
:403B8000E0FF90062675F003E50C122DA0E50B75F003A42583F583EFF0050CE50C7002050B023AEE750D0085120EE50E450D6046E512FD7C00C3950EFFEC950DFE74E12F92
:403BC000F58274093EF583E0FB900180E075F003A42DFFEC35F0FEC3EF950EFFEE950DFE74242FF58274063EF583EBF0E50E150E7002150D80B4E4F50BF50C900180E0FF2A
:403C0000C3E50C9FE50B94004003023DE1900A2674FFF0A3743FF0A374AAF0E50C2405900A2AF0E4350B900A29F07404250CF5827400350BF583E0FF900A2BE4F0A3EFF045
:403C40007B017A0979F91245FB7B017A0979F91274458F1390065475F032E50C122DA0E50B75F032A42583F5837402F090065575F032E50C122DA0E50B75F032A42583F587
:403C8000837405F07404250CF5827400350BF583E075F005A4242BF582E43405F583E0FF90065675F032E50C122DA0E50B75F032A42583F583EFF07404250CF5827400355E
:403CC0000BF583E075F005A4242CF582E43405F583E0FF90065775F032E50C122DA0E50B75F032A42583F583EFF07404250CF5827400350BF583E075F005A4242DF582E4B4
:403D00003405F583E0FF90065875F032E50C122DA0E50B75F032A42583F583EFF07404250CF5827400350BF583E075F005A4242EF582E43405F583E0FF90065975F032E592
:403D40000C122DA0E50B75F032A42583F583EFF07404250CF5827400350BF583E075F005A4242FF582E43405F583E0FF90065A75F032E50C122DA0E50B75F032A42583F597
:403D800083EFF0750D0085130EE50E450D6047C3E513950EFFE4950DFE74F92FF58274093EF583E0FBAE0BAF0C7C007D32122BBCEF2513FFEC3EFEC3EF950EFFEE950DFEC3
:403DC000745B2FF58274063EF583EBF0E50E150E7002150D80B3050CE50C7002050B023BFB7B017A05798A9009A5E0A3E014FD12703B9009A5E0FCA3E0FD2489F582740506
:403E00003CF583EFF07B017A05798A1267201274F4229002ADE0900016F022229002ADE0FF900588E0FCA3E0FD24FFF58274FF3CF583E075F005A4242BF582E43405F58322
:403E4000EFF09002AEE0FF74FF2DF58274FF3CF583E075F005A4242CF582E43405F583EFF09002AFE0FF74FF2DF58274FF3CF583E075F005A4242DF582E43405F583EFF055
:403E80009002B0E0FF74FF2DF58274FF3CF583E075F005A4242EF582E43405F583EFF09002B1E0FF74FF2DF58274FF3CF583E075F005A4242FF582E43405F583EFF0900557
:403EC00026E4F0A304F0E4F50BF50C900180E0FFC3E50C9FE50B94004003023F9B7404250CF5827400350BF583E0FF75F005A4242CF582E43405F583E075F006A4FEEF7580
:403F0000F005A4242BF582E43405F583E075F006A42EFF7404250CF5827400350BF583E0FE75F005A4242DF582E43405F583E075F006A42FFFEE75F005A4242FF582E434E1
:403F400005F583E025E02F2402FF7404250CF5827400350BF583E025E02495F582E43404F583E4F0A3EFF07404250CF5827400350BF583E025E02495F582E43404F583E06B
:403F8000FEA3E0FF900527E02FF0900526E03EF0050CE50C7002050B023ECB900527E004F07006900526E004F0222575202D20494D5520256420636F6E66696775726174CA
:403FC000696F6E3A00000D0A004669726D776172652076657273696F6E3A2000494D55626F617264207620312E302E31000D0A0D0A0044455649434520494E464F0D0A0095
:4040000049443A2025640D0A00494D5520436F6E6E65637465643A2025640D0A00494D557320434F4E46494755524154494F4E0D0A00496D75202564200D0A0949443A20F9
:4040400025640D0A0009416363656C65726F6D65746572733A20005945530D0A004E4F0D0A00094779726F73636F7065733A2000094D61676E65746F6D65746572733A2084
:4040800000095175617465726E696F6E3A20000954656D70657261747572653A200053454E534F525320494E464F0D0A00094163633A2025640925640925640D0A00094778
:4040C00079726F3A2025640925640925640D0A00094D61673A2025640925640925640D0A000954656D70657261747572653A2025640D0A0064656275673A20256C64000025
:40410000000000000000000000000000000000000000000000000000000000000000000000000000000000000000000000000000000000000000000000000000000000007F
:40414000000000000000000000000000000000000000000000000000000000000000000000000000000000000000000000000000000000000000000000000000000000003F
:4041800000000000000000000000000000000000000000000000000000000000000000000000000000000000000000000000000000000000000000000000000000000000FF
:4041C00000000000000000000000000000000000000000000000000000000000000000000000000000000000000000000000000000000000000000000000000000000000BF
:40420000000000000000000000000000000000000000000000000000000000000000000000000000000000000000000000000000000000000000000000000000000000007E
:40424000000000000000000000000000000000000000000000000000000000000000000000000000000000000000000000000000000000000000000000000000000000003E
:4042800000000000000000000000000000000000000000000000000000000000000000000000000000000000000000000000000000000000000000000000000000000000FE
:4042C00000000000000000000000000000000000000000000000000000000000000000000000000000000000000000000000000000000000000000000000000000000000BE
:40430000000000000000000000000000000000000000000000000000000000000000000000000000000000000000000000000000000000000000000000000000000000007D
:40434000000000000000000000000000000000000000000000000000000000000000000000000000000000000000000000000000000000000000000000000000000000003D
:4043800000000000000000000000000000000000000000000000000000000000000000000000000000000000000000000000000000000000000000000000000000000000FD
:4043C00000000000000000000000000000000000000000000000000000000000000000000000000000000000000000000000000000000000000000000000000000000000BD
:40440000000000000000000000000000000000000000000000000000000000000000000000000000000000000000000000000000000000000000000000000000000000007C
:40444000000000000000000000000000000000000000000000000000000000000000000000000000000000000000000000000000000000000000000000000000000000003C
:4044800000000000000000000000000000000000000000000000000000000000000000000000000000000000000000000000000000000000000000000000000000000000FC
:4044C00000000000000000000000000000000000000000000000000000000000000000000000000000000000000000000000000000000000000000000000000000000000BC
:40450000000000000000000000000000000000000000000000000000000031202D204465766963652049443A0032202D204E756D626572206F6620636F6E6E6563746564D6
:4045400020494D55733A0033202D20494D55732049443A0034202D204D61672063616C20706172616D65746572733A0000000000000000000000000000000000000000000A
:4045800000000000000000000000000000000000000000000000E5142426F582E4340AF583E0051422900A23300803900A26E475F001122DAC022B642001E97F2ED2018004
:4045C00018EF540F2490D43440D4FF30050BEF24BFB41A0050032461FFE515600215150518E5187002051730080E900A23E475F001122DACEF022BAA0271857403D20880D6
:4046000003E4C208F514900A23122DC3E4F515F517F518E51560077F201245D980F57516FFC202C201C203C204C206C207C2091245A5FF700D3008057F001245EAAF18AE73
:404640001722B4255FC2D5C2051245A5FF24D0B40A00501A75F00A781530D50508B6FF0106C6A426F620D5047002D20480D924CFB41A00EF5004C2E5D2050248DCD202806E
:40468000C6D20180C0D20380BCD2D580BAD20680B47F201245D92003077401B5150040F1124596FF1245D9024613D209D2078095124596FB124596FA124596F94A4B7006BA
:4046C00079DA7A497BFF20032EE515602A7E008E82758300122B7D60060EEE651670F0C2D5EBC0E0EAC0E0E9C0E0EE12493DD0E0F9D0E0FAD0E0FB122B64FF60AAEBC0E0EA
:40470000EAC0E0E9C0E01245D9D0E02401F9D0E03400FAD0E0FBE5160460DCD516D98087D20380A212491F60F7E51670010412280CA916600DE516600914F5161249C7EF9B
:4047400060F3EA30E702F404C3995079EAF425160430E701E404F516800D12491F60C1EA0516251612280CEA900A52F030E701E4251604D516042006011412493DE4C0E0A9
:404780001249C7900A52E0601320E70714F01245C1802204F0D0E014C0E07F001245C1E51660071245B81516800B3006031245B8D0E0024613D0E00480C412491F609EE50E
:4047C000160412280C900A52EAF0E516200602600104240412493D74FF04C0E01249C71245C1E51620060260031245B8D0E0B516E87F451245CB900A52E07F2B30E7047F0C
:404800002DF404C0E01245D9D0E075F00A84C0F01245C2D0E01245C2024613791080027908C207C2098008D2D5790A8004790AC2D5E516047002F516E4FAFDFEFF12459642
:40484000FC7B08200213124596FD7B1030010A124596FE124596FF7B20EC3382D592D55013C3E43001069FFFE49EFEE42002039DFDE49CFCE4CBF8C202EC700CCFCECDCCFE
:40488000E824F8F870F38017C3EF33FFEE33FEED33FDEC33FCEB33FB994002FB0FD8E9EB300205F8D0E0C448B202C0E00AEC4D4E4F78207B0070C2EAB5160040BCC0E01256
:4048C000493FD0F0D0E0200204C4C0E0C4B202C0F01245C2D0F0D5F0EB024613122DCC46B053481B5846814C467D42481F4F482744482749469643482D55475A4647BA45CC
:4049000047244749FA5046852D46892E46AC2B468D2346AA2049E32A464548000046A4E516B4FF03751606124596FC124596FD124596FE124596FF900A4B022849790AA29E
:40494000D5200414300609B910020404B9080104A2D52007025001042003689203B515005034C0E07F203004197F30A20372077206500F124996C203C207C206C2097F30FE
:40498000800F300603E9C0E01245D9300603D0E0F9D0E0B515CC3006177F30B9100C1245D97F583005077F788003B908031245D93003057F2D0245D97F202009F87F2B203E
:4049C00007F322920380CF7F00B40700500B244BF582E4340AF583E0FF22286E756C6C2900D2021245963002F8C202781530D50108F60246452D504349581245962403B49F
:404A000005004001E49049F5931245CA743A1245CAD20475150402481BC0E0C0F0C083C082C085C084C086758600C093759300C0D075D000C000C001C002C003C004C005D4
:404A4000C006C007900A53E4F0A3F0900EA9E02404F582E43400F583E0FF7E00126D7A900EA9E02404F582E43400F583E0FF7E001267AD900EA9E0FD2404F582E43400F500
:404A800083E0FF75F006A424C0F582E43404F583E0FB900A53E4F0A3EBF0EF75F006A424C1F582E43404F583E0FB900A54E0FEEBFF75F015EDA424ABF582E5F0340EF5831D
:404AC000EEF0A3EFF0900EA9E0FD2404F582E43400F583E0FF75F006A424C2F582E43404F583E0FB900A53E4F0A3EBF0EF75F006A424C3F582E43404F583E0FB900A54E071
:404B0000FEEBFF75F015EDA424ADF582E5F0340EF583EEF0A3EFF0900EA9E0FD2404F582E43400F583E0FF75F006A424C4F582E43404F583E0FB900A53E4F0A3EBF0EF7599
:404B4000F006A424C5F582E43404F583E0FB900A54E0FEEBFF75F015EDA424AFF582E5F0340EF583EEF0A3EFF0900EA9E0FD2404F582E43400F583E0FF75F006A42409F56F
:404B800082E43402F583E0FB900A53E4F0A3EBF0EF75F006A4240AF582E43402F583E0FB900A54E0FEEBFF75F015EDA424B1F582E5F0340EF583EEF0A3EFF0900EA9E0FD97
:404BC0002404F582E43400F583E0FF75F006A4240BF582E43402F583E0FB900A53E4F0A3EBF0EF75F006A4240CF582E43402F583E0FB900A54E0FEEBFF75F015EDA424B39C
:404C0000F582E5F0340EF583EEF0A3EFF0900EA9E0FD2404F582E43400F583E0FF75F006A4240DF582E43402F583E0FB900A53E4F0A3EBF0EF75F006A4240EF582E43402B8
:404C4000F583E0FB900A54E0FEEBFF75F015EDA424B5F582E5F0340EF583EEF0A3EFF0900EA9E0FD2404F582E43400F583E0FF75F006A42481F582E43401F583E0FB900A7E
:404C800053E4F0A3EBF0EF75F006A42482F582E43401F583E0FB900A54E0FEEBFF75F015EDA424B7F582E5F0340EF583EEF0A3EFF0900EA9E0FD2404F582E43400F583E093
:404CC000FF75F006A42483F582E43401F583E0FB900A53E4F0A3EBF0EF75F006A42484F582E43401F583E0FB900A54E0FEEBFF75F015EDA424B9F582E5F0340EF583EEF0D2
:404D0000A3EFF0900EA9E0FD2404F582E43400F583E0FF75F006A42485F582E43401F583E0FB900A53E4F0A3EBF0EF75F006A42486F582E43401F583E0FB900A54E0FEEBA3
:404D4000FF75F015EDA424BBF582E5F0340EF583EEF0A3EFF0900EA9E004FF900180E0FEEF8EF084AFF0900EA9EFF0701378307C037D017B017A0E79AA7E017F65122F2BF7
:404D8000D007D006D005D004D003D002D001D000D0D0D093D086D084D085D082D083D0F0D0E032E4900588F0A3F0901136F0900180E0FF901136E0FEC39F400302511D7495
:404DC000042EF582E43400F583E0FF7E00126D7A901136E02404F582E43400F583E0FF7E001267AD901136E0FD2404F582E43400F583E0FF75F006A424C0F582E43404F57E
:404E000083E0FB900588E4F0A3EBF0EF75F006A424C1F582E43404F583E0FB900589E0FEEBFF75F015EDA42431F582E5F03403F583EEF0A3EFF0901136E0FD2404F582E404
:404E40003400F583E0FF75F006A424C2F582E43404F583E0FB900588E4F0A3EBF0EF75F006A424C3F582E43404F583E0FB900589E0FEEBFF75F015EDA42433F582E5F034CA
:404E800003F583EEF0A3EFF0901136E0FD2404F582E43400F583E0FF75F006A424C4F582E43404F583E0FB900588E4F0A3EBF0EF75F006A424C5F582E43404F583E0FB90AC
:404EC0000589E0FEEBFF75F015EDA42435F582E5F03403F583EEF0A3EFF0901136E0FD2404F582E43400F583E0FF75F006A42409F582E43402F583E0FB900588E4F0A3EB3C
:404F0000F0EF75F006A4240AF582E43402F583E0FB900589E0FEEBFF75F015EDA42437F582E5F03403F583EEF0A3EFF0901136E0FD2404F582E43400F583E0FF75F006A4F9
:404F4000240BF582E43402F583E0FB900588E4F0A3EBF0EF75F006A4240CF582E43402F583E0FB900589E0FEEBFF75F015EDA42439F582E5F03403F583EEF0A3EFF0901153
:404F800036E0FD2404F582E43400F583E0FF75F006A4240DF582E43402F583E0FB900588E4F0A3EBF0EF75F006A4240EF582E43402F583E0FB900589E0FEEBFF75F015EDDC
:404FC000A4243BF582E5F03403F583EEF0A3EFF0901136E0FD2404F582E43400F583E0FF75F006A42481F582E43401F583E0FB900588E4F0A3EBF0EF75F006A42482F58270
:40500000E43401F583E0FB900589E0FEEBFF75F015EDA4243DF582E5F03403F583EEF0A3EFF0901136E0FD2404F582E43400F583E0FF75F006A42483F582E43401F583E0F7
:40504000FB900588E4F0A3EBF0EF75F006A42484F582E43401F583E0FB900589E0FEEBFF75F015EDA4243FF582E5F03403F583EEF0A3EFF0901136E0FD2404F582E4340023
:40508000F583E0FF75F006A42485F582E43401F583E0FB900588E4F0A3EBF0EF75F006A42486F582E43401F583E0FB900589E0FEEBFF75F015EDA42441F582E5F03403F536
:4050C00083EEF0A3EFF0901136E0FD2404F582E43400F583E0FF25E024E7F582E43401F583E0FB900588E4F0A3EBF0EF25E024E8F582E43401F583E0FB900589E0FEEBFFE0
:4051000075F015EDA42443F582E5F03403F583EEF0A3EFF0901136E004F0024DAE22E4900589F0FE7F15FD7B017A00791B122E437E007F117D007B017A007904122E43E4E5
:40514000900588F0900588E0FFC39411507A7E00126D7AE47F0AFEFDFC126836126272E47F0AFEFDFC126836900588E0FF75F005A4242BF582E43405F5837401F0EF75F051
:4051800005A4242CF582E43405F5837401F0EF75F005A4242DF582E43405F583E4F0EF75F005A4242EF582E43405F583E4F0EF75F005A4242FF582E43405F5837401F090D7
:4051C0000588E004F0025144E47F32FEFDFC126836E4900588F0900588E0FFC3941150177E00126D7A900588E0FF7E001268BE900588E004F080DFE4FFFE126D7AE47F0AFF
:40520000FEFDFC1268367F751273AE90058AE4F0A3EFF0E490058AF0A3F0900180F0900588F0900588E0FFC39411505F7E00126D7AE47F0AFEFDFC1268367F751273AE7E54
:405240000090058AEEF0A3EFF064717023900180E004F0E490058AF0A3F0900588E025E0248CF582E43405F583E4F0A304F08013900588E025E0248CF582E43405F583E47E
:40528000F0A3F0900588E004F080977E007F157D007B017A00791B122E437E007F117D007B017A007904122E437E007F227D007B017A047995122E43E4900588F090058811
:4052C000E0FFC394115034EF25E0248CF582E43405F583E0FEA3E064014E7017900588E0A3E02404F582E43400F583EFF0900589E004F0900588E004F080C2E4FF12752A51
:40530000E47F0AFEFDFC1268367F0112752AE47F0AFEFDFC126836E4900588F0900588E0FFC39411507A7E00126D7AE47F0AFEFDFC126836126181E47F0AFEFDFC12683662
:40534000900588E0FF75F005A4242BF582E43405F5837401F0EF75F005A4242CF582E43405F5837401F0EF75F005A4242DF582E43405F583E4F0EF75F005A4242EF582E4CD
:405380003405F583E4F0EF75F005A4242FF582E43405F5837401F0900588E004F002531CE47F32FEFDFC126836900526E4F0A304F0E4900588F0900180E0FF900588E0FE07
:4053C000C39F400302547CE0FF2404F582E43400F583E0FD75F005A4242CF582E43405F583E075F006A4FCED75F005A4242BF582E43405F583E075F006A42CFD74042FF5EC
:4054000082E43400F583E0FF75F005A4242DF582E43405F583E075F006A42DFDEF75F005A4242FF582E43405F583E025E02D2402FD74042EF582E43400F583E025E024951B
:40544000F582E43404F583E4F0A3EDF074042EF582E43400F583E025E02495F582E43404F583E0FEA3E0FF900527E02FF0900526E03EF0900588E004F00253B6900527E0FB
:4054800004F07006900526E004F0229005897401F0E4A3F0A304F0A374A1F0E4900588F0900180E0FF900588E0FEC39F40030257829006EA743AF074042EF582E43400F5F4
:4054C00083E075F005A4242BF582E43405F583E0607B900588E0FF75F015A4241CF582E5F03400F583E0FCA3E0FD900589E0FE24EAF582E43406F583ECF0A3EDF075F0158A
:40550000EFA4241EF582E5F03400F583E0FCA3E0FD74EC2EF582E43406F583ECF0A3EDF0900588E075F015A42420F582E5F03400F583E0FCA3E0FD74EE2EF582E43406F57E
:4055400083ECF0A3EDF0900589E02406F0900588E0FF2404F582E43400F583E075F005A4242CF582E43405F583E06078900588E0FE75F015A42422F582E5F03400F583E0D0
:40558000FCA3E0FD900589E0FB24EAF582E43406F583ECF0A3EDF075F015EEA42424F582E5F03400F583E0FCA3E0FD74EC2BF582E43406F583ECF0A3EDF075F015EFA42432
:4055C00026F582E5F03400F583E0FEA3E0FF74EE2BF582E43406F583EEF0A3EFF0900589E02406F0900588E0FF2404F582E43400F583E075F005A4242DF582E43405F583A5
:40560000E06078900588E0FE75F015A42428F582E5F03400F583E0FCA3E0FD900589E0FB24EAF582E43406F583ECF0A3EDF075F015EEA4242AF582E5F03400F583E0FCA3B8
:40564000E0FD74EC2BF582E43406F583ECF0A3EDF075F015EFA4242CF582E5F03400F583E0FEA3E0FF74EE2BF582E43406F583EEF0A3EFF0900589E02406F0900588E0FF96
:405680002404F582E43400F583E075F005A4242FF582E43405F583E0602D75F015EFA4242EF582E5F03400F583E0FEA3E0FF900589E024EAF582E43406F583EEF0A3EFF0D1
:4056C000900589E02402F0900588E02404F582E43400F583E025E02495F582E43404F583E0FEA3E024E9F58274063EF583743AF09005897401F0E4A3F0900588E02404F5FA
:4057000082E43400F583E0F925E02495F582E43404F583E0FEA3E0FF90058AE0FDD3EF9D7480F8EE648098402BE0FF24EAF582E43406F583E0FEEF90058BE02DFDE433FC35
:40574000748C2DF58274053CF583EEF090058AE004F080A5E925E02495F582E43404F583E0A3E0FF90058BE02FF07E007F167D007B017A0679EA122E43900588E004F002CA
:4057800054A07B017A05798C900526E0A3E014FD12703B900526E0FCA3E0FD248BF58274053CF583EFF07B017A05798C126720227B007A4079807D027C001275769040828D
:4057C0007418F07B007A4079847DFF7C0F127576904086741BF07B007A4079887D0B7C0012757690408A7419F07B007A40798C7D2F7C0012757690408E7418F07B007A40A6
:4058000079907DBF7C5D1275769040927419F09043007406F09042007452F07B0C7A01790F1276019046A1EFF07B007A4279227D107C071275767B007A4279207D517C1235
:40584000127576E4900587F07F19FEFDFC900583122D94900583E0A3E0A3E0FEA3E0D39400EE9400404AA3E0FF64036043904225E05401FEEF25E04E5403900587F0E47F11
:40588000E07E01FDFC127000900583E0FCA3E0FDA3E0FEA3E0FF74FFEF24FFFFEE34FFFEED34FFFDEC34FFFC900583122D9480A3900583E0A3E0A3E0FEA3E04E70057F03EA
:4058C0001277107B007A4079047D007C011275769040047407F0904006E4F09040087448F0904004E4F0904009F09040017402F09043A2E0441FF022900588EEF0A3EFF00A
:40590000A3EDF012766B90058CEFF012762F90058DEEF0A3EFF0900588E0FCA3E0FD6F7002EC6E7003025A279043A2E0540190058BF0A3E0703BA3E0FEA3E0FF4E6004ED87
:405940004C702EEF4E70117B027A407980127578904082E054BFF022904082E04440F07B027A407980900588E0FCA3E0FD1275782290058BE06053904001E4F0904010044D
:40598000F0904014E4F0904008E0547FF0904082E05408600A900588E07002A3E0702B7B027A40790290058DE0FCA3E0FD1275789040017407F0904001E0540170F8904393
:4059C000A2E054FEF0904001E4F09043A2E05401602F7B027A407902900588E0FCA3E0FD12757890058AE060047F0280027F00EF4401904001F0904001E05401602980F6FC
:405A0000227B027A407980900588E0FCA3E0FD1275789043A2C083C082E0FF90058BE0FEEF4ED082D083F022E4F509126CDEEF7003025B4EE509C394064003025B4E126AD1
:405A4000E18F08E519146049146060147003025ADE147003025B2C240470D0851D1C851E1D85081EE51DB43A11E51EB43A0CE4F51CF51DF51E75190180B1E51CB43FACE560
:405A80001DB40DA7E51E640A70A1FFFE127333809A900001E065086004E5087004C2008002D200E4F51B751902808085081BE51BD394015008E4F51BF519025A2BE51BD30F
:405AC00094804008E4F51BF519025A2BE4F51A200006751903025A2B751904025A2B740F251AF582E43410F583E508F0051AE51AC3951B5003025A2B200025AF1B7E007851
:405B0000AA7C027D017B017A10790F122F2B90032AE4F0A3E51BF090032E7401F0125B4FE4F51AF51BF5190509025A2B151BE51B6003025A2BF51AF51B7F011276B2E4FF43
:405B40001276B2E4F5190509025A2B025A2B229002AAE0F50A7B017A0279AA90032AE0A3E014FD12703B90032AE0FCA3E024A9F58274023CF583E0B50703D38001C3400611
:405B8000E490032EF022E50A122DCC5C08005BF8015C0C035C10045C26055BEC065C4A095C380A5BFC0C5BC8805BE0815BCC825BE8835BD0845BD4855BD8885BDC8A5BE431
:405BC0008B5C6CA100005C6F127714221277132212712B221277162212771822126E92221277152212725F22127717229002ABE0FEA3E0FF12733322126FFF229002ABE024
:405C0000FEA3E0FF1238B72212745A22127406227F087E00126673EF60067F011273F122E4FF1273F122126DC3EF60067F011273F122E4FF1273F1221271F7EF60067F01C0
:405C40001273F122E4FF1273F1227F011273F1E47FE87E03FDFC126836E4FF1276B8E47FE87E03FDFC1268361276392212548B2275930078007583467582E8E04401F00066
:405C800090480074C0F07581239076BCE4F0A3F0A3F0A3F0907010F0907019F0907020F09076007410F0907604E4F0A3F0A3F0A3F09078007800087400F0A37408F0E8B8BB
:405CC000040274FFA3F0A37422F0A374BCF0A37476F0A3E4F0A3E81475F008A4F0A3B804D59070107401F0907014F07E707F18122604907010F0EA901125F002261175223A
:405D00001F7523FD125D8A025D45026442E493A3F8E493A34003F68001F208DFF48029E493A3F85407240CC8C333C4540F4420C8834004F456800146F6DFE4800B0102043D
:405D40000810204080906A20E47E019360BCA3FF543F30E509541FFEE493A360010ECF54C025E060A840B8E493A3FAE493A3F8E493A3C8C582C8CAC583CAF0A3C8C582C86D
:405D8000CAC583CADFE9DEE780BE7B007A4679E8127601EF4401FD7B007A4679E812760D1265027B017A507903127601EF4402FD7B017A50790312760D7B017A5079131284
:405DC0007601EF4402FD7B017A50791312760D9043A0E04440F09043C2E04410F07B087A1F79E8900588E4F0A37451F0A37402F07F087E00126F7B7B087A1F79F0900588A1
:405E0000E4F0A37451F0A374C2F07F087E00126F7B7C797DE27B007A5179F27F087E001271AC7C797DEA7B007A5179107F0A7E001271AC7C797DF47B007A5179227F087E86
:405E4000001271AC9044F47401F0904322E04408F09046ECE0C394055006904689743AF090480074F1F01257B0126FE27B007A4379A0C003C002900588EBF0A3EAF0A37459
:405E8000B0F0D002D0037F0E7E00126F7B9043B0E054FDF022E4900A57F0A3F0A3EEF0A3EFF07F3C1273AE900A57EFF07F3B1273AE900A58EFF0A3E0FCA3E0FD9004C07531
:405EC000F006122DA0EC75F006A42583F583EFF0900A57E0FF9004C175F006ED122DA0EC75F006A42583F583EFF0E4900A57F0A3F07F3E1273AE900A57EFF07F3D1273AE76
:405F0000900A58EFF0A3E0FCA3E0FD9004C275F006122DA0EC75F006A42583F583EFF0900A57E0FF9004C375F006ED122DA0EC75F006A42583F583EFF0E4900A57F0A3F047
:405F40007F401273AE900A57EFF07F3F1273AE900A58EFF0A3E0FCA3E0FD9004C475F006122DA0EC75F006A42583F583EFF0900A57E0FF9004C575F006ED122DA0EC75F051
:405F800006A42583F583EFF0E4900A57F0A3F022E4900A57F0A3F0A3EEF0A3EFF07F441273AE900A57EFF07F431273AE900A58EFF0A3E0FCA3E0FD90020975F006122DA0F3
:405FC000EC75F006A42583F583EFF0900A57E0FF90020A75F006ED122DA0EC75F006A42583F583EFF0E4900A57F0A3F07F461273AE900A57EFF07F451273AE900A58EFF022
:40600000A3E0FCA3E0FD90020B75F006122DA0EC75F006A42583F583EFF0900A57E0FF90020C75F006ED122DA0EC75F006A42583F583EFF0E4900A57F0A3F07F481273AE8F
:40604000900A57EFF07F471273AE900A58EFF0A3E0FCA3E0FD90020D75F006122DA0EC75F006A42583F583EFF0900A57E0FF90020E75F006ED122DA0EC75F006A42583F565
:4060800083EFF0E4900A57F0A3F022900A59EEF0A3EFF07F491273AE900A57EFF07F4A1273AE900A58EFF0A3E0FCA3E0FD90018175F006122DA0EC75F006A42583F583EFB4
:4060C000F0900A57E0FF90018275F006ED122DA0EC75F006A42583F583EFF0E4900A57F0A3F07F4B1273AE900A57EFF07F4C1273AE900A58EFF0A3E0FCA3E0FD9001837520
:40610000F006122DA0EC75F006A42583F583EFF0900A57E0FF90018475F006ED122DA0EC75F006A42583F583EFF0E4900A57F0A3F07F4D1273AE900A57EFF07F4E1273AE53
:40614000900A58EFF0A3E0FCA3E0FD90018575F006122DA0EC75F006A42583F583EFF0900A57E0FF90018675F006ED122DA0EC75F006A42583F583EFF0E4900A57F0A3F085
:40618000227D107F6B12709EE47F0AFEFDFC1268367D207F6A12709EE47F0AFEFDFC1268367D067F1A12709EE47F0AFEFDFC1268367D187F1B12709EE47F0AFEFDFC1268DB
:4061C00036E4FD7F1C12709EE47F0AFEFDFC1268367D057F1D12709EE47F0AFEFDFC1268367D0D7F2412709EE47F0AFEFDFC1268367D0C7F2512709EE47F0AFEFDFC1268DB
:40620000367D0A7F2612709EE47F0AFEFDFC1268367D167F6312709EE47F0AFEFDFC1268367D817F2712709EE47F0AFEFDFC1268367D8C7F2512709EE47F0AFEFDFC12689C
:40624000367D037F2612709EE47F0AFEFDFC1268367D8D7F2712709EE47F0AFEFDFC126836E4FD7F6B12709EE47F14FEFDFC126836227D107F6B12709EE47F0AFEFDFC1273
:4062800068367D207F6A12709EE47F0AFEFDFC1268367D067F1A12709EE47F0AFEFDFC1268367D187F1B12709EE47F0AFEFDFC126836E4FD7F1C12709EE47F0AFEFDFC12C1
:4062C00068367D057F1D12709EE47F0AFEFDFC1268367D0D7F2412709EE47F0AFEFDFC1268367D0C7F2512709EE47F0AFEFDFC1268367D0A7F2612709EE47F0AFEFDFC122A
:4063000068367D1F7F6312709EE47F0AFEFDFC1268367D817F2712709EE47F0AFEFDFC1268367D8C7F2512709EE47F0AFEFDFC1268367D107F2612709EE47F0AFEFDFC128C
:4063400068367D837F2712709EE47F0AFEFDFC126836E4FD7F6B12709EE47F14FEFDFC1268362290058FEBF0A3EAF0A3E9F0A3EDF0127430900592E0C3948040030264368F
:406380001272DDEF600302642E90059374FFF090058FE0FBA3E0FAA3E0F9900598E4F0A37410F07F40126942EF6407707C904722E0540260F8904722E054026009E0FF1328
:4063C00013543FFF80027FFFEF7004900593F0900593E0704E900592E0FD7C0090112DE0FBA3E0900598F07F40126C3AEF6407702A90059374FFF0904722E0540260F890E1
:406400004722E054026009E0FF1313543FFF80027FFFEF7014900593F0800E90059374FFF0800690059374FFF0127619800E9005937404F080069005937401F0900593E02E
:40644000FF22127706126D2DE47F64FEFDFC1268367F011276B812723D127482126FAF1270CE1274F47E777F0D12729F1274BB7E777F0A1272BEE4FF1276B21274A8127459
:4064800095D2AF9044F474FDF01274CE1273651271D212754912750612727FE47F0AFEFDFC1268367F0112752A12511EE4900582F0C20DC20A90032AF0A3F090032EF0E489
:4064C000FF1276BE126E0A1276C4EF701B300C0E7F011276E2C20CC20B125A2880E9300BE67F011276E280DF7F011276BE1276C4EF640160F812746EEF30E7C31270CE8086
:40650000BE22E4FFFEFDFC90112F122D949076007410F09070107401F0907019E4F07B027A78F97DA07C021275789078027401F0A374A3F07B027A787904C003C002C001D5
:406540007BFF7A777942E9EAE4AD01AC02D001D002D0031275787B027A7879067D087C781275787B027A7679047D107C001275787B027A767906E4FDFC12757890702974B0
:4065800009F090703904F09070697414F0907079741DF09070147401F0907018E0540170F8907028E0540170F8907038E0540170F8907068E0540170F8907078E0540170F0
:4065C000F822C0E0C083C082C085C084C086758600C093759300C0D075D000C001C002C003C006C007E4FBA2AF33FAD2AF9044F474FDF090646FE0FFFE541EF960069010D7
:40660000FAE049F0EF30E545906444E0FE9010F7E024D7F582E43410F583EEF07B01EB602C9010D5E060069010F97401F09010F7E004F0E0C394204002E4F09010D6E0FEA9
:406640009010F7E0B506069010D57401F0EF20E5A2AF02EA24FF92AFD007D006D003D002D001D0D0D093D086D084D085D082D083D0E032900588EEF0A3EFF090058E7401B2
:40668000F012768A12737E78007C007D017B017A0079157E007F04122F2B90058CE4F0A304F0E490058AF0A3F090058CE0FEA3E0FF90058AE0FCA3E0FDC39FEE6480F8EC4C
:4066C000648098503FEDC4F8540FC868FFECC454F048FE7B0174152FF974003EFA900588E0A3E0FFED2FFD126363EF6007E490058EF0801090058BE004F0700690058AE08B
:4067000004F080A578157C007D017B017A0079007E007F04122F2B12768390058EE0FF22900A23EBF0A3EAF0A3E9F0A3ECF0A3EDF07F3A1275DA7F3A1275DA900016E0FF65
:406740001275DA900A26E0A3E0FF1275DAE4F514F515D3900A27E09515900A26E095144022900A23E0FBA3E0FAA3E02515F9EA3514FA122B64FF1275DA0515E515700205F1
:406780001480CFE4F514F5151276A6EF20E0130515E515AE147002051414D394E8EE940340E67F011276B2E4FF1276B222900A55EEF0A3EFF090052B75F005122DA0EE752C
:4067C000F005A42583F583E0600B900A55E0FEA3E0FF125E95900A55E0FEA3E0FF90052C75F005122DA0EE75F005A42583F583E06003125F90900A55E0FEA3E0FF90052D77
:4068000075F005122DA0EE75F005A42583F583E0600312608B900A55E0FEA3E0FF90052F75F005122DA0EE75F005A42583F583E06003126B922290FFFC122DF2122D9485B3
:406840002283852382E0A3E0A3E0FEA3E0D39400EE9480403D901126E0FCA3E0FDA3E0FEA3E0FF127000852283852382C083C082E0FCA3E0FDA3E0FEA3E02400FFEE348056
:40688000FEED34FFFDEC34FFFCD082D083122D9480AD90111CE0FCA3E0FDA3E0FEA3E0FF852283852382E0F8A3E0F9A3E0FAA3E0FB122BCE127000900004122DF222E49056
:4068C00005AEF0A3EEF0A3EFF07F491273AE9005AEEFF0A3E0FCA3E090027775F003122DA0EC75F003A42583F583EFF0E49005AEF07F4A1273AE9005AEEFF0A3E0FCA3E055
:4069000090027875F003122DA0EC75F003A42583F583EFF0E49005AEF07F4B1273AE9005AEEFF0A3E0FCA3E090027975F003122DA0EC75F003A42583F583EFF0E49005AE67
:40694000F022900595EBF0A3EAF0A3E9F090059A7407F0904722E05402604E90472074B6F074D5F07402F0904722E054027032904720EFF0E4FFFED3900599E09F900598AB
:40698000E09E402B900595E0FBA3E0FAA3E02FF9EA3EFA122B64904720F00FEF70010E80D690059A7409F0800690059A7404F090059AE0FF229005F1EBF0A3EAF0A3E9F001
:4069C0009005F7EBF0A3EAF0A3E9F09005F1E0FBA3E475F00112303CA9F0FA122B6470EB9005F274FFF5F01230269005F4E0FBA3E475F00112303CA9F0FA122B64FF9005FE
:406A0000F1E0FBA3E475F00112303CA9F0FAEF122BAA70D69005F7E0FBA3E0FAA3E0F922420EA7800001190042108F0001411136004110F8004110FA004110D6004110F7F0
:406A4000004110D5004110F900411137004111380043112A00000044112102DC6C0044111C0000BB80411120304411265DC000004111390041113500410EA90041113A00D9
:406A800000900591EBF0A3EAF0A3E9F0A3EDF0E4A3F0900594E0FFA3E0C39F503E904722E054016003D38001C340097F017E0012712C80E9904720E0FF900591E0FBA3E009
:406AC000FAA3E0F9900595E0FEE92EF9E43AFAEF122BAA900595E004F080B7900595E0FF22E4FF9044C87402F09010D6E0FE9010F7E0FD9010D5E07004EE6D602474D72EEC
:406B0000F582E43410F583E0FF0EEEC394204002E4FE9010D6EEF09010D5E06018E4F0801490646FE0FE30E50C906444E0FFEE541E6002E4FF9044C07402F02212743090BF
:406B4000059074FFF01272DDEF703B7F011270FDEF6407702C7B017A11792D7D02126A81EFB40215E4900590F0904722E0540270107F01FE12712C80F0904722E054026076
:406B8000D412761980069005907404F0900590E0FF22E4900A57F0A3F0A3EEF0A3EFF07F421273AE900A57EFF07F411273AE900A58EFF0FD900A5AE025E0FF900A59E03369
:406BC000FE74E72FF58274013EF583EDF0900A57E0FD74E82FF58274013EF583EDF0E4900A57F0A3F022900589ECF0A3EDF0900588EFF0541F25E0FFE433FEE42FFFEE3406
:406C000044FAA9077B0112756990058BEEF0A3EFF0900588E075F002A42400FFE5F03444FAA9077B01A3E0FEA3E0FFFDAC0612757890058BE0FEA3E0FF22900595ECF0A3E0
:406C4000EDF0AC077D07904722E05402603B90472074B6F074D8F07405F0904722E054027023904720ECF0900595E0904720F0900595E0A3E0904720F0EBF0900598E0900E
:406C80004720F080067D0980027D04AF05221274301272DDEF703B127318900590EFF06407702A904722E0540270087F01FE12712C80F0904722E054026009E0FF1313540C
:406CC0003FFF80027FFFEF7004900590F012761980069005907404F0900590E0FF229044C87402F09010F7E0FE9010D6E0B5060E9010D5E060047F20802CE4FF802890103F
:406D0000F7E0FE9010D6E0C39E500BE0FE9010F7E0C39EFF80109010D6E0FEC374209EFE9010F7E02EFF9044C07402F022E4FFFEC3EF9404EE94005023900EA7E0FCA3E05C
:406D40002FF582EC3EF583E0FD74152FF58274003EF583EDF00FEF70010E80D4900015E07004126DC32278007C007D017B017A0079157E007F04122F2B22900A55EEF0A395
:406D8000EFF07F0F1276FA7F03127700900A55E0FEA3E0FFC3940FEE6480948050031276FA900A55E07004A3E0640F7004FF127700900A55E07004A3E0641070057F0112F3
:406DC000770022E4FFFEC3EF9404EE9400502AEF2480FDE43EFC900EA7E0FAA3E02DF582EA3CF583E0FD74152FF58274003EF583EDF00FEF70010E80CD900015E070041259
:406E000071F722E4FFFE1266732212753A9004B8122D94300C05C20C125A28124DA3781B7C007D017B017A0379307E017F65122F2B300C05C20C125A2812753A90026F12E0
:406E40002D947F407E4B7D4C7C0012765722C2D5E830E70FB2D5E4C39BFBE49AFAE499F9E498F8EC30E717B2D5126E84122C59E4C39BFBE49AFAE499F9E498F88003122C1C
:406E80005930D50DE4C39FFFE49EFEE49DFDE49CFC229002ABE0D39400500B7F011276DCE4900018F0229002ABE0D394FA400374FAF09002ABE0FF7E007C017DF4122E1628
:406EC000780A122D20900018EFF01275CCE4FF1276DC22904F00E05401F0904F02E054FCF0904F0BE054CFF0E04430F0E054F0F0E0440FF0904F01E04401F07F7F7EBB12D3
:406F000075A27F7F7EBB1275B0E4FF1276AC22904F0CE05401F0904F0EE054FCF0904F0DE04401F0904F17E054CFF0E04430F0E054F0F0E0440FF07F7F1275CCE4FF127259
:406F4000FC7F081276D622900588EBF0A3EAF0A3E9F0E4FDFC9010F8E0601F900588E0FBA3E0FAA3E02DF9EA3CFA122B64FF600A1275DA0DED70010C80E122758600EF4E6E
:406F80006027EF60010E759300900588E0F595A3E0F585A3E0F5848B938A838982E0A30586F0A31586DFF6DEF4E4F593F595227C657DC27F01126BE67D077F0112734CE477
:406FC0009010FAF09064847469F090648F7420F09065267406F09065367447F0906585E4F0227B0C7A0179CF127601EF540790586EF0EFC4540FA3F09058767444F022229A
:40700000EC4D4E700D78FCEF24E950032840FD2200007BF178DA0000EF28FF78FFEE38FEED38FDEC38FC50E7EF2BFFEE38FEED38FDEC38FC40F22205020304900A23EBF0A1
:40704000A3EAF0A3E9F0E4F515F514E514C39D5019900A23E0FBA3E0FAA3E02514F9E43AFA122B646215051480E1AF152212741B9043A0E04408F09043B0E04408F090475E
:407080000174C8F09043ACE04410F09043BCE04410F0904700E0542060F8127396229005AEEFF0A3EDF012754912750612727F9005AEE0FF1275F4127558EF30E1F9900581
:4070C000AFE0FF1275F4127558EF30E1F92212741B906494E04401F0E054FEF01273969044C87402F0E49010D6F09010F7F09010D5F09010F9F09044C07402F0227E079020
:407100004722E05402601F90472074B6F074E1F0740EF0904722E054027007904720EFF080067E0980027E04AF062222EEFA901120E0F88FF0A4FFAEF0E88AF0A42EFEE58B
:40714000F03400FDEF24C9FF78FFEE38FEED38FDE438FC5003027000227F407E4B7D4C7C001276437F407E4B7D4C7C0012765712741B90649EE04410F01273961275E7E44F
:40718000FF1276CA22EFB40A07740D127190740A309811A899B8130CC2983098FDA899C298B811F63099FDC299F59922758600EF4E601BEF60010E8C838D828B958A858974
:4071C00084E493A30586F0A31586DFF5DEF3E4F5952212741B906597E04420F090649CE04410F0906594E04410F012739612758512771B12771C229000167401F0900015FF
:40720000F0E4FFFE126673EF600E7F087E00126673EF60047F0180027F002212741B906494E04420F090649FE04410F09044C07402F0906595E04410F01273962212741BB5
