:40000000021415008F828E83E0540100000070F82278FFE4F6D8FD02147A900000EFF0E4F53FF540F541F54275430AC200121F87EF60057F00121FB7122067D2AF9044F4FC
:4000400074FDF0E4F53B754900754A00754B37900000E0FF70067EFF7FFF80008F4C7B017A0079017D2C7C011212FA8F3E900000E060021543E5436004E53E70C9E53E6046
:400080000302059FC3E5389407E53794004008900001E064016005753B04807E900004E0FE900003E0FDEEF53FEDF54074062540F5827400353FF583E0FE74052540F58228
:4000C0007400353FF583E0FDEEF53CEDF53DE5402407FFE4353FFED3EF9538EE95374005753B03803574072540F5827400353FF583E064176005753B04801F7B017A0079B1
:4001000001E5402404FDE4353FFC121C66EF653D7003EE653C6003753B08E4F539F53AE53B600302058E900005E0F536753B04900002E012088801553101823202083403A0
:400140007A3503883703D438020839040F3A05783B0000058B20000302058EE540453F600302058EFF120D84EF70047F0180027F00900005EFF0753900753A01E4F53B0260
:40018000058E20000302058EE5406401453F600302058EE536C39401400302058E900357E0FEA3E0F5828E83120842E4FBFA7901F81207188F24E536B5241E900357E0FE6B
:4001C000A3E0F5828E83120842E4FB7A01F9F81207187522008F238014E536D395244007E4F522F5238006752201752300E523900005F0E522A3F0A374FFF0E4A3F0F539B6
:40020000753A04F53B02058E900002E06434703C20000302058EE5406403453F600302058EE536C39440400FE536D3947F50087541007542108006754101754220AE41AF47
:40024000427D007B017A01792D1208FF20000302058EC3E5409403E53F9400500302058EE54024FDFFE53F34FFFE742D2542F974013541A801FC7D017B017A0079081209F7
:40028000E7E54024FDFFE53F34FFFEEF2542F542EE3541F541E536C394404012E536D3947F500B121DA8753F007540108006753F01754020E54265407004E541653F600369
:4002C00002036F900007E0FE900006E0FDEEF541EDF542E536D3943F506FE5367F00FEEF2542FFE5413E900259F0A3EFF0900357E0FEA3E0F5828E83120842E4FB7A01F9AA
:40030000F812071890025BEEF0A3EFF0900357E0FEA3E0F5828E83120842EFE4EF600A90025BE475F0011205DA90025BE0FEA3E0FFC390025AE09F900259E09E500B753BD5
:400340000AE4F541F54202058E7B017A01792D900263E53FF0A3E540F0AD42AC41AF36120F0BEF60047F0A80027F008F3B8003753B03E4F541F54202058E20000302058EC7
:40038000E4F541F54202059F20000302058EE5422540FFE541353FFED3EF942CEE9401502DE4F53BAE3FAF40742D2542F974013541A801FC7D017B017A0079051209E7E58F
:4003C000402542F542E53F3541F54102058E753B0302058EE540453F600302058E78257C00FD7BFF7A25791FFE7F081209E7D200753900753A08AE39AF3A78057C007D0105
:400400007B007A0079251209E7E4F53B02058E20000302058EE5406403453F600302058E900007E0FE900006E0FDEEF52FEDF530E536C394404038E536D3947F5031AE2F29
:40044000AF307C007D101208D28F348E338D328C318F4B8E4A8D498C48E4754F10F54EF54DF54CFF7E80FDFC12192C8F358050AE2FAF307C017D001208D2C004C005C006FC
:40048000C007AF36E4FCFDFEFBFA7901F812068DD003D002D001D0001206728F348E338D328C318F4B8E4A8D498C48E4F54F754E01F54DF54CFFFE7D10FC12192C8F35E588
:4004C00036D3943F5072AF367E007C207D001208D2E42FFFE43EFEED3408FDE43CFCC004A905AA06AB07AE2FAF307C007D201208D2D0001206728F348E338D328C31E4F5BA
:400500002DF52EC3E52E9420E52D9400502AE4E52E2534FFE52D3533FEE43532FDE43531A907AA06AB05121CF3EF2535F535052EE52E7002052D80CBE536702AAE2FAF301E
:40054000FCFD7BFFFAF9F8C31207C57019FD7F05120A3DC3E5359FF535E4FD7F06120A3DC3E5359FF535E535F404900005F0E4F53BF539753A018016E4FF120D84EF700604
:400580009046FA7480F01220718003753B057B017A007901853948853A49AF3B1215ED900000E0700302004330000302004322BB010689828A83E0225002E722BBFE02E399
:4005C0002289828A83E49322BB010689828A83F0225002F722BBFE01F322C5F0F8A3E028F0C5F0F8E582158270021583E038F022BB010A89828A83E0F5F0A3E022500687B6
:40060000F009E71922BBFE07E3F5F009E3192289828A83E493F5F074019322BB010789828A830205DA500B09C5F027F7C5F01937F722BBFE0D09F8E325F0F3C5F019E338A6
:40064000F322F889828A8374019325F0C5F0F8E4933822BB010A89828A83F0E5F0A3F0225006F709A7F01922BBFE06F3E5F009F31922EF2BFFEE3AFEED39FDEC38FC22C315
:40068000EF9BFFEE9AFEED99FDEC98FC22E88FF0A4CC8BF0A42CFCE98EF0A42CFC8AF0EDA42CFCEA8EF0A4CDA8F08BF0A42DCC3825F0FDE98FF0A42CCD35F0FCEB8EF0A47C
:4006C000FEA9F0EB8FF0A4CFC5F02ECD39FEE43CFCEAA42DCE35F0FDE43CFC2275F008758200EF2FFFEE33FECD33CDCC33CCC58233C5829BED9AEC99E58298400CF582EE4A
:400700009BFEED9AFDEC99FC0FD5F0D6E4CEFBE4CDFAE4CCF9A88222B800C1B90059BA002DEC8BF084CFCECDFCE5F0CBF97818EF2FFFEE33FEED33FDEC33FCEB33FB10D7C4
:4007400003994004EB99FB0FD8E5E4F9FA227818EF2FFFEE33FEED33FDEC33FCC933C910D7059BE99A4007EC9BFCE99AF90FD8E0E4C9FAE4CCFB2275F010EF2FFFEE33FE50
:40078000ED33FDCC33CCC833C810D7079BEC9AE899400AED9BFDEC9AFCE899F80FD5F0DAE4CDFBE4CCFAE4C8F922EF4BFFEE4AFEED49FDEC48FC22C3E49FFFE49EFEE49D2F
:4007C000FDE49CFC22EB9FF5F0EA9E42F0E99D42F0E89C45F022E8600FECC313FCED13FDEE13FEEF13FFD8F122E8600FEFC333FFEE33FEED33FDEC33FCD8F122BB010789DC
:40080000828A830208365005E9F8020A0DBBFE05E9F8020A1989828A83020842BB010789828A8302085E5005E9F8020A25BBFE05E9F8020A3122E0FCA3E0FDA3E0FEA3E06A
:40084000FF22E493FC740193FD740293FE740393FF22E0F8A3E0F9A3E0FAA3E0FB22ECF0A3EDF0A3EEF0A3EFF022E0FBA3E0FAA3E0F922EBF0A3EAF0A3E9F022E493FB74E9
:400880000193FA740293F922D083D082F8E4937012740193700DA3A393F8740193F5828883E4737402936860EFA3A3A380DFE5092582F582E5083583F583B50804858209B7
:4008C0002210AF06858209F50822858209F508D2AF22EC8EF0A4CCC5F0CCCDF8EFA4CEC5F02DFDE43CFCE8A42EC8C5F03DFDE43CFCEFA4FFE5F028FEE43DFDE43CFC22EF51
:400900004E6012EF60010EEDBB010B89828A83F0A3DFFCDEFA2289F05007F709DFFCA9F022BBFEFCF309DFFCA9F022E709F608DFFA8046E709F208DFFA803E88828C83E7AA
:4009400009F0A3DFFA8032E309F608DFFA806EE309F208DFFA806688828C83E309F0A3DFFA805A89828A83E0A3F608DFFA804E89828A83E0A3F208DFFA804280D280FA80F3
:40098000C680D4805580F28029801080A680EA809A80A880DA80E280CA802988848C8589828A83E493A30586F0A30586DFF5DEF3800B89828A83E493A3F608DFF9ECFAA95D
:4009C000F0EDFB2288848C8589828A83E0A30586F0A30586DFF6DEF480E389828A83E493A3F208DFF980D688F0EF60010E4E60CD88F0ED2402B4040050C3F582EB2402B455
:400A0000040050B9232345822390097B73E6FC08E6FD08E6FE08E6FF22E2FC08E2FD08E2FE08E2FF22ECF608EDF608EEF608EFF622ECF208EDF208EEF208EFF22290025D03
:400A4000EDF0AB079002627402F0E4FFFEFDFCA312085EEB1208880A79010AA6020ACB030AF0040B15050B40060B8F070B6B080BB3090BD70A00000C0190025DE0FF7E005E
:400A80007C017D001208D21207B7EF24C0FFEE34FFFEED3410FDE43CFCA312085E9002627401F0020C0C90025DE0FF7E007C017D001208D2C374C39FFF74FF9EFE74109DBD
:400AC000FDE49CFCA312085E020C0C90025DE0FF7E007C017D001208D2C374C79FFF74FF9EFE74109DFDE49CFCA312085E020C0C90025DE0FF7E007C017D001208D2C37433
:400B0000CB9FFF74FF9EFE74109DFDE49CFCA312085E020C0C90025DE0FF7E007C017D001208D2C374D09FFF74FF9EFE74109DFDE49CFCA312085E9002627401F0020C0C60
:400B400090025DE0FF7E007C017D001208D2C374D19FFF74FF9EFE74109DFDE49CFCA312085E9002627401F0020C0C90025DE0FF7E007C017D001208D2C374D69FFF74FF16
:400B80009EFE74109DFDE49CFCA312085E807D90025DE0FF7E007C017D001208D2C374D29FFF74FF9EFE74109DFDE49CFCA312085E805990025DE0FF7E007C017D00120811
:400BC000D2C374D49FFF74FF9EFE74109DFDE49CFCA312085E803590025DE0FF7E007C017D001208D2C374D89FFF74FF9EFE74109DFDE49CFCA312085E9002627404F08082
:400C00000BE4FFFEFDFC90025E12085E900262E0B4011990025E120836A907AA06AB05121CF3E4FCFDFE90026312085E900262E06402705C90025E120836EF2401FFE43E91
:400C4000FEE43DFDE43CA907AA06AB05121CF3E4FCFDFE90026312085E900263120852C000C001C002C00390025E120836A907AA06AB05121CF3E4FCFDFE78081207E9D0BA
:400C800003D002D001D0001207AA90026312085E900262E064046003020D7D90025E120836EF2403FFE43EFEE43DFDE43CA907AA06AB05121CF3E4FCFDFE90026312085E37
:400CC000900263120852C000C001C002C00390025E120836EF2402FFE43EFEE43DFDE43CA907AA06AB05121CF3E4FCFDFE78081207E9D003D002D001D0001207AA9002634F
:400D000012085E900263120852C000C001C002C00390025E120836EF2401FFE43EFEE43DFDE43CA907AA06AB05121CF3E4FCFDFE78101207E9D003D002D001D0001207AA84
:400D400090026312085E900263120852C000C001C002C00390025E120836A907AA06AB05121CF3E4FCFDFE78181207E9D003D002D001D0001207AA90026312085E90026356
:400D8000120836228F44AD447F03120A3DEF2401FFE43EFEE43DFDE43CFCE4FB7A01F9F812068DC004C005C006C007AD447F04120A3DD003D002D001D0001206728F4C8EA9
:400DC0004B8D4A8C49C201E4F54DAD447F03120A3DEF2401FFE43EFEE43DFDE43CFCE4FB7A01F9F812068D8F488E478D468C45AF4CAE4BAD4AAC49AB48AA47A946A845C337
:400E00001207C55032854882854783E493F54E6005F46002D201E54E254DF54DAF48AE47AD46AC45E47B01FAF9F81206728F488E478D468C4580B8AD447F03120A3DEF2479
:400E400001FFE43EFEE43DFDE43CFCE4FB7A01F9F812068D78031207D68F488E478D468C45E47FC07EFFFDFCAB4CAA4BA94AA849C31207C57007FF7E20FDFC800DAF4CAE21
:400E80004BAD4AAC4978031207D68F4C8E4B8D4A8C49AF4CAE4BAD4AAC49AB48AA47A946A845C31207C55039E42548FFE43547FEE5463408FDE43545A907AA06AB05121CB9
:400EC000F3EF254DF54DAF48AE47AD46AC45E47B01FAF9F81206728F488E478D468C4580B1E54DF404F54DAD447F01120A3DA804A905AA06AB07AF4DE4FCFDFEC31207C5CC
:400F000070032001037F06227F002290025EECF0A3EDF0A312087390025DEFF0E4900265F0EFD3943F500E90025DE0940140069002657401F090025DE0FFD3947F4006903A
:400F400002657401F0EFC39440400CEFD3944140069002657401F0EFD3943F501E90025EE0FEA3E0FFE4FCFDFB7A01F9F8C31207C5502F9002657401F08027D390025FE03C
:400F8000948090025EE0940040069002657401F0900263E07004A3E0641060069002657401F090026012086AE94A4B700590026504F0900265E0600302108A121EFEEF606E
:400FC0000302108490025EE0FCA3E0FDA312086A900263E0FFA3E090026CCFF0A3EFF090025DE0FF1211DE900265EFF06407600302107F904722E0540270087F01FE121EF6
:401000006480F0904722E054026009E0FF1313543FFF80027FFFEF7006900265F0800690026574FFF0900265E0705490025DE0FFA3E0FCA3E0FD900353E0FBA3E090026AD9
:40104000F0121A90900265EFF064077032904722E0540270087F01FE121E6480F0904722E054026009E0FF1313543FFF80027FFFEF7006900265F0800690026574FFF0124B
:40108000205180069002657404F0900265E0FF227B007A4679E8121CF3EF4401FD7B007A4679E8122045E4F52CE52CC3940A502CE52C75F005A42461F582E43424AF82F571
:4010C000218F22F58312087C8F82852183740393FC740493FD121F6E052C80CDE4F52CE52CC394015046E52C75F007A42413F582E43425AF82F5238F24F58312087C8B25E1
:401100008A2689278F82852383740393FE7404938E28F529740593F52A740693F52BAD29AC28FFAE2A121EB8052C80B37E207F92121DD97B017A507903121CF3EF4402FD3B
:401140007B017A5079031220457B017A507913121CF3EF4402FD7B017A5079131220459043A0E04440F09043C2E04410F07C207D827B007A5179127F087E00121EB87C2053
:401180007D8A7B007A5179227F087E00121EB89044F47401F0904322E04408F09046ECE0C394055006904689743AF090480074F1F012150690480074B1F0121F1D7B007A41
:4011C0004379A0C00179B0900005120873D0017F0E7E00121D749043B0E054FDF022900266EFF0A3ECF0A3EDF0A312087390026E7407F0904722E0540270030212EE904756
:401200002074B6F074D5F07402F0904722E0540260030212E6900266E0904720F0E490026FF0A3F090026CE0FEA3E0FF90026FE0FCA3E0FDC39FEC9E501F90026912086A8D
:40124000E92DF9EA3CFA1205AF904720F090026FE475F0011205DA80CB90026CE064017002A3E060030212F4900266E0FFD3943F40030212F47E007C207D001208D2E42F0A
:40128000FFE43EFEED3408FDE43CFCC004A905AA06AB07A3E0FEA3E0FF7C007D201208D2D00012067290027112085EE490026FF0A3F090026FE0FEA3E0FFC39420EE94005A
:4012C0005032E4FCFDA3120852120672A907AA06AB05121CF3904720EFF090026FE475F0011205DA80CC90026E7409F0800690026E7404F090026EE0FF228B448A4589469E
:401300008C478D48755505E4F54DF54EE54C75F00AA4FFC3E54E9FE54D95F0503B121B34EF6022121B347553008F54E47F19FEFDFC1218C7121B34D3EF9554E4955350E366
:40134000E4F5558013E47F01FEFDFC1218C7054EE54E7002054D80B4AB49AA4AA94BE4F5F0120653E4F54FF550121B34EFD394005003021412121B347551008F52AB49AA8D
:401380004AA94BE5518552F012061BAB49AA4AA94B1205F0C39548E5F09547505FE4F54DF54EC3E54E9552E54D95515025121C1CAB44E5462550F9E545354FFAEF1205C8C1
:4013C0000550E5507002054F054EE54E7002054D80D0AB44E55024FFFFE54F34FFFEE5462FF9E5453EFA1205AF64177003021369E47F05FEFDFC1218C7021369AB49AA4ABB
:40140000A94B1205F0C39552FFE5F095518FF0120653AF552275930078007583467582E8E04401F0009046ECE0F99046FAE0FA90034BF0B903225420B40012B8001AEA9014
:401440001FFFF07401901FFEF09046F6F0901FFEE06005901FFFE0FA90480074C0F0758156121EDE90000078007920E4F0A3D8FCD9FAEA90034BF002001175081F7509FD1F
:401480001210900214C1022079E493A3F8E493A34003F68001F208DFF48029E493A3F85407240CC8C333C4540F4420C8834004F456800146F6DFE4800B0102040810204063
:4014C00080901B83E47E019360BCA3FF543F30E509541FFEE493A360010ECF54C025E060A840B8E493A3FAE493A3F8E493A3C8C582C8CAC583CAF0A3C8C582C8CAC583CABE
:40150000DFE9DEE780BE7B007A4079807D337C001220279040827418F09043007402F09040007408F09042007403F07B0C7A017908121CF39046A1EFF07B007A4279227D68
:40154000087C001220277B007A4279207D517C12122027E4900004F07F19FEFDFC90000012085E900000120836D3EF9400EE9400403B900004E0FF64036032904225E05440
:4015800001FEEF25E04E5403900004F0E47FE07E01FDFC121D0090000012083674FFFBFAF9F812067290000012085E80B6900000120836EF4E70057F0312207F7B007A402A
:4015C00079047D007C011220279040047407F0904006E4F09040087448F0904004E4F09040017402F09043A2E04401F0228B458A46894774011205C8AB452547F9E43546AB
:40160000FAEF1205C8E549AB45E5472402F9E43546FAE5491205C8E548FFAB45E5472403F9E43546FAEF1205C8AB45AA46A947E5492404FDE43548FC121C668E4A8F4BEFCF
:40164000AB45E5492404FDE43548FCE5472DF9E5463CFAEF1205C8E54AFFAB45E5492405FDE43548FCE5472DF9E5463CFAEF1205C8AB45E5492406FFE43548FEE5472FF9FF
:40168000E5463EFA74171205C8E5492407FDE43548FC755100755200755348755496AB45AA46A947121BD122C0E0C083C082C085C084C086758600C093759300C0D075D09F
:4016C00000C001C002C003C006C007E4FBA2AF33FAD2AF9044F474FDF090646CE0FFFE541EF960069002FDE049F0EF30E54590644AE0FE9002F9E02478F582E43402F583E5
:40170000EEF07B01EB602C900276E060069002FC7401F09002F9E004F0E0C394404002E4F0900277E0FE9002F9E0B506069002767401F0EF20E5A2AF02EA24FF92AFD007BF
:40174000D006D003D002D001D0D0D093D086D084D085D082D083D0E032752106E4FF120D84EF7002F521E4F54BF54AF549F548900357E0FEA3E0F5828E831208428F4F8E82
:401780004E8D4D8C4CE4FFFE7D10FC12192C900355E0FCA3E0F5828C83E493FEC3EF9EFFF404FFB50612900357E0FEA3E0F5828E83120842EF4E70057F00121FB79046FAFB
:4017C000E054C064406004E52160099046FAE4F0FF12001A12205D22C0E0C083C082C085C084C086758600C093759300C0D075D000C006C007A2AFE433FFD2AF9044F4742E
:40180000FDF09002FAE0FE9002B8E06E602C90646EE020E2259002B8E0C394404002E4F09002B8E024B9F582E43402F583E090644DF09002B8E004F080C8EF24FF92AFD043
:4018400007D006D0D0D093D086D084D085D082D083D0E032A9079002FAE0FF9002B8E0FEEFC39E501AEE24FFFDE434FFFCEF7A00B50508EAB504047D0180027D00800CC346
:40188000EF9EB43F047D0180027D00ED70C8EEB5070D90646EE020E20690644DE9F022EFC394404002E4FF74B92FF582E43402F583E9F00F9002FAEFF090646EE030E10609
:4018C0009044D07402F02290FFFC1208AE12085E850883850982120836D3EF9400EE9480402E90034C120836121D00850883850982C083C082120836E42FFFEE3480FEEDC9
:4019000034FFFDEC34FFFCD082D08312085E80C090034212083685088385098212085212068D121D009000041208AE228F478E468D458C44E4F550D3E54F9400E54E940025
:40194000404BAF4FAE4EAD4DAC4C74FFFBFAF9F81206728F4F8E4E8D4D8C4CE547254BFFE546354AFEE5453549FDE5443548FCEF254FFFEE354EFEED354DFDEC354CA907BD
:40198000AA06AB051205AF2550F55080AAAF5022121FE190025E74FFF0121EFEEF703B7F01121E35EF6407702C7B017A0379537D021219E6EFB40215E490025EF090472228
:4019C000E0540270107F01FE121E6480F0904722E0540260D4122051800690025E7404F090025EE0FF2290025F120873900262EDF0E4A3F0900262E0FFA3E0C39F50379065
:401A00004722E054016003D38001C340097F017E00121E6480E9904720E0FF90025F12086A900263E029F9E43AFAEF1205C8900263E004F080BE900263E0FF2290025EEC49
:401A4000F0A3EDF090025DEFF0541F25E0FFE433FEE42FFFEE3444FAA9077B0112201A900260EEF0A3EFF090025DE075F002A42400FFE5F03444FAA9077B01A3E0FEA3E0EC
:401A8000FFFDAC06122029900260E0FEA3E0FF22900267ECF0A3EDF0AC077D07904722E05402603B90472074B6F074D8F07405F0904722E054027023904720ECF09002670F
:401AC000E0904720F0900267E0A3E0904720F0EBF090026AE0904720F080067D0980027D04AF0522121FE1121EFEEF703B121F3A90025EEFF06407702A904722E0540270A1
:401B0000087F01FE121E6480F0904722E054026009E0FF1313543FFF80027FFFEF700490025EF0122051800690025E7404F090025EE0FF229044C87401F09002F9E0FE905D
:401B40000277E0B5060E900276E060047F40802CE4FF80289002F9E0FE900277E0C39E500BE0FE9002F9E0C39EFF8010900277E0FEC374409EFE9002F9E02EFF9044C07420
:401B800001F022420355251A420357251B430350000000440347016E360044034200005DC04103461844034C2EE000004102FB004102B8004102FA004102FD00410277003B
:401BC0004102F900410276004102FC0041035B00008B4C8A4D894E8C4F8D50E4F555F556121E07C3E5569550E555954F501DAB4CE54E2556F9E54D3555FA1205AFFF121874
:401C0000540556E5567002055580D8AB51AA52A953E54F8550F01206537F00229044C87401F0900277E0FE9002F9E0FD900276E07004EE6D602474782EF582E43402F583EF
:401C4000E0FF0EEEC394404002E4FE900277EEF0900276E06009E4F0800590644AE0FF9044C07401F0228B4C8A4D894EE4F54FF550D3ED9400EC94004025AB4CED24FFFFD4
:401C8000EC34FFFEE54E2FF9E54D3EFA1205AF2550F550E4354FF54FED1D70011C80D2E550F4FFE54FF4FEEF2401FFE43EFE227C167DA8E4FF121A3C7D07E4FF121F55E4B7
:401CC0009002FDF090648A7469F090648C7420F07C177DD87F01121A3C7D077F01121F5590642E7406F090643E7447F090648E7402F0228B938A838982E0759300FF22000A
:401D0000EC4D4E700D78FCEF24E950032840FD2200007BF178DA0000EF28FF78FFEE38FEED38FDEC38FC50E7EF2BFFEE38FEED38FDEC38FC40F22205020304121FCC9002FD
:401D40005DEFF090649AE04420F090649CE04410F09044C07401F090649EE04410F09044D87402F09044C0F012203690025DE0FF121F9F22758600EF4E6027EF60010E75B2
:401D80009300900005E0F595A3E0F585A3E0F5848B938A838982E0A30586F0A31586DFF6DEF4E4F593F59522121FCC9043A0E04408F09043B0E04408F090470174C8F090A8
:401DC00043ACE04410F09043BCE04410F0904700E0542060F8121F9F22ACEAADA08E838F82E493F9601CA3E493F5EAA3E493F5A0A3E49360F1FAA3E493F8A3E493F2DAF6BC
:401E0000D9E48DA08CEA22121FCC90649AE04401F0E054FEF0121F9F9044C87401F0E4900277F09002F9F0900276F09002FCF09044C004F0227E07904722E05402601F9052
:401E4000472074B6F074E1F0740EF0904722E054027007904720EFF080067E0980027E04AF062200EEFA900346E0F88FF0A4FFAEF0E88AF0A42EFEE5F03400FDEF24C9FF5A
:401E800078FFEE38FEED38FDE438FC5003021D0022121FCC90649DE04401F0E054FEF0121F9F9044C87402F0E49002B8F09002FAF09044C07402F022758600EF4E601BEFCA
:401EC00060010E8C838D828B958A858984E493A30586F0A31586DFF5DEF3E4F595229046FAE054C064807015F0FD7F02120A3DEF4E600AE4FD7F02120A3D122009229002CC
:401F0000667404F0121FCC90035BE0700704F0E4900266F0121F9F900266E0FF227B0C7A0179CF121CF3EF540790586EF0EFC4540FA3F09058767444F0227F07904722E0DD
:401F40005402600E90472074B6F074E0F0740DF080027F0422AC07ED540775F020A4FFEC541F2480F582E43444F583EFF022EC4D6011ED60010C8B938A838982E4F0A3DDB0
:401F8000FCDCFA75930022121AE490025DEFF0700812199090025DEFF090025DE0FF22EF54016004D2AF8002C2AFEF5402FF9044F4E054FD4FF02290FFFF1208AEEFF090D7
:401FC00046EA7401F09000011208AE229044F4E0F84402F0E85402FF10AF012274014FFF22121FCC9043A0E04408F09043B0E04408F0121F9F229002FBE07009121CAF9087
:4020000002FB7401F0121D3B2290034BE0FA8E838F827400758101738B938A838982E0FFA3E0FE759300228B938A838982EDF0A3ECF0759300229043A2E04401F09043B26F
:40204000E04401F0228B938A838982EDF075930022121FCCE490035BF0121F9F229046FA7480F012207122121FF6121E07121E91229046F6E04401F02212175980FE2280DC
:40208000FE22007F7B007B00000030D8C800D800000016005205082309121098118814200064047E3F8A698C3A8E0F010101E204010301E6020105028702E008010604B82E
:4020C00002BE01D804DF010107021B02A702010A088501890195019901B101BF01D904DF01010B4F00400106038808010A040B111028130219641A041B0A202021082230E9
:40210000274028282A022B022E033080310232103304340836203708382239803A083C283E084028410843824A024B0152045B4068286A016B027090712072108D408E104D
:402140008F809042910493109621980199029B0C9D649E049F80A004A102A202A490A520A702AB01B021B405B602B744C00FC20FC40ECA0FCC6FCE6FD00FD208D608E0083A
:40218000E801010C4C0001021608E70A180E3F101E120114C6163918481C88208824DD262228232ADC2CC8301F320834E03A22541A560458045B045F018008824284F88698
:4021C000018704880F89028AF08D068EC792849308943996C698109C20A020A101A43FA6C0A906AA08AC30B031B106B308B501B6FFB702B982BE40BF11C062C101C5E0C6DA
:40220000CBC80EC9FFCAFFCBFFCEF0CF44D00CD804D904DA04DF01E6C0EA40EB02010D46002901100210030B04010709080209260A310D220E11108012481388151016502C
:402240001780180219021C081D021E201F20200421012208230128402920320238C839A43A083B10414042084921502053405E205F026540674887409088912093089502C2
:40228000978098409B4A9C029D259E049F04A420A504A72AB001B301C0DFC2FFC4FFCA05CC01CE0ED00CD204D6A0D8B0010E4E040906D007230B080C0C0D210E710F0E1048
:4022C00014141016AC170C18DC1A221B201E0321102410264029212A202B062D0C2F2330E03310350F361F37203A023B203F444004464049FF4A074BFF4C404D204EF04F8A
:4023000005500854015604580459045A045B045F01604061A862406320871F89198B0691019304950997029A01A506A719A919AA01AB06AF0FB201B310B507B708B908BB65
:4023400020BE04D804D904DB04DF01010F3C004404040504084809200A010B800E0810081210160418C01A011F042130224425102604270A280829212A802F2A303031047A
:402380003402370438883A103D284101500C5210581059015A886380680169046A206B406F0171407304821083408550868089048B04C005C24FC446CA7DCCC6CE6ED00101
:4023C000D60FD801E40C014005322035808180CC30E2200141038620A620E6400144058301870188C0E004E40401450F0C0857025B046401660193029889A040A301B009C2
:40240000C204D607D801E801EC0401460D8702900893029888A040A301A702AB04B40CB601E808EC02EE08014705900893029888A040A301014C0E5004544057015808607D
:40244000806702900893029888A040A301D406D607D80201500300010C010E01015101000F005100001000513000400051C000100051F000100100000A00010A800580018E
:40248000140008000140000A00014C000200015000002000008080207D050000040800130C0400030204200A031410130C0C7300088000400800004043003C404F003000DE
:4024C0000000734000303F0FC0800008002028000040003402010005C0000E12FFFFFF62A0F0410C00000000000210040404040000000100000000000040020010301000CE
:4025000010101200000000000000000000000000000000010A002493008061000026006930091E031E010100000000000000000000000000000000000000000000000000BD
:40254000000000000000000000000000000000000000000000000000000000000000000000000000000000000000000000000000000000000000000000000000000000005B
:40258000000000000000000000000000000000000000000000000000000000000000000000000000000000000000000000000000000000000000000000000000000000001B
:4025C00000000000000000000000000000000000000000000000000000000000000000000000000000000000000000000000000000000000000000000000000000000000DB
:40260000025F95008F828E83E0540100000070F82278FFE4F6D8FD0260230227F7E86480F8E933E83360110460F0ED33EC337009E8FCE9FDEAFEEBFF220460DED3EB9FEA39
:402640009EE99DE8C2E78CF0C2F795F0400CE8CCF8E9CDF9EACEFAEBCFFB1227C285D0F05804700320D5B3E80470075002B2D502280192D5EC0460F7E4CCC0E0C398F8600E
:402680003B94186008400DD0E0FB0227D9E4FBFAC9FC8028E830E406E4C9FBE4CAFCE830E305E4C9CACBFCE854076010F8C3E913F9EA13FAEB13FBEC13FCD8F130F52FC3CB
:4026C000E49CFCEF9BFFEE9AFEED99FDD0E0FBEF4E4D4C701222DB030227FEEC2CFCEF33FFEE33FEED33FDED30E7EB0227D9EF2BFFEE3AFEED39FDD0E0FB50130BBB000307
:40270000022801ED13FDEE13FEEF13FFEC13FC0227D974F8CC6480CCC86480C8F58204604FC3EB9FF5F0EA9E42F0E99D42F0E89C45F0603C501DE5825FFFE582D313CB5B50
:40274000CBF42B5582FB50280ABA002409B9002008801DE5825BFBE582D313CF5FCFF4C3132F5582FF50090EBE00050DBD00010CC3EB9FF5F0EA9E42F0E99D42F0E89C4572
:40278000F06007CC4820E701B3EC22EDD2E7CD33EC3392D524814006E4FFFEFDFC22FCE4CFCECDCC24E0501174FF80EDC3CC13CCCD13CDCE13CECF13CF0470F030D5DE02B3
:4027C0002CEBE9D2E7C933E833F892D5EDD2E7CD33EC33FC5002B2D522EC30E7100FBF000C0EBE00080DBD00040BEB6014A2D5EB13FCED92E7FD2274FFFCFDFEFF22E48010
:40280000F8A2D574FF13FC7D80E480EFF920E73624F950037907E4F42402FBE582158270021583DBF6E024FB501BE96014E4F0E582158270021583E004F0B40A08E4F0D975
:40284000EE7401F00A22C2D522ED33EC3392D5FA602AB4FF33EDC2E77BFF60067A28796EE4227A28797720D5047A287972224E614E002B494E46002D494E4600E47A08F06C
:40288000A3DAFC7B00740722C083C082ECC0E0EDC0E0EEC0E0EFC0E0EA75F010A4CAABF075F04DA42BFBE435F0FCEA2410FAEB34C5FBEC34D9FCEDC2E7FF75F056A4F424EB
:4028C00011C5F0F434C58FF0A42AE5F03BE43CF020E714122B24D0E0FFD0E0FED0E0FDD0E0FC122A578014F404122B24D0E0FFD0E0FED0E0FDD0E0FC12294ED082D083E042
:40290000FAEDD2E7CD33EC332482FBE4C3CF33CFCE33CECD33CD33DBF37B0775F00A846004F0A31B0AE5F0F0A38FF0740AA4FFACF08EF0740AA42CFEACF050010C8DF07439
:402940000AA42CFDE435F0F0A3DBDE740722EC4D6011E8497017ED33EC3304600DE4FCFFFEFD22E933E8330470F80227F71227C258046009E4CC24815006285009022801A6
:402980002840030227FEC0E0EB4A7044B98006D0E0FB0227EDEF4E701CBD8008EBFFEAFEE9FD80EBE98DF0A4FEE5F0022A37E9CDF9EAFEEBFFEF89F0A4FCE5F0CE89F0A442
:4029C0002EFFE435F0CD89F0A42DFEE435F08067EF4E7005BD80D780C3EF8BF0A4ACF0EE8BF0A42CFCE435F0F8EF8AF0A42CE5F038FCE433CB8DF0A42CFCE5F03BF8EE8AC6
:402A0000F0A42CFCE5F038F8E433CF89F0A42CFCE5F038CF3400CE89F0A42FFFE5F03EFEE433C98DF0A42EFEE5F039CD8AF0A42FFFE5F03EFEE43DFD33D0E0FB50070BBBF2
:402A4000000F022801EC2CFCEF33FFEE33FEED33FD0227D9022801EC5D046005E8590470030227F71227C2580460F6EC4860F2EC7004FDFEFF22C860DB2481C85009C39821
:402A8000600250060227FE9850CAF582E9294B4A7005AB820227ED75F0007C1A7880C3EF9BEE9AED99400DC3EF9BFFEE9AFEED99FDE842F0DC23ACF0D0E0FFD0E0FED0E0FD
:402AC000FDAB8220E7101BEB60BAEC2CFCEF33FFEE33FEED33FD0227D9E803F830E705C0F075F000EF2FFFEE33FEED33FD40B830E7C280AA3F8000004120000042C8000070
:402B0000447A0000461C400047C35000497424004B1896804CBEBC205A0E1BCA6753C21C749DC5AEFB60065407601C2323122B52EB54386009122B3E122B4D12294EECF8D3
:402B4000EDF9EEFAEFCB22EB122B4D80F1543803241C902AF4FE93FC0EEE93FD0EEE930ECE93FF22BB010689828A83E0225002E722BBFE02E32289828A83E49322BB010CA0
:402B8000E58229F582E5833AF583E0225006E92582F8E622BBFE06E92582F8E222E58229F582E5833AF583E49322BB010689828A83F0225002F722BBFE01F322EF8DF0A4D1
:402BC000A8F0CF8CF0A428CE8DF0A42EFE22E88FF0A4CC8BF0A42CFCE98EF0A42CFC8AF0EDA42CFCEA8EF0A4CDA8F08BF0A42DCC3825F0FDE98FF0A42CCD35F0FCEB8EF003
:402C0000A4FEA9F0EB8FF0A4CFC5F02ECD39FEE43CFCEAA42DCE35F0FDE43CFC2275F008758200EF2FFFEE33FECD33CDCC33CCC58233C5829BED9AEC99E58298400CF5822E
:402C4000EE9BFEED9AFDEC99FC0FD5F0D6E4CEFBE4CDFAE4CCF9A88222B800C1B90059BA002DEC8BF084CFCECDFCE5F0CBF97818EF2FFFEE33FEED33FDEC33FCEB33FB1048
:402C8000D703994004EB99FB0FD8E5E4F9FA227818EF2FFFEE33FEED33FDEC33FCC933C910D7059BE99A4007EC9BFCE99AF90FD8E0E4C9FAE4CCFB2275F010EF2FFFEE3312
:402CC000FEED33FDCC33CCC833C810D7079BEC9AE899400AED9BFDEC9AFCE899F80FD5F0DAE4CDFBE4CCFAE4C8F922C3E49FFFE49EFEE49DFDE49CFC22EB9FF5F0EA9E42EC
:402D0000F0E99D42F0EC6480C864809845F022EB9FF5F0EA9E42F0E99D42F0E89C45F022E8600FECC313FCED13FDEE13FEEF13FFD8F122E86010ECA2E713FCED13FDEE13ED
:402D4000FEEF13FFD8F022E8600FEFC333FFEE33FEED33FDEC33FCD8F122BB010789828A8302305E5005E9F8023052BBFE05E9F802306A89828A83023076BB010789828A75
:402D800083022D945005E9F8023086BBFE05E9F802309222ECF0A3EDF0A3EEF0A3EFF022A42582F582E5F03583F58322F8E0FBA3A3E0F925F0F0E582158270021583E0FA17
:402DC00038F022EBF0A3EAF0A3E9F022D083D082F8E4937012740193700DA3A393F8740193F5828883E4737402936860EFA3A3A380DFE5232582F582E5223583F583B5228A
:402E0000048582232210AF06858223F52222858223F522D2AF22EC8EF0A4CCC5F0CCCDF8EFA4CEC5F02DFDE43CFCE8A42EC8C5F03DFDE43CFCEFA4FFE5F028FEE43DFDE49E
:402E40003CFC22EF4E6012EF60010EEDBB010B89828A83F0A3DFFCDEFA2289F05007F709DFFCA9F022BBFEFCF309DFFCA9F022E709F608DFFA8046E709F208DFFA803E8874
:402E8000828C83E709F0A3DFFA8032E309F608DFFA806EE309F208DFFA806688828C83E309F0A3DFFA805A89828A83E0A3F608DFFA804E89828A83E0A3F208DFFA804280E2
:402EC000D280FA80C680D4805580F28029801080A680EA809A80A880DA80E280CA802988848C8589828A83E493A30586F0A30586DFF5DEF3800B89828A83E493A3F608DFB4
:402F0000F9ECFAA9F0EDFB2288848C8589828A83E0A30586F0A30586DFF6DEF480E389828A83E493A3F208DFF980D688F0EF60010E4E60CD88F0ED2402B4040050C3F5822C
:402F4000EB2402B4040050B92323458223902EBF73E709F60870FA8046E709F20870FA803E88828C83E709F0A370FA8074E309F60870FA806CE309F20870FA806488828C2B
:402F800083E309F0A370FA805889828A83E0A3F60870FA804C89828A83E0A3F20870FA804080D280FA80C680D4805180F28027801080A680EA809A80A880DA80E280CA8007
:402FC0002788848C8589828A83E493A30586F0A3058670F5800B89828A83E493A3F60870F9ECFAA9F0EDFB2288848C8589828A83E0A30586F0A3058670F680E589828A835C
:40300000E493A3F20870F980D888F0ED2402B4040050CEF582EB2402B4040050C42323458223902FA173C5F0F8A3E028F0C5F0F8E582158270021583E038F022A3F8E0C59C
:40304000F025F0F0E582158270021583E0C838F0E822E6FC08E6FD08E6FE08E6FF22E0FCA3E0FDA3E0FEA3E0FF22E2FC08E2FD08E2FE08E2FF22E493FC740193FD740293F7
:40308000FE740393FF22ECF608EDF608EEF608EFF622ECF208EDF208EEF208EFF222900720EBF0A3EAF0A3E9F0900001E064FA7003023995900720E0FBA3E0FAA3E0F8AC94
:4030C00002AD037BFF7A4079BA12300990078C74FFF0A37440F0A374BBF0900720E0FBA3E0FAA3E0F9126D6F90078C74FFF0A37440F0A374BEF0900720E0FBA3E0FAA3E040
:40310000F9126D6F90078C74FFF0A37440F0A374D1F0900720E0FBA3E0FAA3E0F9126D6F90078C74FFF0A37440F0A374E1F0900720E0FBA3E0FAA3E0F9126D6F90078C74C5
:40314000FFF0A37440F0A374E6F0900720E0FBA3E0FAA3E0F9126D6F900BBE74FFF0A37440F0A374F4F0900001E0FF900BC1E4F0A3EFF07B017A077925124BC790078C743D
:4031800001F0A37407F0A37425F0900720E0FBA3E0FAA3E0F9126D6F900BBE74FFF0A37440F0A374FDF0900208E0FF900BC1E4F0A3EFF07B017A077925124BC790078C74E3
:4031C00001F0A37407F0A37425F0900720E0FBA3E0FAA3E0F9126D6F90078C74FFF0A37440F0A374BBF0900720E0FBA3E0FAA3E0F9126D6F90078C74FFF0A37441F0A3743E
:4032000011F0900720E0FBA3E0FAA3E0F9126D6FE4900723F0A3F0900208E0FFC3900724E09F7480F8900723E064809840030234BC900BBE74FFF0A37441F0A37426F09085
:403240000723E0FEA3E0FF900BC1EEF0A3EFF02404F58274003EF583E0FF900BC3E4F0A3EFF07B017A077925124BC790078C7401F0A37407F0A37425F0900720E0FBA3E016
:40328000FAA3E0F9126D6F900BBE74FFF0A37441F0A37439F07B017A077925124BC7900723E0FEA3E02404F58274003EF583E075F005A424C3F582E43406F583E0601990F8
:4032C000078C74FFF0A37441F0A3744BF07B017A077925126D6F801790078C74FFF0A37441F0A37451F07B017A077925126D6F90078C74FFF0A37441F0A37456F07B017A4E
:40330000077925126D6F900723E0FEA3E02404F58274003EF583E075F005A424C4F582E43406F583E0601990078C74FFF0A37441F0A3744BF07B017A077925126D6F80179A
:4033400090078C74FFF0A37441F0A37451F07B017A077925126D6F90078C74FFF0A37441F0A37464F07B017A077925126D6F900723E0FEA3E02404F58274003EF583E075A3
:40338000F005A424C5F582E43406F583E0601990078C74FFF0A37441F0A3744BF07B017A077925126D6F801790078C74FFF0A37441F0A37451F07B017A077925126D6F90A6
:4033C000078C74FFF0A37441F0A37475F07B017A077925126D6F900723E0FEA3E02404F58274003EF583E075F005A424C6F582E43406F583E0601990078C74FFF0A374418A
:40340000F0A3744BF07B017A077925126D6F801790078C74FFF0A37441F0A37451F07B017A077925126D6F90078C74FFF0A37441F0A37483F07B017A077925126D6F900703
:4034400023E0FEA3E02404F58274003EF583E075F005A424C7F582E43406F583E0601990078C74FFF0A37441F0A3744BF07B017A077925126D6F801790078C74FFF0A374E3
:4034800041F0A37451F07B017A077925126D6F90078C7401F0A37407F0A37425F0900720E0FBA3E0FAA3E0F9126D6F900724E004F07006900723E004F002321790078C744A
:4034C000FFF0A37440F0A374BBF0900720E0FBA3E0FAA3E0F9126D6F90078C74FFF0A37441F0A37492F0900720E0FBA3E0FAA3E0F9126D6FE4900723F0A3F0900208E0FFE1
:40350000C3900724E09F7480F8900723E064809840030238FD900BBE74FFF0A37441F0A37426F0900723E0FEA3E0FF900BC1EEF0A3EFF02404F58274003EF583E0FF900BC8
:40354000C3E4F0A3EFF07B017A077925124BC790078C7401F0A37407F0A37425F0900720E0FBA3E0FAA3E0F9126D6F900723E0FEA3E0FF2404F58274003EF583E075F0050B
:40358000A424C3F582E43406F583E07003023625900BBE74FFF0A37441F0A374A1F090001C75F01DEF122DA0EE75F01DA42583F583E0FDA3E0900BC1CDF0A3EDF090001E40
:4035C00075F01DEF122DA0EE75F01DA42583F583E0FFA3E0900BC3CFF0A3EFF0900723E0A3E090002075F01D122DA0EE75F01DA42583F583E0FFA3E0900BC5CFF0A3EFF0E1
:403600007B017A077925124BC790078C7401F0A37407F0A37425F0900720E0FBA3E0FAA3E0F9126D6F900723E0FEA3E0FF2404F58274003EF583E075F005A424C4F582E47C
:403640003406F583E070030236DF900BBE74FFF0A37441F0A374B2F090002275F01DEF122DA0EE75F01DA42583F583E0FDA3E0900BC1CDF0A3EDF090002475F01DEF122DDE
:40368000A0EE75F01DA42583F583E0FFA3E0900BC3CFF0A3EFF0900723E0A3E090002675F01D122DA0EE75F01DA42583F583E0FFA3E0900BC5CFF0A3EFF07B017A0779252F
:4036C000124BC790078C7401F0A37407F0A37425F0900720E0FBA3E0FAA3E0F9126D6F900723E0FEA3E0FF2404F58274003EF583E075F005A424C5F582E43406F583E07054
:4037000003023799900BBE74FFF0A37441F0A374C4F090002875F01DEF122DA0EE75F01DA42583F583E0FDA3E0900BC1CDF0A3EDF090002A75F01DEF122DA0EE75F01DA492
:403740002583F583E0FFA3E0900BC3CFF0A3EFF0900723E0A3E090002C75F01D122DA0EE75F01DA42583F583E0FFA3E0900BC5CFF0A3EFF07B017A077925124BC790078CD5
:403780007401F0A37407F0A37425F0900720E0FBA3E0FAA3E0F9126D6F900723E0FEA3E02404F58274003EF583E075F005A424C6F582E43406F583E07003023878900BBECA
:4037C00074FFF0A37441F0A374D5F0900723E0A3E0FF90002E75F01D122DA0EE75F01DA42583F583E0FDA3E0900BC1CDF0A3EDF090003075F01DEF122DA0EE75F01DA42591
:4038000083F583E0FFA3E0900BC3CFF0A3EFF0900723E0A3E0FF90003275F01D122DA0EE75F01DA42583F583E0FDA3E0900BC5CDF0A3EDF090003475F01DEF122DA0EE75A5
:40384000F01DA42583F583E0FFA3E0900BC7CFF0A3EFF07B017A077925124BC790078C7401F0A37407F0A37425F0900720E0FBA3E0FAA3E0F9126D6F900723E0FEA3E0FF5E
:403880002404F58274003EF583E075F005A424C7F582E43406F583E06052900BBE74FFF0A37441F0A374EAF090003675F01DEF122DA0EE75F01DA42583F583E0FFA3E09096
:4038C0000BC1CFF0A3EFF07B017A077925124BC790078C7401F0A37407F0A37425F0900720E0FBA3E0FAA3E0F9126D6F900724E004F07006900723E004F00234FB900BBEA4
:4039000074FFF0A37441F0A374FDF090037FE0F8A3E0F9A3E0FAA3E0FB900650E0FCA3E0FDA3E0FEA3E0C39BFFEE9AFEED99FDEC98FC900BC1122D947B017A077925124B24
:40394000C790078C7401F0A37407F0A37425F0900720E0FBA3E0FAA3E0F9126D6F90078C74FFF0A37440F0A374BBF0900720E0FBA3E0FAA3E0F9126D6F90078C74FFF0A314
:403980007440F0A374BBF0900720E0FBA3E0FAA3E0F9126D6F22900720EEF0A3EFF078227C077D017BFF7A4279087E047F1B122F2B900208E075F032A424C9FEE435F090DC
:4039C0000B3DF0A3CEF0783F7C0B7D017BFF7A4679237E007F0F122F2B784E7C0B7D017BFF7A4679327E007F1E122F2B786C7C0B7D017BFF7A4679507E007F0D122F2B7813
:403A0000797C0B7D017BFF7A46795D7E007F18122F2B78917C0B7D017BFF7A4679757E007F2A122F2B7B017A0B793F1278028F0F7B017A0B794E1278028F107B017A0B795E
:403A40006C1278028F117B017A0B79791278028F127B017A0B79911278028F13900722740CF0900208E02404900723F0900720E0FEA3E0FFEE6003023EFBEF147003023E87
:403A8000F124FC400302409E24056003023EFB9007247402F0A314F0900001E0900726F0750B00850F0CE50C450B602CC3E50F950CFFE4950BFE743F2FF582740B3EF583D1
:403AC000E0FD74272FF58274073EF583EDF0E50C150C7002150B80CE9007567402F0A314F0900208E0900758F0750B0085100CE50C450B602CC3E510950CFFE4950BFE7419
:403B00004E2FF582740B3EF583E0FD74592FF58274073EF583EDF0E50C150C7002150B80CE9007887402F0900208E0900789F0E4F50BF50C900208E0FFC3E50C9FE50B94C8
:403B40000050267404250CF5827400350BF583E0FF748A250CF5827407350BF583EFF0050CE50C7002050B80CB750D0085110EE50E450D6041C3E511950EFFE4950DFE74BE
:403B80006C2FF582740B3EF583E0FFE511FD900208E02DFDE433FCC3ED950EFDEC950DFC748A2DF58274073CF583EFF0E50E150E7002150D80B99007BA7402F0900208E097
:403BC00075F003A49007BBF0E4F50BF50C900208E0FFC3E50C9FE50B94004003023C837404250CF5827400350BF583E075F003A42487F582E43403F583E0FF9007BC75F0BA
:403C000003E50C122DA0E50B75F003A42583F583EFF07404250CF5827400350BF583E075F003A42488F582E43403F583E0FF9007BD75F003E50C122DA0E50B75F003A4253C
:403C400083F583EFF07404250CF5827400350BF583E075F003A42489F582E43403F583E0FF9007BE75F003E50C122DA0E50B75F003A42583F583EFF0050CE50C7002050B90
:403C8000023BCD750D0085120EE50E450D6046E512FD7C00C3950EFFEC950DFE74792FF582740B3EF583E0FB900208E075F003A42DFFEC35F0FEC3EF950EFFEE950DFE74CD
:403CC000BC2FF58274073EF583EBF0E50E150E7002150D80B4E4F50BF50C900208E0FFC3E50C9FE50B94004003023EC0900BBE74FFF0A37440F0A3749FF0E50C2405900BA2
:403D0000C2F0E4350B900BC1F07404250CF5827400350BF583E0FF900BC3E4F0A3EFF07B017A0B7991124BC77B017A0B79911278028F139007EC75F032E50C122DA0E50B40
:403D400075F032A42583F5837402F09007ED75F032E50C122DA0E50B75F032A42583F5837405F07404250CF5827400350BF583E075F005A424C3F582E43406F583E0FF9046
:403D800007EE75F032E50C122DA0E50B75F032A42583F583EFF07404250CF5827400350BF583E075F005A424C4F582E43406F583E0FF9007EF75F032E50C122DA0E50B751D
:403DC000F032A42583F583EFF07404250CF5827400350BF583E075F005A424C5F582E43406F583E0FF9007F075F032E50C122DA0E50B75F032A42583F583EFF07404250C2E
:403E0000F5827400350BF583E075F005A424C6F582E43406F583E0FF9007F175F032E50C122DA0E50B75F032A42583F583EFF07404250CF5827400350BF583E075F005A4C8
:403E400024C7F582E43406F583E0FF9007F275F032E50C122DA0E50B75F032A42583F583EFF0750D0085130EE50E450D6047C3E513950EFFE4950DFE74912FF582740B3EF4
:403E8000F583E0FBAE0BAF0C7C007D32122BBCEF2513FFEC3EFEC3EF950EFFEE950DFE74F32FF58274073EF583EBF0E50E150E7002150D80B3050CE50C7002050B023CDA55
:403EC0007B017A077922900B3DE0A3E014FD1273DA900B3DE0FCA3E0FD2421F58274073CF583EFF07B017A077922126AEE1278B1229003BDE0900016F022229003BDE0FFE9
:403F0000900720E0FCA3E0FD24FFF58274FF3CF583E075F005A424C3F582E43406F583EFF09003BEE0FF74FF2DF58274FF3CF583E075F005A424C4F582E43406F583EFF0BC
:403F40009003BFE0FF74FF2DF58274FF3CF583E075F005A424C5F582E43406F583EFF09003C0E0FF74FF2DF58274FF3CF583E075F005A424C6F582E43406F583EFF0900348
:403F8000C1E0FF74FF2DF58274FF3CF583E075F005A424C7F582E43406F583EFF09006BEE4F0A304F0E4F50BF50C900208E0FFC3E50C9FE50B940040030240907404250CAC
:403FC000F5827400350BF583E0FF75F005A424C4F582E43406F583E075F006A4FEEF75F005A424C3F582E43406F583E075F006A42EFF7404250CF5827400350BF583E0FE18
:4040000075F005A424C5F582E43406F583E075F006A42FFFEE75F005A424C6F582E43406F583E075F008A42FFF7404250CF5827400350BF583E0FE75F005A424C7F582E4CF
:404040003406F583E025E02F2402FDEE25E0242DF582E43406F583E4F0A3EDF07404250CF5827400350BF583E025E0242DF582E43406F583E0FEA3E0FF9006BFE02FF090DF
:4040800006BEE03EF0050CE50C7002050B023FAA9006BFE004F070069006BEE004F0222575202D20494D5520256420636F6E66696775726174696F6E3A00000D0A004669A3
:4040C000726D776172652076657273696F6E3A2000494D55626F617264207620312E3030000D0A0D0A0044455649434520494E464F0D0A0049443A2025640D0A00494D5597
:4041000020436F6E6E65637465643A2025640D0A00494D557320434F4E46494755524154494F4E0D0A00496D75202564200D0A0949443A2025640D0A0009416363656C6584
:40414000726F6D65746572733A20005945530D0A004E4F0D0A00094779726F73636F7065733A2000094D61676E65746F6D65746572733A2000095175617465726E696F6E3A
:404180003A20000954656D70657261747572653A200053454E534F525320494E464F0D0A00094163633A2025640925640925640D0A00094779726F3A2025640925640925A9
:4041C000640D0A00094D61673A2025640925640925640D0A0009517561743A2025640925640925640925640D0A000954656D70657261747572653A2025640D0A00646562F8
:4042000075673A20256C6400000000000000000000000000000000000000000000000000000000000000000000000000000000000000000000000000000000000000000053
:40424000000000000000000000000000000000000000000000000000000000000000000000000000000000000000000000000000000000000000000000000000000000003E
:4042800000000000000000000000000000000000000000000000000000000000000000000000000000000000000000000000000000000000000000000000000000000000FE
:4042C00000000000000000000000000000000000000000000000000000000000000000000000000000000000000000000000000000000000000000000000000000000000BE
:40430000000000000000000000000000000000000000000000000000000000000000000000000000000000000000000000000000000000000000000000000000000000007D
:40434000000000000000000000000000000000000000000000000000000000000000000000000000000000000000000000000000000000000000000000000000000000003D
:4043800000000000000000000000000000000000000000000000000000000000000000000000000000000000000000000000000000000000000000000000000000000000FD
:4043C00000000000000000000000000000000000000000000000000000000000000000000000000000000000000000000000000000000000000000000000000000000000BD
:40440000000000000000000000000000000000000000000000000000000000000000000000000000000000000000000000000000000000000000000000000000000000007C
:40444000000000000000000000000000000000000000000000000000000000000000000000000000000000000000000000000000000000000000000000000000000000003C
:4044800000000000000000000000000000000000000000000000000000000000000000000000000000000000000000000000000000000000000000000000000000000000FC
:4044C00000000000000000000000000000000000000000000000000000000000000000000000000000000000000000000000000000000000000000000000000000000000BC
:40450000000000000000000000000000000000000000000000000000000000000000000000000000000000000000000000000000000000000000000000000000000000007B
:40454000000000000000000000000000000000000000000000000000000000000000000000000000000000000000000000000000000000000000000000000000000000003B
:4045800000000000000000000000000000000000000000000000000000000000000000000000000000000000000000000000000000000000000000000000000000000000FB
:4045C00000000000000000000000000000000000000000000000000000000000000000000000000000000000000000000000000000000000000000000000000000000000BB
:40460000000000000000000000000000000000000000000000000000000000000000000000000031202D204465766963652049443A0032202D204E756D626572206F662088
:40464000636F6E6E656374656420494D55733A0033202D20494D55732049443A0034202D204D61672063616C20706172616D65746572733A00000000000000000000000056
:4046800000000000000000000000000000000000000000000000000000000000000000E4900720F0A3F0901356F0900208E0FF901356E0FEC39F4003024B6174042EF58233
:4046C000E43400F583E0FF7E00127134901356E02404F582E43400F583E0FF7E00126A45901356E0FD2404F582E43400F583E0FF75F006A42458F582E43406F583E0FB9009
:404700000720E4F0A3EBF0EF75F006A42459F582E43406F583E0FB900721E0FEEBFF75F01DEDA42441F582E5F03404F583EEF0A3EFF0901356E0FD2404F582E43400F58344
:40474000E0FF75F006A4245AF582E43406F583E0FB900720E4F0A3EBF0EF75F006A4245BF582E43406F583E0FB900721E0FEEBFF75F01DEDA42443F582E5F03404F583EE93
:40478000F0A3EFF0901356E0FD2404F582E43400F583E0FF75F006A4245CF582E43406F583E0FB900720E4F0A3EBF0EF75F006A4245DF582E43406F583E0FB900721E0FE26
:4047C000EBFF75F01DEDA42445F582E5F03404F583EEF0A3EFF0901356E0FD2404F582E43400F583E0FF75F006A42419F582E43403F583E0FB900720E4F0A3EBF0EF75F085
:4048000006A4241AF582E43403F583E0FB900721E0FEEBFF75F01DEDA42447F582E5F03404F583EEF0A3EFF0901356E0FD2404F582E43400F583E0FF75F006A4241BF582A8
:40484000E43403F583E0FB900720E4F0A3EBF0EF75F006A4241CF582E43403F583E0FB900721E0FEEBFF75F01DEDA42449F582E5F03404F583EEF0A3EFF0901356E0FD2448
:4048800004F582E43400F583E0FF75F006A4241DF582E43403F583E0FB900720E4F0A3EBF0EF75F006A4241EF582E43403F583E0FB900721E0FEEBFF75F01DEDA4244BF5B4
:4048C00082E5F03404F583EEF0A3EFF0901356E0FD2404F582E43400F583E0FF75F006A42409F582E43402F583E0FB900720E4F0A3EBF0EF75F006A4240AF582E43402F592
:4049000083E0FB900721E0FEEBFF75F01DEDA4244DF582E5F03404F583EEF0A3EFF0901356E0FD2404F582E43400F583E0FF75F006A4240BF582E43402F583E0FB900720FC
:40494000E4F0A3EBF0EF75F006A4240CF582E43402F583E0FB900721E0FEEBFF75F01DEDA4244FF582E5F03404F583EEF0A3EFF0901356E0FD2404F582E43400F583E0FF8D
:4049800075F006A4240DF582E43402F583E0FB900720E4F0A3EBF0EF75F006A4240EF582E43402F583E0FB900721E0FEEBFF75F01DEDA42451F582E5F03404F583EEF0A331
:4049C000EFF0901356E0FD2404F582E43400F583E0FF75F008A42491F582E43402F583E0FB900720E4F0A3EBF0EF75F008A42492F582E43402F583E0FB900721E0FEEBFF27
:404A000075F01DEDA42453F582E5F03404F583EEF0A3EFF0901356E0FD2404F582E43400F583E0FF75F008A42493F582E43402F583E0FB900720E4F0A3EBF0EF75F008A4F7
:404A40002494F582E43402F583E0FB900721E0FEEBFF75F01DEDA42455F582E5F03404F583EEF0A3EFF0901356E0FD2404F582E43400F583E0FF75F008A42495F582E434F5
:404A800002F583E0FB900720E4F0A3EBF0EF75F008A42496F582E43402F583E0FB900721E0FEEBFF75F01DEDA42457F582E5F03404F583EEF0A3EFF0901356E0FD2404F59D
:404AC00082E43400F583E0FF75F008A42497F582E43402F583E0FB900720E4F0A3EBF0EF75F008A42498F582E43402F583E0FB900721E0FEEBFF75F01DEDA42459F582E500
:404B0000F03404F583EEF0A3EFF0901356E0FD2404F582E43400F583E0FF25E0246FF582E43402F583E0FB900720E4F0A3EBF0EF25E02470F582E43402F583E0FB900721E8
:404B4000E0FEEBFF75F01DEDA4245BF582E5F03404F583EEF0A3EFF0901356E004F00246AA22E51424BEF582E4340BF583E0051422900BBB300803900BBEE475F001122D23
:404B8000AC022B642001E97F2ED2018018EF540F2490D43440D4FF30050BEF24BFB41A0050032461FFE515600215150518E5187002051730080E900BBBE475F001122DACBF
:404BC000EF022BAA0275257403D2088003E4C208F514900BBB122DC3E4F515F517F518E51560077F20124BA580F57516FFC202C201C203C204C206C207C209124B71FF70BD
:404C00000D3008057F00124BB6AF18AE1722B4255FC2D5C205124B71FF24D0B40A00501A75F00A781530D50508B6FF0106C6A426F620D5047002D20480D924CFB41A00EFD1
:404C40005004C2E5D205024EA8D20280C6D20180C0D20380BCD2D580BAD20680B47F20124BA52003077401B5150040F1124B62FF124BA5024BDFD209D2078095124B62FB95
:404C8000124B62FA124B62F94A4B700679A67A4F7BFF20032EE515602A7E008E82758300122B7D60060EEE651670F0C2D5EBC0E0EAC0E0E9C0E0EE124F09D0E0F9D0E0FAE4
:404CC000D0E0FB122B64FF60AAEBC0E0EAC0E0E9C0E0124BA5D0E02401F9D0E03400FAD0E0FBE5160460DCD516D98087D20380A2124EEB60F7E51670010412280CA91660F4
:404D00000DE516600914F516124F93EF60F3EA30E702F404C3995079EAF425160430E701E404F516800D124EEB60C1EA0516251612280CEA900BEAF030E701E4251604D577
:404D4000160420060114124F09E4C0E0124F93900BEAE0601320E70714F0124B8D802204F0D0E014C0E07F00124B8DE5166007124B841516800B300603124B84D0E0024BB5
:404D8000DFD0E00480C4124EEB609EE5160412280C900BEAEAF0E5162006026001042404124F0974FF04C0E0124F93124B8DE5162006026003124B84D0E0B516E87F451280
:404DC0004B97900BEAE07F2B30E7047F2DF404C0E0124BA5D0E075F00A84C0F0124B8ED0E0124B8E024BDF791080027908C207C2098008D2D5790A8004790AC2D5E51604ED
:404E00007002F516E4FAFDFEFF124B62FC7B08200213124B62FD7B1030010A124B62FE124B62FF7B20EC3382D592D55013C3E43001069FFFE49EFEE42002039DFDE49CFCB7
:404E4000E4CBF8C202EC700CCFCECDCCE824F8F870F38017C3EF33FFEE33FEED33FDEC33FCEB33FB994002FB0FD8E9EB300205F8D0E0C448B202C0E00AEC4D4E4F78207B1C
:404E80000070C2EAB5160040BCC0E0124F0BD0F0D0E0200204C4C0E0C4B202C0F0124B8ED0F0D5F0EB024BDF122DCC4C7C534DE7584C4D4C4C49424DEB4F4DF3444DF34958
:404EC0004C62434DF9554D26464D86454CF0474FC6504C512D4C552E4C782B4C59234C76204FAF2A4C114800004C70E516B4FF03751606124B62FC124B62FD124B62FE122A
:404F00004B62FF900BE3022849790AA2D5200414300609B910020404B9080104A2D52007025001042003689203B515005034C0E07F203004197F30A20372077206500F1225
:404F40004F62C203C207C206C2097F30800F300603E9C0E0124BA5300603D0E0F9D0E0B515CC3006177F30B9100C124BA57F583005077F788003B90803124BA53003057F58
:404F80002D024BA57F202009F87F2B2007F322920380CF7F00B40700500B24E3F582E4340BF583E0FF22286E756C6C2900D202124B623002F8C202781530D50108F6024C2D
:404FC000112D50434958124B622403B405004001E4904FC193124B96743A124B96D204751504024DE79007217401F0E4A3F0A304F0A374A1F0E4900720F0900208E0FF90B3
:405000000720E0FEC39F400302539C90092C743AF074042EF582E43400F583E075F005A424C3F582E43406F583E0607B900720E0FF75F01DA4241CF582E5F03400F583E054
:40504000FCA3E0FD900721E0FE242CF582E43409F583ECF0A3EDF075F01DEFA4241EF582E5F03400F583E0FCA3E0FD742E2EF582E43409F583ECF0A3EDF0900720E075F07F
:405080001DA42420F582E5F03400F583E0FCA3E0FD74302EF582E43409F583ECF0A3EDF0900721E02406F0900720E0FF2404F582E43400F583E075F005A424C4F582E4347D
:4050C00006F583E06078900720E0FE75F01DA42422F582E5F03400F583E0FCA3E0FD900721E0FB242CF582E43409F583ECF0A3EDF075F01DEEA42424F582E5F03400F58382
:40510000E0FCA3E0FD742E2BF582E43409F583ECF0A3EDF075F01DEFA42426F582E5F03400F583E0FEA3E0FF74302BF582E43409F583EEF0A3EFF0900721E02406F090079B
:4051400020E0FF2404F582E43400F583E075F005A424C5F582E43406F583E06078900720E0FE75F01DA42428F582E5F03400F583E0FCA3E0FD900721E0FB242CF582E43498
:4051800009F583ECF0A3EDF075F01DEEA4242AF582E5F03400F583E0FCA3E0FD742E2BF582E43409F583ECF0A3EDF075F01DEFA4242CF582E5F03400F583E0FEA3E0FF74F2
:4051C000302BF582E43409F583EEF0A3EFF0900721E02406F0900720E02404F582E43400F583E075F005A424C6F582E43406F583E07003025295900720E0FF75F01DA4246B
:405200002EF582E5F03400F583E0FCA3E0FD900721E0FE242CF582E43409F583ECF0A3EDF075F01DEFA42430F582E5F03400F583E0FCA3E0FD742E2EF582E43409F583EC11
:40524000F0A3EDF0900720E0FF75F01DA42432F582E5F03400F583E0FCA3E0FD74302EF582E43409F583ECF0A3EDF075F01DEFA42434F582E5F03400F583E0FCA3E0FD74E5
:40528000322EF582E43409F583ECF0A3EDF0900721E02408F0900720E0FF2404F582E43400F583E075F005A424C7F582E43406F583E0602D75F01DEFA42436F582E5F03467
:4052C00000F583E0FEA3E0FF900721E0242CF582E43409F583EEF0A3EFF0900721E02402F0900720E02404F582E43400F583E025E0242DF582E43406F583E0FEA3E0242B17
:40530000F58274093EF583743AF09007217401F0E4A3F0900720E02404F582E43400F583E0F925E0242DF582E43406F583E0FEA3E0FF900722E0FDD3EF9D7480F8EE64807C
:4053400098402BE0FF242CF582E43409F583E0FEEF900723E02DFDE433FC74242DF58274073CF583EEF0900722E004F080A5E925E0242DF582E43406F583E0A3E0FF900707
:4053800023E02FF07E007F1E7D007B017A09792C122E43900720E004F0024FFA7B017A0779249006BEE0A3E014FD1273DA9006BEE0FCA3E0FD2423F58274073CF583EFF0F9
:4053C0007B017A077924126AEE22C0E0C0F0C083C082C085C084C086758600C093759300C0D075D000C000C001C002C003C004C005C006C007900BEBE4F0A3F0901041E0EE
:405400002404F582E43400F583E0FF7E00127134901041E02404F582E43400F583E0FF7E00126A45901041E0FD2404F582E43400F583E0FF75F006A42458F582E43406F53A
:4054400083E0FB900BEBE4F0A3EBF0EF75F006A42459F582E43406F583E0FB900BECE0FEEBFF75F01DEDA42443F582E5F03410F583EEF0A3EFF0901041E0FD2404F582E421
:405480003400F583E0FF75F006A4245AF582E43406F583E0FB900BEBE4F0A3EBF0EF75F006A4245BF582E43406F583E0FB900BECE0FEEBFF75F01DEDA42445F582E5F03464
:4054C00010F583EEF0A3EFF0901041E0FD2404F582E43400F583E0FF75F006A4245CF582E43406F583E0FB900BEBE4F0A3EBF0EF75F006A4245DF582E43406F583E0FB90B2
:405500000BECE0FEEBFF75F01DEDA42447F582E5F03410F583EEF0A3EFF0901041E0FD2404F582E43400F583E0FF75F006A42419F582E43403F583E0FB900BEBE4F0A3EBE1
:40554000F0EF75F006A4241AF582E43403F583E0FB900BECE0FEEBFF75F01DEDA42449F582E5F03410F583EEF0A3EFF0901041E0FD2404F582E43400F583E0FF75F006A408
:40558000241BF582E43403F583E0FB900BEBE4F0A3EBF0EF75F006A4241CF582E43403F583E0FB900BECE0FEEBFF75F01DEDA4244BF582E5F03410F583EEF0A3EFF09010F3
:4055C00041E0FD2404F582E43400F583E0FF75F006A4241DF582E43403F583E0FB900BEBE4F0A3EBF0EF75F006A4241EF582E43403F583E0FB900BECE0FEEBFF75F01DED8F
:40560000A4244DF582E5F03410F583EEF0A3EFF0901041E0FD2404F582E43400F583E0FF75F006A42409F582E43402F583E0FB900BEBE4F0A3EBF0EF75F006A4240AF58286
:40564000E43402F583E0FB900BECE0FEEBFF75F01DEDA4244FF582E5F03410F583EEF0A3EFF0901041E0FD2404F582E43400F583E0FF75F006A4240BF582E43402F583E08D
:40568000FB900BEBE4F0A3EBF0EF75F006A4240CF582E43402F583E0FB900BECE0FEEBFF75F01DEDA42451F582E5F03410F583EEF0A3EFF0901041E0FD2404F582E4340051
:4056C000F583E0FF75F006A4240DF582E43402F583E0FB900BEBE4F0A3EBF0EF75F006A4240EF582E43402F583E0FB900BECE0FEEBFF75F01DEDA42453F582E5F03410F5E5
:4057000083EEF0A3EFF0901041E004FF900208E0FEEF8EF084AFF0901041EFF0701378407C047D017B017A1079427E017FED122F2BD007D006D005D004D003D002D001D00D
:4057400000D0D0D093D086D084D085D082D083D0F0D0E032E4900721F0FE7F1DFD7B017A00791B122E437E007F117D007B017A007904122E43E4900720F0900720E0FFC34B
:40578000941150797E00127134E47F0AFEFDFC126B7B126597E47F0AFEFDFC126B7B900720E0FF75F005A424C3F582E43406F5837401F0EF75F005A424C4F582E43406F514
:4057C000837401F0EF75F005A424C5F582E43406F583E4F0EF75F005A424C6F582E43406F583E4F0EF75F005A424C7F582E43406F583E4F0900720E004F002577AE47F3276
:40580000FEFDFC126B7BE4900720F0900720E0FFC3941150177E00127134900720E0FF7E00126C03900720E004F080DFE4FFFE127134E47F0AFEFDFC126B7B7F7512776BF9
:40584000900722E4F0A3EFF0E4900722F0A3F0900208F0900720F0900720E0FFC39411505F7E00127134E47F0AFEFDFC126B7B7F7512776B7E00900722EEF0A3EFF0647136
:405880007023900208E004F0E4900722F0A3F0900720E025E02424F582E43407F583E4F0A304F08013900720E025E02424F582E43407F583E4F0A3F0900720E004F08097DC
:4058C0007E007F1D7D007B017A00791B122E437E007F117D007B017A007904122E437E007F227D007B017A06792D122E43E4900720F0900720E0FFC394115034EF25E0249D
:4059000024F582E43407F583E0FEA3E064014E7017900720E0A3E02404F582E43400F583EFF0900721E004F0900720E004F080C2E4FF1278E7E47F0AFEFDFC126B7B7F01E9
:405940001278E7E47F0AFEFDFC126B7BE4900720F0900720E0FFC3941150797E00127134E47F0AFEFDFC126B7B1264A6E47F0AFEFDFC126B7B900720E0FF75F005A424C374
:40598000F582E43406F5837401F0EF75F005A424C4F582E43406F5837401F0EF75F005A424C5F582E43406F583E4F0EF75F005A424C6F582E43406F583E4F0EF75F005A492
:4059C00024C7F582E43406F583E4F0900720E004F0025951E47F32FEFDFC126B7B9006BEE4F0A304F0E4900720F0900208E0FF900720E0FEC39F4003025AC6E0FF2404F505
:405A000082E43400F583E0FD75F005A424C4F582E43406F583E075F006A4FCED75F005A424C3F582E43406F583E075F006A42CFD74042FF582E43400F583E0FF75F005A4E7
:405A400024C5F582E43406F583E075F006A42DFDEF75F005A424C6F582E43406F583E075F008A42DFF74042EF582E43400F583E0FD75F005A424C7F582E43406F583E02571
:405A8000E02F2402FBED25E0242DF582E43406F583E4F0A3EBF074042EF582E43400F583E025E0242DF582E43406F583E0FEA3E0FF9006BFE02FF09006BEE03EF090072057
:405AC000E004F00259EA9006BFE004F070069006BEE004F0227B007A4079807D027C001279339040827418F07B007A4079847DFF7C0F127933904086741BF07B007A407975
:405B0000887D0B7C0012793390408A7419F07B007A40798C7D2F7C0012793390408E7418F07B007A4079907DBF7C5D1279339040927419F09043007406F09042007452F095
:405B40007B0C7A01790F1279BE9046A1EFF07B007A4279227D107C071279337B007A4279207D517C12127933E490071FF07F19FEFDFC90071B122D9490071BE0A3E0A3E03C
:405B8000FEA3E0D39400EE9400404AA3E0FF64036043904225E05401FEEF25E04E540390071FF0E47FE07E01FDFC12730090071BE0FCA3E0FDA3E0FEA3E0FF74FFEF24FF26
:405BC000FFEE34FFFEED34FFFDEC34FFFC90071B122D9480A390071BE0A3E0A3E0FEA3E04E70057F03127ACA7B007A4079047D007C011279339040047407F0904006E4F0A0
:405C00009040087448F0904004E4F0904009F09040017402F09043A2E0441FF022900720EEF0A3EFF0A3EDF0127A28900724EFF01279EC900725EEF0A3EFF0900720E0FC63
:405C4000A3E0FD6F7002EC6E7003025D4C9043A2E05401900723F0A3E0703BA3E0FEA3E0FF4E6004ED4C702EEF4E70117B027A407980127935904082E054BFF022904082E6
:405C8000E04440F07B027A407980900720E0FCA3E0FD12793522900723E06053904001E4F090401004F0904014E4F0904008E0547FF0904082E05408600A900720E0700271
:405CC000A3E0702B7B027A407902900725E0FCA3E0FD1279359040017407F0904001E0540170F89043A2E054FEF0904001E4F09043A2E05401602F7B027A40790290072074
:405D0000E0FCA3E0FD127935900722E060047F0280027F00EF4401904001F0904001E05401602980F6227B027A407980900720E0FCA3E0FD1279359043A2C083C082E0FFD0
:405D4000900723E0FEEF4ED082D083F022E4F509127098EF7003025E73E509C394064003025E73126E9B8F08E519146049146060147003025E03147003025E51240470D03A
:405D8000851D1C851E1D85081EE51DB43A11E51EB43A0CE4F51CF51DF51E75190180B1E51CB43FACE51DB40DA7E51E640A70A1FFFE1276F0809A900001E065086004E50898
:405DC0007004C2008002D200E4F51B751902808085081BE51BD394015008E4F51BF519025D50E51BD394804008E4F51BF519025D50E4F51A200006751903025D50751904B1
:405E0000025D50742F251AF582E43412F583E508F0051AE51AC3951B5003025D50200025AF1B7E0078BA7C037D017B017A12792F122F2B90043AE4F0A3E51BF090043E74F5
:405E400001F0125E74E4F51AF51BF5190509025D50151BE51B6003025D50F51AF51B7F01127A6FE4FF127A6FE4F5190509025D50025D50229003BAE0F50A7B017A0379BAED
:405E800090043AE0A3E014FD1273DA90043AE0FCA3E024B9F58274033CF583E0B50703D38001C34006E490043EF022E50A122DCC5F2D005F1D015F31035F35045F4B055F95
:405EC00011065F6F095F5D0A5F210C5EED805F05815EF1825F0D835EF5845EF9855EFD885F018A5F098B5F91A100005F94127ACE22127ACD221274CB22127AD022127AD2B5
:405F00002212724C22127ACF221275FF22127AD1229003BBE0FEA3E0FF1276F0221274CA229003BBE0FEA3E0FF12399622127817221277C3227F087E00126998EF60067F21
:405F4000011277AE22E4FF1277AE2212717DEF60067F011277AE22E4FF1277AE22127597EF60067F011277AE22E4FF1277AE227F011277AEE47FE87E03FDFC126B7BE4FF42
:405F8000127A75E47FE87E03FDFC126B7B1279F622124FE52275930078007583467582E8E04401F00090480074C0F07581239076BCE4F0A3F0A3F0A3F0907010F0907019E9
:405FC000F0907020F09076007410F0907604E4F0A3F0A3F0A3F09078007800087400F0A37408F0E8B8040274FFA3F0A37422F0A374BCF0A37476F0A3E4F0A3E81475F008FD
:40600000A4F0A3B804D59070107401F0907014F07E707F18122604907010F0EA901345F002261175221F7523FD1260AF02606A026767E493A3F8E493A34003F68001F2087B
:40604000DFF48029E493A3F85407240CC8C333C4540F4420C8834004F456800146F6DFE4800B0102040810204080906DDAE47E019360BCA3FF543F30E509541FFEE493A314
:4060800060010ECF54C025E060A840B8E493A3FAE493A3F8E493A3C8C582C8CAC583CAF0A3C8C582C8CAC583CADFE9DEE780BE7B007A4679E81279BEEF4401FD7B007A4634
:4060C00079E81279CA1268277B017A5079031279BEEF4402FD7B017A5079031279CA7B017A5079131279BEEF4402FD7B017A5079131279CA9043A0E04440F09043C2E04401
:4061000010F07B087A1F79E8900720E4F0A37451F0A37402F07F087E001273737B087A1F79F0900720E4F0A37451F0A374C2F07F087E001273737C7D7D9C7B007A5179F208
:406140007F087E0012754C7C7D7DA47B007A5179107F0A7E0012754C7C7D7DAE7B007A5179227F087E0012754C9044F47401F0904322E04408F09046ECE0C3940550069085
:406180004689743AF090480074F1F0125AD512769C7B007A4379A0C003C002900720EBF0A3EAF0A374B0F0D002D0037F0E7E001273739043B0E054FDF022E4900BEFF0A3D5
:4061C000F0A3EEF0A3EFF07F3C12776B900BEFEFF07F3B12776B900BF0EFF0A3E0FCA3E0FD90065875F006122DA0EC75F006A42583F583EFF0900BEFE0FF90065975F00688
:40620000ED122DA0EC75F006A42583F583EFF0E4900BEFF0A3F07F3E12776B900BEFEFF07F3D12776B900BF0EFF0A3E0FCA3E0FD90065A75F006122DA0EC75F006A4258397
:40624000F583EFF0900BEFE0FF90065B75F006ED122DA0EC75F006A42583F583EFF0E4900BEFF0A3F07F4012776B900BEFEFF07F3F12776B900BF0EFF0A3E0FCA3E0FD9084
:40628000065C75F006122DA0EC75F006A42583F583EFF0900BEFE0FF90065D75F006ED122DA0EC75F006A42583F583EFF0E4900BEFF0A3F022E4900BEFF0A3F0A3EEF0A383
:4062C000EFF07F4412776B900BEFEFF07F4312776B900BF0EFF0A3E0FCA3E0FD90031975F006122DA0EC75F006A42583F583EFF0900BEFE0FF90031A75F006ED122DA0EC57
:4063000075F006A42583F583EFF0E4900BEFF0A3F07F4612776B900BEFEFF07F4512776B900BF0EFF0A3E0FCA3E0FD90031B75F006122DA0EC75F006A42583F583EFF09099
:406340000BEFE0FF90031C75F006ED122DA0EC75F006A42583F583EFF0E4900BEFF0A3F07F4812776B900BEFEFF07F4712776B900BF0EFF0A3E0FCA3E0FD90031D75F00611
:40638000122DA0EC75F006A42583F583EFF0900BEFE0FF90031E75F006ED122DA0EC75F006A42583F583EFF0E4900BEFF0A3F022900BF1EEF0A3EFF07F4912776B900BEF74
:4063C000EFF07F4A12776B900BF0EFF0A3E0FCA3E0FD90020975F006122DA0EC75F006A42583F583EFF0900BEFE0FF90020A75F006ED122DA0EC75F006A42583F583EFF083
:40640000E4900BEFF0A3F07F4B12776B900BEFEFF07F4C12776B900BF0EFF0A3E0FCA3E0FD90020B75F006122DA0EC75F006A42583F583EFF0900BEFE0FF90020C75F006C9
:40644000ED122DA0EC75F006A42583F583EFF0E4900BEFF0A3F07F4D12776B900BEFEFF07F4E12776B900BF0EFF0A3E0FCA3E0FD90020D75F006122DA0EC75F006A4258386
:40648000F583EFF0900BEFE0FF90020E75F006ED122DA0EC75F006A42583F583EFF0E4900BEFF0A3F0227D107F6B12743DE47F0AFEFDFC126B7B7D207F6A12743DE47F0AEC
:4064C000FEFDFC126B7B7D067F1A12743DE47F0AFEFDFC126B7B7D187F1B12743DE47F0AFEFDFC126B7BE4FD7F1C12743DE47F0AFEFDFC126B7B7D057F1D12743DE47F0A3B
:40650000FEFDFC126B7B7D0D7F2412743DE47F0AFEFDFC126B7B7D0C7F2512743DE47F0AFEFDFC126B7B7D0A7F2612743DE47F0AFEFDFC126B7B7D167F6312743DE47F0AE4
:40654000FEFDFC126B7B7D817F2712743DE47F0AFEFDFC126B7B7D8C7F2512743DE47F0AFEFDFC126B7B7D037F2612743DE47F0AFEFDFC126B7B7D8D7F2712743DE47F0A79
:40658000FEFDFC126B7BE4FD7F6B12743DE47F14FEFDFC126B7B227D107F6B12743DE47F0AFEFDFC126B7B7D207F6A12743DE47F0AFEFDFC126B7B7D067F1A12743DE47F59
:4065C0000AFEFDFC126B7B7D187F1B12743DE47F0AFEFDFC126B7BE4FD7F1C12743DE47F0AFEFDFC126B7B7D057F1D12743DE47F0AFEFDFC126B7B7D0D7F2412743DE47F29
:406600000AFEFDFC126B7B7D0C7F2512743DE47F0AFEFDFC126B7B7D0A7F2612743DE47F0AFEFDFC126B7B7D1F7F6312743DE47F0AFEFDFC126B7B7D817F2712743DE47F63
:406640000AFEFDFC126B7B7D8C7F2512743DE47F0AFEFDFC126B7B7D107F2612743DE47F0AFEFDFC126B7B7D837F2712743DE47F0AFEFDFC126B7BE4FD7F6B12743DE47F4E
:4066800014FEFDFC126B7B22900727EBF0A3EAF0A3E9F0A3EDF01277ED90072AE0C39480400302675B12767DEF600302675390072B74FFF0900727E0FBA3E0FAA3E0F99054
:4066C0000730E4F0A37410F07F40126CFCEF6407707C904722E0540260F8904722E054026009E0FF1313543FFF80027FFFEF700490072BF090072BE0704E90072AE0FD7CB4
:406700000090134DE0FBA3E0900730F07F40126FF4EF6407702A90072B74FFF0904722E0540260F8904722E054026009E0FF1313543FFF80027FFFEF701490072BF0800E9E
:4067400090072B74FFF0800690072B74FFF01279D6800E90072B7404F0800690072B7401F090072BE0FF22127AC31270E7E47F64FEFDFC126B7B7F01127A751275DD1278E3
:406780003F1273A712746D1278B17E7A7FC712763F1278787E727FFD12765EE4FF127A6F127865127852D2AF9044F474FDF012788B1277221275721279061278C312761F56
:4067C000E47F0AFEFDFC126B7B7F011278E7125754E490071AF0C20DC20A90043AF0A3F090043EF0E4FF127A7B1271C4127A81EF701B300C0E7F01127A9FC20CC20B125DA5
:406800004D80E9300BE67F01127A9F80DF7F01127A7B127A81EF640160F812782BEF30E7C312746D80BE22E4FFFEFDFC90134F122D949076007410F09070107401F09070D8
:4068400019E4F07B027A78F97DA07C021279359078027401F0A374A3F07B027A787904C003C002C0017BFF7A7A79FCE9EAE4AD01AC02D001D002D0031279357B027A787909
:40688000067D087C781279357B027A7679047D107C001279357B027A767906E4FDFC1279359070297409F090703904F09070697414F0907079741DF09070147401F0907046
:4068C00018E0540170F8907028E0540170F8907038E0540170F8907068E0540170F8907078E0540170F822C0E0C083C082C085C084C086758600C093759300C0D075D000EE
:40690000C001C002C003C006C007E4FBA2AF33FAD2AF9044F474FDF090646FE0FFFE541EF9600690131AE049F0EF30E545906444E0FE901317E024F7F582E43412F583EE7B
:40694000F07B01EB602C9012F5E060069013197401F0901317E004F0E0C394204002E4F09012F6E0FE901317E0B506069012F57401F0EF20E5A2AF02EA24FF92AFD007D032
:4069800006D003D002D001D0D0D093D086D084D085D082D083D0E032900720EEF0A3EFF09007267401F0127A4712773B78007C007D017B017A0079157E007F04122F2B900F
:4069C0000724E4F0A304F0E4900722F0A3F0900724E0FEA3E0FF900722E0FCA3E0FDC39FEE6480F8EC648098503FEDC4F8540FC868FFECC454F048FE7B0174152FF9740078
:406A00003EFA900720E0A3E0FFED2FFD126688EF6007E4900726F08010900723E004F07006900722E004F080A578157C007D017B017A0079007E007F04122F2B127A409000
:406A40000726E0FF22900BEDEEF0A3EFF09006C375F005122DA0EE75F005A42583F583E0600B900BEDE0FEA3E0FF1261BA900BEDE0FEA3E0FF9006C475F005122DA0EE75F4
:406A8000F005A42583F583E060031262B5900BEDE0FEA3E0FF9006C575F005122DA0EE75F005A42583F583E060031263B0900BEDE0FEA3E0FF9006C675F005122DA0EE75B1
:406AC000F005A42583F583E06003126C87900BEDE0FEA3E0FF9006C775F005122DA0EE75F005A42583F583E06003126F4C22900BBBEBF0A3EAF0A3E9F0A3ECF0A3EDF07F11
:406B00003A1279977F3A127997900016E0FF127997900BBEE0A3E0FF127997E4F514F515D3900BBFE09515900BBEE095144022900BBBE0FBA3E0FAA3E02515F9EA3514FA17
:406B4000122B64FF1279970515E5157002051480CFE4F514F515127A63EF20E0130515E515AE147002051414D394E8EE940340E67F01127A6FE4FF127A6F2290FFFC122DC9
:406B8000F2122D94852283852382E0A3E0A3E0FEA3E0D39400EE9480403D901346E0FCA3E0FDA3E0FEA3E0FF127300852283852382C083C082E0FCA3E0FDA3E0FEA3E02445
:406BC00000FFEE3480FEED34FFFDEC34FFFCD082D083122D9480AD90133CE0FCA3E0FDA3E0FEA3E0FF852283852382E0F8A3E0F9A3E0FAA3E0FB122BCE1273009000041202
:406C00002DF222E4900746F0A3EEF0A3EFF07F4912776B900746EFF0A3E0FCA3E090038775F003122DA0EC75F003A42583F583EFF0E4900746F07F4A12776B900746EFF063
:406C4000A3E0FCA3E090038875F003122DA0EC75F003A42583F583EFF0E4900746F07F4B12776B900746EFF0A3E0FCA3E090038975F003122DA0EC75F003A42583F583EF22
:406C8000F0E4900746F022E4F9FDAB07AA06EB7803C333CE33CED8F9FF2491F58274023EF583EDF074922FF58274023EF583E9F0E4F9FD74932FF58274023EF583EDF074F0
:406CC000942FF58274023EF583E9F074952FF58274023EF583EDF074962FF58274023EF583E9F074972FF58274023EF583EDF074982FF58274023EF583E9F02290072DEBA6
:406D0000F0A3EAF0A3E9F09007327407F0904722E05402604E90472074B6F074D5F07402F0904722E054027032904720EFF0E4FFFED3900731E09F900730E09E402B9007C0
:406D40002DE0FBA3E0FAA3E02FF9EA3EFA122B64904720F00FEF70010E80D69007327409F080069007327404F0900732E0FF22900789EBF0A3EAF0A3E9F090078FEBF0A317
:406D8000EAF0A3E9F0900789E0FBA3E475F00112303CA9F0FA122B6470EB90078A74FFF5F012302690078CE0FBA3E475F00112303CA9F0FA122B64FF900789E0FBA3E47514
:406DC000F00112303CA9F0FAEF122BAA70D690078FE0FBA3E0FAA3E0F92242103F80000119004212AF0001411356004113180041131A004112F600411317004112F5004169
:406E0000131900411357004113580043134A00000044134102DC6C0044133C0000BB80411340304413465DC0000041135900411355004110410041135A0000900729EBF0D0
:406E4000A3EAF0A3E9F0A3EDF0E4A3F090072CE0FFA3E0C39F503E904722E054016003D38001C340097F017E001274CC80E9904720E0FF900729E0FBA3E0FAA3E0F9900762
:406E80002DE0FEE92EF9E43AFAEF122BAA90072DE004F080B790072DE0FF22E4FF9044C87402F09012F6E0FE901317E0FD9012F5E07004EE6D602474F72EF582E43412F54A
:406EC00083E0FF0EEEC394204002E4FE9012F6EEF09012F5E06018E4F0801490646FE0FE30E50C906444E0FFEE541E6002E4FF9044C07402F0221277ED90072874FFF012E8
:406F0000767DEF703B7F0112749CEF6407702C7B017A13794D7D02126E3BEFB40215E4900728F0904722E0540270107F01FE1274CC80F0904722E0540260D41279D680069D
:406F40009007287404F0900728E0FF22E4900BEFF0A3F0A3EEF0A3EFF07F4212776B900BEFEFF07F4112776B900BF0EFF0FD900BF2E025E0FF900BF1E033FE746F2FF58266
:406F800074023EF583EDF0900BEFE0FD74702FF58274023EF583EDF0E4900BEFF0A3F022900721ECF0A3EDF0900720EFF0541F25E0FFE433FEE42FFFEE3444FAA9077B01E7
:406FC000127926900723EEF0A3EFF0900720E075F002A42400FFE5F03444FAA9077B01A3E0FEA3E0FFFDAC06127935900723E0FEA3E0FF2290072DECF0A3EDF0AC077D0789
:40700000904722E05402603B90472074B6F074D8F07405F0904722E054027023904720ECF090072DE0904720F090072DE0A3E0904720F0EBF0900730E0904720F080067D36
:407040000980027D04AF05221277ED12767DEF703B1276D5900728EFF06407702A904722E0540270087F01FE1274CC80F0904722E054026009E0FF1313543FFF80027FFF03
:40708000EF7004900728F01279D680069007287404F0900728E0FF229044C87402F0901317E0FE9012F6E0B5060E9012F5E060047F20802CE4FF8028901317E0FE9012F634
:4070C000E0C39E500BE0FE901317E0C39EFF80109012F6E0FEC374209EFE901317E02EFF9044C07402F022E4FFFEC3EF9404EE9400502390103FE0FCA3E02FF582EC3EF51D
:4071000083E0FD74152FF58274003EF583EDF00FEF70010E80D4900015E0700412717D2278007C007D017B017A0079157E007F04122F2B22900BEDEEF0A3EFF07F0F127A46
:40714000B77F03127ABD900BEDE0FEA3E0FFC3940FEE648094805003127AB7900BEDE07004A3E0640F7004FF127ABD900BEDE07004A3E0641070057F01127ABD22E4FFFE21
:40718000C3EF9404EE9400502AEF2480FDE43EFC90103FE0FAA3E02DF582EA3CF583E0FD74152FF58274003EF583EDF00FEF70010E80CD900015E0700412759722E4FFFE66
:4071C000126998221278F7900650122D94300C05C20C125D4D12469F781B7C007D017B017A0479407E017FED122F2B300C05C20C125D4D1278F790037F122D947F407E4B0E
:407200007D4C7C00127A1422C2D5E830E70FB2D5E4C39BFBE49AFAE499F9E498F8EC30E717B2D512723E122C59E4C39BFBE49AFAE499F9E498F88003122C5930D50DE4C310
