:10260000027A17008F828E83E0540100000070F878
:102610002278FFE4F6D8FD027AA5900000EEF0A340
:10262000EFF078027C007D017BFF7A4479DF7E0742
:102630007F9F1256A59007A1E4F0A37406F0E4A3CF
:10264000F0A3F0A3F0A37402F07C007D327F007E43
:102650000012533BAA06AB077F067E0012533BEFE6
:102660002BFDEE3AFC900C16E075F032A4FF2DFF26
:10267000EC35F0CF245FCF34019007A7F0A3EFF043
:10268000E4A3F0A3F078AB7C077D017BFF7A4C7963
:102690007EFE7F1A1256A578C57C077D017BFF7AE6
:1026A0004C79987E007F0B1256A578D07C077D016F
:1026B0007BFF7A4C79A37E007F141256A578E47CC8
:1026C000077D017BFF7A4C79B77E007F101256A5FB
:1026D00078F47C077D017BFF7A4C79C77E007F2AE6
:1026E0001256A5781E7C087D017BFF7A4C79F17E1D
:1026F000007F1A1256A57B017A0779E41290598F50
:10270000137B017A0779AB1290598F147B017A07FA
:1027100079C51290598F157B017A0779D01290599B
:102720008F167B017A0779F41290598F177B017A03
:1027300008791E1290598F1878387C087D017BFF2C
:102740007A4D790B7E007F761256A59008B174FF02
:10275000F0A37442F0A3745AF0A3E4F0A3740AF057
:10276000A3E4F0A37464F07B017A087938125E1256
:102770007B017A0879381290598F19900C16E0FD78
:10278000C313FF9007A3E4F0A3EFF09007A3E0FECC
:10279000A3E025E0FFEE33FEC3ED9FFFE49EFED3F2
:1027A000EF9400EE9400400BE004F070069007A355
:1027B000E004F09007A3E0FEA3E0FF7C007D32126E
:1027C000533BAA06AB079007A1E0FEA3E0FF12531C
:1027D0003BEF2BFDEE3AFC900C16E0F975F032A4BD
:1027E000FF2DFFEC35F0CF242DCF34019007A7F05B
:1027F000A3EFF09007A3E0FAA3E0FB9007A1E0FCB1
:10280000A3E0FDEB2DFFEA3CCF2403CF340090077B
:10281000A5F0A3EFF0900002740CF0ED2BFFE92F70
:102820002403A3F0900000E0FEA3E0FF6003023267
:10283000CEEE60030232CEE49007A9F0A3F0900040
:10284000047402F0A314F0900C16E0900006F075EA
:102850000B0085140CE50C450B602CC3E514950C9E
:10286000FFE4950BFE74AB2FF58274073EF583E011
:10287000FD74072FF58274003EF583EDF0E50C152D
:102880000C7002150B80CE9007AAE02432F090075E
:10289000A9E03400F0E4F50BF50CF50FF510900706
:1028A000A1E0FEA3E0D39510EE950F5003022A5D40
:1028B0009008B174FFF0A37442F0A374CEF0A3E5C6
:1028C0000FF0A3E510F07B017A0779C5125E12754F
:1028D00011007512047B017A0779C51290598F1582
:1028E0009007A9E0FEA3E0FF851082850F83743274
:1028F000125509E5822FF582E5833EF583E58224B2
:1029000004F582E5833400F5837402F08510828536
:102910000F837432125509E5822FF582E5833EF567
:1029200083E5822405F582E5833400F5837403F0A2
:10293000AE0FAF107C00FD12533B8E0D8F0EAE0F0D
:10294000AF107C007D0312533BEF2402FFE43EFEF8
:10295000D3E50E9FE50D9E40030229F17437250C47
:10296000F5827409350BF583E0F9B50E3FE4B50D3A
:102970003B9007A9E0FEA3E02512FFE5113EFE858E
:102980001082850F837432125509E5822FF582E596
:10299000833EF583E5822402F582E5833400F583E6
:1029A000E9F0050CE50C7002050B80329007A9E0F8
:1029B000FEA3E02512FFE5113EFE851082850F8300
:1029C0007432125509E5822FF582E5833EF583E5E1
:1029D000822402F582E5833400F58374FFF005124A
:1029E000E51270020511050EE50E7002050D0229B3
:1029F0003E750D0085150EE50E450D6055C3E515B8
:102A0000950EFFE4950DFE74C52FF58274073EF513
:102A100083E0FBAE0FAF107C007D3212533B90077A
:102A2000A9E0FCA3E02FFFEC3EFE7C00EF2515FFA4
:102A3000EC3EFEC3EF950EFFEE950DFE74092FF5EB
:102A40008274003EF583EBF0E50E150E7002150D55
:102A500080A50510E5107002050F02289E9007A1C1
:102A6000E0FEA3E0FF7C007D3212533B9007AAE01A
:102A70002FF09007A9E03EF0E4F50FF5109007A3C2
:102A8000E0FEA3E0D39510EE950F5003022DA99020
:102A900007A9E0FEA3E0FF851082850F8374321240
:102AA0005509E5822FF582E5833EF583E58224040E
:102AB000F582E5833400F5837402F0851082850F7A
:102AC000837432125509E5822FF582E5833EF58342
:102AD000E5822405F582E5833400F5837403F0E58F
:102AE0001025E0FFE50F33FE74372FF58274093EA1
:102AF000F583E075F003A42419F582E4340DF58321
:102B0000E0FF9007A9E0FCA3E0FD851082850F831C
:102B10007432125509E5822DF582E5833CF583E593
:102B2000822406F582E5833400F583EFF0E5102575
:102B3000E0FFE50F33FE74372FF58274093EF5830D
:102B4000E075F003A4241AF582E4340DF583E0FF68
:102B5000851082850F837432125509E5822DF58226
:102B6000E5833CF583E5822407F582E5833400F5AF
:102B700083EFF0E51025E0FFE50F33FE74372FF506
:102B80008274093EF583E075F003A4241BF582E40A
:102B9000340DF583E0FF851082850F837432125562
:102BA00009E5822DF582E5833CF583E5822408F56D
:102BB00082E5833400F583EFF0E5102401FFE4356E
:102BC0000FFEEF25E0FFEE33FE900C16E0C39FE40E
:102BD0009E5064750D0085160EE50E450D700302BE
:102BE0002D9EC3E516950EFFE4950DFE74D02FF5CE
:102BF0008274073EF583E0FBAE0FAF107C007D32A0
:102C000012533B9007A9E0FCA3E02FFFEC3EFE7CB3
:102C100000EF2516FFEC3EFEC3EF950EFFEE950D7F
:102C2000FE74092FF58274003EF583EBF0E50E1576
:102C30000E7002150D80A29007A9E0FEA3E0FF85AB
:102C40001082850F837432125509E5822FF582E5D3
:102C5000833EF583E5822405F582E5833400F58320
:102C60007406F0E51025E0FFE50F33FE74382FF50C
:102C70008274093EF583E075F003A42419F582E41B
:102C8000340DF583E0FF9007A9E0FCA3E0FD85107B
:102C900082850F837432125509E5822DF582E58312
:102CA0003CF583E5822409F582E5833400F583EF62
:102CB000F0E51025E0FFE50F33FE74382FF5827440
:102CC000093EF583E075F003A4241AF582E4340D7F
:102CD000F583E0FF851082850F837432125509E574
:102CE000822DF582E5833CF583E582240AF582E5B1
:102CF000833400F583EFF0E51025E0FFE50F33FEA8
:102D000074382FF58274093EF583E075F003A4242E
:102D10001BF582E4340DF583E0FF851082850F8377
:102D20007432125509E5822DF582E5833CF583E581
:102D300082240BF582E5833400F583EFF0750D00F6
:102D400085160EE50E450D6055C3E516950EFFE49C
:102D5000950DFE74D02FF58274073EF583E0FBAE2F
:102D60000FAF107C007D3212533B9007A9E0FCA30B
:102D7000E02FFFEC3EFE7C00EF2516FFEC3EFEC38D
:102D8000EF950EFFEE950DFE740C2FF58274003E4C
:102D9000F583EBF0E50E150E7002150D80A50510FC
:102DA000E5107002050F022A7D9007A3E0FEA3E064
:102DB000FF7C007D3212533B9007AAE02FF0900772
:102DC000A9E03EF09008B174FFF0A37442F0A37440
:102DD000DAF09007A5E0FEA3E024FFFFEE34FF90B9
:102DE00008B4F0A3EFF07B017A0779E4125E127B5E
:102DF000017A0779E41290598F139007A9E0FEA396
:102E0000E0FF2404F58274003EF5837402F074053B
:102E10002FF58274003EF5837401F09008DFE0FF27
:102E20009007A9E0FCA3E02406F58274003CF5833A
:102E3000EFF0750B0085130CE50C450B6046C3E500
:102E400013950CFFE4950BFE74E42FF58274073E96
:102E5000F583E0FFE513FD7C009007A9E0FAA3E00D
:102E60002DFDEC3AFCC3ED950CFDEC950BFC7407C5
:102E70002DF58274003CF583EFF0E50C150C700223
:102E8000150B80B49007AAE02432F09007A9E03433
:102E900000F0E4F50BF50C900C16E0FFC3E50C9F79
:102EA000E50B940040030230F49008B174FFF0A3E6
:102EB0007442F0A374EAF09007A5E0FEA3E0250CAD
:102EC000FFE50B3E9008B4F0A3EFF07437250CF546
:102ED000827409350BF583E0FF9008B6E4F0A3EFA8
:102EE000F07B017A0779F4125E127B017A0779F49C
:102EF0001290598F179007A9E0FEA3E0FF850C827E
:102F0000850B837432125509E5822FF582E5833EE5
:102F1000F583E5822404F582E5833400F5837402A9
:102F2000F0850C82850B837432125509E5822FF5EA
:102F300082E5833EF583E5822405F582E58334004E
:102F4000F5837405F07437250CF5827409350BF59B
:102F500083E075F005A424E2F582E43408F583E00B
:102F6000FF9007A9E0FCA3E0FD850C82850B83742C
:102F700032125509E5822DF582E5833CF583E58221
:102F80002406F582E5833400F583EFF07437250CD1
:102F9000F5827409350BF583E075F005A424E3F59B
:102FA00082E43408F583E0FF850C82850B8374325C
:102FB000125509E5822DF582E5833CF583E58224EF
:102FC00007F582E5833400F583EFF07437250CF5BF
:102FD000827409350BF583E075F005A424E4F582CD
:102FE000E43408F583E0FF850C82850B837432128C
:102FF0005509E5822DF582E5833CF583E5822408B9
:10300000F582E5833400F583EFF07437250CF58203
:103010007409350BF583E075F005A424E5F582E429
:103020003408F583E0FF850C82850B8374321255DA
:1030300009E5822DF582E5833CF583E5822409F5D7
:1030400082E5833400F583EFF07437250CF5827444
:1030500009350BF583E075F005A424E6F582E43428
:1030600008F583E0FF850C82850B837432125509C5
:10307000E5822DF582E5833CF583E582240AF5821D
:10308000E5833400F583EFF0750D0085170EE50E2E
:10309000450D6055C3E517950EFFE4950DFE74F4DC
:1030A0002FF58274073EF583E0FBAE0BAF0C7C007E
:1030B0007D3212533B9007A9E0FCA3E02FFFEC3ECA
:1030C000FE7C00EF2517FFEC3EFEC3EF950EFFEEF2
:1030D000950DFE740B2FF58274003EF583EBF0E541
:1030E0000E150E7002150D80A5050CE50C7002057D
:1030F0000B022E97900C16E075F032A4FFAEF09004
:1031000007AAE02FF09007A9E03EF09008B174FF05
:10311000F0A37443F0A37405F0900C16E0FF7E005A
:103120009007A5E0FCA3E02FFFEE3C9008B4F0A3CD
:10313000EFF07B017A08791E125E129007A9E0FE7B
:10314000A3E0FF2404F58274003EF583E4F07405E7
:103150002FF58274003EF5837401F09008E1E0FFE2
:103160009007A9E0FCA3E02406F58274003CF583F7
:10317000EFF0EF14602314603C240270529008B109
:1031800074FFF0A37443F0A3741AF07B017A0879FA
:103190001E1286DA75181A80369008B174FFF0A3F3
:1031A0007443F0A37420F07B017A08791E1286DA4A
:1031B000751819801A9008B174FFF0A37443F0A336
:1031C0007425F07B017A08791E1286DA75181A7553
:1031D0000B0085180CE50C450B6046C3E518950CF3
:1031E000FFE4950BFE741E2FF58274083EF583E014
:1031F000FFE518FD7C009007A9E0FAA3E02DFDECA7
:103200003AFCC3ED950CFDEC950BFC74072DF58293
:1032100074003CF583EFF0E50C150C7002150B8083
:10322000B47E009007A9E0FCA3E02518FFEE3CFE69
:1032300074072FF58274003EF5837401F09007AA9D
:10324000E02432F09007A9E03400F0750B008519F6
:103250000CE50C450B6046C3E519950CFFE4950B96
:10326000FE74382FF58274083EF583E0FFE519FD02
:103270007C009007A9E0FAA3E02DFDEC3AFCC3ED39
:10328000950CFDEC950BFC74042DF58274003CF557
:1032900083EFF0E50C150C7002150B80B47B017AFE
:1032A0000079029007A7E0A3E014FD128C6F90074D
:1032B000A7E0FCA3E0FD2401F58274003CF583EF58
:1032C000F07B017A00790212844D1290F52290076A
:1032D000A5E0FEA3E024FFFFEE34FFFE900000E037
:1032E000FCA3E0FDC39FEC9E50030234DC900C165F
:1032F000E0FF7E009007A5E0FAA3E0FB2FFFEE3A87
:10330000FEEDB5070DECB50609900D4FE090094BA9
:10331000F022EB24FFFFEA34FFFE900000E0FCA364
:10332000E0FDB5070DECB50609900D4FE090094999
:10333000F022900D4FE0FF9007A5E0FAA3E0FBC359
:10334000ED9BFDEC9AFC74372DF58274093CF583F6
:10335000E075F005A4244CF582E43409F583EFF020
:10336000900D50E0FF74372DF58274093CF583E031
:1033700075F005A4244DF582E43409F583EFF0904F
:103380000D51E0FF74372DF58274093CF583E0752B
:10339000F005A4244EF582E43409F583EFF0900D96
:1033A00052E0FF74372DF58274093CF583E075F027
:1033B00005A4244FF582E43409F583EFF0900D5312
:1033C000E0FF74372DF58274093CF583E075F00554
:1033D000A42450F582E43409F583EFF09010D2E490
:1033E000F0A304F0E4F50BF50C900C16E0FFC3E538
:1033F0000C9FE50B940040030234CE7437250CF586
:10340000827409350BF583E0FF75F005A4244DF5B2
:1034100082E43409F583E075F006A4FEEF75F0054B
:10342000A4244CF582E43409F583E075F006A42E5B
:10343000FF7437250CF5827409350BF583E0FE75B2
:10344000F005A4244EF582E43409F583E075F00616
:10345000A42FFFEE75F005A4244FF582E43409F59E
:1034600083E0C454F02FFF7437250CF582740935BE
:103470000BF583E0FE75F005A42450F582E43409D1
:10348000F583E025E02F2402FDEE25E02446F582B9
:10349000E43410F583E4F0A3EDF07437250CF582E5
:1034A0007409350BF583E025E02446F582E43410F9
:1034B000F583E0FEA3E0FF9010D3E02FF09010D250
:1034C000E03EF0050CE50C7002050B0233E99010AC
:1034D000D3E004F070069010D2E004F02290000ACD
:1034E000EEF0A3EFF0E4A3F0FFFEFDFC90005B1212
:1034F00054FD900C16E06401600302425990000AEA
:10350000E0FEA3E0FF9008E275F00512551AEE7593
:10351000F005A42583F583E070031277DF90000A9D
:10352000E0FEA3E0FF9008E375F00512551AEE7572
:10353000F005A42583F583E070031278FB900D1548
:10354000E0F8A3E0F9A3E0FAA3E0FB901068E0FC48
:10355000A3E0FDA3E0FEA3E0C39BFFEE9AFEED997E
:10356000FDEC98FCE41250A97B007A247974784928
:10357000124F8290005B1254FD90000AE0FEA3E01F
:10358000FF90106C75F00612551AEE75F006A42522
:1035900083F583E0FD90000DE4F0A3EDF090106D55
:1035A00075F006EF12551AEE75F006A42583F58323
:1035B000E0FD90000EE0FCEDEC1250AE90001F120A
:1035C00054FD90000AE0FEA3E0FF90106E75F00637
:1035D00012551AEE75F006A42583F583E0FD9000E0
:1035E0000DE4F0A3EDF090106F75F006EF12551A90
:1035F000EE75F006A42583F583E0FD90000EE0FC57
:10360000EDEC1250AE9000231254FD90000AE0FE43
:10361000A3E0FF90107075F00612551AEE75F006D3
:10362000A42583F583E0FD90000DE4F0A3EDF09078
:10363000107175F006EF12551AEE75F006A4258389
:10364000F583E0FD90000EE0FCEDEC1250AE900032
:10365000271254FDE4FFFEFDFC90003B1254FD9048
:10366000000AE0FEA3E0FF900CAF75F00612551AB9
:10367000EE75F006A42583F583E0FD90000DE4F0DF
:10368000A3EDF0900CB075F006EF12551AEE75F040
:1036900006A42583F583E0FD90000EE0FCEDEC121E
:1036A00050AE7B547AA0790B7839124E7990003F56
:1036B0001254FD90003FE0FCA3E0FDA3E0FEA3E078
:1036C000FF1291E67BA67A0A7986783E12501F6037
:1036D0000D400BE4FFFEFDFC90003F1254FD9000F6
:1036E0000AE0FEA3E0FF900CB175F00612551AEE49
:1036F00075F006A42583F583E0FD90000DE4F0A3AA
:10370000EDF0900CB275F006EF12551AEE75F0065A
:10371000A42583F583E0FD90000EE0FCEDEC125053
:10372000AE7B547AA0790B7839124E79900043120F
:1037300054FD900043E0FCA3E0FDA3E0FEA3E0FF06
:103740001291E67BA67A0A7986783E12501F600DA8
:10375000400BE4FFFEFDFC9000431254FD90000A74
:10376000E0FEA3E0FF900CB375F00612551AEE755B
:10377000F006A42583F583E0FD90000DE4F0A3EDB1
:10378000F0900CB475F006EF12551AEE75F006A421
:103790002583F583E0FD90000EE0FCEDEC1250AEC9
:1037A0007B547AA0790B7839124E799000471254E5
:1037B000FD900047E0FCA3E0FDA3E0FEA3E0FF12C4
:1037C00091E67BA67A0A7986783E12501F600D40FA
:1037D0000BE4FFFEFDFC9000471254FD7B017A00D4
:1037E000791F12759B900C9FE0FCA3E0FDA3E0FE07
:1037F000A3E0FF90004B1254FD900CA3E0FCA3E06B
:10380000FDA3E0FEA3E0FF90004F1254FD900CA733
:10381000E0FCA3E0FDA3E0FEA3E0FF900053125400
:10382000FD900CABE0FCA3E0FDA3E0FEA3E0FF9065
:1038300000571254FD900053E0FCA3E0FDA3E0FE0E
:10384000A3E0FF90004BE0F8A3E0F9A3E0FAA3E0C7
:10385000FB124E79C004C005C006C007900057E0B7
:10386000FCA3E0FDA3E0FEA3E0FF90004FE0F8A37F
:10387000E0F9A3E0FAA3E0FB124E79D003D002D026
:1038800001D000124D84E4FBFAF97840124E799091
:10389000001FE0F8A3E0F9A3E0FAA3E0FB124D84D7
:1038A000C004C005C006C007900053E0FCA3E0FDC3
:1038B000A3E0FEA3E0FF125098D003D002D001D0C5
:1038C00000124E79C004C005C006C007900057E042
:1038D000FCA3E0FDA3E0FEA3E0FF900053E0F8A30B
:1038E000E0F9A3E0FAA3E0FB124E79C004C005C0E2
:1038F00006C00790004FE0FCA3E0FDA3E0FEA3E0BC
:10390000FF90004BE0F8A3E0F9A3E0FAA3E0FB127C
:103910004E79D003D002D001D000124D88E4FBFADA
:10392000F97840124E79900023E0F8A3E0F9A3E083
:10393000FAA3E0FB124D8490004FE0F8A3E0F9A356
:10394000E0FAA3E0FB124E79D003D002D001D00000
:10395000124D887B827A5179C37840124E7990005B
:103960002B1254FD900057E0FCA3E0FDA3E0FEA362
:10397000E0FF900053E0F8A3E0F9A3E0FAA3E0FB36
:10398000124E79C004C005C006C00790004FE0FC8D
:10399000A3E0FDA3E0FEA3E0FF90004BE0F8A3E06E
:1039A000F9A3E0FAA3E0FB124E79D003D002D001D4
:1039B000D000124D88E4FBFAF97840124E7990005D
:1039C00023E0F8A3E0F9A3E0FAA3E0FB124D849012
:1039D000004BE0F8A3E0F9A3E0FAA3E0FB124E7974
:1039E000C004C005C006C007900053E0FCA3E0FD82
:1039F000A3E0FEA3E0FF90004BE0F8A3E0F9A3E012
:103A0000FAA3E0FB124E79C004C005C006C00790BF
:103A10000057E0FCA3E0FDA3E0FEA3E0FF90004F11
:103A2000E0F8A3E0F9A3E0FAA3E0FB124E79D0039B
:103A3000D002D001D000124D84E4FBFAF978401294
:103A40004E7990001FE0F8A3E0F9A3E0FAA3E0FBB1
:103A5000124D84900057E0F8A3E0F9A3E0FAA3E048
:103A6000FB124E79D003D002D001D000124D88C095
:103A700004C005C006C00790004FE0FCA3E0FDA312
:103A8000E0FEA3E0FF90004FE0F8A3E0F9A3E0FA26
:103A9000A3E0FB124E79A804A905AA06AB07E4FF30
:103AA000FEFD7C3F124D84C004C005C006C00790D7
:103AB0000053E0FCA3E0FDA3E0FEA3E0FF90005371
:103AC000E0F8A3E0F9A3E0FAA3E0FB124E79A80422
:103AD000A905AA06AB07D007D006D005D004124D21
:103AE00084E4FBFAF97840124E79900027E0F8A3BD
:103AF000E0F9A3E0FAA3E0FB124D84C004C005C0C6
:103B000006C007E4FFFEFD7C4090004FE0F8A3E014
:103B1000F9A3E0FAA3E0FB124E79D003D002D00162
:103B2000D000124E79A804A905AA06AB07D007D089
:103B300006D005D004124D847B827A5179C3784037
:103B4000124E7990002F1254FD900053E0FCA3E038
:103B5000FDA3E0FEA3E0FF90004BE0F8A3E0F9A393
:103B6000E0FAA3E0FB124E79C004C005C006C0070E
:103B7000900057E0FCA3E0FDA3E0FEA3E0FF90006F
:103B80004FE0F8A3E0F9A3E0FAA3E0FB124E79D0EE
:103B900003D002D001D000124D84E4FBFAF9784042
:103BA000124E7990001FE0F8A3E0F9A3E0FAA3E039
:103BB000FB124D84C004C005C006C00790004BE056
:103BC000FCA3E0FDA3E0FEA3E0FF125098D003D0D9
:103BD00002D001D000124E79C004C005C006C00753
:103BE000900057E0FCA3E0FDA3E0FEA3E0FF9000FF
:103BF00053E0F8A3E0F9A3E0FAA3E0FB124E79C08A
:103C000004C005C006C00790004FE0FCA3E0FDA380
:103C1000E0FEA3E0FF90004BE0F8A3E0F9A3E0FA98
:103C2000A3E0FB124E79D003D002D001D000124D98
:103C300088E4FBFAF97840124E79900023E0F8A36B
:103C4000E0F9A3E0FAA3E0FB124D84900057E0F8FE
:103C5000A3E0F9A3E0FAA3E0FB124E79D003D0026F
:103C6000D001D000124D88C004C005C006C0079026
:103C7000004FE0FCA3E0FDA3E0FEA3E0FF90004FB7
:103C8000E0F8A3E0F9A3E0FAA3E0FB124E79A80460
:103C9000A905AA06AB07E4FFFEFD7C3F124D84C0D8
:103CA00004C005C006C007900053E0FCA3E0FDA3DC
:103CB000E0FEA3E0FF900053E0F8A3E0F9A3E0FAF0
:103CC000A3E0FB124E79A804A905AA06AB07D0070A
:103CD000D006D005D004124D84E4FBFAF9784012E6
:103CE0004E79900027E0F8A3E0F9A3E0FAA3E0FB07
:103CF000124D84C004C005C006C007E4FFFEFD7C71
:103D000040900053E0F8A3E0F9A3E0FAA3E0FB122F
:103D10004E79D003D002D001D000124E79A804A968
:103D200005AA06AB07D007D006D005D004124D84F3
:103D30007B827A5179C37840124E799000331254C5
:103D4000FD900057E0FCA3E0FDA3E0FEA3E0FF90A0
:103D50000053E0F8A3E0F9A3E0FAA3E0FB124E79E8
:103D6000C004C005C006C00790004FE0FCA3E0FD02
:103D7000A3E0FEA3E0FF90004BE0F8A3E0F9A3E08E
:103D8000FAA3E0FB124E79D003D002D001D000128A
:103D90004D88E4FBFAF97840124E79900023E0F860
:103DA000A3E0F9A3E0FAA3E0FB124D84900053E0F6
:103DB000F8A3E0F9A3E0FAA3E0FB124E79C004C037
:103DC00005C006C007900053E0FCA3E0FDA3E0FEA1
:103DD000A3E0FF90004BE0F8A3E0F9A3E0FAA3E032
:103DE000FB124E79C004C005C006C007900057E022
:103DF000FCA3E0FDA3E0FEA3E0FF90004FE0F8A3EA
:103E0000E0F9A3E0FAA3E0FB124E79D003D002D090
:103E100001D000124D84E4FBFAF97840124E7990FB
:103E2000001FE0F8A3E0F9A3E0FAA3E0FB124D8441
:103E300090004FE0F8A3E0F9A3E0FAA3E0FB124EF4
:103E400079D003D002D001D000124D887B827A5104
:103E500079C37840124E799000371254FD90004398
:103E6000E0FCA3E0FDA3E0FEA3E0FF900053E0F838
:103E7000A3E0F9A3E0FAA3E0FB124E79C004C00569
:103E8000C006C00790003FE0FCA3E0FDA3E0FEA356
:103E9000E0FF90004FE0F8A3E0F9A3E0FAA3E0FB15
:103EA000124E79D003D002D001D000124D88C00448
:103EB000C005C006C007900047E0FCA3E0FDA3E0FA
:103EC000FEA3E0FF900057E0F8A3E0F9A3E0FAA317
:103ED000E0FB124E79D003D002D001D000124D8801
:103EE000125098E4FBFAF9783F124E7990002BE0DB
:103EF000F8A3E0F9A3E0FAA3E0FB124D8490000FD1
:103F00001254FD900043E0FCA3E0FDA3E0FEA3E01B
:103F1000FF900057E0F8A3E0F9A3E0FAA3E0FB125A
:103F20004E79C004C005C006C007900047E0FCA35E
:103F3000E0FDA3E0FEA3E0FF900053E0F8A3E0F96A
:103F4000A3E0FAA3E0FB124E79D003D002D001D057
:103F500000124D84C004C005C006C00790003FE0B9
:103F6000FCA3E0FDA3E0FEA3E0FF90004BE0F8A37C
:103F7000E0F9A3E0FAA3E0FB124E79D003D002D01F
:103F800001D000124D88E4FBFAF9783F124E799087
:103F9000002FE0F8A3E0F9A3E0FAA3E0FB124D84C0
:103FA0009000131254FD900047E0FCA3E0FDA3E055
:103FB000FEA3E0FF90004FE0F8A3E0F9A3E0FAA32E
:103FC000E0FB124E79C004C005C006C00790003F58
:103FD000E0FCA3E0FDA3E0FEA3E0FF900057E0F8C3
:103FE000A3E0F9A3E0FAA3E0FB124E79D003D002DC
:103FF000D001D000124D84C004C005C006C0079097
:104000000043E0FCA3E0FDA3E0FEA3E0FF90004B33
:10401000E0F8A3E0F9A3E0FAA3E0FB124E79D003A5
:10402000D002D001D000124D88E4FBFAF9783F129B
:104030004E79900033E0F8A3E0F9A3E0FAA3E0FBA7
:10404000124D849000171254FD90003FE0FCA3E055
:10405000FDA3E0FEA3E0FF900053E0F8A3E0F9A386
:10406000E0FAA3E0FB124E79C004C005C006C00709
:10407000900043E0FCA3E0FDA3E0FEA3E0FF90007E
:104080004FE0F8A3E0F9A3E0FAA3E0FB124E79D0E9
:1040900003D002D001D000124D84C004C005C00678
:1040A000C007900047E0FCA3E0FDA3E0FEA3E0FF13
:1040B000A3E0F8A3E0F9A3E0FAA3E0FB124E79D065
:1040C00003D002D001D000124D88E4FBFAF9783F0A
:1040D000124E79900037E0F8A3E0F9A3E0FAA3E0EC
:1040E000FB124D8490001B1254FD90004BE0F8A38E
:1040F000E0F9A3E0FAA3E0FBC000C001C002C003E6
:1041000090005BE0FCA3E0FDA3E0FEA3E0FF9000D5
:104110000FE0F8A3E0F9A3E0FAA3E0FB124E79D098
:1041200003D002D001D000124D8890004B1254FDF4
:1041300090004FE0F8A3E0F9A3E0FAA3E0FBC00091
:10414000C001C002C00390005BE0FCA3E0FDA3E05F
:10415000FEA3E0FF900013E0F8A3E0F9A3E0FAA3C8
:10416000E0FB124E79D003D002D001D000124D886E
:1041700090004F1254FD900053E0F8A3E0F9A3E043
:10418000FAA3E0FBC000C001C002C00390005BE0E6
:10419000FCA3E0FDA3E0FEA3E0FF900017E0F8A37E
:1041A000E0F9A3E0FAA3E0FB124E79D003D002D0ED
:1041B00001D000124D889000531254FD900057E03A
:1041C000F8A3E0F9A3E0FAA3E0FBC000C001C0023D
:1041D000C003A3E0FCA3E0FDA3E0FEA3E0FF90008A
:1041E0001BE0F8A3E0F9A3E0FAA3E0FB124E79D0BC
:1041F00003D002D001D000124D889000571254FD18
:104200007B017A00794B12709490004BE0FCA3E0A4
:10421000FDA3E0FEA3E0FF900C9F1254FD90004F21
:10422000E0FCA3E0FDA3E0FEA3E0FF900CA312548A
:10423000FD900053E0FCA3E0FDA3E0FEA3E0FF90AF
:104240000CA71254FD900057E0FCA3E0FDA3E0FE94
:10425000A3E0FF900CAB1254FD2230202D3E204EE7
:104260006F6E650A31202D3E204C6F772028257512
:104270002075732064656C617920666F72206561BA
:10428000636820382D62697420726567697374658C
:10429000722072656164290A32202D3E20486967C8
:1042A00068202825752075732064656C6179206607
:1042B0006F72206561636820382D626974207265B1
:1042C0006769737465722072656164290A00506FB2
:1042D00072742025752049443A002575202D20440C
:1042E00065766963652049443A002575202D20498B
:1042F0004D5520256420636F6E6669677572617421
:10430000696F6E3A002575202D2053504920726543
:1043100061642064656C61793A00204E6F6E6500BF
:10432000204C6F7700204869676800000D0A00463E
:1043300069726D776172652076657273696F6E3A26
:104340002000494D55626F617264207620312E3213
:10435000000D0A0D0A0044455649434520494E4682
:104360004F0D0A0049443A2025640D0A004C6F772E
:1043700020706173732066696C7465722066726563
:104380007175656E637920666F7220616363656C19
:1043900065726F6D65746572733A20313020487AAA
:1043A0000D0A00494D5520436F6E6E656374656458
:1043B0003A2025640D0A00494D557320434F4E465F
:1043C000494755524154494F4E0D0A00496D7520D9
:1043D0002564200D0A0949443A2025640D0A000984
:1043E000416363656C65726F6D65746572733A20C5
:1043F000005945530D0A004E4F0D0A0009477972C6
:104400006F73636F7065733A2000094D61676E6565
:10441000746F6D65746572733A200009517561742B
:1044200065726E696F6E3A20000954656D70657231
:1044300061747572653A200054696D652062657417
:104440007765656E2074776F2072656164696E6749
:10445000206379636C65733A20252E3366206D7373
:104460000064656275673A20256C640053454E53BD
:104470004F525320494E464F0D0A00094163633A9B
:104480002025640925640925640D0A00094779720D
:104490006F3A2025640925640925640D0A00094D39
:1044A00061673A2025640925640925640D0A00091D
:1044B000517561743A20252E336609252E3366091D
:1044C000252E336609252E33660D0A000954656DC5
:1044D00070657261747572653A2025640D0A00007A
:1044E00000000000000000000000000000000000CC
:1044F00000000000000000000000000000000000BC
:1045000000000000000000000000000000000000AB
:10451000000000000000000000000000000000009B
:104C700000000000000000000000000000004E7571
:104C80006D626572206F6620636F6E6E656374651A
:104C90006420494D55733A000000000000000000F8
:104CA0000000004D61672063616C20706172616D6E
:104CB00065746572733A0000000000000000000097
:104CC00000000000000000000000000000000000E4
:104CD00000000000000000000000000000000000D4
:104CE00000000000000000000000000000000000C4
:104CF00000000000000000000000000000000000B4
:104D000000000000000000000000000000000000A3
:104D10000000000000000000000000000000000093
:104D20000000000000000000000000000000000083
:104D30000000000000000000000000000000000073
:104D40000000000000000000000000000000000063
:104D50000000000000000000000000000000000053
:104D60000000000000000000000000000000000043
:104D70000000000000000000000000000000000033
:104D80000002511CE86480F8E933E83360110460E4
:104D9000F0ED33EC337009E8FCE9FDEAFEEBFF22AD
:104DA0000460DED3EB9FEA9EE99DE8C2E78CF0C287
:104DB000F795F0400CE8CCF8E9CDF9EACEFAEBCF64
:104DC000FB1250E785D0F05804700320D5B3E804F7
:104DD00070075002B2D502512692D5EC0460F7E478
:104DE000CCC0E0C398F8603B94186008400DD0E058
:104DF000FB0250FEE4FBFAC9FC8028E830E406E43C
:104E0000C9FBE4CAFCE830E305E4C9CACBFCE854BA
:104E1000076010F8C3E913F9EA13FAEB13FBEC137C
:104E2000FCD8F130F52FC3E49CFCEF9BFFEE9AFE1B
:104E3000ED99FDD0E0FBEF4E4D4C701222DB0302EA
:104E40005123EC2CFCEF33FFEE33FEED33FDED3060
:104E5000E7EB0250FEEF2BFFEE3AFEED39FDD0E01E
:104E6000FB50130BBB0003025126ED13FDEE13FEA6
:104E7000EF13FFEC13FC0250FEEC4D6011E849709B
:104E800017ED33EC3304600DE4FCFFFEFD22E93343
:104E9000E8330470F802511C1250E758046009E42A
:104EA000CC24815006285009025126284003025183
:104EB00023C0E0EB4A7044B98006D0E0FB025112F7
:104EC000EF4E701CBD8008EBFFEAFEE9FD80EBE9C8
:104ED0008DF0A4FEE5F0024F62E9CDF9EAFEEBFFAA
:104EE000EF89F0A4FCE5F0CE89F0A42EFFE435F0C4
:104EF000CD89F0A42DFEE435F08067EF4E7005BD3E
:104F000080D780C3EF8BF0A4ACF0EE8BF0A42CFC28
:104F1000E435F0F8EF8AF0A42CE5F038FCE433CB6C
:104F20008DF0A42CFCE5F03BF8EE8AF0A42CFCE517
:104F3000F038F8E433CF89F0A42CFCE5F038CF3416
:104F400000CE89F0A42FFFE5F03EFEE433C98DF0DA
:104F5000A42EFEE5F039CD8AF0A42FFFE5F03EFE49
:104F6000E43DFD33D0E0FB50070BBB000F025126A0
:104F7000EC2CFCEF33FFEE33FEED33FD0250FE026E
:104F80005126EC5D046005E85904700302511C12BF
:104F900050E7580460F6EC4860F2EC7004FDFEFF48
:104FA00022C860DB2481C85009C398600250060201
:104FB00051239850CAF582E9294B4A7005AB820209
:104FC000511275F0007C1A7880C3EF9BEE9AED9930
:104FD000400DC3EF9BFFEE9AFEED99FDE842F0DC39
:104FE00023ACF0D0E0FFD0E0FED0E0FDAB8220E7C4
:104FF000101BEB60BAEC2CFCEF33FFEE33FEED330D
:10500000FD0250FEE803F830E705C0F075F000EF50
:105010002FFFEE33FEED33FD40B830E7C280AA74B7
:10502000F8CC6480CCC86480C8F58204604FC3EBC0
:105030009FF5F0EA9E42F0E99D42F0E89C45F06061
:105040003C501DE5825FFFE582D313CB5BCBF42B95
:105050005582FB50280ABA002409B9002008801D97
:10506000E5825BFBE582D313CF5FCFF4C3132F55EB
:1050700082FF50090EBE00050DBD00010CC3EB9F61
:10508000F5F0EA9E42F0E99D42F0E89C45F06007A9
:10509000CC4820E701B3EC22ED33EC33600A047016
:1050A00003BD8004ECB2E7FC2275F020800E75F0A1
:1050B00010800575F0087D007E007F003392D530AA
:1050C000D50312546AEC334010EF33FFEE33FEED9C
:1050D00033FDEC33FCD5F0ED22E5F0247EA2D513B0
:1050E000CC92E7CDCEFF22E9D2E7C933E833F8927C
:1050F000D5EDD2E7CD33EC33FC5002B2D522EC3003
:10510000E7100FBF000C0EBE00080DBD00040BEB36
:105110006014A2D5EB13FCED92E7FD2274FFFCFDB9
:10512000FEFF22E480F8A2D574FF13FC7D80E480AA
:10513000EFF920E73624F950037907E4F42402FB61
:10514000E582158270021583DBF6E024FB501BE933
:105150006014E4F0E582158270021583E004F0B477
:105160000A08E4F0D9EE7401F00A22C2D522ED3328
:10517000EC3392D5FA602AB4FF33EDC2E77BFF60CF
:10518000067A517993E4227A51799C20D5047A5198
:105190007997224E614E002B494E46002D494E46CE
:1051A00000E47A08F0A3DAFC7B00740722C083C015
:1051B00082ECC0E0EDC0E0EEC0E0EFC0E0EA75F0E8
:1051C00010A4CAABF075F04DA42BFBE435F0FCEA5B
:1051D0002410FAEB34C5FBEC34D9FCEDC2E7FF75C3
:1051E000F056A4F42411C5F0F434C58FF0A42AE5D8
:1051F000F03BE43CF020E7141252A3D0E0FFD0E0F3
:10520000FED0E0FDD0E0FC124F828014F404125274
:10521000A3D0E0FFD0E0FED0E0FDD0E0FC124E795C
:10522000D082D083E0FAEDD2E7CD33EC332482FB99
:10523000E4C3CF33CFCE33CECD33CD33DBF37B07D7
:1052400075F00A846004F0A31B0AE5F0F0A38FF068
:10525000740AA4FFACF08EF0740AA42CFEACF050DB
:10526000010C8DF0740AA42CFDE435F0F0A3DBDE14
:105270007407223F8000004120000042C800004423
:105280007A0000461C400047C35000497424004B7C
:105290001896804CBEBC205A0E1BCA6753C21C74A1
:1052A0009DC5AEFB60065407601C23231252D1EB50
:1052B000543860091252BD1252CC124E79ECF8EDFE
:1052C000F9EEFAEFCB22EB1252CC80F154380324E2
:1052D0001C905273FE93FC0EEE93FD0EEE930ECED9
:1052E00093FF22BB010689828A83E0225002E722D3
:1052F000BBFE02E32289828A83E49322BB010CE590
:105300008229F582E5833AF583E0225006E9258279
:10531000F8E622BBFE06E92582F8E222E58229F5BD
:1053200082E5833AF583E49322BB010689828A836E
:10533000F0225002F722BBFE01F322EF8DF0A4A869
:10534000F0CF8CF0A428CE8DF0A42EFE22E88FF0B2
:10535000A4CC8BF0A42CFCE98EF0A42CFC8AF0EDFC
:10536000A42CFCEA8EF0A4CDA8F08BF0A42DCC38B0
:1053700025F0FDE98FF0A42CCD35F0FCEB8EF0A4E8
:10538000FEA9F0EB8FF0A4CFC5F02ECD39FEE43CA2
:10539000FCEAA42DCE35F0FDE43CFC2275F0087546
:1053A0008200EF2FFFEE33FECD33CDCC33CCC58260
:1053B00033C5829BED9AEC99E58298400CF582EE1C
:1053C0009BFEED9AFDEC99FC0FD5F0D6E4CEFBE404
:1053D000CDFAE4CCF9A88222B800C1B90059BA00CC
:1053E0002DEC8BF084CFCECDFCE5F0CBF97818EF27
:1053F0002FFFEE33FEED33FDEC33FCEB33FB10D728
:1054000003994004EB99FB0FD8E5E4F9FA227818E8
:10541000EF2FFFEE33FEED33FDEC33FCC933C91043
:10542000D7059BE99A4007EC9BFCE99AF90FD8E075
:10543000E4C9FAE4CCFB2275F010EF2FFFEE33FE47
:10544000ED33FDCC33CCC833C810D7079BEC9AE8BA
:1054500099400AED9BFDEC9AFCE899F80FD5F0DA3B
:10546000E4CDFBE4CCFAE4C8F922C3E49FFFE49E58
:10547000FEE49DFDE49CFC22EB9FF5F0EA9E42F0E9
:10548000E99D42F0E89C45F022E8600FECC313FC74
:10549000ED13FDEE13FEEF13FFD8F122E86010ECE0
:1054A000A2E713FCED13FDEE13FEEF13FFD8F0227D
:1054B000E8600FEFC333FFEE33FEED33FDEC33FC5A
:1054C000D8F122BB010789828A830257D85005E9A7
:1054D000F80257CCBBFE05E9F80257E489828A83BB
:1054E0000257F0BB010789828A830254FD5005E907
:1054F000F8025800BBFE05E9F802580C22ECF0A3B4
:10550000EDF0A3EEF0A3EFF022F5F0C582A4C58282
:10551000C5F0C583A42583F58322A42582F582E501
:10552000F03583F58322F8E0FBA3A3E0F925F0F042
:10553000E582158270021583E0FA38F022EBF0A3C1
:10554000EAF0A3E9F022D083D082F8E493701274D9
:105550000193700DA3A393F8740193F5828883E4FB
:10556000737402936860EFA3A3A380DFE52925820B
:10557000F582E5283583F583B52804858229221034
:10558000AF06858229F52822858229F528D2AF2207
:10559000EC8EF0A4CCC5F0CCCDF8EFA4CEC5F02DA8
:1055A000FDE43CFCE8A42EC8C5F03DFDE43CFCEF66
:1055B000A4FFE5F028FEE43DFDE43CFC22EF4E6054
:1055C00012EF60010EEDBB010B89828A83F0A3DF2D
:1055D000FCDEFA2289F05007F709DFFCA9F022BBB4
:1055E000FEFCF309DFFCA9F022E709F608DFFA80E8
:1055F00046E709F208DFFA803E88828C83E709F0EB
:10560000A3DFFA8032E309F608DFFA806EE309F2DD
:1056100008DFFA806688828C83E309F0A3DFFA80D2
:105620005A89828A83E0A3F608DFFA804E89828A4B
:1056300083E0A3F208DFFA804280D280FA80C6803D
:10564000D4805580F28029801080A680EA809A80DC
:10565000A880DA80E280CA802988848C8589828A41
:1056600083E493A30586F0A30586DFF5DEF3800BC4
:1056700089828A83E493A3F608DFF9ECFAA9F0EDB6
:10568000FB2288848C8589828A83E0A30586F0A327
:105690000586DFF6DEF480E389828A83E493A3F251
:1056A00008DFF980D688F0EF60010E4E60CD88F0FB
:1056B000ED2402B4040050C3F582EB2402B40400CC
:1056C00050B9232345822390563973E709F60870B1
:1056D000FA8046E709F20870FA803E88828C83E7F8
:1056E00009F0A370FA8074E309F60870FA806CE39D
:1056F00009F20870FA806488828C83E309F0A37051
:10570000FA805889828A83E0A3F60870FA804C896F
:10571000828A83E0A3F20870FA804080D280FA8007
:10572000C680D4805180F28027801080A680EA80D5
:105730009A80A880DA80E280CA802788848C858954
:10574000828A83E493A30586F0A3058670F5800B17
:1057500089828A83E493A3F60870F9ECFAA9F0ED44
:10576000FB2288848C8589828A83E0A30586F0A346
:10577000058670F680E589828A83E493A3F2087037
:10578000F980D888F0ED2402B4040050CEF582EB05
:105790002402B4040050C4232345822390571B7372
:1057A000C5F0F8A3E028F0C5F0F8E5821582700294
:1057B0001583E038F022A3F8E0C5F025F0F0E5828B
:1057C000158270021583E0C838F0E822E6FC08E68E
:1057D000FD08E6FE08E6FF22E0FCA3E0FDA3E0FEF4
:1057E000A3E0FF22E2FC08E2FD08E2FE08E2FF225D
:1057F000E493FC740193FD740293FE740393FF22FF
:10580000ECF608EDF608EEF608EFF622ECF208EDFD
:10581000F208EEF208EFF222900000EBF0A3EAF0BB
:10582000A3E9F09008DFE064FA7003025DAC900039
:1058300000E0FBA3E0FAA3E0F8AC02AD037BFF7A43
:1058400043792B1257839008B174FFF0A37443F08F
:10585000A3742CF0900000E0FBA3E0FAA3E0F9129F
:1058600086DA9008B174FFF0A37443F0A3742FF0AC
:10587000900000E0FBA3E0FAA3E0F91286DA9008BA
:10588000B174FFF0A37443F0A37442F0900000E001
:10589000FBA3E0FAA3E0F91286DA9008B174FFF0F6
:1058A000A37443F0A37451F0900000E0FBA3E0FA6E
:1058B000A3E0F91286DA9008B174FFF0A37443F004
:1058C000A37456F0900000E0FBA3E0FAA3E0F91205
:1058D00086DA9008B174FFF0A37443F0A37464F007
:1058E0009008DFE0FF9008B4E4F0A3EFF07B017ACA
:1058F000007905125E129008B17401F0A37400F0F3
:10590000A37405F0900000E0FBA3E0FAA3E0F91215
:1059100086DA9008B174FFF0A37443F0A3746DF0BD
:10592000900000E0FBA3E0FAA3E0F91286DA900809
:10593000B174FFF0A37443F0A374A3F0900C16E0CD
:10594000FF9008B4E4F0A3EFF07B017A0079051230
:105950005E129008B17401F0A37400F0A37405F016
:10596000900000E0FBA3E0FAA3E0F91286DA9008C9
:10597000B174FFF0A37443F0A3742CF0900000E026
:10598000FBA3E0FAA3E0F91286DA9008B174FFF005
:10599000A37443F0A374B7F0900000E0FBA3E0FA17
:1059A000A3E0F91286DAE4900003F0A3F0900C165D
:1059B000E0FFC3900004E09F7480F8900003E0646F
:1059C00080984003025C529008B174FFF0A37443C6
:1059D000F0A374CCF0900003E0FEA3E0FF9008B4C5
:1059E000EEF0A3EFF02437F58274093EF583E0FF73
:1059F0009008B6E4F0A3EFF07B017A007905125E1F
:105A0000129008B17401F0A37400F0A37405F09033
:105A10000000E0FBA3E0FAA3E0F91286DA9008B1F7
:105A200074FFF0A37443F0A374DFF07B017A007974
:105A300005125E12900003E0FEA3E02437F58274A5
:105A4000093EF583E075F005A424E2F582E434080C
:105A5000F583E060199008B174FFF0A37443F0A3DC
:105A600074F1F07B017A0079051286DA80179008CC
:105A7000B174FFF0A37443F0A374F7F07B017A00D4
:105A800079051286DA9008B174FFF0A37443F0A38D
:105A900074FCF07B017A0079051286DA900003E04D
:105AA000FEA3E02437F58274093EF583E075F00526
:105AB000A424E3F582E43408F583E060199008B18A
:105AC00074FFF0A37443F0A374F1F07B017A0079C2
:105AD000051286DA80179008B174FFF0A37443F0C2
:105AE000A374F7F07B017A0079051286DA9008B189
:105AF00074FFF0A37444F0A3740AF07B017A007978
:105B0000051286DA900003E0FEA3E02437F58274E4
:105B1000093EF583E075F005A424E4F582E4340839
:105B2000F583E060199008B174FFF0A37443F0A30B
:105B300074F1F07B017A0079051286DA80179008FB
:105B4000B174FFF0A37443F0A374F7F07B017A0003
:105B500079051286DA9008B174FFF0A37444F0A3BB
:105B6000741BF07B017A0079051286DA900003E05D
:105B7000FEA3E02437F58274093EF583E075F00555
:105B8000A424E5F582E43408F583E060199008B1B7
:105B900074FFF0A37443F0A374F1F07B017A0079F1
:105BA000051286DA80179008B174FFF0A37443F0F1
:105BB000A374F7F07B017A0079051286DA9008B1B8
:105BC00074FFF0A37444F0A37429F07B017A007988
:105BD000051286DA900003E0FEA3E02437F5827414
:105BE000093EF583E075F005A424E6F582E4340867
:105BF000F583E060199008B174FFF0A37443F0A33B
:105C000074F1F07B017A0079051286DA801790082A
:105C1000B174FFF0A37443F0A374F7F07B017A0032
:105C200079051286DA9008B17401F0A37400F0A32C
:105C30007405F0900000E0FBA3E0FAA3E0F91286FF
:105C4000DA900004E004F07006900003E004F00233
:105C500059AD9008B174FFF0A37443F0A3742CF015
:105C6000900000E0FBA3E0FAA3E0F91286DA9008C6
:105C7000B174FFF0A37444F0A37438F0900D15E0F4
:105C8000F8A3E0F9A3E0FAA3E0FB901068E0FCA31E
:105C9000E0FDA3E0FEA3E0C39BFFEE9AFEED99FDBD
:105CA000EC98FCE41250A9E4FBFA797A7844124F9C
:105CB000829008B41254FD7B017A007905125E12BD
:105CC0009008B17401F0A37400F0A37405F0900083
:105CD00000E0FBA3E0FAA3E0F91286DA9008B174C1
:105CE000FFF0A37443F0A3742CF0900000E0FBA33A
:105CF000E0FAA3E0F91286DA9008B174FFF0A37419
:105D000043F0A3742CF0900000E0FBA3E0FAA3E0C2
:105D1000F91286DA9008B174FFF0A37444F0A3740A
:105D200061F0900D15E0F8A3E0F9A3E0FAA3E0FB21
:105D3000901068E0FCA3E0FDA3E0FEA3E0C39BFF9E
:105D4000EE9AFEED99FDEC98FC9008B41254FD7BA0
:105D5000017A007905125E129008B17401F0A37403
:105D600000F0A37405F0900000E0FBA3E0FAA3E0CC
:105D7000F91286DA9008B174FFF0A37443F0A374AB
:105D80002CF0900000E0FBA3E0FAA3E0F91286DA21
:105D90009008B174FFF0A37443F0A3742CF090004A
:105DA00000E0FBA3E0FAA3E0F91286DA22E51A2468
:105DB000B1F582E43408F583E0051A229008AE308C
:105DC00008039008B1E475F0011255260252E32051
:105DD00001E97F2ED2018018EF540F2490D4344073
:105DE000D4FF30050BEF24BFB41A0050032461FF29
:105DF000E51B6002151B051EE51E7002051D30081F
:105E00000E9008AEE475F001125526EF02532902F8
:105E10008E197403D2088003E4C208F51A9008AE04
:105E200012553DE4F51BF51DF51EE51B60077F20AF
:105E3000125DF080F5751CFFC202C201C203C204EC
:105E4000C206C207C209125DBCFF700D3008057F93
:105E500000125E01AF1EAE1D22B4255FC2D5C20581
:105E6000125DBCFF24D0B40A00501A75F00A781BEA
:105E700030D50508B6FF0106C6A426F620D5047065
:105E800002D20480D924CFB41A00EF5004C2E5D264
:105E9000050260F3D20280C6D20180C0D20380BC6A
:105EA000D2D580BAD20680B47F20125DF0200307DD
:105EB0007401B51B0040F1125DADFF125DF0025E92
:105EC0002AD209D2078095125DADFB125DADFA12A0
:105ED0005DADF94A4B700679F17A617BFF20032EA4
:105EE000E51B602A7E008E827583001252FC6006DC
:105EF0000EEE651C70F0C2D5EBC0E0EAC0E0E9C070
:105F0000E0EE126154D0E0F9D0E0FAD0E0FB12529A
:105F1000E3FF60AAEBC0E0EAC0E0E9C0E0125DF098
:105F2000D0E02401F9D0E03400FAD0E0FBE51C0415
:105F300060DCD51CD98087D20380A212613660F75D
:105F4000E51C700104125131A91C600DE51C6009AB
:105F500014F51C1261DEEF60F3EA30E702F404C3CB
:105F6000995079EAF4251C0430E701E404F51C801B
:105F70000D12613660C1EA051C251C125131EA90F0
:105F800008DDF030E701E4251C04D51C04200601DF
:105F900014126154E4C0E01261DE9008DDE0601389
:105FA00020E70714F0125DD8802204F0D0E014C07E
:105FB000E07F00125DD8E51C6007125DCF151C80E4
:105FC0000B300603125DCFD0E0025E2AD0E00480E1
:105FD000C4126136609EE51C041251319008DDEA5E
:105FE000F0E51C200602600104240412615474FFD1
:105FF00004C0E01261DE125DD8E51C2006026003D9
:10600000125DCFD0E0B51CE87F45125DE29008DD5F
:10601000E07F2B30E7047F2DF404C0E0125DF0D068
:10602000E075F00A84C0F0125DD9D0E0125DD902AB
:106030005E2A791080027908C207C2098008D2D589
:10604000790A8004790AC2D5E51C047002F51CE4C3
:10605000FAFDFEFF125DADFC7B08200213125DAD60
:10606000FD7B1030010A125DADFE125DADFF7B209D
:10607000EC3382D592D55013C3E43001069FFFE480
:106080009EFEE42002039DFDE49CFCE4CBF8C202EA
:10609000EC700CCFCECDCCE824F8F870F38017C3A9
:1060A000EF33FFEE33FEED33FDEC33FCEB33FB99C6
:1060B0004002FB0FD8E9EB300205F8D0E0C448B24B
:1060C00002C0E00AEC4D4E4F78207B0070C2EAB56A
:1060D0001C0040BCC0E0126156D0F0D0E0200204A9
:1060E000C4C0E0C4B202C0F0125DD9D0F0D5F0EB6C
:1060F000025E2A1255465EC7536032585E984C5E67
:10610000944260364F603E44603E495EAD43604419
:10611000555F71465FD1455F3B476211505E9C2DD4
:106120005EA02E5EC32B5EA4235EC12061FA2A5EB0
:106130005C4800005EBBE51CB4FF03751C06125DE5
:10614000ADFC125DADFD125DADFE125DADFF9008C0
:10615000D602516E790AA2D5200414300609B9106E
:10616000020404B9080104A2D5200702500104204A
:1061700003689203B51B005034C0E07F203004193F
:106180007F30A20372077206500F1261ADC203C2C4
:1061900007C206C2097F30800F300603E9C0E01253
:1061A0005DF0300603D0E0F9D0E0B51BCC30061727
:1061B0007F30B9100C125DF07F583005077F788072
:1061C00003B90803125DF03003057F2D025DF07FF7
:1061D000202009F87F2B2007F322920380CF7F0035
:1061E000B40700500B24D6F582E43408F583E0FFB1
:1061F00022286E756C6C2900D202125DAD3002F857
:10620000C202781B30D50108F6025E5C2D5043496E
:1062100058125DAD2403B405004001E490620C9374
:10622000125DE1743A125DE1D204751B0402603222
:10623000900000EBF0A3EAF0A3E9F0900000E0FB8F
:10624000A3E0FAA3E0F8AC02AD037BFF7A43792B1D
:106250001257839008B174FFF0A37443F0A3742C19
:10626000F0900000E0FBA3E0FAA3E0F91286DA90D8
:1062700008B174FFF0A37444F0A3746CF0900000B4
:10628000E0FBA3E0FAA3E0F91286DAE4900003F061
:10629000A3F0900C16E0FFC3900004E09F7480F818
:1062A000900003E064809840030266AA9008B174ED
:1062B000FFF0A37443F0A374CCF0900003E0FEA3BE
:1062C000E0FF9008B4EEF0A3EFF02437F5827409F4
:1062D0003EF583E0FF9008B6E4F0A3EFF07B017A8F
:1062E000007905125E129008B17401F0A37400F0F9
:1062F000A37405F0900000E0FBA3E0FAA3E0F9121C
:1063000086DA900003E0FEA3E0FF2437F5827409EB
:106310003EF583E075F005A424E2F582E43408F547
:1063200083E070030263BC9008B174FFF0A374446F
:10633000F0A3747BF09009A275F025EF12551AEEC8
:1063400075F025A42583F583E0FDA3E09008B4CD86
:10635000F0A3EDF09009A475F025EF12551AEE7533
:10636000F025A42583F583E0FFA3E09008B6CFF0E5
:10637000A3EFF0900003E0A3E09009A675F02512CA
:10638000551AEE75F025A42583F583E0FFA3E09070
:1063900008B8CFF0A3EFF07B017A007905125E1206
:1063A0009008B17401F0A37400F0A37405F090009C
:1063B00000E0FBA3E0FAA3E0F91286DA900003E024
:1063C000FEA3E0FF2437F58274093EF583E075F003
:1063D00005A424E3F582E43408F583E07003026445
:1063E000769008B174FFF0A37444F0A3748CF0901D
:1063F00009A875F025EF12551AEE75F025A425832E
:10640000F583E0FDA3E09008B4CDF0A3EDF0900992
:10641000AA75F025EF12551AEE75F025A42583F51F
:1064200083E0FFA3E09008B6CFF0A3EFF090000365
:10643000E0A3E09009AC75F02512551AEE75F02531
:10644000A42583F583E0FFA3E09008B8CFF0A3EF85
:10645000F07B017A007905125E129008B17401F0A8
:10646000A37400F0A37405F0900000E0FBA3E0FA31
:10647000A3E0F91286DA900003E0FEA3E0FF2437E0
:10648000F58274093EF583E075F005A424E4F582F5
:10649000E43408F583E070030265309008B174FFBE
:1064A000F0A37444F0A3749EF09009AE75F025EF4C
:1064B00012551AEE75F025A42583F583E0FDA3E0BF
:1064C0009008B4CDF0A3EDF09009B075F025EF126F
:1064D000551AEE75F025A42583F583E0FFA3E0901F
:1064E00008B6CFF0A3EFF0900003E0A3E09009B26C
:1064F00075F02512551AEE75F025A42583F583E075
:10650000FFA3E09008B8CFF0A3EFF07B017A007909
:1065100005125E129008B17401F0A37400F0A37428
:1065200005F0900000E0FBA3E0FAA3E0F91286DAA0
:10653000900003E0FEA3E02437F58274093EF58362
:10654000E075F005A424E5F582E43408F583E070F5
:10655000030266259008B174FFF0A37444F0A3749D
:10656000AFF0900003E0FAA3E0FB9009B475F025CA
:1065700012551AEA75F025A42583F583E0FCA3E003
:10658000FDA3E0FEA3E0FF9008B41254FD9009B80B
:1065900075F025EB12551AEA75F025A42583F583CD
:1065A000E0FCA3E0FDA3E0FEA3E0FF9008B81254D6
:1065B000FD900003E0FAA3E0FB9009BC75F0251202
:1065C000551AEA75F025A42583F583E0FCA3E0FDC8
:1065D000A3E0FEA3E0FF9008BC1254FD9009C07533
:1065E000F025EB12551AEA75F025A42583F583E012
:1065F000FCA3E0FDA3E0FEA3E0FF9008C01254FD61
:106600007B017A007905125E129008B17401F0A343
:106610007400F0A37405F0900000E0FBA3E0FAA37F
:10662000E0F91286DA900003E0FEA3E0FF2437F5DC
:106630008274093EF583E075F005A424E6F582E452
:106640003408F583E060529008B174FFF0A37444FD
:10665000F0A374CCF09009C475F025EF12551AEE32
:1066600075F025A42583F583E0FFA3E09008B4CF5F
:10667000F0A3EFF07B017A007905125E129008B169
:106680007401F0A37400F0A37405F0900000E0FB27
:10669000A3E0FAA3E0F91286DA900004E004F070B7
:1066A00006900003E004F00262922290000174015F
:1066B000F0E4A3F0A304F0A374A1F0E4900000F0D0
:1066C000900C16E0FF900000E0FEC39F4003026ABA
:1066D00072900162743AF074372EF582E43409F551
:1066E00083E075F005A424E2F582E43408F583E044
:1066F000607B900000E0FF75F025A424A2F582E500
:10670000F03409F583E0FCA3E0FD900001E0FE24F5
:1067100062F582E43401F583ECF0A3EDF075F02529
:10672000EFA424A4F582E5F03409F583E0FCA3E0AE
:10673000FD74642EF582E43401F583ECF0A3EDF0F2
:10674000900000E075F025A424A6F582E5F0340958
:10675000F583E0FCA3E0FD74662EF582E43401F5D8
:1067600083ECF0A3EDF0900001E02406F09000002F
:10677000E0FF2437F582E43409F583E075F005A4E1
:1067800024E3F582E43408F583E06078900000E0CB
:10679000FE75F025A424A8F582E5F03409F583E020
:1067A000FCA3E0FD900001E0FB2462F582E43401EB
:1067B000F583ECF0A3EDF075F025EEA424AAF582A4
:1067C000E5F03409F583E0FCA3E0FD74642BF58269
:1067D000E43401F583ECF0A3EDF075F025EFA4248B
:1067E000ACF582E5F03409F583E0FEA3E0FF7466C2
:1067F0002BF582E43401F583EEF0A3EFF090000175
:10680000E02406F0900000E0FF2437F582E434092C
:10681000F583E075F005A424E4F582E43408F583FB
:10682000E06078900000E0FE75F025A424AEF582CB
:10683000E5F03409F583E0FCA3E0FD900001E0FB06
:106840002462F582E43401F583ECF0A3EDF075F0F9
:1068500025EEA424B0F582E5F03409F583E0FCA32D
:10686000E0FD74642BF582E43401F583ECF0A3EDD4
:10687000F075F025EFA424B2F582E5F03409F58334
:10688000E0FEA3E0FF74662BF582E43401F583EEAD
:10689000F0A3EFF0900001E02406F0900000E02467
:1068A00037F582E43409F583E075F005A424E5F5B5
:1068B00082E43408F583E0700302696B900000E025
:1068C000FB75F025A424B4F582E5F03409F583E0E6
:1068D000FCA3E0FDA3E0FEA3E0FF900001E0FA24AA
:1068E00062F582E43401F5831254FD75F025EBA4C2
:1068F00024B8F582E5F03409F583E0FCA3E0FDA3BC
:10690000E0FEA3E0FF74662AF582E43401F5831209
:1069100054FD900000E0FB75F025A424BCF582E551
:10692000F03409F583E0FCA3E0FDA3E0FEA3E0FF63
:10693000746A2AF582E43401F5831254FD75F0255A
:10694000EBA424C0F582E5F03409F583E0FCA3E074
:10695000FDA3E0FEA3E0FF746E2AF582E43401F5A6
:10696000831254FD900001E02410F0900000E0FF3D
:106970002437F582E43409F583E075F005A424E6B4
:10698000F582E43408F583E0602D75F025EFA4244A
:10699000C4F582E5F03409F583E0FEA3E0FF900042
:1069A00001E02462F582E43401F583EEF0A3EFF018
:1069B000900001E02402F0900000E02437F582E42A
:1069C0003409F583E025E02446F582E43410F583AC
:1069D000E0FEA3E02461F58274013EF583743AF091
:1069E0009000017401F0E4A3F0900000E02437F57A
:1069F00082E43409F583E0F925E02446F582E434A5
:106A000010F583E0FEA3E0FF900002E0FDD3EF9DD0
:106A10007480F8EE648098402BE0FF2462F582E4F5
:106A20003401F583E0FEEF900003E02DFDE433FC3C
:106A300074042DF58274003CF583EEF0900002E0C2
:106A400004F080A5E925E02446F582E43410F583BE
:106A5000E0A3E0FF900003E02FF07E007F167D00B2
:106A60007B017A0179621255BD900000E004F002CA
:106A700066C07B017A0079049010D2E0A3E014FD97
:106A8000128C6F9010D2E0FCA3E0FD2403F5827419
:106A9000003CF583EFF07B017A00790412844D22EB
:106AA000E4900000F0A3F0A3F0A3F0A3F0A3F0A300
:106AB000F0A3F0901627F0900C16E0FF901627E058
:106AC000FEC39F4003026DDA74372EF582E4340969
:106AD000F583E0FF7E00128AAF901627E02437F599
:106AE00082E43409F583E0FF7E00128307E490001E
:106AF00004F0A3F0900004E0FEA3E0FFC39403EED3
:106B000094004003026B9BEF25E0FFEE33FE9016EE
:106B100027E0F92437F582E43409F583E0FD75F0C8
:106B200006A4246CF582E43410F583E5822FF58207
:106B3000E5833EF583E0FB900000E4F0A3EBF0ED8D
:106B400075F006A4246DF582E43410F583E5822FF8
:106B5000F582E5833EF583E0FD900001E0FCED90D9
:106B60000005E025E0FF900004E033FE75F025E924
:106B7000A424D2F582E5F0340DF583E5822FF58269
:106B8000E5833EF583ECF0A3EDF0900005E004F022
:106B90007006900004E004F0026AF4E4900004F04F
:106BA000A3F0900004E0FEA3E0FFC39403EE940082
:106BB0004003026C49EF25E0FFEE33FE901627E01C
:106BC000F92437F582E43409F583E0FD75F006A475
:106BD00024AFF582E4340CF583E5822FF582E5835A
:106BE0003EF583E0FB900000E4F0A3EBF0ED75F0E0
:106BF00006A424B0F582E4340CF583E5822FF582F7
:106C0000E5833EF583E0FD900001E0FCED9000059A
:106C1000E025E0FF900004E033FE75F025E9A424B0
:106C2000D8F582E5F0340DF583E5822FF582E58312
:106C30003EF583ECF0A3EDF0900005E004F0700663
:106C4000900004E004F0026BA2E4900004F0A3F0D2
:106C5000900004E0FEA3E0FFC39403EE9400400321
:106C6000026CF7EF25E0FFEE33FE901627E0F924E3
:106C700037F582E43409F583E0FD75F006A42417A6
:106C8000F582E4340CF583E5822FF582E5833EF549
:106C900083E0FB900000E4F0A3EBF0ED75F006A4B8
:106CA0002418F582E4340CF583E5822FF582E58320
:106CB0003EF583E0FD900001E0FCED900005E0254D
:106CC000E0FF900004E033FE75F025E9A424DEF532
:106CD00082E5F0340DF583E5822FF582E5833EF5FC
:106CE00083ECF0A3EDF0900005E004F07006900056
:106CF00004E004F0026C50E4900004F0A3F090165D
:106D000027E0707F900004E0FEA3E0FFC39404EE50
:106D10009400506FEF7802C333CE33CED8F9249F5E
:106D2000F582740C3EF583E0FCA3E0FDA3E0FEA336
:106D3000E0FFC004C005C006C007900004E0FEA349
:106D4000E07802C333CE33CED8F9FF901627E07532
:106D5000F025A424E4F582E5F0340DF583E5822FD7
:106D6000F582E5833EF583D007D006D005D0041226
:106D700054FD900005E004F07006900004E004F07B
:106D8000026CFE901627E0FD2437F582E43409F505
:106D900083E0FF25E0247DF582E4340CF583E0FBFD
:106DA000900000E4F0A3EBF0EF25E0247EF582E410
:106DB000340CF583E0FB900001E0FEEBFF75F0255D
:106DC000EDA424F4F582E5F0340DF583EEF0A3EFA5
:106DD000F0901627E004F0026AB722E4900001F078
:106DE000FE7F25FD7B017A0979A11255BD7E007FCA
:106DF000117D007B017A0979371255BDE4900000BE
:106E0000F0900000E0FFC39411501B7E00128AAF87
:106E1000E47F0AFEFDFC1284DA7F75128FD89000A1
:106E200000E004F080DBE4FFFE128AAFE47F0AFE9C
:106E3000FDFC1284DA7F75128FD8900002E4F0A373
:106E4000EFF0E4900002F0A3F0900C16F090000038
:106E5000F0900000E0FFC39411505F7E00128AAFF3
:106E6000E47F0AFEFDFC1284DA7F75128FD87E0063
:106E7000900002EEF0A3EFF064717023900C16E026
:106E800004F0E4900002F0A3F0900000E025E0247C
:106E900004F582E43400F583E4F0A304F080139059
:106EA0000000E025E02404F582E43400F583E4F0FA
:106EB000A3F0900000E004F08097E4900000F090D0
:106EC0000000E0FFC394115034EF25E02404F58264
:106ED000E43400F583E0FEA3E064014E70179000F7
:106EE00000E0A3E02437F582E43409F583EFF09065
:106EF0000001E004F0900000E004F080C2E4FF1222
:106F0000912BE47F0AFEFDFC1284DA7F0112912BA3
:106F1000E47F0AFEFDFC1284DAE4900000F09000A9
:106F200000E0FFC39411502E7E00128AAFE47F0A66
:106F3000FEFDFC1284DA127C48E47F0AFEFDFC129E
:106F400084DA127D39E47F0AFEFDFC1284DA9000B7
:106F500000E004F080C8E47F32FEFDFC1284DAE435
:106F6000900000F0900000E0FFC3941150177E00E5
:106F7000128AAF900000E0FF7E0012856290000050
:106F8000E004F080DFE47F32FEFDFC1284DA7E0054
:106F90007F227D007B017A1079461255BD9010D278
:106FA000E4F0A304F0E4900000F0900C16E0FF90F1
:106FB0000000E0FEC39F4003027085E0FF2437F528
:106FC00082E43409F583E0FD75F005A424E3F5823D
:106FD000E43408F583E075F006A4FCED75F005A433
:106FE00024E2F582E43408F583E075F006A42CFD74
:106FF00074372FF582E43409F583E0FF75F005A4BA
:1070000024E4F582E43408F583E075F006A42DFD50
:10701000EF75F005A424E5F582E43408F583E0C4B7
:1070200054F02DFF74372EF582E43409F583E0FD2A
:1070300075F005A424E6F582E43408F583E025E044
:107040002F2402FBED25E02446F582E43410F5837D
:10705000E4F0A3EBF074372EF582E43409F583E015
:1070600025E02446F582E43410F583E0FEA3E0FF3A
:107070009010D3E02FF09010D2E03EF0900000E0AE
:1070800004F0026FAA9010D3E004F070069010D2C2
:10709000E004F02290005FEBF0A3EAF0A3E9F02413
:1070A00004F9E43AFA1254C3A804A905AA06AB07E6
:1070B000124E79C004C005C006C00790005FE0FB17
:1070C000A3E0FAA3E0F91254C3A804A905AA06ABE9
:1070D00007124E79D003D002D001D000124D88C0E3
:1070E00004C005C006C00790005FE0FBA3E0FAA360
:1070F000E02408F9E43AFA1254C3A804A905AA0640
:10710000AB07124E79D003D002D001D000124D88C7
:10711000C004C005C006C00790005FE0FBA3E0FA12
:10712000A3E0240CF9E43AFA1254C3A804A905AA6E
:1071300006AB07124E79D003D002D001D000124D19
:1071400088127E2A9000621254FD90005FE0FBA33B
:10715000E0FAA3E0F9C003C002C0011254C39000DA
:1071600062E0F8A3E0F9A3E0FAA3E0FB124E79D0C5
:1071700001D002D0031254E390005FE0FBA3E0FAD9
:10718000A3E02404F9E43AFA1254C3900062E0F850
:10719000A3E0F9A3E0FAA3E0FB124E7990005FE0D0
:1071A000FBA3E0FAA3E02404F9E43AFA1254E390D2
:1071B000005FE0FBA3E0FAA3E02408F9E43AFA1246
:1071C00054C3900062E0F8A3E0F9A3E0FAA3E0FB67
:1071D000124E7990005FE0FBA3E0FAA3E02408F9E7
:1071E000E43AFA1254E390005FE0FBA3E0FAA3E074
:1071F000240CF9E43AFA1254C3900062E0F8A3E0D8
:10720000F9A3E0FAA3E0FB124E7990005FE0FBA344
:10721000E0FAA3E0240CF9E43AFA1254E3229000D5
:1072200000EEF0A3EFF0A3EDF0129247900004EF10
:10723000F0129215900005EEF0A3EFF0900000E040
:10724000FCA3E0FD6F7002EC6E700302734D90437F
:10725000A2E05401900003F0A3E0703BA3E0FEA382
:10726000E0FF4E6004ED4C702EEF4E70117B027A01
:10727000407980129179904082E054BFF022904092
:1072800082E04440F07B027A407980900000E0FC8C
:10729000A3E0FD12917922900003E0605390400139
:1072A000E4F090401004F0904014E4F0904008E0C6
:1072B000547FF0904082E05408600A900000E07033
:1072C00002A3E0702B7B027A407902900005E0FC7B
:1072D000A3E0FD1291799040017407F0904001E025
:1072E000540170F89043A2E054FEF0904001E4F0A5
:1072F0009043A2E05401602F7B027A407902900013
:1073000000E0FCA3E0FD129179900002E060047FB0
:107310000280027F00EF4401904001F0904001E0C4
:107320005401602980F6227B027A40798090000027
:10733000E0FCA3E0FD1291799043A2C083C082E0FB
:10734000FF900003E0FEEF4ED082D083F022E4F500
:1073500009128A13EF7003027474E509C39406409E
:107360000302747412886A8F08E52214604914605D
:1073700060147003027404147003027452240470C5
:10738000D0852625852726850827E526B43A11E5E8
:1073900027B43A0CE4F525F526F52775220180B1CE
:1073A000E525B43FACE526B40DA7E527640A70A136
:1073B000FFFE128D03809A9008DFE065086004E507
:1073C000087004C2008002D200E4F5247522028015
:1073D00080850824E524D394015008E4F524F5229F
:1073E000027351E524D394804008E4F524F5220289
:1073F0007351E4F5232000067522030273517522B0
:107400000402735174222523F582E43415F583E5D3
:1074100008F00523E523C39524500302735120008F
:1074200025AF247E00784C7C0D7D017B017A157997
:10743000221256A5900DCCE4F0A3E524F0900DD0D7
:107440007401F0127F19E4F523F524F522050902F1
:1074500073511524E5246003027351F523F5247F4D
:1074600001129280E4FF129280E4F5220509027372
:1074700051027351227B007A4679E8128BF4EF4473
:1074800001FD7B007A4679E81291F31280DA7B01E4
:107490007A507903128BF4EF4402FD7B017A507924
:1074A000031291F37B017A507913128BF4EF4402AB
:1074B000FD7B017A5079131291F39043A0E0444090
:1074C000F09043C2E04410F07B087A1F79BC900032
:1074D00005E4F0A37451F0A37402F07F087E00125B
:1074E0008C3B7B087A1F79C4900005E4F0A37451AB
:1074F000F0A374C2F07F087E00128C3B7B087A1FD9
:1075000079CC900005E4F0A37451F0A374F2F07FFD
:10751000087E00128C3B7B087A1F79D4900005E42A
:10752000F0A37451F0A37410F07F0A7E00128C3B1C
:107530007B087A1F79E0900005E4F0A37451F0A372
:107540007422F07F087E00128C3B9044F47401F0AA
:10755000904322E04408F09046ECE0C394055006C6
:10756000904689743AF090480074F1F01276BD129A
:107570008F237B007A4379A0C003C002900005EB03
:10758000F0A3EAF0A374B0F0D002D0037F0E7E0027
:10759000128C3B9043B0E054FDF02290005FEBF082
:1075A000A3EAF0A3E9F02404F9E43AFA1254C3A8D8
:1075B00004A905AA06AB07124E79C004C005C0068F
:1075C000C00790005FE0FBA3E0FAA3E0F91254C308
:1075D000A804A905AA06AB07124E79D003D002D0A1
:1075E00001D000124D88C004C005C006C00790003D
:1075F0005FE0FBA3E0FAA3E02408F9E43AFA1254AE
:10760000C3A804A905AA06AB07124E79D003D0027D
:10761000D001D000124D88127E2A9000621254FDD3
:1076200090005FE0FBA3E0FAA3E0F9C003C002C052
:10763000011254C3900062E0F8A3E0F9A3E0FAA3BA
:10764000E0FB124E79D001D002D0031254E3900037
:107650005FE0FBA3E0FAA3E02404F9E43AFA125451
:10766000C3900062E0F8A3E0F9A3E0FAA3E0FB1204
:107670004E7990005FE0FBA3E0FAA3E02404F9E474
:107680003AFA1254E390005FE0FBA3E0FAA3E0248F
:1076900008F9E43AFA1254C3900062E0F8A3E0F962
:1076A000A3E0FAA3E0FB124E7990005FE0FBA3E0B9
:1076B000FAA3E02408F9E43AFA1254E3227B007AB0
:1076C0004079807D027C001291779040827418F09E
:1076D0007B007A4079847D177C00129177904086F8
:1076E0007418F07B007A4079887D2F7C00129177A6
:1076F00090408A7418F09043007406F09042007431
:1077000052F07B0C7A01790F128BF49046A1EFF0C6
:107710007B007A4279227D107C071291777B007A78
:107720004279207D517C12129177E4900004F07F21
:1077300019FEFDFC9000001254FD900000E0A3E053
:10774000A3E0FEA3E0D39400EE9400404AA3E0FF40
:1077500064036043904225E05401FEEF25E04E545F
:1077600003900004F0E47FE07E01FDFC128C0090A9
:107770000000E0FCA3E0FDA3E0FEA3E0FF74FFEF48
:1077800024FFFFEE34FFFEED34FFFDEC34FFFC90F0
:1077900000001254FD80A3900000E0A3E0A3E0FEEF
:1077A000A3E04E70057F031292C97B007A407904F2
:1077B0007D007C011291779040047407F0904006A0
:1077C000E4F09040087448F0904004E4F0904009E0
:1077D000F09040017402F09043A2E04407F022E4EC
:1077E00090005FF0A3F0A3EEF0A3EFF07F3C128FC8
:1077F000D890005FEFF0128F407F3B128FD890003F
:1078000060EFF0128F40900060E0FFA3E0FCA3E087
:10781000FD90106C75F00612551AEC75F006A42553
:1078200083F583EFF090005FE0FF90106D75F00638
:10783000ED12551AEC75F006A42583F583EFF0E4FC
:1078400090005FF0A3F07F3E128FD890005FEFF0C2
:10785000128F407F3D128FD8900060EFF0128F4062
:10786000900060E0FFA3E0FCA3E0FD90106E75F0D7
:107870000612551AEC75F006A42583F583EFF090F7
:10788000005FE0FF90106F75F006ED12551AEC7571
:10789000F006A42583F583EFF0E490005FF0A3F0F9
:1078A0007F40128FD890005FEFF0128F407F3F1221
:1078B0008FD8900060EFF0128F40900060E0FFA33F
:1078C000E0FCA3E0FD90107075F00612551AEC75FF
:1078D000F006A42583F583EFF090005FE0FF9010A1
:1078E0007175F006ED12551AEC75F006A42583F5B6
:1078F00083EFF0E490005FF0A3F022E490005FF0EB
:10790000A3F0A3EEF0A3EFF07F44128FD890005FB6
:10791000EFF0128F407F43128FD8900060EFF0128B
:107920008F40900060E0FFA3E0FCA3E0FD900CAF6F
:1079300075F00612551AEC75F006A42583F583EF51
:10794000F090005FE0FF900CB075F006ED12551A54
:10795000EC75F006A42583F583EFF0E490005FF06A
:10796000A3F07F46128FD890005FEFF0128F407F18
:1079700045128FD8900060EFF0128F40900060E0C9
:10798000FFA3E0FCA3E0FD900CB175F00612551AC0
:10799000EC75F006A42583F583EFF090005FE0FF1F
:1079A000900CB275F006ED12551AEC75F006A42590
:1079B00083F583EFF0E490005FF0A3F07F48128F2F
:1079C000D890005FEFF0128F407F47128FD8900061
:1079D00060EFF0128F40900060E0FFA3E0FCA3E0B6
:1079E000FD900CB375F00612551AEC75F006A4253F
:1079F00083F583EFF090005FE0FF900CB475F00624
:107A0000ED12551AEC75F006A42583F583EFF0E42A
:107A100090005FF0A3F0227593007800758346759F
:107A200082E8E04401F00090480074C0F0758129BC
:107A30009076BCE4F0A3F0A3F0A3F0907010F09067
:107A40007019F0907020F09076007410F090760429
:107A5000E4F0A3F0A3F0A3F090780078000874009D
:107A6000F0A37408F0E8B8040274FFA3F0A3742232
:107A7000F0A374BCF0A37476F0A3E4F0A3E814754B
:107A8000F008A4F0A3B804D59070107401F09070C1
:107A900014F07E707F18122604907010F0EA901691
:107AA00016F002261175281F7529FD127475027AC9
:107AB000EC0283B0E493A3F8E493A34003F68001BF
:107AC000F208DFF48029E493A3F85407240CC8C318
:107AD00033C4540F4420C8834004F456800146F652
:107AE000DFE4800B0102040810204080908745E409
:107AF0007E019360BCA3FF543F30E509541FFEE4B0
:107B000093A360010ECF54C025E060A840B8E49371
:107B1000A3FAE493A3F8E493A3C8C582C8CAC583B3
:107B2000CAF0A3C8C582C8CAC583CADFE9DEE78038
:107B3000BE90000CEEF0A3EFF07F49128FD89000BA
:107B40000AEFF0128F407F4A128FD890000BEFF0AF
:107B5000128F4090000BE0FFA3E0FCA3E0FD900C2F
:107B60001775F00612551AEC75F006A42583F583F7
:107B7000EFF090000AE0FF900C1875F006ED12553A
:107B80001AEC75F006A42583F583EFF0E490000A63
:107B9000F0A3F07F4B128FD890000AEFF0128F40C5
:107BA0007F4C128FD890000BEFF0128F4090000B9B
:107BB000E0FFA3E0FCA3E0FD900C1975F006125560
:107BC0001AEC75F006A42583F583EFF090000AE027
:107BD000FF900C1A75F006ED12551AEC75F006A41C
:107BE0002583F583EFF0E490000AF0A3F07F4D12B7
:107BF0008FD890000AEFF0128F407F4E128FD890EE
:107C0000000BEFF0128F4090000BE0FFA3E0FCA30D
:107C1000E0FD900C1B75F00612551AEC75F006A4E9
:107C20002583F583EFF090000AE0FF900C1C75F0BF
:107C300006ED12551AEC75F006A42583F583EFF0D6
:107C4000E490000AF0A3F0227D107F6B128D33E4E4
:107C50007F0AFEFDFC1284DA7D207F6A128D33E4F8
:107C60007F0AFEFDFC1284DA7D067F1A128D33E452
:107C70007F0AFEFDFC1284DA7D187F1B128D33E42F
:107C80007F0AFEFDFC1284DAE4FD7F1C128D33E4D2
:107C90007F0AFEFDFC1284DA7D057F1D128D33E420
:107CA0007F0AFEFDFC1284DA7D0D7F24128D33E401
:107CB0007F0AFEFDFC1284DA7D0C7F25128D33E4F1
:107CC0007F0AFEFDFC1284DA7D0A7F26128D33E4E2
:107CD0007F0AFEFDFC1284DA7D167F63128D33E489
:107CE0007F0AFEFDFC1284DA7D817F27128D33E44A
:107CF0007F0AFEFDFC1284DA7D8C7F25128D33E431
:107D00007F0AFEFDFC1284DA7D037F26128D33E4A8
:107D10007F0AFEFDFC1284DA7D8D7F27128D33E40D
:107D20007F0AFEFDFC1284DAE4FD7F6B128D33E4E2
:107D30007F14FEFDFC1284DA227D107F6B128D33DE
:107D4000E47F0AFEFDFC1284DA7D207F6A128D3307
:107D5000E47F0AFEFDFC1284DA7D067F1A128D3361
:107D6000E47F0AFEFDFC1284DA7D187F1B128D333E
:107D7000E47F0AFEFDFC1284DAE4FD7F1C128D33E1
:107D8000E47F0AFEFDFC1284DA7D057F1D128D332F
:107D9000E47F0AFEFDFC1284DA7D0D7F24128D3310
:107DA000E47F0AFEFDFC1284DA7D0C7F25128D3300
:107DB000E47F0AFEFDFC1284DA7D0A7F26128D33F1
:107DC000E47F0AFEFDFC1284DA7D1F7F63128D338F
:107DD000E47F0AFEFDFC1284DA7D817F27128D3359
:107DE000E47F0AFEFDFC1284DA7D8C7F25128D3340
:107DF000E47F0AFEFDFC1284DA7D107F26128D33AB
:107E0000E47F0AFEFDFC1284DA7D837F27128D3326
:107E1000E47F0AFEFDFC1284DAE4FD7F6B128D33F1
:107E2000E47F14FEFDFC1284DA229000661254FDF9
:107E3000E4FFFEFD7C3F900066E0F8A3E0F9A3E0DC
:107E4000FAA3E0FB124E7990006A1254FD9000668E
:107E5000E0FCA3E0FDA3E0FEA3E0FF90006E12545F
:107E6000FD90006EE0FCA3E0FDA3E0FEA3E0FFA315
:107E70001254FD900072E0FCA3E0FDA3E0FEA3E03D
:107E8000FF780112549CC374DF9FFF74599EFE74E7
:107E9000379DFD745F9CFC9000721254FD9000723F
:107EA000E0FCA3E0FDA3E0FEA3E0FF90006E12540F
:107EB000FD90006EE0FCA3E0FDA3E0FEA3E0FF90D8
:107EC000006AE0F8A3E0F9A3E0FAA3E0FB124E7920
:107ED00090006EE0F8A3E0F9A3E0FAA3E0FB124EF5
:107EE00079A804A905AA06AB07E4FFFE7DC07C3F84
:107EF000124D8490006EE0F8A3E0F9A3E0FAA3E04D
:107F0000FB124E7990006E1254FD90006EE0FCA3BF
:107F1000E0FDA3E0FEA3E0FF22900D4CE0F50A7B1C
:107F2000017A0D794C900DCCE0A3E014FD128C6F1A
:107F3000900DCCE0FCA3E0244BF582740D3CF5835E
:107F4000E0B50703D38001C34006E4900DD0F022D2
:107F5000E50A1255467F93007F97037F9B047FB10C
:107F6000057F7B067FD5097FC30A7F870C7F778BD0
:107F70007FF7A100007FFA128E6522900D4DE0FE82
:107F8000A3E0FF128D0322900D4DE0FEA3E0FF124F
:107F9000261A2212906E2212901A227F327E00122E
:107FA0008259EF60067F0112900522E4FF129005CE
:107FB00022128AF8EF60067F0112900522E4FF1278
:107FC0009005221285E6EF60067F0112900522E4FB
:107FD000FF129005227F01129005E47FE87E03FDE9
:107FE000FC1284DAE4FF129286E47FE87E03FDFC53
:107FF0001284DA12921F221266AB22900007EBF075
:10800000A3EAF0A3E9F0A3EDF012904490000AE097
:10801000C3948040030280CE128F04EF600302807D
:10802000C690000B74FFF0900007E0FBA3E0FAA3FA
:10803000E0F9900010E4F0A37410F07F401286671E
:10804000EF6407707C904722E0540260F89047226A
:10805000E054026009E0FF1313543FFF80027FFFEA
:10806000EF700490000BF090000BE0704E90000A4F
:10807000E0FD7C0090161EE0FBA3E0900010F07F76
:108080004012896FEF6407702A90000B74FFF09024
:108090004722E0540260F8904722E054026009E071
:1080A000FF1313543FFF80027FFFEF701490000B0B
:1080B000F0800E90000B74FFF0800690000B74FFB0
:1080C000F01291FF800E90000B7404F08006900077
:1080D0000B7401F090000BE0FF22E4FFFEFDFC902A
:1080E00016201254FD9076007410F09070107401F8
:1080F000F0907019E4F07B027A78F97DA87C021286
:1081000091799078027401F0A374A3F07B027A78DD
:108110007904C003C002C0017BFF7A9379FCE9EACD
:10812000E4AD01AC02D001D002D0031291797B0200
:108130007A7879067D087C781291797B027A767953
:10814000047D107C001291797B027A767906E4FD39
:10815000FC129179907029740BF090703904F090B2
:1081600070597415F09070697417F0907079741EDE
:10817000F09070147401F0907018E0540170F89051
:108180007028E0540170F8907038E0540170F89055
:108190007058E0540170F8907068E0540170F890E5
:1081A0007078E0540170F822C0E0C083C082C085BE
:1081B000C084C086758600C093759300C0D075D00A
:1081C00000C001C002C003C006C007E4FBA2AF3379
:1081D000FAD2AF9044F474FDF0906464E0FFFE5472
:1081E0001EF9600690160BE049F0EF30E54590640B
:1081F00043E0FE901608E024E8F582E43415F583A8
:10820000EEF07B01EB602C9015E6E0600690160A1C
:108210007401F0901608E004F0E0C394204002E4FA
:10822000F09015E7E0FE901608E0B506069015E61A
:108230007401F0EF20E5A2AF02EA24FF92AFD0076D
:10824000D006D003D002D001D0D0D093D086D08435
:10825000D085D082D083D0E032900000EEF0A3EF42
:10826000F09000067401F0129266128FA878DE7CFE
:10827000087D017B017A0979487E007F591256A555
:10828000900004E4F0A37406F0E4900002F0A3F080
:10829000900004E0FEA3E0FF900002E0FCA3E0FDFC
:1082A000C39FEE6480F8EC648098503FEDC4F854AE
:1082B0000FC868FFECC454F048FE7B0174482FF9E6
:1082C00074093EFA900000E0A3E0FFED2FFD127F5D
:1082D000FBEF6007E4900006F08010900003E004DC
:1082E000F07006900002E004F080A578487C097DDB
:1082F000017B017A0879DE7E007F591256A5129221
:108300005F900006E0FF22900008EEF0A3EFF090EF
:1083100008E275F00512551AEE75F005A42583F5EF
:1083200083E0600B900008E0FEA3E0FF1277DF908F
:108330000008E0FEA3E0FF9008E375F00512551A6F
:10834000EE75F005A42583F583E060031278FB90B9
:108350000008E0FEA3E0FF9008E475F00512551A4E
:10836000EE75F005A42583F583E06003127B319060
:108370000008E0FEA3E0FF9008E575F00512551A2D
:10838000EE75F005A42583F583E060031234DD90DB
:108390000008E0FEA3E0FF9008E675F00512551A0C
:1083A000EE75F005A42583F583E0600312880C22A6
:1083B0001292C2128A62E47F64FEFDFC1284DA7FAC
:1083C00001129286128EA5129096128CA1128D63C4
:1083D0001290F57E927FC6128EE5E4FF1292801213
:1083E00090BC1290A9D2AF9044F474FDF01290CFDB
:1083F000128F8F128E4012914A129107128EC5E48D
:108400007F0AFEFDFC1284DA7F0112912B126DDBD4
:10841000E4900DCCF0A3F0900DD0F0E4FF12928C1C
:10842000128B40129292EF700A300AF7C20A12734E
:108430004E80F07F0112928C129292EF640160F8EC
:10844000129082EF30E7D4128D6380CF229008AE75
:10845000EBF0A3EAF0A3E9F0A3ECF0A3EDF07F3A90
:108460001291BF7F3A1291BF900949E0FF1291BF6C
:108470009008B1E0A3E0FF1291BFE4F51AF51BD319
:108480009008B2E0951B9008B1E0951A4022900840
:10849000AEE0FBA3E0FAA3E0251BF9EA351AFA12D5
:1084A00052E3FF1291BF051BE51B7002051A80CF36
:1084B000E4F51AF51B129274EF20E013051BE51B7F
:1084C000AE1A7002051A14D394E8EE940340E67FC6
:1084D00001129280E4FF1292802290FFFC12556CF0
:1084E0001254FD852883852982E0A3E0A3E0FEA342
:1084F000E0D39400EE9480403D901617E0FCA3E09A
:10850000FDA3E0FEA3E0FF128C008528838529826D
:10851000C083C082E0FCA3E0FDA3E0FEA3E0240052
:10852000FFEE3480FEED34FFFDEC34FFFCD082D052
:10853000831254FD80AD90160DE0FCA3E0FDA3E096
:10854000FEA3E0FF852883852982E0F8A3E0F9A354
:10855000E0FAA3E0FB12534D128C00900004125578
:108560006C22E4900026F0A3EEF0A3EFF07F491216
:108570008FD8900026EFF0A3E0FCA3E0900D1975D2
:10858000F00312551AEC75F003A42583F583EFF080
:10859000E4900026F07F4A128FD8900026EFF0A3D7
:1085A000E0FCA3E0900D1A75F00312551AEC75F07B
:1085B00003A42583F583EFF0E4900026F07F4B12AF
:1085C0008FD8900026EFF0A3E0FCA3E0900D1B7580
:1085D000F00312551AEC75F003A42583F583EFF030
:1085E000E4900026F0229009497401F0900948F0C7
:1085F000E4FFEFC394115055EF75F005A4244CF53A
:1086000082E43409F5837401F0EF75F005A4244D7C
:10861000F582E43409F5837401F0EF75F005A424C4
:108620004EF582E43409F583E4F0EF75F005A424F7
:108630004FF582E43409F583E4F0EF75F005A424E6
:1086400050F582E43409F583E4F00F80A5E4FFFEE1
:10865000128259EF600E7F327E00128259EF600461
:108660007F0180027F002290000DEBF0A3EAF0A3CF
:10867000E9F09000127407F0904722E05402604E37
:1086800090472074B6F074D5F07402F0904722E061
:1086900054027032904720EFF0E4FFFED3900011B7
:1086A000E09F900010E09E402B90000DE0FBA3E0C7
:1086B000FAA3E02FF9EA3EFA1252E3904720F00FB6
:1086C000EF70010E80D69000127409F080069000C1
:1086D000127404F0900012E0FF229008AEEBF0A3B9
:1086E000EAF0A3E9F09008B4EBF0A3EAF0A3E9F014
:1086F0009008AEE0FBA3E475F0011257B6A9F0FABA
:108700001252E370EB9008AF74FFF5F01257A0908F
:1087100008B1E0FBA3E475F0011257B6A9F0FA1214
:1087200052E3FF9008AEE0FBA3E475F0011257B6E8
:10873000A9F0FAEF12532970D69008B4E0FBA3E039
:10874000FAA3E0F9224215208000500C9F3F8000E0
:1087500000000000000000000000000000012200F6
:10876000411627004116090041160B004115E7008C
:10877000411608004115E60041160A00411628007E
:108780004116290043161B00000044161202DC6C3F
:108790000044160D0000BB80411611304416175DD1
:1087A000C000004116260041162A0000900009EB87
:1087B000F0A3EAF0A3E9F0A3EDF0E4A3F090000C3D
:1087C000E0FFA3E0C39F503E904722E054016003C6
:1087D000D38001C340097F017E00128DC080E990E3
:1087E0004720E0FF900009E0FBA3E0FAA3E0F99046
:1087F000000DE0FEE92EF9E43AFAEF125329900059
:108800000DE004F080B790000DE0FF22E490000A34
:10881000F0A3F0A3EEF0A3EFF07F42128FD8900008
:108820000AEFF0128F407F41128FD890000BEFF0CB
