:40000000021415008F828E83E0540100000070F82278FFE4F6D8FD02147A900000EFF0E4F53FF540F541F54275430AC200121F87EF60057F00121FB7122067D2AF9044F4FC
:4000400074FDF0E4F53B754900754A00754B37900000E0FF70067EFF7FFF80008F4C7B017A0079017D2C7C011212FA8F3E900000E060021543E5436004E53E70C9E53E6046
:400080000302059FC3E5389407E53794004008900001E064016005753B04807E900004E0FE900003E0FDEEF53FEDF54074062540F5827400353FF583E0FE74052540F58228
:4000C0007400353FF583E0FDEEF53CEDF53DE5402407FFE4353FFED3EF9538EE95374005753B03803574072540F5827400353FF583E064176005753B04801F7B017A0079B1
:4001000001E5402404FDE4353FFC121C66EF653D7003EE653C6003753B08E4F539F53AE53B600302058E900005E0F536753B04900002E012088801553101823202083403A0
:400140007A3503883703D438020839040F3A05783B0000058B20000302058EE540453F600302058EFF120D84EF70047F0180027F00900005EFF0753900753A01E4F53B0260
:40018000058E20000302058EE5406401453F600302058EE536C39401400302058E900357E0FEA3E0F5828E83120842E4FBFA7901F81207188F24E536B5241E900357E0FE6B
:4001C000A3E0F5828E83120842E4FB7A01F9F81207187522008F238014E536D395244007E4F522F5238006752201752300E523900005F0E522A3F0A374FFF0E4A3F0F539B6
:40020000753A04F53B02058E900002E06434703C20000302058EE5406403453F600302058EE536C39440400FE536D3947F50087541007542108006754101754220AE41AF47
:40024000427D007B017A01792D1208FF20000302058EC3E5409403E53F9400500302058EE54024FDFFE53F34FFFE742D2542F974013541A801FC7D017B017A0079081209F7
:40028000E7E54024FDFFE53F34FFFEEF2542F542EE3541F541E536C394404012E536D3947F500B121DA8753F007540108006753F01754020E54265407004E541653F600369
:4002C00002036F900007E0FE900006E0FDEEF541EDF542E536D3943F506FE5367F00FEEF2542FFE5413E900259F0A3EFF0900357E0FEA3E0F5828E83120842E4FB7A01F9AA
:40030000F812071890025BEEF0A3EFF0900357E0FEA3E0F5828E83120842EFE4EF600A90025BE475F0011205DA90025BE0FEA3E0FFC390025AE09F900259E09E500B753BD5
:400340000AE4F541F54202058E7B017A01792D900263E53FF0A3E540F0AD42AC41AF36120F0BEF60047F0A80027F008F3B8003753B03E4F541F54202058E20000302058EC7
:40038000E4F541F54202059F20000302058EE5422540FFE541353FFED3EF942CEE9401502DE4F53BAE3FAF40742D2542F974013541A801FC7D017B017A0079051209E7E58F
:4003C000402542F542E53F3541F54102058E753B0302058EE540453F600302058E78257C00FD7BFF7A25791FFE7F081209E7D200753900753A08AE39AF3A78057C007D0105
:400400007B007A0079251209E7E4F53B02058E20000302058EE5406403453F600302058E900007E0FE900006E0FDEEF52FEDF530E536C394404038E536D3947F5031AE2F29
:40044000AF307C007D101208D28F348E338D328C318F4B8E4A8D498C48E4754F10F54EF54DF54CFF7E80FDFC12192C8F358050AE2FAF307C017D001208D2C004C005C006FC
:40048000C007AF36E4FCFDFEFBFA7901F812068DD003D002D001D0001206728F348E338D328C318F4B8E4A8D498C48E4F54F754E01F54DF54CFFFE7D10FC12192C8F35E588
:4004C00036D3943F5072AF367E007C207D001208D2E42FFFE43EFEED3408FDE43CFCC004A905AA06AB07AE2FAF307C007D201208D2D0001206728F348E338D328C31E4F5BA
:400500002DF52EC3E52E9420E52D9400502AE4E52E2534FFE52D3533FEE43532FDE43531A907AA06AB05121CF3EF2535F535052EE52E7002052D80CBE536702AAE2FAF301E
:40054000FCFD7BFFFAF9F8C31207C57019FD7F05120A3DC3E5359FF535E4FD7F06120A3DC3E5359FF535E535F404900005F0E4F53BF539753A018016E4FF120D84EF700604
:400580009046FA7480F01220718003753B057B017A007901853948853A49AF3B1215ED900000E0700302004330000302004322BB010689828A83E0225002E722BBFE02E399
:4005C0002289828A83E49322BB010689828A83F0225002F722BBFE01F322C5F0F8A3E028F0C5F0F8E582158270021583E038F022BB010A89828A83E0F5F0A3E022500687B6
:40060000F009E71922BBFE07E3F5F009E3192289828A83E493F5F074019322BB010789828A830205DA500B09C5F027F7C5F01937F722BBFE0D09F8E325F0F3C5F019E338A6
:40064000F322F889828A8374019325F0C5F0F8E4933822BB010A89828A83F0E5F0A3F0225006F709A7F01922BBFE06F3E5F009F31922EF2BFFEE3AFEED39FDEC38FC22C315
:40068000EF9BFFEE9AFEED99FDEC98FC22E88FF0A4CC8BF0A42CFCE98EF0A42CFC8AF0EDA42CFCEA8EF0A4CDA8F08BF0A42DCC3825F0FDE98FF0A42CCD35F0FCEB8EF0A47C
:4006C000FEA9F0EB8FF0A4CFC5F02ECD39FEE43CFCEAA42DCE35F0FDE43CFC2275F008758200EF2FFFEE33FECD33CDCC33CCC58233C5829BED9AEC99E58298400CF582EE4A
:400700009BFEED9AFDEC99FC0FD5F0D6E4CEFBE4CDFAE4CCF9A88222B800C1B90059BA002DEC8BF084CFCECDFCE5F0CBF97818EF2FFFEE33FEED33FDEC33FCEB33FB10D7C4
:4007400003994004EB99FB0FD8E5E4F9FA227818EF2FFFEE33FEED33FDEC33FCC933C910D7059BE99A4007EC9BFCE99AF90FD8E0E4C9FAE4CCFB2275F010EF2FFFEE33FE50
:40078000ED33FDCC33CCC833C810D7079BEC9AE899400AED9BFDEC9AFCE899F80FD5F0DAE4CDFBE4CCFAE4C8F922EF4BFFEE4AFEED49FDEC48FC22C3E49FFFE49EFEE49D2F
:4007C000FDE49CFC22EB9FF5F0EA9E42F0E99D42F0E89C45F022E8600FECC313FCED13FDEE13FEEF13FFD8F122E8600FEFC333FFEE33FEED33FDEC33FCD8F122BB010789DC
:40080000828A830208365005E9F8020A0DBBFE05E9F8020A1989828A83020842BB010789828A8302085E5005E9F8020A25BBFE05E9F8020A3122E0FCA3E0FDA3E0FEA3E06A
:40084000FF22E493FC740193FD740293FE740393FF22E0F8A3E0F9A3E0FAA3E0FB22ECF0A3EDF0A3EEF0A3EFF022E0FBA3E0FAA3E0F922EBF0A3EAF0A3E9F022E493FB74E9
:400880000193FA740293F922D083D082F8E4937012740193700DA3A393F8740193F5828883E4737402936860EFA3A3A380DFE5092582F582E5083583F583B50804858209B7
:4008C0002210AF06858209F50822858209F508D2AF22EC8EF0A4CCC5F0CCCDF8EFA4CEC5F02DFDE43CFCE8A42EC8C5F03DFDE43CFCEFA4FFE5F028FEE43DFDE43CFC22EF51
:400900004E6012EF60010EEDBB010B89828A83F0A3DFFCDEFA2289F05007F709DFFCA9F022BBFEFCF309DFFCA9F022E709F608DFFA8046E709F208DFFA803E88828C83E7AA
:4009400009F0A3DFFA8032E309F608DFFA806EE309F208DFFA806688828C83E309F0A3DFFA805A89828A83E0A3F608DFFA804E89828A83E0A3F208DFFA804280D280FA80F3
:40098000C680D4805580F28029801080A680EA809A80A880DA80E280CA802988848C8589828A83E493A30586F0A30586DFF5DEF3800B89828A83E493A3F608DFF9ECFAA95D
:4009C000F0EDFB2288848C8589828A83E0A30586F0A30586DFF6DEF480E389828A83E493A3F208DFF980D688F0EF60010E4E60CD88F0ED2402B4040050C3F582EB2402B455
:400A0000040050B9232345822390097B73E6FC08E6FD08E6FE08E6FF22E2FC08E2FD08E2FE08E2FF22ECF608EDF608EEF608EFF622ECF208EDF208EEF208EFF22290025D03
:400A4000EDF0AB079002627402F0E4FFFEFDFCA312085EEB1208880A79010AA6020ACB030AF0040B15050B40060B8F070B6B080BB3090BD70A00000C0190025DE0FF7E005E
:400A80007C017D001208D21207B7EF24C0FFEE34FFFEED3410FDE43CFCA312085E9002627401F0020C0C90025DE0FF7E007C017D001208D2C374C39FFF74FF9EFE74109DBD
:400AC000FDE49CFCA312085E020C0C90025DE0FF7E007C017D001208D2C374C79FFF74FF9EFE74109DFDE49CFCA312085E020C0C90025DE0FF7E007C017D001208D2C37433
:400B0000CB9FFF74FF9EFE74109DFDE49CFCA312085E020C0C90025DE0FF7E007C017D001208D2C374D09FFF74FF9EFE74109DFDE49CFCA312085E9002627401F0020C0C60
:400B400090025DE0FF7E007C017D001208D2C374D19FFF74FF9EFE74109DFDE49CFCA312085E9002627401F0020C0C90025DE0FF7E007C017D001208D2C374D69FFF74FF16
:400B80009EFE74109DFDE49CFCA312085E807D90025DE0FF7E007C017D001208D2C374D29FFF74FF9EFE74109DFDE49CFCA312085E805990025DE0FF7E007C017D00120811
:400BC000D2C374D49FFF74FF9EFE74109DFDE49CFCA312085E803590025DE0FF7E007C017D001208D2C374D89FFF74FF9EFE74109DFDE49CFCA312085E9002627404F08082
:400C00000BE4FFFEFDFC90025E12085E900262E0B4011990025E120836A907AA06AB05121CF3E4FCFDFE90026312085E900262E06402705C90025E120836EF2401FFE43E91
:400C4000FEE43DFDE43CA907AA06AB05121CF3E4FCFDFE90026312085E900263120852C000C001C002C00390025E120836A907AA06AB05121CF3E4FCFDFE78081207E9D0BA
:400C800003D002D001D0001207AA90026312085E900262E064046003020D7D90025E120836EF2403FFE43EFEE43DFDE43CA907AA06AB05121CF3E4FCFDFE90026312085E37
:400CC000900263120852C000C001C002C00390025E120836EF2402FFE43EFEE43DFDE43CA907AA06AB05121CF3E4FCFDFE78081207E9D003D002D001D0001207AA9002634F
:400D000012085E900263120852C000C001C002C00390025E120836EF2401FFE43EFEE43DFDE43CA907AA06AB05121CF3E4FCFDFE78101207E9D003D002D001D0001207AA84
:400D400090026312085E900263120852C000C001C002C00390025E120836A907AA06AB05121CF3E4FCFDFE78181207E9D003D002D001D0001207AA90026312085E90026356
:400D8000120836228F44AD447F03120A3DEF2401FFE43EFEE43DFDE43CFCE4FB7A01F9F812068DC004C005C006C007AD447F04120A3DD003D002D001D0001206728F4C8EA9
:400DC0004B8D4A8C49C201E4F54DAD447F03120A3DEF2401FFE43EFEE43DFDE43CFCE4FB7A01F9F812068D8F488E478D468C45AF4CAE4BAD4AAC49AB48AA47A946A845C337
:400E00001207C55032854882854783E493F54E6005F46002D201E54E254DF54DAF48AE47AD46AC45E47B01FAF9F81206728F488E478D468C4580B8AD447F03120A3DEF2479
:400E400001FFE43EFEE43DFDE43CFCE4FB7A01F9F812068D78031207D68F488E478D468C45E47FC07EFFFDFCAB4CAA4BA94AA849C31207C57007FF7E20FDFC800DAF4CAE21
:400E80004BAD4AAC4978031207D68F4C8E4B8D4A8C49AF4CAE4BAD4AAC49AB48AA47A946A845C31207C55039E42548FFE43547FEE5463408FDE43545A907AA06AB05121CB9
:400EC000F3EF254DF54DAF48AE47AD46AC45E47B01FAF9F81206728F488E478D468C4580B1E54DF404F54DAD447F01120A3DA804A905AA06AB07AF4DE4FCFDFEC31207C5CC
:400F000070032001037F06227F002290025EECF0A3EDF0A312087390025DEFF0E4900265F0EFD3943F500E90025DE0940140069002657401F090025DE0FFD3947F4006903A
:400F400002657401F0EFC39440400CEFD3944140069002657401F0EFD3943F501E90025EE0FEA3E0FFE4FCFDFB7A01F9F8C31207C5502F9002657401F08027D390025FE03C
:400F8000948090025EE0940040069002657401F0900263E07004A3E0641060069002657401F090026012086AE94A4B700590026504F0900265E0600302108A121EFEEF606E
:400FC0000302108490025EE0FCA3E0FDA312086A900263E0FFA3E090026CCFF0A3EFF090025DE0FF1211DE900265EFF06407600302107F904722E0540270087F01FE121EF6
:401000006480F0904722E054026009E0FF1313543FFF80027FFFEF7006900265F0800690026574FFF0900265E0705490025DE0FFA3E0FCA3E0FD900353E0FBA3E090026AD9
:40104000F0121A90900265EFF064077032904722E0540270087F01FE121E6480F0904722E054026009E0FF1313543FFF80027FFFEF7006900265F0800690026574FFF0124B
:40108000205180069002657404F0900265E0FF227B007A4679E8121CF3EF4401FD7B007A4679E8122045E4F52CE52CC3940A502CE52C75F005A42461F582E43424AF82F571
:4010C000218F22F58312087C8F82852183740393FC740493FD121F6E052C80CDE4F52CE52CC394015046E52C75F007A42413F582E43425AF82F5238F24F58312087C8B25E1
:401100008A2689278F82852383740393FE7404938E28F529740593F52A740693F52BAD29AC28FFAE2A121EB8052C80B37E207F92121DD97B017A507903121CF3EF4402FD3B
:401140007B017A5079031220457B017A507913121CF3EF4402FD7B017A5079131220459043A0E04440F09043C2E04410F07C207D827B007A5179127F087E00121EB87C2053
:401180007D8A7B007A5179227F087E00121EB89044F47401F0904322E04408F09046ECE0C394055006904689743AF090480074F1F012150690480074B1F0121F1D7B007A41
:4011C0004379A0C00179B0900005120873D0017F0E7E00121D749043B0E054FDF022900266EFF0A3ECF0A3EDF0A312087390026E7407F0904722E0540270030212EE904756
:401200002074B6F074D5F07402F0904722E0540260030212E6900266E0904720F0E490026FF0A3F090026CE0FEA3E0FF90026FE0FCA3E0FDC39FEC9E501F90026912086A8D
:40124000E92DF9EA3CFA1205AF904720F090026FE475F0011205DA80CB90026CE064017002A3E060030212F4900266E0FFD3943F40030212F47E007C207D001208D2E42F0A
:40128000FFE43EFEED3408FDE43CFCC004A905AA06AB07A3E0FEA3E0FF7C007D201208D2D00012067290027112085EE490026FF0A3F090026FE0FEA3E0FFC39420EE94005A
:4012C0005032E4FCFDA3120852120672A907AA06AB05121CF3904720EFF090026FE475F0011205DA80CC90026E7409F0800690026E7404F090026EE0FF228B448A4589469E
:401300008C478D48755505E4F54DF54EE54C75F00AA4FFC3E54E9FE54D95F0503B121B34EF6022121B347553008F54E47F19FEFDFC1218C7121B34D3EF9554E4955350E366
:40134000E4F5558013E47F01FEFDFC1218C7054EE54E7002054D80B4AB49AA4AA94BE4F5F0120653E4F54FF550121B34EFD394005003021412121B347551008F52AB49AA8D
:401380004AA94BE5518552F012061BAB49AA4AA94B1205F0C39548E5F09547505FE4F54DF54EC3E54E9552E54D95515025121C1CAB44E5462550F9E545354FFAEF1205C8C1
:4013C0000550E5507002054F054EE54E7002054D80D0AB44E55024FFFFE54F34FFFEE5462FF9E5453EFA1205AF64177003021369E47F05FEFDFC1218C7021369AB49AA4ABB
:40140000A94B1205F0C39552FFE5F095518FF0120653AF552275930078007583467582E8E04401F0009046ECE0F99046FAE0FA90034BF0B903225420B40012B8001AEA9014
:401440001FFFF07401901FFEF09046F6F0901FFEE06005901FFFE0FA90480074C0F0758156121EDE90000078007920E4F0A3D8FCD9FAEA90034BF002001175081F7509FD1F
:401480001210900214C1022079E493A3F8E493A34003F68001F208DFF48029E493A3F85407240CC8C333C4540F4420C8834004F456800146F6DFE4800B0102040810204063
:4014C00080901B83E47E019360BCA3FF543F30E509541FFEE493A360010ECF54C025E060A840B8E493A3FAE493A3F8E493A3C8C582C8CAC583CAF0A3C8C582C8CAC583CABE
:40150000DFE9DEE780BE7B007A4079807D337C001220279040827418F09043007402F09040007408F09042007403F07B0C7A017908121CF39046A1EFF07B007A4279227D68
:40154000087C001220277B007A4279207D517C12122027E4900004F07F19FEFDFC90000012085E900000120836D3EF9400EE9400403B900004E0FF64036032904225E05440
:4015800001FEEF25E04E5403900004F0E47FE07E01FDFC121D0090000012083674FFFBFAF9F812067290000012085E80B6900000120836EF4E70057F0312207F7B007A402A
:4015C00079047D007C011220279040047407F0904006E4F09040087448F0904004E4F09040017402F09043A2E04401F0228B458A46894774011205C8AB452547F9E43546AB
:40160000FAEF1205C8E549AB45E5472402F9E43546FAE5491205C8E548FFAB45E5472403F9E43546FAEF1205C8AB45AA46A947E5492404FDE43548FC121C668E4A8F4BEFCF
:40164000AB45E5492404FDE43548FCE5472DF9E5463CFAEF1205C8E54AFFAB45E5492405FDE43548FCE5472DF9E5463CFAEF1205C8AB45E5492406FFE43548FEE5472FF9FF
:40168000E5463EFA74171205C8E5492407FDE43548FC755100755200755348755496AB45AA46A947121BD122C0E0C083C082C085C084C086758600C093759300C0D075D09F
:4016C00000C001C002C003C006C007E4FBA2AF33FAD2AF9044F474FDF090646CE0FFFE541EF960069002FDE049F0EF30E54590644AE0FE9002F9E02478F582E43402F583E5
:40170000EEF07B01EB602C900276E060069002FC7401F09002F9E004F0E0C394404002E4F0900277E0FE9002F9E0B506069002767401F0EF20E5A2AF02EA24FF92AFD007BF
:40174000D006D003D002D001D0D0D093D086D084D085D082D083D0E032752106E4FF120D84EF7002F521E4F54BF54AF549F548900357E0FEA3E0F5828E831208428F4F8E82
:401780004E8D4D8C4CE4FFFE7D10FC12192C900355E0FCA3E0F5828C83E493FEC3EF9EFFF404FFB50612900357E0FEA3E0F5828E83120842EF4E70057F00121FB79046FAFB
:4017C000E054C064406004E52160099046FAE4F0FF12001A12205D22C0E0C083C082C085C084C086758600C093759300C0D075D000C006C007A2AFE433FFD2AF9044F4742E
:40180000FDF09002FAE0FE9002B8E06E602C90646EE020E2259002B8E0C394404002E4F09002B8E024B9F582E43402F583E090644DF09002B8E004F080C8EF24FF92AFD043
:4018400007D006D0D0D093D086D084D085D082D083D0E032A9079002FAE0FF9002B8E0FEEFC39E501AEE24FFFDE434FFFCEF7A00B50508EAB504047D0180027D00800CC346
:40188000EF9EB43F047D0180027D00ED70C8EEB5070D90646EE020E20690644DE9F022EFC394404002E4FF74B92FF582E43402F583E9F00F9002FAEFF090646EE030E10609
:4018C0009044D07402F02290FFFC1208AE12085E850883850982120836D3EF9400EE9480402E90034C120836121D00850883850982C083C082120836E42FFFEE3480FEEDC9
:4019000034FFFDEC34FFFCD082D08312085E80C090034212083685088385098212085212068D121D009000041208AE228F478E468D458C44E4F550D3E54F9400E54E940025
:40194000404BAF4FAE4EAD4DAC4C74FFFBFAF9F81206728F4F8E4E8D4D8C4CE547254BFFE546354AFEE5453549FDE5443548FCEF254FFFEE354EFEED354DFDEC354CA907BD
:40198000AA06AB051205AF2550F55080AAAF5022121FE190025E74FFF0121EFEEF703B7F01121E35EF6407702C7B017A0379537D021219E6EFB40215E490025EF090472228
:4019C000E0540270107F01FE121E6480F0904722E0540260D4122051800690025E7404F090025EE0FF2290025F120873900262EDF0E4A3F0900262E0FFA3E0C39F50379065
:401A00004722E054016003D38001C340097F017E00121E6480E9904720E0FF90025F12086A900263E029F9E43AFAEF1205C8900263E004F080BE900263E0FF2290025EEC49
:401A4000F0A3EDF090025DEFF0541F25E0FFE433FEE42FFFEE3444FAA9077B0112201A900260EEF0A3EFF090025DE075F002A42400FFE5F03444FAA9077B01A3E0FEA3E0EC
:401A8000FFFDAC06122029900260E0FEA3E0FF22900267ECF0A3EDF0AC077D07904722E05402603B90472074B6F074D8F07405F0904722E054027023904720ECF09002670F
:401AC000E0904720F0900267E0A3E0904720F0EBF090026AE0904720F080067D0980027D04AF0522121FE1121EFEEF703B121F3A90025EEFF06407702A904722E0540270A1
:401B0000087F01FE121E6480F0904722E054026009E0FF1313543FFF80027FFFEF700490025EF0122051800690025E7404F090025EE0FF229044C87401F09002F9E0FE905D
:401B40000277E0B5060E900276E060047F40802CE4FF80289002F9E0FE900277E0C39E500BE0FE9002F9E0C39EFF8010900277E0FEC374409EFE9002F9E02EFF9044C07420
:401B800001F022420355251A420357251B430350000000440347016E360044034200005DC04103461844034C2EE000004102FB004102B8004102FA004102FD00410277003B
:401BC0004102F900410276004102FC0041035B00008B4C8A4D894E8C4F8D50E4F555F556121E07C3E5569550E555954F501DAB4CE54E2556F9E54D3555FA1205AFFF121874
:401C0000540556E5567002055580D8AB51AA52A953E54F8550F01206537F00229044C87401F0900277E0FE9002F9E0FD900276E07004EE6D602474782EF582E43402F583EF
:401C4000E0FF0EEEC394404002E4FE900277EEF0900276E06009E4F0800590644AE0FF9044C07401F0228B4C8A4D894EE4F54FF550D3ED9400EC94004025AB4CED24FFFFD4
:401C8000EC34FFFEE54E2FF9E54D3EFA1205AF2550F550E4354FF54FED1D70011C80D2E550F4FFE54FF4FEEF2401FFE43EFE227C167DA8E4FF121A3C7D07E4FF121F55E4B7
:401CC0009002FDF090648A7469F090648C7420F07C177DD87F01121A3C7D077F01121F5590642E7406F090643E7447F090648E7402F0228B938A838982E0759300FF22000A
:401D0000EC4D4E700D78FCEF24E950032840FD2200007BF178DA0000EF28FF78FFEE38FEED38FDEC38FC50E7EF2BFFEE38FEED38FDEC38FC40F22205020304121FCC9002FD
:401D40005DEFF090649AE04420F090649CE04410F09044C07401F090649EE04410F09044D87402F09044C0F012203690025DE0FF121F9F22758600EF4E6027EF60010E75B2
:401D80009300900005E0F595A3E0F585A3E0F5848B938A838982E0A30586F0A31586DFF6DEF4E4F593F59522121FCC9043A0E04408F09043B0E04408F090470174C8F090A8
:401DC00043ACE04410F09043BCE04410F0904700E0542060F8121F9F22ACEAADA08E838F82E493F9601CA3E493F5EAA3E493F5A0A3E49360F1FAA3E493F8A3E493F2DAF6BC
:401E0000D9E48DA08CEA22121FCC90649AE04401F0E054FEF0121F9F9044C87401F0E4900277F09002F9F0900276F09002FCF09044C004F0227E07904722E05402601F9052
:401E4000472074B6F074E1F0740EF0904722E054027007904720EFF080067E0980027E04AF062200EEFA900346E0F88FF0A4FFAEF0E88AF0A42EFEE5F03400FDEF24C9FF5A
:401E800078FFEE38FEED38FDE438FC5003021D0022121FCC90649DE04401F0E054FEF0121F9F9044C87402F0E49002B8F09002FAF09044C07402F022758600EF4E601BEFCA
:401EC00060010E8C838D828B958A858984E493A30586F0A31586DFF5DEF3E4F595229046FAE054C064807015F0FD7F02120A3DEF4E600AE4FD7F02120A3D122009229002CC
:401F0000667404F0121FCC90035BE0700704F0E4900266F0121F9F900266E0FF227B0C7A0179CF121CF3EF540790586EF0EFC4540FA3F09058767444F0227F07904722E0DD
:401F40005402600E90472074B6F074E0F0740DF080027F0422AC07ED540775F020A4FFEC541F2480F582E43444F583EFF022EC4D6011ED60010C8B938A838982E4F0A3DDB0
:401F8000FCDCFA75930022121AE490025DEFF0700812199090025DEFF090025DE0FF22EF54016004D2AF8002C2AFEF5402FF9044F4E054FD4FF02290FFFF1208AEEFF090D7
:401FC00046EA7401F09000011208AE229044F4E0F84402F0E85402FF10AF012274014FFF22121FCC9043A0E04408F09043B0E04408F0121F9F229002FBE07009121CAF9087
:4020000002FB7401F0121D3B2290034BE0FA8E838F827400758101738B938A838982E0FFA3E0FE759300228B938A838982EDF0A3ECF0759300229043A2E04401F09043B26F
:40204000E04401F0228B938A838982EDF075930022121FCCE490035BF0121F9F229046FA7480F012207122121FF6121E07121E91229046F6E04401F02212175980FE2280DC
:40208000FE22007F7B007B00000030D8C800D800000016005205082309121098118814200064047E3F8A698C3A8E0F010101E204010301E6020105028702E008010604B82E
:4020C00002BE01D804DF010107021B02A702010A088501890195019901B101BF01D904DF01010B4F00400106038808010A040B111028130219641A041B0A202021082230E9
:40210000274028282A022B022E033080310232103304340836203708382239803A083C283E084028410843824A024B0152045B4068286A016B027090712072108D408E104D
:402140008F809042910493109621980199029B0C9D649E049F80A004A102A202A490A520A702AB01B021B405B602B744C00FC20FC40ECA0FCC6FCE6FD00FD208D608E0083A
:40218000E801010C4C0001021608E70A180E3F101E120114C6163918481C88208824DD262228232ADC2CC8301F320834E03A22541A560458045B045F018008824284F88698
:4021C000018704880F89028AF08D068EC792849308943996C698109C20A020A101A43FA6C0A906AA08AC30B031B106B308B501B6FFB702B982BE40BF11C062C101C5E0C6DA
:40220000CBC80EC9FFCAFFCBFFCEF0CF44D00CD804D904DA04DF01E6C0EA40EB02010D46002901100210030B04010709080209260A310D220E11108012481388151016502C
:402240001780180219021C081D021E201F20200421012208230128402920320238C839A43A083B10414042084921502053405E205F026540674887409088912093089502C2
:40228000978098409B4A9C029D259E049F04A420A504A72AB001B301C0DFC2FFC4FFCA05CC01CE0ED00CD204D6A0D8B0010E4E040906D007230B080C0C0D210E710F0E1048
:4022C00014141016AC170C18DC1A221B201E0321102410264029212A202B062D0C2F2330E03310350F361F37203A023B203F444004464049FF4A074BFF4C404D204EF04F8A
:4023000005500854015604580459045A045B045F01604061A862406320871F89198B0691019304950997029A01A506A719A919AA01AB06AF0FB201B310B507B708B908BB65
:4023400020BE04D804D904DB04DF01010F3C004404040504084809200A010B800E0810081210160418C01A011F042130224425102604270A280829212A802F2A303031047A
:402380003402370438883A103D284101500C5210581059015A886380680169046A206B406F0171407304821083408550868089048B04C005C24FC446CA7DCCC6CE6ED00101
:4023C000D60FD801E40C014005322035808180CC30E2200141038620A620E6400144058301870188C0E004E40401450F0C0857025B046401660193029889A040A301B009C2
:40240000C204D607D801E801EC0401460D8702900893029888A040A301A702AB04B40CB601E808EC02EE08014705900893029888A040A301014C0E5004544057015808607D
:40244000806702900893029888A040A301D406D607D80201500300010C010E01015101000F005100001000513000400051C000100051F000100100000A00010A800580018E
:40248000140008000140000A00014C000200015000002000008080207D050000040800130C0400030204200A031410130C0C7300088000400800004043003C404F003000DE
:4024C0000000734000303F0FC0800008002028000040003402010005C0000E12FFFFFF62A0F0410C00000000000210040404040000000100000000000040020010301000CE
:4025000010101200000000000000000000000000000000010A002493008061000026006930091E031E010100000000000000000000000000000000000000000000000000BD
:40254000000000000000000000000000000000000000000000000000000000000000000000000000000000000000000000000000000000000000000000000000000000005B
:40258000000000000000000000000000000000000000000000000000000000000000000000000000000000000000000000000000000000000000000000000000000000001B
:4025C00000000000000000000000000000000000000000000000000000000000000000000000000000000000000000000000000000000000000000000000000000000000DB
:4026000002797E008F828E83E0540100000070F82278FFE4F6D8FD027A0C900000EEF0A3EFF078027C007D017BFF7A4479A87E077F9F12566E9007A1E4F0A37406F0E4A33C
:40264000F0A3F0A3F0A37402F07C007D327F007E00125304AA06AB077F067E00125304EF2BFDEE3AFC900C16E075F032A4FF2DFFEC35F0CF245FCF34019007A7F0A3EFF092
:40268000E4A3F0A3F078AB7C077D017BFF7A4C7947FE7F1A12566E78C57C077D017BFF7A4C79617E007F0B12566E78D07C077D017BFF7A4C796C7E007F1412566E78E47C1C
:4026C000077D017BFF7A4C79807E007F1012566E78F47C077D017BFF7A4C79907E007F2A12566E781E7C087D017BFF7A4C79BA7E007F1A12566E7B017A0779E4128FC58F3F
:40270000137B017A0779AB128FC58F147B017A0779C5128FC58F157B017A0779D0128FC58F167B017A0779F4128FC58F177B017A08791E128FC58F1878387C087D017BFF82
:402740007A4C79D47E007F7612566E9008B174FFF0A37442F0A37459F0A3E4F0A3740AF0A3E4F0A37464F07B017A087938125DA37B017A087938128FC58F19900C16E0FD31
:40278000C313FF9007A3E4F0A3EFF09007A3E0FEA3E025E0FFEE33FEC3ED9FFFE49EFED3EF9400EE9400400BE004F070069007A3E004F09007A3E0FEA3E0FF7C007D3212D6
:4027C0005304AA06AB079007A1E0FEA3E0FF125304EF2BFDEE3AFC900C16E0F975F032A4FF2DFFEC35F0CF242DCF34019007A7F0A3EFF09007A3E0FAA3E0FB9007A1E0FC68
:40280000A3E0FDEB2DFFEA3CCF2403CF34009007A5F0A3EFF0900002740CF0ED2BFFE92F2403A3F0900000E0FEA3E0FF60030232CDEE60030232CDE49007A9F0A3F090006C
:40284000047402F0A314F0900C16E0900006F0750B0085140CE50C450B602CC3E514950CFFE4950BFE74AB2FF58274073EF583E0FD74072FF58274003EF583EDF0E50C155E
:402880000C7002150B80CE9007AAE02432F09007A9E03400F0E4F50BF50CF50FF5109007A1E0FEA3E0D39510EE950F5003022A5C9008B174FFF0A37442F0A374CDF0A3E5C4
:4028C0000FF0A3E510F07B017A0779C5125DA37511007512047B017A0779C5128FC58F159007A9E0FEA3E0FF851082850F8374321254D2E5822FF582E5833EF583E582244C
:4029000004F582E5833400F5837402F0851082850F8374321254D2E5822FF582E5833EF583E5822405F582E5833400F5837403F0AE0FAF107C00FD1253048E0D8F0EAE0F96
:40294000AF107C007D03125304EF2402FFE43EFED3E50E9FE50D9E40030229F07437250CF5827409350BF583E0F9B50E47E4B50D439007A9E0FEA3E02512FFE5113EFE85CA
:402980001082850F8374321254D2E5822FF582E5833EF583E5822402F582E5833400F583E9F0050CE50C7002050B0512E5127002051180319007A9E0FEA3E02512FFE511DC
:4029C0003EFE851082850F8374321254D2E5822FF582E5833EF583E5822402F582E5833400F583E4F0050EE50E7002050D02293E750D0085150EE50E450D6055C3E515950F
:402A00000EFFE4950DFE74C52FF58274073EF583E0FBAE0FAF107C007D321253049007A9E0FCA3E02FFFEC3EFE7C00EF2515FFEC3EFEC3EF950EFFEE950DFE74092FF58244
:402A400074003EF583EBF0E50E150E7002150D80A50510E5107002050F02289E9007A1E0FEA3E0FF7C007D321253049007AAE02FF09007A9E03EF0E4F50FF5109007A3E069
:402A8000FEA3E0D39510EE950F5003022DA89007A9E0FEA3E0FF851082850F8374321254D2E5822FF582E5833EF583E5822404F582E5833400F5837402F0851082850F83DC
:402AC00074321254D2E5822FF582E5833EF583E5822405F582E5833400F5837403F0E51025E0FFE50F33FE74372FF58274093EF583E075F003A42419F582E4340DF583E08C
:402B0000FF9007A9E0FCA3E0FD851082850F8374321254D2E5822DF582E5833CF583E5822406F582E5833400F583EFF0E51025E0FFE50F33FE74372FF58274093EF583E04A
:402B400075F003A4241AF582E4340DF583E0FF851082850F8374321254D2E5822DF582E5833CF583E5822407F582E5833400F583EFF0E51025E0FFE50F33FE74372FF5827A
:402B800074093EF583E075F003A4241BF582E4340DF583E0FF851082850F8374321254D2E5822DF582E5833CF583E5822408F582E5833400F583EFF0E5102401FFE4350F53
:402BC000FEEF25E0FFEE33FE900C16E0C39FE49E5064750D0085160EE50E450D7003022D9DC3E516950EFFE4950DFE74D02FF58274073EF583E0FBAE0FAF107C007D321259
:402C000053049007A9E0FCA3E02FFFEC3EFE7C00EF2516FFEC3EFEC3EF950EFFEE950DFE74092FF58274003EF583EBF0E50E150E7002150D80A29007A9E0FEA3E0FF851070
:402C400082850F8374321254D2E5822FF582E5833EF583E5822405F582E5833400F5837406F0E51025E0FFE50F33FE74382FF58274093EF583E075F003A42419F582E434D2
:402C80000DF583E0FF9007A9E0FCA3E0FD851082850F8374321254D2E5822DF582E5833CF583E5822409F582E5833400F583EFF0E51025E0FFE50F33FE74382FF5827409F6
:402CC0003EF583E075F003A4241AF582E4340DF583E0FF851082850F8374321254D2E5822DF582E5833CF583E582240AF582E5833400F583EFF0E51025E0FFE50F33FE743D
:402D0000382FF58274093EF583E075F003A4241BF582E4340DF583E0FF851082850F8374321254D2E5822DF582E5833CF583E582240BF582E5833400F583EFF0750D00852A
:402D4000160EE50E450D6055C3E516950EFFE4950DFE74D02FF58274073EF583E0FBAE0FAF107C007D321253049007A9E0FCA3E02FFFEC3EFE7C00EF2516FFEC3EFEC3EFD7
:402D8000950EFFEE950DFE740C2FF58274003EF583EBF0E50E150E7002150D80A50510E5107002050F022A7C9007A3E0FEA3E0FF7C007D321253049007AAE02FF09007A903
:402DC000E03EF09008B174FFF0A37442F0A374D9F09007A5E0FEA3E024FFFFEE34FF9008B4F0A3EFF07B017A0779E4125DA37B017A0779E4128FC58F139007A9E0FEA3E0E3
:402E0000FF2404F58274003EF5837402F074052FF58274003EF5837401F09008DFE0FF9007A9E0FCA3E02406F58274003CF583EFF0750B0085130CE50C450B6046C3E51353
:402E4000950CFFE4950BFE74E42FF58274073EF583E0FFE513FD7C009007A9E0FAA3E02DFDEC3AFCC3ED950CFDEC950BFC74072DF58274003CF583EFF0E50C150C70021533
:402E80000B80B49007AAE02432F09007A9E03400F0E4F50BF50C900C16E0FFC3E50C9FE50B940040030230F39008B174FFF0A37442F0A374E9F09007A5E0FEA3E0250CFFC1
:402EC000E50B3E9008B4F0A3EFF07437250CF5827409350BF583E0FF9008B6E4F0A3EFF07B017A0779F4125DA37B017A0779F4128FC58F179007A9E0FEA3E0FF850C8285B1
:402F00000B8374321254D2E5822FF582E5833EF583E5822404F582E5833400F5837402F0850C82850B8374321254D2E5822FF582E5833EF583E5822405F582E5833400F5B3
:402F4000837405F07437250CF5827409350BF583E075F005A424E2F582E43408F583E0FF9007A9E0FCA3E0FD850C82850B8374321254D2E5822DF582E5833CF583E58224A9
:402F800006F582E5833400F583EFF07437250CF5827409350BF583E075F005A424E3F582E43408F583E0FF850C82850B8374321254D2E5822DF582E5833CF583E582240779
:402FC000F582E5833400F583EFF07437250CF5827409350BF583E075F005A424E4F582E43408F583E0FF850C82850B8374321254D2E5822DF582E5833CF583E5822408F548
:4030000082E5833400F583EFF07437250CF5827409350BF583E075F005A424E5F582E43408F583E0FF850C82850B8374321254D2E5822DF582E5833CF583E5822409F58278
:40304000E5833400F583EFF07437250CF5827409350BF583E075F005A424E6F582E43408F583E0FF850C82850B8374321254D2E5822DF582E5833CF583E582240AF582E5D3
:40308000833400F583EFF0750D0085170EE50E450D6055C3E517950EFFE4950DFE74F42FF58274073EF583E0FBAE0BAF0C7C007D321253049007A9E0FCA3E02FFFEC3EFEE0
:4030C0007C00EF2517FFEC3EFEC3EF950EFFEE950DFE740B2FF58274003EF583EBF0E50E150E7002150D80A5050CE50C7002050B022E96900C16E075F032A4FFAEF09007DC
:40310000AAE02FF09007A9E03EF09008B174FFF0A37443F0A37404F0900C16E0FF7E009007A5E0FCA3E02FFFEE3C9008B4F0A3EFF07B017A08791E125DA39007A9E0FEA36F
:40314000E0FF2404F58274003EF583E4F074052FF58274003EF5837401F09008E1E0FF9007A9E0FCA3E02406F58274003CF583EFF0EF14602314603C240270529008B174AB
:40318000FFF0A37443F0A37419F07B017A08791E12864175181A80369008B174FFF0A37443F0A3741FF07B017A08791E128641751819801A9008B174FFF0A37443F0A37414
:4031C00024F07B017A08791E12864175181A750B0085180CE50C450B6046C3E518950CFFE4950BFE741E2FF58274083EF583E0FFE518FD7C009007A9E0FAA3E02DFDEC3A08
:40320000FCC3ED950CFDEC950BFC74072DF58274003CF583EFF0E50C150C7002150B80B47E009007A9E0FCA3E02518FFEE3CFE74072FF58274003EF5837401F09007AAE06C
:403240002432F09007A9E03400F0750B0085190CE50C450B6046C3E519950CFFE4950BFE74382FF58274083EF583E0FFE519FD7C009007A9E0FAA3E02DFDEC3AFCC3ED95C8
:403280000CFDEC950BFC74042DF58274003CF583EFF0E50C150C7002150B80B47B017A0079029007A7E0A3E014FD128B8E9007A7E0FCA3E0FD2401F58274003CF583EFF0F7
:4032C0007B017A0079021283B4129061229007A5E0FEA3E024FFFFEE34FFFE900000E0FCA3E0FDC39FEC9E50030234DB900C16E0FF7E009007A5E0FAA3E0FB2FFFEE3AFEDE
:40330000EDB5070DECB50609900D4FE090094BF022EB24FFFFEA34FFFE900000E0FCA3E0FDB5070DECB50609900D4FE0900949F022900D4FE0FF9007A5E0FAA3E0FBC3ED09
:403340009BFDEC9AFC74372DF58274093CF583E075F005A4244CF582E43409F583EFF0900D50E0FF74372DF58274093CF583E075F005A4244DF582E43409F583EFF0900D2F
:4033800051E0FF74372DF58274093CF583E075F005A4244EF582E43409F583EFF0900D52E0FF74372DF58274093CF583E075F005A4244FF582E43409F583EFF0900D53E0A0
:4033C000FF74372DF58274093CF583E075F005A42450F582E43409F583EFF09010D2E4F0A304F0E4F50BF50C900C16E0FFC3E50C9FE50B940040030234CD7437250CF5823A
:403400007409350BF583E0FF75F005A4244DF582E43409F583E075F006A4FEEF75F005A4244CF582E43409F583E075F006A42EFF7437250CF5827409350BF583E0FE75F098
:4034400005A4244EF582E43409F583E075F006A42FFFEE75F005A4244FF582E43409F583E0C454F02FFF7437250CF5827409350BF583E0FE75F005A42450F582E43409F5FA
:4034800083E025E02F2402FDEE25E02446F582E43410F583E4F0A3EDF07437250CF5827409350BF583E025E02446F582E43410F583E0FEA3E0FF9010D3E02FF09010D2E078
:4034C0003EF0050CE50C7002050B0233E89010D3E004F070069010D2E004F02290000AEEF0A3EFF0E4A3F0FFFEFDFC90005B1254C6900C16E06401600302425890000AE0EA
:40350000FEA3E0FF9008E275F0051254E3EE75F005A42583F583E0700312774690000AE0FEA3E0FF9008E375F0051254E3EE75F005A42583F583E07003127862900D15E08B
:40354000F8A3E0F9A3E0FAA3E0FB901068E0FCA3E0FDA3E0FEA3E0C39BFFEE9AFEED99FDEC98FCE41250727B007A2479747849124F4B90005B1254C690000AE0FEA3E0FF52
:4035800090106C75F0061254E3EE75F006A42583F583E0FD90000DE4F0A3EDF090106D75F006EF1254E3EE75F006A42583F583E0FD90000EE0FCEDEC12507790001F125475
:4035C000C690000AE0FEA3E0FF90106E75F0061254E3EE75F006A42583F583E0FD90000DE4F0A3EDF090106F75F006EF1254E3EE75F006A42583F583E0FD90000EE0FCED4B
:40360000EC1250779000231254C690000AE0FEA3E0FF90107075F0061254E3EE75F006A42583F583E0FD90000DE4F0A3EDF090107175F006EF1254E3EE75F006A42583F5EF
:4036400083E0FD90000EE0FCEDEC1250779000271254C6E4FFFEFDFC90003B1254C690000AE0FEA3E0FF900CAF75F0061254E3EE75F006A42583F583E0FD90000DE4F0A303
:40368000EDF0900CB075F006EF1254E3EE75F006A42583F583E0FD90000EE0FCEDEC1250777B547AA0790B7839124E4290003F1254C690003FE0FCA3E0FDA3E0FEA3E0FF2F
:4036C0001291437BA67A0A7986783E124FE8600D400BE4FFFEFDFC90003F1254C690000AE0FEA3E0FF900CB175F0061254E3EE75F006A42583F583E0FD90000DE4F0A3EDBE
:40370000F0900CB275F006EF1254E3EE75F006A42583F583E0FD90000EE0FCEDEC1250777B547AA0790B7839124E429000431254C6900043E0FCA3E0FDA3E0FEA3E0FF127F
:4037400091437BA67A0A7986783E124FE8600D400BE4FFFEFDFC9000431254C690000AE0FEA3E0FF900CB375F0061254E3EE75F006A42583F583E0FD90000DE4F0A3EDF059
:40378000900CB475F006EF1254E3EE75F006A42583F583E0FD90000EE0FCEDEC1250777B547AA0790B7839124E429000471254C6900047E0FCA3E0FDA3E0FEA3E0FF129154
:4037C000437BA67A0A7986783E124FE8600D400BE4FFFEFDFC9000471254C67B017A00791F127502900C9FE0FCA3E0FDA3E0FEA3E0FF90004B1254C6900CA3E0FCA3E0FDFB
:40380000A3E0FEA3E0FF90004F1254C6900CA7E0FCA3E0FDA3E0FEA3E0FF9000531254C6900CABE0FCA3E0FDA3E0FEA3E0FF9000571254C6900053E0FCA3E0FDA3E0FEA3AD
:40384000E0FF90004BE0F8A3E0F9A3E0FAA3E0FB124E42C004C005C006C007900057E0FCA3E0FDA3E0FEA3E0FF90004FE0F8A3E0F9A3E0FAA3E0FB124E42D003D002D001FB
:40388000D000124D4DE4FBFAF97840124E4290001FE0F8A3E0F9A3E0FAA3E0FB124D4DC004C005C006C007900053E0FCA3E0FDA3E0FEA3E0FF125061D003D002D001D00055
:4038C000124E42C004C005C006C007900057E0FCA3E0FDA3E0FEA3E0FF900053E0F8A3E0F9A3E0FAA3E0FB124E42C004C005C006C00790004FE0FCA3E0FDA3E0FEA3E0FFA2
:4039000090004BE0F8A3E0F9A3E0FAA3E0FB124E42D003D002D001D000124D51E4FBFAF97840124E42900023E0F8A3E0F9A3E0FAA3E0FB124D4D90004FE0F8A3E0F9A3E035
:40394000FAA3E0FB124E42D003D002D001D000124D517B827A5179C37840124E4290002B1254C6900057E0FCA3E0FDA3E0FEA3E0FF900053E0F8A3E0F9A3E0FAA3E0FB1268
:403980004E42C004C005C006C00790004FE0FCA3E0FDA3E0FEA3E0FF90004BE0F8A3E0F9A3E0FAA3E0FB124E42D003D002D001D000124D51E4FBFAF97840124E4290002382
:4039C000E0F8A3E0F9A3E0FAA3E0FB124D4D90004BE0F8A3E0F9A3E0FAA3E0FB124E42C004C005C006C007900053E0FCA3E0FDA3E0FEA3E0FF90004BE0F8A3E0F9A3E0FAFC
:403A0000A3E0FB124E42C004C005C006C007900057E0FCA3E0FDA3E0FEA3E0FF90004FE0F8A3E0F9A3E0FAA3E0FB124E42D003D002D001D000124D4DE4FBFAF97840124E5E
:403A40004290001FE0F8A3E0F9A3E0FAA3E0FB124D4D900057E0F8A3E0F9A3E0FAA3E0FB124E42D003D002D001D000124D51C004C005C006C00790004FE0FCA3E0FDA3E0B8
:403A8000FEA3E0FF90004FE0F8A3E0F9A3E0FAA3E0FB124E42A804A905AA06AB07E4FFFEFD7C3F124D4DC004C005C006C007900053E0FCA3E0FDA3E0FEA3E0FF900053E09A
:403AC000F8A3E0F9A3E0FAA3E0FB124E42A804A905AA06AB07D007D006D005D004124D4DE4FBFAF97840124E42900027E0F8A3E0F9A3E0FAA3E0FB124D4DC004C005C006CA
:403B0000C007E4FFFEFD7C4090004FE0F8A3E0F9A3E0FAA3E0FB124E42D003D002D001D000124E42A804A905AA06AB07D007D006D005D004124D4D7B827A5179C3784012E0
:403B40004E4290002F1254C6900053E0FCA3E0FDA3E0FEA3E0FF90004BE0F8A3E0F9A3E0FAA3E0FB124E42C004C005C006C007900057E0FCA3E0FDA3E0FEA3E0FF90004F81
:403B8000E0F8A3E0F9A3E0FAA3E0FB124E42D003D002D001D000124D4DE4FBFAF97840124E4290001FE0F8A3E0F9A3E0FAA3E0FB124D4DC004C005C006C00790004BE0FC7F
:403BC000A3E0FDA3E0FEA3E0FF125061D003D002D001D000124E42C004C005C006C007900057E0FCA3E0FDA3E0FEA3E0FF900053E0F8A3E0F9A3E0FAA3E0FB124E42C004A3
:403C0000C005C006C00790004FE0FCA3E0FDA3E0FEA3E0FF90004BE0F8A3E0F9A3E0FAA3E0FB124E42D003D002D001D000124D51E4FBFAF97840124E42900023E0F8A3E0F8
:403C4000F9A3E0FAA3E0FB124D4D900057E0F8A3E0F9A3E0FAA3E0FB124E42D003D002D001D000124D51C004C005C006C00790004FE0FCA3E0FDA3E0FEA3E0FF90004FE0C3
:403C8000F8A3E0F9A3E0FAA3E0FB124E42A804A905AA06AB07E4FFFEFD7C3F124D4DC004C005C006C007900053E0FCA3E0FDA3E0FEA3E0FF900053E0F8A3E0F9A3E0FAA343
:403CC000E0FB124E42A804A905AA06AB07D007D006D005D004124D4DE4FBFAF97840124E42900027E0F8A3E0F9A3E0FAA3E0FB124D4DC004C005C006C007E4FFFEFD7C40FB
:403D0000900053E0F8A3E0F9A3E0FAA3E0FB124E42D003D002D001D000124E42A804A905AA06AB07D007D006D005D004124D4D7B827A5179C37840124E429000331254C6BC
:403D4000900057E0FCA3E0FDA3E0FEA3E0FF900053E0F8A3E0F9A3E0FAA3E0FB124E42C004C005C006C00790004FE0FCA3E0FDA3E0FEA3E0FF90004BE0F8A3E0F9A3E0FA29
:403D8000A3E0FB124E42D003D002D001D000124D51E4FBFAF97840124E42900023E0F8A3E0F9A3E0FAA3E0FB124D4D900053E0F8A3E0F9A3E0FAA3E0FB124E42C004C005B6
:403DC000C006C007900053E0FCA3E0FDA3E0FEA3E0FF90004BE0F8A3E0F9A3E0FAA3E0FB124E42C004C005C006C007900057E0FCA3E0FDA3E0FEA3E0FF90004FE0F8A3E092
:403E0000F9A3E0FAA3E0FB124E42D003D002D001D000124D4DE4FBFAF97840124E4290001FE0F8A3E0F9A3E0FAA3E0FB124D4D90004FE0F8A3E0F9A3E0FAA3E0FB124E4254
:403E4000D003D002D001D000124D517B827A5179C37840124E429000371254C6900043E0FCA3E0FDA3E0FEA3E0FF900053E0F8A3E0F9A3E0FAA3E0FB124E42C004C005C0AC
:403E800006C00790003FE0FCA3E0FDA3E0FEA3E0FF90004FE0F8A3E0F9A3E0FAA3E0FB124E42D003D002D001D000124D51C004C005C006C007900047E0FCA3E0FDA3E0FE77
:403EC000A3E0FF900057E0F8A3E0F9A3E0FAA3E0FB124E42D003D002D001D000124D51125061E4FBFAF9783F124E4290002BE0F8A3E0F9A3E0FAA3E0FB124D4D90000F121D
:403F000054C6900043E0FCA3E0FDA3E0FEA3E0FF900057E0F8A3E0F9A3E0FAA3E0FB124E42C004C005C006C007900047E0FCA3E0FDA3E0FEA3E0FF900053E0F8A3E0F9A337
:403F4000E0FAA3E0FB124E42D003D002D001D000124D4DC004C005C006C00790003FE0FCA3E0FDA3E0FEA3E0FF90004BE0F8A3E0F9A3E0FAA3E0FB124E42D003D002D001CF
:403F8000D000124D51E4FBFAF9783F124E4290002FE0F8A3E0F9A3E0FAA3E0FB124D4D9000131254C6900047E0FCA3E0FDA3E0FEA3E0FF90004FE0F8A3E0F9A3E0FAA3E064
:403FC000FB124E42C004C005C006C00790003FE0FCA3E0FDA3E0FEA3E0FF900057E0F8A3E0F9A3E0FAA3E0FB124E42D003D002D001D000124D4DC004C005C006C007900070
:4040000043E0FCA3E0FDA3E0FEA3E0FF90004BE0F8A3E0F9A3E0FAA3E0FB124E42D003D002D001D000124D51E4FBFAF9783F124E42900033E0F8A3E0F9A3E0FAA3E0FB12CD
:404040004D4D9000171254C690003FE0FCA3E0FDA3E0FEA3E0FF900053E0F8A3E0F9A3E0FAA3E0FB124E42C004C005C006C007900043E0FCA3E0FDA3E0FEA3E0FF90004FAA
:40408000E0F8A3E0F9A3E0FAA3E0FB124E42D003D002D001D000124D4DC004C005C006C007900047E0FCA3E0FDA3E0FEA3E0FFA3E0F8A3E0F9A3E0FAA3E0FB124E42D0036A
:4040C000D002D001D000124D51E4FBFAF9783F124E42900037E0F8A3E0F9A3E0FAA3E0FB124D4D90001B1254C690004BE0F8A3E0F9A3E0FAA3E0FBC000C001C002C0039019
:40410000005BE0FCA3E0FDA3E0FEA3E0FF90000FE0F8A3E0F9A3E0FAA3E0FB124E42D003D002D001D000124D5190004B1254C690004FE0F8A3E0F9A3E0FAA3E0FBC000C08A
:4041400001C002C00390005BE0FCA3E0FDA3E0FEA3E0FF900013E0F8A3E0F9A3E0FAA3E0FB124E42D003D002D001D000124D5190004F1254C6900053E0F8A3E0F9A3E0FA26
:40418000A3E0FBC000C001C002C00390005BE0FCA3E0FDA3E0FEA3E0FF900017E0F8A3E0F9A3E0FAA3E0FB124E42D003D002D001D000124D519000531254C6900057E0F8D5
:4041C000A3E0F9A3E0FAA3E0FBC000C001C002C003A3E0FCA3E0FDA3E0FEA3E0FF90001BE0F8A3E0F9A3E0FAA3E0FB124E42D003D002D001D000124D519000571254C67B20
:40420000017A00794B126FFB90004BE0FCA3E0FDA3E0FEA3E0FF900C9F1254C690004FE0FCA3E0FDA3E0FEA3E0FF900CA31254C6900053E0FCA3E0FDA3E0FEA3E0FF900C9B
:40424000A71254C6900057E0FCA3E0FDA3E0FEA3E0FF900CAB1254C62230202D3E204E6F6E650A31202D3E204C6F77202825752075732064656C617920666F722065616344
:404280006820382D6269742072656769737465722072656164290A32202D3E2048696768202825752075732064656C617920666F72206561636820382D62697420726567AE
:4042C00069737465722072656164290A00506F72742025752049443A002575202D204465766963652049443A002575202D20494D5520256420636F6E6669677572617469CE
:404300006F6E3A002575202D2053504920726561642064656C61793A00204E6F6E6500204C6F7700204869676800000D0A004669726D776172652076657273696F6E3A20D8
:4043400000494D55626F617264207620312E31000D0A0D0A0044455649434520494E464F0D0A0049443A2025640D0A00494D5520436F6E6E65637465643A2025640D0A00A4
:40438000494D557320434F4E46494755524154494F4E0D0A00496D75202564200D0A0949443A2025640D0A0009416363656C65726F6D65746572733A20005945530D0A00DC
:4043C0004E4F0D0A00094779726F73636F7065733A2000094D61676E65746F6D65746572733A2000095175617465726E696F6E3A20000954656D70657261747572653A2040
:404400000054696D65206265747765656E2074776F2072656164696E67206379636C65733A20252E3366206D730064656275673A20256C640053454E534F525320494E4606
:404440004F0D0A00094163633A2025640925640925640D0A00094779726F3A2025640925640925640D0A00094D61673A2025640925640925640D0A0009517561743A202581
:404480002E336609252E336609252E336609252E33660D0A000954656D70657261747572653A2025640D0A00000000000000000000000000000000000000000000000000AE
:4044C00000000000000000000000000000000000000000000000000000000000000000000000000000000000000000000000000000000000000000000000000000000000BC
:40450000000000000000000000000000000000000000000000000000000000000000000000000000000000000000000000000000000000000000000000000000000000007B
:40454000000000000000000000000000000000000000000000000000000000000000000000000000000000000000000000000000000000000000000000000000000000003B
:4045800000000000000000000000000000000000000000000000000000000000000000000000000000000000000000000000000000000000000000000000000000000000FB
:4045C00000000000000000000000000000000000000000000000000000000000000000000000000000000000000000000000000000000000000000000000000000000000BB
:40460000000000000000000000000000000000000000000000000000000000000000000000000000000000000000000000000000000000000000000000000000000000007A
:40464000000000000000000000000000000000000000000000000000000000000000000000000000000000000000000000000000000000000000000000000000000000003A
:4046800000000000000000000000000000000000000000000000000000000000000000000000000000000000000000000000000000000000000000000000000000000000FA
:4046C00000000000000000000000000000000000000000000000000000000000000000000000000000000000000000000000000000000000000000000000000000000000BA
:404700000000000000000000000000000000000000000000000000000000000000000000000000000000000000000000000000000000000000000000000000000000000079
:404740000000000000000000000000000000000000000000000000000000000000000000000000000000000000000000000000000000000000000000000000000000000039
:4047800000000000000000000000000000000000000000000000000000000000000000000000000000000000000000000000000000000000000000000000000000000000F9
:4047C00000000000000000000000000000000000000000000000000000000000000000000000000000000000000000000000000000000000000000000000000000000000B9
:404800000000000000000000000000000000000000000000000000000000000000000000000000000000000000000000000000000000000000000000000000000000000078
:404840000000000000000000000000000000000000000000000000000000000000000000000000000000000000000000000000000000000000000000000000000000000038
:4048800000000000000000000000000000000000000000000000000000000000000000000000000000000000000000000000000000000000000000000000000000000000F8
:4048C00000000000000000000000000000000000000000000000000000000000000000000000000000000000000000000000000000000000000000000000000000000000B8
:404900000000000000000000000000000000000000000000000000000000000000000000000000000000000000000000000000000000000000000000000000000000000077
:404940000000000000000000000000000000000000000000000000000000000000000000000000000000000000000000000000000000000000000000000000000000000037
:4049800000000000000000000000000000000000000000000000000000000000000000000000000000000000000000000000000000000000000000000000000000000000F7
:4049C00000000000000000000000000000000000000000000000000000000000000000000000000000000000000000000000000000000000000000000000000000000000B7
:404A00000000000000000000000000000000000000000000000000000000000000000000000000000000000000000000000000000000000000000000000000000000000076
:404A40000000000000000000000000000000000000000000000000000000000000000000000000000000000000000000000000000000000000000000000000000000000036
:404A800000000000000000000000000000000000000000000000000000000000000000000000000000000000000000000000000000000000000000000000000000000000F6
:404AC00000000000000000000000000000000000000000000000000000000000000000000000000000000000000000000000000000000000000000000000000000000000B6
:404B00000000000000000000000000000000000000000000000000000000000000000000000000000000000000000000000000000000000000000000000000000000000075
:404B40000000000000000000000000000000000000000000000000000000000000000000000000000000000000000000000000000000000000000000000000000000000035
:404B800000000000000000000000000000000000000000000000000000000000000000000000000000000000000000000000000000000000000000000000000000000000F5
:404BC00000000000000000000000000000000000000000000000000000000000000000000000000000000000000000000000000000000000000000000000000000000000B5
:404C00000000000000000000000000000000000000000000000000000000000000000000000000000000000000000000000000000000000000000000000000000000000074
:404C4000000000000000004E756D626572206F6620636F6E6E656374656420494D55733A0000000000000000000000004D61672063616C20706172616D65746572733A0058
:404C800000000000000000000000000000000000000000000000000000000000000000000000000000000000000000000000000000000000000000000000000000000000F4
:404CC00000000000000000000000000000000000000000000000000000000000000000000000000000000000000000000000000000000000000000000000000000000000B4
:404D00000000000000000000000000000000000000000000000000000000000000000000000000000000000000000000000000000000000000000000000000000000000073
:404D4000000000000000000000000250E5E86480F8E933E83360110460F0ED33EC337009E8FCE9FDEAFEEBFF220460DED3EB9FEA9EE99DE8C2E78CF0C2F795F0400CE8CCCE
:404D8000F8E9CDF9EACEFAEBCFFB1250B085D0F05804700320D5B3E80470075002B2D50250EF92D5EC0460F7E4CCC0E0C398F8603B94186008400DD0E0FB0250C7E4FBFAB0
:404DC000C9FC8028E830E406E4C9FBE4CAFCE830E305E4C9CACBFCE854076010F8C3E913F9EA13FAEB13FBEC13FCD8F130F52FC3E49CFCEF9BFFEE9AFEED99FDD0E0FBEFDE
:404E00004E4D4C701222DB030250ECEC2CFCEF33FFEE33FEED33FDED30E7EB0250C7EF2BFFEE3AFEED39FDD0E0FB50130BBB00030250EFED13FDEE13FEEF13FFEC13FC02DE
:404E400050C7EC4D6011E8497017ED33EC3304600DE4FCFFFEFD22E933E8330470F80250E51250B058046009E4CC248150062850090250EF2840030250ECC0E0EB4A7044BD
:404E8000B98006D0E0FB0250DBEF4E701CBD8008EBFFEAFEE9FD80EBE98DF0A4FEE5F0024F2BE9CDF9EAFEEBFFEF89F0A4FCE5F0CE89F0A42EFFE435F0CD89F0A42DFEE4D9
:404EC00035F08067EF4E7005BD80D780C3EF8BF0A4ACF0EE8BF0A42CFCE435F0F8EF8AF0A42CE5F038FCE433CB8DF0A42CFCE5F03BF8EE8AF0A42CFCE5F038F8E433CF89A0
:404F0000F0A42CFCE5F038CF3400CE89F0A42FFFE5F03EFEE433C98DF0A42EFEE5F039CD8AF0A42FFFE5F03EFEE43DFD33D0E0FB50070BBB000F0250EFEC2CFCEF33FFEE8A
:404F400033FEED33FD0250C70250EFEC5D046005E8590470030250E51250B0580460F6EC4860F2EC7004FDFEFF22C860DB2481C85009C398600250060250EC9850CAF582DF
:404F8000E9294B4A7005AB820250DB75F0007C1A7880C3EF9BEE9AED99400DC3EF9BFFEE9AFEED99FDE842F0DC23ACF0D0E0FFD0E0FED0E0FDAB8220E7101BEB60BAEC2C50
:404FC000FCEF33FFEE33FEED33FD0250C7E803F830E705C0F075F000EF2FFFEE33FEED33FD40B830E7C280AA74F8CC6480CCC86480C8F58204604FC3EB9FF5F0EA9E42F065
:40500000E99D42F0E89C45F0603C501DE5825FFFE582D313CB5BCBF42B5582FB50280ABA002409B9002008801DE5825BFBE582D313CF5FCFF4C3132F5582FF50090EBE0020
:40504000050DBD00010CC3EB9FF5F0EA9E42F0E99D42F0E89C45F06007CC4820E701B3EC22ED33EC33600A047003BD8004ECB2E7FC2275F020800E75F010800575F0087DB8
:40508000007E007F003392D530D503125433EC334010EF33FFEE33FEED33FDEC33FCD5F0ED22E5F0247EA2D513CC92E7CDCEFF22E9D2E7C933E833F892D5EDD2E7CD33EC51
:4050C00033FC5002B2D522EC30E7100FBF000C0EBE00080DBD00040BEB6014A2D5EB13FCED92E7FD2274FFFCFDFEFF22E480F8A2D574FF13FC7D80E480EFF920E73624F914
:4051000050037907E4F42402FBE582158270021583DBF6E024FB501BE96014E4F0E582158270021583E004F0B40A08E4F0D9EE7401F00A22C2D522ED33EC3392D5FA602A7E
:40514000B4FF33EDC2E77BFF60067A51795CE4227A51796520D5047A517960224E614E002B494E46002D494E4600E47A08F0A3DAFC7B00740722C083C082ECC0E0EDC0E031
:40518000EEC0E0EFC0E0EA75F010A4CAABF075F04DA42BFBE435F0FCEA2410FAEB34C5FBEC34D9FCEDC2E7FF75F056A4F42411C5F0F434C58FF0A42AE5F03BE43CF020E7CA
:4051C0001412526CD0E0FFD0E0FED0E0FDD0E0FC124F4B8014F40412526CD0E0FFD0E0FED0E0FDD0E0FC124E42D082D083E0FAEDD2E7CD33EC332482FBE4C3CF33CFCE3357
:40520000CECD33CD33DBF37B0775F00A846004F0A31B0AE5F0F0A38FF0740AA4FFACF08EF0740AA42CFEACF050010C8DF0740AA42CFDE435F0F0A3DBDE7407223F80000061
:405240004120000042C80000447A0000461C400047C35000497424004B1896804CBEBC205A0E1BCA6753C21C749DC5AEFB60065407601C232312529AEB543860091252861A
:40528000125295124E42ECF8EDF9EEFAEFCB22EB12529580F1543803241C90523CFE93FC0EEE93FD0EEE930ECE93FF22BB010689828A83E0225002E722BBFE02E322898249
:4052C0008A83E49322BB010CE58229F582E5833AF583E0225006E92582F8E622BBFE06E92582F8E222E58229F582E5833AF583E49322BB010689828A83F0225002F722BB20
:40530000FE01F322EF8DF0A4A8F0CF8CF0A428CE8DF0A42EFE22E88FF0A4CC8BF0A42CFCE98EF0A42CFC8AF0EDA42CFCEA8EF0A4CDA8F08BF0A42DCC3825F0FDE98FF0A4FA
:405340002CCD35F0FCEB8EF0A4FEA9F0EB8FF0A4CFC5F02ECD39FEE43CFCEAA42DCE35F0FDE43CFC2275F008758200EF2FFFEE33FECD33CDCC33CCC58233C5829BED9AEC9F
:4053800099E58298400CF582EE9BFEED9AFDEC99FC0FD5F0D6E4CEFBE4CDFAE4CCF9A88222B800C1B90059BA002DEC8BF084CFCECDFCE5F0CBF97818EF2FFFEE33FEED33C7
:4053C000FDEC33FCEB33FB10D703994004EB99FB0FD8E5E4F9FA227818EF2FFFEE33FEED33FDEC33FCC933C910D7059BE99A4007EC9BFCE99AF90FD8E0E4C9FAE4CCFB221D
:4054000075F010EF2FFFEE33FEED33FDCC33CCC833C810D7079BEC9AE899400AED9BFDEC9AFCE899F80FD5F0DAE4CDFBE4CCFAE4C8F922C3E49FFFE49EFEE49DFDE49CFC2C
:4054400022EB9FF5F0EA9E42F0E99D42F0E89C45F022E8600FECC313FCED13FDEE13FEEF13FFD8F122E86010ECA2E713FCED13FDEE13FEEF13FFD8F022E8600FEFC333FF53
:40548000EE33FEED33FDEC33FCD8F122BB010789828A830257A15005E9F8025795BBFE05E9F80257AD89828A830257B9BB010789828A830254C65005E9F80257C9BBFE05D5
:4054C000E9F80257D522ECF0A3EDF0A3EEF0A3EFF022F5F0C582A4C582C5F0C583A42583F58322A42582F582E5F03583F58322F8E0FBA3A3E0F925F0F0E58215827002159B
:4055000083E0FA38F022EBF0A3EAF0A3E9F022D083D082F8E4937012740193700DA3A393F8740193F5828883E4737402936860EFA3A3A380DFE5292582F582E5283583F513
:4055400083B528048582292210AF06858229F52822858229F528D2AF22EC8EF0A4CCC5F0CCCDF8EFA4CEC5F02DFDE43CFCE8A42EC8C5F03DFDE43CFCEFA4FFE5F028FEE4D7
:405580003DFDE43CFC22EF4E6012EF60010EEDBB010B89828A83F0A3DFFCDEFA2289F05007F709DFFCA9F022BBFEFCF309DFFCA9F022E709F608DFFA8046E709F208DFFA35
:4055C000803E88828C83E709F0A3DFFA8032E309F608DFFA806EE309F208DFFA806688828C83E309F0A3DFFA805A89828A83E0A3F608DFFA804E89828A83E0A3F208DFFA77
:40560000804280D280FA80C680D4805580F28029801080A680EA809A80A880DA80E280CA802988848C8589828A83E493A30586F0A30586DFF5DEF3800B89828A83E493A3E7
:40564000F608DFF9ECFAA9F0EDFB2288848C8589828A83E0A30586F0A30586DFF6DEF480E389828A83E493A3F208DFF980D688F0EF60010E4E60CD88F0ED2402B404005022
:40568000C3F582EB2402B4040050B9232345822390560273E709F60870FA8046E709F20870FA803E88828C83E709F0A370FA8074E309F60870FA806CE309F20870FA8064B5
:4056C00088828C83E309F0A370FA805889828A83E0A3F60870FA804C89828A83E0A3F20870FA804080D280FA80C680D4805180F28027801080A680EA809A80A880DA80E2D4
:4057000080CA802788848C8589828A83E493A30586F0A3058670F5800B89828A83E493A3F60870F9ECFAA9F0EDFB2288848C8589828A83E0A30586F0A3058670F680E589B9
:40574000828A83E493A3F20870F980D888F0ED2402B4040050CEF582EB2402B4040050C423234582239056E473C5F0F8A3E028F0C5F0F8E582158270021583E038F022A3D9
:40578000F8E0C5F025F0F0E582158270021583E0C838F0E822E6FC08E6FD08E6FE08E6FF22E0FCA3E0FDA3E0FEA3E0FF22E2FC08E2FD08E2FE08E2FF22E493FC740193FDFC
:4057C000740293FE740393FF22ECF608EDF608EEF608EFF622ECF208EDF208EEF208EFF222900000EBF0A3EAF0A3E9F09008DFE064FA7003025D3D900000E0FBA3E0FAA344
:40580000E0F8AC02AD037BFF7A43792A12574C9008B174FFF0A37443F0A3742BF0900000E0FBA3E0FAA3E0F91286419008B174FFF0A37443F0A3742EF0900000E0FBA3E025
:40584000FAA3E0F91286419008B174FFF0A37443F0A37441F0900000E0FBA3E0FAA3E0F91286419008B174FFF0A37443F0A37450F0900000E0FBA3E0FAA3E0F91286419044
:4058800008B174FFF0A37443F0A37455F0900000E0FBA3E0FAA3E0F91286419008B174FFF0A37443F0A37463F09008DFE0FF9008B4E4F0A3EFF07B017A007905125DA3907B
:4058C00008B17401F0A37400F0A37405F0900000E0FBA3E0FAA3E0F91286419008B174FFF0A37443F0A3746CF0900C16E0FF9008B4E4F0A3EFF07B017A007905125DA39088
:4059000008B17401F0A37400F0A37405F0900000E0FBA3E0FAA3E0F91286419008B174FFF0A37443F0A3742BF0900000E0FBA3E0FAA3E0F91286419008B174FFF0A374438E
:40594000F0A37480F0900000E0FBA3E0FAA3E0F9128641E4900003F0A3F0900C16E0FFC3900004E09F7480F8900003E06480984003025BFF9008B174FFF0A37443F0A3748B
:4059800095F0900003E0FEA3E0FF9008B4EEF0A3EFF02437F58274093EF583E0FF9008B6E4F0A3EFF07B017A007905125DA39008B17401F0A37400F0A37405F0900000E084
:4059C000FBA3E0FAA3E0F91286419008B174FFF0A37443F0A374A8F07B017A007905125DA3900003E0FEA3E02437F58274093EF583E075F005A424E2F582E43408F583E0D3
:405A000060199008B174FFF0A37443F0A374BAF07B017A00790512864180179008B174FFF0A37443F0A374C0F07B017A0079051286419008B174FFF0A37443F0A374C5F086
:405A40007B017A007905128641900003E0FEA3E02437F58274093EF583E075F005A424E3F582E43408F583E060199008B174FFF0A37443F0A374BAF07B017A0079051286C0
:405A80004180179008B174FFF0A37443F0A374C0F07B017A0079051286419008B174FFF0A37443F0A374D3F07B017A007905128641900003E0FEA3E02437F58274093EF571
:405AC00083E075F005A424E4F582E43408F583E060199008B174FFF0A37443F0A374BAF07B017A00790512864180179008B174FFF0A37443F0A374C0F07B017A00790512E7
:405B000086419008B174FFF0A37443F0A374E4F07B017A007905128641900003E0FEA3E02437F58274093EF583E075F005A424E5F582E43408F583E060199008B174FFF06C
:405B4000A37443F0A374BAF07B017A00790512864180179008B174FFF0A37443F0A374C0F07B017A0079051286419008B174FFF0A37443F0A374F2F07B017A007905128631
:405B800041900003E0FEA3E02437F58274093EF583E075F005A424E6F582E43408F583E060199008B174FFF0A37443F0A374BAF07B017A00790512864180179008B174FFF4
:405BC000F0A37443F0A374C0F07B017A0079051286419008B17401F0A37400F0A37405F0900000E0FBA3E0FAA3E0F9128641900004E004F07006900003E004F002595A90CF
:405C000008B174FFF0A37443F0A3742BF0900000E0FBA3E0FAA3E0F91286419008B174FFF0A37444F0A37401F0900D15E0F8A3E0F9A3E0FAA3E0FB901068E0FCA3E0FDA388
:405C4000E0FEA3E0C39BFFEE9AFEED99FDEC98FCE4125072E4FBFA797A7844124F4B9008B41254C67B017A007905125DA39008B17401F0A37400F0A37405F0900000E0FBC7
:405C8000A3E0FAA3E0F91286419008B174FFF0A37443F0A3742BF0900000E0FBA3E0FAA3E0F91286419008B174FFF0A37444F0A3742AF0900D15E0F8A3E0F9A3E0FAA3E07F
:405CC000FB901068E0FCA3E0FDA3E0FEA3E0C39BFFEE9AFEED99FDEC98FC9008B41254C67B017A007905125DA39008B17401F0A37400F0A37405F0900000E0FBA3E0FAA311
:405D0000E0F91286419008B174FFF0A37443F0A3742BF0900000E0FBA3E0FAA3E0F91286419008B174FFF0A37443F0A3742BF0900000E0FBA3E0FAA3E0F912864122E51AC6
:405D400024B1F582E43408F583E0051A229008AE3008039008B1E475F0011254EF0252AC2001E97F2ED2018018EF540F2490D43440D4FF30050BEF24BFB41A0050032461BA
:405D8000FFE51B6002151B051EE51E7002051D30080E9008AEE475F0011254EFEF0252F2028D857403D2088003E4C208F51A9008AE125506E4F51BF51DF51EE51B60077FE1
:405DC00020125D8180F5751CFFC202C201C203C204C206C207C209125D4DFF700D3008057F00125D92AF1EAE1D22B4255FC2D5C205125D4DFF24D0B40A00501A75F00A781D
:405E00001B30D50508B6FF0106C6A426F620D5047002D20480D924CFB41A00EF5004C2E5D205026084D20280C6D20180C0D20380BCD2D580BAD20680B47F20125D81200314
:405E4000077401B51B0040F1125D3EFF125D81025DBBD209D2078095125D3EFB125D3EFA125D3EF94A4B700679827A617BFF20032EE51B602A7E008E827583001252C560EC
:405E8000060EEE651C70F0C2D5EBC0E0EAC0E0E9C0E0EE1260E5D0E0F9D0E0FAD0E0FB1252ACFF60AAEBC0E0EAC0E0E9C0E0125D81D0E02401F9D0E03400FAD0E0FBE51C88
:405EC0000460DCD51CD98087D20380A21260C760F7E51C7001041250FAA91C600DE51C600914F51C12616FEF60F3EA30E702F404C3995079EAF4251C0430E701E404F51CFF
:405F0000800D1260C760C1EA051C251C1250FAEA9008DDF030E701E4251C04D51C04200601141260E5E4C0E012616F9008DDE0601320E70714F0125D69802204F0D0E01449
:405F4000C0E07F00125D69E51C6007125D60151C800B300603125D60D0E0025DBBD0E00480C41260C7609EE51C041250FA9008DDEAF0E51C20060260010424041260E57405
:405F8000FF04C0E012616F125D69E51C2006026003125D60D0E0B51CE87F45125D739008DDE07F2B30E7047F2DF404C0E0125D81D0E075F00A84C0F0125D6AD0E0125D6A17
:405FC000025DBB791080027908C207C2098008D2D5790A8004790AC2D5E51C047002F51CE4FAFDFEFF125D3EFC7B08200213125D3EFD7B1030010A125D3EFE125D3EFF7B14
:4060000020EC3382D592D55013C3E43001069FFFE49EFEE42002039DFDE49CFCE4CBF8C202EC700CCFCECDCCE824F8F870F38017C3EF33FFEE33FEED33FDEC33FCEB33FB92
:40604000994002FB0FD8E9EB300205F8D0E0C448B202C0E00AEC4D4E4F78207B0070C2EAB51C0040BCC0E01260E7D0F0D0E0200204C4C0E0C4B202C0F0125D6AD0F0D5F0FB
:40608000EB025DBB12550F5E58535FC3585E294C5E25425FC74F5FCF445FCF495E3E435FD5555F02465F62455ECC4761A2505E2D2D5E312E5E542B5E35235E5220618B2A25
:4060C0005DED4800005E4CE51CB4FF03751C06125D3EFC125D3EFD125D3EFE125D3EFF9008D6025137790AA2D5200414300609B910020404B9080104A2D520070250010475
:406100002003689203B51B005034C0E07F203004197F30A20372077206500F12613EC203C207C206C2097F30800F300603E9C0E0125D81300603D0E0F9D0E0B51BCC300695
:40614000177F30B9100C125D817F583005077F788003B90803125D813003057F2D025D817F202009F87F2B2007F322920380CF7F00B40700500B24D6F582E43408F583E087
:40618000FF22286E756C6C2900D202125D3E3002F8C202781B30D50108F6025DED2D50434958125D3E2403B405004001E490619D93125D72743A125D72D204751B04025FF1
:4061C000C3900000EBF0A3EAF0A3E9F0900000E0FBA3E0FAA3E0F8AC02AD037BFF7A43792A12574C9008B174FFF0A37443F0A3742BF0900000E0FBA3E0FAA3E0F9128641C3
:406200009008B174FFF0A37444F0A37435F0900000E0FBA3E0FAA3E0F9128641E4900003F0A3F0900C16E0FFC3900004E09F7480F8900003E0648098400302663B9008B183
:4062400074FFF0A37443F0A37495F0900003E0FEA3E0FF9008B4EEF0A3EFF02437F58274093EF583E0FF9008B6E4F0A3EFF07B017A007905125DA39008B17401F0A3740063
:40628000F0A37405F0900000E0FBA3E0FAA3E0F9128641900003E0FEA3E0FF2437F58274093EF583E075F005A424E2F582E43408F583E0700302634D9008B174FFF0A374E2
:4062C00044F0A37444F09009A275F025EF1254E3EE75F025A42583F583E0FDA3E09008B4CDF0A3EDF09009A475F025EF1254E3EE75F025A42583F583E0FFA3E09008B6CF43
:40630000F0A3EFF0900003E0A3E09009A675F0251254E3EE75F025A42583F583E0FFA3E09008B8CFF0A3EFF07B017A007905125DA39008B17401F0A37400F0A37405F090DD
:406340000000E0FBA3E0FAA3E0F9128641900003E0FEA3E0FF2437F58274093EF583E075F005A424E3F582E43408F583E070030264079008B174FFF0A37444F0A37455F061
:406380009009A875F025EF1254E3EE75F025A42583F583E0FDA3E09008B4CDF0A3EDF09009AA75F025EF1254E3EE75F025A42583F583E0FFA3E09008B6CFF0A3EFF09000F3
:4063C00003E0A3E09009AC75F0251254E3EE75F025A42583F583E0FFA3E09008B8CFF0A3EFF07B017A007905125DA39008B17401F0A37400F0A37405F0900000E0FBA3E0BB
:40640000FAA3E0F9128641900003E0FEA3E0FF2437F58274093EF583E075F005A424E4F582E43408F583E070030264C19008B174FFF0A37444F0A37467F09009AE75F02560
:40644000EF1254E3EE75F025A42583F583E0FDA3E09008B4CDF0A3EDF09009B075F025EF1254E3EE75F025A42583F583E0FFA3E09008B6CFF0A3EFF0900003E0A3E09009F8
:40648000B275F0251254E3EE75F025A42583F583E0FFA3E09008B8CFF0A3EFF07B017A007905125DA39008B17401F0A37400F0A37405F0900000E0FBA3E0FAA3E0F91286E5
:4064C00041900003E0FEA3E02437F58274093EF583E075F005A424E5F582E43408F583E070030265B69008B174FFF0A37444F0A37478F0900003E0FAA3E0FB9009B475F0D9
:40650000251254E3EA75F025A42583F583E0FCA3E0FDA3E0FEA3E0FF9008B41254C69009B875F025EB1254E3EA75F025A42583F583E0FCA3E0FDA3E0FEA3E0FF9008B812D6
:4065400054C6900003E0FAA3E0FB9009BC75F0251254E3EA75F025A42583F583E0FCA3E0FDA3E0FEA3E0FF9008BC1254C69009C075F025EB1254E3EA75F025A42583F58388
:40658000E0FCA3E0FDA3E0FEA3E0FF9008C01254C67B017A007905125DA39008B17401F0A37400F0A37405F0900000E0FBA3E0FAA3E0F9128641900003E0FEA3E0FF243726
:4065C000F58274093EF583E075F005A424E6F582E43408F583E060529008B174FFF0A37444F0A37495F09009C475F025EF1254E3EE75F025A42583F583E0FFA3E09008B4BC
:40660000CFF0A3EFF07B017A007905125DA39008B17401F0A37400F0A37405F0900000E0FBA3E0FAA3E0F9128641900004E004F07006900003E004F00262232290000174A2
:4066400001F0E4A3F0A304F0A374A1F0E4900000F0900C16E0FF900000E0FEC39F4003026A03900162743AF074372EF582E43409F583E075F005A424E2F582E43408F5837F
:40668000E0607B900000E0FF75F025A424A2F582E5F03409F583E0FCA3E0FD900001E0FE2462F582E43401F583ECF0A3EDF075F025EFA424A4F582E5F03409F583E0FCA3A1
:4066C000E0FD74642EF582E43401F583ECF0A3EDF0900000E075F025A424A6F582E5F03409F583E0FCA3E0FD74662EF582E43401F583ECF0A3EDF0900001E02406F0900007
:4067000000E0FF2437F582E43409F583E075F005A424E3F582E43408F583E06078900000E0FE75F025A424A8F582E5F03409F583E0FCA3E0FD900001E0FB2462F582E4340D
:4067400001F583ECF0A3EDF075F025EEA424AAF582E5F03409F583E0FCA3E0FD74642BF582E43401F583ECF0A3EDF075F025EFA424ACF582E5F03409F583E0FEA3E0FF74D4
:40678000662BF582E43401F583EEF0A3EFF0900001E02406F0900000E0FF2437F582E43409F583E075F005A424E4F582E43408F583E06078900000E0FE75F025A424AEF55B
:4067C00082E5F03409F583E0FCA3E0FD900001E0FB2462F582E43401F583ECF0A3EDF075F025EEA424B0F582E5F03409F583E0FCA3E0FD74642BF582E43401F583ECF0A304
:40680000EDF075F025EFA424B2F582E5F03409F583E0FEA3E0FF74662BF582E43401F583EEF0A3EFF0900001E02406F0900000E02437F582E43409F583E075F005A424E55D
:40684000F582E43408F583E070030268FC900000E0FB75F025A424B4F582E5F03409F583E0FCA3E0FDA3E0FEA3E0FF900001E0FA2462F582E43401F5831254C675F025EBE5
:40688000A424B8F582E5F03409F583E0FCA3E0FDA3E0FEA3E0FF74662AF582E43401F5831254C6900000E0FB75F025A424BCF582E5F03409F583E0FCA3E0FDA3E0FEA3E0E6
:4068C000FF746A2AF582E43401F5831254C675F025EBA424C0F582E5F03409F583E0FCA3E0FDA3E0FEA3E0FF746E2AF582E43401F5831254C6900001E02410F0900000E0BB
:40690000FF2437F582E43409F583E075F005A424E6F582E43408F583E0602D75F025EFA424C4F582E5F03409F583E0FEA3E0FF900001E02462F582E43401F583EEF0A3EFA4
:40694000F0900001E02402F0900000E02437F582E43409F583E025E02446F582E43410F583E0FEA3E02461F58274013EF583743AF09000017401F0E4A3F0900000E0243701
:40698000F582E43409F583E0F925E02446F582E43410F583E0FEA3E0FF900002E0FDD3EF9D7480F8EE648098402BE0FF2462F582E43401F583E0FEEF900003E02DFDE4338B
:4069C000FC74042DF58274003CF583EEF0900002E004F080A5E925E02446F582E43410F583E0A3E0FF900003E02FF07E007F167D007B017A017962125586900000E004F0D8
:406A00000266517B017A0079049010D2E0A3E014FD128B8E9010D2E0FCA3E0FD2403F58274003CF583EFF07B017A0079041283B422E4900000F0A3F0A3F0A3F0A3F0A3F085
:406A4000A3F0A3F0901627F0900C16E0FF901627E0FEC39F4003026D6B74372EF582E43409F583E0FF7E00128A16901627E02437F582E43409F583E0FF7E0012826EE49095
:406A80000004F0A3F0900004E0FEA3E0FFC39403EE94004003026B2CEF25E0FFEE33FE901627E0F92437F582E43409F583E0FD75F006A4246CF582E43410F583E5822FF562
:406AC00082E5833EF583E0FB900000E4F0A3EBF0ED75F006A4246DF582E43410F583E5822FF582E5833EF583E0FD900001E0FCED900005E025E0FF900004E033FE75F0258B
:406B0000E9A424D2F582E5F0340DF583E5822FF582E5833EF583ECF0A3EDF0900005E004F07006900004E004F0026A85E4900004F0A3F0900004E0FEA3E0FFC39403EE9443
:406B4000004003026BDAEF25E0FFEE33FE901627E0F92437F582E43409F583E0FD75F006A424AFF582E4340CF583E5822FF582E5833EF583E0FB900000E4F0A3EBF0ED754C
:406B8000F006A424B0F582E4340CF583E5822FF582E5833EF583E0FD900001E0FCED900005E025E0FF900004E033FE75F025E9A424D8F582E5F0340DF583E5822FF582E5CA
:406BC000833EF583ECF0A3EDF0900005E004F07006900004E004F0026B33E4900004F0A3F0900004E0FEA3E0FFC39403EE94004003026C88EF25E0FFEE33FE901627E0F95D
:406C00002437F582E43409F583E0FD75F006A42417F582E4340CF583E5822FF582E5833EF583E0FB900000E4F0A3EBF0ED75F006A42418F582E4340CF583E5822FF582E58A
:406C4000833EF583E0FD900001E0FCED900005E025E0FF900004E033FE75F025E9A424DEF582E5F0340DF583E5822FF582E5833EF583ECF0A3EDF0900005E004F070069072
:406C80000004E004F0026BE1E4900004F0A3F0901627E0707F900004E0FEA3E0FFC39404EE9400506FEF7802C333CE33CED8F9249FF582740C3EF583E0FCA3E0FDA3E0FE3B
:406CC000A3E0FFC004C005C006C007900004E0FEA3E07802C333CE33CED8F9FF901627E075F025A424E4F582E5F0340DF583E5822FF582E5833EF583D007D006D005D0048F
:406D00001254C6900005E004F07006900004E004F0026C8F901627E0FD2437F582E43409F583E0FF25E0247DF582E4340CF583E0FB900000E4F0A3EBF0EF25E0247EF5826C
:406D4000E4340CF583E0FB900001E0FEEBFF75F025EDA424F4F582E5F0340DF583EEF0A3EFF0901627E004F0026A4822E4900001F0FE7F25FD7B017A0979A11255867E00AC
:406D80007F117D007B017A097937125586E4FFFE128A16E47F0AFEFDFC1284417F75128F44900002E4F0A3EFF0E4900002F0A3F0900C16F0900000F0900000E0FFC39411A9
:406DC000505F7E00128A16E47F0AFEFDFC1284417F75128F447E00900002EEF0A3EFF064717023900C16E004F0E4900002F0A3F0900000E025E02404F582E43400F583E4C1
:406E0000F0A304F08013900000E025E02404F582E43400F583E4F0A3F0900000E004F08097E4900000F0900000E0FFC394115034EF25E02404F582E43400F583E0FEA3E06F
:406E400064014E7017900000E0A3E02437F582E43409F583EFF0900001E004F0900000E004F080C2E4FF129097E47F0AFEFDFC1284417F01129097E47F0AFEFDFC12844145
:406E8000E4900000F0900000E0FFC39411502E7E00128A16E47F0AFEFDFC128441127BAFE47F0AFEFDFC128441127CA0E47F0AFEFDFC128441900000E004F080C8E47F328D
:406EC000FEFDFC128441E4900000F0900000E0FFC3941150177E00128A16900000E0FF7E001284C9900000E004F080DFE47F32FEFDFC1284417E007F227D007B017A107965
:406F0000461255869010D2E4F0A304F0E4900000F0900C16E0FF900000E0FEC39F4003026FECE0FF2437F582E43409F583E0FD75F005A424E3F582E43408F583E075F00646
:406F4000A4FCED75F005A424E2F582E43408F583E075F006A42CFD74372FF582E43409F583E0FF75F005A424E4F582E43408F583E075F006A42DFDEF75F005A424E5F582C5
:406F8000E43408F583E0C454F02DFF74372EF582E43409F583E0FD75F005A424E6F582E43408F583E025E02F2402FBED25E02446F582E43410F583E4F0A3EBF074372EF570
:406FC00082E43409F583E025E02446F582E43410F583E0FEA3E0FF9010D3E02FF09010D2E03EF0900000E004F0026F119010D3E004F070069010D2E004F02290005FEBF0E9
:40700000A3EAF0A3E9F02404F9E43AFA12548CA804A905AA06AB07124E42C004C005C006C00790005FE0FBA3E0FAA3E0F912548CA804A905AA06AB07124E42D003D002D030
:4070400001D000124D51C004C005C006C00790005FE0FBA3E0FAA3E02408F9E43AFA12548CA804A905AA06AB07124E42D003D002D001D000124D51C004C005C006C0079086
:40708000005FE0FBA3E0FAA3E0240CF9E43AFA12548CA804A905AA06AB07124E42D003D002D001D000124D51127D919000621254C690005FE0FBA3E0FAA3E0F9C003C00289
:4070C000C00112548C900062E0F8A3E0F9A3E0FAA3E0FB124E42D001D002D0031254AC90005FE0FBA3E0FAA3E02404F9E43AFA12548C900062E0F8A3E0F9A3E0FAA3E0FB3C
:40710000124E4290005FE0FBA3E0FAA3E02404F9E43AFA1254AC90005FE0FBA3E0FAA3E02408F9E43AFA12548C900062E0F8A3E0F9A3E0FAA3E0FB124E4290005FE0FBA34F
:40714000E0FAA3E02408F9E43AFA1254AC90005FE0FBA3E0FAA3E0240CF9E43AFA12548C900062E0F8A3E0F9A3E0FAA3E0FB124E4290005FE0FBA3E0FAA3E0240CF9E43A72
:40718000FA1254AC22900000EEF0A3EFF0A3EDF01291B0900004EFF012917E900005EEF0A3EFF0900000E0FCA3E0FD6F7002EC6E70030272B49043A2E05401900003F0A3C3
:4071C000E0703BA3E0FEA3E0FF4E6004ED4C702EEF4E70117B027A4079801290D6904082E054BFF022904082E04440F07B027A407980900000E0FCA3E0FD1290D6229000CF
:4072000003E06053904001E4F090401004F0904014E4F0904008E0547FF0904082E05408600A900000E07002A3E0702B7B027A407902900005E0FCA3E0FD1290D690400128
