:102600000279C4008F828E83E0540100000070F8CC
:102610002278FFE4F6D8FD027A52900000EEF0A393
:10262000EFF078027C007D017BFF7A4479A87E0779
:102630007F9F12566E9007A1E4F0A37406F0E4A306
:10264000F0A3F0A3F0A37402F07C007D327F007E43
:1026500000125304AA06AB077F067E00125304EF54
:102660002BFDEE3AFC900C16E075F032A4FF2DFF26
:10267000EC35F0CF245FCF34019007A7F0A3EFF043
:10268000E4A3F0A3F078AB7C077D017BFF7A4C7963
:1026900047FE7F1A12566E78C57C077D017BFF7A54
:1026A0004C79617E007F0B12566E78D07C077D01DD
:1026B0007BFF7A4C796C7E007F1412566E78E47C36
:1026C000077D017BFF7A4C79807E007F1012566E69
:1026D00078F47C077D017BFF7A4C79907E007F2A1D
:1026E00012566E781E7C087D017BFF7A4C79BA7E8B
:1026F000007F1A12566E7B017A0779E4128FF98FE8
:10270000137B017A0779AB128FF98F147B017A075B
:1027100079C5128FF98F157B017A0779D0128FF95D
:102720008F167B017A0779F4128FF98F177B017A64
:1027300008791E128FF98F1878387C087D017BFF8D
:102740007A4C79D47E007F7612566E9008B174FF71
:10275000F0A37442F0A37459F0A3E4F0A3740AF058
:10276000A3E4F0A37464F07B017A087938125DBFAA
:102770007B017A087938128FF98F19900C16E0FDD9
:10278000C313FF9007A3E4F0A3EFF09007A3E0FECC
:10279000A3E025E0FFEE33FEC3ED9FFFE49EFED3F2
:1027A000EF9400EE9400400BE004F070069007A355
:1027B000E004F09007A3E0FEA3E0FF7C007D32126E
:1027C0005304AA06AB079007A1E0FEA3E0FF125353
:1027D00004EF2BFDEE3AFC900C16E0F975F032A4F4
:1027E000FF2DFFEC35F0CF242DCF34019007A7F05B
:1027F000A3EFF09007A3E0FAA3E0FB9007A1E0FCB1
:10280000A3E0FDEB2DFFEA3CCF2403CF340090077B
:10281000A5F0A3EFF0900002740CF0ED2BFFE92F70
:102820002403A3F0900000E0FEA3E0FF6003023267
:10283000CDEE60030232CDE49007A9F0A3F0900042
:10284000047402F0A314F0900C16E0900006F075EA
:102850000B0085140CE50C450B602CC3E514950C9E
:10286000FFE4950BFE74AB2FF58274073EF583E011
:10287000FD74072FF58274003EF583EDF0E50C152D
:102880000C7002150B80CE9007AAE02432F090075E
:10289000A9E03400F0E4F50BF50CF50FF510900706
:1028A000A1E0FEA3E0D39510EE950F5003022A5C41
:1028B0009008B174FFF0A37442F0A374CDF0A3E5C7
:1028C0000FF0A3E510F07B017A0779C5125DBF75A3
:1028D00011007512047B017A0779C5128FF98F15E3
:1028E0009007A9E0FEA3E0FF851082850F83743274
:1028F0001254D2E5822FF582E5833EF583E58224EA
:1029000004F582E5833400F5837402F08510828536
:102910000F8374321254D2E5822FF582E5833EF59F
:1029200083E5822405F582E5833400F5837403F0A2
:10293000AE0FAF107C00FD1253048E0D8F0EAE0F44
:10294000AF107C007D03125304EF2402FFE43EFE2F
:10295000D3E50E9FE50D9E40030229F07437250C48
:10296000F5827409350BF583E0F9B50E47E4B50D32
:10297000439007A9E0FEA3E02512FFE5113EFE8586
:102980001082850F8374321254D2E5822FF582E5CE
:10299000833EF583E5822402F582E5833400F583E6
:1029A000E9F0050CE50C7002050B0512E51270024A
:1029B000051180319007A9E0FEA3E02512FFE51183
:1029C0003EFE851082850F8374321254D2E5822F29
:1029D000F582E5833EF583E5822402F582E58334C2
:1029E00000F583E4F0050EE50E7002050D02293EA8
:1029F000750D0085150EE50E450D6055C3E5159561
:102A00000EFFE4950DFE74C52FF58274073EF58325
:102A1000E0FBAE0FAF107C007D321253049007A98B
:102A2000E0FCA3E02FFFEC3EFE7C00EF2515FFEC61
:102A30003EFEC3EF950EFFEE950DFE74092FF58255
:102A400074003EF583EBF0E50E150E7002150D8057
:102A5000A50510E5107002050F02289E9007A1E061
:102A6000FEA3E0FF7C007D321253049007AAE02F02
:102A7000F09007A9E03EF0E4F50FF5109007A3E011
:102A8000FEA3E0D39510EE950F5003022DA89007FA
:102A9000A9E0FEA3E0FF851082850F8374321254F3
:102AA000D2E5822FF582E5833EF583E5822404F5A5
:102AB00082E5833400F5837402F0851082850F83EC
:102AC00074321254D2E5822FF582E5833EF583E518
:102AD000822405F582E5833400F5837403F0E51064
:102AE00025E0FFE50F33FE74372FF58274093EF5BC
:102AF00083E075F003A42419F582E4340DF583E036
:102B0000FF9007A9E0FCA3E0FD851082850F837488
:102B1000321254D2E5822DF582E5833CF583E582BD
:102B20002406F582E5833400F583EFF0E51025E017
:102B3000FFE50F33FE74372FF58274093EF583E00D
:102B400075F003A4241AF582E4340DF583E0FF85C3
:102B50001082850F8374321254D2E5822DF582E5FE
:102B6000833CF583E5822407F582E5833400F58311
:102B7000EFF0E51025E0FFE50F33FE74372FF58207
:102B800074093EF583E075F003A4241BF582E43458
:102B90000DF583E0FF851082850F8374321254D2C5
:102BA000E5822DF582E5833CF583E5822408F582F4
:102BB000E5833400F583EFF0E5102401FFE4350FE1
:102BC000FEEF25E0FFEE33FE900C16E0C39FE49E7F
:102BD0005064750D0085160EE50E450D7003022D2F
:102BE0009DC3E516950EFFE4950DFE74D02FF5827A
:102BF00074073EF583E0FBAE0FAF107C007D321210
:102C000053049007A9E0FCA3E02FFFEC3EFE7C00FC
:102C1000EF2516FFEC3EFEC3EF950EFFEE950DFE81
:102C200074092FF58274003EF583EBF0E50E150E66
:102C30007002150D80A29007A9E0FEA3E0FF8510A9
:102C400082850F8374321254D2E5822FF582E58398
:102C50003EF583E5822405F582E5833400F583742F
:102C600006F0E51025E0FFE50F33FE74382FF582FE
:102C700074093EF583E075F003A42419F582E43469
:102C80000DF583E0FF9007A9E0FCA3E0FD8510822D
:102C9000850F8374321254D2E5822DF582E5833C90
:102CA000F583E5822409F582E5833400F583EFF0AE
:102CB000E51025E0FFE50F33FE74382FF582740927
:102CC0003EF583E075F003A4241AF582E4340DF593
:102CD00083E0FF851082850F8374321254D2E5821F
:102CE0002DF582E5833CF583E582240AF582E583B0
:102CF0003400F583EFF0E51025E0FFE50F33FE74B7
:102D0000382FF58274093EF583E075F003A4241B87
:102D1000F582E4340DF583E0FF851082850F83741E
:102D2000321254D2E5822DF582E5833CF583E582AB
:102D3000240BF582E5833400F583EFF0750D0085F3
:102D4000160EE50E450D6055C3E516950EFFE4958C
:102D50000DFE74D02FF58274073EF583E0FBAE0FB5
:102D6000AF107C007D321253049007A9E0FCA3E071
:102D70002FFFEC3EFE7C00EF2516FFEC3EFEC3EF7E
:102D8000950EFFEE950DFE740C2FF58274003EF546
:102D900083EBF0E50E150E7002150D80A50510E50C
:102DA000107002050F022A7C9007A3E0FEA3E0FF4B
:102DB0007C007D321253049007AAE02FF09007A9FF
:102DC000E03EF09008B174FFF0A37442F0A374D910
:102DD000F09007A5E0FEA3E024FFFFEE34FF90088B
:102DE000B4F0A3EFF07B017A0779E4125DBF7B01B9
:102DF0007A0779E4128FF98F139007A9E0FEA3E018
:102E0000FF2404F58274003EF5837402F074052FEC
:102E1000F58274003EF5837401F09008DFE0FF90C6
:102E200007A9E0FCA3E02406F58274003CF583EFDB
:102E3000F0750B0085130CE50C450B6046C3E513DC
:102E4000950CFFE4950BFE74E42FF58274073EF5B4
:102E500083E0FFE513FD7C009007A9E0FAA3E02DD5
:102E6000FDEC3AFCC3ED950CFDEC950BFC74072DC5
:102E7000F58274003CF583EFF0E50C150C7002153B
:102E80000B80B49007AAE02432F09007A9E0340048
:102E9000F0E4F50BF50C900C16E0FFC3E50C9FE594
:102EA0000B940040030230F39008B174FFF0A37458
:102EB00042F0A374E9F09007A5E0FEA3E0250CFF23
:102EC000E50B3E9008B4F0A3EFF07437250CF582C3
:102ED0007409350BF583E0FF9008B6E4F0A3EFF03A
:102EE0007B017A0779F4125DBF7B017A0779F412CE
:102EF0008FF98F179007A9E0FEA3E0FF850C82856C
:102F00000B8374321254D2E5822FF582E5833EF5AD
:102F100083E5822404F582E5833400F5837402F0AE
:102F2000850C82850B8374321254D2E5822FF58290
:102F3000E5833EF583E5822405F582E5833400F5DB
:102F4000837405F07437250CF5827409350BF5830D
:102F5000E075F005A424E2F582E43408F583E0FF8F
:102F60009007A9E0FCA3E0FD850C82850B837432F9
:102F70001254D2E5822DF582E5833CF583E5822467
:102F800006F582E5833400F583EFF07437250CF500
:102F9000827409350BF583E075F005A424E3F5820E
:102FA000E43408F583E0FF850C82850B83743212CC
:102FB00054D2E5822DF582E5833CF583E582240732
:102FC000F582E5833400F583EFF07437250CF58244
:102FD0007409350BF583E075F005A424E4F582E46B
:102FE0003408F583E0FF850C82850B83743212541C
:102FF000D2E5822DF582E5833CF583E5822408F550
:1030000082E5833400F583EFF07437250CF5827484
:1030100009350BF583E075F005A424E5F582E43469
:1030200008F583E0FF850C82850B8374321254D23D
:10303000E5822DF582E5833CF583E5822409F5825E
:10304000E5833400F583EFF07437250CF5827409BD
:10305000350BF583E075F005A424E6F582E4340829
:10306000F583E0FF850C82850B8374321254D2E520
:10307000822DF582E5833CF583E582240AF582E51D
:10308000833400F583EFF0750D0085170EE50E45CE
:103090000D6055C3E517950EFFE4950DFE74F42FF2
:1030A000F58274073EF583E0FBAE0BAF0C7C007D30
:1030B000321253049007A9E0FCA3E02FFFEC3EFE80
:1030C0007C00EF2517FFEC3EFEC3EF950EFFEE955B
:1030D0000DFE740B2FF58274003EF583EBF0E50EC8
:1030E000150E7002150D80A5050CE50C7002050B80
:1030F000022E96900C16E075F032A4FFAEF0900709
:10310000AAE02FF09007A9E03EF09008B174FFF01C
:10311000A37443F0A37404F0900C16E0FF7E0090BB
:1031200007A5E0FCA3E02FFFEE3C9008B4F0A3EF6E
:10313000F07B017A08791E125DBF9007A9E0FEA31B
:10314000E0FF2404F58274003EF583E4F074052F5B
:10315000F58274003EF5837401F09008E1E0FF9081
:1031600007A9E0FCA3E02406F58274003CF583EF98
:10317000F0EF14602314603C240270529008B17484
:10318000FFF0A37443F0A37419F07B017A08791E51
:1031900012868775181A80369008B174FFF0A374F0
:1031A00043F0A3741FF07B017A08791E128687759D
:1031B0001819801A9008B174FFF0A37443F0A37437
:1031C00024F07B017A08791E12868775181A750B10
:1031D0000085180CE50C450B6046C3E518950CFFFF
:1031E000E4950BFE741E2FF58274083EF583E0FF14
:1031F000E518FD7C009007A9E0FAA3E02DFDEC3A6C
:10320000FCC3ED950CFDEC950BFC74072DF5827459
:10321000003CF583EFF0E50C150C7002150B80B443
:103220007E009007A9E0FCA3E02518FFEE3CFE74A9
:10323000072FF58274003EF5837401F09007AAE031
:103240002432F09007A9E03400F0750B0085190CCA
:10325000E50C450B6046C3E519950CFFE4950BFEA4
:1032600074382FF58274083EF583E0FFE519FD7C84
:10327000009007A9E0FAA3E02DFDEC3AFCC3ED9520
:103280000CFDEC950BFC74042DF58274003CF58369
:10329000EFF0E50C150C7002150B80B47B017A0081
:1032A00079029007A7E0A3E014FD128C3B9007A7DA
:1032B000E0FCA3E0FD2401F58274003CF583EFF00F
:1032C0007B017A0079021283FA129095229007A569
:1032D000E0FEA3E024FFFFEE34FFFE900000E0FCE0
:1032E000A3E0FDC39FEC9E50030234DB900C16E07C
:1032F000FF7E009007A5E0FAA3E0FB2FFFEE3AFE69
:10330000EDB5070DECB50609900D4FE090094BF0B7
:1033100022EB24FFFFEA34FFFE900000E0FCA3E074
:10332000FDB5070DECB50609900D4FE0900949F089
:1033300022900D4FE0FF9007A5E0FAA3E0FBC3ED5C
:103340009BFDEC9AFC74372DF58274093CF583E003
:1033500075F005A4244CF582E43409F583EFF09070
:103360000D50E0FF74372DF58274093CF583E0754C
:10337000F005A4244DF582E43409F583EFF0900DB7
:1033800051E0FF74372DF58274093CF583E075F048
:1033900005A4244EF582E43409F583EFF0900D5234
:1033A000E0FF74372DF58274093CF583E075F00574
:1033B000A4244FF582E43409F583EFF0900D53E037
:1033C000FF74372DF58274093CF583E075F005A490
:1033D0002450F582E43409F583EFF09010D2E4F044
:1033E000A304F0E4F50BF50C900C16E0FFC3E50C1C
:1033F0009FE50B940040030234CD7437250CF58211
:103400007409350BF583E0FF75F005A4244DF582B2
:10341000E43409F583E075F006A4FEEF75F005A429
:10342000244CF582E43409F583E075F006A42EFF00
:103430007437250CF5827409350BF583E0FE75F0C1
:1034400005A4244EF582E43409F583E075F006A462
:103450002FFFEE75F005A4244FF582E43409F583BF
:10346000E0C454F02FFF7437250CF5827409350B36
:10347000F583E0FE75F005A42450F582E43409F5E7
:1034800083E025E02F2402FDEE25E02446F582E4CA
:103490003410F583E4F0A3EDF07437250CF5827455
:1034A00009350BF583E025E02446F582E43410F578
:1034B00083E0FEA3E0FF9010D3E02FF09010D2E065
:1034C0003EF0050CE50C7002050B0233E89010D3BA
:1034D000E004F070069010D2E004F02290000AEEB2
:1034E000F0A3EFF0E4A3F0FFFEFDFC90005B1254AC
:1034F000C6900C16E06401600302425890000AE096
:10350000FEA3E0FF9008E275F0051254E3EE75F0BB
:1035100005A42583F583E0700312778C90000AE000
:10352000FEA3E0FF9008E375F0051254E3EE75F09A
:1035300005A42583F583E070031278A8900D15E0AB
:10354000F8A3E0F9A3E0FAA3E0FB901068E0FCA385
:10355000E0FDA3E0FEA3E0C39BFFEE9AFEED99FD24
:10356000EC98FCE41250727B007A2479747849124A
:103570004F4B90005B1254C690000AE0FEA3E0FFA0
:1035800090106C75F0061254E3EE75F006A42583D6
:10359000F583E0FD90000DE4F0A3EDF090106D7563
:1035A000F006EF1254E3EE75F006A42583F583E0F0
:1035B000FD90000EE0FCEDEC12507790001F1254CD
:1035C000C690000AE0FEA3E0FF90106E75F00612B0
:1035D00054E3EE75F006A42583F583E0FD90000D1D
:1035E000E4F0A3EDF090106F75F006EF1254E3EEE7
:1035F00075F006A42583F583E0FD90000EE0FCED58
:10360000EC1250779000231254C690000AE0FEA3FB
:10361000E0FF90107075F0061254E3EE75F006A40A
:103620002583F583E0FD90000DE4F0A3EDF090100C
:103630007175F006EF1254E3EE75F006A42583F5DC
:1036400083E0FD90000EE0FCEDEC12507790002737
:103650001254C6E4FFFEFDFC90003B1254C69000DD
:103660000AE0FEA3E0FF900CAF75F0061254E3EE03
:1036700075F006A42583F583E0FD90000DE4F0A32A
:10368000EDF0900CB075F006EF1254E3EE75F00615
:10369000A42583F583E0FD90000EE0FCEDEC1250D4
:1036A000777B547AA0790B7839124E4290003F1202
:1036B00054C690003FE0FCA3E0FDA3E0FEA3E0FFC2
:1036C0001291867BA67A0A7986783E124FE8600DC1
:1036D000400BE4FFFEFDFC90003F1254C690000A30
:1036E000E0FEA3E0FF900CB175F0061254E3EE7516
:1036F000F006A42583F583E0FD90000DE4F0A3ED32
:10370000F0900CB275F006EF1254E3EE75F006A4DB
:103710002583F583E0FD90000EE0FCEDEC12507780
:103720007B547AA0790B7839124E429000431254A0
:10373000C6900043E0FCA3E0FDA3E0FEA3E0FF127F
:1037400091867BA67A0A7986783E124FE8600D4012
:103750000BE4FFFEFDFC9000431254C690000AE00B
:10376000FEA3E0FF900CB375F0061254E3EE75F083
:1037700006A42583F583E0FD90000DE4F0A3EDF0B1
:10378000900CB475F006EF1254E3EE75F006A42524
:1037900083F583E0FD90000EE0FCEDEC1250777BAA
:1037A000547AA0790B7839124E429000471254C6D1
:1037B000900047E0FCA3E0FDA3E0FEA3E0FF129130
:1037C000867BA67A0A7986783E124FE8600D400B18
:1037D000E4FFFEFDFC9000471254C67B017A00799D
:1037E0001F127548900C9FE0FCA3E0FDA3E0FEA330
:1037F000E0FF90004B1254C6900CA3E0FCA3E0FD48
:10380000A3E0FEA3E0FF90004F1254C6900CA7E087
:10381000FCA3E0FDA3E0FEA3E0FF9000531254C61A
:10382000900CABE0FCA3E0FDA3E0FEA3E0FF900062
:10383000571254C6900053E0FCA3E0FDA3E0FEA3A2
:10384000E0FF90004BE0F8A3E0F9A3E0FAA3E0FB6F
:10385000124E42C004C005C006C007900057E0FCED
:10386000A3E0FDA3E0FEA3E0FF90004FE0F8A3E09B
:10387000F9A3E0FAA3E0FB124E42D003D002D0013C
:10388000D000124D4DE4FBFAF97840124E42900000
:103890001FE0F8A3E0F9A3E0FAA3E0FB124D4DC04E
:1038A00004C005C006C007900053E0FCA3E0FDA3E0
:1038B000E0FEA3E0FF125061D003D002D001D0009F
:1038C000124E42C004C005C006C007900057E0FC7D
:1038D000A3E0FDA3E0FEA3E0FF900053E0F8A3E027
:1038E000F9A3E0FAA3E0FB124E42C004C005C006F3
:1038F000C00790004FE0FCA3E0FDA3E0FEA3E0FFC3
:1039000090004BE0F8A3E0F9A3E0FAA3E0FB124E2D
:1039100042D003D002D001D000124D51E4FBFAF99D
:103920007840124E42900023E0F8A3E0F9A3E0FAB9
:10393000A3E0FB124D4D90004FE0F8A3E0F9A3E0A7
:10394000FAA3E0FB124E42D003D002D001D0001205
:103950004D517B827A5179C37840124E4290002BB0
:103960001254C6900057E0FCA3E0FDA3E0FEA3E0E4
:10397000FF900053E0F8A3E0F9A3E0FAA3E0FB1204
:103980004E42C004C005C006C00790004FE0FCA333
:10399000E0FDA3E0FEA3E0FF90004BE0F8A3E0F918
:1039A000A3E0FAA3E0FB124E42D003D002D001D034
:1039B00000124D51E4FBFAF97840124E4290002378
:1039C000E0F8A3E0F9A3E0FAA3E0FB124D4D90006C
:1039D0004BE0F8A3E0F9A3E0FAA3E0FB124E42C0EB
:1039E00004C005C006C007900053E0FCA3E0FDA39F
:1039F000E0FEA3E0FF90004BE0F8A3E0F9A3E0FABB
:103A0000A3E0FB124E42C004C005C006C0079000F0
:103A100057E0FCA3E0FDA3E0FEA3E0FF90004FE031
:103A2000F8A3E0F9A3E0FAA3E0FB124E42D003D0E2
:103A300002D001D000124D4DE4FBFAF97840124E4D
:103A40004290001FE0F8A3E0F9A3E0FAA3E0FB1224
:103A50004D4D900057E0F8A3E0F9A3E0FAA3E0FB96
:103A6000124E42D003D002D001D000124D51C004FA
:103A7000C005C006C00790004FE0FCA3E0FDA3E036
:103A8000FEA3E0FF90004FE0F8A3E0F9A3E0FAA363
:103A9000E0FB124E42A804A905AA06AB07E4FFFE0C
:103AA000FD7C3F124D4DC004C005C006C00790000C
:103AB00053E0FCA3E0FDA3E0FEA3E0FF900053E091
:103AC000F8A3E0F9A3E0FAA3E0FB124E42A804A990
:103AD00005AA06AB07D007D006D005D004124D4D7D
:103AE000E4FBFAF97840124E42900027E0F8A3E098
:103AF000F9A3E0FAA3E0FB124D4DC004C005C006D7
:103B0000C007E4FFFEFD7C4090004FE0F8A3E0F921
:103B1000A3E0FAA3E0FB124E42D003D002D001D0C2
:103B200000124E42A804A905AA06AB07D007D0068A
:103B3000D005D004124D4D7B827A5179C378401262
:103B40004E4290002F1254C6900053E0FCA3E0FDBB
:103B5000A3E0FEA3E0FF90004BE0F8A3E0F9A3E0B0
:103B6000FAA3E0FB124E42C004C005C006C0079095
:103B70000057E0FCA3E0FDA3E0FEA3E0FF90004FB0
:103B8000E0F8A3E0F9A3E0FAA3E0FB124E42D00371
:103B9000D002D001D000124D4DE4FBFAF97840126A
:103BA0004E4290001FE0F8A3E0F9A3E0FAA3E0FB87
:103BB000124D4DC004C005C006C00790004BE0FC8C
:103BC000A3E0FDA3E0FEA3E0FF125061D003D0020A
:103BD000D001D000124E42C004C005C006C00790FC
:103BE0000057E0FCA3E0FDA3E0FEA3E0FF9000533C
:103BF000E0F8A3E0F9A3E0FAA3E0FB124E42C00410
:103C0000C005C006C00790004FE0FCA3E0FDA3E0A4
:103C1000FEA3E0FF90004BE0F8A3E0F9A3E0FAA3D5
:103C2000E0FB124E42D003D002D001D000124D5121
:103C3000E4FBFAF97840124E42900023E0F8A3E04A
:103C4000F9A3E0FAA3E0FB124D4D900057E0F8A372
:103C5000E0F9A3E0FAA3E0FB124E42D003D002D079
:103C600001D000124D51C004C005C006C00790002D
:103C70004FE0FCA3E0FDA3E0FEA3E0FF90004FE0D7
:103C8000F8A3E0F9A3E0FAA3E0FB124E42A804A9CE
:103C900005AA06AB07E4FFFEFD7C3F124D4DC004B4
:103CA000C005C006C007900053E0FCA3E0FDA3E000
:103CB000FEA3E0FF900053E0F8A3E0F9A3E0FAA32D
:103CC000E0FB124E42A804A905AA06AB07D007D014
:103CD00006D005D004124D4DE4FBFAF97840124E9F
:103CE00042900027E0F8A3E0F9A3E0FAA3E0FB127A
:103CF0004D4DC004C005C006C007E4FFFEFD7C407A
:103D0000900053E0F8A3E0F9A3E0FAA3E0FB124E21
:103D100042D003D002D001D000124E42A804A9051F
:103D2000AA06AB07D007D006D005D004124D4D7BB4
:103D3000827A5179C37840124E429000331254C6B1
:103D4000900057E0FCA3E0FDA3E0FEA3E0FF90009D
:103D500053E0F8A3E0F9A3E0FAA3E0FB124E42C05F
:103D600004C005C006C00790004FE0FCA3E0FDA31F
:103D7000E0FEA3E0FF90004BE0F8A3E0F9A3E0FA37
:103D8000A3E0FB124E42D003D002D001D000124D6E
:103D900051E4FBFAF97840124E42900023E0F8A378
:103DA000E0F9A3E0FAA3E0FB124D4D900053E0F8D8
:103DB000A3E0F9A3E0FAA3E0FB124E42C004C00561
:103DC000C006C007900053E0FCA3E0FDA3E0FEA303
:103DD000E0FF90004BE0F8A3E0F9A3E0FAA3E0FBDA
:103DE000124E42C004C005C006C007900057E0FC58
:103DF000A3E0FDA3E0FEA3E0FF90004FE0F8A3E006
:103E0000F9A3E0FAA3E0FB124E42D003D002D001A6
:103E1000D000124D4DE4FBFAF97840124E4290006A
:103E20001FE0F8A3E0F9A3E0FAA3E0FB124D4D90E8
:103E3000004FE0F8A3E0F9A3E0FAA3E0FB124E4242
:103E4000D003D002D001D000124D517B827A51793B
:103E5000C37840124E429000371254C6900043E09F
:103E6000FCA3E0FDA3E0FEA3E0FF900053E0F8A375
:103E7000E0F9A3E0FAA3E0FB124E42C004C005C083
:103E800006C00790003FE0FCA3E0FDA3E0FEA3E036
:103E9000FF90004FE0F8A3E0F9A3E0FAA3E0FB12E3
:103EA0004E42D003D002D001D000124D51C004C008
:103EB00005C006C007900047E0FCA3E0FDA3E0FEBC
:103EC000A3E0FF900057E0F8A3E0F9A3E0FAA3E035
:103ED000FB124E42D003D002D001D000124D51123D
:103EE0005061E4FBFAF9783F124E4290002BE0F863
:103EF000A3E0F9A3E0FAA3E0FB124D4D90000F12EE
:103F000054C6900043E0FCA3E0FDA3E0FEA3E0FF65
:103F1000900057E0F8A3E0F9A3E0FAA3E0FB124E0B
:103F200042C004C005C006C007900047E0FCA3E003
:103F3000FDA3E0FEA3E0FF900053E0F8A3E0F9A3A7
:103F4000E0FAA3E0FB124E42D003D002D001D00031
:103F5000124D4DC004C005C006C00790003FE0FCF4
:103F6000A3E0FDA3E0FEA3E0FF90004BE0F8A3E098
:103F7000F9A3E0FAA3E0FB124E42D003D002D00135
:103F8000D000124D51E4FBFAF9783F124E429000F6
:103F90002FE0F8A3E0F9A3E0FAA3E0FB124D4D9067
:103FA00000131254C6900047E0FCA3E0FDA3E0FE1E
:103FB000A3E0FF90004FE0F8A3E0F9A3E0FAA3E04C
:103FC000FB124E42C004C005C006C00790003FE08F
:103FD000FCA3E0FDA3E0FEA3E0FF900057E0F8A300
:103FE000E0F9A3E0FAA3E0FB124E42D003D002D0E6
:103FF00001D000124D4DC004C005C006C00790009E
:1040000043E0FCA3E0FDA3E0FEA3E0FF90004BE053
:10401000F8A3E0F9A3E0FAA3E0FB124E42D003D0EC
:1040200002D001D000124D51E4FBFAF9783F124E54
:1040300042900033E0F8A3E0F9A3E0FAA3E0FB121A
:104040004D4D9000171254C690003FE0FCA3E0FDD8
:10405000A3E0FEA3E0FF900053E0F8A3E0F9A3E0A3
:10406000FAA3E0FB124E42C004C005C006C0079090
:104070000043E0FCA3E0FDA3E0FEA3E0FF90004FBF
:10408000E0F8A3E0F9A3E0FAA3E0FB124E42D0036C
:10409000D002D001D000124D4DC004C005C006C0F2
:1040A00007900047E0FCA3E0FDA3E0FEA3E0FFA330
:1040B000E0F8A3E0F9A3E0FAA3E0FB124E42D0033C
:1040C000D002D001D000124D51E4FBFAF9783F1232
:1040D0004E42900037E0F8A3E0F9A3E0FAA3E0FB3A
:1040E000124D4D90001B1254C690004BE0F8A3E017
:1040F000F9A3E0FAA3E0FBC000C001C002C0039036
:10410000005BE0FCA3E0FDA3E0FEA3E0FF90000F56
:10411000E0F8A3E0F9A3E0FAA3E0FB124E42D003DB
:10412000D002D001D000124D5190004B1254C690D5
:10413000004FE0F8A3E0F9A3E0FAA3E0FBC000C061
:1041400001C002C00390005BE0FCA3E0FDA3E0FE21
:10415000A3E0FF900013E0F8A3E0F9A3E0FAA3E0E6
:10416000FB124E42D003D002D001D000124D51902C
:10417000004F1254C6900053E0F8A3E0F9A3E0FA10
:10418000A3E0FBC000C001C002C00390005BE0FCE4
:10419000A3E0FDA3E0FEA3E0FF900017E0F8A3E09A
:1041A000F9A3E0FAA3E0FB124E42D003D002D00103
:1041B000D000124D519000531254C6900057E0F8B1
:1041C000A3E0F9A3E0FAA3E0FBC000C001C002C075
:1041D00003A3E0FCA3E0FDA3E0FEA3E0FF90001B2F
:1041E000E0F8A3E0F9A3E0FAA3E0FB124E42D0030B
:1041F000D002D001D000124D519000571254C67B0E
:10420000017A00794B12704190004BE0FCA3E0FD75
:10421000A3E0FEA3E0FF900C9F1254C690004FE075
:10422000FCA3E0FDA3E0FEA3E0FF900CA31254C6A4
:10423000900053E0FCA3E0FDA3E0FEA3E0FF900CA0
:10424000A71254C6900057E0FCA3E0FDA3E0FEA334
:10425000E0FF900CAB1254C62230202D3E204E6F52
:104260006E650A31202D3E204C6F77202825752061
:1042700075732064656C617920666F722065616377
:104280006820382D6269742072656769737465727D
:104290002072656164290A32202D3E2048696768D2
:1042A000202825752075732064656C617920666F00
:1042B00072206561636820382D62697420726567B9
:1042C00069737465722072656164290A00506F72A7
:1042D000742025752049443A002575202D20446519
:1042E000766963652049443A002575202D20494DA3
:1042F0005520256420636F6E666967757261746905
:104300006F6E3A002575202D20535049207265614B
:10431000642064656C61793A00204E6F6E65002000
:104320004C6F7700204869676800000D0A004669F5
:10433000726D776172652076657273696F6E3A206F
:1043400000494D55626F617264207620312E310034
:104350000D0A0D0A0044455649434520494E464F33
:104360000D0A0049443A2025640D0A00494D5520A4
:10437000436F6E6E65637465643A2025640D0A00B0
:10438000494D557320434F4E464947555241544974
:104390004F4E0D0A00496D75202564200D0A09490C
:1043A000443A2025640D0A0009416363656C657217
:1043B0006F6D65746572733A20005945530D0A009C
:1043C0004E4F0D0A00094779726F73636F70657302
:1043D0003A2000094D61676E65746F6D6574657292
:1043E000733A2000095175617465726E696F6E3A97
:1043F00020000954656D70657261747572653A20AC
:104400000054696D65206265747765656E20747708
:104410006F2072656164696E67206379636C657390
:104420003A20252E3366206D730064656275673A05
:1044300020256C640053454E534F525320494E463D
:104440004F0D0A00094163633A2025640925640978
:1044500025640D0A00094779726F3A202564092501
:10446000640925640D0A00094D61673A2025640935
:1044700025640925640D0A0009517561743A2025E7
:104480002E336609252E336609252E336609252E1F
:1044900033660D0A000954656D706572617475723A
:1044A000653A2025640D0A000000000000000000AD
:1044B00000000000000000000000000000000000FC
:1044C00000000000000000000000000000000000EC
:1044D00000000000000000000000000000000000DC
:1044E00000000000000000000000000000000000CC
:104C4000000000000000004E756D626572206F6606
:104C500020636F6E6E656374656420494D55733AC9
:104C60000000000000000000000000004D6167200F
:104C700063616C20706172616D65746572733A0076
:104C80000000000000000000000000000000000024
:104C90000000000000000000000000000000000014
:104CA0000000000000000000000000000000000004
:104CB00000000000000000000000000000000000F4
:104CC00000000000000000000000000000000000E4
:104CD00000000000000000000000000000000000D4
:104CE00000000000000000000000000000000000C4
:104CF00000000000000000000000000000000000B4
:104D000000000000000000000000000000000000A3
:104D10000000000000000000000000000000000093
:104D20000000000000000000000000000000000083
:104D30000000000000000000000000000000000073
:104D4000000000000000000000000250E5E8648060
:104D5000F8E933E83360110460F0ED33EC337009A7
:104D6000E8FCE9FDEAFEEBFF220460DED3EB9FEAFC
:104D70009EE99DE8C2E78CF0C2F795F0400CE8CCC4
:104D8000F8E9CDF9EACEFAEBCFFB1250B085D0F0BE
:104D90005804700320D5B3E80470075002B2D5025E
:104DA00050EF92D5EC0460F7E4CCC0E0C398F86013
:104DB0003B94186008400DD0E0FB0250C7E4FBFABA
:104DC000C9FC8028E830E406E4C9FBE4CAFCE8300A
:104DD000E305E4C9CACBFCE854076010F8C3E91343
:104DE000F9EA13FAEB13FBEC13FCD8F130F52FC3FF
:104DF000E49CFCEF9BFFEE9AFEED99FDD0E0FBEF0B
:104E00004E4D4C701222DB030250ECEC2CFCEF33C5
:104E1000FFEE33FEED33FDED30E7EB0250C7EF2B35
:104E2000FFEE3AFEED39FDD0E0FB50130BBB000363
:104E30000250EFED13FDEE13FEEF13FFEC13FC0237
:104E400050C7EC4D6011E8497017ED33EC33046046
:104E50000DE4FCFFFEFD22E933E8330470F8025054
:104E6000E51250B058046009E4CC24815006285063
:104E7000090250EF2840030250ECC0E0EB4A7044B6
:104E8000B98006D0E0FB0250DBEF4E701CBD8008FD
:104E9000EBFFEAFEE9FD80EBE98DF0A4FEE5F00210
:104EA0004F2BE9CDF9EAFEEBFFEF89F0A4FCE5F02A
:104EB000CE89F0A42EFFE435F0CD89F0A42DFEE4D8
:104EC00035F08067EF4E7005BD80D780C3EF8BF063
:104ED000A4ACF0EE8BF0A42CFCE435F0F8EF8AF0F3
:104EE000A42CE5F038FCE433CB8DF0A42CFCE5F0E9
:104EF0003BF8EE8AF0A42CFCE5F038F8E433CF89D7
:104F0000F0A42CFCE5F038CF3400CE89F0A42FFFBC
:104F1000E5F03EFEE433C98DF0A42EFEE5F039CD78
:104F20008AF0A42FFFE5F03EFEE43DFD33D0E0FB28
:104F300050070BBB000F0250EFEC2CFCEF33FFEEE1
:104F400033FEED33FD0250C70250EFEC5D04600507
:104F5000E8590470030250E51250B0580460F6ECB2
:104F60004860F2EC7004FDFEFF22C860DB2481C8BB
:104F70005009C398600250060250EC9850CAF5825E
:104F8000E9294B4A7005AB820250DB75F0007C1AB0
:104F90007880C3EF9BEE9AED99400DC3EF9BFFEE37
:104FA0009AFEED99FDE842F0DC23ACF0D0E0FFD0B2
:104FB000E0FED0E0FDAB8220E7101BEB60BAEC2CEA
:104FC000FCEF33FFEE33FEED33FD0250C7E803F88C
:104FD00030E705C0F075F000EF2FFFEE33FEED3344
:104FE000FD40B830E7C280AA74F8CC6480CCC864B5
:104FF00080C8F58204604FC3EB9FF5F0EA9E42F053
:10500000E99D42F0E89C45F0603C501DE5825FFF61
:10501000E582D313CB5BCBF42B5582FB50280ABA25
:10502000002409B9002008801DE5825BFBE582D3DE
:1050300013CF5FCFF4C3132F5582FF50090EBE006C
:10504000050DBD00010CC3EB9FF5F0EA9E42F0E9AF
:105050009D42F0E89C45F06007CC4820E701B3ECA6
:1050600022ED33EC33600A047003BD8004ECB2E738
:10507000FC2275F020800E75F010800575F0087D1B
:10508000007E007F003392D530D503125433EC33C9
:105090004010EF33FFEE33FEED33FDEC33FCD5F083
:1050A000ED22E5F0247EA2D513CC92E7CDCEFF22EF
:1050B000E9D2E7C933E833F892D5EDD2E7CD33EC46
:1050C00033FC5002B2D522EC30E7100FBF000C0EBB
:1050D000BE00080DBD00040BEB6014A2D5EB13FC61
:1050E000ED92E7FD2274FFFCFDFEFF22E480F8A2B2
:1050F000D574FF13FC7D80E480EFF920E73624F9B6
:1051000050037907E4F42402FBE58215827002154E
:1051100083DBF6E024FB501BE96014E4F0E5821524
:105120008270021583E004F0B40A08E4F0D9EE744A
:1051300001F00A22C2D522ED33EC3392D5FA602A6F
:10514000B4FF33EDC2E77BFF60067A51795CE4225D
:105150007A51796520D5047A517960224E614E00EA
:105160002B494E46002D494E4600E47A08F0A3DA5A
:10517000FC7B00740722C083C082ECC0E0EDC0E07D
:10518000EEC0E0EFC0E0EA75F010A4CAABF075F035
:105190004DA42BFBE435F0FCEA2410FAEB34C5FBFC
:1051A000EC34D9FCEDC2E7FF75F056A4F42411C528
:1051B000F0F434C58FF0A42AE5F03BE43CF020E79E
:1051C0001412526CD0E0FFD0E0FED0E0FDD0E0FC45
:1051D000124F4B8014F40412526CD0E0FFD0E0FE6A
:1051E000D0E0FDD0E0FC124E42D082D083E0FAED58
:1051F000D2E7CD33EC332482FBE4C3CF33CFCE33BD
:10520000CECD33CD33DBF37B0775F00A846004F039
:10521000A31B0AE5F0F0A38FF0740AA4FFACF08E94
:10522000F0740AA42CFEACF050010C8DF0740AA4AA
:105230002CFDE435F0F0A3DBDE7407223F80000094
:105240004120000042C80000447A0000461C400093
:1052500047C35000497424004B1896804CBEBC20B4
:105260005A0E1BCA6753C21C749DC5AEFB60065420
:1052700007601C232312529AEB543860091252869D
:10528000125295124E42ECF8EDF9EEFAEFCB22EB0A
:1052900012529580F1543803241C90523CFE93FC2A
:1052A0000EEE93FD0EEE930ECE93FF22BB01068908
:1052B000828A83E0225002E722BBFE02E322898237
:1052C0008A83E49322BB010CE58229F582E5833AC7
:1052D000F583E0225006E92582F8E622BBFE06E9C6
:1052E0002582F8E222E58229F582E5833AF583E416
:1052F0009322BB010689828A83F0225002F722BBE7
:10530000FE01F322EF8DF0A4A8F0CF8CF0A428CEFC
:105310008DF0A42EFE22E88FF0A4CC8BF0A42CFC00
:10532000E98EF0A42CFC8AF0EDA42CFCEA8EF0A40B
:10533000CDA8F08BF0A42DCC3825F0FDE98FF0A49A
:105340002CCD35F0FCEB8EF0A4FEA9F0EB8FF0A491
:10535000CFC5F02ECD39FEE43CFCEAA42DCE35F0CD
:10536000FDE43CFC2275F008758200EF2FFFEE3360
:10537000FECD33CDCC33CCC58233C5829BED9AECC8
:1053800099E58298400CF582EE9BFEED9AFDEC9932
:10539000FC0FD5F0D6E4CEFBE4CDFAE4CCF9A8823C
:1053A00022B800C1B90059BA002DEC8BF084CFCEE1
:1053B000CDFCE5F0CBF97818EF2FFFEE33FEED339F
:1053C000FDEC33FCEB33FB10D703994004EB99FB66
:1053D0000FD8E5E4F9FA227818EF2FFFEE33FEED4F
:1053E00033FDEC33FCC933C910D7059BE99A40075C
:1053F000EC9BFCE99AF90FD8E0E4C9FAE4CCFB2273
:1054000075F010EF2FFFEE33FEED33FDCC33CCC83B
:1054100033C810D7079BEC9AE899400AED9BFDEC46
:105420009AFCE899F80FD5F0DAE4CDFBE4CCFAE485
:10543000C8F922C3E49FFFE49EFEE49DFDE49CFCCA
:1054400022EB9FF5F0EA9E42F0E99D42F0E89C4590
:10545000F022E8600FECC313FCED13FDEE13FEEF3A
:1054600013FFD8F122E86010ECA2E713FCED13FD66
:10547000EE13FEEF13FFD8F022E8600FEFC333FF07
:10548000EE33FEED33FDEC33FCD8F122BB0107898E
:10549000828A830257A15005E9F8025795BBFE05A1
:1054A000E9F80257AD89828A830257B9BB0107899F
:1054B000828A830254C65005E9F80257C9BBFE052B
:1054C000E9F80257D522ECF0A3EDF0A3EEF0A3EF3C
:1054D000F022F5F0C582A4C582C5F0C583A425835A
:1054E000F58322A42582F582E5F03583F58322F841
:1054F000E0FBA3A3E0F925F0F0E582158270021528
:1055000083E0FA38F022EBF0A3EAF0A3E9F022D02E
:1055100083D082F8E4937012740193700DA3A39367
:10552000F8740193F5828883E4737402936860EFE2
:10553000A3A3A380DFE5292582F582E5283583F53D
:1055400083B528048582292210AF06858229F52893
:1055500022858229F528D2AF22EC8EF0A4CCC5F0AA
:10556000CCCDF8EFA4CEC5F02DFDE43CFCE8A42E94
:10557000C8C5F03DFDE43CFCEFA4FFE5F028FEE4E7
:105580003DFDE43CFC22EF4E6012EF60010EEDBBEE
:10559000010B89828A83F0A3DFFCDEFA2289F050B6
:1055A00007F709DFFCA9F022BBFEFCF309DFFCA929
:1055B000F022E709F608DFFA8046E709F208DFFA89
:1055C000803E88828C83E709F0A3DFFA8032E3090A
:1055D000F608DFFA806EE309F208DFFA8066888257
:1055E0008C83E309F0A3DFFA805A89828A83E0A3DF
:1055F000F608DFFA804E89828A83E0A3F208DFFA98
:10560000804280D280FA80C680D4805580F2802982
:10561000801080A680EA809A80A880DA80E280CA22
:10562000802988848C8589828A83E493A30586F007
:10563000A30586DFF5DEF3800B89828A83E493A3DA
:10564000F608DFF9ECFAA9F0EDFB2288848C858955
:10565000828A83E0A30586F0A30586DFF6DEF48068
:10566000E389828A83E493A3F208DFF980D688F085
:10567000EF60010E4E60CD88F0ED2402B4040050BE
:10568000C3F582EB2402B4040050B92323458223DE
:1056900090560273E709F60870FA8046E709F208A7
:1056A00070FA803E88828C83E709F0A370FA8074D8
:1056B000E309F60870FA806CE309F20870FA806476
:1056C00088828C83E309F0A370FA805889828A83E8
:1056D000E0A3F60870FA804C89828A83E0A3F2087E
:1056E00070FA804080D280FA80C680D4805180F2E7
:1056F0008027801080A680EA809A80A880DA80E2E5
:1057000080CA802788848C8589828A83E493A30554
:1057100086F0A3058670F5800B89828A83E493A3C3
:10572000F60870F9ECFAA9F0EDFB2288848C8589E3
:10573000828A83E0A30586F0A3058670F680E5895A
:10574000828A83E493A3F20870F980D888F0ED246C
:1057500002B4040050CEF582EB2402B4040050C41D
:1057600023234582239056E473C5F0F8A3E028F084
:10577000C5F0F8E582158270021583E038F022A3A7
:10578000F8E0C5F025F0F0E582158270021583E09F
:10579000C838F0E822E6FC08E6FD08E6FE08E6FF69
:1057A00022E0FCA3E0FDA3E0FEA3E0FF22E2FC0870
:1057B000E2FD08E2FE08E2FF22E493FC740193FD9F
:1057C000740293FE740393FF22ECF608EDF608EEE4
:1057D000F608EFF622ECF208EDF208EEF208EFF22E
:1057E00022900000EBF0A3EAF0A3E9F09008DFE0DC
:1057F00064FA7003025D59900000E0FBA3E0FAA395
:10580000E0F8AC02AD037BFF7A43792A12574C9043
:1058100008B174FFF0A37443F0A3742BF090000060
:10582000E0FBA3E0FAA3E0F91286879008B174FFC9
:10583000F0A37443F0A3742EF0900000E0FBA3E00B
:10584000FAA3E0F91286879008B174FFF0A37443BD
:10585000F0A37441F0900000E0FBA3E0FAA3E0F9AC
:105860001286879008B174FFF0A37443F0A37450BC
:10587000F0900000E0FBA3E0FAA3E0F91286879025
:1058800008B174FFF0A37443F0A37455F0900000C6
:10589000E0FBA3E0FAA3E0F91286879008B174FF59
:1058A000F0A37443F0A37463F09008DFE0FF900866
:1058B000B4E4F0A3EFF07B017A007905125DBF90AC
:1058C00008B17401F0A37400F0A37405F090000017
:1058D000E0FBA3E0FAA3E0F91286879008B174FF19
:1058E000F0A37443F0A3746CF0900C16E0FF9008E2
:1058F000B4E4F0A3EFF07B017A007905125DBF906C
:1059000008B17401F0A37400F0A37405F0900000D6
:10591000E0FBA3E0FAA3E0F91286879008B174FFD8
:10592000F0A37443F0A3742BF0900000E0FBA3E01D
:10593000FAA3E0F91286879008B174FFF0A37443CC
:10594000F0A37480F0900000E0FBA3E0FAA3E0F97C
:10595000128687E4900003F0A3F0900C16E0FFC3DA
:10596000900004E09F7480F8900003E06480984009
:1059700003025BFF9008B174FFF0A37443F0A374BB
:1059800095F0900003E0FEA3E0FF9008B4EEF0A3D2
:10599000EFF02437F58274093EF583E0FF9008B6F6
:1059A000E4F0A3EFF07B017A007905125DBF900867
:1059B000B17401F0A37400F0A37405F0900000E04E
:1059C000FBA3E0FAA3E0F91286879008B174FFF018
:1059D000A37443F0A374A8F07B017A007905125DEB
:1059E000BF900003E0FEA3E02437F58274093EF582
:1059F00083E075F005A424E2F582E43408F583E041
:105A000060199008B174FFF0A37443F0A374BAF066
:105A10007B017A00790512868780179008B174FFA0
:105A2000F0A37443F0A374C0F07B017A00790512EF
:105A300086879008B174FFF0A37443F0A374C5F097
:105A40007B017A007905128687900003E0FEA3E0CF
:105A50002437F58274093EF583E075F005A424E34C
:105A6000F582E43408F583E060199008B174FFF022
:105A7000A37443F0A374BAF07B017A00790512860F
:105A80008780179008B174FFF0A37443F0A374C02B
:105A9000F07B017A0079051286879008B174FFF0D7
:105AA000A37443F0A374D3F07B017A0079051286C6
:105AB00087900003E0FEA3E02437F58274093EF5E9
:105AC00083E075F005A424E4F582E43408F583E06E
:105AD00060199008B174FFF0A37443F0A374BAF096
:105AE0007B017A00790512868780179008B174FFD0
:105AF000F0A37443F0A374C0F07B017A007905121F
:105B000086879008B174FFF0A37443F0A374E4F0A7
:105B10007B017A007905128687900003E0FEA3E0FE
:105B20002437F58274093EF583E075F005A424E579
:105B3000F582E43408F583E060199008B174FFF051
:105B4000A37443F0A374BAF07B017A00790512863E
:105B50008780179008B174FFF0A37443F0A374C05A
:105B6000F07B017A0079051286879008B174FFF006
:105B7000A37443F0A374F2F07B017A0079051286D6
:105B800087900003E0FEA3E02437F58274093EF518
:105B900083E075F005A424E6F582E43408F583E09B
:105BA00060199008B174FFF0A37443F0A374BAF0C5
:105BB0007B017A00790512868780179008B174FFFF
:105BC000F0A37443F0A374C0F07B017A007905124E
:105BD00086879008B17401F0A37400F0A37405F0F7
:105BE000900000E0FBA3E0FAA3E0F91286879000A2
:105BF00004E004F07006900003E004F002595A90AB
:105C000008B174FFF0A37443F0A3742BF09000006C
:105C1000E0FBA3E0FAA3E0F91286879008B174FFD5
:105C2000F0A37444F0A37401F0900D15E0F8A3E024
:105C3000F9A3E0FAA3E0FB901068E0FCA3E0FDA369
:105C4000E0FEA3E0C39BFFEE9AFEED99FDEC98FC0D
:105C5000E4125072E4FBFA797A7844124F4B9008C0
:105C6000B41254C67B017A007905125DBF9008B169
:105C70007401F0A37400F0A37405F0900000E0FB41
:105C8000A3E0FAA3E0F91286879008B174FFF0A3AD
:105C90007443F0A3742BF0900000E0FBA3E0FAA3A0
:105CA000E0F91286879008B174FFF0A37443F0A363
:105CB000742BF0900000E0FBA3E0FAA3E0F9128659
:105CC000879008B174FFF0A37444F0A3742AF09095
:105CD0000D15E0F8A3E0F9A3E0FAA3E0FB9010684B
:105CE000E0FCA3E0FDA3E0FEA3E0C39BFFEE9AFE71
:105CF000ED99FDEC98FC9008B41254C67B017A0033
:105D00007905125DBF9008B17401F0A37400F0A38F
:105D10007405F0900000E0FBA3E0FAA3E0F912861E
:105D2000879008B174FFF0A37443F0A3742BF09034
:105D30000000E0FBA3E0FAA3E0F91286879008B127
:105D400074FFF0A37443F0A3742BF0900000E0FB09
:105D5000A3E0FAA3E0F912868722E51A24B1F582BE
:105D6000E43408F583E0051A229008AE3008039069
:105D700008B1E475F0011254EF0252AC2001E97F42
:105D80002ED2018018EF540F2490D43440D4FF3029
:105D9000050BEF24BFB41A0050032461FFE51B601C
:105DA00002151B051EE51E7002051D30080E900829
:105DB000AEE475F0011254EFEF0252F2028DB974A5
:105DC00003D2088003E4C208F51A9008AE12550603
:105DD000E4F51BF51DF51EE51B60077F20125D9D98
:105DE00080F5751CFFC202C201C203C204C206C212
:105DF00007C209125D69FF700D3008057F00125D52
:105E0000AEAF1EAE1D22B4255FC2D5C205125D69BC
:105E1000FF24D0B40A00501A75F00A781B30D5055B
:105E200008B6FF0106C6A426F620D5047002D204E7
:105E300080D924CFB41A00EF5004C2E5D205026025
:105E4000A0D20280C6D20180C0D20380BCD2D5804D
:105E5000BAD20680B47F20125D9D2003077401B57D
:105E60001B0040F1125D5AFF125D9D025DD7D20901
:105E7000D2078095125D5AFB125D5AFA125D5AF9EB
:105E80004A4B7006799E7A617BFF20032EE51B60EA
:105E90002A7E008E827583001252C560060EEE6562
:105EA0001C70F0C2D5EBC0E0EAC0E0E9C0E0EE1241
:105EB0006101D0E0F9D0E0FAD0E0FB1252ACFF6013
:105EC000AAEBC0E0EAC0E0E9C0E0125D9DD0E024AA
:105ED00001F9D0E03400FAD0E0FBE51C0460DCD529
:105EE0001CD98087D20380A21260E360F7E51C70A2
:105EF00001041250FAA91C600DE51C600914F51C80
:105F000012618BEF60F3EA30E702F404C399507931
:105F1000EAF4251C0430E701E404F51C800D12604E
:105F2000E360C1EA051C251C1250FAEA9008DDF076
:105F300030E701E4251C04D51C042006011412617D
:105F400001E4C0E012618B9008DDE0601320E707F8
:105F500014F0125D85802204F0D0E014C0E07F00D0
:105F6000125D85E51C6007125D7C151C800B3006F8
:105F700003125D7CD0E0025DD7D0E00480C41260E3
:105F8000E3609EE51C041250FA9008DDEAF0E51C7F
:105F9000200602600104240412610174FF04C0E0C1
:105FA00012618B125D85E51C2006026003125D7C88
:105FB000D0E0B51CE87F45125D8F9008DDE07F2BB7
:105FC00030E7047F2DF404C0E0125D9DD0E075F051
:105FD0000A84C0F0125D86D0E0125D86025DD7793A
:105FE0001080027908C207C2098008D2D5790A80D8
:105FF00004790AC2D5E51C047002F51CE4FAFDFE22
:10600000FF125D5AFC7B08200213125D5AFD7B10C3
:1060100030010A125D5AFE125D5AFF7B20EC33827A
:10602000D592D55013C3E43001069FFFE49EFEE4F1
:106030002002039DFDE49CFCE4CBF8C202EC700C52
:10604000CFCECDCCE824F8F870F38017C3EF33FF40
:10605000EE33FEED33FDEC33FCEB33FB994002FBFA
:106060000FD8E9EB300205F8D0E0C448B202C0E036
:106070000AEC4D4E4F78207B0070C2EAB51C004000
:10608000BCC0E0126103D0F0D0E0200204C4C0E044
:10609000C4B202C0F0125D86D0F0D5F0EB025DD73D
:1060A00012550F5E74535FDF585E454C5E41425F90
:1060B000E34F5FEB445FEB495E5A435FF1555F1E70
:1060C000465F7E455EE84761BE505E492D5E4D2EBF
:1060D0005E702B5E51235E6E2061A72A5E09480028
:1060E000005E68E51CB4FF03751C06125D5AFC12C5
:1060F0005D5AFD125D5AFE125D5AFF9008D602519C
:1061000037790AA2D5200414300609B91002040414
:10611000B9080104A2D520070250010420036892A7
:1061200003B51B005034C0E07F203004197F30A23B
:106130000372077206500F12615AC203C207C206E9
:10614000C2097F30800F300603E9C0E0125D9D3048
:106150000603D0E0F9D0E0B51BCC3006177F30B98C
:10616000100C125D9D7F583005077F788003B908B9
:1061700003125D9D3003057F2D025D9D7F20200968
:10618000F87F2B2007F322920380CF7F00B4070013
:10619000500B24D6F582E43408F583E0FF22286E04
:1061A000756C6C2900D202125D5A3002F8C2027876
:1061B0001B30D50108F6025E092D50434958125D87
:1061C0005A2403B405004001E49061B993125D8E36
:1061D000743A125D8ED204751B04025FDF900000DA
:1061E000EBF0A3EAF0A3E9F0900000E0FBA3E0FAF3
:1061F000A3E0F8AC02AD037BFF7A43792A12574C37
:106200009008B174FFF0A37443F0A3742BF09000D6
:1062100000E0FBA3E0FAA3E0F91286879008B174CE
:10622000FFF0A37444F0A37435F0900000E0FBA3EA
:10623000E0FAA3E0F9128687E4900003F0A3F0905F
:106240000C16E0FFC3900004E09F7480F8900003F8
:10625000E064809840030266579008B174FFF0A391
:106260007443F0A37495F0900003E0FEA3E0FF9068
:1062700008B4EEF0A3EFF02437F58274093EF583FD
:10628000E0FF9008B6E4F0A3EFF07B017A00790517
:10629000125DBF9008B17401F0A37400F0A37405FF
:1062A000F0900000E0FBA3E0FAA3E0F912868790EB
:1062B0000003E0FEA3E0FF2437F58274093EF58376
:1062C000E075F005A424E2F582E43408F583E0707B
:1062D000030263699008B174FFF0A37444F0A374DF
:1062E00044F09009A275F025EF1254E3EE75F02505
:1062F000A42583F583E0FDA3E09008B4CDF0A3EDE1
:10630000F09009A475F025EF1254E3EE75F025A482
:106310002583F583E0FFA3E09008B6CFF0A3EFF06C
:10632000900003E0A3E09009A675F0251254E3EE77
:1063300075F025A42583F583E0FFA3E09008B8CF8E
:10634000F0A3EFF07B017A007905125DBF9008B1F0
:106350007401F0A37400F0A37405F0900000E0FB5A
:10636000A3E0FAA3E0F9128687900003E0FEA3E021
:10637000FF2437F58274093EF583E075F005A42407
:10638000E3F582E43408F583E070030264239008A7
:10639000B174FFF0A37444F0A37455F09009A8758C
:1063A000F025EF1254E3EE75F025A42583F583E084
:1063B000FDA3E09008B4CDF0A3EDF09009AA75F02C
:1063C00025EF1254E3EE75F025A42583F583E0FF55
:1063D000A3E09008B6CFF0A3EFF0900003E0A3E0B5
:1063E0009009AC75F0251254E3EE75F025A42583D1
:1063F000F583E0FFA3E09008B8CFF0A3EFF07B01B6
:106400007A007905125DBF9008B17401F0A37400A1
:10641000F0A37405F0900000E0FBA3E0FAA3E0F91C
:10642000128687900003E0FEA3E0FF2437F5827414
:10643000093EF583E075F005A424E4F582E4340810
:10644000F583E070030264DD9008B174FFF0A3747B
:1064500044F0A37467F09009AE75F025EF1254E391
:10646000EE75F025A42583F583E0FDA3E09008B444
:10647000CDF0A3EDF09009B075F025EF1254E3EEE6
:1064800075F025A42583F583E0FFA3E09008B6CF3F
:10649000F0A3EFF0900003E0A3E09009B275F025BF
:1064A0001254E3EE75F025A42583F583E0FFA3E005
:1064B0009008B8CFF0A3EFF07B017A007905125D68
:1064C000BF9008B17401F0A37400F0A37405F090BC
:1064D0000000E0FBA3E0FAA3E0F912868790000336
:1064E000E0FEA3E02437F58274093EF583E075F001
:1064F00005A424E5F582E43408F583E07003026521
:10650000D29008B174FFF0A37444F0A37478F090B3
:106510000003E0FAA3E0FB9009B475F0251254E300
:10652000EA75F025A42583F583E0FCA3E0FDA3E054
:10653000FEA3E0FF9008B41254C69009B875F02588
:10654000EB1254E3EA75F025A42583F583E0FCA360
:10655000E0FDA3E0FEA3E0FF9008B81254C690004F
:1065600003E0FAA3E0FB9009BC75F0251254E3EABE
:1065700075F025A42583F583E0FCA3E0FDA3E0FEF0
:10658000A3E0FF9008BC1254C69009C075F025EB3B
:106590001254E3EA75F025A42583F583E0FCA3E01B
:1065A000FDA3E0FEA3E0FF9008C01254C67B017A71
:1065B000007905125DBF9008B17401F0A37400F07A
:1065C000A37405F0900000E0FBA3E0FAA3E0F91249
:1065D0008687900003E0FEA3E0FF2437F58274096C
:1065E0003EF583E075F005A424E6F582E43408F571
:1065F00083E060529008B174FFF0A37444F0A37478
:1066000095F09009C475F025EF1254E3EE75F0256E
:10661000A42583F583E0FFA3E09008B4CFF0A3EFB7
:10662000F07B017A007905125DBF9008B17401F02A
:10663000A37400F0A37405F0900000E0FBA3E0FA5F
:10664000A3E0F9128687900004E004F07006900041
:1066500003E004F002623F229000017401F0E4A321
:10666000F0A304F0A374A1F0E4900000F0900C16E5
:10667000E0FF900000E0FEC39F4003026A1F90010C
:1066800062743AF074372EF582E43409F583E075CC
:10669000F005A424E2F582E43408F583E0607B9001
:1066A0000000E0FF75F025A424A2F582E5F034098E
:1066B000F583E0FCA3E0FD900001E0FE2462F5829A
:1066C000E43401F583ECF0A3EDF075F025EFA4249C
:1066D000A4F582E5F03409F583E0FCA3E0FD7464E1
:1066E0002EF582E43401F583ECF0A3EDF090000088
:1066F000E075F025A424A6F582E5F03409F583E0E1
:10670000FCA3E0FD74662EF582E43401F583ECF021
:10671000A3EDF0900001E02406F0900000E0FF24DB
:1067200037F582E43409F583E075F005A424E3F538
:1067300082E43408F583E06078900000E0FE75F0B4
:1067400025A424A8F582E5F03409F583E0FCA3E054
:10675000FD900001E0FB2462F582E43401F583EC56
:10676000F0A3EDF075F025EEA424AAF582E5F0344F
:1067700009F583E0FCA3E0FD74642BF582E43401A9
:10678000F583ECF0A3EDF075F025EFA424ACF582D1
:10679000E5F03409F583E0FEA3E0FF74662BF58293
:1067A000E43401F583EEF0A3EFF0900001E024065D
:1067B000F0900000E0FF2437F582E43409F583E02F
:1067C00075F005A424E4F582E43408F583E06078EC
:1067D000900000E0FE75F025A424AEF582E5F034CB
:1067E00009F583E0FCA3E0FD900001E0FB2462F5E5
:1067F00082E43401F583ECF0A3EDF075F025EEA40E
:1068000024B0F582E5F03409F583E0FCA3E0FD74E3
:10681000642BF582E43401F583ECF0A3EDF075F020
:1068200025EFA424B2F582E5F03409F583E0FEA358
:10683000E0FF74662BF582E43401F583EEF0A3EFFC
:10684000F0900001E02406F0900000E02437F5828B
:10685000E43409F583E075F005A424E5F582E43419
:1068600008F583E07003026918900000E0FB75F002
:1068700025A424B4F582E5F03409F583E0FCA3E017
:10688000FDA3E0FEA3E0FF900001E0FA2462F582A0
:10689000E43401F5831254C675F025EBA424B8F551
:1068A00082E5F03409F583E0FCA3E0FDA3E0FEA35C
:1068B000E0FF74662AF582E43401F5831254C69031
:1068C0000000E0FB75F025A424BCF582E5F0340956
:1068D000F583E0FCA3E0FDA3E0FEA3E0FF746A2AD9
:1068E000F582E43401F5831254C675F025EBA42437
:1068F000C0F582E5F03409F583E0FCA3E0FDA3E0F8
:10690000FEA3E0FF746E2AF582E43401F58312548D
:10691000C6900001E02410F0900000E0FF2437F55D
:1069200082E43409F583E075F005A424E6F582E4F9
:106930003408F583E0602D75F025EFA424C4F582BA
:10694000E5F03409F583E0FEA3E0FF900001E024C8
:1069500062F582E43401F583EEF0A3EFF0900001DC
:10696000E02402F0900000E02437F582E43409F5D9
:1069700083E025E02446F582E43410F583E0FEA3AD
:10698000E02461F58274013EF583743AF0900001D1
:106990007401F0E4A3F0900000E02437F582E434C1
:1069A00009F583E0F925E02446F582E43410F58307
:1069B000E0FEA3E0FF900002E0FDD3EF9D7480F8BD
:1069C000EE648098402BE0FF2462F582E43401F508
:1069D00083E0FEEF900003E02DFDE433FC74042D12
:1069E000F58274003CF583EEF0900002E004F08044
:1069F000A5E925E02446F582E43410F583E0A3E020
:106A0000FF900003E02FF07E007F167D007B017A6F
:106A1000017962125586900000E004F002666D7BF9
:106A2000017A0079049010D2E0A3E014FD128C3BAF
:106A30009010D2E0FCA3E0FD2403F58274003CF545
:106A400083EFF07B017A0079041283FA22E490004C
:106A500000F0A3F0A3F0A3F0A3F0A3F0A3F0A3F041
:106A6000901627F0900C16E0FF901627E0FEC39FCB
:106A70004003026D8774372EF582E43409F583E014
:106A8000FF7E00128A5C901627E02437F582E434FA
:106A900009F583E0FF7E001282B4E4900004F0A3C5
:106AA000F0900004E0FEA3E0FFC39403EE940040E6
:106AB00003026B48EF25E0FFEE33FE901627E0F966
:106AC0002437F582E43409F583E0FD75F006A4244B
:106AD0006CF582E43410F583E5822FF582E5833E80
:106AE000F583E0FB900000E4F0A3EBF0ED75F00619
:106AF000A4246DF582E43410F583E5822FF582E558
:106B0000833EF583E0FD900001E0FCED900005E0A0
:106B100025E0FF900004E033FE75F025E9A424D2BF
:106B2000F582E5F0340DF583E5822FF582E5833EAD
:106B3000F583ECF0A3EDF0900005E004F070069012
:106B40000004E004F0026AA1E4900004F0A3F090D5
:106B50000004E0FEA3E0FFC39403EE9400400302B0
:106B60006BF6EF25E0FFEE33FE901627E0F92437B1
:106B7000F582E43409F583E0FD75F006A424AFF551
:106B800082E4340CF583E5822FF582E5833EF583BC
:106B9000E0FB900000E4F0A3EBF0ED75F006A42418
:106BA000B0F582E4340CF583E5822FF582E5833E6F
:106BB000F583E0FD900001E0FCED900005E025E0AC
:106BC000FF900004E033FE75F025E9A424D8F58297
:106BD000E5F0340DF583E5822FF582E5833EF583FC
:106BE000ECF0A3EDF0900005E004F07006900004D6
:106BF000E004F0026B4FE4900004F0A3F090000476
:106C0000E0FEA3E0FFC39403EE94004003026CA4F3
:106C1000EF25E0FFEE33FE901627E0F92437F582EA
:106C2000E43409F583E0FD75F006A42417F582E449
:106C3000340CF583E5822FF582E5833EF583E0FB96
:106C4000900000E4F0A3EBF0ED75F006A42418F535
:106C500082E4340CF583E5822FF582E5833EF583EB
:106C6000E0FD900001E0FCED900005E025E0FF90E4
:106C70000004E033FE75F025E9A424DEF582E5F09A
:106C8000340DF583E5822FF582E5833EF583ECF044
:106C9000A3EDF0900005E004F07006900004E0041D
:106CA000F0026BFDE4900004F0A3F0901627E07072
:106CB0007F900004E0FEA3E0FFC39404EE94005034
:106CC0006FEF7802C333CE33CED8F9249FF58274A8
:106CD0000C3EF583E0FCA3E0FDA3E0FEA3E0FFC0D3
:106CE00004C005C006C007900004E0FEA3E07802DF
:106CF000C333CE33CED8F9FF901627E075F025A424
:106D000024E4F582E5F0340DF583E5822FF582E584
:106D1000833EF583D007D006D005D0041254C69028
:106D20000005E004F07006900004E004F0026CAB93
:106D3000901627E0FD2437F582E43409F583E0FF5F
:106D400025E0247DF582E4340CF583E0FB9000001F
:106D5000E4F0A3EBF0EF25E0247EF582E4340CF5BB
:106D600083E0FB900001E0FEEBFF75F025EDA4242D
:106D7000F4F582E5F0340DF583EEF0A3EFF0901614
:106D800027E004F0026A6422E4900001F0FE7F250F
:106D9000FD7B017A0979A11255867E007F117D0065
:106DA0007B017A097937125586E4900000F0900053
:106DB00000E0FFC39411501B7E00128A5CE47F0A3E
:106DC000FEFDFC1284877F75128F78900000E0042E
:106DD000F080DBE4FFFE128A5CE47F0AFEFDFC1219
:106DE00084877F75128F78900002E4F0A3EFF0E4BF
:106DF000900002F0A3F0900C16F0900000F09000CC
:106E000000E0FFC39411505F7E00128A5CE47F0AA9
:106E1000FEFDFC1284877F75128F787E0090000241
:106E2000EEF0A3EFF064717023900C16E004F0E430
:106E3000900002F0A3F0900000E025E02404F58229
:106E4000E43400F583E4F0A304F08013900000E044
:106E500025E02404F582E43400F583E4F0A3F09007
:106E60000000E004F08097E4900000F0900000E063
:106E7000FFC394115034EF25E02404F582E434007C
:106E8000F583E0FEA3E064014E7017900000E0A3DC
:106E9000E02437F582E43409F583EFF0900001E057
:106EA00004F0900000E004F080C2E4FF1290CBE414
:106EB0007F0AFEFDFC1284877F011290CBE47F0ADB
:106EC000FEFDFC128487E4900000F0900000E0FFDB
:106ED000C39411502E7E00128A5CE47F0AFEFDFCF2
:106EE000128487127BF5E47F0AFEFDFC1284871270
:106EF0007CE6E47F0AFEFDFC128487900000E0043B
:106F0000F080C8E47F32FEFDFC128487E49000002C
:106F1000F0900000E0FFC3941150177E00128A5CCD
:106F2000900000E0FF7E0012850F900000E004F06A
:106F300080DFE47F32FEFDFC1284877E007F227DAD
:106F4000007B017A1079461255869010D2E4F0A3A6
:106F500004F0E4900000F0900C16E0FF900000E0D8
:106F6000FEC39F4003027032E0FF2437F582E43411
:106F700009F583E0FD75F005A424E3F582E4340807
:106F8000F583E075F006A4FCED75F005A424E2F5A8
:106F900082E43408F583E075F006A42CFD74372FE5
:106FA000F582E43409F583E0FF75F005A424E4F5E7
:106FB00082E43408F583E075F006A42DFDEF75F04A
:106FC00005A424E5F582E43408F583E0C454F02DEB
:106FD000FF74372EF582E43409F583E0FD75F00582
:106FE000A424E6F582E43408F583E025E02F2402AA
:106FF000FBED25E02446F582E43410F583E4F0A3AC
:10700000EBF074372EF582E43409F583E025E024B3
:1070100046F582E43410F583E0FEA3E0FF9010D340
:10702000E02FF09010D2E03EF0900000E004F0027B
:107030006F579010D3E004F070069010D2E004F087
:107040002290005FEBF0A3EAF0A3E9F02404F9E456
:107050003AFA12548CA804A905AA06AB07124E42AC
:10706000C004C005C006C00790005FE0FBA3E0FAC3
:10707000A3E0F912548CA804A905AA06AB07124E86
:1070800042D003D002D001D000124D51C004C0053F
:10709000C006C00790005FE0FBA3E0FAA3E024086D
:1070A000F9E43AFA12548CA804A905AA06AB07120F
:1070B0004E42D003D002D001D000124D51C004C0C6
:1070C00005C006C00790005FE0FBA3E0FAA3E02440
:1070D0000CF9E43AFA12548CA804A905AA06AB07E5
:1070E000124E42D003D002D001D000124D51127D79
:1070F000D79000621254C690005FE0FBA3E0FAA3B1
:10710000E0F9C003C002C00112548C900062E0F8A4
:10711000A3E0F9A3E0FAA3E0FB124E42D001D002B3
:10712000D0031254AC90005FE0FBA3E0FAA3E0248C
:1071300004F9E43AFA12548C900062E0F8A3E0F902
:10714000A3E0FAA3E0FB124E4290005FE0FBA3E055
:10715000FAA3E02404F9E43AFA1254AC90005FE098
:10716000FBA3E0FAA3E02408F9E43AFA12548C9065
:107170000062E0F8A3E0F9A3E0FAA3E0FB124E42BC
:1071800090005FE0FBA3E0FAA3E02408F9E43AFAF8
:107190001254AC90005FE0FBA3E0FAA3E0240CF9EA
:1071A000E43AFA12548C900062E0F8A3E0F9A3E00C
:1071B000FAA3E0FB124E4290005FE0FBA3E0FAA3CB
:1071C000E0240CF9E43AFA1254AC22900000EEF0FC
:1071D000A3EFF0A3EDF01291F3900004EFF0129101
:1071E000C1900005EEF0A3EFF0900000E0FCA3E0FA
:1071F000FD6F7002EC6E70030272FA9043A2E054CD
:1072000001900003F0A3E0703BA3E0FEA3E0FF4E7B
:107210006004ED4C702EEF4E70117B027A40798045
:10722000129119904082E054BFF022904082E044D5
:1072300040F07B027A407980900000E0FCA3E0FD02
:1072400012911922900003E06053904001E4F09005
:10725000401004F0904014E4F0904008E0547FF0B7
:10726000904082E05408600A900000E07002A3E0C1
:10727000702B7B027A407902900005E0FCA3E0FDD0
:107280001291199040017407F0904001E054017090
:10729000F89043A2E054FEF0904001E4F09043A245
:1072A000E05401602F7B027A407902900000E0FCFC
:1072B000A3E0FD129119900002E060047F028002B9
:1072C0007F00EF4401904001F0904001E0540160E4
:1072D0002980F6227B027A407980900000E0FCA3AE
:1072E000E0FD1291199043A2C083C082E0FF90009C
:1072F00003E0FEEF4ED082D083F022E4F50912893C
:10730000C0EF7003027421E509C3940640030274C0
:10731000211288178F08E5221460491460601470E8
:10732000030273B11470030273FF240470D0852626
:1073300025852726850827E526B43A11E527B43A9E
:107340000CE4F525F526F52775220180B1E525B475
:107350003FACE526B40DA7E527640A70A1FFFE1235
:107360008CCF809A9008DFE065086004E50870041F
:10737000C2008002D200E4F52475220280808508D4
:1073800024E524D394015008E4F524F5220272FE8A
:10739000E524D394804008E4F524F5220272FEE44B
:1073A000F5232000067522030272FE752204027284
:1073B000FE74222523F582E43415F583E508F005F3
:1073C00023E523C3952450030272FE200025AF2439
:1073D0007E00784C7C0D7D017B017A157922125656
:1073E0006E900DCCE4F0A3E524F0900DD07401F084
:1073F000127EC6E4F523F524F52205090272FE1576
:1074000024E52460030272FEF523F5247F01129225
:107410002CE4FF12922CE4F52205090272FE02729E
:10742000FE227B007A4679E8129193EF4401FD7BBE
:10743000007A4679E812919F1280877B017A507911
:1074400003129193EF4402FD7B017A50790312916C
:107450009F7B017A507913129193EF4402FD7B01D7
:107460007A50791312919F9043A0E04440F09043EA
:10747000C2E04410F07B087A1F79BC900005E4F06C
:10748000A37451F0A37402F07F087E00128BA07BDE
:10749000087A1F79C4900005E4F0A37451F0A37436
:1074A000C2F07F087E00128BA07B087A1F79CC90F7
:1074B0000005E4F0A37451F0A374F2F07F087E009D
:1074C000128BA07B087A1F79D4900005E4F0A37496
:1074D00051F0A37410F07F0A7E00128BA07B087A13
:1074E0001F79E0900005E4F0A37451F0A37422F03A
:1074F0007F087E00128BA09044F47401F090432228
:10750000E04408F09046ECE0C394055006904689AC
:10751000743AF090480074F1F012766A128EC37BD0
:10752000007A4379A0C003C002900005EBF0A3EA03
:10753000F0A374B0F0D002D0037F0E7E00128BA0B7
:107540009043B0E054FDF02290005FEBF0A3EAF02E
:10755000A3E9F02404F9E43AFA12548CA804A9052A
:10756000AA06AB07124E42C004C005C006C0079071
:10757000005FE0FBA3E0FAA3E0F912548CA804A991
:1075800005AA06AB07124E42D003D002D001D000AC
:10759000124D51C004C005C006C00790005FE0FB5B
:1075A000A3E0FAA3E02408F9E43AFA12548CA80400
:1075B000A905AA06AB07124E42D003D002D001D0D3
:1075C00000124D51127DD79000621254C690005F98
:1075D000E0FBA3E0FAA3E0F9C003C002C00112542B
:1075E0008C900062E0F8A3E0F9A3E0FAA3E0FB12BC
:1075F0004E42D001D002D0031254AC90005FE0FBA9
:10760000A3E0FAA3E02404F9E43AFA12548C9000BF
:1076100062E0F8A3E0F9A3E0FAA3E0FB124E429087
:10762000005FE0FBA3E0FAA3E02404F9E43AFA12D5
:1076300054AC90005FE0FBA3E0FAA3E02408F9E477
:107640003AFA12548C900062E0F8A3E0F9A3E0FA51
:10765000A3E0FB124E4290005FE0FBA3E0FAA3E040
:107660002408F9E43AFA1254AC227B007A4079807B
:107670007D027C001291179040827418F07B007A92
:107680004079847D177C001291179040867418F021
:107690007B007A4079887D2F7C0012911790408A78
:1076A0007418F09043007406F09042007452F07B1E
:1076B0000C7A01790F1291939046A1EFF07B007A3A
:1076C0004279227D107C071291177B007A42792043
:1076D0007D517C12129117E4900004F07F19FEFD99
:1076E000FC9000001254C6900000E0A3E0A3E0FE6E
:1076F000A3E0D39400EE9400404AA3E0FF6403604B
:1077000043904225E05401FEEF25E04E54039000E3
:1077100004F0E47FE07E01FDFC128C00900000E0AC
:10772000FCA3E0FDA3E0FEA3E0FF74FFEF24FFFF56
:10773000EE34FFFEED34FFFDEC34FFFC9000001250
:1077400054C680A3900000E0A3E0A3E0FEA3E04EB7
:1077500070057F031292757B007A4079047D007C6E
:10776000011291179040047407F0904006E4F090E5
:1077700040087448F0904004E4F0904009F09040D4
:10778000017402F09043A2E04407F022E490005F0D
:10779000F0A3F0A3EEF0A3EFF07F3C128F789000FF
:1077A0005FEFF0128EE07F3B128F78900060EFF079
:1077B000128EE0900060E0FFA3E0FCA3E0FD9010DB
:1077C0006C75F0061254E3EC75F006A42583F5837E
:1077D000EFF090005FE0FF90106D75F006ED125431
:1077E000E3EC75F006A42583F583EFF0E490005FE9
:1077F000F0A3F07F3E128F7890005FEFF0128EE0E2
:107800007F3D128F78900060EFF0128EE090006064
:10781000E0FFA3E0FCA3E0FD90106E75F0061254AB
:10782000E3EC75F006A42583F583EFF090005FE0AC
:10783000FF90106F75F006ED1254E3EC75F006A49E
:107840002583F583EFF0E490005FF0A3F07F401212
:107850008F7890005FEFF0128EE07F3F128F78906C
:107860000060EFF0128EE0900060E0FFA3E0FCA368
:10787000E0FD90107075F0061254E3EC75F006A46C
:107880002583F583EFF090005FE0FF90107175F0B5
:1078900006ED1254E3EC75F006A42583F583EFF0B2
:1078A000E490005FF0A3F022E490005FF0A3F0A367
:1078B000EEF0A3EFF07F44128F7890005FEFF012AC
:1078C0008EE07F43128F78900060EFF0128EE09090
:1078D0000060E0FFA3E0FCA3E0FD900CAF75F006B4
:1078E0001254E3EC75F006A42583F583EFF09000C5
:1078F0005FE0FF900CB075F006ED1254E3EC75F00C
:1079000006A42583F583EFF0E490005FF0A3F07FF9
:1079100046128F7890005FEFF0128EE07F45128F55
:1079200078900060EFF0128EE0900060E0FFA3E03E
:10793000FCA3E0FD900CB175F0061254E3EC75F079
:1079400006A42583F583EFF090005FE0FF900CB272
:1079500075F006ED1254E3EC75F006A42583F5836B
:10796000EFF0E490005FF0A3F07F48128F78900072
:107970005FEFF0128EE07F47128F78900060EFF09B
:10798000128EE0900060E0FFA3E0FCA3E0FD900C0D
:10799000B375F0061254E3EC75F006A42583F58365
:1079A000EFF090005FE0FF900CB475F006ED12541C
:1079B000E3EC75F006A42583F583EFF0E490005F17
:1079C000F0A3F02275930078007583467582E8E095
:1079D0004401F00090480074C0F07581299076BC95
:1079E000E4F0A3F0A3F0A3F0907010F0907019F001
:1079F000907020F09076007410F0907604E4F0A37C
:107A0000F0A3F0A3F09078007800087400F0A3745D
:107A100008F0E8B8040274FFA3F0A37422F0A37482
:107A2000BCF0A37476F0A3E4F0A3E81475F008A406
:107A3000F0A3B804D59070107401F0907014F07E2B
:107A4000707F18122604907010F0EA901616F0025B
:107A5000261175281F7529FD127422027A99028356
:107A60005DE493A3F8E493A34003F68001F208DFFA
:107A7000F48029E493A3F85407240CC8C333C454F6
:107A80000F4420C8834004F456800146F6DFE480AA
:107A90000B01020408102040809086F2E47E0193DE
:107AA00060BCA3FF543F30E509541FFEE493A3607C
:107AB000010ECF54C025E060A840B8E493A3FAE4D7
:107AC00093A3F8E493A3C8C582C8CAC583CAF0A328
:107AD000C8C582C8CAC583CADFE9DEE780BE900098
:107AE0000CEEF0A3EFF07F49128F7890000AEFF0D0
:107AF000128EE07F4A128F7890000BEFF0128EE02A
:107B000090000BE0FFA3E0FCA3E0FD900C1775F0E4
:107B1000061254E3EC75F006A42583F583EFF0908C
:107B2000000AE0FF900C1875F006ED1254E3EC75B6
:107B3000F006A42583F583EFF0E490000AF0A3F0AB
:107B40007F4B128F7890000AEFF0128EE07F4C127C
:107B50008F7890000BEFF0128EE090000BE0FFA307
:107B6000E0FCA3E0FD900C1975F0061254E3EC75EF
:107B7000F006A42583F583EFF090000AE0FF900C57
:107B80001A75F006ED1254E3EC75F006A42583F5A2
:107B900083EFF0E490000AF0A3F07F4D128F78900D
:107BA000000AEFF0128EE07F4E128F7890000BEFFC
:107BB000F0128EE090000BE0FFA3E0FCA3E0FD904C
:107BC0000C1B75F0061254E3EC75F006A42583F542
:107BD00083EFF090000AE0FF900C1C75F006ED12A8
:107BE00054E3EC75F006A42583F583EFF0E49000F0
:107BF0000AF0A3F0227D107F6B128CFFE47F0AFE57
:107C0000FDFC1284877D207F6A128CFFE47F0AFED0
:107C1000FDFC1284877D067F1A128CFFE47F0AFE2A
:107C2000FDFC1284877D187F1B128CFFE47F0AFE07
:107C3000FDFC128487E4FD7F1C128CFFE47F0AFEAA
:107C4000FDFC1284877D057F1D128CFFE47F0AFEF8
:107C5000FDFC1284877D0D7F24128CFFE47F0AFED9
:107C6000FDFC1284877D0C7F25128CFFE47F0AFEC9
:107C7000FDFC1284877D0A7F26128CFFE47F0AFEBA
:107C8000FDFC1284877D167F63128CFFE47F0AFE61
:107C9000FDFC1284877D817F27128CFFE47F0AFE22
:107CA000FDFC1284877D8C7F25128CFFE47F0AFE09
:107CB000FDFC1284877D037F26128CFFE47F0AFE81
:107CC000FDFC1284877D8D7F27128CFFE47F0AFEE6
:107CD000FDFC128487E4FD7F6B128CFFE47F14FEB1
:107CE000FDFC128487227D107F6B128CFFE47F0ADB
:107CF000FEFDFC1284877D207F6A128CFFE47F0AE0
:107D0000FEFDFC1284877D067F1A128CFFE47F0A39
:107D1000FEFDFC1284877D187F1B128CFFE47F0A16
:107D2000FEFDFC128487E4FD7F1C128CFFE47F0AB9
:107D3000FEFDFC1284877D057F1D128CFFE47F0A07
:107D4000FEFDFC1284877D0D7F24128CFFE47F0AE8
:107D5000FEFDFC1284877D0C7F25128CFFE47F0AD8
:107D6000FEFDFC1284877D0A7F26128CFFE47F0AC9
:107D7000FEFDFC1284877D1F7F63128CFFE47F0A67
:107D8000FEFDFC1284877D817F27128CFFE47F0A31
:107D9000FEFDFC1284877D8C7F25128CFFE47F0A18
:107DA000FEFDFC1284877D107F26128CFFE47F0A83
:107DB000FEFDFC1284877D837F27128CFFE47F0AFF
:107DC000FEFDFC128487E4FD7F6B128CFFE47F14C0
:107DD000FEFDFC128487229000661254C6E4FFFE6A
:107DE000FD7C3F900066E0F8A3E0F9A3E0FAA3E091
:107DF000FB124E4290006A1254C6900066E0FCA34B
:107E0000E0FDA3E0FEA3E0FF90006E1254C69000D8
:107E10006EE0FCA3E0FDA3E0FEA3E0FFA31254C6C6
:107E2000900072E0FCA3E0FDA3E0FEA3E0FF780178
:107E3000125465C374DF9FFF74599EFE74379DFD15
:107E4000745F9CFC9000721254C6900072E0FCA318
:107E5000E0FDA3E0FEA3E0FF90006E1254C6900088
:107E60006EE0FCA3E0FDA3E0FEA3E0FF90006AE06B
:107E7000F8A3E0F9A3E0FAA3E0FB124E4290006EF3
:107E8000E0F8A3E0F9A3E0FAA3E0FB124E42A80455
:107E9000A905AA06AB07E4FFFE7DC07C3F124D4D4D
:107EA00090006EE0F8A3E0F9A3E0FAA3E0FB124E25
:107EB0004290006E1254C690006EE0FCA3E0FDA359
:107EC000E0FEA3E0FF22900D4CE0F50A7B017A0D65
:107ED000794C900DCCE0A3E014FD128C3B900DCCBE
:107EE000E0FCA3E0244BF582740D3CF583E0B5077C
:107EF00003D38001C34006E4900DD0F022E50A12BE
:107F0000550F7F40007F44037F48047F5E057F2834
:107F1000067F82097F700A7F340C7F248B7FA4A1A7
:107F200000007FA7128E0522900D4DE0FEA3E0FF1A
:107F3000128CCF22900D4DE0FEA3E0FF12261A22F4
:107F400012900E22128FBA227F087E00128206EF54
:107F500060067F01128FA522E4FF128FA522128AEC
:107F6000A5EF60067F01128FA522E4FF128FA522E4
:107F7000128593EF60067F01128FA522E4FF128F16
:107F8000A5227F01128FA5E47FE87E03FDFC128409
:107F900087E4FF129232E47FE87E03FDFC128487BF
:107FA0001291CB2212665822900007EBF0A3EAF060
:107FB000A3E9F0A3EDF0128FE490000AE0C39480EF
:107FC000400302807B128EA4EF6003028073900056
:107FD0000B74FFF0900007E0FBA3E0FAA3E0F99038
:107FE0000010E4F0A37410F07F40128614EF6407D1
:107FF000707C904722E0540260F8904722E05402DF
:108000006009E0FF1313543FFF80027FFFEF70040D
:1080100090000BF090000BE0704E90000AE0FD7CA9
:108020000090161EE0FBA3E0900010F07F40128944
:108030001CEF6407702A90000B74FFF0904722E059
:10804000540260F8904722E054026009E0FF1313E5
:10805000543FFF80027FFFEF701490000BF0800E02
:1080600090000B74FFF0800690000B74FFF01291EB
:10807000AB800E90000B7404F0800690000B74012E
:10808000F090000BE0FF22E4FFFEFDFC90162012B2
:1080900054C69076007410F09070107401F09070D7
:1080A00019E4F07B027A78F97DA87C02129119908C
:1080B00078027401F0A374A3F07B027A787904C08B
:1080C00003C002C0017BFF7A9379A8E9EAE4AD011D
:1080D000AC02D001D002D0031291197B027A7879D8
:1080E000067D087C781291197B027A7679047D10DE
:1080F0007C001291197B027A767906E4FDFC1291DC
:1081000019907029740BF090703904F090705974C4
:1081100015F09070697417F0907079741EF090707B
:10812000147401F0907018E0540170F8907028E019
:10813000540170F8907038E0540170F8907058E075
:10814000540170F8907068E0540170F8907078E015
:10815000540170F822C0E0C083C082C085C084C0D2
:1081600086758600C093759300C0D075D000C0019D
:10817000C002C003C006C007E4FBA2AF33FAD2AF0F
:108180009044F474FDF0906464E0FFFE541EF960C6
:108190000690160BE049F0EF30E545906443E0FEB1
:1081A000901608E024E8F582E43415F583EEF07BC0
:1081B00001EB602C9015E6E0600690160A7401F061
:1081C000901608E004F0E0C394204002E4F090151B
:1081D000E7E0FE901608E0B506069015E67401F09B
:1081E000EF20E5A2AF02EA24FF92AFD007D006D07D
:1081F00003D002D001D0D0D093D086D084D085D007
:1082000082D083D0E032900000EEF0A3EFF0900037
:10821000067401F0129212128F4878DE7C087D01FC
:108220007B017A0979487E007F5912566E900004CE
:10823000E4F0A37406F0E4900002F0A3F0900004D0
:10824000E0FEA3E0FF900002E0FCA3E0FDC39FEE90
:108250006480F8EC648098503FEDC4F8540FC8680F
:10826000FFECC454F048FE7B0174482FF974093EBA
:10827000FA900000E0A3E0FFED2FFD127FA8EF6071
:1082800007E4900006F08010900003E004F0700610
:10829000900002E004F080A578487C097D017B0114
:1082A0007A0879DE7E007F5912566E12920B90008A
:1082B00006E0FF22900008EEF0A3EFF09008E275D0
:1082C000F0051254E3EE75F005A42583F583E06014
:1082D0000B900008E0FEA3E0FF12778C900008E00E
:1082E000FEA3E0FF9008E375F0051254E3EE75F08D
:1082F00005A42583F583E060031278A8900008E0C8
:10830000FEA3E0FF9008E475F0051254E3EE75F06B
:1083100005A42583F583E06003127ADE900008E06F
:10832000FEA3E0FF9008E575F0051254E3EE75F04A
:1083300005A42583F583E060031234DC900008E097
:10834000FEA3E0FF9008E675F0051254E3EE75F029
:1083500005A42583F583E060031287B92212926E8B
:10836000128A0FE47F64FEFDFC1284877F01129263
:1083700032128E45129036128C6D128D2F129095FE
:108380007E927F72128E85E4FF12922C12905C1204
:108390009049D2AF9044F474FDF012906F128F2F79
:1083A000128DE01290EA1290A7128E65E47F0AFE09
:1083B000FDFC1284877F011290CB126D88E4900D32
:1083C000CCF0A3F0900DD0F0E4FF129238128AECBA
:1083D00012923EEF700A300AF7C20A1272FB80F066
:1083E0007F0112923812923EEF640160F8129022DF
:1083F000EF30E7D4128D2F80CF229008AEEBF0A3A0
:10840000EAF0A3E9F0A3ECF0A3EDF07F3A12915F5C
:108410007F3A12915F900949E0FF12915F9008B195
:10842000E0A3E0FF12915FE4F51AF51BD39008B2C8
:10843000E0951B9008B1E0951A40229008AEE0FB51
:10844000A3E0FAA3E0251BF9EA351AFA1252ACFFB1
:1084500012915F051BE51B7002051A80CFE4F51A27
:10846000F51B129220EF20E013051BE51BAE1A70DE
:1084700002051A14D394E8EE940340E67F011292A9
:108480002CE4FF12922C2290FFFC1255351254C698
:10849000852883852982E0A3E0A3E0FEA3E0D394AE
:1084A00000EE9480403D901617E0FCA3E0FDA3E0B1
:1084B000FEA3E0FF128C00852883852982C083C03B
:1084C00082E0FCA3E0FDA3E0FEA3E02400FFEE3485
:1084D00080FEED34FFFDEC34FFFCD082D0831254DB
:1084E000C680AD90160DE0FCA3E0FDA3E0FEA3E086
:1084F000FF852883852982E0F8A3E0F9A3E0FAA3A9
:10850000E0FB125316128C0090000412553522E441
:10851000900026F0A3EEF0A3EFF07F49128F789041
:108520000026EFF0A3E0FCA3E0900D1975F0031214
:1085300054E3EC75F003A42583F583EFF0E4900099
:1085400026F07F4A128F78900026EFF0A3E0FCA37C
:10855000E0900D1A75F0031254E3EC75F003A425B6
:1085600083F583EFF0E4900026F07F4B128F789034
:108570000026EFF0A3E0FCA3E0900D1B75F00312C2
:1085800054E3EC75F003A42583F583EFF0E4900049
:1085900026F0229009497401F0900948F0E4FFEFB9
:1085A000C394115055EF75F005A4244CF582E434C2
:1085B00009F5837401F0EF75F005A4244DF582E40C
:1085C0003409F5837401F0EF75F005A4244EF582AB
:1085D000E43409F583E4F0EF75F005A4244FF58247
:1085E000E43409F583E4F0EF75F005A42450F58236
:1085F000E43409F583E4F00F80A5E4FFFE1282065F
:10860000EF600E7F087E00128206EF60047F01801B
:10861000027F002290000DEBF0A3EAF0A3E9F090B6
:1086200000127407F0904722E05402604E904720F9
:1086300074B6F074D5F07402F0904722E0540270E2
:1086400032904720EFF0E4FFFED3900011E09F90BE
:108650000010E09E402B90000DE0FBA3E0FAA3E0A9
:108660002FF9EA3EFA1252AC904720F00FEF70015A
:108670000E80D69000127409F080069000127404E7
:10868000F0900012E0FF229008AEEBF0A3EAF0A316
:10869000E9F09008B4EBF0A3EAF0A3E9F09008AE9B
:1086A000E0FBA3E475F00112577FA9F0FA1252AC77
:1086B00070EB9008AF74FFF5F01257699008B1E0C5
:1086C000FBA3E475F00112577FA9F0FA1252ACFF38
:1086D0009008AEE0FBA3E475F00112577FA9F0FA11
:1086E000EF1252F270D69008B4E0FBA3E0FAA3E0D8
:1086F000F9224215208000500C9F3F8000000000AE
:1087000000000000000000000000012200411627C8
:10871000004116090041160B004115E700411608FB
:10872000004115E60041160A0041162800411629AD
:108730000043161B00000044161202DC6C004416B5
:108740000D0000BB80411611304416175DC00000BB
:108750004116260041162A0000900009EBF0A3EA1A
:10876000F0A3E9F0A3EDF0E4A3F090000CE0FFA388
:10877000E0C39F503E904722E054016003D3800144
:10878000C340097F017E00128D8C80E9904720E074
:10879000FF900009E0FBA3E0FAA3E0F990000DE0F0
:1087A000FEE92EF9E43AFAEF1252F290000DE004DD
:1087B000F080B790000DE0FF22E490000AF0A3F0F3
:1087C000A3EEF0A3EFF07F42128F7890000AEFF053
:1087D000128EE07F41128F7890000BEFF0128EE046
:1087E00090000BE0FD90000DE025E0FF90000CE014
:1087F00033FE747D2FF582740C3EF583EDF090000E
:108800000AE0FD747E2FF582740C3EF583EDF0E4F2
:1088100090000AF0A3F022E4FF9044C87402F090A4
:1088200015E7E0FE901608E0FD9015E6E07004EE16
