:40000000021415008F828E83E0540100000070F82278FFE4F6D8FD02147A900000EFF0E4F53FF540F541F54275430AC200121F87EF60057F00121FB7122067D2AF9044F4FC
:4000400074FDF0E4F53B754900754A00754B37900000E0FF70067EFF7FFF80008F4C7B017A0079017D2C7C011212FA8F3E900000E060021543E5436004E53E70C9E53E6046
:400080000302059FC3E5389407E53794004008900001E064016005753B04807E900004E0FE900003E0FDEEF53FEDF54074062540F5827400353FF583E0FE74052540F58228
:4000C0007400353FF583E0FDEEF53CEDF53DE5402407FFE4353FFED3EF9538EE95374005753B03803574072540F5827400353FF583E064176005753B04801F7B017A0079B1
:4001000001E5402404FDE4353FFC121C66EF653D7003EE653C6003753B08E4F539F53AE53B600302058E900005E0F536753B04900002E012088801553101823202083403A0
:400140007A3503883703D438020839040F3A05783B0000058B20000302058EE540453F600302058EFF120D84EF70047F0180027F00900005EFF0753900753A01E4F53B0260
:40018000058E20000302058EE5406401453F600302058EE536C39401400302058E900357E0FEA3E0F5828E83120842E4FBFA7901F81207188F24E536B5241E900357E0FE6B
:4001C000A3E0F5828E83120842E4FB7A01F9F81207187522008F238014E536D395244007E4F522F5238006752201752300E523900005F0E522A3F0A374FFF0E4A3F0F539B6
:40020000753A04F53B02058E900002E06434703C20000302058EE5406403453F600302058EE536C39440400FE536D3947F50087541007542108006754101754220AE41AF47
:40024000427D007B017A01792D1208FF20000302058EC3E5409403E53F9400500302058EE54024FDFFE53F34FFFE742D2542F974013541A801FC7D017B017A0079081209F7
:40028000E7E54024FDFFE53F34FFFEEF2542F542EE3541F541E536C394404012E536D3947F500B121DA8753F007540108006753F01754020E54265407004E541653F600369
:4002C00002036F900007E0FE900006E0FDEEF541EDF542E536D3943F506FE5367F00FEEF2542FFE5413E900259F0A3EFF0900357E0FEA3E0F5828E83120842E4FB7A01F9AA
:40030000F812071890025BEEF0A3EFF0900357E0FEA3E0F5828E83120842EFE4EF600A90025BE475F0011205DA90025BE0FEA3E0FFC390025AE09F900259E09E500B753BD5
:400340000AE4F541F54202058E7B017A01792D900263E53FF0A3E540F0AD42AC41AF36120F0BEF60047F0A80027F008F3B8003753B03E4F541F54202058E20000302058EC7
:40038000E4F541F54202059F20000302058EE5422540FFE541353FFED3EF942CEE9401502DE4F53BAE3FAF40742D2542F974013541A801FC7D017B017A0079051209E7E58F
:4003C000402542F542E53F3541F54102058E753B0302058EE540453F600302058E78257C00FD7BFF7A25791FFE7F081209E7D200753900753A08AE39AF3A78057C007D0105
:400400007B007A0079251209E7E4F53B02058E20000302058EE5406403453F600302058E900007E0FE900006E0FDEEF52FEDF530E536C394404038E536D3947F5031AE2F29
:40044000AF307C007D101208D28F348E338D328C318F4B8E4A8D498C48E4754F10F54EF54DF54CFF7E80FDFC12192C8F358050AE2FAF307C017D001208D2C004C005C006FC
:40048000C007AF36E4FCFDFEFBFA7901F812068DD003D002D001D0001206728F348E338D328C318F4B8E4A8D498C48E4F54F754E01F54DF54CFFFE7D10FC12192C8F35E588
:4004C00036D3943F5072AF367E007C207D001208D2E42FFFE43EFEED3408FDE43CFCC004A905AA06AB07AE2FAF307C007D201208D2D0001206728F348E338D328C31E4F5BA
:400500002DF52EC3E52E9420E52D9400502AE4E52E2534FFE52D3533FEE43532FDE43531A907AA06AB05121CF3EF2535F535052EE52E7002052D80CBE536702AAE2FAF301E
:40054000FCFD7BFFFAF9F8C31207C57019FD7F05120A3DC3E5359FF535E4FD7F06120A3DC3E5359FF535E535F404900005F0E4F53BF539753A018016E4FF120D84EF700604
:400580009046FA7480F01220718003753B057B017A007901853948853A49AF3B1215ED900000E0700302004330000302004322BB010689828A83E0225002E722BBFE02E399
:4005C0002289828A83E49322BB010689828A83F0225002F722BBFE01F322C5F0F8A3E028F0C5F0F8E582158270021583E038F022BB010A89828A83E0F5F0A3E022500687B6
:40060000F009E71922BBFE07E3F5F009E3192289828A83E493F5F074019322BB010789828A830205DA500B09C5F027F7C5F01937F722BBFE0D09F8E325F0F3C5F019E338A6
:40064000F322F889828A8374019325F0C5F0F8E4933822BB010A89828A83F0E5F0A3F0225006F709A7F01922BBFE06F3E5F009F31922EF2BFFEE3AFEED39FDEC38FC22C315
:40068000EF9BFFEE9AFEED99FDEC98FC22E88FF0A4CC8BF0A42CFCE98EF0A42CFC8AF0EDA42CFCEA8EF0A4CDA8F08BF0A42DCC3825F0FDE98FF0A42CCD35F0FCEB8EF0A47C
:4006C000FEA9F0EB8FF0A4CFC5F02ECD39FEE43CFCEAA42DCE35F0FDE43CFC2275F008758200EF2FFFEE33FECD33CDCC33CCC58233C5829BED9AEC99E58298400CF582EE4A
:400700009BFEED9AFDEC99FC0FD5F0D6E4CEFBE4CDFAE4CCF9A88222B800C1B90059BA002DEC8BF084CFCECDFCE5F0CBF97818EF2FFFEE33FEED33FDEC33FCEB33FB10D7C4
:4007400003994004EB99FB0FD8E5E4F9FA227818EF2FFFEE33FEED33FDEC33FCC933C910D7059BE99A4007EC9BFCE99AF90FD8E0E4C9FAE4CCFB2275F010EF2FFFEE33FE50
:40078000ED33FDCC33CCC833C810D7079BEC9AE899400AED9BFDEC9AFCE899F80FD5F0DAE4CDFBE4CCFAE4C8F922EF4BFFEE4AFEED49FDEC48FC22C3E49FFFE49EFEE49D2F
:4007C000FDE49CFC22EB9FF5F0EA9E42F0E99D42F0E89C45F022E8600FECC313FCED13FDEE13FEEF13FFD8F122E8600FEFC333FFEE33FEED33FDEC33FCD8F122BB010789DC
:40080000828A830208365005E9F8020A0DBBFE05E9F8020A1989828A83020842BB010789828A8302085E5005E9F8020A25BBFE05E9F8020A3122E0FCA3E0FDA3E0FEA3E06A
:40084000FF22E493FC740193FD740293FE740393FF22E0F8A3E0F9A3E0FAA3E0FB22ECF0A3EDF0A3EEF0A3EFF022E0FBA3E0FAA3E0F922EBF0A3EAF0A3E9F022E493FB74E9
:400880000193FA740293F922D083D082F8E4937012740193700DA3A393F8740193F5828883E4737402936860EFA3A3A380DFE5092582F582E5083583F583B50804858209B7
:4008C0002210AF06858209F50822858209F508D2AF22EC8EF0A4CCC5F0CCCDF8EFA4CEC5F02DFDE43CFCE8A42EC8C5F03DFDE43CFCEFA4FFE5F028FEE43DFDE43CFC22EF51
:400900004E6012EF60010EEDBB010B89828A83F0A3DFFCDEFA2289F05007F709DFFCA9F022BBFEFCF309DFFCA9F022E709F608DFFA8046E709F208DFFA803E88828C83E7AA
:4009400009F0A3DFFA8032E309F608DFFA806EE309F208DFFA806688828C83E309F0A3DFFA805A89828A83E0A3F608DFFA804E89828A83E0A3F208DFFA804280D280FA80F3
:40098000C680D4805580F28029801080A680EA809A80A880DA80E280CA802988848C8589828A83E493A30586F0A30586DFF5DEF3800B89828A83E493A3F608DFF9ECFAA95D
:4009C000F0EDFB2288848C8589828A83E0A30586F0A30586DFF6DEF480E389828A83E493A3F208DFF980D688F0EF60010E4E60CD88F0ED2402B4040050C3F582EB2402B455
:400A0000040050B9232345822390097B73E6FC08E6FD08E6FE08E6FF22E2FC08E2FD08E2FE08E2FF22ECF608EDF608EEF608EFF622ECF208EDF208EEF208EFF22290025D03
:400A4000EDF0AB079002627402F0E4FFFEFDFCA312085EEB1208880A79010AA6020ACB030AF0040B15050B40060B8F070B6B080BB3090BD70A00000C0190025DE0FF7E005E
:400A80007C017D001208D21207B7EF24C0FFEE34FFFEED3410FDE43CFCA312085E9002627401F0020C0C90025DE0FF7E007C017D001208D2C374C39FFF74FF9EFE74109DBD
:400AC000FDE49CFCA312085E020C0C90025DE0FF7E007C017D001208D2C374C79FFF74FF9EFE74109DFDE49CFCA312085E020C0C90025DE0FF7E007C017D001208D2C37433
:400B0000CB9FFF74FF9EFE74109DFDE49CFCA312085E020C0C90025DE0FF7E007C017D001208D2C374D09FFF74FF9EFE74109DFDE49CFCA312085E9002627401F0020C0C60
:400B400090025DE0FF7E007C017D001208D2C374D19FFF74FF9EFE74109DFDE49CFCA312085E9002627401F0020C0C90025DE0FF7E007C017D001208D2C374D69FFF74FF16
:400B80009EFE74109DFDE49CFCA312085E807D90025DE0FF7E007C017D001208D2C374D29FFF74FF9EFE74109DFDE49CFCA312085E805990025DE0FF7E007C017D00120811
:400BC000D2C374D49FFF74FF9EFE74109DFDE49CFCA312085E803590025DE0FF7E007C017D001208D2C374D89FFF74FF9EFE74109DFDE49CFCA312085E9002627404F08082
:400C00000BE4FFFEFDFC90025E12085E900262E0B4011990025E120836A907AA06AB05121CF3E4FCFDFE90026312085E900262E06402705C90025E120836EF2401FFE43E91
:400C4000FEE43DFDE43CA907AA06AB05121CF3E4FCFDFE90026312085E900263120852C000C001C002C00390025E120836A907AA06AB05121CF3E4FCFDFE78081207E9D0BA
:400C800003D002D001D0001207AA90026312085E900262E064046003020D7D90025E120836EF2403FFE43EFEE43DFDE43CA907AA06AB05121CF3E4FCFDFE90026312085E37
:400CC000900263120852C000C001C002C00390025E120836EF2402FFE43EFEE43DFDE43CA907AA06AB05121CF3E4FCFDFE78081207E9D003D002D001D0001207AA9002634F
:400D000012085E900263120852C000C001C002C00390025E120836EF2401FFE43EFEE43DFDE43CA907AA06AB05121CF3E4FCFDFE78101207E9D003D002D001D0001207AA84
:400D400090026312085E900263120852C000C001C002C00390025E120836A907AA06AB05121CF3E4FCFDFE78181207E9D003D002D001D0001207AA90026312085E90026356
:400D8000120836228F44AD447F03120A3DEF2401FFE43EFEE43DFDE43CFCE4FB7A01F9F812068DC004C005C006C007AD447F04120A3DD003D002D001D0001206728F4C8EA9
:400DC0004B8D4A8C49C201E4F54DAD447F03120A3DEF2401FFE43EFEE43DFDE43CFCE4FB7A01F9F812068D8F488E478D468C45AF4CAE4BAD4AAC49AB48AA47A946A845C337
:400E00001207C55032854882854783E493F54E6005F46002D201E54E254DF54DAF48AE47AD46AC45E47B01FAF9F81206728F488E478D468C4580B8AD447F03120A3DEF2479
:400E400001FFE43EFEE43DFDE43CFCE4FB7A01F9F812068D78031207D68F488E478D468C45E47FC07EFFFDFCAB4CAA4BA94AA849C31207C57007FF7E20FDFC800DAF4CAE21
:400E80004BAD4AAC4978031207D68F4C8E4B8D4A8C49AF4CAE4BAD4AAC49AB48AA47A946A845C31207C55039E42548FFE43547FEE5463408FDE43545A907AA06AB05121CB9
:400EC000F3EF254DF54DAF48AE47AD46AC45E47B01FAF9F81206728F488E478D468C4580B1E54DF404F54DAD447F01120A3DA804A905AA06AB07AF4DE4FCFDFEC31207C5CC
:400F000070032001037F06227F002290025EECF0A3EDF0A312087390025DEFF0E4900265F0EFD3943F500E90025DE0940140069002657401F090025DE0FFD3947F4006903A
:400F400002657401F0EFC39440400CEFD3944140069002657401F0EFD3943F501E90025EE0FEA3E0FFE4FCFDFB7A01F9F8C31207C5502F9002657401F08027D390025FE03C
:400F8000948090025EE0940040069002657401F0900263E07004A3E0641060069002657401F090026012086AE94A4B700590026504F0900265E0600302108A121EFEEF606E
:400FC0000302108490025EE0FCA3E0FDA312086A900263E0FFA3E090026CCFF0A3EFF090025DE0FF1211DE900265EFF06407600302107F904722E0540270087F01FE121EF6
:401000006480F0904722E054026009E0FF1313543FFF80027FFFEF7006900265F0800690026574FFF0900265E0705490025DE0FFA3E0FCA3E0FD900353E0FBA3E090026AD9
:40104000F0121A90900265EFF064077032904722E0540270087F01FE121E6480F0904722E054026009E0FF1313543FFF80027FFFEF7006900265F0800690026574FFF0124B
:40108000205180069002657404F0900265E0FF227B007A4679E8121CF3EF4401FD7B007A4679E8122045E4F52CE52CC3940A502CE52C75F005A42461F582E43424AF82F571
:4010C000218F22F58312087C8F82852183740393FC740493FD121F6E052C80CDE4F52CE52CC394015046E52C75F007A42413F582E43425AF82F5238F24F58312087C8B25E1
:401100008A2689278F82852383740393FE7404938E28F529740593F52A740693F52BAD29AC28FFAE2A121EB8052C80B37E207F92121DD97B017A507903121CF3EF4402FD3B
:401140007B017A5079031220457B017A507913121CF3EF4402FD7B017A5079131220459043A0E04440F09043C2E04410F07C207D827B007A5179127F087E00121EB87C2053
:401180007D8A7B007A5179227F087E00121EB89044F47401F0904322E04408F09046ECE0C394055006904689743AF090480074F1F012150690480074B1F0121F1D7B007A41
:4011C0004379A0C00179B0900005120873D0017F0E7E00121D749043B0E054FDF022900266EFF0A3ECF0A3EDF0A312087390026E7407F0904722E0540270030212EE904756
:401200002074B6F074D5F07402F0904722E0540260030212E6900266E0904720F0E490026FF0A3F090026CE0FEA3E0FF90026FE0FCA3E0FDC39FEC9E501F90026912086A8D
:40124000E92DF9EA3CFA1205AF904720F090026FE475F0011205DA80CB90026CE064017002A3E060030212F4900266E0FFD3943F40030212F47E007C207D001208D2E42F0A
:40128000FFE43EFEED3408FDE43CFCC004A905AA06AB07A3E0FEA3E0FF7C007D201208D2D00012067290027112085EE490026FF0A3F090026FE0FEA3E0FFC39420EE94005A
:4012C0005032E4FCFDA3120852120672A907AA06AB05121CF3904720EFF090026FE475F0011205DA80CC90026E7409F0800690026E7404F090026EE0FF228B448A4589469E
:401300008C478D48755505E4F54DF54EE54C75F00AA4FFC3E54E9FE54D95F0503B121B34EF6022121B347553008F54E47F19FEFDFC1218C7121B34D3EF9554E4955350E366
:40134000E4F5558013E47F01FEFDFC1218C7054EE54E7002054D80B4AB49AA4AA94BE4F5F0120653E4F54FF550121B34EFD394005003021412121B347551008F52AB49AA8D
:401380004AA94BE5518552F012061BAB49AA4AA94B1205F0C39548E5F09547505FE4F54DF54EC3E54E9552E54D95515025121C1CAB44E5462550F9E545354FFAEF1205C8C1
:4013C0000550E5507002054F054EE54E7002054D80D0AB44E55024FFFFE54F34FFFEE5462FF9E5453EFA1205AF64177003021369E47F05FEFDFC1218C7021369AB49AA4ABB
:40140000A94B1205F0C39552FFE5F095518FF0120653AF552275930078007583467582E8E04401F0009046ECE0F99046FAE0FA90034BF0B903225420B40012B8001AEA9014
:401440001FFFF07401901FFEF09046F6F0901FFEE06005901FFFE0FA90480074C0F0758156121EDE90000078007920E4F0A3D8FCD9FAEA90034BF002001175081F7509FD1F
:401480001210900214C1022079E493A3F8E493A34003F68001F208DFF48029E493A3F85407240CC8C333C4540F4420C8834004F456800146F6DFE4800B0102040810204063
:4014C00080901B83E47E019360BCA3FF543F30E509541FFEE493A360010ECF54C025E060A840B8E493A3FAE493A3F8E493A3C8C582C8CAC583CAF0A3C8C582C8CAC583CABE
:40150000DFE9DEE780BE7B007A4079807D337C001220279040827418F09043007402F09040007408F09042007403F07B0C7A017908121CF39046A1EFF07B007A4279227D68
:40154000087C001220277B007A4279207D517C12122027E4900004F07F19FEFDFC90000012085E900000120836D3EF9400EE9400403B900004E0FF64036032904225E05440
:4015800001FEEF25E04E5403900004F0E47FE07E01FDFC121D0090000012083674FFFBFAF9F812067290000012085E80B6900000120836EF4E70057F0312207F7B007A402A
:4015C00079047D007C011220279040047407F0904006E4F09040087448F0904004E4F09040017402F09043A2E04401F0228B458A46894774011205C8AB452547F9E43546AB
:40160000FAEF1205C8E549AB45E5472402F9E43546FAE5491205C8E548FFAB45E5472403F9E43546FAEF1205C8AB45AA46A947E5492404FDE43548FC121C668E4A8F4BEFCF
:40164000AB45E5492404FDE43548FCE5472DF9E5463CFAEF1205C8E54AFFAB45E5492405FDE43548FCE5472DF9E5463CFAEF1205C8AB45E5492406FFE43548FEE5472FF9FF
:40168000E5463EFA74171205C8E5492407FDE43548FC755100755200755348755496AB45AA46A947121BD122C0E0C083C082C085C084C086758600C093759300C0D075D09F
:4016C00000C001C002C003C006C007E4FBA2AF33FAD2AF9044F474FDF090646CE0FFFE541EF960069002FDE049F0EF30E54590644AE0FE9002F9E02478F582E43402F583E5
:40170000EEF07B01EB602C900276E060069002FC7401F09002F9E004F0E0C394404002E4F0900277E0FE9002F9E0B506069002767401F0EF20E5A2AF02EA24FF92AFD007BF
:40174000D006D003D002D001D0D0D093D086D084D085D082D083D0E032752106E4FF120D84EF7002F521E4F54BF54AF549F548900357E0FEA3E0F5828E831208428F4F8E82
:401780004E8D4D8C4CE4FFFE7D10FC12192C900355E0FCA3E0F5828C83E493FEC3EF9EFFF404FFB50612900357E0FEA3E0F5828E83120842EF4E70057F00121FB79046FAFB
:4017C000E054C064406004E52160099046FAE4F0FF12001A12205D22C0E0C083C082C085C084C086758600C093759300C0D075D000C006C007A2AFE433FFD2AF9044F4742E
:40180000FDF09002FAE0FE9002B8E06E602C90646EE020E2259002B8E0C394404002E4F09002B8E024B9F582E43402F583E090644DF09002B8E004F080C8EF24FF92AFD043
:4018400007D006D0D0D093D086D084D085D082D083D0E032A9079002FAE0FF9002B8E0FEEFC39E501AEE24FFFDE434FFFCEF7A00B50508EAB504047D0180027D00800CC346
:40188000EF9EB43F047D0180027D00ED70C8EEB5070D90646EE020E20690644DE9F022EFC394404002E4FF74B92FF582E43402F583E9F00F9002FAEFF090646EE030E10609
:4018C0009044D07402F02290FFFC1208AE12085E850883850982120836D3EF9400EE9480402E90034C120836121D00850883850982C083C082120836E42FFFEE3480FEEDC9
:4019000034FFFDEC34FFFCD082D08312085E80C090034212083685088385098212085212068D121D009000041208AE228F478E468D458C44E4F550D3E54F9400E54E940025
:40194000404BAF4FAE4EAD4DAC4C74FFFBFAF9F81206728F4F8E4E8D4D8C4CE547254BFFE546354AFEE5453549FDE5443548FCEF254FFFEE354EFEED354DFDEC354CA907BD
:40198000AA06AB051205AF2550F55080AAAF5022121FE190025E74FFF0121EFEEF703B7F01121E35EF6407702C7B017A0379537D021219E6EFB40215E490025EF090472228
:4019C000E0540270107F01FE121E6480F0904722E0540260D4122051800690025E7404F090025EE0FF2290025F120873900262EDF0E4A3F0900262E0FFA3E0C39F50379065
:401A00004722E054016003D38001C340097F017E00121E6480E9904720E0FF90025F12086A900263E029F9E43AFAEF1205C8900263E004F080BE900263E0FF2290025EEC49
:401A4000F0A3EDF090025DEFF0541F25E0FFE433FEE42FFFEE3444FAA9077B0112201A900260EEF0A3EFF090025DE075F002A42400FFE5F03444FAA9077B01A3E0FEA3E0EC
:401A8000FFFDAC06122029900260E0FEA3E0FF22900267ECF0A3EDF0AC077D07904722E05402603B90472074B6F074D8F07405F0904722E054027023904720ECF09002670F
:401AC000E0904720F0900267E0A3E0904720F0EBF090026AE0904720F080067D0980027D04AF0522121FE1121EFEEF703B121F3A90025EEFF06407702A904722E0540270A1
:401B0000087F01FE121E6480F0904722E054026009E0FF1313543FFF80027FFFEF700490025EF0122051800690025E7404F090025EE0FF229044C87401F09002F9E0FE905D
:401B40000277E0B5060E900276E060047F40802CE4FF80289002F9E0FE900277E0C39E500BE0FE9002F9E0C39EFF8010900277E0FEC374409EFE9002F9E02EFF9044C07420
:401B800001F022420355251A420357251B430350000000440347016E360044034200005DC04103461844034C2EE000004102FB004102B8004102FA004102FD00410277003B
:401BC0004102F900410276004102FC0041035B00008B4C8A4D894E8C4F8D50E4F555F556121E07C3E5569550E555954F501DAB4CE54E2556F9E54D3555FA1205AFFF121874
:401C0000540556E5567002055580D8AB51AA52A953E54F8550F01206537F00229044C87401F0900277E0FE9002F9E0FD900276E07004EE6D602474782EF582E43402F583EF
:401C4000E0FF0EEEC394404002E4FE900277EEF0900276E06009E4F0800590644AE0FF9044C07401F0228B4C8A4D894EE4F54FF550D3ED9400EC94004025AB4CED24FFFFD4
:401C8000EC34FFFEE54E2FF9E54D3EFA1205AF2550F550E4354FF54FED1D70011C80D2E550F4FFE54FF4FEEF2401FFE43EFE227C167DA8E4FF121A3C7D07E4FF121F55E4B7
:401CC0009002FDF090648A7469F090648C7420F07C177DD87F01121A3C7D077F01121F5590642E7406F090643E7447F090648E7402F0228B938A838982E0759300FF22000A
:401D0000EC4D4E700D78FCEF24E950032840FD2200007BF178DA0000EF28FF78FFEE38FEED38FDEC38FC50E7EF2BFFEE38FEED38FDEC38FC40F22205020304121FCC9002FD
:401D40005DEFF090649AE04420F090649CE04410F09044C07401F090649EE04410F09044D87402F09044C0F012203690025DE0FF121F9F22758600EF4E6027EF60010E75B2
:401D80009300900005E0F595A3E0F585A3E0F5848B938A838982E0A30586F0A31586DFF6DEF4E4F593F59522121FCC9043A0E04408F09043B0E04408F090470174C8F090A8
:401DC00043ACE04410F09043BCE04410F0904700E0542060F8121F9F22ACEAADA08E838F82E493F9601CA3E493F5EAA3E493F5A0A3E49360F1FAA3E493F8A3E493F2DAF6BC
:401E0000D9E48DA08CEA22121FCC90649AE04401F0E054FEF0121F9F9044C87401F0E4900277F09002F9F0900276F09002FCF09044C004F0227E07904722E05402601F9052
:401E4000472074B6F074E1F0740EF0904722E054027007904720EFF080067E0980027E04AF062200EEFA900346E0F88FF0A4FFAEF0E88AF0A42EFEE5F03400FDEF24C9FF5A
:401E800078FFEE38FEED38FDE438FC5003021D0022121FCC90649DE04401F0E054FEF0121F9F9044C87402F0E49002B8F09002FAF09044C07402F022758600EF4E601BEFCA
:401EC00060010E8C838D828B958A858984E493A30586F0A31586DFF5DEF3E4F595229046FAE054C064807015F0FD7F02120A3DEF4E600AE4FD7F02120A3D122009229002CC
:401F0000667404F0121FCC90035BE0700704F0E4900266F0121F9F900266E0FF227B0C7A0179CF121CF3EF540790586EF0EFC4540FA3F09058767444F0227F07904722E0DD
:401F40005402600E90472074B6F074E0F0740DF080027F0422AC07ED540775F020A4FFEC541F2480F582E43444F583EFF022EC4D6011ED60010C8B938A838982E4F0A3DDB0
:401F8000FCDCFA75930022121AE490025DEFF0700812199090025DEFF090025DE0FF22EF54016004D2AF8002C2AFEF5402FF9044F4E054FD4FF02290FFFF1208AEEFF090D7
:401FC00046EA7401F09000011208AE229044F4E0F84402F0E85402FF10AF012274014FFF22121FCC9043A0E04408F09043B0E04408F0121F9F229002FBE07009121CAF9087
:4020000002FB7401F0121D3B2290034BE0FA8E838F827400758101738B938A838982E0FFA3E0FE759300228B938A838982EDF0A3ECF0759300229043A2E04401F09043B26F
:40204000E04401F0228B938A838982EDF075930022121FCCE490035BF0121F9F229046FA7480F012207122121FF6121E07121E91229046F6E04401F02212175980FE2280DC
:40208000FE22007F7B007B00000030D8C800D800000016005205082309121098118814200064047E3F8A698C3A8E0F010101E204010301E6020105028702E008010604B82E
:4020C00002BE01D804DF010107021B02A702010A088501890195019901B101BF01D904DF01010B4F00400106038808010A040B111028130219641A041B0A202021082230E9
:40210000274028282A022B022E033080310232103304340836203708382239803A083C283E084028410843824A024B0152045B4068286A016B027090712072108D408E104D
:402140008F809042910493109621980199029B0C9D649E049F80A004A102A202A490A520A702AB01B021B405B602B744C00FC20FC40ECA0FCC6FCE6FD00FD208D608E0083A
:40218000E801010C4C0001021608E70A180E3F101E120114C6163918481C88208824DD262228232ADC2CC8301F320834E03A22541A560458045B045F018008824284F88698
:4021C000018704880F89028AF08D068EC792849308943996C698109C20A020A101A43FA6C0A906AA08AC30B031B106B308B501B6FFB702B982BE40BF11C062C101C5E0C6DA
:40220000CBC80EC9FFCAFFCBFFCEF0CF44D00CD804D904DA04DF01E6C0EA40EB02010D46002901100210030B04010709080209260A310D220E11108012481388151016502C
:402240001780180219021C081D021E201F20200421012208230128402920320238C839A43A083B10414042084921502053405E205F026540674887409088912093089502C2
:40228000978098409B4A9C029D259E049F04A420A504A72AB001B301C0DFC2FFC4FFCA05CC01CE0ED00CD204D6A0D8B0010E4E040906D007230B080C0C0D210E710F0E1048
:4022C00014141016AC170C18DC1A221B201E0321102410264029212A202B062D0C2F2330E03310350F361F37203A023B203F444004464049FF4A074BFF4C404D204EF04F8A
:4023000005500854015604580459045A045B045F01604061A862406320871F89198B0691019304950997029A01A506A719A919AA01AB06AF0FB201B310B507B708B908BB65
:4023400020BE04D804D904DB04DF01010F3C004404040504084809200A010B800E0810081210160418C01A011F042130224425102604270A280829212A802F2A303031047A
:402380003402370438883A103D284101500C5210581059015A886380680169046A206B406F0171407304821083408550868089048B04C005C24FC446CA7DCCC6CE6ED00101
:4023C000D60FD801E40C014005322035808180CC30E2200141038620A620E6400144058301870188C0E004E40401450F0C0857025B046401660193029889A040A301B009C2
:40240000C204D607D801E801EC0401460D8702900893029888A040A301A702AB04B40CB601E808EC02EE08014705900893029888A040A301014C0E5004544057015808607D
:40244000806702900893029888A040A301D406D607D80201500300010C010E01015101000F005100001000513000400051C000100051F000100100000A00010A800580018E
:40248000140008000140000A00014C000200015000002000008080207D050000040800130C0400030204200A031410130C0C7300088000400800004043003C404F003000DE
:4024C0000000734000303F0FC0800008002028000040003402010005C0000E12FFFFFF62A0F0410C00000000000210040404040000000100000000000040020010301000CE
:4025000010101200000000000000000000000000000000010A002493008061000026006930091E031E010100000000000000000000000000000000000000000000000000BD
:40254000000000000000000000000000000000000000000000000000000000000000000000000000000000000000000000000000000000000000000000000000000000005B
:40258000000000000000000000000000000000000000000000000000000000000000000000000000000000000000000000000000000000000000000000000000000000001B
:4025C00000000000000000000000000000000000000000000000000000000000000000000000000000000000000000000000000000000000000000000000000000000000DB
:402600000279C5008F828E83E0540100000070F82278FFE4F6D8FD027A53900000EEF0A3EFF078027C007D017BFF7A4479A97E077F9F12566F9007A1E4F0A37406F0E4A3AC
:40264000F0A3F0A3F0A37402F07C007D327F007E00125305AA06AB077F067E00125305EF2BFDEE3AFC900C16E075F032A4FF2DFFEC35F0CF245FCF34019007A7F0A3EFF090
:40268000E4A3F0A3F078AB7C077D017BFF7A4C7948FE7F1A12566F78C57C077D017BFF7A4C79627E007F0B12566F78D07C077D017BFF7A4C796D7E007F1412566F78E47C16
:4026C000077D017BFF7A4C79817E007F1012566F78F47C077D017BFF7A4C79917E007F2A12566F781E7C087D017BFF7A4C79BB7E007F1A12566F7B017A0779E4128FFE8F00
:40270000137B017A0779AB128FFE8F147B017A0779C5128FFE8F157B017A0779D0128FFE8F167B017A0779F4128FFE8F177B017A08791E128FFE8F1878387C087D017BFF65
:402740007A4C79D57E007F7612566F9008B174FFF0A37442F0A3745AF0A3E4F0A3740AF0A3E4F0A37464F07B017A087938125DC07B017A087938128FFE8F19900C16E0FDD8
:40278000C313FF9007A3E4F0A3EFF09007A3E0FEA3E025E0FFEE33FEC3ED9FFFE49EFED3EF9400EE9400400BE004F070069007A3E004F09007A3E0FEA3E0FF7C007D3212D6
:4027C0005305AA06AB079007A1E0FEA3E0FF125305EF2BFDEE3AFC900C16E0F975F032A4FF2DFFEC35F0CF242DCF34019007A7F0A3EFF09007A3E0FAA3E0FB9007A1E0FC66
:40280000A3E0FDEB2DFFEA3CCF2403CF34009007A5F0A3EFF0900002740CF0ED2BFFE92F2403A3F0900000E0FEA3E0FF60030232CEEE60030232CEE49007A9F0A3F090006A
:40284000047402F0A314F0900C16E0900006F0750B0085140CE50C450B602CC3E514950CFFE4950BFE74AB2FF58274073EF583E0FD74072FF58274003EF583EDF0E50C155E
:402880000C7002150B80CE9007AAE02432F09007A9E03400F0E4F50BF50CF50FF5109007A1E0FEA3E0D39510EE950F5003022A5D9008B174FFF0A37442F0A374CEF0A3E5C2
:4028C0000FF0A3E510F07B017A0779C5125DC07511007512047B017A0779C5128FFE8F159007A9E0FEA3E0FF851082850F8374321254D3E5822FF582E5833EF583E58224F5
:4029000004F582E5833400F5837402F0851082850F8374321254D3E5822FF582E5833EF583E5822405F582E5833400F5837403F0AE0FAF107C00FD1253058E0D8F0EAE0F94
:40294000AF107C007D03125305EF2402FFE43EFED3E50E9FE50D9E40030229F17437250CF5827409350BF583E0F9B50E3FE4B50D3B9007A9E0FEA3E02512FFE5113EFE85D8
:402980001082850F8374321254D3E5822FF582E5833EF583E5822402F582E5833400F583E9F0050CE50C7002050B80329007A9E0FEA3E02512FFE5113EFE851082850F8306
:4029C00074321254D3E5822FF582E5833EF583E5822402F582E5833400F58374FFF00512E51270020511050EE50E7002050D02293E750D0085150EE50E450D6055C3E515E8
:402A0000950EFFE4950DFE74C52FF58274073EF583E0FBAE0FAF107C007D321253059007A9E0FCA3E02FFFEC3EFE7C00EF2515FFEC3EFEC3EF950EFFEE950DFE74092FF530
:402A40008274003EF583EBF0E50E150E7002150D80A50510E5107002050F02289E9007A1E0FEA3E0FF7C007D321253059007AAE02FF09007A9E03EF0E4F50FF5109007A3C6
:402A8000E0FEA3E0D39510EE950F5003022DA99007A9E0FEA3E0FF851082850F8374321254D3E5822FF582E5833EF583E5822404F582E5833400F5837402F0851082850F7D
:402AC0008374321254D3E5822FF582E5833EF583E5822405F582E5833400F5837403F0E51025E0FFE50F33FE74372FF58274093EF583E075F003A42419F582E4340DF583E8
:402B0000E0FF9007A9E0FCA3E0FD851082850F8374321254D3E5822DF582E5833CF583E5822406F582E5833400F583EFF0E51025E0FFE50F33FE74372FF58274093EF58349
:402B4000E075F003A4241AF582E4340DF583E0FF851082850F8374321254D3E5822DF582E5833CF583E5822407F582E5833400F583EFF0E51025E0FFE50F33FE74372FF51B
:402B80008274093EF583E075F003A4241BF582E4340DF583E0FF851082850F8374321254D3E5822DF582E5833CF583E5822408F582E5833400F583EFF0E5102401FFE435DF
:402BC0000FFEEF25E0FFEE33FE900C16E0C39FE49E5064750D0085160EE50E450D7003022D9EC3E516950EFFE4950DFE74D02FF58274073EF583E0FBAE0FAF107C007D325B
:402C00001253059007A9E0FCA3E02FFFEC3EFE7C00EF2516FFEC3EFEC3EF950EFFEE950DFE74092FF58274003EF583EBF0E50E150E7002150D80A29007A9E0FEA3E0FF856D
:402C40001082850F8374321254D3E5822FF582E5833EF583E5822405F582E5833400F5837406F0E51025E0FFE50F33FE74382FF58274093EF583E075F003A42419F582E4F5
:402C8000340DF583E0FF9007A9E0FCA3E0FD851082850F8374321254D3E5822DF582E5833CF583E5822409F582E5833400F583EFF0E51025E0FFE50F33FE74382FF58274CA
:402CC000093EF583E075F003A4241AF582E4340DF583E0FF851082850F8374321254D3E5822DF582E5833CF583E582240AF582E5833400F583EFF0E51025E0FFE50F33FEA7
:402D000074382FF58274093EF583E075F003A4241BF582E4340DF583E0FF851082850F8374321254D3E5822DF582E5833CF583E582240BF582E5833400F583EFF0750D003A
:402D400085160EE50E450D6055C3E516950EFFE4950DFE74D02FF58274073EF583E0FBAE0FAF107C007D321253059007A9E0FCA3E02FFFEC3EFE7C00EF2516FFEC3EFEC340
:402D8000EF950EFFEE950DFE740C2FF58274003EF583EBF0E50E150E7002150D80A50510E5107002050F022A7D9007A3E0FEA3E0FF7C007D321253059007AAE02FF09007BB
:402DC000A9E03EF09008B174FFF0A37442F0A374DAF09007A5E0FEA3E024FFFFEE34FF9008B4F0A3EFF07B017A0779E4125DC07B017A0779E4128FFE8F139007A9E0FEA3C3
:402E0000E0FF2404F58274003EF5837402F074052FF58274003EF5837401F09008DFE0FF9007A9E0FCA3E02406F58274003CF583EFF0750B0085130CE50C450B6046C3E586
:402E400013950CFFE4950BFE74E42FF58274073EF583E0FFE513FD7C009007A9E0FAA3E02DFDEC3AFCC3ED950CFDEC950BFC74072DF58274003CF583EFF0E50C150C700235
:402E8000150B80B49007AAE02432F09007A9E03400F0E4F50BF50C900C16E0FFC3E50C9FE50B940040030230F49008B174FFF0A37442F0A374EAF09007A5E0FEA3E0250CA9
:402EC000FFE50B3E9008B4F0A3EFF07437250CF5827409350BF583E0FF9008B6E4F0A3EFF07B017A0779F4125DC07B017A0779F4128FFE8F179007A9E0FEA3E0FF850C82E1
:402F0000850B8374321254D3E5822FF582E5833EF583E5822404F582E5833400F5837402F0850C82850B8374321254D3E5822FF582E5833EF583E5822405F582E583340021
:402F4000F5837405F07437250CF5827409350BF583E075F005A424E2F582E43408F583E0FF9007A9E0FCA3E0FD850C82850B8374321254D3E5822DF582E5833CF583E582D7
:402F80002406F582E5833400F583EFF07437250CF5827409350BF583E075F005A424E3F582E43408F583E0FF850C82850B8374321254D3E5822DF582E5833CF583E582245B
:402FC00007F582E5833400F583EFF07437250CF5827409350BF583E075F005A424E4F582E43408F583E0FF850C82850B8374321254D3E5822DF582E5833CF583E582240835
:40300000F582E5833400F583EFF07437250CF5827409350BF583E075F005A424E5F582E43408F583E0FF850C82850B8374321254D3E5822DF582E5833CF583E5822409F504
:4030400082E5833400F583EFF07437250CF5827409350BF583E075F005A424E6F582E43408F583E0FF850C82850B8374321254D3E5822DF582E5833CF583E582240AF58235
:40308000E5833400F583EFF0750D0085170EE50E450D6055C3E517950EFFE4950DFE74F42FF58274073EF583E0FBAE0BAF0C7C007D321253059007A9E0FCA3E02FFFEC3EF8
:4030C000FE7C00EF2517FFEC3EFEC3EF950EFFEE950DFE740B2FF58274003EF583EBF0E50E150E7002150D80A5050CE50C7002050B022E97900C16E075F032A4FFAEF090E4
:4031000007AAE02FF09007A9E03EF09008B174FFF0A37443F0A37405F0900C16E0FF7E009007A5E0FCA3E02FFFEE3C9008B4F0A3EFF07B017A08791E125DC09007A9E0FEED
:40314000A3E0FF2404F58274003EF583E4F074052FF58274003EF5837401F09008E1E0FF9007A9E0FCA3E02406F58274003CF583EFF0EF14602314603C240270529008B17C
:4031800074FFF0A37443F0A3741AF07B017A08791E12868875181A80369008B174FFF0A37443F0A37420F07B017A08791E128688751819801A9008B174FFF0A37443F0A384
:4031C0007425F07B017A08791E12868875181A750B0085180CE50C450B6046C3E518950CFFE4950BFE741E2FF58274083EF583E0FFE518FD7C009007A9E0FAA3E02DFDEC86
:403200003AFCC3ED950CFDEC950BFC74072DF58274003CF583EFF0E50C150C7002150B80B47E009007A9E0FCA3E02518FFEE3CFE74072FF58274003EF5837401F09007AA12
:40324000E02432F09007A9E03400F0750B0085190CE50C450B6046C3E519950CFFE4950BFE74382FF58274083EF583E0FFE519FD7C009007A9E0FAA3E02DFDEC3AFCC3ED7D
:40328000950CFDEC950BFC74042DF58274003CF583EFF0E50C150C7002150B80B47B017A0079029007A7E0A3E014FD128C3B9007A7E0FCA3E0FD2401F58274003CF583EFA4
:4032C000F07B017A0079021283FB12909A229007A5E0FEA3E024FFFFEE34FFFE900000E0FCA3E0FDC39FEC9E50030234DC900C16E0FF7E009007A5E0FAA3E0FB2FFFEE3A6B
:40330000FEEDB5070DECB50609900D4FE090094BF022EB24FFFFEA34FFFE900000E0FCA3E0FDB5070DECB50609900D4FE0900949F022900D4FE0FF9007A5E0FAA3E0FBC3F8
:40334000ED9BFDEC9AFC74372DF58274093CF583E075F005A4244CF582E43409F583EFF0900D50E0FF74372DF58274093CF583E075F005A4244DF582E43409F583EFF0904F
:403380000D51E0FF74372DF58274093CF583E075F005A4244EF582E43409F583EFF0900D52E0FF74372DF58274093CF583E075F005A4244FF582E43409F583EFF0900D5373
:4033C000E0FF74372DF58274093CF583E075F005A42450F582E43409F583EFF09010D2E4F0A304F0E4F50BF50C900C16E0FFC3E50C9FE50B940040030234CE7437250CF5DB
:40340000827409350BF583E0FF75F005A4244DF582E43409F583E075F006A4FEEF75F005A4244CF582E43409F583E075F006A42EFF7437250CF5827409350BF583E0FE7506
:40344000F005A4244EF582E43409F583E075F006A42FFFEE75F005A4244FF582E43409F583E0C454F02FFF7437250CF5827409350BF583E0FE75F005A42450F582E43409FF
:40348000F583E025E02F2402FDEE25E02446F582E43410F583E4F0A3EDF07437250CF5827409350BF583E025E02446F582E43410F583E0FEA3E0FF9010D3E02FF09010D263
:4034C000E03EF0050CE50C7002050B0233E99010D3E004F070069010D2E004F02290000AEEF0A3EFF0E4A3F0FFFEFDFC90005B1254C7900C16E06401600302425990000AE7
:40350000E0FEA3E0FF9008E275F0051254E4EE75F005A42583F583E0700312778D90000AE0FEA3E0FF9008E375F0051254E4EE75F005A42583F583E070031278A9900D15FB
:40354000E0F8A3E0F9A3E0FAA3E0FB901068E0FCA3E0FDA3E0FEA3E0C39BFFEE9AFEED99FDEC98FCE41250737B007A2479747849124F4C90005B1254C790000AE0FEA3E06E
:40358000FF90106C75F0061254E4EE75F006A42583F583E0FD90000DE4F0A3EDF090106D75F006EF1254E4EE75F006A42583F583E0FD90000EE0FCEDEC12507890001F12C7
:4035C00054C790000AE0FEA3E0FF90106E75F0061254E4EE75F006A42583F583E0FD90000DE4F0A3EDF090106F75F006EF1254E4EE75F006A42583F583E0FD90000EE0FCE1
:40360000EDEC1250789000231254C790000AE0FEA3E0FF90107075F0061254E4EE75F006A42583F583E0FD90000DE4F0A3EDF090107175F006EF1254E4EE75F006A42583F3
:40364000F583E0FD90000EE0FCEDEC1250789000271254C7E4FFFEFDFC90003B1254C790000AE0FEA3E0FF900CAF75F0061254E4EE75F006A42583F583E0FD90000DE4F0AD
:40368000A3EDF0900CB075F006EF1254E4EE75F006A42583F583E0FD90000EE0FCEDEC1250787B547AA0790B7839124E4390003F1254C790003FE0FCA3E0FDA3E0FEA3E087
:4036C000FF12918B7BA67A0A7986783E124FE9600D400BE4FFFEFDFC90003F1254C790000AE0FEA3E0FF900CB175F0061254E4EE75F006A42583F583E0FD90000DE4F0A361
:40370000EDF0900CB275F006EF1254E4EE75F006A42583F583E0FD90000EE0FCEDEC1250787B547AA0790B7839124E439000431254C7900043E0FCA3E0FDA3E0FEA3E0FFA0
:4037400012918B7BA67A0A7986783E124FE9600D400BE4FFFEFDFC9000431254C790000AE0FEA3E0FF900CB375F0061254E4EE75F006A42583F583E0FD90000DE4F0A3EDEC
:40378000F0900CB475F006EF1254E4EE75F006A42583F583E0FD90000EE0FCEDEC1250787B547AA0790B7839124E439000471254C7900047E0FCA3E0FDA3E0FEA3E0FF12F1
:4037C000918B7BA67A0A7986783E124FE9600D400BE4FFFEFDFC9000471254C77B017A00791F127549900C9FE0FCA3E0FDA3E0FEA3E0FF90004B1254C7900CA3E0FCA3E0D5
:40380000FDA3E0FEA3E0FF90004F1254C7900CA7E0FCA3E0FDA3E0FEA3E0FF9000531254C7900CABE0FCA3E0FDA3E0FEA3E0FF9000571254C7900053E0FCA3E0FDA3E0FE50
:40384000A3E0FF90004BE0F8A3E0F9A3E0FAA3E0FB124E43C004C005C006C007900057E0FCA3E0FDA3E0FEA3E0FF90004FE0F8A3E0F9A3E0FAA3E0FB124E43D003D002D057
:4038800001D000124D4EE4FBFAF97840124E4390001FE0F8A3E0F9A3E0FAA3E0FB124D4EC004C005C006C007900053E0FCA3E0FDA3E0FEA3E0FF125062D003D002D001D050
:4038C00000124E43C004C005C006C007900057E0FCA3E0FDA3E0FEA3E0FF900053E0F8A3E0F9A3E0FAA3E0FB124E43C004C005C006C00790004FE0FCA3E0FDA3E0FEA3E09F
:40390000FF90004BE0F8A3E0F9A3E0FAA3E0FB124E43D003D002D001D000124D52E4FBFAF97840124E43900023E0F8A3E0F9A3E0FAA3E0FB124D4E90004FE0F8A3E0F9A312
:40394000E0FAA3E0FB124E43D003D002D001D000124D527B827A5179C37840124E4390002B1254C7900057E0FCA3E0FDA3E0FEA3E0FF900053E0F8A3E0F9A3E0FAA3E0FB96
:40398000124E43C004C005C006C00790004FE0FCA3E0FDA3E0FEA3E0FF90004BE0F8A3E0F9A3E0FAA3E0FB124E43D003D002D001D000124D52E4FBFAF97840124E4390008F
:4039C00023E0F8A3E0F9A3E0FAA3E0FB124D4E90004BE0F8A3E0F9A3E0FAA3E0FB124E43C004C005C006C007900053E0FCA3E0FDA3E0FEA3E0FF90004BE0F8A3E0F9A3E0D1
:403A0000FAA3E0FB124E43C004C005C006C007900057E0FCA3E0FDA3E0FEA3E0FF90004FE0F8A3E0F9A3E0FAA3E0FB124E43D003D002D001D000124D4EE4FBFAF9784012AF
:403A40004E4390001FE0F8A3E0F9A3E0FAA3E0FB124D4E900057E0F8A3E0F9A3E0FAA3E0FB124E43D003D002D001D000124D52C004C005C006C00790004FE0FCA3E0FDA346
:403A8000E0FEA3E0FF90004FE0F8A3E0F9A3E0FAA3E0FB124E43A804A905AA06AB07E4FFFEFD7C3F124D4EC004C005C006C007900053E0FCA3E0FDA3E0FEA3E0FF90005398
:403AC000E0F8A3E0F9A3E0FAA3E0FB124E43A804A905AA06AB07D007D006D005D004124D4EE4FBFAF97840124E43900027E0F8A3E0F9A3E0FAA3E0FB124D4EC004C005C0EC
:403B000006C007E4FFFEFD7C4090004FE0F8A3E0F9A3E0FAA3E0FB124E43D003D002D001D000124E43A804A905AA06AB07D007D006D005D004124D4E7B827A5179C37840E9
:403B4000124E4390002F1254C7900053E0FCA3E0FDA3E0FEA3E0FF90004BE0F8A3E0F9A3E0FAA3E0FB124E43C004C005C006C007900057E0FCA3E0FDA3E0FEA3E0FF9000BB
:403B80004FE0F8A3E0F9A3E0FAA3E0FB124E43D003D002D001D000124D4EE4FBFAF97840124E4390001FE0F8A3E0F9A3E0FAA3E0FB124D4EC004C005C006C00790004BE028
:403BC000FCA3E0FDA3E0FEA3E0FF125062D003D002D001D000124E43C004C005C006C007900057E0FCA3E0FDA3E0FEA3E0FF900053E0F8A3E0F9A3E0FAA3E0FB124E43C0A8
:403C000004C005C006C00790004FE0FCA3E0FDA3E0FEA3E0FF90004BE0F8A3E0F9A3E0FAA3E0FB124E43D003D002D001D000124D52E4FBFAF97840124E43900023E0F8A3D1
:403C4000E0F9A3E0FAA3E0FB124D4E900057E0F8A3E0F9A3E0FAA3E0FB124E43D003D002D001D000124D52C004C005C006C00790004FE0FCA3E0FDA3E0FEA3E0FF90004FC0
:403C8000E0F8A3E0F9A3E0FAA3E0FB124E43A804A905AA06AB07E4FFFEFD7C3F124D4EC004C005C006C007900053E0FCA3E0FDA3E0FEA3E0FF900053E0F8A3E0F9A3E0FA04
:403CC000A3E0FB124E43A804A905AA06AB07D007D006D005D004124D4EE4FBFAF97840124E43900027E0F8A3E0F9A3E0FAA3E0FB124D4EC004C005C006C007E4FFFEFD7C94
:403D000040900053E0F8A3E0F9A3E0FAA3E0FB124E43D003D002D001D000124E43A804A905AA06AB07D007D006D005D004124D4E7B827A5179C37840124E4390003312543E
:403D4000C7900057E0FCA3E0FDA3E0FEA3E0FF900053E0F8A3E0F9A3E0FAA3E0FB124E43C004C005C006C00790004FE0FCA3E0FDA3E0FEA3E0FF90004BE0F8A3E0F9A3E05B
:403D8000FAA3E0FB124E43D003D002D001D000124D52E4FBFAF97840124E43900023E0F8A3E0F9A3E0FAA3E0FB124D4E900053E0F8A3E0F9A3E0FAA3E0FB124E43C004C0BC
:403DC00005C006C007900053E0FCA3E0FDA3E0FEA3E0FF90004BE0F8A3E0F9A3E0FAA3E0FB124E43C004C005C006C007900057E0FCA3E0FDA3E0FEA3E0FF90004FE0F8A36C
:403E0000E0F9A3E0FAA3E0FB124E43D003D002D001D000124D4EE4FBFAF97840124E4390001FE0F8A3E0F9A3E0FAA3E0FB124D4E90004FE0F8A3E0F9A3E0FAA3E0FB124EB2
:403E400043D003D002D001D000124D527B827A5179C37840124E439000371254C7900043E0FCA3E0FDA3E0FEA3E0FF900053E0F8A3E0F9A3E0FAA3E0FB124E43C004C00525
:403E8000C006C00790003FE0FCA3E0FDA3E0FEA3E0FF90004FE0F8A3E0F9A3E0FAA3E0FB124E43D003D002D001D000124D52C004C005C006C007900047E0FCA3E0FDA3E0B3
:403EC000FEA3E0FF900057E0F8A3E0F9A3E0FAA3E0FB124E43D003D002D001D000124D52125062E4FBFAF9783F124E4390002BE0F8A3E0F9A3E0FAA3E0FB124D4E90000F2C
:403F00001254C7900043E0FCA3E0FDA3E0FEA3E0FF900057E0F8A3E0F9A3E0FAA3E0FB124E43C004C005C006C007900047E0FCA3E0FDA3E0FEA3E0FF900053E0F8A3E0F9C6
:403F4000A3E0FAA3E0FB124E43D003D002D001D000124D4EC004C005C006C00790003FE0FCA3E0FDA3E0FEA3E0FF90004BE0F8A3E0F9A3E0FAA3E0FB124E43D003D002D02A
:403F800001D000124D52E4FBFAF9783F124E4390002FE0F8A3E0F9A3E0FAA3E0FB124D4E9000131254C7900047E0FCA3E0FDA3E0FEA3E0FF90004FE0F8A3E0F9A3E0FAA33F
:403FC000E0FB124E43C004C005C006C00790003FE0FCA3E0FDA3E0FEA3E0FF900057E0F8A3E0F9A3E0FAA3E0FB124E43D003D002D001D000124D4EC004C005C006C007908D
:404000000043E0FCA3E0FDA3E0FEA3E0FF90004BE0F8A3E0F9A3E0FAA3E0FB124E43D003D002D001D000124D52E4FBFAF9783F124E43900033E0F8A3E0F9A3E0FAA3E0FBDC
:40404000124D4E9000171254C790003FE0FCA3E0FDA3E0FEA3E0FF900053E0F8A3E0F9A3E0FAA3E0FB124E43C004C005C006C007900043E0FCA3E0FDA3E0FEA3E0FF9000E4
:404080004FE0F8A3E0F9A3E0FAA3E0FB124E43D003D002D001D000124D4EC004C005C006C007900047E0FCA3E0FDA3E0FEA3E0FFA3E0F8A3E0F9A3E0FAA3E0FB124E43D01B
:4040C00003D002D001D000124D52E4FBFAF9783F124E43900037E0F8A3E0F9A3E0FAA3E0FB124D4E90001B1254C790004BE0F8A3E0F9A3E0FAA3E0FBC000C001C002C003A2
:4041000090005BE0FCA3E0FDA3E0FEA3E0FF90000FE0F8A3E0F9A3E0FAA3E0FB124E43D003D002D001D000124D5290004B1254C790004FE0F8A3E0F9A3E0FAA3E0FBC000B7
:40414000C001C002C00390005BE0FCA3E0FDA3E0FEA3E0FF900013E0F8A3E0F9A3E0FAA3E0FB124E43D003D002D001D000124D5290004F1254C7900053E0F8A3E0F9A3E05D
:40418000FAA3E0FBC000C001C002C00390005BE0FCA3E0FDA3E0FEA3E0FF900017E0F8A3E0F9A3E0FAA3E0FB124E43D003D002D001D000124D529000531254C7900057E0D0
:4041C000F8A3E0F9A3E0FAA3E0FBC000C001C002C003A3E0FCA3E0FDA3E0FEA3E0FF90001BE0F8A3E0F9A3E0FAA3E0FB124E43D003D002D001D000124D529000571254C7A0
:404200007B017A00794B12704290004BE0FCA3E0FDA3E0FEA3E0FF900C9F1254C790004FE0FCA3E0FDA3E0FEA3E0FF900CA31254C7900053E0FCA3E0FDA3E0FEA3E0FF90E2
:404240000CA71254C7900057E0FCA3E0FDA3E0FEA3E0FF900CAB1254C72230202D3E204E6F6E650A31202D3E204C6F77202825752075732064656C617920666F7220656199
:40428000636820382D6269742072656769737465722072656164290A32202D3E2048696768202825752075732064656C617920666F72206561636820382D626974207265B2
:4042C0006769737465722072656164290A00506F72742025752049443A002575202D204465766963652049443A002575202D20494D5520256420636F6E66696775726174D0
:40430000696F6E3A002575202D2053504920726561642064656C61793A00204E6F6E6500204C6F7700204869676800000D0A004669726D776172652076657273696F6E3A8F
:404340002000494D55626F617264207620312E31000D0A0D0A0044455649434520494E464F0D0A0049443A2025640D0A00494D5520436F6E6E65637465643A2025640D0A84
:4043800000494D557320434F4E46494755524154494F4E0D0A00496D75202564200D0A0949443A2025640D0A0009416363656C65726F6D65746572733A20005945530D0ADC
:4043C000004E4F0D0A00094779726F73636F7065733A2000094D61676E65746F6D65746572733A2000095175617465726E696F6E3A20000954656D70657261747572653A60
:40440000200054696D65206265747765656E2074776F2072656164696E67206379636C65733A20252E3366206D730064656275673A20256C640053454E534F525320494E2C
:40444000464F0D0A00094163633A2025640925640925640D0A00094779726F3A2025640925640925640D0A00094D61673A2025640925640925640D0A0009517561743A2060
:40448000252E336609252E336609252E336609252E33660D0A000954656D70657261747572653A2025640D0A00000000000000000000000000000000000000000000000089
:4044C00000000000000000000000000000000000000000000000000000000000000000000000000000000000000000000000000000000000000000000000000000000000BC
:40450000000000000000000000000000000000000000000000000000000000000000000000000000000000000000000000000000000000000000000000000000000000007B
:40454000000000000000000000000000000000000000000000000000000000000000000000000000000000000000000000000000000000000000000000000000000000003B
:4045800000000000000000000000000000000000000000000000000000000000000000000000000000000000000000000000000000000000000000000000000000000000FB
:4045C00000000000000000000000000000000000000000000000000000000000000000000000000000000000000000000000000000000000000000000000000000000000BB
:40460000000000000000000000000000000000000000000000000000000000000000000000000000000000000000000000000000000000000000000000000000000000007A
:40464000000000000000000000000000000000000000000000000000000000000000000000000000000000000000000000000000000000000000000000000000000000003A
:4046800000000000000000000000000000000000000000000000000000000000000000000000000000000000000000000000000000000000000000000000000000000000FA
:4046C00000000000000000000000000000000000000000000000000000000000000000000000000000000000000000000000000000000000000000000000000000000000BA
:404700000000000000000000000000000000000000000000000000000000000000000000000000000000000000000000000000000000000000000000000000000000000079
:404740000000000000000000000000000000000000000000000000000000000000000000000000000000000000000000000000000000000000000000000000000000000039
:4047800000000000000000000000000000000000000000000000000000000000000000000000000000000000000000000000000000000000000000000000000000000000F9
:4047C00000000000000000000000000000000000000000000000000000000000000000000000000000000000000000000000000000000000000000000000000000000000B9
:404800000000000000000000000000000000000000000000000000000000000000000000000000000000000000000000000000000000000000000000000000000000000078
:404840000000000000000000000000000000000000000000000000000000000000000000000000000000000000000000000000000000000000000000000000000000000038
:4048800000000000000000000000000000000000000000000000000000000000000000000000000000000000000000000000000000000000000000000000000000000000F8
:4048C00000000000000000000000000000000000000000000000000000000000000000000000000000000000000000000000000000000000000000000000000000000000B8
:404900000000000000000000000000000000000000000000000000000000000000000000000000000000000000000000000000000000000000000000000000000000000077
:404940000000000000000000000000000000000000000000000000000000000000000000000000000000000000000000000000000000000000000000000000000000000037
:4049800000000000000000000000000000000000000000000000000000000000000000000000000000000000000000000000000000000000000000000000000000000000F7
:4049C00000000000000000000000000000000000000000000000000000000000000000000000000000000000000000000000000000000000000000000000000000000000B7
:404A00000000000000000000000000000000000000000000000000000000000000000000000000000000000000000000000000000000000000000000000000000000000076
:404A40000000000000000000000000000000000000000000000000000000000000000000000000000000000000000000000000000000000000000000000000000000000036
:404A800000000000000000000000000000000000000000000000000000000000000000000000000000000000000000000000000000000000000000000000000000000000F6
:404AC00000000000000000000000000000000000000000000000000000000000000000000000000000000000000000000000000000000000000000000000000000000000B6
:404B00000000000000000000000000000000000000000000000000000000000000000000000000000000000000000000000000000000000000000000000000000000000075
:404B40000000000000000000000000000000000000000000000000000000000000000000000000000000000000000000000000000000000000000000000000000000000035
:404B800000000000000000000000000000000000000000000000000000000000000000000000000000000000000000000000000000000000000000000000000000000000F5
:404BC00000000000000000000000000000000000000000000000000000000000000000000000000000000000000000000000000000000000000000000000000000000000B5
:404C00000000000000000000000000000000000000000000000000000000000000000000000000000000000000000000000000000000000000000000000000000000000074
:404C400000000000000000004E756D626572206F6620636F6E6E656374656420494D55733A0000000000000000000000004D61672063616C20706172616D65746572733A58
:404C800000000000000000000000000000000000000000000000000000000000000000000000000000000000000000000000000000000000000000000000000000000000F4
:404CC00000000000000000000000000000000000000000000000000000000000000000000000000000000000000000000000000000000000000000000000000000000000B4
:404D00000000000000000000000000000000000000000000000000000000000000000000000000000000000000000000000000000000000000000000000000000000000073
:404D400000000000000000000000000250E6E86480F8E933E83360110460F0ED33EC337009E8FCE9FDEAFEEBFF220460DED3EB9FEA9EE99DE8C2E78CF0C2F795F0400CE899
:404D8000CCF8E9CDF9EACEFAEBCFFB1250B185D0F05804700320D5B3E80470075002B2D50250F092D5EC0460F7E4CCC0E0C398F8603B94186008400DD0E0FB0250C8E4FBDB
:404DC000FAC9FC8028E830E406E4C9FBE4CAFCE830E305E4C9CACBFCE854076010F8C3E913F9EA13FAEB13FBEC13FCD8F130F52FC3E49CFCEF9BFFEE9AFEED99FDD0E0FBD3
:404E0000EF4E4D4C701222DB030250EDEC2CFCEF33FFEE33FEED33FDED30E7EB0250C8EF2BFFEE3AFEED39FDD0E0FB50130BBB00030250F0ED13FDEE13FEEF13FFEC13FCEE
:404E40000250C8EC4D6011E8497017ED33EC3304600DE4FCFFFEFD22E933E8330470F80250E61250B158046009E4CC248150062850090250F02840030250EDC0E0EB4A70FA
:404E800044B98006D0E0FB0250DCEF4E701CBD8008EBFFEAFEE9FD80EBE98DF0A4FEE5F0024F2CE9CDF9EAFEEBFFEF89F0A4FCE5F0CE89F0A42EFFE435F0CD89F0A42DFE77
:404EC000E435F08067EF4E7005BD80D780C3EF8BF0A4ACF0EE8BF0A42CFCE435F0F8EF8AF0A42CE5F038FCE433CB8DF0A42CFCE5F03BF8EE8AF0A42CFCE5F038F8E433CF45
:404F000089F0A42CFCE5F038CF3400CE89F0A42FFFE5F03EFEE433C98DF0A42EFEE5F039CD8AF0A42FFFE5F03EFEE43DFD33D0E0FB50070BBB000F0250F0EC2CFCEF33FFEE
:404F4000EE33FEED33FD0250C80250F0EC5D046005E8590470030250E61250B1580460F6EC4860F2EC7004FDFEFF22C860DB2481C85009C398600250060250ED9850CAF56E
:404F800082E9294B4A7005AB820250DC75F0007C1A7880C3EF9BEE9AED99400DC3EF9BFFEE9AFEED99FDE842F0DC23ACF0D0E0FFD0E0FED0E0FDAB8220E7101BEB60BAECF9
:404FC0002CFCEF33FFEE33FEED33FD0250C8E803F830E705C0F075F000EF2FFFEE33FEED33FD40B830E7C280AA74F8CC6480CCC86480C8F58204604FC3EB9FF5F0EA9E4228
:40500000F0E99D42F0E89C45F0603C501DE5825FFFE582D313CB5BCBF42B5582FB50280ABA002409B9002008801DE5825BFBE582D313CF5FCFF4C3132F5582FF50090EBE30
:4050400000050DBD00010CC3EB9FF5F0EA9E42F0E99D42F0E89C45F06007CC4820E701B3EC22ED33EC33600A047003BD8004ECB2E7FC2275F020800E75F010800575F00835
:405080007D007E007F003392D530D503125434EC334010EF33FFEE33FEED33FDEC33FCD5F0ED22E5F0247EA2D513CC92E7CDCEFF22E9D2E7C933E833F892D5EDD2E7CD33BF
:4050C000EC33FC5002B2D522EC30E7100FBF000C0EBE00080DBD00040BEB6014A2D5EB13FCED92E7FD2274FFFCFDFEFF22E480F8A2D574FF13FC7D80E480EFF920E7362421
:40510000F950037907E4F42402FBE582158270021583DBF6E024FB501BE96014E4F0E582158270021583E004F0B40A08E4F0D9EE7401F00A22C2D522ED33EC3392D5FA60AF
:405140002AB4FF33EDC2E77BFF60067A51795DE4227A51796620D5047A517961224E614E002B494E46002D494E4600E47A08F0A3DAFC7B00740722C083C082ECC0E0EDC0E4
:40518000E0EEC0E0EFC0E0EA75F010A4CAABF075F04DA42BFBE435F0FCEA2410FAEB34C5FBEC34D9FCEDC2E7FF75F056A4F42411C5F0F434C58FF0A42AE5F03BE43CF020D1
:4051C000E71412526DD0E0FFD0E0FED0E0FDD0E0FC124F4C8014F40412526DD0E0FFD0E0FED0E0FDD0E0FC124E43D082D083E0FAEDD2E7CD33EC332482FBE4C3CF33CFCE9F
:4052000033CECD33CD33DBF37B0775F00A846004F0A31B0AE5F0F0A38FF0740AA4FFACF08EF0740AA42CFEACF050010C8DF0740AA42CFDE435F0F0A3DBDE7407223F80002E
:40524000004120000042C80000447A0000461C400047C35000497424004B1896804CBEBC205A0E1BCA6753C21C749DC5AEFB60065407601C232312529BEB5438600912529F
:4052800087125296124E43ECF8EDF9EEFAEFCB22EB12529680F1543803241C90523DFE93FC0EEE93FD0EEE930ECE93FF22BB010689828A83E0225002E722BBFE02E3228940
:4052C000828A83E49322BB010CE58229F582E5833AF583E0225006E92582F8E622BBFE06E92582F8E222E58229F582E5833AF583E49322BB010689828A83F0225002F72259
:40530000BBFE01F322EF8DF0A4A8F0CF8CF0A428CE8DF0A42EFE22E88FF0A4CC8BF0A42CFCE98EF0A42CFC8AF0EDA42CFCEA8EF0A4CDA8F08BF0A42DCC3825F0FDE98FF0E3
:40534000A42CCD35F0FCEB8EF0A4FEA9F0EB8FF0A4CFC5F02ECD39FEE43CFCEAA42DCE35F0FDE43CFC2275F008758200EF2FFFEE33FECD33CDCC33CCC58233C5829BED9AE7
:40538000EC99E58298400CF582EE9BFEED9AFDEC99FC0FD5F0D6E4CEFBE4CDFAE4CCF9A88222B800C1B90059BA002DEC8BF084CFCECDFCE5F0CBF97818EF2FFFEE33FEED0E
:4053C00033FDEC33FCEB33FB10D703994004EB99FB0FD8E5E4F9FA227818EF2FFFEE33FEED33FDEC33FCC933C910D7059BE99A4007EC9BFCE99AF90FD8E0E4C9FAE4CCFB0C
:405400002275F010EF2FFFEE33FEED33FDCC33CCC833C810D7079BEC9AE899400AED9BFDEC9AFCE899F80FD5F0DAE4CDFBE4CCFAE4C8F922C3E49FFFE49EFEE49DFDE49C06
:40544000FC22EB9FF5F0EA9E42F0E99D42F0E89C45F022E8600FECC313FCED13FDEE13FEEF13FFD8F122E86010ECA2E713FCED13FDEE13FEEF13FFD8F022E8600FEFC33356
:40548000FFEE33FEED33FDEC33FCD8F122BB010789828A830257A25005E9F8025796BBFE05E9F80257AE89828A830257BABB010789828A830254C75005E9F80257CABBFED5
:4054C00005E9F80257D622ECF0A3EDF0A3EEF0A3EFF022F5F0C582A4C582C5F0C583A42583F58322A42582F582E5F03583F58322F8E0FBA3A3E0F925F0F0E58215827002AA
:405500001583E0FA38F022EBF0A3EAF0A3E9F022D083D082F8E4937012740193700DA3A393F8740193F5828883E4737402936860EFA3A3A380DFE5292582F582E5283583F3
:40554000F583B528048582292210AF06858229F52822858229F528D2AF22EC8EF0A4CCC5F0CCCDF8EFA4CEC5F02DFDE43CFCE8A42EC8C5F03DFDE43CFCEFA4FFE5F028FEC6
:40558000E43DFDE43CFC22EF4E6012EF60010EEDBB010B89828A83F0A3DFFCDEFA2289F05007F709DFFCA9F022BBFEFCF309DFFCA9F022E709F608DFFA8046E709F208DF4B
:4055C000FA803E88828C83E709F0A3DFFA8032E309F608DFFA806EE309F208DFFA806688828C83E309F0A3DFFA805A89828A83E0A3F608DFFA804E89828A83E0A3F208DF77
:40560000FA804280D280FA80C680D4805580F28029801080A680EA809A80A880DA80E280CA802988848C8589828A83E493A30586F0A30586DFF5DEF3800B89828A83E49390
:40564000A3F608DFF9ECFAA9F0EDFB2288848C8589828A83E0A30586F0A30586DFF6DEF480E389828A83E493A3F208DFF980D688F0EF60010E4E60CD88F0ED2402B40400CF
:4056800050C3F582EB2402B4040050B9232345822390560373E709F60870FA8046E709F20870FA803E88828C83E709F0A370FA8074E309F60870FA806CE309F20870FA80C8
:4056C0006488828C83E309F0A370FA805889828A83E0A3F60870FA804C89828A83E0A3F20870FA804080D280FA80C680D4805180F28027801080A680EA809A80A880DA8052
:40570000E280CA802788848C8589828A83E493A30586F0A3058670F5800B89828A83E493A3F60870F9ECFAA9F0EDFB2288848C8589828A83E0A30586F0A3058670F680E560
:4057400089828A83E493A3F20870F980D888F0ED2402B4040050CEF582EB2402B4040050C423234582239056E573C5F0F8A3E028F0C5F0F8E582158270021583E038F022F2
:40578000A3F8E0C5F025F0F0E582158270021583E0C838F0E822E6FC08E6FD08E6FE08E6FF22E0FCA3E0FDA3E0FEA3E0FF22E2FC08E2FD08E2FE08E2FF22E493FC74019356
:4057C000FD740293FE740393FF22ECF608EDF608EEF608EFF622ECF208EDF208EEF208EFF222900000EBF0A3EAF0A3E9F09008DFE064FA7003025D5A900000E0FBA3E0FACD
:40580000A3E0F8AC02AD037BFF7A43792B12574D9008B174FFF0A37443F0A3742CF0900000E0FBA3E0FAA3E0F91286889008B174FFF0A37443F0A3742FF0900000E0FBA317
:40584000E0FAA3E0F91286889008B174FFF0A37443F0A37442F0900000E0FBA3E0FAA3E0F91286889008B174FFF0A37443F0A37451F0900000E0FBA3E0FAA3E0F91286881D
:405880009008B174FFF0A37443F0A37456F0900000E0FBA3E0FAA3E0F91286889008B174FFF0A37443F0A37464F09008DFE0FF9008B4E4F0A3EFF07B017A007905125DC015
:4058C0009008B17401F0A37400F0A37405F0900000E0FBA3E0FAA3E0F91286889008B174FFF0A37443F0A3746DF0900C16E0FF9008B4E4F0A3EFF07B017A007905125DC023
:405900009008B17401F0A37400F0A37405F0900000E0FBA3E0FAA3E0F91286889008B174FFF0A37443F0A3742CF0900000E0FBA3E0FAA3E0F91286889008B174FFF0A374B2
:4059400043F0A37481F0900000E0FBA3E0FAA3E0F9128688E4900003F0A3F0900C16E0FFC3900004E09F7480F8900003E06480984003025C009008B174FFF0A37443F0A372
:405980007496F0900003E0FEA3E0FF9008B4EEF0A3EFF02437F58274093EF583E0FF9008B6E4F0A3EFF07B017A007905125DC09008B17401F0A37400F0A37405F0900000D2
:4059C000E0FBA3E0FAA3E0F91286889008B174FFF0A37443F0A374A9F07B017A007905125DC0900003E0FEA3E02437F58274093EF583E075F005A424E2F582E43408F5836E
:405A0000E060199008B174FFF0A37443F0A374BBF07B017A00790512868880179008B174FFF0A37443F0A374C1F07B017A0079051286889008B174FFF0A37443F0A374C605
:405A4000F07B017A007905128688900003E0FEA3E02437F58274093EF583E075F005A424E3F582E43408F583E060199008B174FFF0A37443F0A374BBF07B017A007905120E
:405A8000868880179008B174FFF0A37443F0A374C1F07B017A0079051286889008B174FFF0A37443F0A374D4F07B017A007905128688900003E0FEA3E02437F58274093E09
:405AC000F583E075F005A424E4F582E43408F583E060199008B174FFF0A37443F0A374BBF07B017A00790512868880179008B174FFF0A37443F0A374C1F07B017A007905BB
:405B00001286889008B174FFF0A37443F0A374E5F07B017A007905128688900003E0FEA3E02437F58274093EF583E075F005A424E5F582E43408F583E060199008B174FFBB
:405B4000F0A37443F0A374BBF07B017A00790512868880179008B174FFF0A37443F0A374C1F07B017A0079051286889008B174FFF0A37443F0A374F3F07B017A0079051236
:405B80008688900003E0FEA3E02437F58274093EF583E075F005A424E6F582E43408F583E060199008B174FFF0A37443F0A374BBF07B017A00790512868880179008B174DE
:405BC000FFF0A37443F0A374C1F07B017A0079051286889008B17401F0A37400F0A37405F0900000E0FBA3E0FAA3E0F9128688900004E004F07006900003E004F002595BD0
:405C00009008B174FFF0A37443F0A3742CF0900000E0FBA3E0FAA3E0F91286889008B174FFF0A37444F0A37402F0900D15E0F8A3E0F9A3E0FAA3E0FB901068E0FCA3E0FD52
:405C4000A3E0FEA3E0C39BFFEE9AFEED99FDEC98FCE4125073E4FBFA797A7844124F4C9008B41254C77B017A007905125DC09008B17401F0A37400F0A37405F0900000E0FF
:405C8000FBA3E0FAA3E0F91286889008B174FFF0A37443F0A3742CF0900000E0FBA3E0FAA3E0F91286889008B174FFF0A37443F0A3742CF0900000E0FBA3E0FAA3E0F91284
:405CC00086889008B174FFF0A37444F0A3742BF0900D15E0F8A3E0F9A3E0FAA3E0FB901068E0FCA3E0FDA3E0FEA3E0C39BFFEE9AFEED99FDEC98FC9008B41254C77B017AAF
:405D0000007905125DC09008B17401F0A37400F0A37405F0900000E0FBA3E0FAA3E0F91286889008B174FFF0A37443F0A3742CF0900000E0FBA3E0FAA3E0F912868890082C
:405D4000B174FFF0A37443F0A3742CF0900000E0FBA3E0FAA3E0F912868822E51A24B1F582E43408F583E0051A229008AE3008039008B1E475F0011254F00252AD2001E973
:405D80007F2ED2018018EF540F2490D43440D4FF30050BEF24BFB41A0050032461FFE51B6002151B051EE51E7002051D30080E9008AEE475F0011254F0EF0252F3028BD5E3
:405DC0007403D2088003E4C208F51A9008AE125507E4F51BF51DF51EE51B60077F20125D9E80F5751CFFC202C201C203C204C206C207C209125D6AFF700D3008057F00129C
:405E00005DAFAF1EAE1D22B4255FC2D5C205125D6AFF24D0B40A00501A75F00A781B30D50508B6FF0106C6A426F620D5047002D20480D924CFB41A00EF5004C2E5D205029E
:405E400060A1D20280C6D20180C0D20380BCD2D580BAD20680B47F20125D9E2003077401B51B0040F1125D5BFF125D9E025DD8D209D2078095125D5BFB125D5BFA125D5B81
:405E8000F94A4B7006799F7A617BFF20032EE51B602A7E008E827583001252C660060EEE651C70F0C2D5EBC0E0EAC0E0E9C0E0EE126102D0E0F9D0E0FAD0E0FB1252ADFFFD
:405EC00060AAEBC0E0EAC0E0E9C0E0125D9ED0E02401F9D0E03400FAD0E0FBE51C0460DCD51CD98087D20380A21260E460F7E51C7001041250FBA91C600DE51C600914F568
:405F00001C12618CEF60F3EA30E702F404C3995079EAF4251C0430E701E404F51C800D1260E460C1EA051C251C1250FBEA9008DDF030E701E4251C04D51C04200601141231
:405F40006102E4C0E012618C9008DDE0601320E70714F0125D86802204F0D0E014C0E07F00125D86E51C6007125D7D151C800B300603125D7DD0E0025DD8D0E00480C412D8
:405F800060E4609EE51C041250FB9008DDEAF0E51C200602600104240412610274FF04C0E012618C125D86E51C2006026003125D7DD0E0B51CE87F45125D909008DDE07F40
:405FC0002B30E7047F2DF404C0E0125D9ED0E075F00A84C0F0125D87D0E0125D87025DD8791080027908C207C2098008D2D5790A8004790AC2D5E51C047002F51CE4FAFD11
:40600000FEFF125D5BFC7B08200213125D5BFD7B1030010A125D5BFE125D5BFF7B20EC3382D592D55013C3E43001069FFFE49EFEE42002039DFDE49CFCE4CBF8C202EC700A
:406040000CCFCECDCCE824F8F870F38017C3EF33FFEE33FEED33FDEC33FCEB33FB994002FB0FD8E9EB300205F8D0E0C448B202C0E00AEC4D4E4F78207B0070C2EAB51C00E4
:4060800040BCC0E0126104D0F0D0E0200204C4C0E0C4B202C0F0125D87D0F0D5F0EB025DD81255105E75535FE0585E464C5E42425FE44F5FEC445FEC495E5B435FF2555F52
:4060C0001F465F7F455EE94761BF505E4A2D5E4E2E5E712B5E52235E6F2061A82A5E0A4800005E69E51CB4FF03751C06125D5BFC125D5BFD125D5BFE125D5BFF9008D6022B
:406100005138790AA2D5200414300609B910020404B9080104A2D52007025001042003689203B51B005034C0E07F203004197F30A20372077206500F12615BC203C207C215
:4061400006C2097F30800F300603E9C0E0125D9E300603D0E0F9D0E0B51BCC3006177F30B9100C125D9E7F583005077F788003B90803125D9E3003057F2D025D9E7F202037
:4061800009F87F2B2007F322920380CF7F00B40700500B24D6F582E43408F583E0FF22286E756C6C2900D202125D5B3002F8C202781B30D50108F6025E0A2D504349581269
:4061C0005D5B2403B405004001E49061BA93125D8F743A125D8FD204751B04025FE0900000EBF0A3EAF0A3E9F0900000E0FBA3E0FAA3E0F8AC02AD037BFF7A43792B1257E6
:406200004D9008B174FFF0A37443F0A3742CF0900000E0FBA3E0FAA3E0F91286889008B174FFF0A37444F0A37436F0900000E0FBA3E0FAA3E0F9128688E4900003F0A3F0B2
:40624000900C16E0FFC3900004E09F7480F8900003E064809840030266589008B174FFF0A37443F0A37496F0900003E0FEA3E0FF9008B4EEF0A3EFF02437F58274093EF525
:4062800083E0FF9008B6E4F0A3EFF07B017A007905125DC09008B17401F0A37400F0A37405F0900000E0FBA3E0FAA3E0F9128688900003E0FEA3E0FF2437F58274093EF57B
:4062C00083E075F005A424E2F582E43408F583E0700302636A9008B174FFF0A37444F0A37445F09009A275F025EF1254E4EE75F025A42583F583E0FDA3E09008B4CDF0A36D
:40630000EDF09009A475F025EF1254E4EE75F025A42583F583E0FFA3E09008B6CFF0A3EFF0900003E0A3E09009A675F0251254E4EE75F025A42583F583E0FFA3E09008B85C
:40634000CFF0A3EFF07B017A007905125DC09008B17401F0A37400F0A37405F0900000E0FBA3E0FAA3E0F9128688900003E0FEA3E0FF2437F58274093EF583E075F005A40E
:4063800024E3F582E43408F583E070030264249008B174FFF0A37444F0A37456F09009A875F025EF1254E4EE75F025A42583F583E0FDA3E09008B4CDF0A3EDF09009AA75B5
:4063C000F025EF1254E4EE75F025A42583F583E0FFA3E09008B6CFF0A3EFF0900003E0A3E09009AC75F0251254E4EE75F025A42583F583E0FFA3E09008B8CFF0A3EFF07B69
:40640000017A007905125DC09008B17401F0A37400F0A37405F0900000E0FBA3E0FAA3E0F9128688900003E0FEA3E0FF2437F58274093EF583E075F005A424E4F582E43472
:4064400008F583E070030264DE9008B174FFF0A37444F0A37468F09009AE75F025EF1254E4EE75F025A42583F583E0FDA3E09008B4CDF0A3EDF09009B075F025EF1254E464
:40648000EE75F025A42583F583E0FFA3E09008B6CFF0A3EFF0900003E0A3E09009B275F0251254E4EE75F025A42583F583E0FFA3E09008B8CFF0A3EFF07B017A00790512E5
:4064C0005DC09008B17401F0A37400F0A37405F0900000E0FBA3E0FAA3E0F9128688900003E0FEA3E02437F58274093EF583E075F005A424E5F582E43408F583E0700302E6
:4065000065D39008B174FFF0A37444F0A37479F0900003E0FAA3E0FB9009B475F0251254E4EA75F025A42583F583E0FCA3E0FDA3E0FEA3E0FF9008B41254C79009B875F0DA
:4065400025EB1254E4EA75F025A42583F583E0FCA3E0FDA3E0FEA3E0FF9008B81254C7900003E0FAA3E0FB9009BC75F0251254E4EA75F025A42583F583E0FCA3E0FDA3E082
:40658000FEA3E0FF9008BC1254C79009C075F025EB1254E4EA75F025A42583F583E0FCA3E0FDA3E0FEA3E0FF9008C01254C77B017A007905125DC09008B17401F0A374003E
:4065C000F0A37405F0900000E0FBA3E0FAA3E0F9128688900003E0FEA3E0FF2437F58274093EF583E075F005A424E6F582E43408F583E060529008B174FFF0A37444F0A3F0
:406600007496F09009C475F025EF1254E4EE75F025A42583F583E0FFA3E09008B4CFF0A3EFF07B017A007905125DC09008B17401F0A37400F0A37405F0900000E0FBA3E0C3
:40664000FAA3E0F9128688900004E004F07006900003E004F0026240229000017401F0E4A3F0A304F0A374A1F0E4900000F0900C16E0FF900000E0FEC39F4003026A2090A9
:406680000162743AF074372EF582E43409F583E075F005A424E2F582E43408F583E0607B900000E0FF75F025A424A2F582E5F03409F583E0FCA3E0FD900001E0FE2462F588
:4066C00082E43401F583ECF0A3EDF075F025EFA424A4F582E5F03409F583E0FCA3E0FD74642EF582E43401F583ECF0A3EDF0900000E075F025A424A6F582E5F03409F58316
:40670000E0FCA3E0FD74662EF582E43401F583ECF0A3EDF0900001E02406F0900000E0FF2437F582E43409F583E075F005A424E3F582E43408F583E06078900000E0FE758D
:40674000F025A424A8F582E5F03409F583E0FCA3E0FD900001E0FB2462F582E43401F583ECF0A3EDF075F025EEA424AAF582E5F03409F583E0FCA3E0FD74642BF582E43408
:4067800001F583ECF0A3EDF075F025EFA424ACF582E5F03409F583E0FEA3E0FF74662BF582E43401F583EEF0A3EFF0900001E02406F0900000E0FF2437F582E43409F583E4
:4067C000E075F005A424E4F582E43408F583E06078900000E0FE75F025A424AEF582E5F03409F583E0FCA3E0FD900001E0FB2462F582E43401F583ECF0A3EDF075F025EE43
:40680000A424B0F582E5F03409F583E0FCA3E0FD74642BF582E43401F583ECF0A3EDF075F025EFA424B2F582E5F03409F583E0FEA3E0FF74662BF582E43401F583EEF0A33A
:40684000EFF0900001E02406F0900000E02437F582E43409F583E075F005A424E5F582E43408F583E07003026919900000E0FB75F025A424B4F582E5F03409F583E0FCA305
:40688000E0FDA3E0FEA3E0FF900001E0FA2462F582E43401F5831254C775F025EBA424B8F582E5F03409F583E0FCA3E0FDA3E0FEA3E0FF74662AF582E43401F5831254C744
:4068C000900000E0FB75F025A424BCF582E5F03409F583E0FCA3E0FDA3E0FEA3E0FF746A2AF582E43401F5831254C775F025EBA424C0F582E5F03409F583E0FCA3E0FDA385
:40690000E0FEA3E0FF746E2AF582E43401F5831254C7900001E02410F0900000E0FF2437F582E43409F583E075F005A424E6F582E43408F583E0602D75F025EFA424C4F5D9
:4069400082E5F03409F583E0FEA3E0FF900001E02462F582E43401F583EEF0A3EFF0900001E02402F0900000E02437F582E43409F583E025E02446F582E43410F583E0FEA6
:40698000A3E02461F58274013EF583743AF09000017401F0E4A3F0900000E02437F582E43409F583E0F925E02446F582E43410F583E0FEA3E0FF900002E0FDD3EF9D7480C6
:4069C000F8EE648098402BE0FF2462F582E43401F583E0FEEF900003E02DFDE433FC74042DF58274003CF583EEF0900002E004F080A5E925E02446F582E43410F583E0A341
:406A0000E0FF900003E02FF07E007F167D007B017A017962125587900000E004F002666E7B017A0079049010D2E0A3E014FD128C3B9010D2E0FCA3E0FD2403F58274003C0D
:406A4000F583EFF07B017A0079041283FB22E4900000F0A3F0A3F0A3F0A3F0A3F0A3F0A3F0901627F0900C16E0FF901627E0FEC39F4003026D8874372EF582E43409F583B3
:406A8000E0FF7E00128A5D901627E02437F582E43409F583E0FF7E001282B5E4900004F0A3F0900004E0FEA3E0FFC39403EE94004003026B49EF25E0FFEE33FE901627E03F
:406AC000F92437F582E43409F583E0FD75F006A4246CF582E43410F583E5822FF582E5833EF583E0FB900000E4F0A3EBF0ED75F006A4246DF582E43410F583E5822FF58206
:406B0000E5833EF583E0FD900001E0FCED900005E025E0FF900004E033FE75F025E9A424D2F582E5F0340DF583E5822FF582E5833EF583ECF0A3EDF0900005E004F070066A
:406B4000900004E004F0026AA2E4900004F0A3F0900004E0FEA3E0FFC39403EE94004003026BF7EF25E0FFEE33FE901627E0F92437F582E43409F583E0FD75F006A424AF4B
:406B8000F582E4340CF583E5822FF582E5833EF583E0FB900000E4F0A3EBF0ED75F006A424B0F582E4340CF583E5822FF582E5833EF583E0FD900001E0FCED900005E025FB
:406BC000E0FF900004E033FE75F025E9A424D8F582E5F0340DF583E5822FF582E5833EF583ECF0A3EDF0900005E004F07006900004E004F0026B50E4900004F0A3F09000E3
:406C000004E0FEA3E0FFC39403EE94004003026CA5EF25E0FFEE33FE901627E0F92437F582E43409F583E0FD75F006A42417F582E4340CF583E5822FF582E5833EF583E056
:406C4000FB900000E4F0A3EBF0ED75F006A42418F582E4340CF583E5822FF582E5833EF583E0FD900001E0FCED900005E025E0FF900004E033FE75F025E9A424DEF582E5F7
:406C8000F0340DF583E5822FF582E5833EF583ECF0A3EDF0900005E004F07006900004E004F0026BFEE4900004F0A3F0901627E0707F900004E0FEA3E0FFC39404EE94008A
:406CC000506FEF7802C333CE33CED8F9249FF582740C3EF583E0FCA3E0FDA3E0FEA3E0FFC004C005C006C007900004E0FEA3E07802C333CE33CED8F9FF901627E075F025B6
:406D0000A424E4F582E5F0340DF583E5822FF582E5833EF583D007D006D005D0041254C7900005E004F07006900004E004F0026CAC901627E0FD2437F582E43409F583E09E
:406D4000FF25E0247DF582E4340CF583E0FB900000E4F0A3EBF0EF25E0247EF582E4340CF583E0FB900001E0FEEBFF75F025EDA424F4F582E5F0340DF583EEF0A3EFF09099
:406D80001627E004F0026A6522E4900001F0FE7F25FD7B017A0979A11255877E007F117D007B017A097937125587E4900000F0900000E0FFC39411501B7E00128A5DE47F1C
:406DC0000AFEFDFC1284887F75128F7D900000E004F080DBE4FFFE128A5DE47F0AFEFDFC1284887F75128F7D900002E4F0A3EFF0E4900002F0A3F0900C16F0900000F090A2
:406E00000000E0FFC39411505F7E00128A5DE47F0AFEFDFC1284887F75128F7D7E00900002EEF0A3EFF064717023900C16E004F0E4900002F0A3F0900000E025E02404F568
:406E400082E43400F583E4F0A304F08013900000E025E02404F582E43400F583E4F0A3F0900000E004F08097E4900000F0900000E0FFC394115034EF25E02404F582E43412
:406E800000F583E0FEA3E064014E7017900000E0A3E02437F582E43409F583EFF0900001E004F0900000E004F080C2E4FF1290D0E47F0AFEFDFC1284887F011290D0E47F4B
:406EC0000AFEFDFC128488E4900000F0900000E0FFC39411502E7E00128A5DE47F0AFEFDFC128488127BF6E47F0AFEFDFC128488127CE7E47F0AFEFDFC128488900000E055
:406F000004F080C8E47F32FEFDFC128488E4900000F0900000E0FFC3941150177E00128A5D900000E0FF7E00128510900000E004F080DFE47F32FEFDFC1284887E007F2232
:406F40007D007B017A1079461255879010D2E4F0A304F0E4900000F0900C16E0FF900000E0FEC39F4003027033E0FF2437F582E43409F583E0FD75F005A424E3F582E4348C
:406F800008F583E075F006A4FCED75F005A424E2F582E43408F583E075F006A42CFD74372FF582E43409F583E0FF75F005A424E4F582E43408F583E075F006A42DFDEF75D3
:406FC000F005A424E5F582E43408F583E0C454F02DFF74372EF582E43409F583E0FD75F005A424E6F582E43408F583E025E02F2402FBED25E02446F582E43410F583E4F063
:40700000A3EBF074372EF582E43409F583E025E02446F582E43410F583E0FEA3E0FF9010D3E02FF09010D2E03EF0900000E004F0026F589010D3E004F070069010D2E004F1
:40704000F02290005FEBF0A3EAF0A3E9F02404F9E43AFA12548DA804A905AA06AB07124E43C004C005C006C00790005FE0FBA3E0FAA3E0F912548DA804A905AA06AB071216
:407080004E43D003D002D001D000124D52C004C005C006C00790005FE0FBA3E0FAA3E02408F9E43AFA12548DA804A905AA06AB07124E43D003D002D001D000124D52C0041E
:4070C000C005C006C00790005FE0FBA3E0FAA3E0240CF9E43AFA12548DA804A905AA06AB07124E43D003D002D001D000124D52127DD89000621254C790005FE0FBA3E0FA1D
:40710000A3E0F9C003C002C00112548D900062E0F8A3E0F9A3E0FAA3E0FB124E43D001D002D0031254AD90005FE0FBA3E0FAA3E02404F9E43AFA12548D900062E0F8A3E0EA
:40714000F9A3E0FAA3E0FB124E4390005FE0FBA3E0FAA3E02404F9E43AFA1254AD90005FE0FBA3E0FAA3E02408F9E43AFA12548D900062E0F8A3E0F9A3E0FAA3E0FB124EC7
:407180004390005FE0FBA3E0FAA3E02408F9E43AFA1254AD90005FE0FBA3E0FAA3E0240CF9E43AFA12548D900062E0F8A3E0F9A3E0FAA3E0FB124E4390005FE0FBA3E0FA49
:4071C000A3E0240CF9E43AFA1254AD22900000EEF0A3EFF0A3EDF01291F8900004EFF01291C6900005EEF0A3EFF0900000E0FCA3E0FD6F7002EC6E70030272FB9043A2E05C
:407200005401900003F0A3E0703BA3E0FEA3E0FF4E6004ED4C702EEF4E70117B027A40798012911E904082E054BFF022904082E04440F07B027A407980900000E0FCA3E0F1
