:10260000025C6E008F828E83E0540100000070F83F
:102610002278FFE4F6D8FD025CFC0227F7E864802C
:10262000F8E933E83360110460F0ED33EC337009FE
:10263000E8FCE9FDEAFEEBFF220460DED3EB9FEA53
:102640009EE99DE8C2E78CF0C2F795F0400CE8CC1B
:10265000F8E9CDF9EACEFAEBCFFB1227C285D0F02C
:102660005804700320D5B3E80470075002B2D502B5
:10267000280192D5EC0460F7E4CCC0E0C398F86080
:102680003B94186008400DD0E0FB0227D9E4FBFA28
:10269000C9FC8028E830E406E4C9FBE4CAFCE83061
:1026A000E305E4C9CACBFCE854076010F8C3E9139A
:1026B000F9EA13FAEB13FBEC13FCD8F130F52FC356
:1026C000E49CFCEF9BFFEE9AFEED99FDD0E0FBEF62
:1026D0004E4D4C701222DB030227FEEC2CFCEF3334
:1026E000FFEE33FEED33FDED30E7EB0227D9EF2BA4
:1026F000FFEE3AFEED39FDD0E0FB50130BBB0003BB
:10270000022801ED13FDEE13FEEF13FFEC13FC02A4
:1027100027D974F8CC6480CCC86480C8F582046082
:102720004FC3EB9FF5F0EA9E42F0E99D42F0E89C32
:1027300045F0603C501DE5825FFFE582D313CB5B23
:10274000CBF42B5582FB50280ABA002409B900208B
:1027500008801DE5825BFBE582D313CF5FCFF4C316
:10276000132F5582FF50090EBE00050DBD00010C50
:10277000C3EB9FF5F0EA9E42F0E99D42F0E89C45EC
:10278000F06007CC4820E701B3EC22EDD2E7CD336F
:10279000EC3392D524814006E4FFFEFDFC22FCE4EC
:1027A000CFCECDCC24E0501174FF80EDC3CC13CC40
:1027B000CD13CDCE13CECF13CF0470F030D5DE02C3
:1027C0002CEBE9D2E7C933E833F892D5EDD2E7CD67
:1027D00033EC33FC5002B2D522EC30E7100FBF00CF
:1027E0000C0EBE00080DBD00040BEB6014A2D5EB6F
:1027F00013FCED92E7FD2274FFFCFDFEFF22E48056
:10280000F8A2D574FF13FC7D80E480EFF920E73651
:1028100024F950037907E4F42402FBE58215827061
:10282000021583DBF6E024FB501BE96014E4F0E5BD
:1028300082158270021583E004F0B40A08E4F0D92E
:10284000EE7401F00A22C2D522ED33EC3392D5FAB0
:10285000602AB4FF33EDC2E77BFF60067A28796E09
:10286000E4227A28797720D5047A287972224E6179
:102870004E002B494E46002D494E4600E47A08F0A2
:10288000A3DAFC7B00740722C083C082ECC0E0EDB9
:10289000C0E0EEC0E0EFC0E0EA75F010A4CAABF013
:1028A00075F04DA42BFBE435F0FCEA2410FAEB3470
:1028B000C5FBEC34D9FCEDC2E7FF75F056A4F42457
:1028C00011C5F0F434C58FF0A42AE5F03BE43CF0E8
:1028D00020E714122B24D0E0FFD0E0FED0E0FDD0A2
:1028E000E0FC122A578014F404122B24D0E0FFD00D
:1028F000E0FED0E0FDD0E0FC12294ED082D083E093
:10290000FAEDD2E7CD33EC332482FBE4C3CF33CFEF
:10291000CE33CECD33CD33DBF37B0775F00A846045
:1029200004F0A31B0AE5F0F0A38FF0740AA4FFAC37
:10293000F08EF0740AA42CFEACF050010C8DF074F3
:102940000AA42CFDE435F0F0A3DBDE740722EC4D85
:102950006011E8497017ED33EC3304600DE4FCFFBF
:10296000FEFD22E933E8330470F80227F71227C28C
:1029700058046009E4CC248150062850090228013B
:102980002840030227FEC0E0EB4A7044B98006D01D
:10299000E0FB0227EDEF4E701CBD8008EBFFEAFE66
:1029A000E9FD80EBE98DF0A4FEE5F0022A37E9CDE0
:1029B000F9EAFEEBFFEF89F0A4FCE5F0CE89F0A484
:1029C0002EFFE435F0CD89F0A42DFEE435F08067CC
:1029D000EF4E7005BD80D780C3EF8BF0A4ACF0EE56
:1029E0008BF0A42CFCE435F0F8EF8AF0A42CE5F091
:1029F00038FCE433CB8DF0A42CFCE5F03BF8EE8AF8
:102A0000F0A42CFCE5F038F8E433CF89F0A42CFCDA
:102A1000E5F038CF3400CE89F0A42FFFE5F03EFE7C
:102A2000E433C98DF0A42EFEE5F039CD8AF0A42F51
:102A3000FFE5F03EFEE43DFD33D0E0FB50070BBB6D
:102A4000000F022801EC2CFCEF33FFEE33FEED33D8
:102A5000FD0227D9022801EC5D046005E8590470E5
:102A6000030227F71227C2580460F6EC4860F2EC24
:102A70007004FDFEFF22C860DB2481C85009C398A2
:102A8000600250060227FE9850CAF582E9294B4A97
:102A90007005AB820227ED75F0007C1A7880C3EFD9
:102AA0009BEE9AED99400DC3EF9BFFEE9AFEED99D8
:102AB000FDE842F0DC23ACF0D0E0FFD0E0FED0E057
:102AC000FDAB8220E7101BEB60BAEC2CFCEF33FF70
:102AD000EE33FEED33FD0227D9E803F830E705C0F9
:102AE000F075F000EF2FFFEE33FEED33FD40B83010
:102AF000E7C280AA3F8000004120000042C80000D9
:102B0000447A0000461C400047C35000497424002A
:102B10004B1896804CBEBC205A0E1BCA6753C21C71
:102B2000749DC5AEFB60065407601C2323122B5214
:102B3000EB54386009122B3E122B4D12294EECF843
:102B4000EDF9EEFAEFCB22EB122B4D80F154380366
:102B5000241C902AF4FE93FC0EEE93FD0EEE930ED1
:102B6000CE93FF22BB010689828A83E0225002E7CE
:102B700022BBFE02E32289828A83E49322BB010CFA
:102B8000E58229F582E5833AF583E0225006E925BE
:102B900082F8E622BBFE06E92582F8E222E58229D8
:102BA000F582E5833AF583E49322BB010689828AA4
:102BB00083F0225002F722BBFE01F322EF8DF0A436
:102BC000A8F0CF8CF0A428CE8DF0A42EFE22E88FA2
:102BD000F0A4CC8BF0A42CFCE98EF0A42CFC8AF0A1
:102BE000EDA42CFCEA8EF0A4CDA8F08BF0A42DCCA3
:102BF0003825F0FDE98FF0A42CCD35F0FCEB8EF0FC
:102C0000A4FEA9F0EB8FF0A4CFC5F02ECD39FEE4E1
:102C10003CFCEAA42DCE35F0FDE43CFC2275F00826
:102C2000758200EF2FFFEE33FECD33CDCC33CCC514
:102C30008233C5829BED9AEC99E58298400CF5822F
:102C4000EE9BFEED9AFDEC99FC0FD5F0D6E4CEFBA1
:102C5000E4CDFAE4CCF9A88222B800C1B90059BA8F
:102C6000002DEC8BF084CFCECDFCE5F0CBF97818BD
:102C7000EF2FFFEE33FEED33FDEC33FCEB33FB10B7
:102C8000D703994004EB99FB0FD8E5E4F9FA2278D1
:102C900018EF2FFFEE33FEED33FDEC33FCC933C9E3
:102CA00010D7059BE99A4007EC9BFCE99AF90FD8ED
:102CB000E0E4C9FAE4CCFB2275F010EF2FFFEE330D
:102CC000FEED33FDCC33CCC833C810D7079BEC9A4C
:102CD000E899400AED9BFDEC9AFCE899F80FD5F0D5
:102CE000DAE4CDFBE4CCFAE4C8F922C3E49FFFE4C4
:102CF0009EFEE49DFDE49CFC22EB9FF5F0EA9E42E3
:102D0000F0E99D42F0EC6480C864809845F022EBC5
:102D10009FF5F0EA9E42F0E99D42F0E89C45F022E2
:102D2000E8600FECC313FCED13FDEE13FEEF13FF91
:102D3000D8F122E86010ECA2E713FCED13FDEE13CE
:102D4000FEEF13FFD8F022E8600FEFC333FFEE333E
:102D5000FEED33FDEC33FCD8F122BB010789828AFA
:102D60008302305E5005E9F8023052BBFE05E9F8F7
:102D700002306A89828A83023076BB010789828A9F
:102D800083022D945005E9F8023086BBFE05E9F870
:102D900002309222ECF0A3EDF0A3EEF0A3EFF022CC
:102DA000A42582F582E5F03583F58322F8E0FBA3C4
:102DB000A3E0F925F0F0E582158270021583E0FAB0
:102DC00038F022EBF0A3EAF0A3E9F022D083D0821E
:102DD000F8E4937012740193700DA3A393F8740137
:102DE00093F5828883E4737402936860EFA3A3A3CE
:102DF00080DFE5232582F582E5223583F583B52240
:102E0000048582232210AF06858223F52222858243
:102E100023F522D2AF22EC8EF0A4CCC5F0CCCDF8B5
:102E2000EFA4CEC5F02DFDE43CFCE8A42EC8C5F00F
:102E30003DFDE43CFCEFA4FFE5F028FEE43DFDE4AD
:102E40003CFC22EF4E6012EF60010EEDBB010B89DE
:102E5000828A83F0A3DFFCDEFA2289F05007F709AB
:102E6000DFFCA9F022BBFEFCF309DFFCA9F022E79E
:102E700009F608DFFA8046E709F208DFFA803E88A3
:102E8000828C83E709F0A3DFFA8032E309F608DFDA
:102E9000FA806EE309F208DFFA806688828C83E3A9
:102EA00009F0A3DFFA805A89828A83E0A3F608DF5B
:102EB000FA804E89828A83E0A3F208DFFA8042809A
:102EC000D280FA80C680D4805580F280298010801C
:102ED000A680EA809A80A880DA80E280CA80298869
:102EE000848C8589828A83E493A30586F0A3058672
:102EF000DFF5DEF3800B89828A83E493A3F608DF93
:102F0000F9ECFAA9F0EDFB2288848C8589828A830A
:102F1000E0A30586F0A30586DFF6DEF480E3898270
:102F20008A83E493A3F208DFF980D688F0EF60018A
:102F30000E4E60CD88F0ED2402B4040050C3F5823B
:102F4000EB2402B4040050B92323458223902EBF02
:102F500073E709F60870FA8046E709F20870FA800C
:102F60003E88828C83E709F0A370FA8074E309F647
:102F70000870FA806CE309F20870FA806488828C29
:102F800083E309F0A370FA805889828A83E0A3F66C
:102F90000870FA804C89828A83E0A3F20870FA8074
:102FA0004080D280FA80C680D4805180F280278011
:102FB0001080A680EA809A80A880DA80E280CA80A9
:102FC0002788848C8589828A83E493A30586F0A36D
:102FD000058670F5800B89828A83E493A3F60870D6
:102FE000F9ECFAA9F0EDFB2288848C8589828A832A
:102FF000E0A30586F0A3058670F680E589828A83C2
:10300000E493A3F20870F980D888F0ED2402B404A8
:103010000050CEF582EB2402B4040050C4232345B3
:103020008223902FA173C5F0F8A3E028F0C5F0F833
:10303000E582158270021583E038F022A3F8E0C51E
:10304000F025F0F0E582158270021583E0C838F0B3
:10305000E822E6FC08E6FD08E6FE08E6FF22E0FCC2
:10306000A3E0FDA3E0FEA3E0FF22E2FC08E2FD08EE
:10307000E2FE08E2FF22E493FC740193FD740293E4
:10308000FE740393FF22ECF608EDF608EEF608EF67
:10309000F622ECF208EDF208EEF208EFF2229005CB
:1030A00090EBF0A3EAF0A3E9F0900001E064FA707D
:1030B000030238B6900590E0FBA3E0FAA3E0F8AC79
:1030C00002AD037BFF7A3F79C51230099005FC748D
:1030D000FFF0A3743FF0A374C6F0900590E0FBA34B
:1030E000E0FAA3E0F91269C09005FC74FFF0A37444
:1030F0003FF0A374C9F0900590E0FBA3E0FAA3E0D1
:10310000F91269C09005FC74FFF0A3743FF0A3743A
:10311000DCF0900590E0FBA3E0FAA3E0F91269C0AF
:103120009005FC74FFF0A3743FF0A374EDF09005DC
:1031300090E0FBA3E0FAA3E0F91269C09005FC74EB
:10314000FFF0A3743FF0A374F2F0900590E0FBA3AE
:10315000E0FAA3E0F91269C0900A2E74FFF0A3749C
:1031600040F0A37400F0900001E0FF900A31E4F019
:10317000A3EFF07B017A0579951245FB9005FC746D
:1031800001F0A37405F0A37495F0900590E0FBA303
:10319000E0FAA3E0F91269C0900A2E74FFF0A3745C
:1031A00040F0A37409F0900180E0FF900A31E4F050
:1031B000A3EFF07B017A0579951245FB9005FC742D
:1031C00001F0A37405F0A37495F0900590E0FBA3C3
:1031D000E0FAA3E0F91269C09005FC74FFF0A37453
:1031E0003FF0A374C6F0900590E0FBA3E0FAA3E0E3
:1031F000F91269C09005FC74FFF0A37440F0A37449
:103200001DF0900590E0FBA3E0FAA3E0F91269C07D
:10321000E4900593F0A3F0900180E0FFC390059443
:10322000E09F7480F8900593E06480984003023436
:10323000BC900A2E74FFF0A37440F0A37432F09097
:103240000593E0FEA3E0FF900A31EEF0A3EFF02437
:1032500004F58274003EF583E0FF900A33E4F0A3A6
:10326000EFF07B017A0579951245FB9005FC74011E
:10327000F0A37405F0A37495F0900590E0FBA3E033
:10328000FAA3E0F91269C0900A2E74FFF0A374400B
:10329000F0A37445F07B017A0579951245FB900502
:1032A00093E0FEA3E02404F58274003EF583E0750C
:1032B000F005A4242BF582E43405F583E060199031
:1032C00005FC74FFF0A37440F0A37457F07B017AFF
:1032D0000579951269C080179005FC74FFF0A374FE
:1032E00040F0A3745DF07B017A0579951269C09076
:1032F00005FC74FFF0A37440F0A37462F07B017AC4
:103300000579951269C0900593E0FEA3E02404F5C9
:103310008274003EF583E075F005A4242CF582E468
:103320003405F583E060199005FC74FFF0A3744048
:10333000F0A37457F07B017A0579951269C0801764
:103340009005FC74FFF0A37440F0A3745DF07B0162
:103350007A0579951269C09005FC74FFF0A374405A
:10336000F0A37470F07B017A0579951269C090051D
:1033700093E0FEA3E02404F58274003EF583E0753B
:10338000F005A4242DF582E43405F583E06019905E
:1033900005FC74FFF0A37440F0A37457F07B017A2E
:1033A0000579951269C080179005FC74FFF0A3742D
:1033B00040F0A3745DF07B017A0579951269C090A5
:1033C00005FC74FFF0A37440F0A37481F07B017AD4
:1033D0000579951269C0900593E0FEA3E02404F5F9
:1033E0008274003EF583E075F005A4242EF582E496
:1033F0003405F583E060199005FC74FFF0A3744078
:10340000F0A37457F07B017A0579951269C0801793
:103410009005FC74FFF0A37440F0A3745DF07B0191
:103420007A0579951269C09005FC74FFF0A3744089
:10343000F0A3748FF07B017A0579951269C090052D
:1034400093E0FEA3E02404F58274003EF583E0756A
:10345000F005A4242FF582E43405F583E06019908B
:1034600005FC74FFF0A37440F0A37457F07B017A5D
:103470000579951269C080179005FC74FFF0A3745C
:1034800040F0A3745DF07B017A0579951269C090D4
:1034900005FC7401F0A37405F0A37495F0900590F9
:1034A000E0FBA3E0FAA3E0F91269C0900594E00400
:1034B000F07006900593E004F00232179005FC745A
:1034C000FFF0A3743FF0A374C6F0900590E0FBA357
:1034D000E0FAA3E0F91269C09005FC74FFF0A37450
:1034E00040F0A3749EF0900590E0FBA3E0FAA3E007
:1034F000F91269C0E4900593F0A3F0900180E0FF19
:10350000C3900594E09F7480F8900593E0648098E0
:10351000400302381E900A2E74FFF0A37440F0A3FB
:103520007432F0900593E0FEA3E0FF900A31EEF0D4
:10353000A3EFF02404F58274003EF583E0FF900AC7
:1035400033E4F0A3EFF07B017A0579951245FB9007
:1035500005FC7401F0A37405F0A37495F090059038
:10356000E0FBA3E0FAA3E0F91269C0900593E0FE46
:10357000A3E0FF2404F58274003EF583E075F005B6
:10358000A4242BF582E43405F583E070030236258C
:10359000900A2E74FFF0A37440F0A374ADF0900075
:1035A0001C75F015EF122DA0EE75F015A42583F50E
:1035B00083E0FDA3E0900A31CDF0A3EDF090001E72
:1035C00075F015EF122DA0EE75F015A42583F58387
:1035D000E0FFA3E0900A33CFF0A3EFF0900593E073
:1035E000A3E090002075F015122DA0EE75F015A443
:1035F0002583F583E0FFA3E0900A35CFF0A3EFF039
:103600007B017A0579951245FB9005FC7401F0A3C6
:103610007405F0A37495F0900590E0FBA3E0FAA385
:10362000E0F91269C0900593E0FEA3E0FF2404F5E1
:103630008274003EF583E075F005A4242CF582E445
:103640003405F583E070030236DF900A2E74FFF034
:10365000A37440F0A374BEF090002275F015EF1231
:103660002DA0EE75F015A42583F583E0FDA3E09071
:103670000A31CDF0A3EDF090002475F015EF122D76
:10368000A0EE75F015A42583F583E0FFA3E0900A72
:1036900033CFF0A3EFF0900593E0A3E09000267500
:1036A000F015122DA0EE75F015A42583F583E0FF2B
:1036B000A3E0900A35CFF0A3EFF07B017A0579956E
:1036C0001245FB9005FC7401F0A37405F0A37495FA
:1036D000F0900590E0FBA3E0FAA3E0F91269C09036
:1036E0000593E0FEA3E0FF2404F58274003EF58319
:1036F000E075F005A4242DF582E43405F583E0702F
:1037000003023799900A2E74FFF0A37440F0A3745B
:10371000D0F090002875F015EF122DA0EE75F01581
:10372000A42583F583E0FDA3E0900A31CDF0A3ED5D
:10373000F090002A75F015EF122DA0EE75F015A48B
:103740002583F583E0FFA3E0900A33CFF0A3EFF0E9
:10375000900593E0A3E090002C75F015122DA0EEDB
:1037600075F015A42583F583E0FFA3E0900A35CF1B
:10377000F0A3EFF07B017A0579951245FB9005FCEB
:103780007401F0A37405F0A37495F0900590E0FB2C
:10379000A3E0FAA3E0F91269C0900593E0FEA3E06C
:1037A000FF2404F58274003EF583E075F005A4243F
:1037B0002FF582E43405F583E06052900A2E74FF01
:1037C000F0A37440F0A374E1F090002E75F015EFB3
:1037D000122DA0EE75F015A42583F583E0FFA3E07C
:1037E000900A31CFF0A3EFF07B017A05799512456D
:1037F000FB9005FC7401F0A37405F0A37495F090A0
:103800000590E0FBA3E0FAA3E0F91269C0900594EB
:10381000E004F07006900593E004F00234FB900A97
:103820002E74FFF0A37440F0A374F4F090026FE0E4
:10383000F8A3E0F9A3E0FAA3E0FB9004B8E0FCA34E
:10384000E0FDA3E0FEA3E0C39BFFEE9AFEED99FD31
:10385000EC98FC900A31122D947B017A057995122F
:1038600045FB9005FC7401F0A37405F0A37495F07A
:10387000900590E0FBA3E0FAA3E0F91269C090057F
:10388000FC74FFF0A3743FF0A374C6F0900590E0C1
:10389000FBA3E0FAA3E0F91269C09005FC74FFF005
:1038A000A3743FF0A374C6F0900590E0FBA3E0FA88
:1038B000A3E0F91269C022900590EEF0A3EFF07832
:1038C000927C057D017BFF7A4079FF7E047F1B128D
:1038D0002F2B900180E075F032A424C9FEE435F06E
:1038E0009009ADF0A3CEF078AF7C097D017BFF7A23
:1038F00045791A7E007F0F122F2B78BE7C097D013F
:103900007BFF7A4579297E007F1E122F2B78DC7C85
:10391000097D017BFF7A4579477E007F0D122F2BB1
:1039200078E97C097D017BFF7A4579547E007F1818
:10393000122F2B78017C0A7D017BFF7A45796C7E02
:10394000007F2A122F2B7B017A0979AF12745E8FC8
:103950000F7B017A0979BE12745E8F107B017A09A0
:1039600079DC12745E8F117B017A0979E912745E39
:103970008F127B017A0A790112745E8F139005927F
:10398000740CF0900180E02404900593F090059071
:10399000E0FEA3E0FFEE6003023E1CEF14700302A2
:1039A0003E1224FC4003023FA924056003023E1C92
:1039B0009005947402F0A314F0900001E090059635
:1039C000F0750B00850F0CE50C450B602CC3E50F63
:1039D000950CFFE4950BFE74AF2FF58274093EF54C
:1039E00083E0FD74972FF58274053EF583EDF0E5D5
:1039F0000C150C7002150B80CE9005C67402F0A356
:103A000014F0900180E09005C8F0750B0085100C53
:103A1000E50C450B602CC3E510950CFFE4950BFEFF
:103A200074BE2FF58274093EF583E0FD74C92FF54D
:103A30008274053EF583EDF0E50C150C7002150B54
:103A400080CE9005F87402F0900180E09005F9F0C6
:103A5000E4F50BF50C900180E0FFC3E50C9FE50B4E
:103A6000940050267404250CF5827400350BF58300
:103A7000E0FF74FA250CF5827405350BF583EFF041
:103A8000050CE50C7002050B80CB750D0085110E41
:103A9000E50E450D6041C3E511950EFFE4950DFE61
:103AA00074DC2FF58274093EF583E0FFE511FD908B
:103AB0000180E02DFDE433FCC3ED950EFDEC950D8A
:103AC000FC74FA2DF58274053CF583EFF0E50E15D4
:103AD0000E7002150D80B990062A7402F0900180D4
:103AE000E075F003A490062BF0E4F50BF50C9001C3
:103AF00080E0FFC3E50C9FE50B94004003023BA46C
:103B00007404250CF5827400350BF583E075F00321
:103B1000A42477F582E43402F583E0FF90062C7547
:103B2000F003E50C122DA0E50B75F003A42583F539
:103B300083EFF07404250CF5827400350BF583E0F7
:103B400075F003A42478F582E43402F583E0FF9055
:103B5000062D75F003E50C122DA0E50B75F003A4FE
:103B60002583F583EFF07404250CF5827400350B82
:103B7000F583E075F003A42479F582E43402F5833B
:103B8000E0FF90062E75F003E50C122DA0E50B75F5
:103B9000F003A42583F583EFF0050CE50C70020516
:103BA0000B023AEE750D0085120EE50E450D6046CE
:103BB000E512FD7C00C3950EFFEC950DFE74E92F18
:103BC000F58274093EF583E0FB900180E075F00317
:103BD000A42DFFEC35F0FEC3EF950EFFEE950DFE24
:103BE000742C2FF58274063EF583EBF0E50E150E6E
:103BF0007002150D80B4E4F50BF50C900180E0FF28
:103C0000C3E50C9FE50B94004003023DE1900A2EB2
:103C100074FFF0A3743FF0A374AAF0E50C240590A0
:103C20000A32F0E4350B900A31F07404250CF58269
:103C30007400350BF583E0FF900A33E4F0A3EFF056
:103C40007B017A0A79011245FB7B017A0A7901121C
:103C5000745E8F1390065C75F032E50C122DA0E5B2
:103C60000B75F032A42583F5837402F090065D7520
:103C7000F032E50C122DA0E50B75F032A42583F58A
:103C8000837405F07404250CF5827400350BF583FC
:103C9000E075F005A4242BF582E43405F583E0FFFC
:103CA00090065E75F032E50C122DA0E50B75F03232
:103CB000A42583F583EFF07404250CF58274003598
:103CC0000BF583E075F005A4242CF582E43405F5AA
:103CD00083E0FF90065F75F032E50C122DA0E50B36
:103CE00075F032A42583F583EFF07404250CF5827A
:103CF0007400350BF583E075F005A4242DF582E4FE
:103D00003405F583E0FF90066075F032E50C122D66
:103D1000A0E50B75F032A42583F583EFF07404253C
:103D20000CF5827400350BF583E075F005A4242EA4
:103D3000F582E43405F583E0FF90066175F032E525
:103D40000C122DA0E50B75F032A42583F583EFF05E
:103D50007404250CF5827400350BF583E075F005CD
:103D6000A4242FF582E43405F583E0FF9006627504
:103D7000F032E50C122DA0E50B75F032A42583F589
:103D800083EFF0750D0085130EE50E450D6047C3FA
:103D9000E513950EFFE4950DFE74012FF582740A6C
:103DA0003EF583E0FBAE0BAF0C7C007D32122BBCEA
:103DB000EF2513FFEC3EFEC3EF950EFFEE950DFED3
:103DC00074632FF58274063EF583EBF0E50E150E55
:103DD0007002150D80B3050CE50C7002050B023B5B
:103DE000FB7B017A0579929009ADE0A3E014FD1206
:103DF0006FBA9009ADE0FCA3E0FD2491F582740553
:103E00003CF583EFF07B017A05799212672B1274EF
:103E1000F9229002ADE0900016F022229002ADE06F
:103E2000FF900590E0FCA3E0FD24FFF58274FF3CC9
:103E3000F583E075F005A4242BF582E43405F583C1
:103E4000EFF09002AEE0FF74FF2DF58274FF3CF5B9
:103E500083E075F005A4242CF582E43405F583EFA6
:103E6000F09002AFE0FF74FF2DF58274FF3CF58304
:103E7000E075F005A4242DF582E43405F583EFF018
:103E80009002B0E0FF74FF2DF58274FF3CF583E0F3
:103E900075F005A4242EF582E43405F583EFF09047
:103EA00002B1E0FF74FF2DF58274FF3CF583E075ED
:103EB000F005A4242FF582E43405F583EFF0900596
:103EC00026E4F0A304F0E4F50BF50C900180E0FF8C
:103ED000C3E50C9FE50B94004003023F9B7404254F
:103EE0000CF5827400350BF583E0FF75F005A42412
:103EF0002CF582E43405F583E075F006A4FEEF7539
:103F0000F005A4242BF582E43405F583E075F00672
:103F1000A42EFF7404250CF5827400350BF583E0A4
:103F2000FE75F005A4242DF582E43405F583E075D3
:103F3000F006A42FFFEE75F005A4242FF582E434DB
:103F400005F583E025E02F2402FF7404250CF5829B
:103F50007400350BF583E025E02495F582E4340404
:103F6000F583E4F0A3EFF07404250CF582740035BA
:103F70000BF583E025E02495F582E43404F583E035
:103F8000FEA3E0FF900527E02FF0900526E03EF02D
:103F9000050CE50C7002050B023ECB900527E004F2
:103FA000F07006900526E004F0222575202D2049AA
:103FB0004D5520256420636F6E6669677572617464
:103FC000696F6E3A00000D0A004669726D77617282
:103FD000652076657273696F6E3A2000494D5562AF
:103FE0006F617264207620312E302E31000D0A0D63
:103FF0000A0044455649434520494E464F0D0A00A4
:1040000049443A2025640D0A00494D5520436F6EFE
:104010006E65637465643A2025640D0A00494D5548
:104020007320434F4E46494755524154494F4E0D18
:104030000A00496D75202564200D0A0949443A207B
:1040400025640D0A0009416363656C65726F6D65D7
:10405000746572733A20005945530D0A004E4F0D96
:104060000A00094779726F73636F7065733A2000B5
:10407000094D61676E65746F6D65746572733A2082
:1040800000095175617465726E696F6E3A2000099E
:1040900054656D70657261747572653A20005345A0
:1040A0004E534F525320494E464F0D0A000941636B
:1040B000633A2025640925640925640D0A0009472F
:1040C00079726F3A2025640925640925640D0A0078
:1040D000094D61673A2025640925640925640D0AA4
:1040E000000954656D70657261747572653A2025BA
:1040F000640D0A0064656275673A20256C640000EF
:1041000000000000000000000000000000000000AF
:10411000000000000000000000000000000000009F
:10412000000000000000000000000000000000008F
:10413000000000000000000000000000000000007F
:104510000000000000000000000031202D20446554
:10452000766963652049443A0032202D204E756D2E
:10453000626572206F6620636F6E6E65637465647A
:1045400020494D55733A0033202D20494D55732095
:1045500049443A0034202D204D61672063616C206E
:10456000706172616D65746572733A0000000000DD
:10457000000000000000000000000000000000003B
:10458000000000000000000000000000000000002B
:10459000000000000000E514242EF582E4340AF542
:1045A00083E0051422900A2B300803900A2EE4754C
:1045B000F001122DAC022B642001E97F2ED2018084
:1045C00018EF540F2490D43440D4FF30050BEF245F
:1045D000BFB41A0050032461FFE5156002151505EC
:1045E00018E5187002051730080E900A2BE475F0D4
:1045F00001122DACEF022BAA0271857403D2088040
:1046000003E4C208F514900A2B122DC3E4F515F546
:1046100017F518E51560077F201245D980F5751646
:10462000FFC202C201C203C204C206C207C209120B
:1046300045A5FF700D3008057F001245EAAF18AEA2
:104640001722B4255FC2D5C2051245A5FF24D0B4F8
:104650000A00501A75F00A781530D50508B6FF0122
:1046600006C6A426F620D5047002D20480D924CF31
:10467000B41A00EF5004C2E5D2050248DCD2028031
:10468000C6D20180C0D20380BCD2D580BAD2068007
:10469000B47F201245D92003077401B5150040F1FD
:1046A000124596FF1245D9024613D209D2078095CA
:1046B000124596FB124596FA124596F94A4B70063A
:1046C00079DA7A497BFF20032EE515602A7E008E79
:1046D00082758300122B7D60060EEE651670F0C2A7
:1046E000D5EBC0E0EAC0E0E9C0E0EE12493DD0E021
:1046F000F9D0E0FAD0E0FB122B64FF60AAEBC0E037
:10470000EAC0E0E9C0E01245D9D0E02401F9D0E0E8
:104710003400FAD0E0FBE5160460DCD516D98087BA
:10472000D20380A212491F60F7E516700104122817
:104730000CA916600DE516600914F5161249C7EFAD
:1047400060F3EA30E702F404C3995079EAF42516DD
:104750000430E701E404F516800D12491F60C1EA38
:104760000516251612280CEA900A5AF030E701E4E3
:10477000251604D516042006011412493DE4C0E0B4
:104780001249C7900A5AE0601320E70714F0124557
:10479000C1802204F0D0E014C0E07F001245C1E5E2
:1047A0001660071245B81516800B3006031245B87F
:1047B000D0E0024613D0E00480C412491F609EE599
:1047C000160412280C900A5AEAF0E5162006026038
:1047D0000104240412493D74FF04C0E01249C712C9
:1047E00045C1E51620060260031245B8D0E0B516B3
:1047F000E87F451245CB900A5AE07F2B30E7047FD3
:104800002DF404C0E01245D9D0E075F00A84C0F060
:104810001245C2D0E01245C20246137910800279D7
:1048200008C207C2098008D2D5790A8004790AC271
:10483000D5E516047002F516E4FAFDFEFF12459662
:10484000FC7B08200213124596FD7B1030010A12F2
:104850004596FE124596FF7B20EC3382D592D550CB
:1048600013C3E43001069FFFE49EFEE42002039D93
:10487000FDE49CFCE4CBF8C202EC700CCFCECDCCB6
:10488000E824F8F870F38017C3EF33FFEE33FEED42
:1048900033FDEC33FCEB33FB994002FB0FD8E9EB23
:1048A000300205F8D0E0C448B202C0E00AEC4D4E38
:1048B0004F78207B0070C2EAB5160040BCC0E01201
:1048C000493FD0F0D0E0200204C4C0E0C4B202C02E
:1048D000F01245C2D0F0D5F0EB024613122DCC46B3
:1048E000B053481B5846814C467D42481F4F4827CD
:1048F00044482749469643482D55475A4647BA45A6
:1049000047244749FA5046852D46892E46AC2B460A
:104910008D2346AA2049E32A464548000046A4E5DF
:1049200016B4FF03751606124596FC124596FD1245
:104930004596FE124596FF900A53022849790AA22D
:10494000D5200414300609B910020404B908010482
:10495000A2D52007025001042003689203B5150078
:104960005034C0E07F203004197F30A203720772F8
:1049700006500F124996C203C207C206C2097F3011
:10498000800F300603E9C0E01245D9300603D0E0BD
:10499000F9D0E0B515CC3006177F30B9100C1245B0
:1049A000D97F583005077F788003B908031245D9AD
:1049B0003003057F2D0245D97F202009F87F2B2069
:1049C00007F322920380CF7F00B40700500B2453DB
:1049D000F582E4340AF583E0FF22286E756C6C29B9
:1049E00000D2021245963002F8C202781530D50185
:1049F00008F60246452D504349581245962403B403
:104A000005004001E49049F5931245CA743A1245F5
:104A1000CAD20475150402481BC0E0C0F0C083C0B0
:104A200082C085C084C086758600C093759300C01F
:104A3000D075D000C000C001C002C003C004C005D2
:104A4000C006C007900583E4F0A3F0900EA9E0240F
:104A500004F582E43400F583E0FF7E00126D85905A
:104A60000EA9E02404F582E43400F583E0FF7E0023
:104A70001267B8900EA9E0FD2404F582E43400F535
:104A800083E0FF75F006A424C0F582E43404F583C6
:104A9000E0FB900583E4F0A3EBF0EF75F006A424AF
:104AA000C1F582E43404F583E0FB900584E0FEEB7D
:104AB000FF75F015EDA424ABF582E5F0340EF58317
:104AC000EEF0A3EFF0900EA9E0FD2404F582E434AB
:104AD00000F583E0FF75F006A424C2F582E43404F7
:104AE000F583E0FB900583E4F0A3EBF0EF75F006AF
:104AF000A424C3F582E43404F583E0FB900584E04C
:104B0000FEEBFF75F015EDA424ADF582E5F0340E53
:104B1000F583EEF0A3EFF0900EA9E0FD2404F582FA
:104B2000E43400F583E0FF75F006A424C4F582E4C4
:104B30003404F583E0FB900583E4F0A3EBF0EF751C
:104B4000F006A424C5F582E43404F583E0FB900567
:104B500084E0FEEBFF75F015EDA424AFF582E5F0DF
:104B6000340EF583EEF0A3EFF0900EA9E0FD2404DF
:104B7000F582E43400F583E0FF75F006A42409F51E
:104B800082E43402F583E0FB900583E4F0A3EBF0CC
:104B9000EF75F006A4240AF582E43402F583E0FB05
:104BA000900584E0FEEBFF75F015EDA424B1F582CD
:104BB000E5F0340EF583EEF0A3EFF0900EA9E0FDE2
:104BC0002404F582E43400F583E0FF75F006A424A4
:104BD0000BF582E43402F583E0FB900583E4F0A357
:104BE000EBF0EF75F006A4240CF582E43402F583B3
:104BF000E0FB900584E0FEEBFF75F015EDA424B317
:104C0000F582E5F0340EF583EEF0A3EFF0900EA9F7
:104C1000E0FD2404F582E43400F583E0FF75F0063E
:104C2000A4240DF582E43402F583E0FB900583E4CF
:104C3000F0A3EBF0EF75F006A4240EF582E4340245
:104C4000F583E0FB900584E0FEEBFF75F015EDA425
:104C500024B5F582E5F0340EF583EEF0A3EFF09085
:104C60000EA9E0FD2404F582E43400F583E0FF752D
:104C7000F006A42481F582E43401F583E0FB90057D
:104C800083E4F0A3EBF0EF75F006A42482F582E450
:104C90003401F583E0FB900584E0FEEBFF75F01531
:104CA000EDA424B7F582E5F0340EF583EEF0A3EF22
:104CB000F0900EA9E0FD2404F582E43400F583E0D1
:104CC000FF75F006A42483F582E43401F583E0FB4C
:104CD000900583E4F0A3EBF0EF75F006A42484F5CF
:104CE00082E43401F583E0FB900584E0FEEBFF7580
:104CF000F015EDA424B9F582E5F0340EF583EEF05D
:104D0000A3EFF0900EA9E0FD2404F582E43400F551
:104D100083E0FF75F006A42485F582E43401F58371
:104D2000E0FB900583E4F0A3EBF0EF75F006A4241C
:104D300086F582E43401F583E0FB900584E0FEEB28
:104D4000FF75F015EDA424BBF582E5F0340EF58374
:104D5000EEF0A3EFF0900EA9E004FF900180E0FEDA
:104D6000EF8EF084AFF0900EA9EFF0701378307CE6
:104D7000037D017B017A0E79AA7E017F65122F2BBC
:104D8000D007D006D005D004D003D002D001D00087
:104D9000D0D0D093D086D084D085D082D083D0F0AC
:104DA000D0E032E4900590F0A3F0901136F090013D
:104DB00080E0FF901136E0FEC39F400302511D7456
:104DC000042EF582E43400F583E0FF7E00126D8549
:104DD000901136E02404F582E43400F583E0FF7E90
:104DE000001267B8901136E0FD2404F582E4340027
:104DF000F583E0FF75F006A424C0F582E43404F5E1
:104E000083E0FB900590E4F0A3EBF0EF75F006A4CF
:104E100024C1F582E43404F583E0FB900591E0FEC3
:104E2000EBFF75F015EDA42431F582E5F03403F5C0
:104E300083EEF0A3EFF0901136E0FD2404F582E458
:104E40003400F583E0FF75F006A424C2F582E43453
:104E500004F583E0FB900590E4F0A3EBF0EF75F030
:104E600006A424C3F582E43404F583E0FB900591A5
:104E7000E0FEEBFF75F015EDA42433F582E5F03488
:104E800003F583EEF0A3EFF0901136E0FD2404F576
:104E900082E43400F583E0FF75F006A424C4F582B3
:104EA000E43404F583E0FB900590E4F0A3EBF0EF2D
:104EB00075F006A424C5F582E43404F583E0FB9084
:104EC0000591E0FEEBFF75F015EDA42435F582E5C4
:104ED000F03403F583EEF0A3EFF0901136E0FD24FB
:104EE00004F582E43400F583E0FF75F006A424099C
:104EF000F582E43402F583E0FB900590E4F0A3EB47
:104F0000F0EF75F006A4240AF582E43402F583E09C
:104F1000FB900591E0FEEBFF75F015EDA42437F54D
:104F200082E5F03403F583EEF0A3EFF0901136E064
:104F3000FD2404F582E43400F583E0FF75F006A457
:104F4000240BF582E43402F583E0FB900590E4F055
:104F5000A3EBF0EF75F006A4240CF582E43402F51F
:104F600083E0FB900591E0FEEBFF75F015EDA424C6
:104F700039F582E5F03403F583EEF0A3EFF09011FC
:104F800036E0FD2404F582E43400F583E0FF75F09B
:104F900006A4240DF582E43402F583E0FB9005902D
:104FA000E4F0A3EBF0EF75F006A4240EF582E434F0
:104FB00002F583E0FB900591E0FEEBFF75F015ED47
:104FC000A4243BF582E5F03403F583EEF0A3EFF083
:104FD000901136E0FD2404F582E43400F583E0FF0F
:104FE00075F006A42481F582E43401F583E0FB909A
:104FF0000590E4F0A3EBF0EF75F006A42482F582AF
:10500000E43401F583E0FB900591E0FEEBFF75F0E1
:1050100015EDA4243DF582E5F03403F583EEF0A30D
:10502000EFF0901136E0FD2404F582E43400F583BE
:10503000E0FF75F006A42483F582E43401F583E0F3
:10504000FB900590E4F0A3EBF0EF75F006A4248448
:10505000F582E43401F583E0FB900591E0FEEBFF7F
:1050600075F015EDA4243FF582E5F03403F583EEE9
:10507000F0A3EFF0901136E0FD2404F582E4340053
:10508000F583E0FF75F006A42485F582E43401F58C
:1050900083E0FB900590E4F0A3EBF0EF75F006A43D
:1050A0002486F582E43401F583E0FB900591E0FE6F
:1050B000EBFF75F015EDA42441F582E5F03403F51E
:1050C00083EEF0A3EFF0901136E0FD2404F582E4C6
:1050D0003400F583E0FF25E024E7F582E43401F5B0
:1050E00083E0FB900590E4F0A3EBF0EF25E024E8EB
:1050F000F582E43401F583E0FB900591E0FEEBFFDF
:1051000075F015EDA42443F582E5F03403F583EE44
:10511000F0A3EFF0901136E004F0024DAE22E490DF
:105120000591F0FE7F15FD7B017A00791B122E435D
:105130007E007F117D007B017A007904122E43E40A
:10514000900590F0900590E0FFC3941150797E0097
:10515000126D85E47F0AFEFDFC126841126270E464
:105160007F0AFEFDFC126841900590E0FF75F00596
:10517000A4242BF582E43405F5837401F0EF75F077
:1051800005A4242CF582E43405F5837401F0EF7551
:10519000F005A4242DF582E43405F583E4F0EF75E1
:1051A000F005A4242EF582E43405F583E4F0EF75D0
:1051B000F005A4242FF582E43405F583E4F090058E
:1051C00090E004F0025144E47F32FEFDFC1268419D
:1051D000E4900590F0900590E0FFC3941150177E85
:1051E00000126D85900590E0FF7E001268C9900561
:1051F00090E004F080DFE4FFFE126D85E47F0AFE9C
:10520000FDFC1268417F751273C7900592E4F0A30C
:10521000EFF0E4900592F0A3F0900180F0900590FB
:10522000F0900590E0FFC39411505F7E00126D85F1
:10523000E47F0AFEFDFC1268417F751273C77E0091
:10524000900592EEF0A3EFF064717023900180E07E
:1052500004F0E4900592F0A3F0900590E025E0249E
:1052600094F582E43405F583E4F0A304F080139010
:105270000590E025E02494F582E43405F583E4F01C
:10528000A3F0900590E004F080977E007F157D00EC
:105290007B017A00791B122E437E007F117D007BFB
:1052A000017A007904122E437E007F227D007B016B
:1052B0007A047995122E43E4900590F0900590E0E1
:1052C000FFC394115034EF25E02494F582E43405B3
:1052D000F583E0FEA3E064014E7017900590E0A313
:1052E000E02404F582E43400F583EFF0900591E0CA
:1052F00004F0900590E004F080C2E4FF12752FE402
:105300007F0AFEFDFC1268417F0112752FE47F0ABF
:10531000FEFDFC126841E4900590F0900590E0FFDE
:10532000C3941150797E00126D85E47F0AFEFDFC66
:1053300012684112617FE47F0AFEFDFC1268419011
:105340000590E0FF75F005A4242BF582E43405F503
:10535000837401F0EF75F005A4242CF582E4340584
:10536000F5837401F0EF75F005A4242DF582E43483
:1053700005F583E4F0EF75F005A4242EF582E434FE
:1053800005F583E4F0EF75F005A4242FF582E434ED
:1053900005F583E4F0900590E004F002531BE47FF0
:1053A00032FEFDFC126841900526E4F0A304F0E40F
:1053B000900590F0900180E0FF900590E0FEC39F83
:1053C000400302547AE0FF2404F582E43400F583BC
:1053D000E0FD75F005A4242CF582E43405F583E0A6
:1053E00075F006A4FCED75F005A4242BF582E434D9
:1053F00005F583E075F006A42CFD74042FF582E416
:105400003400F583E0FF75F005A4242DF582E43423
:1054100005F583E075F006A42DFDEF75F005A424D5
:105420002FF582E43405F583E025E02D2402FD7498
:10543000042EF582E43400F583E025E02495F5821E
:10544000E43404F583E4F0A3EDF074042EF582E473
:105450003400F583E025E02495F582E43404F583F7
:10546000E0FEA3E0FF900527E02FF0900526E03E48
:10547000F0900590E004F00253B4900527E004F0AA
:105480007006900526E004F0229005917401F0E486
:10549000A3F0A304F0A374A1F0E4900590F09001B0
:1054A00080E0FF900590E0FEC39F4003025780908C
:1054B00006F2743AF074042EF582E43400F583E0C9
:1054C00075F005A4242BF582E43405F583E0607BB8
:1054D000900590E0FF75F015A4241CF582E5F034EA
:1054E00000F583E0FCA3E0FD900591E0FE24F2F5D9
:1054F00082E43406F583ECF0A3EDF075F015EFA42B
:10550000241EF582E5F03400F583E0FCA3E0FD7491
:10551000F42EF582E43406F583ECF0A3EDF090056B
:1055200090E075F015A42420F582E5F03400F583B1
:10553000E0FCA3E0FD74F62EF582E43406F583EC7E
:10554000F0A3EDF0900591E02406F0900590E0FFC7
:105550002404F582E43400F583E075F005A4242CDE
:10556000F582E43405F583E06078900590E0FE75FF
:10557000F015A42422F582E5F03400F583E0FCA3C5
:10558000E0FD900591E0FB24F2F582E43406F5831A
:10559000ECF0A3EDF075F015EEA42424F582E5F00F
:1055A0003400F583E0FCA3E0FD74F42BF582E434D1
:1055B00006F583ECF0A3EDF075F015EFA42426F5C5
:1055C00082E5F03400F583E0FEA3E0FF74F62BF5EE
:1055D00082E43406F583EEF0A3EFF0900591E02429
:1055E00006F0900590E0FF2404F582E43400F58392
:1055F000E075F005A4242DF582E43405F583E06020
:1056000078900590E0FE75F015A42428F582E5F069
:105610003400F583E0FCA3E0FD900591E0FB24F26B
:10562000F582E43406F583ECF0A3EDF075F015EEA9
:10563000A4242AF582E5F03400F583E0FCA3E0FD24
:1056400074F42BF582E43406F583ECF0A3EDF075E9
:10565000F015EFA4242CF582E5F03400F583E0FE8C
:10566000A3E0FF74F62BF582E43406F583EEF0A395
:10567000EFF0900591E02406F0900590E0FF2404FF
:10568000F582E43400F583E075F005A4242FF5825B
:10569000E43405F583E0602D75F015EFA4242EF5B4
:1056A00082E5F03400F583E0FEA3E0FF900591E091
:1056B00024F2F582E43406F583EEF0A3EFF09005D2
:1056C00091E02402F0900590E02404F582E4340097
:1056D000F583E025E02495F582E43404F583E0FECB
:1056E000A3E024F1F58274063EF583743AF0900548
:1056F000917401F0E4A3F0900590E02404F582E4B5
:105700003400F583E0F925E02495F582E43404F5CE
:1057100083E0FEA3E0FF900592E0FDD3EF9D74804F
:10572000F8EE648098402BE0FF24F2F582E4340622
:10573000F583E0FEEF900593E02DFDE433FC7494D7
:105740002DF58274053CF583EEF0900592E004F0AF
:1057500080A5E925E02495F582E43404F583E0A3EF
:10576000E0FF900593E02FF07E007F167D007B0127
:105770007A0679F2122E43900590E004F002549ECE
:105780007B017A057994900526E0A3E014FD126F61
:10579000BA900526E0FCA3E0FD2493F58274053C55
:1057A000F583EFF07B017A05799412672B227B0059
:1057B0007A4079807D027C0012757B90408274185B
:1057C000F07B007A4079847DFF7C0F12757B9040DE
:1057D00086741BF07B007A4079887D177C001275F7
:1057E0007B90408A7418F07B007A40798C7D2F7C06
:1057F0000012757B90408E7418F07B007A4079908F
:105800007D7F7CBB12757B9040927418F0904300B2
:105810007406F09042007452F07B0C7A01790F12FA
:1058200076069046A1EFF07B007A4279227D107CCB
:105830000712757B7B007A4279207D517C121275AC
:105840007BE490058FF07F19FEFDFC90058B122DF7
:105850009490058BE0A3E0A3E0FEA3E0D39400EED8
:105860009400404AA3E0FF64036043904225E05463
:1058700001FEEF25E04E540390058FF0E47FE07EBB
:1058800001FDFC12700090058BE0FCA3E0FDA3E09D
:10589000FEA3E0FF74FFEF24FFFFEE34FFFEED34C4
:1058A000FFFDEC34FFFC90058B122D9480A3900536
:1058B0008BE0A3E0A3E0FEA3E04E70057F03127728
:1058C000157B007A4079047D007C0112757B904045
:1058D000047407F0904006E4F09040087448F0909B
:1058E0004004E4F0904009F09040017402F09043CD
:1058F000A2E0441FF022900590EEF0A3EFF0A3ED9C
:10590000F0127670900594EFF0127634900595EED3
:10591000F0A3EFF0900590E0FCA3E0FD6F7002ECC7
:105920006E7003025A259043A2E05401900593F053
:10593000A3E0703BA3E0FEA3E0FF4E6004ED4C70DB
:105940002EEF4E70117B027A40798012757D904067
:1059500082E054BFF022904082E04440F07B027A23
:10596000407980900590E0FCA3E0FD12757D2290C7
:105970000593E06053904001E4F090401004F090F3
:105980004014E4F0904008E0547FF0904082E054EE
:1059900008600A900590E07002A3E0702B7B027A09
:1059A000407902900595E0FCA3E0FD12757D9040E2
:1059B000017407F0904001E0540170F89043A2E0B8
:1059C00054FEF0904001E4F09043A2E05401602FB7
:1059D0007B027A407902900590E0FCA3E0FD12750D
:1059E0007D900592E060047F0280027F00EF440119
:1059F000904001F0904001E05401602980F6227B44
:105A0000027A407980900590E0FCA3E0FD12757D5C
:105A10009043A2C083C082E0FF900593E0FEEF4E6A
:105A2000D082D083F022E4F509126CE9EF70030212
:105A30005B4CE509C394064003025B4C126AEC8F91
:105A400008E519146049146060147003025ADC14EC
:105A50007003025B2A240470D0851D1C851E1D85E1
:105A6000081EE51DB43A11E51EB43A0CE4F51CF528
:105A70001DF51E75190180B1E51CB43FACE51DB4E0
:105A80000DA7E51E640A70A1FFFE12734C809A9068
:105A90000001E065086004E5087004C2008002D2DD
:105AA00000E4F51B751902808085081BE51BD39463
:105AB000015008E4F51BF519025A29E51BD394801F
:105AC0004008E4F51BF519025A29E4F51A200006EE
:105AD000751903025A29751904025A29740F251AD7
:105AE000F582E43410F583E508F0051AE51AC3954C
:105AF0001B5003025A29200025AF1B7E0078AA7C88
:105B0000027D017B017A10790F122F2B90032AE47A
:105B1000F0A3E51BF090032E7401F0125B4DE4F549
:105B20001AF51BF5190509025A29151BE51B600317
:105B3000025A29F51AF51B7F011276B7E4FF127697
:105B4000B7E4F5190509025A29025A29229002AA36
:105B5000E0F50A7B017A0279AA90032AE0A3E01417
:105B6000FD126FBA90032AE0FCA3E024A9F5827429
:105B7000023CF583E0B50703D38001C34006E490FF
:105B8000032EF022E50A122DCC5C06005BF6015CC8
:105B90000A035C0E045C24055BEA065C48095C367B
:105BA0000A5BFA0C5BC6805BDE815BCA825BE683C4
:105BB0005BCE845BD2855BD6885BDA8A5BE28B5CEA
:105BC0006AA100005C6D12771922127718221271F7
:105BD0002B2212771B2212771D22126E9D22127722
:105BE0001A2212721B2212771C229002ABE0FEA333
:105BF000E0FF12734C2212712A229002ABE0FEA346
:105C0000E0FF1238B722126FEC2212741F227F08B5
:105C10007E0012667EEF60067F0112740A22E4FFA6
:105C200012740A22126DCEEF60067F0112740A22EE
:105C3000E4FF12740A221271F7EF60067F011274FA
:105C40000A22E4FF12740A227F0112740AE47FE838
:105C50007E03FDFC126841E4FF1276BDE47FE87E1E
:105C600003FDFC12684112763E221254892275937C
:105C70000078007583467582E8E04401F0009048A2
:105C80000074C0F07581239076BCE4F0A3F0A3F01B
:105C9000A3F0907010F0907019F0907020F0907652
:105CA000007410F0907604E4F0A3F0A3F0A3F09059
:105CB00078007800087400F0A37408F0E8B80402D3
:105CC00074FFA3F0A37422F0A374BCF0A37476F065
:105CD000A3E4F0A3E81475F008A4F0A3B804D590E9
:105CE00070107401F0907014F07E707F181226040A
:105CF000907010F0EA901125F002261175221F75A0
:105D000023FD125D88025D4302650DE493A3F8E470
:105D100093A34003F68001F208DFF48029E493A303
:105D2000F85407240CC8C333C4540F4420C883401C
:105D300004F456800146F6DFE4800B0102040810EB
:105D4000204080906A2BE47E019360BCA3FF543F07
:105D500030E509541FFEE493A360010ECF54C02523
:105D6000E060A840B8E493A3FAE493A3F8E493A313
:105D7000C8C582C8CAC583CAF0A3C8C582C8CAC577
:105D800083CADFE9DEE780BE7B007A4679E81276D7
:105D900006EF4401FD7B007A4679E8127612126420
:105DA000407B017A507903127606EF4402FD7B01B5
:105DB0007A5079031276127B017A507913127606A3
:105DC000EF4402FD7B017A5079131276129043A0C2
:105DD000E04440F09043C2E04410F07B087A1F7921
:105DE000E8900590E4F0A37451F0A37402F07F08EA
:105DF0007E00126F867B087A1F79F0900590E4F0A0
:105E0000A37451F0A374C2F07F087E00126F867CE9
:105E10007A7D7F7B007A5179F27F087E001271AC27
:105E20007C7A7D877B007A5179107F0A7E0012711F
:105E3000AC7C7A7D917B007A5179227F087E0012BA
:105E400071AC9044F47401F0904322E04408F09067
:105E500046ECE0C394055006904689743AF09048A9
:105E60000074F1F01257AE1272F87B007A4379A0F9
:105E7000C003C002900590EBF0A3EAF0A374B0F069
:105E8000D002D0037F0E7E00126F869043B0E054A4
:105E9000FDF022E4900594F0A3F0A3EEF0A3EFF060
:105EA0007F3C1273C7900594EFF07F3B1273C7904D
:105EB0000595EFF0A3E0FCA3E0FD9004C075F006AB
:105EC000122DA0EC75F006A42583F583EFF0900564
:105ED00094E0FF9004C175F006ED122DA0EC75F072
:105EE00006A42583F583EFF0E4900594F0A3F07FFA
:105EF0003E1273C7900594EFF07F3D1273C7900573
:105F000095EFF0A3E0FCA3E0FD9004C275F006124B
:105F10002DA0EC75F006A42583F583EFF090059491
:105F2000E0FF9004C375F006ED122DA0EC75F006AD
:105F3000A42583F583EFF0E4900594F0A3F07F406F
:105F40001273C7900594EFF07F3F1273C7900595C9
:105F5000EFF0A3E0FCA3E0FD9004C475F006122D61
:105F6000A0EC75F006A42583F583EFF0900594E08E
:105F7000FF9004C575F006ED122DA0EC75F006A497
:105F80002583F583EFF0E4900594F0A3F022E490EC
:105F90000594F0A3F0A3EEF0A3EFF07F441273C7D3
:105FA000900594EFF07F431273C7900595EFF0A32F
:105FB000E0FCA3E0FD90020975F006122DA0EC753F
:105FC000F006A42583F583EFF0900594E0FF90029E
:105FD0000A75F006ED122DA0EC75F006A42583F5E8
:105FE00083EFF0E4900594F0A3F07F461273C7901E
:105FF0000594EFF07F451273C7900595EFF0A3E08D
:10600000FCA3E0FD90020B75F006122DA0EC75F0DC
:1060100006A42583F583EFF0900594E0FF90020C31
:1060200075F006ED122DA0EC75F006A42583F5831E
:10603000EFF0E4900594F0A3F07F481273C7900549
:1060400094EFF07F471273C7900595EFF0A3E0FC43
:10605000A3E0FD90020D75F006122DA0EC75F00680
:10606000A42583F583EFF0900594E0FF90020E7570
:10607000F006ED122DA0EC75F006A42583F583EF54
:10608000F0E4900594F0A3F022900596EEF0A3EFD3
:10609000F07F491273C7900594EFF07F4A1273C7DF
:1060A000900595EFF0A3E0FCA3E0FD90018175F071
:1060B00006122DA0EC75F006A42583F583EFF09071
:1060C0000594E0FF90018275F006ED122DA0EC75AD
:1060D000F006A42583F583EFF0E4900594F0A3F097
:1060E0007F4B1273C7900594EFF07F4C1273C790EB
:1060F0000595EFF0A3E0FCA3E0FD90018375F006A9
:10610000122DA0EC75F006A42583F583EFF0900521
:1061100094E0FF90018475F006ED122DA0EC75F06F
:1061200006A42583F583EFF0E4900594F0A3F07FB7
:106130004D1273C7900594EFF07F4E1273C7900510
:1061400095EFF0A3E0FCA3E0FD90018575F0061249
:106150002DA0EC75F006A42583F583EFF09005944F
:10616000E0FF90018675F006ED122DA0EC75F006AB
:10617000A42583F583EFF0E4900594F0A3F0227D4D
:10618000107F6B12709DE47F0AFEFDFC1268417D5A
:10619000207F6A12709DE47F0AFEFDFC1268417D3B
:1061A000067F1A12709DE47F0AFEFDFC1268417D95
:1061B000187F1B12709DE47F0AFEFDFC126841E40B
:1061C000FD7F1C12709DE47F0AFEFDFC1268417D7C
:1061D000057F1D12709DE47F0AFEFDFC1268417D63
:1061E0000D7F2412709DE47F0AFEFDFC1268417D44
:1061F0000C7F2512709DE47F0AFEFDFC1268417D34
:106200000A7F2612709DE47F0AFEFDFC1268417D24
:10621000167F6312709DE47F0AFEFDFC1268417DCB
:10622000817F2712709DE47F0AFEFDFC1268417D8C
:106230008C7F2512709DE47F0AFEFDFC1268417D73
:10624000037F2612709DE47F0AFEFDFC1268417DEB
:106250008D7F2712709DE47F0AFEFDFC126841E4E9
:10626000FD7F6B12709DE47F14FEFDFC12684122DD
:106270007D107F6B12709DE47F0AFEFDFC12684169
:106280007D207F6A12709DE47F0AFEFDFC1268414A
:106290007D067F1A12709DE47F0AFEFDFC126841A4
:1062A0007D187F1B12709DE47F0AFEFDFC12684181
:1062B000E4FD7F1C12709DE47F0AFEFDFC12684124
:1062C0007D057F1D12709DE47F0AFEFDFC12684172
:1062D0007D0D7F2412709DE47F0AFEFDFC12684153
:1062E0007D0C7F2512709DE47F0AFEFDFC12684143
:1062F0007D0A7F2612709DE47F0AFEFDFC12684134
:106300007D1F7F6312709DE47F0AFEFDFC126841D1
:106310007D817F2712709DE47F0AFEFDFC1268419B
:106320007D8C7F2512709DE47F0AFEFDFC12684182
:106330007D107F2612709DE47F0AFEFDFC126841ED
:106340007D837F2712709DE47F0AFEFDFC12684169
:10635000E4FD7F6B12709DE47F14FEFDFC1268412A
:1063600022900597EBF0A3EAF0A3E9F0A3EDF01279
:10637000744990059AE0C394804003026434127219
:10638000D9EF600302642C90059B74FFF090059791
:10639000E0FBA3E0FAA3E0F99005A0E4F0A37410F9
:1063A000F07F4012694DEF6407707C904722E05403
:1063B0000260F8904722E054026009E0FF13135492
:1063C0003FFF80027FFFEF700490059BF090059BDC
:1063D000E0704E90059AE0FD7C0090112DE0FBA34B
:1063E000E09005A0F07F40126C45EF6407702A90A2
:1063F000059B74FFF0904722E0540260F89047221A
:10640000E054026009E0FF1313543FFF80027FFF56
:10641000EF701490059BF0800E90059B74FFF08048
:106420000690059B74FFF012761E800E90059B74FB
:1064300004F0800690059B7401F090059BE0FF221C
:10644000E4FFFEFDFC90112F122D94907600741045
:10645000F09070107401F0907019E4F07B027A787B
:10646000F97DB07C0212757D9078027401F0A374FE
:10647000A3F07B027A787904C003C002C0017BFFDD
:106480007A7779CFE9EAE4AD01AC02D001D002D04D
:106490000312757D7B027A7879067D087C78127507
:1064A0007D7B027A7679047D107C0012757D7B02FB
:1064B0007A767906E4FDFC12757D907029740BF0F4
:1064C00090703904F09070597415F090706904F070
:1064D000907079741FF09070147401F0907018E04F
:1064E000540170F8907028E0540170F8907038E012
:1064F000540170F8907058E0540170F8907068E0A2
:10650000540170F8907078E0540170F82212770B03
:10651000126D38E47F64FEFDFC1268417F01127643
:10652000BD12725B12748712703B1270CD1274F937
:106530007E777F1212729B1274C07E777F0F127269
:10654000BAE4FF1276B71274AD12749AD2AF9044C7
:10655000F474FDF01274D312737E1271D212754E60
:1065600012750B12727BE47F0AFEFDFC1268417FFC
:106570000112752F12511EE4900582F0C20DC20A5D
:1065800090032AF0A3F090032EF0E4FF1276C312DA
:106590006E151276C9EF701B300C0E7F011276E774
:1065A000C20CC20B125A2680E9300BE67F0112762C
:1065B000E780DF7F011276C31276C9EF640160F8CD
:1065C000127473EF30E7C31270CD80BE22C0E0C0FA
:1065D00083C082C085C084C086758600C0937593D1
:1065E00000C0D075D000C001C002C003C006C00703
:1065F000E4FBA2AF33FAD2AF9044F474FDF09064A0
:106600006EE0FFFE541EF960069010FAE049F0EFCC
:1066100030E54590644FE0FE9010F7E024D7F58216
:10662000E43410F583EEF07B01EB602C9010D5E0A4
:1066300060069010F97401F09010F7E004F0E0C3E8
:1066400094204002E4F09010D6E0FE9010F7E0B500
:1066500006069010D57401F0EF20E5A2AF02EA24FF
:10666000FF92AFD007D006D003D002D001D0D0D057
:1066700093D086D084D085D082D083D0E03290056C
:1066800090EEF0A3EFF09005967401F012768F1261
:10669000739778007C007D017B017A0079157E007C
:1066A0007F04122F2B900594E4F0A304F0E49005EE
:1066B00092F0A3F0900594E0FEA3E0FF900592E035
:1066C000FCA3E0FDC39FEE6480F8EC648098503F2B
:1066D000EDC4F8540FC868FFECC454F048FE7B01C9
:1066E00074152FF974003EFA900590E0A3E0FFEDD9
:1066F0002FFD126361EF6007E4900596F080109023
:106700000593E004F07006900592E004F080A5780F
:10671000157C007D017B017A0079007E007F0412E8
:106720002F2B127688900596E0FF22900A2BEBF033
:10673000A3EAF0A3E9F0A3ECF0A3EDF07F3A127521
:10674000DF7F3A1275DF900016E0FF1275DF900AC6
:106750002EE0A3E0FF1275DFE4F514F515D3900ADF
:106760002FE09515900A2EE095144022900A2BE018
:10677000FBA3E0FAA3E02515F9EA3514FA122B641D
:10678000FF1275DF0515E5157002051480CFE4F5DD
:1067900014F5151276ABEF20E0130515E515AE14D0
:1067A0007002051414D394E8EE940340E67F0112BE
:1067B00076B7E4FF1276B722900592EEF0A3EFF0E1
:1067C00090052B75F005122DA0EE75F005A425831C
:1067D000F583E0600B900592E0FEA3E0FF125E936C
:1067E000900592E0FEA3E0FF90052C75F005122DB8
:1067F000A0EE75F005A42583F583E06003125F8E9B
:10680000900592E0FEA3E0FF90052D75F005122D96
:10681000A0EE75F005A42583F583E060031260897E
:10682000900592E0FEA3E0FF90052F75F005122D74
:10683000A0EE75F005A42583F583E06003126B9D3F
:106840002290FFFC122DF2122D9485228385238243
:10685000E0A3E0A3E0FEA3E0D39400EE9480403DEB
:10686000901126E0FCA3E0FDA3E0FEA3E0FF127080
:1068700000852283852382C083C082E0FCA3E0FDE3
:10688000A3E0FEA3E02400FFEE3480FEED34FFFD24
:10689000EC34FFFCD082D083122D9480AD90111C7B
:1068A000E0FCA3E0FDA3E0FEA3E0FF8522838523B7
:1068B00082E0F8A3E0F9A3E0FAA3E0FB122BCE12EA
:1068C0007000900004122DF222E49005B6F0A3EEC1
:1068D000F0A3EFF07F491273C79005B6EFF0A3E085
:1068E000FCA3E090027775F003122DA0EC75F00385
:1068F000A42583F583EFF0E49005B6F07F4A127388
:10690000C79005B6EFF0A3E0FCA3E090027875F025
:1069100003122DA0EC75F003A42583F583EFF0E4BA
:106920009005B6F07F4B1273C79005B6EFF0A3E069
:10693000FCA3E090027975F003122DA0EC75F00332
:10694000A42583F583EFF0E49005B6F02290059D31
:10695000EBF0A3EAF0A3E9F09005A27407F09047EA
:1069600022E05402604E90472074B6F074D5F07463
:1069700002F0904722E054027032904720EFF0E49A
:10698000FFFED39005A1E09F9005A0E09E402B90D4
:10699000059DE0FBA3E0FAA3E02FF9EA3EFA122BF3
:1069A00064904720F00FEF70010E80D69005A2741E
:1069B00009F080069005A27404F09005A2E0FF2281
:1069C0009005F9EBF0A3EAF0A3E9F09005FFEBF0F6
:1069D000A3EAF0A3E9F09005F9E0FBA3E475F00168
:1069E00012303CA9F0FA122B6470EB9005FA74FF98
:1069F000F5F01230269005FCE0FBA3E475F00112DF
:106A0000303CA9F0FA122B64FF9005F9E0FBA3E4F7
:106A100075F00112303CA9F0FAEF122BAA70D69053
:106A200005FFE0FBA3E0FAA3E0F922420EA78000F5
:106A300001190042108F0001411136004110F80089
:106A40004110FA004110D6004110F7004110D50066
:106A50004110F900411137004111380043112A005B
:106A6000000044112102DC6C0044111C0000BB80BA
:106A7000411120304411265DC00000411139004110
:106A8000113500410EA90041113A0000900599EB23
:106A9000F0A3EAF0A3E9F0A3EDF0E4A3F090059CE5
:106AA000E0FFA3E0C39F503E904722E05401600303
:106AB000D38001C340097F017E0012712C80E990D0
:106AC0004720E0FF900599E0FBA3E0FAA3E0F990EE
:106AD000059DE0FEE92EF9E43AFAEF122BAA9005A3
:106AE0009DE004F080B790059DE0FF22E4FF904414
:106AF000C87402F09010D6E0FE9010F7E0FD901000
:106B0000D5E07004EE6D602474D72EF582E4341065
:106B1000F583E0FF0EEEC394204002E4FE9010D611
:106B2000EEF09010D5E06018E4F0801490646EE010
:106B3000FE30E50C90644FE0FFEE541E6002E4FF6F
:106B40009044C07402F02212744990059874FFF0CA
:106B50001272D9EF703B7F011270FCEF6407702C4A
:106B60007B017A11792D7D02126A8CEFB40215E453
:106B7000900598F0904722E0540270107F01FE12B9
:106B8000712C80F0904722E0540260D412761E806F
:106B9000069005987404F0900598E0FF22E49005B3
:106BA00094F0A3F0A3EEF0A3EFF07F421273C7902E
:106BB0000594EFF07F411273C7900595EFF0FD90BB
:106BC0000597E025E0FF900596E033FE74E72FF58A
:106BD0008274013EF583EDF0900594E0FD74E82F9A
:106BE000F58274013EF583EDF0E4900594F0A3F096
:106BF00022900591ECF0A3EDF0900590EFF0541F7A
:106C000025E0FFE433FEE42FFFEE3444FAA9077BCE
:106C10000112756E900593EEF0A3EFF0900590E0F1
:106C200075F002A42400FFE5F03444FAA9077B01C3
:106C3000A3E0FEA3E0FFFDAC0612757D900593E096
:106C4000FEA3E0FF2290059DECF0A3EDF0AC077DE4
:106C500007904722E05402603B90472074B6F074DE
:106C6000D8F07405F0904722E0540270239047203A
:106C7000ECF090059DE0904720F090059DE0A3E0AA
:106C8000904720F0EBF09005A0E0904720F08006C0
:106C90007D0980027D04AF05221274491272D9EF7A
:106CA000703B127331900598EFF06407702A90479B
:106CB00022E0540270087F01FE12712C80F0904790
:106CC00022E054026009E0FF1313543FFF80027F6B
:106CD000FFEF7004900598F012761E8006900598DC
:106CE0007404F0900598E0FF229044C87402F0907C
:106CF00010F7E0FE9010D6E0B5060E9010D5E060DB
:106D0000047F20802CE4FF80289010F7E0FE901094
:106D1000D6E0C39E500BE0FE9010F7E0C39EFF80CC
:106D2000109010D6E0FEC374209EFE9010F7E02E67
:106D3000FF9044C07402F022E4FFFEC3EF9404EE1F
:106D400094005023900EA7E0FCA3E02FF582EC3EC8
:106D5000F583E0FD74152FF58274003EF583EDF0A8
:106D60000FEF70010E80D4900015E07004126DCE0C
:106D70002278007C007D017B017A0079157E007FFE
:106D800004122F2B229005B6EEF0A3EFF07F0F1226
:106D900076FF7F031277059005B6E0FEA3E0FFC300
:106DA000940FEE6480948050031276FF9005B6E055
:106DB0007004A3E0640F7004FF1277059005B6E03D
:106DC0007004A3E0641070057F0112770522E4FFD0
:106DD000FEC3EF9404EE9400502AEF2480FDE43EBD
:106DE000FC900EA7E0FAA3E02DF582EA3CF583E0E3
:106DF000FD74152FF58274003EF583EDF00FEF70F2
:106E0000010E80CD900015E070041271F722E4FFAE
:106E1000FE12667E2212753F9004B8122D94300C3B
:106E200005C20C125A26124DA3781B7C007D017BF3
:106E3000017A0379307E017F65122F2B300C05C259
:106E40000C125A2612753F90026F122D947F407ECD
:106E50004B7D4C7C0012765C22C2D5E830E70FB245
:106E6000D5E4C39BFBE49AFAE499F9E498F8EC3092
:106E7000E717B2D5126E8F122C59E4C39BFBE49A2C
:106E8000FAE499F9E498F88003122C5930D50DE40E
:106E9000C39FFFE49EFEE49DFDE49CFC229002ABB8
:106EA000E0D39400500B7F011276E1E4900018F0DB
:106EB000229002ABE0D394FA400374FAF09002AB54
:106EC000E0FF7E007C017DF4122E16780A122D2040
:106ED000900018EFF01275D1E4FF1276E122904F86
:106EE00000E05401F0904F02E054FCF0904F0BE0B2
:106EF00054CFF0E04430F0E054F0F0E0440FF09074
:106F00004F01E04401F07F7F7EBB1275A77F7F7E3B
:106F1000BB1275B5E4FF1276B122904F0CE054011C
:106F2000F0904F0EE054FCF0904F0DE04401F090D3
:106F30004F17E054CFF0E04430F0E054F0F0E0447C
:106F40000FF07F7F1275D1E4FF1273157F08127660
:106F5000DB22900590EBF0A3EAF0A3E9F0E4FDFC5E
:106F60009010F8E0601F900590E0FBA3E0FAA3E02A
:106F70002DF9EA3CFA122B64FF600A1275DF0DED61
:106F800070010C80E122758600EF4E6027EF6001F2
:106F90000E759300900590E0F595A3E0F585A3E0CC
:106FA000F5848B938A838982E0A30586F0A31586F6
:106FB000DFF6DEF4E4F593F59522900A2BEBF0A3CF
:106FC000EAF0A3E9F0E4F515F514E514C39D5019B2
:106FD000900A2BE0FBA3E0FAA3E02514F9E43AFAC7
:106FE000122B646215051480E1AF1522E490059020
:106FF000F0A3F07B017A0579907D02FC12672B22C9
:10700000EC4D4E700D78FCEF24E950032840FD2232
:1070100000007BF178DA0000EF28FF78FFEE38FE01
:10702000ED38FDEC38FC50E7EF2BFFEE38FEED3885
:10703000FDEC38FC40F222050203047C657DCD7F27
:1070400001126BF17D077F01127365E49010FAF075
:1070500090648D7469F0A37420F09065277406F035
:107060009065377447F0906587E4F022127434908D
:1070700043A0E04408F09043B0E04408F09047019A
:1070800074C8F09043ACE04410F09043BCE044106E
:10709000F0904700E0542060F81273AF229005B6DC
:1070A000EFF0A3EDF012754E12750B12727B900586
:1070B000B6E0FF1275F912755DEF30E1F99005B792
:1070C000E0FF1275F912755DEF30E1F922127434A8
:1070D00090649FE04401F0E054FEF01273AF9044DE
:1070E000C87402F0E49010D6F09010F7F09010D52C
:1070F000F09010F9F09044C07402F0227E0790479F
:1071000022E05402601F90472074B6F074E1F074DE
:107110000EF0904722E054027007904720EFF08075
:10712000067E0980027E04AF06222222EEFA90112A
:1071300020E0F88FF0A4FFAEF0E88AF0A42EFEE580
:10714000F03400FDEF24C9FF78FFEE38FEED38FD86
:10715000E438FC5003027000227F407E4B7D4C7C63
:10716000001276487F407E4B7D4C7C0012765C128C
:10717000743490649AE04410F01273AF1275ECE42A
:10718000FF1276CF22EFB40A07740D127190740AC1
:10719000309811A899B8130CC2983098FDA899C2DC
:1071A00098B811F63099FDC299F59922758600EFCD
:1071B0004E601BEF60010E8C838D828B958A8589D2
:1071C00084E493A30586F0A31586DFF5DEF3E4F5EA
:1071D0009522127434906497E04420F0906494E017
:1071E0004410F090649FE04410F01273AF12758A5F
:1071F000127720127721229000167401F09000156A
:10720000F0E4FFFE12667EEF600E7F087E001266DD
:107210007EEF60047F0180027F00229002ABE0904D
:107220000002F024F3700A7D017F0C7E001258F6F4
:10723000227D017F027E001258F62212743490647F
:107240009DE04420F0A3E04410F09044C07402F0AC
:10725000906597E04410F01273AF2212743490647A
:107260009DE054DFF0A3E054EFF09044C87402F0C6
:10727000906597E054EFF01273AF2290646FE030A6
:10728000E507906454E0FF80F2127434906494E057
:107290004401F0E054FEF01273AF22900590EEF03E
:1072A000A3EFF012768F900590E0FEA3E0FF127539
:1072B000997F0412762A12768822900590EEF0A328
:1072C000EFF01276A4900590E0FEA3E0FF1275C3E4
:1072D0007F0712766612769D2290059C7404F01248
:1072E000743490113AE0700704F0E490059CF012B9
:1072F00073AF90059CE0FF227B0C7A0179CF127668
:1073000006EF540790586EF0EFC4540FA3F0905856
:10731000767444F0229043A3E04402F07B027A4F5B
:107320007912EFFD7C0012757D9043A3E054FDF0CF
:10733000227F07904722E05402600E90472074B6E7
:10734000F074E0F0740DF080027F0422EF7015EE0F
:1073500070127B017A0A795B12309E7B017A0A797E
:107360005B126F5222AC07ED540775F020A4FFECBE
:10737000541F2480F582E43444F583EFF0229064B6
:1073800087740FF012727B1276ED1276F39064849C
:10739000E4F090648FF022126C99900597EFF070F2
:1073A00008126B47900597EFF0900597E0FF22EFEA
:1073B00054016004D2AF8002C2AFEF5402FF904488
:1073C000F4E054FD4FF022EF4480FF1275F9E4FF22
:1073D0001275F912755DEF30E0F91276F9229043DB
:1073E000A3E04401F09043B3E04401F0904F00E08B
:1073F0004401F0229043A3E04402F09043B3E04400
:1074000002F0904F0CE04401F0227D027C009005D8
:1074100090EFF0A3F07B017A05799012672B22E4BC
:10742000FFFE12667EEF60067F0112740A22E4FFFF
:1074300012740A229044F4E0F84402F0E85402FF87
:1074400010AF012274014FFF221274349043A0E068
:107450004408F09043B0E04408F01273AF22E4FF18
:10746000FE122B64600C0FEF70010E09E970F20A36
:1074700080EF2290646EE0547FFF9010F9E0600688
:10748000EF4480FFE4F0229010F8E0700912703BA6
:107490009010F87401F012723B22901137E07009DD
:1074A000126EDE9011377401F01273DE22901138E3
:1074B000E070091271599011387401F01276782237
:1074C000901139E07009126F1A9011397401F0129D
:1074D00073F422901135E0700912737E90113574A7
:1074E00001F01271D2228B938A838982E0FFA3E09C
:1074F000FEA3E0FDE4FCF59322127434906594E061
:107500004401F0E054FEF01273AF22127434906420
:1075100094E04401F0E054FEF01273AF228B938AA2
:10752000838982EFF0A3EEF0A3EDF0759300229033
:107530005110E054F7FEEF33333354084EF02290ED
:10754000640CE0FF7B027A64794C1274E822906448
:107550006FE030E507906454E0FF80F22290646FA2
:10756000E0FF906464E04FFF54EFFF228B938A8327
:107570008982E0FFA3E0FE759300228B938A8389C2
:1075800082EDF0A3ECF0759300229043A2E0440456
:10759000F09043B2E04404F0227B027A447900ADDB
:1075A00007AC0612757D227B027A4F7904AD07ACD9
:1075B0000612757D227B027A4F7906AD07AC061262
:1075C000757D227B027A447924AD07AC0612757D65
:1075D000227B027A4F7910EFFD7C0012757D22909C
:1075E0006567E020E2F9906544EFF0221276D5EF6E
:1075F00030E30512765280F422906464E030E2F9C0
:10760000906444EFF0228B938A838982E075930023
:10761000FF228B938A838982EDF075930022127486
:1076200034E490113AF01273AF22EFC43354E09077
:107630004480F0227B027A40798012756E22904657
:10764000FA7440F0127680227B027A64792C1275EB
:107650001F227B027A64794C1274E8227B027A64DE
:10766000790C12751F22EFC43354E0904492F0223B
:10767000904082E05407FF2290647CE04480F02236
:107680009046F6E04401F0229044C07401F022904C
:1076900044C87401F02212739712706C229044C295
:1076A0007404F0229044CA7404F022906567E0FFED
:1076B00022904F03EFF02290647AEFF022906577EA
:1076C000EFF022906575EFF022906466E0FF229063
:1076D000648AEFF02290646AE0FF22904F0FEFF08F
:1076E0002290647FEFF022906574EFF02290646442
:1076F000E0FF2290646FE0FF22906454E0FF22904C
:107700006576EFF022906475EFF02212769622D221
:107710000B32D20C3280FE2222222222222232324C
:1077200022220020400000000000000000000000B5
:107730000000000000000000000000000000000049
:107740000000000000000000000000000000000039
:107750000000000000000000000000000000000029
:1077600000000000000000000000000000007000A9
:107770000000000000000000000000000000000009
:107780000000000000000000800000000000000079
:1077900000000000000000000000000000000000E9
:1077A00000000100000000000000010000000000D7
:1077B00001000100000010000100010000000800AD
:1077C00000000100000008000100010000000100AD
:1077D00008230277A276080008230377AA76100010
:1077E00008230477B276200008230577BA762800AC
:1077F00008230677C276300005230777CA70200079
:1078000005230877CA70300005230977CA70500035
:1078100005230A77CA7060000523FE77CA707000DE
:107820004022FE112F51300080220D112F00000147
:1078300080220E112F02000180220F112F0800015B
:10784000802210112F180001802211112F1A00011F
:10785000002212112F440000802213112F46000035
:10786000802214112F4700008022FE112F4D0000AE
:107870008023FE772240800007231704C0520000B7
:1078800007231804C852080007231904D052100017
:1078900006231A04D852600007231B04E052780024
:1078A0000C231C04F04F00000C231D04FC4F0C00A3
:1078B00020231E0C886470002023FE0CA865700035
:1078C00008232004E85100008023210508008000DF
:1078D00080232205880400008023230608048000FA
:1078E00080232406880600008023250708068000E0
:1078F00080232607880A000080232708080A8000C2
:1079000080232808880C000080232909080C8000A7
:1079100080232A09880E000080232B0A080E80008D
:1079200080232C0A8814000080232D0B081480006B
:1079300080232E0B8816000080232F0C0816800051
:107940001023300CC85010001023310CD850000008
:107950008023320CE84D80008023330D684C0000FA
:107960008023340DE84C80008023350E684780006A
:107970008023360EE84680008023370F68450000DC
:107980008023380FE845800080233910681B800071
:1079900080233A10E815000080233B116815800011
:1079A00080233C11E819800080233D1268170000F5
:1079B00080233E12E817800080233F13680980006F
:1079C00080234013E80700008023411468078000EB
:1079D00080234214E80B000080234315680B8000CD
:1079E00080234415E80500008023451668058000C3
:1079F00080234616E80D000080234717680D80009D
:107A000080234817E803800080234918680F00008E
:107A100080234A18E80F800080234B19680100007A
:107A200080234C19E801800080234D1A684900002A
:107A300080234E1AE849800080234F1B68480000CD
:107A40008023501BE84880008023511C68430000BD
:107A50008023521CE84380008023531D68420000AD
:107A60008023541DE84280008023551E6841000099
:107A70008023561EE84180008023FE1F68400000DE
:107A800007070007000000000000FEFA00F20000F7
:097A90000030D8C800D800000045
:00000001FF
