:40000000021415008F828E83E0540100000070F82278FFE4F6D8FD02147A900000EFF0E4F53FF540F541F54275430AC200121F87EF60057F00121FB7122067D2AF9044F4FC
:4000400074FDF0E4F53B754900754A00754B37900000E0FF70067EFF7FFF80008F4C7B017A0079017D2C7C011212FA8F3E900000E060021543E5436004E53E70C9E53E6046
:400080000302059FC3E5389407E53794004008900001E064016005753B04807E900004E0FE900003E0FDEEF53FEDF54074062540F5827400353FF583E0FE74052540F58228
:4000C0007400353FF583E0FDEEF53CEDF53DE5402407FFE4353FFED3EF9538EE95374005753B03803574072540F5827400353FF583E064176005753B04801F7B017A0079B1
:4001000001E5402404FDE4353FFC121C66EF653D7003EE653C6003753B08E4F539F53AE53B600302058E900005E0F536753B04900002E012088801553101823202083403A0
:400140007A3503883703D438020839040F3A05783B0000058B20000302058EE540453F600302058EFF120D84EF70047F0180027F00900005EFF0753900753A01E4F53B0260
:40018000058E20000302058EE5406401453F600302058EE536C39401400302058E900357E0FEA3E0F5828E83120842E4FBFA7901F81207188F24E536B5241E900357E0FE6B
:4001C000A3E0F5828E83120842E4FB7A01F9F81207187522008F238014E536D395244007E4F522F5238006752201752300E523900005F0E522A3F0A374FFF0E4A3F0F539B6
:40020000753A04F53B02058E900002E06434703C20000302058EE5406403453F600302058EE536C39440400FE536D3947F50087541007542108006754101754220AE41AF47
:40024000427D007B017A01792D1208FF20000302058EC3E5409403E53F9400500302058EE54024FDFFE53F34FFFE742D2542F974013541A801FC7D017B017A0079081209F7
:40028000E7E54024FDFFE53F34FFFEEF2542F542EE3541F541E536C394404012E536D3947F500B121DA8753F007540108006753F01754020E54265407004E541653F600369
:4002C00002036F900007E0FE900006E0FDEEF541EDF542E536D3943F506FE5367F00FEEF2542FFE5413E900259F0A3EFF0900357E0FEA3E0F5828E83120842E4FB7A01F9AA
:40030000F812071890025BEEF0A3EFF0900357E0FEA3E0F5828E83120842EFE4EF600A90025BE475F0011205DA90025BE0FEA3E0FFC390025AE09F900259E09E500B753BD5
:400340000AE4F541F54202058E7B017A01792D900263E53FF0A3E540F0AD42AC41AF36120F0BEF60047F0A80027F008F3B8003753B03E4F541F54202058E20000302058EC7
:40038000E4F541F54202059F20000302058EE5422540FFE541353FFED3EF942CEE9401502DE4F53BAE3FAF40742D2542F974013541A801FC7D017B017A0079051209E7E58F
:4003C000402542F542E53F3541F54102058E753B0302058EE540453F600302058E78257C00FD7BFF7A25791FFE7F081209E7D200753900753A08AE39AF3A78057C007D0105
:400400007B007A0079251209E7E4F53B02058E20000302058EE5406403453F600302058E900007E0FE900006E0FDEEF52FEDF530E536C394404038E536D3947F5031AE2F29
:40044000AF307C007D101208D28F348E338D328C318F4B8E4A8D498C48E4754F10F54EF54DF54CFF7E80FDFC12192C8F358050AE2FAF307C017D001208D2C004C005C006FC
:40048000C007AF36E4FCFDFEFBFA7901F812068DD003D002D001D0001206728F348E338D328C318F4B8E4A8D498C48E4F54F754E01F54DF54CFFFE7D10FC12192C8F35E588
:4004C00036D3943F5072AF367E007C207D001208D2E42FFFE43EFEED3408FDE43CFCC004A905AA06AB07AE2FAF307C007D201208D2D0001206728F348E338D328C31E4F5BA
:400500002DF52EC3E52E9420E52D9400502AE4E52E2534FFE52D3533FEE43532FDE43531A907AA06AB05121CF3EF2535F535052EE52E7002052D80CBE536702AAE2FAF301E
:40054000FCFD7BFFFAF9F8C31207C57019FD7F05120A3DC3E5359FF535E4FD7F06120A3DC3E5359FF535E535F404900005F0E4F53BF539753A018016E4FF120D84EF700604
:400580009046FA7480F01220718003753B057B017A007901853948853A49AF3B1215ED900000E0700302004330000302004322BB010689828A83E0225002E722BBFE02E399
:4005C0002289828A83E49322BB010689828A83F0225002F722BBFE01F322C5F0F8A3E028F0C5F0F8E582158270021583E038F022BB010A89828A83E0F5F0A3E022500687B6
:40060000F009E71922BBFE07E3F5F009E3192289828A83E493F5F074019322BB010789828A830205DA500B09C5F027F7C5F01937F722BBFE0D09F8E325F0F3C5F019E338A6
:40064000F322F889828A8374019325F0C5F0F8E4933822BB010A89828A83F0E5F0A3F0225006F709A7F01922BBFE06F3E5F009F31922EF2BFFEE3AFEED39FDEC38FC22C315
:40068000EF9BFFEE9AFEED99FDEC98FC22E88FF0A4CC8BF0A42CFCE98EF0A42CFC8AF0EDA42CFCEA8EF0A4CDA8F08BF0A42DCC3825F0FDE98FF0A42CCD35F0FCEB8EF0A47C
:4006C000FEA9F0EB8FF0A4CFC5F02ECD39FEE43CFCEAA42DCE35F0FDE43CFC2275F008758200EF2FFFEE33FECD33CDCC33CCC58233C5829BED9AEC99E58298400CF582EE4A
:400700009BFEED9AFDEC99FC0FD5F0D6E4CEFBE4CDFAE4CCF9A88222B800C1B90059BA002DEC8BF084CFCECDFCE5F0CBF97818EF2FFFEE33FEED33FDEC33FCEB33FB10D7C4
:4007400003994004EB99FB0FD8E5E4F9FA227818EF2FFFEE33FEED33FDEC33FCC933C910D7059BE99A4007EC9BFCE99AF90FD8E0E4C9FAE4CCFB2275F010EF2FFFEE33FE50
:40078000ED33FDCC33CCC833C810D7079BEC9AE899400AED9BFDEC9AFCE899F80FD5F0DAE4CDFBE4CCFAE4C8F922EF4BFFEE4AFEED49FDEC48FC22C3E49FFFE49EFEE49D2F
:4007C000FDE49CFC22EB9FF5F0EA9E42F0E99D42F0E89C45F022E8600FECC313FCED13FDEE13FEEF13FFD8F122E8600FEFC333FFEE33FEED33FDEC33FCD8F122BB010789DC
:40080000828A830208365005E9F8020A0DBBFE05E9F8020A1989828A83020842BB010789828A8302085E5005E9F8020A25BBFE05E9F8020A3122E0FCA3E0FDA3E0FEA3E06A
:40084000FF22E493FC740193FD740293FE740393FF22E0F8A3E0F9A3E0FAA3E0FB22ECF0A3EDF0A3EEF0A3EFF022E0FBA3E0FAA3E0F922EBF0A3EAF0A3E9F022E493FB74E9
:400880000193FA740293F922D083D082F8E4937012740193700DA3A393F8740193F5828883E4737402936860EFA3A3A380DFE5092582F582E5083583F583B50804858209B7
:4008C0002210AF06858209F50822858209F508D2AF22EC8EF0A4CCC5F0CCCDF8EFA4CEC5F02DFDE43CFCE8A42EC8C5F03DFDE43CFCEFA4FFE5F028FEE43DFDE43CFC22EF51
:400900004E6012EF60010EEDBB010B89828A83F0A3DFFCDEFA2289F05007F709DFFCA9F022BBFEFCF309DFFCA9F022E709F608DFFA8046E709F208DFFA803E88828C83E7AA
:4009400009F0A3DFFA8032E309F608DFFA806EE309F208DFFA806688828C83E309F0A3DFFA805A89828A83E0A3F608DFFA804E89828A83E0A3F208DFFA804280D280FA80F3
:40098000C680D4805580F28029801080A680EA809A80A880DA80E280CA802988848C8589828A83E493A30586F0A30586DFF5DEF3800B89828A83E493A3F608DFF9ECFAA95D
:4009C000F0EDFB2288848C8589828A83E0A30586F0A30586DFF6DEF480E389828A83E493A3F208DFF980D688F0EF60010E4E60CD88F0ED2402B4040050C3F582EB2402B455
:400A0000040050B9232345822390097B73E6FC08E6FD08E6FE08E6FF22E2FC08E2FD08E2FE08E2FF22ECF608EDF608EEF608EFF622ECF208EDF208EEF208EFF22290025D03
:400A4000EDF0AB079002627402F0E4FFFEFDFCA312085EEB1208880A79010AA6020ACB030AF0040B15050B40060B8F070B6B080BB3090BD70A00000C0190025DE0FF7E005E
:400A80007C017D001208D21207B7EF24C0FFEE34FFFEED3410FDE43CFCA312085E9002627401F0020C0C90025DE0FF7E007C017D001208D2C374C39FFF74FF9EFE74109DBD
:400AC000FDE49CFCA312085E020C0C90025DE0FF7E007C017D001208D2C374C79FFF74FF9EFE74109DFDE49CFCA312085E020C0C90025DE0FF7E007C017D001208D2C37433
:400B0000CB9FFF74FF9EFE74109DFDE49CFCA312085E020C0C90025DE0FF7E007C017D001208D2C374D09FFF74FF9EFE74109DFDE49CFCA312085E9002627401F0020C0C60
:400B400090025DE0FF7E007C017D001208D2C374D19FFF74FF9EFE74109DFDE49CFCA312085E9002627401F0020C0C90025DE0FF7E007C017D001208D2C374D69FFF74FF16
:400B80009EFE74109DFDE49CFCA312085E807D90025DE0FF7E007C017D001208D2C374D29FFF74FF9EFE74109DFDE49CFCA312085E805990025DE0FF7E007C017D00120811
:400BC000D2C374D49FFF74FF9EFE74109DFDE49CFCA312085E803590025DE0FF7E007C017D001208D2C374D89FFF74FF9EFE74109DFDE49CFCA312085E9002627404F08082
:400C00000BE4FFFEFDFC90025E12085E900262E0B4011990025E120836A907AA06AB05121CF3E4FCFDFE90026312085E900262E06402705C90025E120836EF2401FFE43E91
:400C4000FEE43DFDE43CA907AA06AB05121CF3E4FCFDFE90026312085E900263120852C000C001C002C00390025E120836A907AA06AB05121CF3E4FCFDFE78081207E9D0BA
:400C800003D002D001D0001207AA90026312085E900262E064046003020D7D90025E120836EF2403FFE43EFEE43DFDE43CA907AA06AB05121CF3E4FCFDFE90026312085E37
:400CC000900263120852C000C001C002C00390025E120836EF2402FFE43EFEE43DFDE43CA907AA06AB05121CF3E4FCFDFE78081207E9D003D002D001D0001207AA9002634F
:400D000012085E900263120852C000C001C002C00390025E120836EF2401FFE43EFEE43DFDE43CA907AA06AB05121CF3E4FCFDFE78101207E9D003D002D001D0001207AA84
:400D400090026312085E900263120852C000C001C002C00390025E120836A907AA06AB05121CF3E4FCFDFE78181207E9D003D002D001D0001207AA90026312085E90026356
:400D8000120836228F44AD447F03120A3DEF2401FFE43EFEE43DFDE43CFCE4FB7A01F9F812068DC004C005C006C007AD447F04120A3DD003D002D001D0001206728F4C8EA9
:400DC0004B8D4A8C49C201E4F54DAD447F03120A3DEF2401FFE43EFEE43DFDE43CFCE4FB7A01F9F812068D8F488E478D468C45AF4CAE4BAD4AAC49AB48AA47A946A845C337
:400E00001207C55032854882854783E493F54E6005F46002D201E54E254DF54DAF48AE47AD46AC45E47B01FAF9F81206728F488E478D468C4580B8AD447F03120A3DEF2479
:400E400001FFE43EFEE43DFDE43CFCE4FB7A01F9F812068D78031207D68F488E478D468C45E47FC07EFFFDFCAB4CAA4BA94AA849C31207C57007FF7E20FDFC800DAF4CAE21
:400E80004BAD4AAC4978031207D68F4C8E4B8D4A8C49AF4CAE4BAD4AAC49AB48AA47A946A845C31207C55039E42548FFE43547FEE5463408FDE43545A907AA06AB05121CB9
:400EC000F3EF254DF54DAF48AE47AD46AC45E47B01FAF9F81206728F488E478D468C4580B1E54DF404F54DAD447F01120A3DA804A905AA06AB07AF4DE4FCFDFEC31207C5CC
:400F000070032001037F06227F002290025EECF0A3EDF0A312087390025DEFF0E4900265F0EFD3943F500E90025DE0940140069002657401F090025DE0FFD3947F4006903A
:400F400002657401F0EFC39440400CEFD3944140069002657401F0EFD3943F501E90025EE0FEA3E0FFE4FCFDFB7A01F9F8C31207C5502F9002657401F08027D390025FE03C
:400F8000948090025EE0940040069002657401F0900263E07004A3E0641060069002657401F090026012086AE94A4B700590026504F0900265E0600302108A121EFEEF606E
:400FC0000302108490025EE0FCA3E0FDA312086A900263E0FFA3E090026CCFF0A3EFF090025DE0FF1211DE900265EFF06407600302107F904722E0540270087F01FE121EF6
:401000006480F0904722E054026009E0FF1313543FFF80027FFFEF7006900265F0800690026574FFF0900265E0705490025DE0FFA3E0FCA3E0FD900353E0FBA3E090026AD9
:40104000F0121A90900265EFF064077032904722E0540270087F01FE121E6480F0904722E054026009E0FF1313543FFF80027FFFEF7006900265F0800690026574FFF0124B
:40108000205180069002657404F0900265E0FF227B007A4679E8121CF3EF4401FD7B007A4679E8122045E4F52CE52CC3940A502CE52C75F005A42461F582E43424AF82F571
:4010C000218F22F58312087C8F82852183740393FC740493FD121F6E052C80CDE4F52CE52CC394015046E52C75F007A42413F582E43425AF82F5238F24F58312087C8B25E1
:401100008A2689278F82852383740393FE7404938E28F529740593F52A740693F52BAD29AC28FFAE2A121EB8052C80B37E207F92121DD97B017A507903121CF3EF4402FD3B
:401140007B017A5079031220457B017A507913121CF3EF4402FD7B017A5079131220459043A0E04440F09043C2E04410F07C207D827B007A5179127F087E00121EB87C2053
:401180007D8A7B007A5179227F087E00121EB89044F47401F0904322E04408F09046ECE0C394055006904689743AF090480074F1F012150690480074B1F0121F1D7B007A41
:4011C0004379A0C00179B0900005120873D0017F0E7E00121D749043B0E054FDF022900266EFF0A3ECF0A3EDF0A312087390026E7407F0904722E0540270030212EE904756
:401200002074B6F074D5F07402F0904722E0540260030212E6900266E0904720F0E490026FF0A3F090026CE0FEA3E0FF90026FE0FCA3E0FDC39FEC9E501F90026912086A8D
:40124000E92DF9EA3CFA1205AF904720F090026FE475F0011205DA80CB90026CE064017002A3E060030212F4900266E0FFD3943F40030212F47E007C207D001208D2E42F0A
:40128000FFE43EFEED3408FDE43CFCC004A905AA06AB07A3E0FEA3E0FF7C007D201208D2D00012067290027112085EE490026FF0A3F090026FE0FEA3E0FFC39420EE94005A
:4012C0005032E4FCFDA3120852120672A907AA06AB05121CF3904720EFF090026FE475F0011205DA80CC90026E7409F0800690026E7404F090026EE0FF228B448A4589469E
:401300008C478D48755505E4F54DF54EE54C75F00AA4FFC3E54E9FE54D95F0503B121B34EF6022121B347553008F54E47F19FEFDFC1218C7121B34D3EF9554E4955350E366
:40134000E4F5558013E47F01FEFDFC1218C7054EE54E7002054D80B4AB49AA4AA94BE4F5F0120653E4F54FF550121B34EFD394005003021412121B347551008F52AB49AA8D
:401380004AA94BE5518552F012061BAB49AA4AA94B1205F0C39548E5F09547505FE4F54DF54EC3E54E9552E54D95515025121C1CAB44E5462550F9E545354FFAEF1205C8C1
:4013C0000550E5507002054F054EE54E7002054D80D0AB44E55024FFFFE54F34FFFEE5462FF9E5453EFA1205AF64177003021369E47F05FEFDFC1218C7021369AB49AA4ABB
:40140000A94B1205F0C39552FFE5F095518FF0120653AF552275930078007583467582E8E04401F0009046ECE0F99046FAE0FA90034BF0B903225420B40012B8001AEA9014
:401440001FFFF07401901FFEF09046F6F0901FFEE06005901FFFE0FA90480074C0F0758156121EDE90000078007920E4F0A3D8FCD9FAEA90034BF002001175081F7509FD1F
:401480001210900214C1022079E493A3F8E493A34003F68001F208DFF48029E493A3F85407240CC8C333C4540F4420C8834004F456800146F6DFE4800B0102040810204063
:4014C00080901B83E47E019360BCA3FF543F30E509541FFEE493A360010ECF54C025E060A840B8E493A3FAE493A3F8E493A3C8C582C8CAC583CAF0A3C8C582C8CAC583CABE
:40150000DFE9DEE780BE7B007A4079807D337C001220279040827418F09043007402F09040007408F09042007403F07B0C7A017908121CF39046A1EFF07B007A4279227D68
:40154000087C001220277B007A4279207D517C12122027E4900004F07F19FEFDFC90000012085E900000120836D3EF9400EE9400403B900004E0FF64036032904225E05440
:4015800001FEEF25E04E5403900004F0E47FE07E01FDFC121D0090000012083674FFFBFAF9F812067290000012085E80B6900000120836EF4E70057F0312207F7B007A402A
:4015C00079047D007C011220279040047407F0904006E4F09040087448F0904004E4F09040017402F09043A2E04401F0228B458A46894774011205C8AB452547F9E43546AB
:40160000FAEF1205C8E549AB45E5472402F9E43546FAE5491205C8E548FFAB45E5472403F9E43546FAEF1205C8AB45AA46A947E5492404FDE43548FC121C668E4A8F4BEFCF
:40164000AB45E5492404FDE43548FCE5472DF9E5463CFAEF1205C8E54AFFAB45E5492405FDE43548FCE5472DF9E5463CFAEF1205C8AB45E5492406FFE43548FEE5472FF9FF
:40168000E5463EFA74171205C8E5492407FDE43548FC755100755200755348755496AB45AA46A947121BD122C0E0C083C082C085C084C086758600C093759300C0D075D09F
:4016C00000C001C002C003C006C007E4FBA2AF33FAD2AF9044F474FDF090646CE0FFFE541EF960069002FDE049F0EF30E54590644AE0FE9002F9E02478F582E43402F583E5
:40170000EEF07B01EB602C900276E060069002FC7401F09002F9E004F0E0C394404002E4F0900277E0FE9002F9E0B506069002767401F0EF20E5A2AF02EA24FF92AFD007BF
:40174000D006D003D002D001D0D0D093D086D084D085D082D083D0E032752106E4FF120D84EF7002F521E4F54BF54AF549F548900357E0FEA3E0F5828E831208428F4F8E82
:401780004E8D4D8C4CE4FFFE7D10FC12192C900355E0FCA3E0F5828C83E493FEC3EF9EFFF404FFB50612900357E0FEA3E0F5828E83120842EF4E70057F00121FB79046FAFB
:4017C000E054C064406004E52160099046FAE4F0FF12001A12205D22C0E0C083C082C085C084C086758600C093759300C0D075D000C006C007A2AFE433FFD2AF9044F4742E
:40180000FDF09002FAE0FE9002B8E06E602C90646EE020E2259002B8E0C394404002E4F09002B8E024B9F582E43402F583E090644DF09002B8E004F080C8EF24FF92AFD043
:4018400007D006D0D0D093D086D084D085D082D083D0E032A9079002FAE0FF9002B8E0FEEFC39E501AEE24FFFDE434FFFCEF7A00B50508EAB504047D0180027D00800CC346
:40188000EF9EB43F047D0180027D00ED70C8EEB5070D90646EE020E20690644DE9F022EFC394404002E4FF74B92FF582E43402F583E9F00F9002FAEFF090646EE030E10609
:4018C0009044D07402F02290FFFC1208AE12085E850883850982120836D3EF9400EE9480402E90034C120836121D00850883850982C083C082120836E42FFFEE3480FEEDC9
:4019000034FFFDEC34FFFCD082D08312085E80C090034212083685088385098212085212068D121D009000041208AE228F478E468D458C44E4F550D3E54F9400E54E940025
:40194000404BAF4FAE4EAD4DAC4C74FFFBFAF9F81206728F4F8E4E8D4D8C4CE547254BFFE546354AFEE5453549FDE5443548FCEF254FFFEE354EFEED354DFDEC354CA907BD
:40198000AA06AB051205AF2550F55080AAAF5022121FE190025E74FFF0121EFEEF703B7F01121E35EF6407702C7B017A0379537D021219E6EFB40215E490025EF090472228
:4019C000E0540270107F01FE121E6480F0904722E0540260D4122051800690025E7404F090025EE0FF2290025F120873900262EDF0E4A3F0900262E0FFA3E0C39F50379065
:401A00004722E054016003D38001C340097F017E00121E6480E9904720E0FF90025F12086A900263E029F9E43AFAEF1205C8900263E004F080BE900263E0FF2290025EEC49
:401A4000F0A3EDF090025DEFF0541F25E0FFE433FEE42FFFEE3444FAA9077B0112201A900260EEF0A3EFF090025DE075F002A42400FFE5F03444FAA9077B01A3E0FEA3E0EC
:401A8000FFFDAC06122029900260E0FEA3E0FF22900267ECF0A3EDF0AC077D07904722E05402603B90472074B6F074D8F07405F0904722E054027023904720ECF09002670F
:401AC000E0904720F0900267E0A3E0904720F0EBF090026AE0904720F080067D0980027D04AF0522121FE1121EFEEF703B121F3A90025EEFF06407702A904722E0540270A1
:401B0000087F01FE121E6480F0904722E054026009E0FF1313543FFF80027FFFEF700490025EF0122051800690025E7404F090025EE0FF229044C87401F09002F9E0FE905D
:401B40000277E0B5060E900276E060047F40802CE4FF80289002F9E0FE900277E0C39E500BE0FE9002F9E0C39EFF8010900277E0FEC374409EFE9002F9E02EFF9044C07420
:401B800001F022420355251A420357251B430350000000440347016E360044034200005DC04103461844034C2EE000004102FB004102B8004102FA004102FD00410277003B
:401BC0004102F900410276004102FC0041035B00008B4C8A4D894E8C4F8D50E4F555F556121E07C3E5569550E555954F501DAB4CE54E2556F9E54D3555FA1205AFFF121874
:401C0000540556E5567002055580D8AB51AA52A953E54F8550F01206537F00229044C87401F0900277E0FE9002F9E0FD900276E07004EE6D602474782EF582E43402F583EF
:401C4000E0FF0EEEC394404002E4FE900277EEF0900276E06009E4F0800590644AE0FF9044C07401F0228B4C8A4D894EE4F54FF550D3ED9400EC94004025AB4CED24FFFFD4
:401C8000EC34FFFEE54E2FF9E54D3EFA1205AF2550F550E4354FF54FED1D70011C80D2E550F4FFE54FF4FEEF2401FFE43EFE227C167DA8E4FF121A3C7D07E4FF121F55E4B7
:401CC0009002FDF090648A7469F090648C7420F07C177DD87F01121A3C7D077F01121F5590642E7406F090643E7447F090648E7402F0228B938A838982E0759300FF22000A
:401D0000EC4D4E700D78FCEF24E950032840FD2200007BF178DA0000EF28FF78FFEE38FEED38FDEC38FC50E7EF2BFFEE38FEED38FDEC38FC40F22205020304121FCC9002FD
:401D40005DEFF090649AE04420F090649CE04410F09044C07401F090649EE04410F09044D87402F09044C0F012203690025DE0FF121F9F22758600EF4E6027EF60010E75B2
:401D80009300900005E0F595A3E0F585A3E0F5848B938A838982E0A30586F0A31586DFF6DEF4E4F593F59522121FCC9043A0E04408F09043B0E04408F090470174C8F090A8
:401DC00043ACE04410F09043BCE04410F0904700E0542060F8121F9F22ACEAADA08E838F82E493F9601CA3E493F5EAA3E493F5A0A3E49360F1FAA3E493F8A3E493F2DAF6BC
:401E0000D9E48DA08CEA22121FCC90649AE04401F0E054FEF0121F9F9044C87401F0E4900277F09002F9F0900276F09002FCF09044C004F0227E07904722E05402601F9052
:401E4000472074B6F074E1F0740EF0904722E054027007904720EFF080067E0980027E04AF062200EEFA900346E0F88FF0A4FFAEF0E88AF0A42EFEE5F03400FDEF24C9FF5A
:401E800078FFEE38FEED38FDE438FC5003021D0022121FCC90649DE04401F0E054FEF0121F9F9044C87402F0E49002B8F09002FAF09044C07402F022758600EF4E601BEFCA
:401EC00060010E8C838D828B958A858984E493A30586F0A31586DFF5DEF3E4F595229046FAE054C064807015F0FD7F02120A3DEF4E600AE4FD7F02120A3D122009229002CC
:401F0000667404F0121FCC90035BE0700704F0E4900266F0121F9F900266E0FF227B0C7A0179CF121CF3EF540790586EF0EFC4540FA3F09058767444F0227F07904722E0DD
:401F40005402600E90472074B6F074E0F0740DF080027F0422AC07ED540775F020A4FFEC541F2480F582E43444F583EFF022EC4D6011ED60010C8B938A838982E4F0A3DDB0
:401F8000FCDCFA75930022121AE490025DEFF0700812199090025DEFF090025DE0FF22EF54016004D2AF8002C2AFEF5402FF9044F4E054FD4FF02290FFFF1208AEEFF090D7
:401FC00046EA7401F09000011208AE229044F4E0F84402F0E85402FF10AF012274014FFF22121FCC9043A0E04408F09043B0E04408F0121F9F229002FBE07009121CAF9087
:4020000002FB7401F0121D3B2290034BE0FA8E838F827400758101738B938A838982E0FFA3E0FE759300228B938A838982EDF0A3ECF0759300229043A2E04401F09043B26F
:40204000E04401F0228B938A838982EDF075930022121FCCE490035BF0121F9F229046FA7480F012207122121FF6121E07121E91229046F6E04401F02212175980FE2280DC
:40208000FE22007F7B007B00000030D8C800D800000016005205082309121098118814200064047E3F8A698C3A8E0F010101E204010301E6020105028702E008010604B82E
:4020C00002BE01D804DF010107021B02A702010A088501890195019901B101BF01D904DF01010B4F00400106038808010A040B111028130219641A041B0A202021082230E9
:40210000274028282A022B022E033080310232103304340836203708382239803A083C283E084028410843824A024B0152045B4068286A016B027090712072108D408E104D
:402140008F809042910493109621980199029B0C9D649E049F80A004A102A202A490A520A702AB01B021B405B602B744C00FC20FC40ECA0FCC6FCE6FD00FD208D608E0083A
:40218000E801010C4C0001021608E70A180E3F101E120114C6163918481C88208824DD262228232ADC2CC8301F320834E03A22541A560458045B045F018008824284F88698
:4021C000018704880F89028AF08D068EC792849308943996C698109C20A020A101A43FA6C0A906AA08AC30B031B106B308B501B6FFB702B982BE40BF11C062C101C5E0C6DA
:40220000CBC80EC9FFCAFFCBFFCEF0CF44D00CD804D904DA04DF01E6C0EA40EB02010D46002901100210030B04010709080209260A310D220E11108012481388151016502C
:402240001780180219021C081D021E201F20200421012208230128402920320238C839A43A083B10414042084921502053405E205F026540674887409088912093089502C2
:40228000978098409B4A9C029D259E049F04A420A504A72AB001B301C0DFC2FFC4FFCA05CC01CE0ED00CD204D6A0D8B0010E4E040906D007230B080C0C0D210E710F0E1048
:4022C00014141016AC170C18DC1A221B201E0321102410264029212A202B062D0C2F2330E03310350F361F37203A023B203F444004464049FF4A074BFF4C404D204EF04F8A
:4023000005500854015604580459045A045B045F01604061A862406320871F89198B0691019304950997029A01A506A719A919AA01AB06AF0FB201B310B507B708B908BB65
:4023400020BE04D804D904DB04DF01010F3C004404040504084809200A010B800E0810081210160418C01A011F042130224425102604270A280829212A802F2A303031047A
:402380003402370438883A103D284101500C5210581059015A886380680169046A206B406F0171407304821083408550868089048B04C005C24FC446CA7DCCC6CE6ED00101
:4023C000D60FD801E40C014005322035808180CC30E2200141038620A620E6400144058301870188C0E004E40401450F0C0857025B046401660193029889A040A301B009C2
:40240000C204D607D801E801EC0401460D8702900893029888A040A301A702AB04B40CB601E808EC02EE08014705900893029888A040A301014C0E5004544057015808607D
:40244000806702900893029888A040A301D406D607D80201500300010C010E01015101000F005100001000513000400051C000100051F000100100000A00010A800580018E
:40248000140008000140000A00014C000200015000002000008080207D050000040800130C0400030204200A031410130C0C7300088000400800004043003C404F003000DE
:4024C0000000734000303F0FC0800008002028000040003402010005C0000E12FFFFFF62A0F0410C00000000000210040404040000000100000000000040020010301000CE
:4025000010101200000000000000000000000000000000010A002493008061000026006930091E031E010100000000000000000000000000000000000000000000000000BD
:40254000000000000000000000000000000000000000000000000000000000000000000000000000000000000000000000000000000000000000000000000000000000005B
:40258000000000000000000000000000000000000000000000000000000000000000000000000000000000000000000000000000000000000000000000000000000000001B
:4025C00000000000000000000000000000000000000000000000000000000000000000000000000000000000000000000000000000000000000000000000000000000000DB
:40260000023FE6008F828E83E0540100000070F82278FFE4F6D8FD0240740227F7E86480F8E933E83360110460F0ED33EC337009E8FCE9FDEAFEEBFF220460DED3EB9FEAD7
:402640009EE99DE8C2E78CF0C2F795F0400CE8CCF8E9CDF9EACEFAEBCFFB1227C285D0F05804700320D5B3E80470075002B2D502280192D5EC0460F7E4CCC0E0C398F8600E
:402680003B94186008400DD0E0FB0227D9E4FBFAC9FC8028E830E406E4C9FBE4CAFCE830E305E4C9CACBFCE854076010F8C3E913F9EA13FAEB13FBEC13FCD8F130F52FC3CB
:4026C000E49CFCEF9BFFEE9AFEED99FDD0E0FBEF4E4D4C701222DB030227FEEC2CFCEF33FFEE33FEED33FDED30E7EB0227D9EF2BFFEE3AFEED39FDD0E0FB50130BBB000307
:40270000022801ED13FDEE13FEEF13FFEC13FC0227D974F8CC6480CCC86480C8F58204604FC3EB9FF5F0EA9E42F0E99D42F0E89C45F0603C501DE5825FFFE582D313CB5B50
:40274000CBF42B5582FB50280ABA002409B9002008801DE5825BFBE582D313CF5FCFF4C3132F5582FF50090EBE00050DBD00010CC3EB9FF5F0EA9E42F0E99D42F0E89C4572
:40278000F06007CC4820E701B3EC22EDD2E7CD33EC3392D524814006E4FFFEFDFC22FCE4CFCECDCC24E0501174FF80EDC3CC13CCCD13CDCE13CECF13CF0470F030D5DE02B3
:4027C0002CD9E9D2E7C933E833F892D5EDD2E7CD33EC33FC5002B2D522EC30E7100FBF000C0EBE00080DBD00040BEB6014A2D5EB13FCED92E7FD2274FFFCFDFEFF22E48022
:40280000F8A2D574FF13FC7D80E480EFF920E73624F950037907E4F42402FBE582158270021583DBF6E024FB501BE96014E4F0E582158270021583E004F0B40A08E4F0D975
:40284000EE7401F00A22C2D522ED33EC3392D5FA602AB4FF33EDC2E77BFF60067A28796EE4227A28797720D5047A287972224E614E002B494E46002D494E4600E47A08F06C
:40288000A3DAFC7B00740722C083C082ECC0E0EDC0E0EEC0E0EFC0E0EA75F010A4CAABF075F04DA42BFBE435F0FCEA2410FAEB34C5FBEC34D9FCEDC2E7FF75F056A4F424EB
:4028C00011C5F0F434C58FF0A42AE5F03BE43CF020E714122B24D0E0FFD0E0FED0E0FDD0E0FC122A578014F404122B24D0E0FFD0E0FED0E0FDD0E0FC12294ED082D083E042
:40290000FAEDD2E7CD33EC332482FBE4C3CF33CFCE33CECD33CD33DBF37B0775F00A846004F0A31B0AE5F0F0A38FF0740AA4FFACF08EF0740AA42CFEACF050010C8DF07439
:402940000AA42CFDE435F0F0A3DBDE740722EC4D6011E8497017ED33EC3304600DE4FCFFFEFD22E933E8330470F80227F71227C258046009E4CC24815006285009022801A6
:402980002840030227FEC0E0EB4A7044B98006D0E0FB0227EDEF4E701CBD8008EBFFEAFEE9FD80EBE98DF0A4FEE5F0022A37E9CDF9EAFEEBFFEF89F0A4FCE5F0CE89F0A442
:4029C0002EFFE435F0CD89F0A42DFEE435F08067EF4E7005BD80D780C3EF8BF0A4ACF0EE8BF0A42CFCE435F0F8EF8AF0A42CE5F038FCE433CB8DF0A42CFCE5F03BF8EE8AC6
:402A0000F0A42CFCE5F038F8E433CF89F0A42CFCE5F038CF3400CE89F0A42FFFE5F03EFEE433C98DF0A42EFEE5F039CD8AF0A42FFFE5F03EFEE43DFD33D0E0FB50070BBBF2
:402A4000000F022801EC2CFCEF33FFEE33FEED33FD0227D9022801EC5D046005E8590470030227F71227C2580460F6EC4860F2EC7004FDFEFF22C860DB2481C85009C39821
:402A8000600250060227FE9850CAF582E9294B4A7005AB820227ED75F0007C1A7880C3EF9BEE9AED99400DC3EF9BFFEE9AFEED99FDE842F0DC23ACF0D0E0FFD0E0FED0E0FD
:402AC000FDAB8220E7101BEB60BAEC2CFCEF33FFEE33FEED33FD0227D9E803F830E705C0F075F000EF2FFFEE33FEED33FD40B830E7C280AA3F8000004120000042C8000070
:402B0000447A0000461C400047C35000497424004B1896804CBEBC205A0E1BCA6753C21C749DC5AEFB60065407601C2323122B52EB54386009122B3E122B4D12294EECF8D3
:402B4000EDF9EEFAEFCB22EB122B4D80F1543803241C902AF4FE93FC0EEE93FD0EEE930ECE93FF22BB010689828A83E0225002E722BBFE02E32289828A83E49322BB010CA0
:402B8000E58229F582E5833AF583E0225006E92582F8E622BBFE06E92582F8E222E58229F582E5833AF583E49322BB010689828A83F0225002F722BBFE01F322E88FF0A4D6
:402BC000CC8BF0A42CFCE98EF0A42CFC8AF0EDA42CFCEA8EF0A4CDA8F08BF0A42DCC3825F0FDE98FF0A42CCD35F0FCEB8EF0A4FEA9F0EB8FF0A4CFC5F02ECD39FEE43CFCDF
:402C0000EAA42DCE35F0FDE43CFC2275F008758200EF2FFFEE33FECD33CDCC33CCC58233C5829BED9AEC99E58298400CF582EE9BFEED9AFDEC99FC0FD5F0D6E4CEFBE4CDB5
:402C4000FAE4CCF9A88222B800C1B90059BA002DEC8BF084CFCECDFCE5F0CBF97818EF2FFFEE33FEED33FDEC33FCEB33FB10D703994004EB99FB0FD8E5E4F9FA227818EF62
:402C80002FFFEE33FEED33FDEC33FCC933C910D7059BE99A4007EC9BFCE99AF90FD8E0E4C9FAE4CCFB2275F010EF2FFFEE33FEED33FDCC33CCC833C810D7079BEC9AE89953
:402CC000400AED9BFDEC9AFCE899F80FD5F0DAE4CDFBE4CCFAE4C8F922C3E49FFFE49EFEE49DFDE49CFC22EB9FF5F0EA9E42F0E99D42F0EC6480C864809845F022EB9FF593
:402D0000F0EA9E42F0E99D42F0E89C45F022E8600FECC313FCED13FDEE13FEEF13FFD8F122E86010ECA2E713FCED13FDEE13FEEF13FFD8F022E8600FEFC333FFEE33FEED4F
:402D400033FDEC33FCD8F122BB010789828A830230205005E9F8023014BBFE05E9F802302C89828A83023038BB010789828A83022D825005E9F8023048BBFE05E9F80230E8
:402D80005422ECF0A3EDF0A3EEF0A3EFF022A42582F582E5F03583F58322F8E0FBA3A3E0F925F0F0E582158270021583E0FA38F022EBF0A3EAF0A3E9F022D083D082F8E499
:402DC000937012740193700DA3A393F8740193F5828883E4737402936860EFA3A3A380DFE5172582F582E5163583F583B516048582172210AF06858217F51622858217F508
:402E000016D2AF22EC8EF0A4CCC5F0CCCDF8EFA4CEC5F02DFDE43CFCE8A42EC8C5F03DFDE43CFCEFA4FFE5F028FEE43DFDE43CFC22E709F608DFFA8046E709F208DFFA8017
:402E40003E88828C83E709F0A3DFFA8032E309F608DFFA806EE309F208DFFA806688828C83E309F0A3DFFA805A89828A83E0A3F608DFFA804E89828A83E0A3F208DFFA801E
:402E80004280D280FA80C680D4805580F28029801080A680EA809A80A880DA80E280CA802988848C8589828A83E493A30586F0A30586DFF5DEF3800B89828A83E493A3F619
:402EC00008DFF9ECFAA9F0EDFB2288848C8589828A83E0A30586F0A30586DFF6DEF480E389828A83E493A3F208DFF980D688F0EF60010E4E60CD88F0ED2402B4040050C3FD
:402F0000F582EB2402B4040050B92323458223902E8173E709F60870FA8046E709F20870FA803E88828C83E709F0A370FA8074E309F60870FA806CE309F20870FA80648840
:402F4000828C83E309F0A370FA805889828A83E0A3F60870FA804C89828A83E0A3F20870FA804080D280FA80C680D4805180F28027801080A680EA809A80A880DA80E28083
:402F8000CA802788848C8589828A83E493A30586F0A3058670F5800B89828A83E493A3F60870F9ECFAA9F0EDFB2288848C8589828A83E0A30586F0A3058670F680E589825F
:402FC0008A83E493A3F20870F980D888F0ED2402B4040050CEF582EB2402B4040050C42323458223902F6373C5F0F8A3E028F0C5F0F8E582158270021583E038F022A3F8B3
:40300000E0C5F025F0F0E582158270021583E0C838F0E822E6FC08E6FD08E6FE08E6FF22E0FCA3E0FDA3E0FEA3E0FF22E2FC08E2FD08E2FE08E2FF22E493FC740193FD7427
:403040000293FE740393FF22ECF608EDF608EEF608EFF622ECF208EDF208EEF208EFF222E50B2499F582E43406F583E0050B22900696300803900699E475F001122D9A028B
:403080002B642001E97F2ED2018018EF540F2490D43440D4FF30050BEF24BFB41A0050032461FFE50C6002150C050FE50F7002050E30080E900696E475F001122D9AEF0200
:4030C0002BAA0254767403D2088003E4C208F50B900696122DB1E4F50CF50EF50FE50C60077F201230A380F5750DFFC202C201C203C204C206C207C20912306FFF700D3008
:4031000008057F001230B4AF0FAE0E22B4255FC2D5C20512306FFF24D0B40A00501A75F00A780C30D50508B6FF0106C6A426F620D5047002D20480D924CFB41A00EF50042A
:40314000C2E5D2050233A6D20280C6D20180C0D20380BCD2D580BAD20680B47F201230A32003077401B50C0040F1123060FF1230A30230DDD209D2078095123060FB123079
:4031800060FA123060F94A4B700679A47A347BFF20032EE50C602A7E008E82758300122B7D60060EEE650D70F0C2D5EBC0E0EAC0E0E9C0E0EE123407D0E0F9D0E0FAD0E017
:4031C000FB122B64FF60AAEBC0E0EAC0E0E9C0E01230A3D0E02401F9D0E03400FAD0E0FBE50D0460DCD50DD98087D20380A21233E960F7E50D70010412280CA90D600DE52B
:403200000D600914F50D123491EF60F3EA30E702F404C3995079EAF4250D0430E701E404F50D800D1233E960C1EA050D250D12280CEA9006C5F030E701E4250D04D50D0416
:4032400020060114123407E4C0E01234919006C5E0601320E70714F012308B802204F0D0E014C0E07F0012308BE50D6007123082150D800B300603123082D0E00230DDD042
:40328000E00480C41233E9609EE50D0412280C9006C5EAF0E50D200602600104240412340774FF04C0E012349112308BE50D2006026003123082D0E0B50DE87F4512309564
:4032C0009006C5E07F2B30E7047F2DF404C0E01230A3D0E075F00A84C0F012308CD0E012308C0230DD791080027908C207C2098008D2D5790A8004790AC2D5E50D0470021F
:40330000F50DE4FAFDFEFF123060FC7B08200213123060FD7B1030010A123060FE123060FF7B20EC3382D592D55013C3E43001069FFFE49EFEE42002039DFDE49CFCE4CB12
:40334000F8C202EC700CCFCECDCCE824F8F870F38017C3EF33FFEE33FEED33FDEC33FCEB33FB994002FB0FD8E9EB300205F8D0E0C448B202C0E00AEC4D4E4F78207B007076
:40338000C2EAB50D0040BCC0E0123409D0F0D0E0200204C4C0E0C4B202C0F012308CD0F0D5F0EB0230DD122DBA317A5332E558314B4C31474232E94F32F14432F14931608F
:4033C0004332F75532244632844531EE4734C450314F2D31532E31762B31572331742034AD2A310F480000316EE50DB4FF03750D06123060FC123060FD123060FE12306045
:40340000FF9006BE022849790AA2D5200414300609B910020404B9080104A2D52007025001042003689203B50C005034C0E07F203004197F30A20372077206500F1234608C
:40344000C203C207C206C2097F30800F300603E9C0E01230A3300603D0E0F9D0E0B50CCC3006177F30B9100C1230A37F583005077F788003B908031230A33003057F2D0255
:4034800030A37F202009F87F2B2007F322920380CF7F00B40700500B24BEF582E43406F583E0FF22286E756C6C2900D2021230603002F8C202780C30D50108F602310F2DC3
:4034C000504349581230602403B405004001E49034BF93123094743A123094D204750C040232E590062DEBF0A3EAF0A3E9F090044FE064FA700302380D90062DE0FBA3E07A
:40350000FAA3E0F8AC02AD037BFF7A47797C122FCB90069974FFF0A37447F0A3747DF090062DE0FBA3E0FAA3E0F9124CAB90069974FFF0A37447F0A37480F090062DE0FB73
:40354000A3E0FAA3E0F9124CAB90069974FFF0A37447F0A37493F090062DE0FBA3E0FAA3E0F9124CAB90069974FFF0A37447F0A374A1F090062DE0FBA3E0FAA3E0F9124CB2
:40358000AB90069974FFF0A37447F0A374A6F090062DE0FBA3E0FAA3E0F9124CAB90069974FFF0A37447F0A374B4F090044FE0FF90069CE4F0A3EFF07B017A067932123065
:4035C000C59006997401F0A37406F0A37432F090062DE0FBA3E0FAA3E0F9124CABE4FFFE12506AE4FFFE1254E690069974FFF0A37447F0A374BDF090062DE0FBA3E0FAA350
:40360000E0F9124CAB90069974FFF0A37447F0A374C3F09005BEE0FF90069CE4F0A3EFF09005BFE0FF90069EE4F0A3EFF07B017A0679321230C59006997401F0A37406F038
:40364000A37432F090062DE0FBA3E0FAA3E0F9124CAB90069974FFF0A37447F0A374E0F09005C0E0FF90069CE4F0A3EFF09005C1E0FF90069EE4F0A3EFF07B017A06793288
:403680001230C59006997401F0A37406F0A37432F090062DE0FBA3E0FAA3E0F9124CAB90069974FFF0A37447F0A374FDF09005C2E0FF90069CE4F0A3EFF09005C3E0FF9020
:4036C000069EE4F0A3EFF07B017A0679321230C59006997401F0A37406F0A37432F090062DE0FBA3E0FAA3E0F9124CAB90069974FFF0A37448F0A3741AF090062DE0FBA365
:40370000E0FAA3E0F9124CAB90069974FFF0A37448F0A3742AF090045CE0FF90069CE4F0A3EFF07B017A0679321230C59006997401F0A37406F0A37432F090062DE0FBA3F8
:40374000E0FAA3E0F9124CABE4900630F0A3F090045CE0FFC3900631E09F7480F8900630E0648098506F90069974FFF0A37448F0A37437F0900630E0FEA3E0FF90069CEEB3
:40378000F0A3EFF0900452E0FBA3E0FAA3E02FF9EA3EFA122B64FF90069EE4F0A3EFF07B017A0679321230C59006997401F0A37406F0A37432F090062DE0FBA3E0FAA3E03C
:4037C000F9124CAB900631E004F07006900630E004F002374F90069974FFF0A37447F0A3747DF090062DE0FBA3E0FAA3E0F9124CAB90069974FFF0A37447F0A3747DF0909C
:40380000062DE0FBA3E0FAA3E0F9124CAB22E490062EF090062DF090062DE0FFC3941150227E0012506AE47F0AFEFDFC124BB01243ECE47F0AFEFDFC124BB090062DE0047B
:40384000F080D4E4FFFE12506AE47F0AFEFDFC124BB07F751256B890062FE4F0A3EFF0E490062FF0A3F090045CF090062DF090062DE0FFC39411505F7E0012506AE47F0A88
:40388000FEFDFC124BB07F751256B87E0090062FEEF0A3EFF06471702390045CE004F0E490062FF0A3F090062DE025E02431F582E43406F583E4F0A304F0801390062DE04A
:4038C00025E02431F582E43406F583E4F0A3F090062DE004F0809790045CE0FF7E001246ABAA06A9079004527401F0A3EAF0A3E9F090045CE075F025A4FFAEF01246ABAA10
:4039000006A9079004597401F0A3EAF0A3E9F0E490062DF090045CE0FF90062DE0FEC39F501B900452E0FBA3E0FAA3E02EF9E43AFAE4122BAA90062DE004F080D7E490067F
:403940002DF090062DE0FFC394115041EF25E02431F582E43406F583E0FEA3E064014E702490062DE0900452E0FBA3E0FAA3E0F990062EE0FEE92EF9E43AFAEF122BAA9004
:40398000062EE004F090062DE004F080B5E490062DF090045CE0FF90062DE0C39F503C900452E0FBA3E0FAA3E0F990062DE0FFE92FF9E43AFA122B64FF7E0012506AE47F6A
:4039C0000AFEFDFC124BB01243ECE47F0AFEFDFC124BB090062DE004F080B7227B007A4079807D027C001258919040827418F07B007A4079847DFF7C0F1258919040867427
:403A00001BF07B007A4079887D0B7C0012589190408A7419F07B007A40798C7D2F7C0012589190408E7418F07B007A4079907DC97C02125891904092741BF090430074060D
:403A4000F09042007452F07B0C7A01790F12591D9046A1EFF07B007A4279227D107C071258917B007A4279207D517C12125891E490062CF07F19FEFDFC900628122D82902E
:403A80000628E0A3E0A3E0FEA3E0D39400EE9400404AA3E0FF64036043904225E05401FEEF25E04E540390062CF0E47FE07E01FDFC125200900628E0FCA3E0FDA3E0FEA3A0
:403AC000E0FF74FFEF24FFFFEE34FFFEED34FFFDEC34FFFC900628122D8280A3900628E0A3E0A3E0FEA3E04E70057F03125A447B007A4079047D007C011258919040047461
:403B000007F0904006E4F09040087448F0904004E4F0904009F09040017402F09043A2E0441FF022900531E0F50A7B017A0579319005B1E0A3E014FD1252D69005B1E0FC8E
:403B4000A3E02430F58274053CF583E0B50703D38001C34006E49005B5F022E50A122DBA3BF1003BD9013BE5023BF5033BF9043C0F053BCD063C33093C210A3BA9803BC13B
:403B8000813BAD823BC9833BB1843BB5853BB9883BBD8A3BC58B3C558C3C598D3C5D8E3C618F3C659000003C68125A4922125A4822125A4722125A4B22125A4D2212513EE7
:403BC00022125A4A2212554C22125A4C22900532E0FEA3E0FF12563D22900532E0FEA3E0FF12574F22900532E0FEA3E0FF12501F2212577722125710227F087E00124A7BEA
:403C0000EF60067F011256FB22E4FF1256FB221250B3EF60067F011256FB22E4FF1256FB221254C2EF60067F011256FB22E4FF1256FB227F011256FBE47FE87E03FDFC1247
:403C40004BB0E4FF1259ECE47FE87E03FDFC124BB01259552212544D22125A4E22125A4F22125A50221244DD2290062DEEF0A3EFF0A3EDF0125991900631EFF012594B900F
:403C80000632EEF0A3EFF090062DE0FCA3E0FD6F7002EC6E7003023D989043A2E05401900630F0A3E0703BA3E0FEA3E0FF4E6004ED4C702EEF4E70117B027A407980125856
:403CC00093904082E054BFF022904082E04440F07B027A40798090062DE0FCA3E0FD12589322900630E06053904001E4F090401004F0904014E4F0904008E0547FF09040F1
:403D000082E05408600A90062DE07002A3E0702B7B027A407902900632E0FCA3E0FD1258939040017407F0904001E0540170F89043A2E054FEF0904001E4F09043A2E054C6
:403D400001602F7B027A40790290062DE0FCA3E0FD12589390062FE060047F0280027F00EF4401904001F0904001E05401602980F6227B027A40798090062DE0FCA3E0FDEF
:403D80001258939043A2C083C082E0FF900630E0FEEF4ED082D083F022E4F509124F83EF7003023EBFE509C394064003023EBF124DDA8F08E5101460491460601470030202
:403DC0003E4F147003023E9D240470D0851413851514850815E514B43A11E515B43A0CE4F513F514F51575100180B1E513B43FACE514B40DA7E515640A70A1FFFE12563DB9
:403E0000809A90044FE065086004E5087004C2008002D200E4F5127510028080850812E512D394015008E4F512F510023D9CE512D394804008E4F512F510023D9CE4F511EF
:403E4000200006751003023D9C751004023D9C74C62511F582E43406F583E508F00511E511C395125003023D9C200025AF127E0078317C057D017B017A0679C6122EED9033
:403E800005B1E4F0A3E512F09005B57401F0123B24E4F511F512F5100509023D9C1512E5126003023D9CF511F5127F011259E6E4FF1259E6E4F5100509023D9C023D9C22B2
:403EC0007B007A4679E812591DEF4401FD7B007A4679E812592912490A7B017A50790312591DEF4402FD7B017A5079031259297B017A50791312591DEF4402FD7B017A5034
:403F000079131259299043A0E04440F09043C2E04410F07B087A1D79E890062DE4F0A37451F0A37402F07F087E0012526F7B087A1D79F090062DE4F0A37451F0A374C2F05B
:403F40007F087E0012526F7B087A1D79F890062DE4F0A37451F0A374F2F07F087E0012526F7B087A1E790090062DE4F0A37451F0A37410F07F0A7E0012526F7B087A1E7916
:403F80000C90062DE4F0A37451F0A37422F07F087E0012526F9044F47401F0904322E04408F09046ECE0C394055006904689743AF090480074F1F01239DC1255E97B007ADD
:403FC0004379A0C003C00290062DEBF0A3EAF0A374B0F0D002D0037F0E7E0012526F9043B0E054FDF02275930078007583467582E8E04401F00090480074C0F07581219070
:4040000076BCE4F0A3F0A3F0A3F0907010F0907019F0907020F09076007410F0907604E4F0A3F0A3F0A3F09078007800087400F0A37408F0E8B8040274FFA3F0A37422F0C7
:40404000A374BCF0A37476F0A3E4F0A3E81475F008A4F0A3B804D59070107401F0907014F07E707F18122604907010F0EA9007DCF002261175161F7517FD123EC00240BBB5
:40408000024844E493A3F8E493A34003F68001F208DFF48029E493A3F85407240CC8C333C4540F4420C8834004F456800146F6DFE4800B0102040810204080904D16E47EF8
:4040C000019360BCA3FF543F30E509541FFEE493A360010ECF54C025E060A840B8E493A3FAE493A3F8E493A3C8C582C8CAC583CAF0A3C8C582C8CAC583CADFE9DEE780BED7
:40410000E4900698F0A3F0A3EEF0A3EFF07F3C1256B8900698EFF07F3B1256B8900699EFF0A3E0FCA3E0FD9005BE75F006122D8EEC75F006A42583F583EFF0900698E0FF86
:404140009005BF75F006ED122D8EEC75F006A42583F583EFF0E4900698F0A3F07F3E1256B8900698EFF07F3D1256B8900699EFF0A3E0FCA3E0FD9005C075F006122D8EECEB
:4041800075F006A42583F583EFF0900698E0FF9005C175F006ED122D8EEC75F006A42583F583EFF0E4900698F0A3F07F401256B8900698EFF07F3F1256B8900699EFF0A35F
:4041C000E0FCA3E0FD9005C275F006122D8EEC75F006A42583F583EFF0900698E0FF9005C375F006ED122D8EEC75F006A42583F583EFF0E4900698F0A3F022E4900698F09D
:40420000A3F0A3EEF0A3EFF07F441256B8900698EFF07F431256B8900699EFF0A3E0FCA3E0FD9004C375F006122D8EEC75F006A42583F583EFF0900698E0FF9004C475F0B6
:4042400006ED122D8EEC75F006A42583F583EFF0E4900698F0A3F07F461256B8900698EFF07F451256B8900699EFF0A3E0FCA3E0FD9004C575F006122D8EEC75F006A4255B
:4042800083F583EFF0900698E0FF9004C675F006ED122D8EEC75F006A42583F583EFF0E4900698F0A3F07F481256B8900698EFF07F471256B8900699EFF0A3E0FCA3E0FD22
:4042C0009004C775F006122D8EEC75F006A42583F583EFF0900698E0FF9004C875F006ED122D8EEC75F006A42583F583EFF0E4900698F0A3F02290069AEEF0A3EFF07F499A
:404300001256B8900698EFF07F4A1256B8900699EFF0A3E0FCA3E0FD90045D75F006122D8EEC75F006A42583F583EFF0900698E0FF90045E75F006ED122D8EEC75F006A418
:404340002583F583EFF0E4900698F0A3F07F4B1256B8900698EFF07F4C1256B8900699EFF0A3E0FCA3E0FD90045F75F006122D8EEC75F006A42583F583EFF0900698E0FF88
:4043800090046075F006ED122D8EEC75F006A42583F583EFF0E4900698F0A3F07F4D1256B8900698EFF07F4E1256B8900699EFF0A3E0FCA3E0FD90046175F006122D8EEC49
:4043C00075F006A42583F583EFF0900698E0FF90046275F006ED122D8EEC75F006A42583F583EFF0E4900698F0A3F0227D107F6B125339E47F1EFEFDFC124BB07D207F6AB6
:40440000125339E47F1EFEFDFC124BB07D067F1A125339E47F1EFEFDFC124BB07D187F1B125339E47F1EFEFDFC124BB07D087F1C125339E47F1EFEFDFC124BB07D057F1D67
:40444000125339E47F1EFEFDFC124BB07D0D7F24125339E47F1EFEFDFC124BB07D0C7F25125339E47F1EFEFDFC124BB07D0A7F26125339E47F1EFEFDFC124BB07D167F63B5
:40448000125339E47F1EFEFDFC124BB07D817F27125339E47F1EFEFDFC124BB07D8C7F25125339E47F1EFEFDFC124BB07D037F26125339E47F1EFEFDFC124BB07D8D7F274A
:4044C000125339E47F1EFEFDFC124BB0E4FD7F6B125339E47F32FEFDFC124BB02290045CE025E02402FF90062DF07E001246ABAA06A9077B0190062EEBF0A3EAF0A3E9F0D3
:404500007490122BAAE4FF90045CE0FEEFC39E507F900452E0FBA3E0FAA3E02FF9E43AFA122B64FE90062EE0FBA3E0FAA3E0F975F002EFA42401F582E435F0F583E92582E1
:40454000F9EA3583FAEE122BAA900459E0FBA3E0FAA3E0F975F025EFA4F582E92582F9EA35F0FA122B64FE90062EE0FBA3E0FAA3E0F975F002EFA42402F582E435F0F5839B
:40458000E92582F9EA3583FAEE122BAA0F02450790062EE0FBA3E0FAA3E0F97D051252D690062DE0FD24FFFFE434FFFEA3E0FBA3E0FAA3E02FF9EA3EFAEC122BAA90062E1A
:4045C000E0FBA3E0FAA3E0F9124B2822900635EBF0A3EAF0A3E9F0A3EDF012573A900638E0C39480400302469F1255CAEF600302469790063974FFF0900635E0FBA3E0FA18
:40460000A3E0F990063EE4F0A37410F07F40124C38EF6407707C904722E0540260F8904722E054026009E0FF1313543FFF80027FFFEF7004900639F0900639E0704E9006C9
:4046400038E0FD7C009007ECE0FBA3E090063EF07F40124EDFEF6407702A90063974FFF0904722E0540260F8904722E054026009E0FF1313543FFF80027FFFEF7014900621
:4046800039F0800E90063974FFF0800690063974FFF0125935800E9006397404F080069006397401F0900639E0FF22900653EEF0A3EFF0A37407F0A374E1F0900655E0FE62
:4046C000A3E0F5828E83E0FEA3E0FF4E7003FEFF228F828E83A3A3E0FCA3E0FD900653E0FAA3E0FBC3ED9BEC9A500A900655EEF0A3EFF080C68F828E83A3A3E0FCA3E0C324
:404700009BFDEC9AFC900657F0A3EDF0C39410EC940050178F828E83E0FCA3E0FD900655E0FAA3E0F5828A83EC8045900658E024FCF0900657E034FFF0E0FDA3E08F828EEC
:4047400083A3A3CDF0A3EDF0EF2404FFE43EFE900658E02FFF900657E03EFE900655F0A3EFF0900653E0FDA3E08F828E83A3A3CDF0A3EDF0EF2404FFE43EFE22000D0A003E
:404780004669726D776172652076657273696F6E3A2000494D55626F6172642076302E31000D0A0D0A0044455649434520494E464F0D0A0049443A2025640D0A0041434395
:4047C0000D0A0058202D2061636320483A202564202020616363204C3A202564200D0A0059202D2061636320483A202564202020616363204C3A202564200D0A005A202D72
:404800002061636320483A202564202020616363204C3A202564200D0A00494D5520436F6E6E65637465640D0A006E756D65726F3A2025640D0A00496D752025643A202541
:40484000640D0A00125A3A124FD2E47F64FEFDFC124BB07F011259EC12552A12578A1252A312536912580F7E5A7F4112558C1257C37E5A7F3E1255ABE4FF1259E61257B0C5
:4048800012579DD2AF9044F474FDF01257D612566F12549D12586412582112556CE47F0AFEFDFC124BB07F011258451257E91259CC12380EE4900627F0C20DC20A9005B110
:4048C000F0A3F09005B5F0E4FF1259F21253981259F8EF701B300C0E7F01125A16C20CC20B123D9980E9300BE67F01125A1680DF7F011259F21259F8EF640160F81257636F
:40490000EF30E7C312536980BE22E4FFFEFDFC9007EE122D829076007410F09070107401F0907019E4F07B027A78F97D807C021258939078027401F0A374A3F07B027A781C
:404940007904C003C002C0017BFF7A5A797BE9EAE4AD01AC02D001D002D0031258937B027A7879067D087C781258937B027A7679047D107C001258937B027A767906E4FD8B
:40498000FC1258939070297409F090703904F09070697414F0907079741DF09070147401F0907018E0540170F8907028E0540170F8907038E0540170F8907068E05401708B
:4049C000F8907078E0540170F822C0E0C083C082C085C084C086758600C093759300C0D075D000C001C002C003C006C007E4FBA2AF33FAD2AF9044F474FDF0906467E0FF55
:404A0000FE541EF960069007B1E049F0EF30E545906444E0FE9007AEE0248EF582E43407F583EEF07B01EB602C90078CE060069007B07401F09007AEE004F0E0C39420406C
:404A400002E4F090078DE0FE9007AEE0B5060690078C7401F0EF20E5A2AF02EA24FF92AFD007D006D003D002D001D0D0D093D086D084D085D082D083D0E03290062EEEF00D
:404A8000A3EFF09006347401F01259B0125688784E7C047D017B017A0479557E007F04122EED900632E4F0A304F0E4900630F0A3F0900632E0FEA3E0FF900630E0FCA3E0D3
:404AC000FDC39FEE6480F8EC648098503FEDC4F8540FC868FFECC454F048FE7B0174552FF974043EFA90062EE0A3E0FFED2FFD1245CCEF6007E4900634F08010900631E077
:404B000004F07006900630E004F080A578557C047D017B017A04794E7E007F04122EED1259A9900634E0FF22900644EBF0A3EAF0A3E9F0A3EDF07F3A1251F37F3A1251F367
:404B4000900456E0FF1251F3900647E0FF1251F3E4F50CF50D900647E0FFC3E50D9FE50C94005022900644E0FBA3E0FAA3E0250DF9EA350CFA122B64FF1251F3050DE50D17
:404B80007002050C80CFE4F50CF50D1259DAEF20E013050DE50DAE0C7002050C14D394E8EE940340E67F011259E6E4FF1259E62290FFFC122DE0122D82851683851782E0F8
:404BC000A3E0A3E0FEA3E0D39400EE9480403D9007DDE0FCA3E0FDA3E0FEA3E0FF125200851683851782C083C082E0FCA3E0FDA3E0FEA3E02400FFEE3480FEED34FFFDEC24
:404C000034FFFCD082D083122D8280AD9007D3E0FCA3E0FDA3E0FEA3E0FF851683851782E0F8A3E0F9A3E0FAA3E0FB122BBC125200900004122DE02290063BEBF0A3EAF003
:404C4000A3E9F09006407407F0904722E05402604E90472074B6F074D5F07402F0904722E054027032904720EFF0E4FFFED390063FE09F90063EE09E402B90063BE0FBA32F
:404C8000E0FAA3E02FF9EA3EFA122B64904720F00FEF70010E80D69006407409F080069006407404F0900640E0FF22900696EBF0A3EAF0A3E9F090069CEBF0A3EAF0A3E9FE
:404CC000F0900696E0FBA3E475F001122FFEA9F0FA122B6470EB90069774FFF5F0122FE8900699E0FBA3E475F001122FFEA9F0FA122B64FF900696E0FBA3E475F001122FB6
:404D0000FEA9F0FAEF122BAA70D690069CE0FBA3E0FAA3E0F92242044C800001100042074600014107AF004107B10041078D004107AE0041078C004107B0004107F50041E6
:404D400007F6004307E90000004407D802DC6C004407D30000BB804107D7304407DD5DC000004107F7004107F4004107F800004807E10000000000000000900637EBF0A373
:404D8000EAF0A3E9F0A3EDF0E4A3F090063AE0FFA3E0C39F503E904722E054016003D38001C340097F017E001253F480E9904720E0FF900637E0FBA3E0FAA3E0F990063B8B
:404DC000E0FEE92EF9E43AFAEF122BAA90063BE004F080B790063BE0FF22E4FF9044C87402F090078DE0FE9007AEE0FD90078CE07004EE6D6024748E2EF582E43407F5838C
:404E0000E0FF0EEEC394204002E4FE90078DEEF090078CE06018E4F08014906467E0FE30E50C906444E0FFEE541E6002E4FF9044C07402F02212573A90063674FFF01255AC
:404E4000CAEF703B7F011253C6EF6407702C7B017A0779EC7D02124D7AEFB40215E4900636F0904722E0540270107F01FE1253F480F0904722E0540260D41259358006900A
:404E800006367404F0900636E0FF2290062EECF0A3EDF090062DEFF0541F25E0FFE433FEE42FFFEE3444FAA9077B01125884900630EEF0A3EFF090062DE075F002A42400AF
:404EC000FFE5F03444FAA9077B01A3E0FEA3E0FFFDAC06125893900630E0FEA3E0FF2290063BECF0A3EDF0AC077D07904722E05402603B90472074B6F074D8F07405F090D5
:404F00004722E054027023904720ECF090063BE0904720F090063BE0A3E0904720F0EBF090063EE0904720F080067D0980027D04AF052212573A1255CAEF703B12562290D6
:404F40000636EFF06407702A904722E0540270087F01FE1253F480F0904722E054026009E0FF1313543FFF80027FFFEF7004900636F012593580069006367404F0900636AF
:404F8000E0FF229044C87402F09007AEE0FE90078DE0B5060E90078CE060047F20802CE4FF80289007AEE0FE90078DE0C39E500BE0FE9007AEE0C39EFF801090078DE0FEE9
:404FC000C374209EFE9007AEE02EFF9044C07402F022E4FFFEC3EF9404EE9400502390044CE0FCA3E02FF582EC3EF583E0FD74552FF58274043EF583EDF00FEF70010E8055
:40500000D4900455E070041250B322784E7C047D017B017A0479557E007F04122EED2290062D7402F0EF7014EE701190044FE090062EF0900641E4F0A37403F07B017A0619
:40504000792D900641E0A3E014FD1252D6900641E0FCA3E0FD242CF58274063CF583EFF07B017A06792D124B2822900696EEF0A3EFF07F0F125A2E7F03125A34900696E0D3
:40508000FEA3E0FFC39410EE648094805003125A2E900696E07004A3E064107004FF125A34900696E07004A3E0641170057F01125A3422E4FFFEC3EF9404EE9400502AEF67
:4050C0002480FDE43EFC90044CE0FAA3E02DF582EA3CF583E0FD74552FF58274043EF583EDF00FEF70010E80CD900455E070041254C222E4FFFE124A7B22C2D5E830E70F4B
:40510000B2D5E4C39BFBE49AFAE499F9E498F8EC30E717B2D5125130122C47E4C39BFBE49AFAE499F9E498F88003122C4730D50DE4C39FFFE49EFEE49DFDE49CFC22900561
:4051400032E0D39400500B7F01125A10E4900458F022900532E0D394FA400374FAF0900532E0FF7E007C017DF4122E04780A122D0E900458EFF01258E7E4FF125A10229082
:405180004F00E05401F0904F02E054FCF0904F0BE054CFF0E04430F0E054F0F0E0440FF0904F01E04401F07F7F7EBB1258BD7F7F7EBB1258CBE4FF1259E022904F0CE054F4
:4051C00001F0904F0EE054FCF0904F0DE04401F0904F17E054CFF0E04430F0E054F0F0E0440FF07F7F1258E7E4FF1256067F08125A0A22906462E020E2F9906442EFF02225
:40520000EC4D4E700D78FCEF24E950032840FD2200007BF178DA0000EF28FF78FFEE38FEED38FDEC38FC50E7EF2BFFEE38FEED38FDEC38FC40F2220502030490062DEBF0B9
:40524000A3EAF0A3E9F0E4FDFC9007AFE0601F90062DE0FBA3E0FAA3E02DF9EA3CFA122B64FF600A1251F30DED70010C80E122758600EF4E6027EF60010E75930090062D8D
:40528000E0F595A3E0F585A3E0F5848B938A838982E0A30586F0A31586DFF6DEF4E4F593F595227C497DCA7F01124E8B7D077F01125656E49007B1F090648B7469F09064C5
:4052C000877420F09064237406F09064337447F0906482E4F022900644EBF0A3EAF0A3E9F0E4F50CF50BE50BC39D5019900644E0FBA3E0FAA3E0250BF9E43AFA122B64629F
:405300000C050B80E1AF0C221257259043A0E04408F09043B0E04408F090470174C8F09043ACE04410F09043BCE04410F0904700E0542060F81256A022900653EFF0A3EDF8
:40534000F012586412582112556C900653E0FF125910125873EF30E1F9900654E0FF125910125873EF30E1F922125725906494E04401F0E054FEF01256A09044C87402F065
:40538000E490078DF09007AEF090078CF09007B0F09044C07402F0221258559005B6122D82300C05C20C123D99300C05C20C123D99125855900529122D827F407E4B7D4C12
:4053C0007C00125973227E07904722E05402601F90472074B6F074E1F0740EF0904722E054027007904720EFF080067E0980027E04AF0622EEFA9007D7E0F88FF0A4FFAED4
:40540000F0E88AF0A42EFEE5F03400FDEF24C9FF78FFEE38FEED38FDE438FC5003025200227F407E4B7D4C7C0012595F7F407E4B7D4C7C0012597312572590649CE0441037
:40544000F01256A0125903E4FF1259FE2290062D748CF090045CE090062EF07B017A06792D7D021252D690062FEFF07B017A06792D0D124B2822EFB40A07740D125481743C
:405480000A309811A899B8130CC2983098FDA899C298B811F63099FDC299F59922125725906594E04420F0906493E04410F0906597E04410F01256A01258A0125A53125AC4
:4054C00054229004567401F0900455F0E4FFFE124A7BEF600E7F087E00124A7BEF60047F0180027F0022900696EEF0A3EFF0124100900696E0FEA3E0FF1241FB900696E062
:40550000FEA3E0FF1242F62212572590649BE04420F0906497E04410F09044C07402F0906492E04410F01256A02212572590649BE054DFF0906497E054EFF09044C87402E1
:40554000F0906492E054EFF01256A022900532E0900450F024F3700A7D017F0C7E00123C69227D017F027E00123C6922906567E030E507906457E0FF80F2125725906497A9
:40558000E04401F0E054FEF01256A02290062DEEF0A3EFF01259B090062DE0FEA3E0FF1258AF7F041259411259A92290062DEEF0A3EFF01259C590062DE0FEA3E0FF1258CB
:4055C000D97F0712597D1259BE2290063A7404F01257259007F8E0700704F0E490063AF01256A090063AE0FF227B0C7A0179CF12591DEF540790586EF0EFC4540FA3F09061
:4056000058767444F0229043A3E04402F07B027A4F7912EFFD7C001258939043A3E054FDF0227F07904722E05402600E90472074B6F074E0F0740DF080027F0422EF7015D3
:40564000EE70127B017A0079001234E37B017A00790012523B22AC07ED540775F020A4FFEC541F2480F582E43444F583EFF022906584740FF012556C125A1C125A229064B7
:4056800083E4F0906587F022124F33900635EFF07008124E35900635EFF0900635E0FF22EF54016004D2AF8002C2AFEF5402FF9044F4E054FD4FF022EF4480FF125910E479
:4056C000FF125910125873EF30E0F9125A28229043A3E04401F09043B3E04401F0904F00E04401F0229043A3E04402F09043B3E04402F0904F0CE04401F0227D027C009094
:405700000632EFF0A3F07B017A067932124B2822E4FFFE124A7BEF60067F011256FB22E4FF1256FB229044F4E0F84402F0E85402FF10AF012274014FFF221257259043A01C
:40574000E04408F09043B0E04408F01256A022EF700BEE7008900534E0900456F07F011256FB22906467E0547FFF9007B0E06006EF4480FFE4F022E490062DF0A3F07B0104
:405780007A06792D7D02124B28229007AFE070091252A39007AF7401F0125508229007F5E0700912517F9007F57401F01256CF229007F6E070091254219007F67401F01239
:4057C0005999229007F7E070091251BB9007F77401F01256E5229007F4E0700912566F9007F47401F012549D221259D37E5A7F551258F57F071259871259CC228B938A8319
:405800008982E0FFA3E0FEA3E0FDE4FCF59322125725906492E04401F0E054FEF01256A022125725906497E04401F0E054FEF01256A0228B938A838982EFF0A3EEF0A3EDDE
:40584000F075930022905110E054F7FEEF33333354084EF02290640AE0FF7B027A64794A1257FE22906567E030E507906457E0FF80F222906567E0FF906463E04FFF54EF13
:40588000FF228B938A838982E0FFA3E0FE759300228B938A838982EDF0A3ECF0759300229043A2E04404F09043B2E04404F0227B027A447900AD07AC06125893227B027ACF
:4058C0004F7904AD07AC06125893227B027A4F7906AD07AC06125893227B027A447924AD07AC06125893227B027A4F7910EFFD7C00125893227B027A447904AD07AC06122A
:40590000589322125A04EF30E30512596980F422906463E030E2F9906447EFF0228B938A838982E0759300FF228B938A838982EDF075930022125725E49007F8F01256A086
:4059400022EFC43354E0904480F0227B027A407980125884229046FA7440F01259A1227B027A64792A125835227B027A64794A1257FE227B027A64790A12583522EFC433B8
:4059800054E0904492F022EFC43354E0904482F022904082E05407FF2290647CE04480F0229046F6E04401F0229044C07401F0229044C87401F02212568812530822904451
:4059C000C27404F0229044CA7404F0229044C07404F0229044C87404F022906462E0FF22904F03EFF02290647DEFF022906472EFF02290647AEFF02290646AE0FF2290641A
:405A00008CEFF02290646CE0FF22904F0FEFF022906575EFF022906476EFF022906463E0FF22906567E0FF22906457E0FF22906576EFF022906577EFF0221259B722D20BB8
:405A400032D20C3280FE2222222222222222222222323222223201000000000000000100000000000100010000000800000001000000080001000100000001000823025A77
:405A8000567608000823035A5E7610000823045A667628000823055A6E7630000523065A767020000523075A767030000523085A767060000523FE5A767070004022FE0741
:405AC000EE51300200220B07EE00000180220C07EE08000200220D07EE0E000180220E07EE18000180220F07EE1A000080221007EE43000100221107EE44000080221207A2
:405B0000EE46000080221307EE4700008022FE07EE4D000007231504C052000007231604C852080007231704D052100006231804D852600007231904E05278000C231A041F
:405B4000F04F00000C231B04FC4F0C0020231C0C086470002023FE0C2865700008231E04E851000080231F05080200008023200588028000802321060804000080232206E6
:405B8000880480008023230708060000802324078806800080232508080A000080232608880A800080232709080C000080232809880C80008023290A0814000080232A0AC5
:405BC0008814800080232B0B0816000080232C0B8816800010232D0C4850100010232E0C5850000080232F0C684D80008023300CE84C00008023310D684C80008023320D54
:405C0000E84780008023330E684680008023340EE84500008023350F684580008023360FE81B8000802337106815000080233810E8158000802339116819800080233A1167
:405C4000E817000080233B126817800080233C12E809800080233D136807000080233E13E807800080233F14680B000080234014E80B8000802341156805000080234215DC
:405C8000E805800080234316680D000080234416E80D8000802345176803000080234617E8038000802347186849000080234818E8498000802349196848000080234A199D
:405CC000E848800080234B1A6843800080234C1AE842000080234D1B6842800080234E1BE841000080234F1C684180008023501CE84000008023FE1D6840800000000000D0
:405D00000000000000000000000000000000000000000000000000000000000000000000000000000000000000000000000000000000000000000000000000000000000063
:405D40000000000000000000000000000000000000000000000000000000000000000000000000000000000000000000000000000000000000000000000000000000000023
:405D800000000000000000000000000000000000000000000000000000000000000000000000000000000000000000000000000000000000000000000000000000000000E3
:405DC00000000000000000000000000000000000000000000000000000000000000000000000000000000000000000000000000000000000000000000000000000000000A3
:40FFC000E800003FE6000000250000CB0000000000000000000000000000000000000000000000000000000000000000000000000000000000000000000000000000000004
:0200000480007A
:4000000000000000000000000000000000000000000000000000000000000000000000000000000000000000000000000000000000000000000000000000000000000000C0
:400040000000000000000000000000000000000000000000000000000000000000000000000000000000000000000000000000000000000000000000000000000000000080
:400080000000000000000000000000000000000000000000000000000000000000000000000000000000000000000000000000000000000000000000000000000000000040
:4000C0000000000000000000000000000000000000000000000000000000000000000000000000000000000000000000000000000000000000000000000000000000000000
:4001000000000000000000000000000000000000000000000000000000000000000000000000000000000000000000000000000000000000000000000000000000000000BF
:40014000000000000000000000000000000000000000000000000000000000000000000000000000000000000000000000000000000000000000000000000000000000007F
:40018000000000000000000000000000000000000000000000000000000000000000000000000000000000000000000000000000000000000000000000000000000000003F
:4001C00000000000000000000000000000000000000000000000000000000000000000000000000000000000000000000000000000000000000000000000000000000000FF
:4002000000000000000000000000000000000000000000000000000000000000000000000000000000000000000000000000000000000000000000000000000000000000BE
:40024000000000000000000000000000000000000000000000000000000000000000000000000000000000000000000000000000000000000000000000000000000000007E
:40028000000000000000000000000000000000000000000000000000000000000000000000000000000000000000000000000000000000000000000000000000000000003E
:4002C00000000000000000000000000000000000000000000000000000000000000000000000000000000000000000000000000000000000000000000000000000000000FE
:4003000000000000000000000000000000000000000000000000000000000000000000000000000000000000000000000000000000000000000000000000000000000000BD
:40034000000000000000000000000000000000000000000000000000000000000000000000000000000000000000000000000000000000000000000000000000000000007D
:40038000000000000000000000000000000000000000000000000000000000000000000000000000000000000000000000000000000000000000000000000000000000003D
:4003C00000000000000000000000000000000000000000000000000000000000000000000000000000000000000000000000000000000000000000000000000000000000FD
:4004000000000000000000000000000000000000000000000000000000000000000000000000000000000000000000000000000000000000000000000000000000000000BC
:40044000000000000000000000000000000000000000000000000000000000000000000000000000000000000000000000000000000000000000000000000000000000007C
:40048000000000000000000000000000000000000000000000000000000000000000000000000000000000000000000000000000000000000000000000000000000000003C
:4004C0009CCA000000000000C2A20000000000009018000000000000050C00000000000004060000000000003F00000000000000008000000000000000003600001000006A
:40050000000000000000C6000003060001020001020004000400020001000000000301000003010006000000000000000000000006000000000301000100040000010202B9
:4005400088A000000000455035010000000EC00B19FFFFFF0000F0440C000000010000000404040400000001000000000000C0000000400200000000000000000000000045
:400580000000000000000000000100000300000000010000000000000000000003010000020000010000000000000000000000000000000000010100000000010300000029
:4005C0002008000000001014020000000000040000FF07FF4020F0050800000009000000040404040020000140A840200000000000000000000000000000000000000000C5
:400600000000000000000000481000008F0C70730C3AF34583107C0083472038C21010007D3C80024C1000004400003F00000000004FF330480300AC3F01B080403E0040A2
:4006400000800A2000000000430206000500E00C18FFFFFF62A0F0410C000000000008000404040400900001000000000000400200103010001010120000000000000000D3
:400680000000000000000000200000000005C700F80001010F05F00010000000000408013F00C00008008400300000023905C6000000420020000000000000040003FF000A
:4006C000000000200000400400000000000000000000000000000000000000000000000004040000000000010000000000000000000000000000000000000000000000008D
:4007000000000000000000000400000000010900070008000000000002000000000000000F0000000400000006000000000000000600090009000600000007000E0100004D
:40074000000020000000001000000000000000000000000000000000000001010000100004040004001000010000000000000000000000000000000000000000000000001A
:4007800000000000000000000000000015000A0800020C010000000419000600000300000B00100300001003000000000000000800000004000100021C081C010204010253
:4007C00000880000000050552506400003DEFB0C1FFFFFFF2200F00C040000001A00040004040404020200010000C00040011011C001001140014001000000000000000092
:4008000000000000000000000000020000000000000001000000000000000000000000000000000000000000000000000000000000000000030000000000030000000000AF
:400840000000000000000000120000000000000000FFFFFF0000000118000000000000000400040409030001400040004040800080008000800080000000000000000000B7
:4008800000000000000000000000100C01010E000C01030010010000000003000000080A0000000600000C0000001000000C10020100060410000002000010010F0E00004B
:4008C0000800202000000400120000000000000000FFFFFF008303011800000000000212040404040003000140004000404080008000800080008000000000000000000056
:400900000000000000000000000020200C0211001400000200000314000C0010100C0030000C201009021000000100001C28021010020C00000200002000003C00021F0177
:4009400000200008000001501200000000EC20000BFFFFFF0083030118008000010000000404040400330001400040004040800080008000800080000000000000000000F4
:40098000000000000000000000000000010000000001000000000000020000000001010000010000000000000000000000000000010000000000000000000001000003002B
:4009C0008008000000000000000000000000000000000000000000000000000000000000040400040000000100000000000000000000000000000000000000000000000062
:400A00000000000000000000E20018801163220C02000D009DF000008D02101D1DF0800042D094209D21005A002000D09D0300748020400000F00000F01F00800F60000005
:400A4000000023020000000400000000000000000000000000000000000000000000022C0404000422200001000000000000000000000000000000000000000000000000D0
:400A80000000000000000000010100020002000102000000000002000100000002030000000200010000020000000000000000000200000000020001000201000200000115
:400AC00028820000000014410000000000000000000000000000000000000000000000000404000400000001000000000000000000000000000000000000000000000000EA
:400B000000000000000000000001010000000001000000000100000000000000000101000000000100000000000000000100000001000000000100000001010000000000A9
:400B40000A020000000005010000000000000000000000000000000000000000000008000404000400900001000000000000000000000000000000000000000000000000BE
:400B800000000000000000000000000043000C08013054003200000802103020303E0200320300040000000132000000000800000205000243081800200840071F100020AF
:400BC00028AA000000000151000000000000000000000000000000000000000040000000040400042220000100000000000000000000000000000000000000000000000042
:400C000000000000000000000000000000000000000000000000000000000F000000003A000000690D00000000000000000000000000000000000000000000000F000000E6
:400C40000000000000000000040100000000000000000401000000000F0100000000000005000701090109000000000000000000000000000000000000000000000000003A
:400C80000000000000000000000000000000000000000000000000800000004400000000000000000000000000000000000000000000000000000000000000000000000070
:400CC00000000000000000000000000000000000040000000400000000000000000000000000000000000000000000000000000000000000000000000000000000000000EC
:400D00000000000000000000000000000000000000000000000000000000000000000000000000000000000000000000000000000000000000000000000000800000000033
:400D400000000008000000448000000004000000000000000000000000000000000000000000000000000000000000000000000000000000000000000000000000000000A3
:400D80008400000800000000000000000000000000000000000000000000000800000000000000000000000000000000000000000000000000000000000000000400070094
:400DC000030000000000000000000000000000000000000001000000000000000000000000000000000000000000000080000000000000000000000000000000000000006F
:400E000004000000000000000000000000000000000000000000000004000000000000000000000000000000000000000000000000000000000000000000000000000000AA
:400E40000000000000000000000000000000000000000000010000000000000000000000000000000000000000000000000000000000000000000000000000000000000071
:400E800000000000000000000000000000000000000000100000000000018000000000000000000000000000000000000000000000000000000000000000000000000000A1
:400EC00000000000000000000000000000000000000004000400000000000000000000000000000000000000000000000000000000000000000100000000000000000000E9
:400F000000000000000000000000000000000000000000000000000000000000000000000000000000000000000000000000000000000000000000000000000000000000B1
:400F40000000001000000000004000000000840000000000000000000000000000000000000000000000000000000400004000000000000000000000000000000000000059
:400F80000000000000000000000000000000000000000000000000000000000000000000000000000000000000000400000000000000000000000000000000000100030029
:400FC00001000000000000000000000000000000000000000000000000000000000000000000000000000000000000000000000000000000000000000000000000000000F0
:4010000000000000000000000000000000000000000000000001000000000000000000000000000000000000000000000000000000000000000000000000000000000000AF
:4010400000000000000000000000000000000000200000002800000000000000000000000000000000000000882200000210000110806400000480022400040000000010B9
:4010800000228000000010104C080100000082009400800000000002000055000010180084000002800A8002800040000000000000000000000000000000000000000000B2
:4010C0000000000000000000400000000000000060006800010000004080000200000000000000000000000000000000000000100000020000009000000804020000E8008D
:4011000000000411000000020005580244080000800000000180000000000208000000000000000000000000DF00BF004600000000001F006F00CB000000000000000000A5
:4011400001000000000000000000400000003000080000000800000000000000000000000000000000000000000000000000000000000000000000000000000000010000ED
:40118000000000000000000000000000000000000000000000000000000000000000000000000000000000000000000000000000000000000000000000000000000000002F
:4011C0000000000000000000000000000000000000000000800000000000000000000000000000000000000088200000000000410000680000002020000004420008001080
:40120000002104084004000002040A04000000800020001200000002021048000000180080100800000A080000000000000000000410000000000000000000000000000045
:4012400000000000800000000008A0000080000002100000400A20530000000000000000000000000000000040040080000000040000000000000000000000420000840069
:4012800000000400000100500000E0000405180200000000000000010004000020000000000000000000000097002E006B00000000001E006F00CE00000000000000100016
:4012C0001E0000000000000000000000000000004000000000000000000000000000000000000000000000000000000000000000000000000000000000000000000100008F
:4013000000000000000000000000000000000000000000100000000010000010108002000000000000000000000000000000000000000000000000000000000000000000EB
:401340000000000000000000000000000200000000006000000000000000000000000000000000000000000018000000000220040080844000006218000000004040080087
:4013800010800011000400100404020200000008800510020000000000000850020406000880001000000004A00004000000000004088042000000000080240000000000B7
:4013C000002002000000000006020000008000010000000000008000000000000000000000000000000000000002000000000002000000000000000008C04204000000218F
