:10260000027CA4008F828E83E0540100000070F8E9
:102610002278FFE4F6D8FD027D32900002EEF0A3AE
:10262000EFF078047C007D017BFF7A4479DF7E0740
:102630007F9F1257089007A3E4F0A37406F0E4A369
:10264000F0A3F0A3F0A37402F07C007D327F007E43
:1026500000125372AA06AB077F067E00125372EF78
:102660002BFDEE3AFC900C18E075F032A4FF2DFF24
:10267000EC35F0CF245FCF34019007A9F0A3EFF041
:10268000E4A3F0A3F078AD7C077D017BFF7A4C7961
:102690007EFE7F1A12570878C77C077D017BFF7A80
:1026A0004C79987E007F0B12570878D27C077D0109
:1026B0007BFF7A4C79A37E007F1412570878E67C62
:1026C000077D017BFF7A4C79B77E007F1012570897
:1026D00078F67C077D017BFF7A4C79C77E007F2AE4
:1026E00012570878207C087D017BFF7A4C79F17EB7
:1026F000007F1A1257087B017A0779E6129D148F22
:10270000137B017A0779AD129D148F147B017A0730
:1027100079C7129D148F157B017A0779D2129D1407
:102720008F167B017A0779F6129D148F177B017A39
:10273000087920129D148F18783A7C087D017BFF60
:102740007A4D790B7E007F761257089008B374FF9C
:10275000F0A37442F0A3745AF0A3E4F0A3740AF057
:10276000A3E4F0A37464F07B017A08793A125E75F1
:102770007B017A08793A129D148F19900C18E0FDAC
:10278000C313FF9007A5E4F0A3EFF09007A5E0FEC8
:10279000A3E025E0FFEE33FEC3ED9FFFE49EFED3F2
:1027A000EF9400EE9400400BE004F070069007A553
:1027B000E004F09007A5E0FEA3E0FF7C007D32126C
:1027C0005372AA06AB079007A3E0FEA3E0FF1253E3
:1027D00072EF2BFDEE3AFC900C18E0F975F032A484
:1027E000FF2DFFEC35F0CF242DCF34019007A9F059
:1027F000A3EFF09007A5E0FAA3E0FB9007A3E0FCAD
:10280000A3E0FDEB2DFFEA3CCF2403CF340090077B
:10281000A7F0A3EFF0900004740CF0ED2BFFE92F6C
:102820002403A3F0900002E0FEA3E0FF6003023265
:10283000CEEE60030232CEE49007ABF0A3F090003E
:10284000067402F0A314F0900C18E0900008F075E4
:102850000B0085140CE50C450B602CC3E514950C9E
:10286000FFE4950BFE74AD2FF58274073EF583E00F
:10287000FD74092FF58274003EF583EDF0E50C152B
:102880000C7002150B80CE9007ACE02432F090075C
:10289000ABE03400F0E4F50BF50CF50FF510900704
:1028A000A3E0FEA3E0D39510EE950F5003022A5D3E
:1028B0009008B374FFF0A37442F0A374CEF0A3E5C4
:1028C0000FF0A3E510F07B017A0779C7125E7575EA
:1028D00011007512047B017A0779C7129D148F15B8
:1028E0009007ABE0FEA3E0FF851082850F83743272
:1028F00012556CE5822FF582E5833EF583E582244F
:1029000006F582E5833400F5837402F08510828534
:102910000F83743212556CE5822FF582E5833EF504
:1029200083E5822407F582E5833400F5837403F0A0
:10293000AE0FAF107C00FD1253728E0D8F0EAE0FD6
:10294000AF107C007D03125372EF2402FFE43EFEC1
:10295000D3E50E9FE50D9E40030229F17439250C45
:10296000F5827409350BF583E0F9B50E3FE4B50D3A
:102970003B9007ABE0FEA3E02512FFE5113EFE858C
:102980001082850F83743212556CE5822FF582E533
:10299000833EF583E5822404F582E5833400F583E4
:1029A000E9F0050CE50C7002050B80329007ABE0F6
:1029B000FEA3E02512FFE5113EFE851082850F8300
:1029C000743212556CE5822FF582E5833EF583E57E
:1029D000822404F582E5833400F58374FFF0051248
:1029E000E51270020511050EE50E7002050D0229B3
:1029F0003E750D0085150EE50E450D6055C3E515B8
:102A0000950EFFE4950DFE74C72FF58274073EF511
:102A100083E0FBAE0FAF107C007D32125372900743
:102A2000ABE0FCA3E02FFFEC3EFE7C00EF2515FFA2
:102A3000EC3EFEC3EF950EFFEE950DFE740B2FF5E9
:102A40008274003EF583EBF0E50E150E7002150D55
:102A500080A50510E5107002050F02289E9007A3BF
:102A6000E0FEA3E0FF7C007D321253729007ACE0E1
:102A70002FF09007ABE03EF0E4F50FF5109007A5BE
:102A8000E0FEA3E0D39510EE950F5003022DA99020
:102A900007ABE0FEA3E0FF851082850F837432123E
:102AA000556CE5822FF582E5833EF583E5822406A9
:102AB000F582E5833400F5837402F0851082850F7A
:102AC00083743212556CE5822FF582E5833EF583DF
:102AD000E5822407F582E5833400F5837403F0E58D
:102AE0001025E0FFE50F33FE74392FF58274093E9F
:102AF000F583E075F003A4241BF582E4340DF5831F
:102B0000E0FF9007ABE0FCA3E0FD851082850F831A
:102B1000743212556CE5822DF582E5833CF583E530
:102B2000822408F582E5833400F583EFF0E5102573
:102B3000E0FFE50F33FE74392FF58274093EF5830B
:102B4000E075F003A4241CF582E4340DF583E0FF66
:102B5000851082850F83743212556CE5822DF582C3
:102B6000E5833CF583E5822409F582E5833400F5AD
:102B700083EFF0E51025E0FFE50F33FE74392FF504
:102B80008274093EF583E075F003A4241DF582E408
:102B9000340DF583E0FF851082850F837432125562
:102BA0006CE5822DF582E5833CF583E582240AF508
:102BB00082E5833400F583EFF0E5102401FFE4356E
:102BC0000FFEEF25E0FFEE33FE900C18E0C39FE40C
:102BD0009E5064750D0085160EE50E450D700302BE
:102BE0002D9EC3E516950EFFE4950DFE74D22FF5CC
:102BF0008274073EF583E0FBAE0FAF107C007D32A0
:102C00001253729007ABE0FCA3E02FFFEC3EFE7C7A
:102C100000EF2516FFEC3EFEC3EF950EFFEE950D7F
:102C2000FE740B2FF58274003EF583EBF0E50E1574
:102C30000E7002150D80A29007ABE0FEA3E0FF85A9
:102C40001082850F83743212556CE5822FF582E570
:102C5000833EF583E5822407F582E5833400F5831E
:102C60007406F0E51025E0FFE50F33FE743A2FF50A
:102C70008274093EF583E075F003A4241BF582E419
:102C8000340DF583E0FF9007ABE0FCA3E0FD851079
:102C900082850F83743212556CE5822DF582E583AF
:102CA0003CF583E582240BF582E5833400F583EF60
:102CB000F0E51025E0FFE50F33FE743A2FF582743E
:102CC000093EF583E075F003A4241CF582E4340D7D
:102CD000F583E0FF851082850F83743212556CE511
:102CE000822DF582E5833CF583E582240CF582E5AF
:102CF000833400F583EFF0E51025E0FFE50F33FEA8
:102D0000743A2FF58274093EF583E075F003A4242C
:102D10001DF582E4340DF583E0FF851082850F8375
:102D2000743212556CE5822DF582E5833CF583E51E
:102D300082240DF582E5833400F583EFF0750D00F4
:102D400085160EE50E450D6055C3E516950EFFE49C
:102D5000950DFE74D22FF58274073EF583E0FBAE2D
:102D60000FAF107C007D321253729007ABE0FCA3D2
:102D7000E02FFFEC3EFE7C00EF2516FFEC3EFEC38D
:102D8000EF950EFFEE950DFE740E2FF58274003E4A
:102D9000F583EBF0E50E150E7002150D80A50510FC
:102DA000E5107002050F022A7D9007A5E0FEA3E062
:102DB000FF7C007D321253729007ACE02FF0900739
:102DC000ABE03EF09008B374FFF0A37442F0A3743C
:102DD000DAF09007A7E0FEA3E024FFFFEE34FF90B7
:102DE00008B6F0A3EFF07B017A0779E6125E757BF7
:102DF000017A0779E6129D148F139007ABE0FEA3CA
:102E0000E0FF2406F58274003EF5837402F0740737
:102E10002FF58274003EF5837401F09008E1E0FF25
:102E20009007ABE0FCA3E02408F58274003CF58336
:102E3000EFF0750B0085130CE50C450B6046C3E500
:102E400013950CFFE4950BFE74E62FF58274073E94
:102E5000F583E0FFE513FD7C009007ABE0FAA3E00B
:102E60002DFDEC3AFCC3ED950CFDEC950BFC7409C3
:102E70002DF58274003CF583EFF0E50C150C700223
:102E8000150B80B49007ACE02432F09007ABE0342F
:102E900000F0E4F50BF50C900C18E0FFC3E50C9F77
:102EA000E50B940040030230F49008B374FFF0A3E4
:102EB0007442F0A374EAF09007A7E0FEA3E0250CAB
:102EC000FFE50B3E9008B6F0A3EFF07439250CF542
:102ED000827409350BF583E0FF9008B8E4F0A3EFA6
:102EE000F07B017A0779F6125E757B017A0779F635
:102EF000129D148F179007ABE0FEA3E0FF850C82B4
:102F0000850B83743212556CE5822FF582E5833E82
:102F1000F583E5822406F582E5833400F5837402A7
:102F2000F0850C82850B83743212556CE5822FF587
:102F300082E5833EF583E5822407F582E58334004C
:102F4000F5837405F07439250CF5827409350BF599
:102F500083E075F005A424E4F582E43408F583E009
:102F6000FF9007ABE0FCA3E0FD850C82850B83742A
:102F70003212556CE5822DF582E5833CF583E582BE
:102F80002408F582E5833400F583EFF07439250CCD
:102F9000F5827409350BF583E075F005A424E5F599
:102FA00082E43408F583E0FF850C82850B8374325C
:102FB00012556CE5822DF582E5833CF583E582248C
:102FC00009F582E5833400F583EFF07439250CF5BB
:102FD000827409350BF583E075F005A424E6F582CB
:102FE000E43408F583E0FF850C82850B837432128C
:102FF000556CE5822DF582E5833CF583E582240A54
:10300000F582E5833400F583EFF07439250CF58201
:103010007409350BF583E075F005A424E7F582E427
:103020003408F583E0FF850C82850B8374321255DA
:103030006CE5822DF582E5833CF583E582240BF572
:1030400082E5833400F583EFF07439250CF5827442
:1030500009350BF583E075F005A424E8F582E43426
:1030600008F583E0FF850C82850B83743212556C62
:10307000E5822DF582E5833CF583E582240CF5821B
:10308000E5833400F583EFF0750D0085170EE50E2E
:10309000450D6055C3E517950EFFE4950DFE74F6DA
:1030A0002FF58274073EF583E0FBAE0BAF0C7C007E
:1030B0007D321253729007ABE0FCA3E02FFFEC3E91
:1030C000FE7C00EF2517FFEC3EFEC3EF950EFFEEF2
:1030D000950DFE740D2FF58274003EF583EBF0E53F
:1030E0000E150E7002150D80A5050CE50C7002057D
:1030F0000B022E97900C18E075F032A4FFAEF09002
:1031000007ACE02FF09007ABE03EF09008B374FFFF
:10311000F0A37443F0A37405F0900C18E0FF7E0058
:103120009007A7E0FCA3E02FFFEE3C9008B6F0A3C9
:10313000EFF07B017A087920125E759007ABE0FE14
:10314000A3E0FF2406F58274003EF583E4F07407E3
:103150002FF58274003EF5837401F09008E3E0FFE0
:103160009007ABE0FCA3E02408F58274003CF583F3
:10317000EFF0EF14602314603C240270529008B307
:1031800074FFF0A37443F0A3741AF07B017A0879FA
:103190002012909D75181A80369008B374FFF0A322
:1031A0007443F0A37420F07B017A08792012909D7B
:1031B000751819801A9008B374FFF0A37443F0A334
:1031C0007425F07B017A08792012909D75181A7584
:1031D0000B0085180CE50C450B6046C3E518950CF3
:1031E000FFE4950BFE74202FF58274083EF583E012
:1031F000FFE518FD7C009007ABE0FAA3E02DFDECA5
:103200003AFCC3ED950CFDEC950BFC74092DF58291
:1032100074003CF583EFF0E50C150C7002150B8083
:10322000B47E009007ABE0FCA3E02518FFEE3CFE67
:1032300074092FF58274003EF5837401F09007AC99
:10324000E02432F09007ABE03400F0750B008519F4
:103250000CE50C450B6046C3E519950CFFE4950B96
:10326000FE743A2FF58274083EF583E0FFE519FD00
:103270007C009007ABE0FAA3E02DFDEC3AFCC3ED37
:10328000950CFDEC950BFC74062DF58274003CF555
:1032900083EFF0E50C150C7002150B80B47B017AFE
:1032A0000079049007A9E0A3E014FD1298A190070B
:1032B000A9E0FCA3E0FD2403F58274003CF583EF54
:1032C000F07B017A007904128B98129DB02290074E
:1032D000A7E0FEA3E024FFFFEE34FFFE900002E033
:1032E000FCA3E0FDC39FEC9E50030234DC900C185D
:1032F000E0FF7E009007A7E0FAA3E0FB2FFFEE3A85
:10330000FEEDB5070DECB50609900D55E090094DA1
:10331000F022EB24FFFFEA34FFFE900002E0FCA362
:10332000E0FDB5070DECB50609900D55E090094B91
:10333000F022900D55E0FF9007A7E0FAA3E0FBC351
:10334000ED9BFDEC9AFC74392DF58274093CF583F4
:10335000E075F005A4244EF582E43409F583EFF01E
:10336000900D56E0FF74392DF58274093CF583E029
:1033700075F005A4244FF582E43409F583EFF0904D
:103380000D57E0FF74392DF58274093CF583E07523
:10339000F005A42450F582E43409F583EFF0900D94
:1033A00058E0FF74392DF58274093CF583E075F01F
:1033B00005A42451F582E43409F583EFF0900D590A
:1033C000E0FF74392DF58274093CF583E075F00552
:1033D000A42452F582E43409F583EFF09010D8E488
:1033E000F0A304F0E4F50BF50C900C18E0FFC3E536
:1033F0000C9FE50B940040030234CE7439250CF584
:10340000827409350BF583E0FF75F005A4244FF5B0
:1034100082E43409F583E075F006A4FEEF75F0054B
:10342000A4244EF582E43409F583E075F006A42E59
:10343000FF7439250CF5827409350BF583E0FE75B0
:10344000F005A42450F582E43409F583E075F00614
:10345000A42FFFEE75F005A42451F582E43409F59C
:1034600083E0C454F02FFF7439250CF582740935BC
:103470000BF583E0FE75F005A42452F582E43409CF
:10348000F583E025E02F2402FDEE25E0244CF582B3
:10349000E43410F583E4F0A3EDF07439250CF582E3
:1034A0007409350BF583E025E0244CF582E43410F3
:1034B000F583E0FEA3E0FF9010D9E02FF09010D844
:1034C000E03EF0050CE50C7002050B0233E99010AC
:1034D000D9E004F070069010D8E004F02290000CBF
:1034E000EEF0A3EFF0E4A3F0FFFEFDFC90005D1210
:1034F0005560900C18E06401600302425990000C82
:10350000E0FEA3E0FF9008E475F00512557DEE752E
:10351000F005A42583F583E07003127DC190000CB3
:10352000E0FEA3E0FF9008E575F00512557DEE750D
:10353000F005A42583F583E07003127EDD900D175E
:10354000E0F8A3E0F9A3E0FAA3E0FB90106EE0FC42
:10355000A3E0FDA3E0FEA3E0C39BFFEE9AFEED997E
:10356000FDEC98FCE41250A97B007A247974784928
:10357000124F8290005D12556090000CE0FEA3E0B7
:10358000FF90107275F00612557DEE75F006A425B9
:1035900083F583E0FD90000FE4F0A3EDF09010734D
:1035A00075F006EF12557DEE75F006A42583F583C0
:1035B000E0FD900010E0FCEDEC1250AE9000211206
:1035C000556090000CE0FEA3E0FF90107475F006CB
:1035D00012557DEE75F006A42583F583E0FD90007D
:1035E0000FE4F0A3EDF090107575F006EF12557D25
:1035F000EE75F006A42583F583E0FD900010E0FC55
:10360000EDEC1250AE90002512556090000CE0FEDB
:10361000A3E0FF90107675F00612557DEE75F0066A
:10362000A42583F583E0FD90000FE4F0A3EDF09076
:10363000107775F006EF12557DEE75F006A4258320
:10364000F583E0FD900010E0FCEDEC1250AE900030
:1036500029125560E4FFFEFDFC90003D125560907C
:10366000000CE0FEA3E0FF900CB175F00612557D52
:10367000EE75F006A42583F583E0FD90000FE4F0DD
:10368000A3EDF0900CB275F006EF12557DEE75F0DB
:1036900006A42583F583E0FD900010E0FCEDEC121C
:1036A00050AE7B547AA0790B7839124E7990004154
:1036B000125560900041E0FCA3E0FDA3E0FEA3E012
:1036C000FF129EBB7BA67A0A7986783E12501F6055
:1036D0000D400BE4FFFEFDFC900041125560900090
:1036E0000CE0FEA3E0FF900CB375F00612557DEEE2
:1036F00075F006A42583F583E0FD90000FE4F0A3A8
:10370000EDF0900CB475F006EF12557DEE75F006F5
:10371000A42583F583E0FD900010E0FCEDEC125051
:10372000AE7B547AA0790B7839124E79900045120D
:103730005560900045E0FCA3E0FDA3E0FEA3E0FFA0
:10374000129EBB7BA67A0A7986783E12501F600DC6
:10375000400BE4FFFEFDFC90004512556090000C0C
:10376000E0FEA3E0FF900CB575F00612557DEE75F6
:10377000F006A42583F583E0FD90000FE4F0A3EDAF
:10378000F0900CB675F006EF12557DEE75F006A4BC
:103790002583F583E0FD900010E0FCEDEC1250AEC7
:1037A0007B547AA0790B7839124E799000491255E2
:1037B00060900049E0FCA3E0FDA3E0FEA3E0FF125F
:1037C0009EBB7BA67A0A7986783E12501F600D4018
:1037D0000BE4FFFEFDFC9000491255607B017A006E
:1037E0007921127B82900CA1E0FCA3E0FDA3E0FE16
:1037F000A3E0FF90004D125560900CA5E0FCA3E003
:10380000FDA3E0FEA3E0FF900051125560900CA9CB
:10381000E0FCA3E0FDA3E0FEA3E0FF9000551255FD
:1038200060900CADE0FCA3E0FDA3E0FEA3E0FF9000
:103830000059125560900055E0FCA3E0FDA3E0FEA6
:10384000A3E0FF90004DE0F8A3E0F9A3E0FAA3E0C5
:10385000FB124E79C004C005C006C007900059E0B5
:10386000FCA3E0FDA3E0FEA3E0FF900051E0F8A37D
:10387000E0F9A3E0FAA3E0FB124E79D003D002D026
:1038800001D000124D84E4FBFAF97840124E799091
:103890000021E0F8A3E0F9A3E0FAA3E0FB124D84D5
:1038A000C004C005C006C007900055E0FCA3E0FDC1
:1038B000A3E0FEA3E0FF125098D003D002D001D0C5
:1038C00000124E79C004C005C006C007900059E040
:1038D000FCA3E0FDA3E0FEA3E0FF900055E0F8A309
:1038E000E0F9A3E0FAA3E0FB124E79C004C005C0E2
:1038F00006C007900051E0FCA3E0FDA3E0FEA3E0BA
:10390000FF90004DE0F8A3E0F9A3E0FAA3E0FB127A
:103910004E79D003D002D001D000124D88E4FBFADA
:10392000F97840124E79900025E0F8A3E0F9A3E081
:10393000FAA3E0FB124D84900051E0F8A3E0F9A354
:10394000E0FAA3E0FB124E79D003D002D001D00000
:10395000124D887B827A5179C37840124E7990005B
:103960002D125560900059E0FCA3E0FDA3E0FEA3FA
:10397000E0FF900055E0F8A3E0F9A3E0FAA3E0FB34
:10398000124E79C004C005C006C007900051E0FC8B
:10399000A3E0FDA3E0FEA3E0FF90004DE0F8A3E06C
:1039A000F9A3E0FAA3E0FB124E79D003D002D001D4
:1039B000D000124D88E4FBFAF97840124E7990005D
:1039C00025E0F8A3E0F9A3E0FAA3E0FB124D849010
:1039D000004DE0F8A3E0F9A3E0FAA3E0FB124E7972
:1039E000C004C005C006C007900055E0FCA3E0FD80
:1039F000A3E0FEA3E0FF90004DE0F8A3E0F9A3E010
:103A0000FAA3E0FB124E79C004C005C006C00790BF
:103A10000059E0FCA3E0FDA3E0FEA3E0FF9000510D
:103A2000E0F8A3E0F9A3E0FAA3E0FB124E79D0039B
:103A3000D002D001D000124D84E4FBFAF978401294
:103A40004E79900021E0F8A3E0F9A3E0FAA3E0FBAF
:103A5000124D84900059E0F8A3E0F9A3E0FAA3E046
:103A6000FB124E79D003D002D001D000124D88C095
:103A700004C005C006C007900051E0FCA3E0FDA310
:103A8000E0FEA3E0FF900051E0F8A3E0F9A3E0FA24
:103A9000A3E0FB124E79A804A905AA06AB07E4FF30
:103AA000FEFD7C3F124D84C004C005C006C00790D7
:103AB0000055E0FCA3E0FDA3E0FEA3E0FF9000556D
:103AC000E0F8A3E0F9A3E0FAA3E0FB124E79A80422
:103AD000A905AA06AB07D007D006D005D004124D21
:103AE00084E4FBFAF97840124E79900029E0F8A3BB
:103AF000E0F9A3E0FAA3E0FB124D84C004C005C0C6
:103B000006C007E4FFFEFD7C40900051E0F8A3E012
:103B1000F9A3E0FAA3E0FB124E79D003D002D00162
:103B2000D000124E79A804A905AA06AB07D007D089
:103B300006D005D004124D847B827A5179C3784037
:103B4000124E79900031125560900055E0FCA3E0D0
:103B5000FDA3E0FEA3E0FF90004DE0F8A3E0F9A391
:103B6000E0FAA3E0FB124E79C004C005C006C0070E
:103B7000900059E0FCA3E0FDA3E0FEA3E0FF90006D
:103B800051E0F8A3E0F9A3E0FAA3E0FB124E79D0EC
:103B900003D002D001D000124D84E4FBFAF9784042
:103BA000124E79900021E0F8A3E0F9A3E0FAA3E037
:103BB000FB124D84C004C005C006C00790004DE054
:103BC000FCA3E0FDA3E0FEA3E0FF125098D003D0D9
:103BD00002D001D000124E79C004C005C006C00753
:103BE000900059E0FCA3E0FDA3E0FEA3E0FF9000FD
:103BF00055E0F8A3E0F9A3E0FAA3E0FB124E79C088
:103C000004C005C006C007900051E0FCA3E0FDA37E
:103C1000E0FEA3E0FF90004DE0F8A3E0F9A3E0FA96
:103C2000A3E0FB124E79D003D002D001D000124D98
:103C300088E4FBFAF97840124E79900025E0F8A369
:103C4000E0F9A3E0FAA3E0FB124D84900059E0F8FC
:103C5000A3E0F9A3E0FAA3E0FB124E79D003D0026F
:103C6000D001D000124D88C004C005C006C0079026
:103C70000051E0FCA3E0FDA3E0FEA3E0FF900051B3
:103C8000E0F8A3E0F9A3E0FAA3E0FB124E79A80460
:103C9000A905AA06AB07E4FFFEFD7C3F124D84C0D8
:103CA00004C005C006C007900055E0FCA3E0FDA3DA
:103CB000E0FEA3E0FF900055E0F8A3E0F9A3E0FAEE
:103CC000A3E0FB124E79A804A905AA06AB07D0070A
:103CD000D006D005D004124D84E4FBFAF9784012E6
:103CE0004E79900029E0F8A3E0F9A3E0FAA3E0FB05
:103CF000124D84C004C005C006C007E4FFFEFD7C71
:103D000040900055E0F8A3E0F9A3E0FAA3E0FB122D
:103D10004E79D003D002D001D000124E79A804A968
:103D200005AA06AB07D007D006D005D004124D84F3
:103D30007B827A5179C37840124E799000351255C2
:103D400060900059E0FCA3E0FDA3E0FEA3E0FF903B
:103D50000055E0F8A3E0F9A3E0FAA3E0FB124E79E6
:103D6000C004C005C006C007900051E0FCA3E0FD00
:103D7000A3E0FEA3E0FF90004DE0F8A3E0F9A3E08C
:103D8000FAA3E0FB124E79D003D002D001D000128A
:103D90004D88E4FBFAF97840124E79900025E0F85E
:103DA000A3E0F9A3E0FAA3E0FB124D84900055E0F4
:103DB000F8A3E0F9A3E0FAA3E0FB124E79C004C037
:103DC00005C006C007900055E0FCA3E0FDA3E0FE9F
:103DD000A3E0FF90004DE0F8A3E0F9A3E0FAA3E030
:103DE000FB124E79C004C005C006C007900059E020
:103DF000FCA3E0FDA3E0FEA3E0FF900051E0F8A3E8
:103E0000E0F9A3E0FAA3E0FB124E79D003D002D090
:103E100001D000124D84E4FBFAF97840124E7990FB
:103E20000021E0F8A3E0F9A3E0FAA3E0FB124D843F
:103E3000900051E0F8A3E0F9A3E0FAA3E0FB124EF2
:103E400079D003D002D001D000124D887B827A5104
:103E500079C37840124E7990003912556090004530
:103E6000E0FCA3E0FDA3E0FEA3E0FF900055E0F836
:103E7000A3E0F9A3E0FAA3E0FB124E79C004C00569
:103E8000C006C007900041E0FCA3E0FDA3E0FEA354
:103E9000E0FF900051E0F8A3E0F9A3E0FAA3E0FB13
:103EA000124E79D003D002D001D000124D88C00448
:103EB000C005C006C007900049E0FCA3E0FDA3E0F8
:103EC000FEA3E0FF900059E0F8A3E0F9A3E0FAA315
:103ED000E0FB124E79D003D002D001D000124D8801
:103EE000125098E4FBFAF9783F124E7990002DE0D9
:103EF000F8A3E0F9A3E0FAA3E0FB124D84900011CF
:103F0000125560900045E0FCA3E0FDA3E0FEA3E0B5
:103F1000FF900059E0F8A3E0F9A3E0FAA3E0FB1258
:103F20004E79C004C005C006C007900049E0FCA35C
:103F3000E0FDA3E0FEA3E0FF900055E0F8A3E0F968
:103F4000A3E0FAA3E0FB124E79D003D002D001D057
:103F500000124D84C004C005C006C007900041E0B7
:103F6000FCA3E0FDA3E0FEA3E0FF90004DE0F8A37A
:103F7000E0F9A3E0FAA3E0FB124E79D003D002D01F
:103F800001D000124D88E4FBFAF9783F124E799087
:103F90000031E0F8A3E0F9A3E0FAA3E0FB124D84BE
:103FA000900015125560900049E0FCA3E0FDA3E0ED
:103FB000FEA3E0FF900051E0F8A3E0F9A3E0FAA32C
:103FC000E0FB124E79C004C005C006C00790004156
:103FD000E0FCA3E0FDA3E0FEA3E0FF900059E0F8C1
:103FE000A3E0F9A3E0FAA3E0FB124E79D003D002DC
:103FF000D001D000124D84C004C005C006C0079097
:104000000045E0FCA3E0FDA3E0FEA3E0FF90004D2F
:10401000E0F8A3E0F9A3E0FAA3E0FB124E79D003A5
:10402000D002D001D000124D88E4FBFAF9783F129B
:104030004E79900035E0F8A3E0F9A3E0FAA3E0FBA5
:10404000124D84900019125560900041E0FCA3E0ED
:10405000FDA3E0FEA3E0FF900055E0F8A3E0F9A384
:10406000E0FAA3E0FB124E79C004C005C006C00709
:10407000900045E0FCA3E0FDA3E0FEA3E0FF90007C
:1040800051E0F8A3E0F9A3E0FAA3E0FB124E79D0E7
:1040900003D002D001D000124D84C004C005C00678
:1040A000C007900049E0FCA3E0FDA3E0FEA3E0FF11
:1040B000A3E0F8A3E0F9A3E0FAA3E0FB124E79D065
:1040C00003D002D001D000124D88E4FBFAF9783F0A
:1040D000124E79900039E0F8A3E0F9A3E0FAA3E0EA
:1040E000FB124D8490001D12556090004DE0F8A326
:1040F000E0F9A3E0FAA3E0FBC000C001C002C003E6
:1041000090005DE0FCA3E0FDA3E0FEA3E0FF9000D3
:1041100011E0F8A3E0F9A3E0FAA3E0FB124E79D096
:1041200003D002D001D000124D8890004D1255608E
:10413000900051E0F8A3E0F9A3E0FAA3E0FBC0008F
:10414000C001C002C00390005DE0FCA3E0FDA3E05D
:10415000FEA3E0FF900015E0F8A3E0F9A3E0FAA3C6
:10416000E0FB124E79D003D002D001D000124D886E
:10417000900051125560900055E0F8A3E0F9A3E0DB
:10418000FAA3E0FBC000C001C002C00390005DE0E4
:10419000FCA3E0FDA3E0FEA3E0FF900019E0F8A37C
:1041A000E0F9A3E0FAA3E0FB124E79D003D002D0ED
:1041B00001D000124D88900055125560900059E0D2
:1041C000F8A3E0F9A3E0FAA3E0FBC000C001C0023D
:1041D000C003A3E0FCA3E0FDA3E0FEA3E0FF90008A
:1041E0001DE0F8A3E0F9A3E0FAA3E0FB124E79D0BA
:1041F00003D002D001D000124D88900059125560B2
:104200007B017A00794D1272BD90004DE0FCA3E075
:10421000FDA3E0FEA3E0FF900CA1125560900051B9
:10422000E0FCA3E0FDA3E0FEA3E0FF900CA5125587
:1042300060900055E0FCA3E0FDA3E0FEA3E0FF904A
:104240000CA9125560900059E0FCA3E0FDA3E0FE2C
:10425000A3E0FF900CAD1255602230202D3E204E81
:104260006F6E650A31202D3E204C6F772028257512
:104270002075732064656C617920666F72206561BA
:10428000636820382D62697420726567697374658C
:10429000722072656164290A32202D3E20486967C8
:1042A00068202825752075732064656C6179206607
:1042B0006F72206561636820382D626974207265B1
:1042C0006769737465722072656164290A00506FB2
:1042D00072742025752049443A002575202D20440C
:1042E00065766963652049443A002575202D20498B
:1042F0004D5520256420636F6E6669677572617421
:10430000696F6E3A002575202D2053504920726543
:1043100061642064656C61793A00204E6F6E6500BF
:10432000204C6F7700204869676800000D0A00463E
:1043300069726D776172652076657273696F6E3A26
:104340002000494D55626F617264207620312E3411
:10435000000D0A0D0A0044455649434520494E4682
:104360004F0D0A0049443A2025640D0A004C6F772E
:1043700020706173732066696C7465722066726563
:104380007175656E637920666F7220616363656C19
:1043900065726F6D65746572733A20313020487AAA
:1043A0000D0A00494D5520436F6E6E656374656458
:1043B0003A2025640D0A00494D557320434F4E465F
:1043C000494755524154494F4E0D0A00496D7520D9
:1043D0002564200D0A0949443A2025640D0A000984
:1043E000416363656C65726F6D65746572733A20C5
:1043F000005945530D0A004E4F0D0A0009477972C6
:104400006F73636F7065733A2000094D61676E6565
:10441000746F6D65746572733A200009517561742B
:1044200065726E696F6E3A20000954656D70657231
:1044300061747572653A200054696D652062657417
:104440007765656E2074776F2072656164696E6749
:10445000206379636C65733A20252E3366206D7373
:104460000064656275673A20256C640053454E53BD
:104470004F525320494E464F0D0A00094163633A9B
:104480002025640925640925640D0A00094779720D
:104490006F3A2025640925640925640D0A00094D39
:1044A00061673A2025640925640925640D0A00091D
:1044B000517561743A20252E336609252E3366091D
:1044C000252E336609252E33660D0A000954656DC5
:1044D00070657261747572653A2025640D0A00007A
:1044E00000000000000000000000000000000000CC
:1044F00000000000000000000000000000000000BC
:1045000000000000000000000000000000000000AB
:10451000000000000000000000000000000000009B
:104C700000000000000000000000000000004E7571
:104C80006D626572206F6620636F6E6E656374651A
:104C90006420494D55733A000000000000000000F8
:104CA0000000004D61672063616C20706172616D6E
:104CB00065746572733A0000000000000000000097
:104CC00000000000000000000000000000000000E4
:104CD00000000000000000000000000000000000D4
:104CE00000000000000000000000000000000000C4
:104CF00000000000000000000000000000000000B4
:104D000000000000000000000000000000000000A3
:104D10000000000000000000000000000000000093
:104D20000000000000000000000000000000000083
:104D30000000000000000000000000000000000073
:104D40000000000000000000000000000000000063
:104D50000000000000000000000000000000000053
:104D60000000000000000000000000000000000043
:104D70000000000000000000000000000000000033
:104D800000025153E86480F8E933E83360110460AD
:104D9000F0ED33EC337009E8FCE9FDEAFEEBFF22AD
:104DA0000460DED3EB9FEA9EE99DE8C2E78CF0C287
:104DB000F795F0400CE8CCF8E9CDF9EACEFAEBCF64
:104DC000FB12511E85D0F05804700320D5B3E804BF
:104DD00070075002B2D502515D92D5EC0460F7E441
:104DE000CCC0E0C398F8603B94186008400DD0E058
:104DF000FB025135E4FBFAC9FC8028E830E406E404
:104E0000C9FBE4CAFCE830E305E4C9CACBFCE854BA
:104E1000076010F8C3E913F9EA13FAEB13FBEC137C
:104E2000FCD8F130F52FC3E49CFCEF9BFFEE9AFE1B
:104E3000ED99FDD0E0FBEF4E4D4C701222DB0302EA
:104E4000515AEC2CFCEF33FFEE33FEED33FDED3029
:104E5000E7EB025135EF2BFFEE3AFEED39FDD0E0E6
:104E6000FB50130BBB000302515DED13FDEE13FE6F
:104E7000EF13FFEC13FC025135EC4D6011E8497063
:104E800017ED33EC3304600DE4FCFFFEFD22E93343
:104E9000E8330470F802515312511E58046009E4BB
:104EA000CC2481500628500902515D28400302514C
:104EB0005AC0E0EB4A7044B98006D0E0FB02514989
:104EC000EF4E701CBD8008EBFFEAFEE9FD80EBE9C8
:104ED0008DF0A4FEE5F0024F62E9CDF9EAFEEBFFAA
:104EE000EF89F0A4FCE5F0CE89F0A42EFFE435F0C4
:104EF000CD89F0A42DFEE435F08067EF4E7005BD3E
:104F000080D780C3EF8BF0A4ACF0EE8BF0A42CFC28
:104F1000E435F0F8EF8AF0A42CE5F038FCE433CB6C
:104F20008DF0A42CFCE5F03BF8EE8AF0A42CFCE517
:104F3000F038F8E433CF89F0A42CFCE5F038CF3416
:104F400000CE89F0A42FFFE5F03EFEE433C98DF0DA
:104F5000A42EFEE5F039CD8AF0A42FFFE5F03EFE49
:104F6000E43DFD33D0E0FB50070BBB000F02515D69
:104F7000EC2CFCEF33FFEE33FEED33FD0251350236
:104F8000515DEC5D046005E8590470030251531251
:104F9000511E580460F6EC4860F2EC7004FDFEFF10
:104FA00022C860DB2481C85009C398600250060201
:104FB000515A9850CAF582E9294B4A7005AB8202D2
:104FC000514975F0007C1A7880C3EF9BEE9AED99F9
:104FD000400DC3EF9BFFEE9AFEED99FDE842F0DC39
:104FE00023ACF0D0E0FFD0E0FED0E0FDAB8220E7C4
:104FF000101BEB60BAEC2CFCEF33FFEE33FEED330D
:10500000FD025135E803F830E705C0F075F000EF18
:105010002FFFEE33FEED33FD40B830E7C280AA74B7
:10502000F8CC6480CCC86480C8F58204604FC3EBC0
:105030009FF5F0EA9E42F0E99D42F0E89C45F06061
:105040003C501DE5825FFFE582D313CB5BCBF42B95
:105050005582FB50280ABA002409B9002008801D97
:10506000E5825BFBE582D313CF5FCFF4C3132F55EB
:1050700082FF50090EBE00050DBD00010CC3EB9F61
:10508000F5F0EA9E42F0E99D42F0E89C45F06007A9
:10509000CC4820E701B3EC22ED33EC33600A047016
:1050A00003BD8004ECB2E7FC2275F020800E75F0A1
:1050B00010800575F0087D007E007F003392D530AA
:1050C000D5031254CDEC334010EF33FFEE33FEED39
:1050D00033FDEC33FCD5F0ED22E5F0247EA2D513B0
:1050E000CC92E7CDCEFF22EDD2E7CD33EC3392D593
:1050F00024814006E4FFFEFDFC22FCE4CFCECDCCB3
:1051000024E0501174FF80EDC3CC13CCCD13CDCE71
:1051100013CECF13CF0470F030D5DE0254CDE9D2D8
:10512000E7C933E833F892D5EDD2E7CD33EC33FC61
:105130005002B2D522EC30E7100FBF000C0EBE00BB
:10514000080DBD00040BEB6014A2D5EB13FCED922F
:10515000E7FD2274FFFCFDFEFF22E480F8A2D57477
:10516000FF13FC7D80E480EFF920E73624F950033B
:105170007907E4F42402FBE582158270021583DBD3
:10518000F6E024FB501BE96014E4F0E58215827020
:10519000021583E004F0B40A08E4F0D9EE7401F0DB
:1051A0000A22C2D522ED33EC3392D5FA602AB4FF3D
:1051B00033EDC2E77BFF60067A5179CAE4227A5167
:1051C00079D320D5047A5179CE224E614E002B49F5
:1051D0004E46002D494E4600E47A08F0A3DAFC7BE7
:1051E00000740722C083C082ECC0E0EDC0E0EEC0D6
:1051F000E0EFC0E0EA75F010A4CAABF075F04DA482
:105200002BFBE435F0FCEA2410FAEB34C5FBEC345C
:10521000D9FCEDC2E7FF75F056A4F42411C5F0F4F3
:1052200034C58FF0A42AE5F03BE43CF020E71412EB
:1052300052DAD0E0FFD0E0FED0E0FDD0E0FC124F2B
:10524000828014F4041252DAD0E0FFD0E0FED0E005
:10525000FDD0E0FC124E79D082D083E0FAEDD2E7A7
:10526000CD33EC332482FBE4C3CF33CFCE33CECD6A
:1052700033CD33DBF37B0775F00A846004F0A31BA6
:105280000AE5F0F0A38FF0740AA4FFACF08EF0747E
:105290000AA42CFEACF050010C8DF0740AA42CFD75
:1052A000E435F0F0A3DBDE7407223F8000004120EC
:1052B000000042C80000447A0000461C400047C37A
:1052C0005000497424004B1896804CBEBC205A0EE6
:1052D0001BCA6753C21C749DC5AEFB6006540760B1
:1052E0001C2323125308EB543860091252F4125352
:1052F00003124E79ECF8EDF9EEFAEFCB22EB1253F4
:105300000380F1543803241C9052AAFE93FC0EEE45
:1053100093FD0EEE930ECE93FF22BB010689828A87
:1053200083E0225002E722BBFE02E32289828A83C5
:10533000E49322BB010CE58229F582E5833AF583EB
:10534000E0225006E92582F8E622BBFE06E9258226
:10535000F8E222E58229F582E5833AF583E4932297
:10536000BB010689828A83F0225002F722BBFE012C
:10537000F322EF8DF0A4A8F0CF8CF0A428CE8DF00E
:10538000A42EFE22BB010A89828A83F0E5F0A3F0F5
:10539000225006F709A7F01922BBFE06F3E5F00933
:1053A000F31922E88FF0A4CC8BF0A42CFCE98EF04A
:1053B000A42CFC8AF0EDA42CFCEA8EF0A4CDA8F07D
:1053C0008BF0A42DCC3825F0FDE98FF0A42CCD3541
:1053D000F0FCEB8EF0A4FEA9F0EB8FF0A4CFC5F0AB
:1053E0002ECD39FEE43CFCEAA42DCE35F0FDE43CA4
:1053F000FC2275F008758200EF2FFFEE33FECD33EF
:10540000CDCC33CCC58233C5829BED9AEC99E58235
:1054100098400CF582EE9BFEED9AFDEC99FC0FD5C1
:10542000F0D6E4CEFBE4CDFAE4CCF9A88222B800B1
:10543000C1B90059BA002DEC8BF084CFCECDFCE57C
:10544000F0CBF97818EF2FFFEE33FEED33FDEC33A0
:10545000FCEB33FB10D703994004EB99FB0FD8E525
:10546000E4F9FA227818EF2FFFEE33FEED33FDEC6E
:1054700033FCC933C910D7059BE99A4007EC9BFC64
:10548000E99AF90FD8E0E4C9FAE4CCFB2275F010F0
:10549000EF2FFFEE33FEED33FDCC33CCC833C81015
:1054A000D7079BEC9AE899400AED9BFDEC9AFCE843
:1054B00099F80FD5F0DAE4CDFBE4CCFAE4C8F92290
:1054C000CFF4CFCEF4CECDF4CDCCF4CC22C3E49F38
:1054D000FFE49EFEE49DFDE49CFC22EB9FF5F0EAD8
:1054E0009E42F0E99D42F0E89C45F022E8600FEC16
:1054F000C313FCED13FDEE13FEEF13FFD8F122E80A
:105500006010ECA2E713FCED13FDEE13FEEF13FFAA
:10551000D8F022E8600FEFC333FFEE33FEED33FD2A
:10552000EC33FCD8F122BB010789828A8302583B05
:105530005005E9F802582FBBFE05E9F802584789E3
:10554000828A83025853BB010789828A830255608D
:105550005005E9F8025863BBFE05E9F802586F22CE
:10556000ECF0A3EDF0A3EEF0A3EFF022F5F0C5828E
:10557000A4C582C5F0C583A42583F58322A4258212
:10558000F582E5F03583F58322F8E0FBA3A3E0F98B
:1055900025F0F0E582158270021583E0FA38F022DA
:1055A000EBF0A3EAF0A3E9F022D083D082F8E493F1
:1055B0007012740193700DA3A393F8740193F58294
:1055C0008883E4737402936860EFA3A3A380DFE58C
:1055D000292582F582E5283583F583B5280485825F
:1055E000292210AF06858229F52822858229F528EF
:1055F000D2AF22EC8EF0A4CCC5F0CCCDF8EFA4CE87
:10560000C5F02DFDE43CFCE8A42EC8C5F03DFDE44A
:105610003CFCEFA4FFE5F028FEE43DFDE43CFC2269
:10562000EF4E6012EF60010EEDBB010B89828A83A1
:10563000F0A3DFFCDEFA2289F05007F709DFFCA9AE
:10564000F022BBFEFCF309DFFCA9F022E709F60813
:10565000DFFA8046E709F208DFFA803E88828C8311
:10566000E709F0A3DFFA8032E309F608DFFA806E7B
:10567000E309F208DFFA806688828C83E309F0A3ED
:10568000DFFA805A89828A83E0A3F608DFFA804E27
:1056900089828A83E0A3F208DFFA804280D280FA0E
:1056A00080C680D4805580F28029801080A680EA50
:1056B000809A80A880DA80E280CA802988848C85DC
:1056C00089828A83E493A30586F0A30586DFF5DE4D
:1056D000F3800B89828A83E493A3F608DFF9ECFA5E
:1056E000A9F0EDFB2288848C8589828A83E0A3055A
:1056F00086F0A30586DFF6DEF480E389828A83E400
:1057000093A3F208DFF980D688F0EF60010E4E60B7
:10571000CD88F0ED2402B4040050C3F582EB2402DE
:10572000B4040050B9232345822390569C73E709A3
:10573000F60870FA8046E709F20870FA803E88821F
:105740008C83E709F0A370FA8074E309F60870FA15
:10575000806CE309F20870FA806488828C83E30924
:10576000F0A370FA805889828A83E0A3F60870FA61
:10577000804C89828A83E0A3F20870FA804080D24C
:1057800080FA80C680D4805180F28027801080A665
:1057900080EA809A80A880DA80E280CA80278884A4
:1057A0008C8589828A83E493A30586F0A30586709D
:1057B000F5800B89828A83E493A3F60870F9ECFAEA
:1057C000A9F0EDFB2288848C8589828A83E0A30579
:1057D00086F0A3058670F680E589828A83E493A328
:1057E000F20870F980D888F0ED2402B4040050CE9D
:1057F000F582EB2402B4040050C423234582239095
:10580000577E73C5F0F8A3E028F0C5F0F8E58215DF
:105810008270021583E038F022A3F8E0C5F025F08D
:10582000F0E582158270021583E0C838F0E822E6C0
:10583000FC08E6FD08E6FE08E6FF22E0FCA3E0FD2A
:10584000A3E0FEA3E0FF22E2FC08E2FD08E2FE087E
:10585000E2FF22E493FC740193FD740293FE74034F
:1058600093FF22ECF608EDF608EEF608EFF622ECD0
:10587000F208EDF208EEF208EFF222900002EBF0EF
:10588000A3EAF0A3E9F09008E1E064FA7003025E95
:105890000F900002E0FBA3E0FAA3E0F8AC02AD0336
:1058A0007BFF7A43792B1257E69008B374FFF0A37D
:1058B0007443F0A3742CF0900002E0FBA3E0FAA381
:1058C000E0F912909D9008B374FFF0A37443F0A325
:1058D000742FF0900002E0FBA3E0FAA3E0F912902D
:1058E0009D9008B374FFF0A37443F0A37442F0904A
:1058F0000002E0FBA3E0FAA3E0F912909D9008B348
:1059000074FFF0A37443F0A37451F0900002E0FB25
:10591000A3E0FAA3E0F912909D9008B374FFF0A3FE
:105920007443F0A37456F0900002E0FBA3E0FAA3E6
:10593000E0F912909D9008B374FFF0A37443F0A3B4
:105940007464F09008E1E0FF9008B6E4F0A3EFF093
:105950007B017A007907125E759008B37401F0A399
:105960007400F0A37407F0900002E0FBA3E0FAA338
:10597000E0F912909D9008B374FFF0A37443F0A374
:10598000746DF0900002E0FBA3E0FAA3E0F912903E
:105990009D9008B374FFF0A37443F0A374A3F09038
:1059A0000C18E0FF9008B6E4F0A3EFF07B017A005A
:1059B0007907125E759008B37401F0A37400F0A328
:1059C0007407F0900002E0FBA3E0FAA3E0F9129064
:1059D0009D9008B374FFF0A37443F0A3742CF0906F
:1059E0000002E0FBA3E0FAA3E0F912909D9008B357
:1059F00074FFF0A37443F0A374B7F0900002E0FBCF
:105A0000A3E0FAA3E0F912909DE4900005F0A3F062
:105A1000900C18E0FFC3900006E09F7480F890009F
:105A200005E06480984003025CB59008B374FFF011
:105A3000A37443F0A374CCF0900005E0FEA3E0FF54
:105A40009008B6EEF0A3EFF02439F58274093EF524
:105A500083E0FF9008B8E4F0A3EFF07B017A0079CF
:105A600007125E759008B37401F0A37400F0A3747C
:105A700007F0900002E0FBA3E0FAA3E0F912909D8A
:105A80009008B374FFF0A37443F0A374DFF07B01BC
:105A90007A007907125E75900005E0FEA3E02439D4
:105AA000F58274093EF583E075F005A424E4F582DF
:105AB000E43408F583E060199008B374FFF0A37430
:105AC00043F0A374F1F07B017A00790712909D8076
:105AD000179008B374FFF0A37443F0A374F7F07B3E
:105AE000017A00790712909D9008B374FFF0A374B7
:105AF00043F0A374FCF07B017A00790712909D902B
:105B00000005E0FEA3E02439F58274093EF583E048
:105B100075F005A424E5F582E43408F583E0601906
:105B20009008B374FFF0A37443F0A374F1F07B0109
:105B30007A00790712909D80179008B374FFF0A344
:105B40007443F0A374F7F07B017A00790712909DFB
:105B50009008B374FFF0A37444F0A3740AF07B01BF
:105B60007A00790712909D900005E0FEA3E02439A9
:105B7000F58274093EF583E075F005A424E6F5820C
:105B8000E43408F583E060199008B374FFF0A3745F
:105B900043F0A374F1F07B017A00790712909D80A5
:105BA000179008B374FFF0A37443F0A374F7F07B6D
:105BB000017A00790712909D9008B374FFF0A374E6
:105BC00044F0A3741BF07B017A00790712909D903A
:105BD0000005E0FEA3E02439F58274093EF583E078
:105BE00075F005A424E7F582E43408F583E0601934
:105BF0009008B374FFF0A37443F0A374F1F07B0139
:105C00007A00790712909D80179008B374FFF0A373
:105C10007443F0A374F7F07B017A00790712909D2A
:105C20009008B374FFF0A37444F0A37429F07B01CF
:105C30007A00790712909D900005E0FEA3E02439D8
:105C4000F58274093EF583E075F005A424E8F58239
:105C5000E43408F583E060199008B374FFF0A3748E
:105C600043F0A374F1F07B017A00790712909D80D4
:105C7000179008B374FFF0A37443F0A374F7F07B9C
:105C8000017A00790712909D9008B37401F0A37413
:105C900000F0A37407F0900002E0FBA3E0FAA3E099
:105CA000F912909D900006E004F07006900005E067
:105CB00004F0025A109008B374FFF0A37443F0A3E9
:105CC000742CF0900002E0FBA3E0FAA3E0F912903C
:105CD0009D9008B374FFF0A37444F0A37438F0905F
:105CE0000D17E0F8A3E0F9A3E0FAA3E0FB90106E33
:105CF000E0FCA3E0FDA3E0FEA3E0C39BFFEE9AFE61
:105D0000ED99FDEC98FCE41250A9E4FBFA797A785D
:105D100044124F829008B61255607B017A007907D1
:105D2000125E759008B37401F0A37400F0A37407B9
:105D3000F0900002E0FBA3E0FAA3E0F912909D903E
:105D400008B374FFF0A37443F0A3742CF090000226
:105D5000E0FBA3E0FAA3E0F912909D9008B374FF72
:105D6000F0A37443F0A3742CF0900002E0FBA3E0D6
:105D7000FAA3E0F912909D9008B374FFF0A3744465
:105D8000F0A37461F0900D17E0F8A3E0F9A3E0FA36
:105D9000A3E0FB90106EE0FCA3E0FDA3E0FEA3E017
:105DA000C39BFFEE9AFEED99FDEC98FC9008B612AD
:105DB00055607B017A007907125E759008B3740113
:105DC000F0A37400F0A37407F0900002E0FBA3E0DE
:105DD000FAA3E0F912909D9008B374FFF0A3744306
:105DE000F0A3742CF0900002E0FBA3E0FAA3E0F92A
:105DF00012909D9008B374FFF0A37443F0A3742C29
:105E0000F0900002E0FBA3E0FAA3E0F912909D22DB
:105E1000E51A24B3F582E43408F583E0051A2290EC
:105E200008B03008039008B3E475F00112558902F8
:105E3000531A2001E97F2ED2018018EF540F2490CD
:105E4000D43440D4FF30050BEF24BFB41A00500304
:105E50002461FFE51B6002151B051EE51E7002058F
:105E60001D30080E9008B0E475F001125589EF025C
:105E700053600297D67403D2088003E4C208F51A6F
:105E80009008B01255A0E4F51BF51DF51EE51B604A
:105E9000077F20125E5380F5751CFFC202C201C24B
:105EA00003C204C206C207C209125E1FFF700D3092
:105EB00008057F00125E64AF1EAE1D22B4255FC2CE
:105EC000D5C205125E1FFF24D0B40A00501A75F027
:105ED0000A781B30D50508B6FF0106C6A426F620B1
:105EE000D5047002D20480D924CFB41A00EF500434
:105EF000C2E5D205026156D20280C6D20180C0D26C
:105F00000380BCD2D580BAD20680B47F20125E5303
:105F10002003077401B51B0040F1125E10FF125EF2
:105F200053025E8DD209D2078095125E10FB125E7D
:105F300010FA125E10F94A4B700679547A627BFFB0
:105F400020032EE51B602A7E008E8275830012538B
:105F50003360060EEE651C70F0C2D5EBC0E0EAC0FF
:105F6000E0E9C0E0EE1261B7D0E0F9D0E0FAD0E0AD
:105F7000FB12531AFF60AAEBC0E0EAC0E0E9C0E000
:105F8000125E53D0E02401F9D0E03400FAD0E0FBF7
:105F9000E51C0460DCD51CD98087D20380A2126185
:105FA0009960F7E51C700104125168A91C600DE5A9
:105FB0001C600914F51C126241EF60F3EA30E7023D
:105FC000F404C3995079EAF4251C0430E701E40491
:105FD000F51C800D12619960C1EA051C251C125147
:105FE00068EA9008DFF030E701E4251C04D51C04C2
:105FF000200601141261B7E4C0E01262419008DF8C
:10600000E0601320E70714F0125E3B802204F0D01A
:10601000E014C0E07F00125E3BE51C6007125E32B8
:10602000151C800B300603125E32D0E0025E8DD06C
:10603000E00480C4126199609EE51C0412516890CE
:1060400008DFEAF0E51C2006026001042404126166
:10605000B774FF04C0E0126241125E3BE51C2006EB
:10606000026003125E32D0E0B51CE87F45125E4547
:106070009008DFE07F2B30E7047F2DF404C0E012AE
:106080005E53D0E075F00A84C0F0125E3CD0E0129E
:106090005E3C025E8D791080027908C207C20980D9
:1060A00008D2D5790A8004790AC2D5E51C047002A9
:1060B000F51CE4FAFDFEFF125E10FC7B08200213C3
:1060C000125E10FD7B1030010A125E10FE125E108F
:1060D000FF7B20EC3382D592D55013C3E430010608
:1060E0009FFFE49EFEE42002039DFDE49CFCE4CBC4
:1060F000F8C202EC700CCFCECDCCE824F8F870F3E7
:106100008017C3EF33FFEE33FEED33FDEC33FCEBD2
:1061100033FB994002FB0FD8E9EB300205F8D0E0E1
:10612000C448B202C0E00AEC4D4E4F78207B0070AC
:10613000C2EAB51C0040BCC0E01261B9D0F0D0E0AA
:10614000200204C4C0E0C4B202C0F0125E3CD0F031
:10615000D5F0EB025E8D1255A95F2A536095585E0B
:10616000FB4C5EF74260994F60A14460A1495F100B
:106170004360A7555FD4466034455F9E47627450C4
:106180005EFF2D5F032E5F262B5F07235F242062B7
:106190005D2A5EBF4800005F1EE51CB4FF03751C4E
:1061A00006125E10FC125E10FD125E10FE125E10F2
:1061B000FF9008D80251A5790AA2D5200414300610
:1061C00009B910020404B9080104A2D5200702503D
:1061D00001042003689203B51B005034C0E07F2007
:1061E0003004197F30A20372077206500F1262103A
:1061F000C203C207C206C2097F30800F300603E91E
:10620000C0E0125E53300603D0E0F9D0E0B51BCCFD
:106210003006177F30B9100C125E537F58300507D7
:106220007F788003B90803125E533003057F2D0287
:106230005E537F202009F87F2B2007F322920380F2
:10624000CF7F00B40700500B24D8F582E43408F562
:1062500083E0FF22286E756C6C2900D202125E105A
:106260003002F8C202781B30D50108F6025EBF2D5D
:1062700050434958125E102403B405004001E490D5
:10628000626F93125E44743A125E44D204751B042A
:10629000026095900002EBF0A3EAF0A3E9F0900011
:1062A00002E0FBA3E0FAA3E0F8AC02AD037BFF7AC7
:1062B00043792B1257E69008B374FFF0A37443F0B0
:1062C000A3742CF0900002E0FBA3E0FAA3E0F91223
:1062D000909D9008B374FFF0A37444F0A3746CF025
:1062E000900002E0FBA3E0FAA3E0F912909DE49095
:1062F0000005F0A3F0900C18E0FFC3900006E09FAB
:106300007480F8900005E0648098400302670D9067
:1063100008B374FFF0A37443F0A374CCF0900005AD
:10632000E0FEA3E0FF9008B6EEF0A3EFF02439F50D
:106330008274093EF583E0FF9008B8E4F0A3EFF023
:106340007B017A007907125E759008B37401F0A39F
:106350007400F0A37407F0900002E0FBA3E0FAA33E
:10636000E0F912909D900005E0FEA3E0FF2439F5CE
:106370008274093EF583E075F005A424E4F582E417
:106380003408F583E0700302641F9008B374FFF0D3
:10639000A37444F0A3747BF09009A475F025EF1268
:1063A000557DEE75F025A42583F583E0FDA3E090EF
:1063B00008B6CDF0A3EDF09009A675F025EF1255C3
:1063C0007DEE75F025A42583F583E0FFA3E090081A
:1063D000B8CFF0A3EFF0900005E0A3E09009A87516
:1063E000F02512557DEE75F025A42583F583E0FF99
:1063F000A3E09008BACFF0A3EFF07B017A00790711
:10640000125E759008B37401F0A37400F0A37407D2
:10641000F0900002E0FBA3E0FAA3E0F912909D9057
:106420000005E0FEA3E0FF2439F58274093EF58300
:10643000E075F005A424E5F582E43408F583E07006
:10644000030264D99008B374FFF0A37444F0A374FA
:106450008CF09009AA75F025EF12557DEE75F025A8
:10646000A42583F583E0FDA3E09008B6CDF0A3ED6D
:10647000F09009AC75F025EF12557DEE75F025A46E
:106480002583F583E0FFA3E09008B8CFF0A3EFF0F9
:10649000900005E0A3E09009AE75F02512557DEE61
:1064A00075F025A42583F583E0FFA3E09008BACF1B
:1064B000F0A3EFF07B017A007907125E759008B3C4
:1064C0007401F0A37400F0A37407F0900002E0FBE5
:1064D000A3E0FAA3E0F912909D900005E0FEA3E08E
:1064E000FF2439F58274093EF583E075F005A42494
:1064F000E6F582E43408F583E070030265939008C2
:10650000B374FFF0A37444F0A3749EF09009B075C7
:10651000F025EF12557DEE75F025A42583F583E077
:10652000FDA3E09008B6CDF0A3EDF09009B275F0B0
:1065300025EF12557DEE75F025A42583F583E0FF48
:10654000A3E09008B8CFF0A3EFF0900005E0A3E03F
:106550009009B475F02512557DEE75F025A42583BC
:10656000F583E0FFA3E09008BACFF0A3EFF07B0142
:106570007A007907125E759008B37401F0A3740075
:10658000F0A37407F0900002E0FBA3E0FAA3E0F9A7
:1065900012909D900005E0FEA3E02439F582740975
:1065A0003EF583E075F005A424E7F582E43408F5B0
:1065B00083E070030266889008B374FFF0A374440C
:1065C000F0A374AFF0900005E0FAA3E0FB9009B6E9
:1065D00075F02512557DEA75F025A42583F583E035
:1065E000FCA3E0FDA3E0FEA3E0FF9008B612556017
:1065F0009009BA75F025EB12557DEA75F025A425B2
:1066000083F583E0FCA3E0FDA3E0FEA3E0FF900898
:10661000BA125560900005E0FAA3E0FB9009BE7540
:10662000F02512557DEA75F025A42583F583E0FC5D
:10663000A3E0FDA3E0FEA3E0FF9008BE125560902A
:1066400009C275F025EB12557DEA75F025A4258366
:10665000F583E0FCA3E0FDA3E0FEA3E0FF9008C209
:106660001255607B017A007907125E759008B37449
:1066700001F0A37400F0A37407F0900002E0FBA304
:10668000E0FAA3E0F912909D900005E0FEA3E0FF80
:106690002439F58274093EF583E075F005A424E8F9
:1066A000F582E43408F583E060529008B374FFF09B
:1066B000A37444F0A374CCF09009C675F025EF12D2
:1066C000557DEE75F025A42583F583E0FFA3E090CA
:1066D00008B6CFF0A3EFF07B017A007907125E7560
:1066E0009008B37401F0A37400F0A37407F0900055
:1066F00002E0FBA3E0FAA3E0F912909D900006E00F
:1067000004F07006900005E004F00262F5229000AB
:10671000037401F0E4A3F0A304F0A374A1F0E490E7
:106720000002F0900C18E0FF900002E0FEC39F40D2
:1067300003026AD5900164743AF074392EF582E44C
:106740003409F583E075F005A424E4F582E4340807
:10675000F583E0607B900002E0FF75F025A424A49F
:10676000F582E5F03409F583E0FCA3E0FD90000339
:10677000E0FE2464F582E43401F583ECF0A3EDF04F
:1067800075F025EFA424A6F582E5F03409F583E041
:10679000FCA3E0FD74662EF582E43401F583ECF091
:1067A000A3EDF0900002E075F025A424A8F582E5A1
:1067B000F03409F583E0FCA3E0FD74682EF582E473
:1067C0003401F583ECF0A3EDF0900003E02406F033
:1067D000900002E0FF2439F582E43409F583E07586
:1067E000F005A424E5F582E43408F583E0607890B0
:1067F0000002E0FE75F025A424AAF582E5F0340934
:10680000F583E0FCA3E0FD900003E0FB2464F58247
:10681000E43401F583ECF0A3EDF075F025EEA4244B
:10682000ACF582E5F03409F583E0FCA3E0FD746685
:106830002BF582E43401F583ECF0A3EDF075F0253F
:10684000EFA424AEF582E5F03409F583E0FEA3E081
:10685000FF74682BF582E43401F583EEF0A3EFF0CA
:10686000900003E02406F0900002E0FF2439F58256
:10687000E43409F583E075F005A424E6F582E434F8
:1068800008F583E06078900002E0FE75F025A4240E
:10689000B0F582E5F03409F583E0FCA3E0FD90005B
:1068A00003E0FB2464F582E43401F583ECF0A3ED0E
:1068B000F075F025EEA424B2F582E5F03409F583F5
:1068C000E0FCA3E0FD74662BF582E43401F583EC73
:1068D000F0A3EDF075F025EFA424B4F582E5F034D3
:1068E00009F583E0FEA3E0FF74682BF582E4340130
:1068F000F583EEF0A3EFF0900003E02406F09000A3
:1069000002E02439F582E43409F583E075F005A44A
:1069100024E7F582E43408F583E070030269CE9041
:106920000002E0FB75F025A424B6F582E5F03409F9
:10693000F583E0FCA3E0FDA3E0FEA3E0FF900003ED
:10694000E0FA2464F582E43401F58312556075F0B1
:1069500025EBA424BAF582E5F03409F583E0FCA325
:10696000E0FDA3E0FEA3E0FF74682AF582E43401B1
:10697000F583125560900002E0FB75F025A424BE5B
:10698000F582E5F03409F583E0FCA3E0FDA3E0FE29
:10699000A3E0FF746C2AF582E43401F5831255609C
:1069A00075F025EBA424C2F582E5F03409F583E007
:1069B000FCA3E0FDA3E0FEA3E0FF74702AF582E4EF
:1069C0003401F583125560900003E02410F090002C
:1069D00002E0FF2439F582E43409F583E075F0051F
:1069E000A424E8F582E43408F583E0602D75F025F1
:1069F000EFA424C6F582E5F03409F583E0FEA3E0B8
:106A0000FF900003E02464F582E43401F583EEF0A6
:106A1000A3EFF0900003E02402F0900002E024399C
:106A2000F582E43409F583E025E0244CF582E43472
:106A300010F583E0FEA3E02463F58274013EF58344
:106A4000743AF09000037401F0E4A3F0900002E0C7
:106A50002439F582E43409F583E0F925E0244CF586
:106A600082E43410F583E0FEA3E0FF900004E0FD33
:106A7000D3EF9D7480F8EE648098402BE0FF24648F
:106A8000F582E43401F583E0FEEF900005E02DFD92
:106A9000E433FC74062DF58274003CF583EEF0902F
:106AA0000004E004F080A5E925E0244CF582E434FC
:106AB00010F583E0A3E0FF900005E02FF07E007F5B
:106AC000167D007B017A017964125620900002E065
:106AD00004F00267237B017A0079069010D8E0A3C6
:106AE000E014FD1298A19010D8E0FCA3E0FD24056D
:106AF000F58274003CF583EFF07B017A0079061291
:106B00008B9822E4900002F0A3F0A3F0A3F0A3F08E
:106B1000A3F0A3F0A3F090164BF0900C18E0FF90B8
:106B2000164BE0FEC39F4003026E3D74392EF58282
:106B3000E43409F583E0FF7E001294F490164BE0F4
:106B40002439F582E43409F583E0FF7E00128A5D82
:106B5000E4900006F0A3F0900006E0FEA3E0FFC37F
:106B60009403EE94004003026BFEEF25E0FFEE334A
:106B7000FE90164BE0F92439F582E43409F583E000
:106B8000FD75F006A42472F582E43410F583E582E5
:106B90002FF582E5833EF583E0FB900002E4F0A34D
:106BA000EBF0ED75F006A42473F582E43410F58360
:106BB000E5822FF582E5833EF583E0FD900003E05A
:106BC000FCED900007E025E0FF900006E033FE7545
:106BD000F025E9A424D8F582E5F0340DF583E582AB
:106BE0002FF582E5833EF583ECF0A3EDF0900007EE
:106BF000E004F07006900006E004F0026B57E490A9
:106C00000006F0A3F0900006E0FEA3E0FFC39403AB
:106C1000EE94004003026CACEF25E0FFEE33FE90F3
:106C2000164BE0F92439F582E43409F583E0FD756B
:106C3000F006A424B1F582E4340CF583E5822FF547
:106C400082E5833EF583E0FB900002E4F0A3EBF0E5
:106C5000ED75F006A424B2F582E4340CF583E582E8
:106C60002FF582E5833EF583E0FD900003E0FCED27
:106C7000900007E025E0FF900006E033FE75F02568
:106C8000E9A424DEF582E5F0340DF583E5822FF5E5
:106C900082E5833EF583ECF0A3EDF0900007E0047D
:106CA000F07006900006E004F0026C05E490000627
:106CB000F0A3F0900006E0FEA3E0FFC39403EE947F
:106CC000004003026D5AEF25E0FFEE33FE90164BB5
:106CD000E0F92439F582E43409F583E0FD75F00626
:106CE000A42419F582E4340CF583E5822FF582E5BE
:106CF000833EF583E0FB900002E4F0A3EBF0ED753A
:106D0000F006A4241AF582E4340CF583E5822FF50D
:106D100082E5833EF583E0FD900003E0FCED90000A
:106D200007E025E0FF900006E033FE75F025E9A4BA
:106D300024E4F582E5F0340DF583E5822FF582E554
:106D4000833EF583ECF0A3EDF0900007E004F070D3
:106D500006900006E004F0026CB3E4900006F0A395
:106D6000F090164BE0707F900006E0FEA3E0FFC3BA
:106D70009404EE9400506FEF7802C333CE33CED834
:106D8000F924A1F582740C3EF583E0FCA3E0FDA399
:106D9000E0FEA3E0FFC004C005C006C007900006E7
:106DA000E0FEA3E07802C333CE33CED8F9FF9016CD
:106DB0004BE075F025A424EAF582E5F0340DF58367
:106DC000E5822FF582E5833EF583D007D006D00516
:106DD000D004125560900007E004F07006900006A1
:106DE000E004F0026D6190164BE0FD2439F582E479
:106DF0003409F583E0FF25E0247FF582E4340CF5C7
:106E000083E0FB900002E4F0A3EBF0EF25E02480A8
:106E1000F582E4340CF583E0FB900003E0FEEBFF29
:106E200075F025EDA424FAF582E5F0340DF583EE36
:106E3000F0A3EFF090164BE004F0026B1A22E490FE
:106E40000003F0FE7F25FD7B017A0979A31256200D
:106E50007E007F117D007B017A097939125620E48A
:106E6000900002F0900002E0FFC3941150227E00D7
:106E70001294F4E47F0AFEFDFC128CAD1283F7E459
:106E80007F0AFEFDFC128CAD900002E004F080D47D
:106E9000E47F32FEFDFC128CADE4900002F0900025
:106EA00002E0FFC3941150177E001294F490000288
:106EB000E0FF7E00128DBC900002E004F080DFE471
:106EC000900002F0900002E0FFC39411501B7E007E
:106ED0001294F4E47F0AFEFDFC128CAD7F75129CC7
:106EE00093900002E004F080DBE4FFFE1294F4E4EF
:106EF0007F0AFEFDFC128CAD7F75129C93900004FE
:106F0000E4F0A3EFF0E4900004F0A3F0900C18F08C
:106F1000900002F0900002E0FFC39411505F7E00E9
:106F20001294F4E47F0AFEFDFC128CAD7F75129C76
:106F3000937E00900004EEF0A3EFF0647170239054
:106F40000C18E004F0E4900004F0A3F0900002E0DC
:106F500025E02406F582E43400F583E4F0A304F090
:106F60008013900002E025E02406F582E43400F569
:106F700083E4F0A3F0900002E004F08097E4900036
:106F800002F0900002E0FFC394115034EF25E0249A
:106F900006F582E43400F583E0FEA3E064014E7060
:106FA00017900002E0A3E02439F582E43409F58368
:106FB000EFF0900003E004F0900002E004F080C2E3
:106FC000E4FF129DE6E47F0AFEFDFC128CAD7F011A
:106FD000129DE6E47F0AFEFDFC128CADE4900002F7
:106FE000F0900002E0FFC3941150227E001294F44E
:106FF000E47F0AFEFDFC128CAD128306E47F0AFEDC
:10700000FDFC128CAD900002E004F080D4E47F32ED
:10701000FEFDFC128CAD7E007F227D007B017A108C
:10702000794C1256209010D8E4F0A304F0E49000BC
:1070300002F0900C18E0FF900002E0FEC39F4003B6
:1070400002710DE0FF2439F582E43409F583E0FD97
:1070500075F005A424E5F582E43408F583E075F0C5
:1070600006A4FCED75F005A424E4F582E43408F5EB
:1070700083E075F006A42CFD74392FF582E4340901
:10708000F583E0FF75F005A424E6F582E43408F505
:1070900083E075F006A42DFDEF75F005A424E7F557
:1070A00082E43408F583E0C454F02DFF74392EF5E2
:1070B00082E43409F583E0FD75F005A424E8F58247
:1070C000E43408F583E025E02F2402FBED25E024DD
:1070D0004CF582E43410F583E4F0A3EBF074392E20
:1070E000F582E43409F583E025E0244CF582E434AC
:1070F00010F583E0FEA3E0FF9010D9E02FF0901090
:10710000D8E03EF0900002E004F00270329010D916
:10711000E004F070069010D8E004F022900003EC38
:10712000F0A3EDF0A3EAF0A3EBF0900008E0FED3AB
:10713000940050030272BCEED3940140030272BC6F
:10714000EF24FC601524FD603C14606224FE700393
:107150000271D724096003027200900007E0D39403
:107160000F40117B0C7A017918129EC8900009EF2C
:10717000F00272057B0C7A01791C129EC8900009FE
:10718000EFF0027205900007E0D3940F40107B0CE3
:107190007A017919129EC8900009EFF080677B0C84
:1071A0007A01791D129EC8900009EFF08057900077
:1071B00007E0D3940F40107B0C7A01791A129EC815
:1071C000900009EFF0803E7B0C7A01791E129EC878
:1071D000900009EFF0802E900007E0D3940F40104C
:1071E0007B0C7A01791B129EC8900009EFF0801584
:1071F0007B0C7A01791F129EC8900009EFF0800580
:10720000E4900009F0900009E0FF3395E0FEFDFCFA
:10721000E47B20FAF9F81253A3A804A905AA06AB47
:1072200007900003E0FEA3E0FFE4FCFDEB2FFFEA84
:107230003EFEED39FDEC38FCAB07AA06A905F8A324
:10724000E0FEA3E0FFE4FCFD1253A3E4FB7A80F927
:10725000F812542EAD07AC06900007E0C3940E5010
:107260002FE0FBC3740E9BFFEDA807088005CEC37B
:1072700013CE13D8F9FDAC06EB04FF900008E075BF
:10728000F003A42421F582E43416F583EFF0801492
:10729000900008E075F003A42421F582E43416F58B
:1072A00083740FF0AF05900008E075F003A4241F6D
:1072B000F582E43416F583ECF0A3EFF02290006140
:1072C000EBF0A3EAF0A3E9F02404F9E43AFA12554A
:1072D00026A804A905AA06AB07124E79C004C0056A
:1072E000C006C007900061E0FBA3E0FAA3E0F9123A
:1072F0005526A804A905AA06AB07124E79D003D0DB
:1073000002D001D000124D88C004C005C006C007DD
:10731000900061E0FBA3E0FAA3E02408F9E43AFA64
:10732000125526A804A905AA06AB07124E79D00368
:10733000D002D001D000124D88C004C005C006C0E4
:1073400007900061E0FBA3E0FAA3E0240CF9E43A23
:10735000FA125526A804A905AA06AB07124E79D041
:1073600003D002D001D000124D881284E89000644E
:10737000125560900061E0FBA3E0FAA3E0F9C003BE
:10738000C002C001125526900064E0F8A3E0F9A302
:10739000E0FAA3E0FB124E79D001D002D0031255DF
:1073A00046900061E0FBA3E0FAA3E02404F9E43A8C
:1073B000FA125526900064E0F8A3E0F9A3E0FAA3DE
:1073C000E0FB124E79900061E0FBA3E0FAA3E02419
:1073D00004F9E43AFA125546900061E0FBA3E0FAA2
:1073E000A3E02408F9E43AFA125526900064E0F884
:1073F000A3E0F9A3E0FAA3E0FB124E79900061E06C
:10740000FBA3E0FAA3E02408F9E43AFA1255469007
:107410000061E0FBA3E0FAA3E0240CF9E43AFA12DD
:107420005526900064E0F8A3E0F9A3E0FAA3E0FB9E
:10743000124E79900061E0FBA3E0FAA3E0240CF97E
:10744000E43AFA125546227B007A4079807D027C2C
:1074500000129E329040827418F07B007A4079844A
:10746000E4FDFC129E329040867450F07B007A401E
:1074700079887D177C00129E3290408A7418F07BC8
:10748000007A40798C7D2F7C00129E3290408E7461
:1074900018F07CA67D4C7B007A4179007F047E0049
:1074A000129A7D9043007406F09042007452F07B73
:1074B0000C7A01790F129EC89046A1EFF07B007AFA
:1074C0004279227D107C07129E327B007A4279201D
:1074D0007D517C12129E32E4900004F07F19FEFD73
:1074E000FC900000125560900000E0A3E0A3E0FED5
:1074F000A3E0D39400EE9400404AA3E0FF6403604D
:1075000043904225E05401FEEF25E04E54039000E5
:1075100004F0E47FE07E01FDFC129800900000E0A2
:10752000FCA3E0FDA3E0FEA3E0FF74FFEF24FFFF58
:10753000EE34FFFEED34FFFDEC34FFFC9000001252
:10754000556080A3900000E0A3E0A3E0FEA3E04E1E
:1075500070057F03129FD77B007A4079047D007C01
:1075600001129E329040047407F0904006E4F090BF
:1075700040087448F0904004E4F0904009F09040D6
:10758000017402F090400B7404F09043A2E0440FA9
:10759000F09043A1E04401F09043A0E04480F02249
:1075A000900002EEF0A3EFF0A3EDF0129F549000D4
:1075B00006EFF0129F28900007EEF0A3EFF0900086
:1075C00002E0FCA3E0FD6F7002EC6E70030276D067
:1075D0009043A2E05402900005F0A3E0703BA3E0CA
:1075E000FEA3E0FF4E6004ED4C702EEF4E70117B59
:1075F000027A407984129E34904086E054BFF02293
:10760000904086E04440F07B027A4079849000020A
:10761000E0FCA3E0FD129E3422900005E06054904F
:107620004001E4F09040107402F0904014E4F090B7
:107630004008E0547FF0904086E05408600A9000D3
:1076400002E07002A3E0702B7B027A407902900086
:1076500007E0FCA3E0FD129E349040017407F09017
:107660004001E0540170F89043A2E054FDF09040D6
:1076700001E4F09043A2E05402602F7B027A40794B
:1076800002900002E0FCA3E0FD129E34900004E0B2
:1076900060047F0280027F00EF4401904001F0907F
:1076A0004001E05401602980F6227B027A4079840F
:1076B000900002E0FCA3E0FD129E349043A2C08340
:1076C000C082E0FF900005E0FEEF4ED082D083F054
:1076D00022900002EEF0A3EFF0A3EDF0129F3C9099
:1076E0000006EFF0129EF6900007EEF0A3EFF09088
:1076F0000002E0FCA3E0FD6F7002EC6E7003027804
:10770000009043A2E05401900005F0A3E0703BA379
:10771000E0FEA3E0FF4E6004ED4C702EEF4E7011C2
:107720007B027A407980129E34904082E054BFF010
:1077300022904082E04440F07B027A4079809000C1
:1077400002E0FCA3E0FD129E3422900005E06053AD
:10775000904001E4F090401004F0904014E4F09068
:107760004008E0547FF0904082E05408600A9000A6
:1077700002E07002A3E0702B7B027A407902900055
:1077800007E0FCA3E0FD129E349040017407F090E6
:107790004001E0540170F89043A2E054FEF09040A4
:1077A00001E4F09043A2E05401602F7B027A40791B
:1077B00002900002E0FCA3E0FD129E34900004E081
:1077C00060047F0280027F00EF4401904001F0904E
:1077D0004001E05401602980F6227B027A407980E2
:1077E000900002E0FCA3E0FD129E349043A2C0830F
:1077F000C082E0FF900005E0FEEF4ED082D083F023
:1078000022900002EEF0A3EFF0A3EDF0129F5C9047
:107810000006EFF0129F32900007EEF0A3EFF09019
:107820000002E0FCA3E0FD6F7002EC6E70030279D1
:107830002F9043A1E05401900005F0A3E0703AA31B
:10784000E0FEA3E0FF4E6004ED4C702DEF4E701093
:107850007B027A41F9129E34904102E054BFF0223B
:10786000904102E04440F07B027A417900900002AE
:10787000E0FCA3E0FD129E3422900005E0605390EE
:107880004001E4F090401404F0904010E4F0904087
:1078900008E0547FF0904102E05408600A90000232
:1078A000E07002A3E0702B7B027A4079029000071F
:1078B000E0FCA3E0FD129E349040017407F090407C
:1078C00001E0540170F89043A1E054FEF0904001B3
:1078D000E4F09043A1E05401602F7B027A407902EA
:1078E000900002E0FCA3E0FD129E34900004E060F2
:1078F000047F0280027F00EF4401904001F090403D
:1079000001E05401602980F6227B027A41790090DF
:107910000002E0FCA3E0FD129E349043A1C083C0AE
:1079200082E0FF900005E0FEEF4ED082D083F0228F
:107930007B007A4679E8129EC8EF4401FD7B007A0D
:107940004679E8129ED41285D7905883740AF07C49
:10795000A67D687B007A7679507F047E00129A7D3E
:107960007B017A507903129EC8EF4402FD7B017AB5
:10797000507903129ED47B017A507913129EC8EF7E
:107980004402FD7B017A507913129ED49043A0E00B
:107990004440F09043C2E04410F07B087A1F79E441
:1079A000900005E4F0A37451F0A37402F07F087E08
:1079B000001297A27B087A1F79EC900005E4F0A3EF
:1079C0007451F0A374C2F07F087E001297A27B0866
:1079D0007A1F79F4900005E4F0A37451F0A374F2D7
:1079E000F07F087E001297A27CA67D567B007A511C
:1079F00079107F0A7E00129A7D7CA67D607B007ADA
:107A00005179227F087E00129A7D9044F47401F02F
:107A1000904322E04408F09046ECE0C39405500601
:107A2000904689743AF090480074F1F0127447124D
:107A3000983B7B007A4379A0C003C002900005EB1D
:107A4000F0A3EAF0A374B0F0D002D0037F0E7E0062
:107A50001297A29043B0E054FDF022E4F50912938E
:107A6000C3EF7003027B81E509C394064003027BE8
:107A7000811291C68F08E522146049146060147069
:107A800003027B11147003027B5F240470D08526EF
:107A900025852726850827E526B43A11E527B43A37
:107AA0000CE4F525F526F52775220180B1E525B40E
:107AB0003FACE526B40DA7E527640A70A1FFFE12CE
:107AC0009935809A9008E1E065086004E508700443
:107AD000C2008002D200E4F524752202808085086D
:107AE00024E524D394015008E4F524F522027A5EBB
:107AF000E524D394804008E4F524F522027A5EE47C
:107B0000F523200006752203027A5E752204027AAC
:107B10005E74302523F582E43415F583E508F0051D
:107B200023E523C395245003027A5E200025AF2469
:107B30007E0078527C0D7D017B017A1579301257D9
:107B400008900DD2E4F0A3E524F0900DD67401F076
:107B500012820EE4F523F524F5220509027A5E155A
:107B600024E5246003027A5EF523F5247F01129F49
:107B700085E4FF129F85E4F5220509027A5E027A08
:107B80005E22900061EBF0A3EAF0A3E9F02404F98F
:107B9000E43AFA125526A804A905AA06AB07124E24
:107BA00079C004C005C006C007900061E0FBA3E0F7
:107BB000FAA3E0F9125526A804A905AA06AB0712F4
:107BC0004E79D003D002D001D000124D88C004C03D
:107BD00005C006C007900061E0FBA3E0FAA3E02423
:107BE00008F9E43AFA125526A804A905AA06AB0733
:107BF000124E79D003D002D001D000124D881284E9
:107C0000E8900064125560900061E0FBA3E0FAA3E5
:107C1000E0F9C003C002C001125526900064E0F8EC
:107C2000A3E0F9A3E0FAA3E0FB124E79D001D00261
:107C3000D003125546900061E0FBA3E0FAA3E024D4
:107C400004F9E43AFA125526900064E0F8A3E0F94A
:107C5000A3E0FAA3E0FB124E79900061E0FBA3E001
:107C6000FAA3E02404F9E43AFA125546900061E0E0
:107C7000FBA3E0FAA3E02408F9E43AFA12552690AF
:107C80000064E0F8A3E0F9A3E0FAA3E0FB124E7968
:107C9000900061E0FBA3E0FAA3E02408F9E43AFADB
:107CA0001255462275930078007583467582E8E088
:107CB0004401F00090480074C0F07581299076BCB2
:107CC000E4F0A3F0A3F0A3F0907010F0907019F01E
:107CD000907020F09076007410F0907604E4F0A399
:107CE000F0A3F0A3F09078007800087400F0A3747B
:107CF00008F0E8B8040274FFA3F0A37422F0A374A0
:107D0000BCF0A37476F0A3E4F0A3E81475F008A423
:107D1000F0A3B804D59070107401F0907014F07E48
:107D2000707F18122604907010F0EA901634F0025A
:107D3000261175281F7529FD127930129738027D9A
:107D40007C028110E493A3F8E493A34003F680013E
:107D5000F208DFF48029E493A3F85407240CC8C385
:107D600033C4540F4420C8834004F456800146F6BF
:107D7000DFE4800B0102040810204080908B06E4B1
:107D80007E019360BCA3FF543F30E509541FFEE41D
:107D900093A360010ECF54C025E060A840B8E493DF
:107DA000A3FAE493A3F8E493A3C8C582C8CAC58321
:107DB000CAF0A3C8C582C8CAC583CADFE9DEE780A6
:107DC000BEE4900061F0A3F0A3EEF0A3EFF07F3CDF
:107DD000129C93900061EFF0129BC97F3B129C9321
:107DE000900062EFF0129BC9900062E0FFA3E0FCFC
:107DF000A3E0FD90107275F00612557DEC75F0064B
:107E0000A42583F583EFF0900061E0FF9010737577
:107E1000F006ED12557DEC75F006A42583F583EF91
:107E2000F0E4900061F0A3F07F3E129C939000611B
:107E3000EFF0129BC97F3D129C93900062EFF0120D
:107E40009BC9900062E0FFA3E0FCA3E0FD901074EA
:107E500075F00612557DEC75F006A42583F583EFC9
:107E6000F0900061E0FF90107575F006ED12557D01
:107E7000EC75F006A42583F583EFF0E4900061F043
:107E8000A3F07F40129C93900061EFF0129BC97F9A
:107E90003F129C93900062EFF0129BC9900062E049
:107EA000FFA3E0FCA3E0FD90107675F00612557D6F
:107EB000EC75F006A42583F583EFF0900061E0FFF8
:107EC00090107775F006ED12557DEC75F006A4253F
:107ED00083F583EFF0E4900061F0A3F022E49000DA
:107EE00061F0A3F0A3EEF0A3EFF07F44129C939017
:107EF0000061EFF0129BC97F43129C93900062EFE8
:107F0000F0129BC9900062E0FFA3E0FCA3E0FD90AB
:107F10000CB175F00612557DEC75F006A42583F5BD
:107F200083EFF0900061E0FF900CB275F006ED1267
:107F3000557DEC75F006A42583F583EFF0E4900001
:107F400061F0A3F07F46129C93900061EFF0129BCA
:107F5000C97F45129C93900062EFF0129BC990007C
:107F600062E0FFA3E0FCA3E0FD900CB375F0061205
:107F7000557DEC75F006A42583F583EFF090006144
:107F8000E0FF900CB475F006ED12557DEC75F0062F
:107F9000A42583F583EFF0E4900061F0A3F07F481F
:107FA000129C93900061EFF0129BC97F47129C9343
:107FB000900062EFF0129BC9900062E0FFA3E0FC2A
:107FC000A3E0FD900CB575F00612557DEC75F0063A
:107FD000A42583F583EFF0900061E0FF900CB67567
:107FE000F006ED12557DEC75F006A42583F583EFC0
:107FF000F0E4900061F0A3F02290000EEEF0A3EF09
:10800000F07F49129C9390000CEFF0129BC97F4ABD
:10801000129C9390000DEFF0129BC990000DE0FFB1
:10802000A3E0FCA3E0FD900C1975F00612557DEC61
:1080300075F006A42583F583EFF090000CE0FF9027
:108040000C1A75F006ED12557DEC75F006A425832B
:10805000F583EFF0E490000CF0A3F07F4B129C93BB
:1080600090000CEFF0129BC97F4C129C9390000D76
:10807000EFF0129BC990000DE0FFA3E0FCA3E0FD30
:10808000900C1B75F00612557DEC75F006A4258347
:10809000F583EFF090000CE0FF900C1C75F006EDFE
:1080A00012557DEC75F006A42583F583EFF0E4907E
:1080B000000CF0A3F07F4D129C9390000CEFF01297
:1080C0009BC97F4E129C9390000DEFF0129BC990BC
:1080D000000DE0FFA3E0FCA3E0FD900C1D75F00691
:1080E00012557DEC75F006A42583F583EFF0900022
:1080F0000CE0FF900C1E75F006ED12557DEC75F04E
:1081000006A42583F583EFF0E490000CF0A3F022A1
:10811000129FD3129412E47F64FEFDFC128CAD7F9B
:1081200001129F8B129AEA129D5112986E1299C5F4
:10813000129DB07E977FFD129B6DE4FF129F85120A
:108140009D77129D64D2AF9044F474FDF0129D8A25
:10815000129C31129AA3129E05129DC2129B4DE4ED
:108160007F0AFEFDFC128CAD129BFF7F01129FAFB8
:10817000E4900006F0A3F0FBFA7D017F021294AABE
:10818000900000EFF012964A900001EFF0E0FBFF44
:108190009000067486F07D087C00128D357B017A94
:1081A0001079DAE9EAE4AB01900001E0FF7D107C90
:1081B0004E128FB2900000E0FFA3E0FD129BAB9047
:1081C0000000E0FF7D0112945F7F01129DE6126EB8
:1081D0003EE4900DD2F0A3F0900DD6F0E4FF129F94
:1081E00091129277129F97EF700A300AF7C20A1223
:1081F0007A5B80F07F01129F91129F97EF6401607C
:10820000F8129D3DEF30E7D41299C580CF22900D32
:1082100052E0F50A7B017A0D7952900DD2E0A3E08D
:1082200014FD1298A1900DD2E0FCA3E02451F58238
:10823000740D3CF583E0B50703D38001C34006E429
:10824000900DD6F022E50A1255A9828E0082920383
:1082500082960482AC0582760682D00982BE0A82AA
:10826000820C82728B82F2A182F6A28302A60000A7
:108270008305129B2D22900D53E0FEA3E0FF12997F
:108280003522900D53E0FEA3E0FF12261A22129D24
:108290002922129CD5227F327E00128901EF6006CE
:1082A0007F01129CC022E4FF129CC02212953DEF78
:1082B00060067F01129CC022E4FF129CC022128E35
:1082C00040EF60067F01129CC022E4FF129CC02296
:1082D0007F01129CC0E47FE87E03FDFC128CADE4BC
:1082E000FF129F8BE47FE87E03FDFC128CAD129F92
:1082F000002212670E22900D53E0FEA3E0FF12262B
:108300001A221295C9227D107F6B129965E47F0AAB
:10831000FEFDFC128CAD7D207F6A129965E47F0A18
:10832000FEFDFC128CAD7D067F1A129965E47F0A72
:10833000FEFDFC128CAD7D187F1B129965E47F0A4F
:10834000FEFDFC128CADE4FD7F1C129965E47F0AF2
:10835000FEFDFC128CAD7D057F1D129965E47F0A40
:10836000FEFDFC128CAD7D0D7F24129965E47F0A21
:10837000FEFDFC128CAD7D0C7F25129965E47F0A11
:10838000FEFDFC128CAD7D0A7F26129965E47F0A02
:10839000FEFDFC128CAD7D167F63129965E47F0AA9
:1083A000FEFDFC128CAD7D817F27129965E47F0A6A
:1083B000FEFDFC128CAD7D8C7F25129965E47F0A51
:1083C000FEFDFC128CAD7D037F26129965E47F0AC9
:1083D000FEFDFC128CAD7D8D7F27129965E47F0A2E
:1083E000FEFDFC128CADE4FD7F6B129965E47F14F9
:1083F000FEFDFC128CAD227D107F6B129965E47F2F
:108400000AFEFDFC128CAD7D207F6A129965E47F27
:108410000AFEFDFC128CAD7D067F1A129965E47F81
:108420000AFEFDFC128CAD7D187F1B129965E47F5E
:108430000AFEFDFC128CADE4FD7F1C129965E47F01
:108440000AFEFDFC128CAD7D057F1D129965E47F4F
:108450000AFEFDFC128CAD7D0D7F24129965E47F30
:108460000AFEFDFC128CAD7D0C7F25129965E47F20
:108470000AFEFDFC128CAD7D0A7F26129965E47F11
:108480000AFEFDFC128CAD7D1F7F63129965E47FAF
:108490000AFEFDFC128CAD7D817F27129965E47F79
:1084A0000AFEFDFC128CAD7D8C7F25129965E47F60
:1084B0000AFEFDFC128CAD7D107F26129965E47FCB
:1084C0000AFEFDFC128CAD7D837F27129965E47F47
:1084D0000AFEFDFC128CADE4FD7F6B129965E47F12
:1084E00014FEFDFC128CAD22900068125560E4FF72
:1084F000FEFD7C3F900068E0F8A3E0F9A3E0FAA35A
:10850000E0FB124E7990006C125560900068E0FC20
:10851000A3E0FDA3E0FEA3E0FF9000701255609081
:108520000070E0FCA3E0FDA3E0FEA3E0FFA3125572
:1085300060900074E0FCA3E0FDA3E0FEA3E0FF7800
:10854000011254FFC374DF9FFF74599EFE74379D60
:10855000FD745F9CFC900074125560900074E0FC08
:10856000A3E0FDA3E0FEA3E0FF9000701255609031
:108570000070E0FCA3E0FDA3E0FEA3E0FF90006C30
:10858000E0F8A3E0F9A3E0FAA3E0FB124E79900033
:1085900070E0F8A3E0F9A3E0FAA3E0FB124E79A89B
:1085A00004A905AA06AB07E4FFFE7DC07C3F124D7F
:1085B00084900070E0F8A3E0F9A3E0FAA3E0FB12D6
:1085C0004E79900070125560900070E0FCA3E0FDC1
:1085D000A3E0FEA3E0FF22E4FFFEFDFC90164412A0
:1085E00055609076007410F09070107401F09070E7
:1085F00019E4F07B027A78F97DC07C02129E3490F7
:1086000078027401F0A374A3F07B027A787904C035
:1086100003C002C0017BFF7AA3798CE9EAE4AD01D3
:10862000AC02D001D002D003129E347B027A78795A
:10863000067D087C78129E347B027A7679047D1060
:108640007C00129E347B027A767906E4FDFC129E51
:1086500034907029740BF090703904F09070597454
:1086600012F09070697419F09070797421F0907024
:10867000147401F0907018E0540170F8907028E0C4
:10868000540170F8907038E0540170F8907058E020
:10869000540170F8907068E0540170F8907078E0C0
:1086A000540170F87B087A0479C09000057401F0D9
:1086B000A37451F0A37410F07F067E001297A222DB
:1086C000900009EBF0A3EAF0A3E9F0A3EDF0129C0F
:1086D000FF90000CE0C394804003028793129B8CB0
:1086E000EF600302878B90000D74FFF0900009E0AB
:1086F000FBA3E0FAA3E0F9900012E4F0A37410F0F9
:108700007F4012902AEF6407707C904722E0540269
:1087100060F8904722E054026009E0FF1313543FD1
:10872000FF80027FFFEF700490000DF090000DE0DD
:10873000704E90000CE0FD7C00901642E0FBA3E040
:10874000900012F07F4012931FEF6407702A900090
:108750000D74FFF0904722E0540260F8904722E049
:1087600054026009E0FF1313543FFF80027FFFEFC4
:10877000701490000DF0800E90000D74FFF08006D4
:1087800090000D74FFF0129EE0800E90000D7404B6
:10879000F0800690000D7401F090000DE0FF229033
:1087A000161A7401F0E4901625F07F10129EA17F36
:1087B00010129EAE7D077F1D129C1890589674046F
:1087C000F0A3E4F090589EF0905B07E04418F0901E
:1087D0005893E4F0905B88F0A3F0905880740AF00E
:1087E000A3E4F0905883F09058887412F0A304F03A
:1087F00090588DE4F0904E017414F0900007740CC2
:10880000F0A37401F07B007A807D6B7C8D7F021277
:10881000711C90161AE075F003A42421F582E4344B
:1088200016F583E0904E0EF090161AE075F003A452
