:40000000021415008F828E83E0540100000070F82278FFE4F6D8FD02147A900000EFF0E4F53FF540F541F54275430AC200121F87EF60057F00121FB7122067D2AF9044F4FC
:4000400074FDF0E4F53B754900754A00754B37900000E0FF70067EFF7FFF80008F4C7B017A0079017D2C7C011212FA8F3E900000E060021543E5436004E53E70C9E53E6046
:400080000302059FC3E5389407E53794004008900001E064016005753B04807E900004E0FE900003E0FDEEF53FEDF54074062540F5827400353FF583E0FE74052540F58228
:4000C0007400353FF583E0FDEEF53CEDF53DE5402407FFE4353FFED3EF9538EE95374005753B03803574072540F5827400353FF583E064176005753B04801F7B017A0079B1
:4001000001E5402404FDE4353FFC121C66EF653D7003EE653C6003753B08E4F539F53AE53B600302058E900005E0F536753B04900002E012088801553101823202083403A0
:400140007A3503883703D438020839040F3A05783B0000058B20000302058EE540453F600302058EFF120D84EF70047F0180027F00900005EFF0753900753A01E4F53B0260
:40018000058E20000302058EE5406401453F600302058EE536C39401400302058E900357E0FEA3E0F5828E83120842E4FBFA7901F81207188F24E536B5241E900357E0FE6B
:4001C000A3E0F5828E83120842E4FB7A01F9F81207187522008F238014E536D395244007E4F522F5238006752201752300E523900005F0E522A3F0A374FFF0E4A3F0F539B6
:40020000753A04F53B02058E900002E06434703C20000302058EE5406403453F600302058EE536C39440400FE536D3947F50087541007542108006754101754220AE41AF47
:40024000427D007B017A01792D1208FF20000302058EC3E5409403E53F9400500302058EE54024FDFFE53F34FFFE742D2542F974013541A801FC7D017B017A0079081209F7
:40028000E7E54024FDFFE53F34FFFEEF2542F542EE3541F541E536C394404012E536D3947F500B121DA8753F007540108006753F01754020E54265407004E541653F600369
:4002C00002036F900007E0FE900006E0FDEEF541EDF542E536D3943F506FE5367F00FEEF2542FFE5413E900259F0A3EFF0900357E0FEA3E0F5828E83120842E4FB7A01F9AA
:40030000F812071890025BEEF0A3EFF0900357E0FEA3E0F5828E83120842EFE4EF600A90025BE475F0011205DA90025BE0FEA3E0FFC390025AE09F900259E09E500B753BD5
:400340000AE4F541F54202058E7B017A01792D900263E53FF0A3E540F0AD42AC41AF36120F0BEF60047F0A80027F008F3B8003753B03E4F541F54202058E20000302058EC7
:40038000E4F541F54202059F20000302058EE5422540FFE541353FFED3EF942CEE9401502DE4F53BAE3FAF40742D2542F974013541A801FC7D017B017A0079051209E7E58F
:4003C000402542F542E53F3541F54102058E753B0302058EE540453F600302058E78257C00FD7BFF7A25791FFE7F081209E7D200753900753A08AE39AF3A78057C007D0105
:400400007B007A0079251209E7E4F53B02058E20000302058EE5406403453F600302058E900007E0FE900006E0FDEEF52FEDF530E536C394404038E536D3947F5031AE2F29
:40044000AF307C007D101208D28F348E338D328C318F4B8E4A8D498C48E4754F10F54EF54DF54CFF7E80FDFC12192C8F358050AE2FAF307C017D001208D2C004C005C006FC
:40048000C007AF36E4FCFDFEFBFA7901F812068DD003D002D001D0001206728F348E338D328C318F4B8E4A8D498C48E4F54F754E01F54DF54CFFFE7D10FC12192C8F35E588
:4004C00036D3943F5072AF367E007C207D001208D2E42FFFE43EFEED3408FDE43CFCC004A905AA06AB07AE2FAF307C007D201208D2D0001206728F348E338D328C31E4F5BA
:400500002DF52EC3E52E9420E52D9400502AE4E52E2534FFE52D3533FEE43532FDE43531A907AA06AB05121CF3EF2535F535052EE52E7002052D80CBE536702AAE2FAF301E
:40054000FCFD7BFFFAF9F8C31207C57019FD7F05120A3DC3E5359FF535E4FD7F06120A3DC3E5359FF535E535F404900005F0E4F53BF539753A018016E4FF120D84EF700604
:400580009046FA7480F01220718003753B057B017A007901853948853A49AF3B1215ED900000E0700302004330000302004322BB010689828A83E0225002E722BBFE02E399
:4005C0002289828A83E49322BB010689828A83F0225002F722BBFE01F322C5F0F8A3E028F0C5F0F8E582158270021583E038F022BB010A89828A83E0F5F0A3E022500687B6
:40060000F009E71922BBFE07E3F5F009E3192289828A83E493F5F074019322BB010789828A830205DA500B09C5F027F7C5F01937F722BBFE0D09F8E325F0F3C5F019E338A6
:40064000F322F889828A8374019325F0C5F0F8E4933822BB010A89828A83F0E5F0A3F0225006F709A7F01922BBFE06F3E5F009F31922EF2BFFEE3AFEED39FDEC38FC22C315
:40068000EF9BFFEE9AFEED99FDEC98FC22E88FF0A4CC8BF0A42CFCE98EF0A42CFC8AF0EDA42CFCEA8EF0A4CDA8F08BF0A42DCC3825F0FDE98FF0A42CCD35F0FCEB8EF0A47C
:4006C000FEA9F0EB8FF0A4CFC5F02ECD39FEE43CFCEAA42DCE35F0FDE43CFC2275F008758200EF2FFFEE33FECD33CDCC33CCC58233C5829BED9AEC99E58298400CF582EE4A
:400700009BFEED9AFDEC99FC0FD5F0D6E4CEFBE4CDFAE4CCF9A88222B800C1B90059BA002DEC8BF084CFCECDFCE5F0CBF97818EF2FFFEE33FEED33FDEC33FCEB33FB10D7C4
:4007400003994004EB99FB0FD8E5E4F9FA227818EF2FFFEE33FEED33FDEC33FCC933C910D7059BE99A4007EC9BFCE99AF90FD8E0E4C9FAE4CCFB2275F010EF2FFFEE33FE50
:40078000ED33FDCC33CCC833C810D7079BEC9AE899400AED9BFDEC9AFCE899F80FD5F0DAE4CDFBE4CCFAE4C8F922EF4BFFEE4AFEED49FDEC48FC22C3E49FFFE49EFEE49D2F
:4007C000FDE49CFC22EB9FF5F0EA9E42F0E99D42F0E89C45F022E8600FECC313FCED13FDEE13FEEF13FFD8F122E8600FEFC333FFEE33FEED33FDEC33FCD8F122BB010789DC
:40080000828A830208365005E9F8020A0DBBFE05E9F8020A1989828A83020842BB010789828A8302085E5005E9F8020A25BBFE05E9F8020A3122E0FCA3E0FDA3E0FEA3E06A
:40084000FF22E493FC740193FD740293FE740393FF22E0F8A3E0F9A3E0FAA3E0FB22ECF0A3EDF0A3EEF0A3EFF022E0FBA3E0FAA3E0F922EBF0A3EAF0A3E9F022E493FB74E9
:400880000193FA740293F922D083D082F8E4937012740193700DA3A393F8740193F5828883E4737402936860EFA3A3A380DFE5092582F582E5083583F583B50804858209B7
:4008C0002210AF06858209F50822858209F508D2AF22EC8EF0A4CCC5F0CCCDF8EFA4CEC5F02DFDE43CFCE8A42EC8C5F03DFDE43CFCEFA4FFE5F028FEE43DFDE43CFC22EF51
:400900004E6012EF60010EEDBB010B89828A83F0A3DFFCDEFA2289F05007F709DFFCA9F022BBFEFCF309DFFCA9F022E709F608DFFA8046E709F208DFFA803E88828C83E7AA
:4009400009F0A3DFFA8032E309F608DFFA806EE309F208DFFA806688828C83E309F0A3DFFA805A89828A83E0A3F608DFFA804E89828A83E0A3F208DFFA804280D280FA80F3
:40098000C680D4805580F28029801080A680EA809A80A880DA80E280CA802988848C8589828A83E493A30586F0A30586DFF5DEF3800B89828A83E493A3F608DFF9ECFAA95D
:4009C000F0EDFB2288848C8589828A83E0A30586F0A30586DFF6DEF480E389828A83E493A3F208DFF980D688F0EF60010E4E60CD88F0ED2402B4040050C3F582EB2402B455
:400A0000040050B9232345822390097B73E6FC08E6FD08E6FE08E6FF22E2FC08E2FD08E2FE08E2FF22ECF608EDF608EEF608EFF622ECF208EDF208EEF208EFF22290025D03
:400A4000EDF0AB079002627402F0E4FFFEFDFCA312085EEB1208880A79010AA6020ACB030AF0040B15050B40060B8F070B6B080BB3090BD70A00000C0190025DE0FF7E005E
:400A80007C017D001208D21207B7EF24C0FFEE34FFFEED3410FDE43CFCA312085E9002627401F0020C0C90025DE0FF7E007C017D001208D2C374C39FFF74FF9EFE74109DBD
:400AC000FDE49CFCA312085E020C0C90025DE0FF7E007C017D001208D2C374C79FFF74FF9EFE74109DFDE49CFCA312085E020C0C90025DE0FF7E007C017D001208D2C37433
:400B0000CB9FFF74FF9EFE74109DFDE49CFCA312085E020C0C90025DE0FF7E007C017D001208D2C374D09FFF74FF9EFE74109DFDE49CFCA312085E9002627401F0020C0C60
:400B400090025DE0FF7E007C017D001208D2C374D19FFF74FF9EFE74109DFDE49CFCA312085E9002627401F0020C0C90025DE0FF7E007C017D001208D2C374D69FFF74FF16
:400B80009EFE74109DFDE49CFCA312085E807D90025DE0FF7E007C017D001208D2C374D29FFF74FF9EFE74109DFDE49CFCA312085E805990025DE0FF7E007C017D00120811
:400BC000D2C374D49FFF74FF9EFE74109DFDE49CFCA312085E803590025DE0FF7E007C017D001208D2C374D89FFF74FF9EFE74109DFDE49CFCA312085E9002627404F08082
:400C00000BE4FFFEFDFC90025E12085E900262E0B4011990025E120836A907AA06AB05121CF3E4FCFDFE90026312085E900262E06402705C90025E120836EF2401FFE43E91
:400C4000FEE43DFDE43CA907AA06AB05121CF3E4FCFDFE90026312085E900263120852C000C001C002C00390025E120836A907AA06AB05121CF3E4FCFDFE78081207E9D0BA
:400C800003D002D001D0001207AA90026312085E900262E064046003020D7D90025E120836EF2403FFE43EFEE43DFDE43CA907AA06AB05121CF3E4FCFDFE90026312085E37
:400CC000900263120852C000C001C002C00390025E120836EF2402FFE43EFEE43DFDE43CA907AA06AB05121CF3E4FCFDFE78081207E9D003D002D001D0001207AA9002634F
:400D000012085E900263120852C000C001C002C00390025E120836EF2401FFE43EFEE43DFDE43CA907AA06AB05121CF3E4FCFDFE78101207E9D003D002D001D0001207AA84
:400D400090026312085E900263120852C000C001C002C00390025E120836A907AA06AB05121CF3E4FCFDFE78181207E9D003D002D001D0001207AA90026312085E90026356
:400D8000120836228F44AD447F03120A3DEF2401FFE43EFEE43DFDE43CFCE4FB7A01F9F812068DC004C005C006C007AD447F04120A3DD003D002D001D0001206728F4C8EA9
:400DC0004B8D4A8C49C201E4F54DAD447F03120A3DEF2401FFE43EFEE43DFDE43CFCE4FB7A01F9F812068D8F488E478D468C45AF4CAE4BAD4AAC49AB48AA47A946A845C337
:400E00001207C55032854882854783E493F54E6005F46002D201E54E254DF54DAF48AE47AD46AC45E47B01FAF9F81206728F488E478D468C4580B8AD447F03120A3DEF2479
:400E400001FFE43EFEE43DFDE43CFCE4FB7A01F9F812068D78031207D68F488E478D468C45E47FC07EFFFDFCAB4CAA4BA94AA849C31207C57007FF7E20FDFC800DAF4CAE21
:400E80004BAD4AAC4978031207D68F4C8E4B8D4A8C49AF4CAE4BAD4AAC49AB48AA47A946A845C31207C55039E42548FFE43547FEE5463408FDE43545A907AA06AB05121CB9
:400EC000F3EF254DF54DAF48AE47AD46AC45E47B01FAF9F81206728F488E478D468C4580B1E54DF404F54DAD447F01120A3DA804A905AA06AB07AF4DE4FCFDFEC31207C5CC
:400F000070032001037F06227F002290025EECF0A3EDF0A312087390025DEFF0E4900265F0EFD3943F500E90025DE0940140069002657401F090025DE0FFD3947F4006903A
:400F400002657401F0EFC39440400CEFD3944140069002657401F0EFD3943F501E90025EE0FEA3E0FFE4FCFDFB7A01F9F8C31207C5502F9002657401F08027D390025FE03C
:400F8000948090025EE0940040069002657401F0900263E07004A3E0641060069002657401F090026012086AE94A4B700590026504F0900265E0600302108A121EFEEF606E
:400FC0000302108490025EE0FCA3E0FDA312086A900263E0FFA3E090026CCFF0A3EFF090025DE0FF1211DE900265EFF06407600302107F904722E0540270087F01FE121EF6
:401000006480F0904722E054026009E0FF1313543FFF80027FFFEF7006900265F0800690026574FFF0900265E0705490025DE0FFA3E0FCA3E0FD900353E0FBA3E090026AD9
:40104000F0121A90900265EFF064077032904722E0540270087F01FE121E6480F0904722E054026009E0FF1313543FFF80027FFFEF7006900265F0800690026574FFF0124B
:40108000205180069002657404F0900265E0FF227B007A4679E8121CF3EF4401FD7B007A4679E8122045E4F52CE52CC3940A502CE52C75F005A42461F582E43424AF82F571
:4010C000218F22F58312087C8F82852183740393FC740493FD121F6E052C80CDE4F52CE52CC394015046E52C75F007A42413F582E43425AF82F5238F24F58312087C8B25E1
:401100008A2689278F82852383740393FE7404938E28F529740593F52A740693F52BAD29AC28FFAE2A121EB8052C80B37E207F92121DD97B017A507903121CF3EF4402FD3B
:401140007B017A5079031220457B017A507913121CF3EF4402FD7B017A5079131220459043A0E04440F09043C2E04410F07C207D827B007A5179127F087E00121EB87C2053
:401180007D8A7B007A5179227F087E00121EB89044F47401F0904322E04408F09046ECE0C394055006904689743AF090480074F1F012150690480074B1F0121F1D7B007A41
:4011C0004379A0C00179B0900005120873D0017F0E7E00121D749043B0E054FDF022900266EFF0A3ECF0A3EDF0A312087390026E7407F0904722E0540270030212EE904756
:401200002074B6F074D5F07402F0904722E0540260030212E6900266E0904720F0E490026FF0A3F090026CE0FEA3E0FF90026FE0FCA3E0FDC39FEC9E501F90026912086A8D
:40124000E92DF9EA3CFA1205AF904720F090026FE475F0011205DA80CB90026CE064017002A3E060030212F4900266E0FFD3943F40030212F47E007C207D001208D2E42F0A
:40128000FFE43EFEED3408FDE43CFCC004A905AA06AB07A3E0FEA3E0FF7C007D201208D2D00012067290027112085EE490026FF0A3F090026FE0FEA3E0FFC39420EE94005A
:4012C0005032E4FCFDA3120852120672A907AA06AB05121CF3904720EFF090026FE475F0011205DA80CC90026E7409F0800690026E7404F090026EE0FF228B448A4589469E
:401300008C478D48755505E4F54DF54EE54C75F00AA4FFC3E54E9FE54D95F0503B121B34EF6022121B347553008F54E47F19FEFDFC1218C7121B34D3EF9554E4955350E366
:40134000E4F5558013E47F01FEFDFC1218C7054EE54E7002054D80B4AB49AA4AA94BE4F5F0120653E4F54FF550121B34EFD394005003021412121B347551008F52AB49AA8D
:401380004AA94BE5518552F012061BAB49AA4AA94B1205F0C39548E5F09547505FE4F54DF54EC3E54E9552E54D95515025121C1CAB44E5462550F9E545354FFAEF1205C8C1
:4013C0000550E5507002054F054EE54E7002054D80D0AB44E55024FFFFE54F34FFFEE5462FF9E5453EFA1205AF64177003021369E47F05FEFDFC1218C7021369AB49AA4ABB
:40140000A94B1205F0C39552FFE5F095518FF0120653AF552275930078007583467582E8E04401F0009046ECE0F99046FAE0FA90034BF0B903225420B40012B8001AEA9014
:401440001FFFF07401901FFEF09046F6F0901FFEE06005901FFFE0FA90480074C0F0758156121EDE90000078007920E4F0A3D8FCD9FAEA90034BF002001175081F7509FD1F
:401480001210900214C1022079E493A3F8E493A34003F68001F208DFF48029E493A3F85407240CC8C333C4540F4420C8834004F456800146F6DFE4800B0102040810204063
:4014C00080901B83E47E019360BCA3FF543F30E509541FFEE493A360010ECF54C025E060A840B8E493A3FAE493A3F8E493A3C8C582C8CAC583CAF0A3C8C582C8CAC583CABE
:40150000DFE9DEE780BE7B007A4079807D337C001220279040827418F09043007402F09040007408F09042007403F07B0C7A017908121CF39046A1EFF07B007A4279227D68
:40154000087C001220277B007A4279207D517C12122027E4900004F07F19FEFDFC90000012085E900000120836D3EF9400EE9400403B900004E0FF64036032904225E05440
:4015800001FEEF25E04E5403900004F0E47FE07E01FDFC121D0090000012083674FFFBFAF9F812067290000012085E80B6900000120836EF4E70057F0312207F7B007A402A
:4015C00079047D007C011220279040047407F0904006E4F09040087448F0904004E4F09040017402F09043A2E04401F0228B458A46894774011205C8AB452547F9E43546AB
:40160000FAEF1205C8E549AB45E5472402F9E43546FAE5491205C8E548FFAB45E5472403F9E43546FAEF1205C8AB45AA46A947E5492404FDE43548FC121C668E4A8F4BEFCF
:40164000AB45E5492404FDE43548FCE5472DF9E5463CFAEF1205C8E54AFFAB45E5492405FDE43548FCE5472DF9E5463CFAEF1205C8AB45E5492406FFE43548FEE5472FF9FF
:40168000E5463EFA74171205C8E5492407FDE43548FC755100755200755348755496AB45AA46A947121BD122C0E0C083C082C085C084C086758600C093759300C0D075D09F
:4016C00000C001C002C003C006C007E4FBA2AF33FAD2AF9044F474FDF090646CE0FFFE541EF960069002FDE049F0EF30E54590644AE0FE9002F9E02478F582E43402F583E5
:40170000EEF07B01EB602C900276E060069002FC7401F09002F9E004F0E0C394404002E4F0900277E0FE9002F9E0B506069002767401F0EF20E5A2AF02EA24FF92AFD007BF
:40174000D006D003D002D001D0D0D093D086D084D085D082D083D0E032752106E4FF120D84EF7002F521E4F54BF54AF549F548900357E0FEA3E0F5828E831208428F4F8E82
:401780004E8D4D8C4CE4FFFE7D10FC12192C900355E0FCA3E0F5828C83E493FEC3EF9EFFF404FFB50612900357E0FEA3E0F5828E83120842EF4E70057F00121FB79046FAFB
:4017C000E054C064406004E52160099046FAE4F0FF12001A12205D22C0E0C083C082C085C084C086758600C093759300C0D075D000C006C007A2AFE433FFD2AF9044F4742E
:40180000FDF09002FAE0FE9002B8E06E602C90646EE020E2259002B8E0C394404002E4F09002B8E024B9F582E43402F583E090644DF09002B8E004F080C8EF24FF92AFD043
:4018400007D006D0D0D093D086D084D085D082D083D0E032A9079002FAE0FF9002B8E0FEEFC39E501AEE24FFFDE434FFFCEF7A00B50508EAB504047D0180027D00800CC346
:40188000EF9EB43F047D0180027D00ED70C8EEB5070D90646EE020E20690644DE9F022EFC394404002E4FF74B92FF582E43402F583E9F00F9002FAEFF090646EE030E10609
:4018C0009044D07402F02290FFFC1208AE12085E850883850982120836D3EF9400EE9480402E90034C120836121D00850883850982C083C082120836E42FFFEE3480FEEDC9
:4019000034FFFDEC34FFFCD082D08312085E80C090034212083685088385098212085212068D121D009000041208AE228F478E468D458C44E4F550D3E54F9400E54E940025
:40194000404BAF4FAE4EAD4DAC4C74FFFBFAF9F81206728F4F8E4E8D4D8C4CE547254BFFE546354AFEE5453549FDE5443548FCEF254FFFEE354EFEED354DFDEC354CA907BD
:40198000AA06AB051205AF2550F55080AAAF5022121FE190025E74FFF0121EFEEF703B7F01121E35EF6407702C7B017A0379537D021219E6EFB40215E490025EF090472228
:4019C000E0540270107F01FE121E6480F0904722E0540260D4122051800690025E7404F090025EE0FF2290025F120873900262EDF0E4A3F0900262E0FFA3E0C39F50379065
:401A00004722E054016003D38001C340097F017E00121E6480E9904720E0FF90025F12086A900263E029F9E43AFAEF1205C8900263E004F080BE900263E0FF2290025EEC49
:401A4000F0A3EDF090025DEFF0541F25E0FFE433FEE42FFFEE3444FAA9077B0112201A900260EEF0A3EFF090025DE075F002A42400FFE5F03444FAA9077B01A3E0FEA3E0EC
:401A8000FFFDAC06122029900260E0FEA3E0FF22900267ECF0A3EDF0AC077D07904722E05402603B90472074B6F074D8F07405F0904722E054027023904720ECF09002670F
:401AC000E0904720F0900267E0A3E0904720F0EBF090026AE0904720F080067D0980027D04AF0522121FE1121EFEEF703B121F3A90025EEFF06407702A904722E0540270A1
:401B0000087F01FE121E6480F0904722E054026009E0FF1313543FFF80027FFFEF700490025EF0122051800690025E7404F090025EE0FF229044C87401F09002F9E0FE905D
:401B40000277E0B5060E900276E060047F40802CE4FF80289002F9E0FE900277E0C39E500BE0FE9002F9E0C39EFF8010900277E0FEC374409EFE9002F9E02EFF9044C07420
:401B800001F022420355251A420357251B430350000000440347016E360044034200005DC04103461844034C2EE000004102FB004102B8004102FA004102FD00410277003B
:401BC0004102F900410276004102FC0041035B00008B4C8A4D894E8C4F8D50E4F555F556121E07C3E5569550E555954F501DAB4CE54E2556F9E54D3555FA1205AFFF121874
:401C0000540556E5567002055580D8AB51AA52A953E54F8550F01206537F00229044C87401F0900277E0FE9002F9E0FD900276E07004EE6D602474782EF582E43402F583EF
:401C4000E0FF0EEEC394404002E4FE900277EEF0900276E06009E4F0800590644AE0FF9044C07401F0228B4C8A4D894EE4F54FF550D3ED9400EC94004025AB4CED24FFFFD4
:401C8000EC34FFFEE54E2FF9E54D3EFA1205AF2550F550E4354FF54FED1D70011C80D2E550F4FFE54FF4FEEF2401FFE43EFE227C167DA8E4FF121A3C7D07E4FF121F55E4B7
:401CC0009002FDF090648A7469F090648C7420F07C177DD87F01121A3C7D077F01121F5590642E7406F090643E7447F090648E7402F0228B938A838982E0759300FF22000A
:401D0000EC4D4E700D78FCEF24E950032840FD2200007BF178DA0000EF28FF78FFEE38FEED38FDEC38FC50E7EF2BFFEE38FEED38FDEC38FC40F22205020304121FCC9002FD
:401D40005DEFF090649AE04420F090649CE04410F09044C07401F090649EE04410F09044D87402F09044C0F012203690025DE0FF121F9F22758600EF4E6027EF60010E75B2
:401D80009300900005E0F595A3E0F585A3E0F5848B938A838982E0A30586F0A31586DFF6DEF4E4F593F59522121FCC9043A0E04408F09043B0E04408F090470174C8F090A8
:401DC00043ACE04410F09043BCE04410F0904700E0542060F8121F9F22ACEAADA08E838F82E493F9601CA3E493F5EAA3E493F5A0A3E49360F1FAA3E493F8A3E493F2DAF6BC
:401E0000D9E48DA08CEA22121FCC90649AE04401F0E054FEF0121F9F9044C87401F0E4900277F09002F9F0900276F09002FCF09044C004F0227E07904722E05402601F9052
:401E4000472074B6F074E1F0740EF0904722E054027007904720EFF080067E0980027E04AF062200EEFA900346E0F88FF0A4FFAEF0E88AF0A42EFEE5F03400FDEF24C9FF5A
:401E800078FFEE38FEED38FDE438FC5003021D0022121FCC90649DE04401F0E054FEF0121F9F9044C87402F0E49002B8F09002FAF09044C07402F022758600EF4E601BEFCA
:401EC00060010E8C838D828B958A858984E493A30586F0A31586DFF5DEF3E4F595229046FAE054C064807015F0FD7F02120A3DEF4E600AE4FD7F02120A3D122009229002CC
:401F0000667404F0121FCC90035BE0700704F0E4900266F0121F9F900266E0FF227B0C7A0179CF121CF3EF540790586EF0EFC4540FA3F09058767444F0227F07904722E0DD
:401F40005402600E90472074B6F074E0F0740DF080027F0422AC07ED540775F020A4FFEC541F2480F582E43444F583EFF022EC4D6011ED60010C8B938A838982E4F0A3DDB0
:401F8000FCDCFA75930022121AE490025DEFF0700812199090025DEFF090025DE0FF22EF54016004D2AF8002C2AFEF5402FF9044F4E054FD4FF02290FFFF1208AEEFF090D7
:401FC00046EA7401F09000011208AE229044F4E0F84402F0E85402FF10AF012274014FFF22121FCC9043A0E04408F09043B0E04408F0121F9F229002FBE07009121CAF9087
:4020000002FB7401F0121D3B2290034BE0FA8E838F827400758101738B938A838982E0FFA3E0FE759300228B938A838982EDF0A3ECF0759300229043A2E04401F09043B26F
:40204000E04401F0228B938A838982EDF075930022121FCCE490035BF0121F9F229046FA7480F012207122121FF6121E07121E91229046F6E04401F02212175980FE2280DC
:40208000FE22007F7B007B00000030D8C800D800000016005205082309121098118814200064047E3F8A698C3A8E0F010101E204010301E6020105028702E008010604B82E
:4020C00002BE01D804DF010107021B02A702010A088501890195019901B101BF01D904DF01010B4F00400106038808010A040B111028130219641A041B0A202021082230E9
:40210000274028282A022B022E033080310232103304340836203708382239803A083C283E084028410843824A024B0152045B4068286A016B027090712072108D408E104D
:402140008F809042910493109621980199029B0C9D649E049F80A004A102A202A490A520A702AB01B021B405B602B744C00FC20FC40ECA0FCC6FCE6FD00FD208D608E0083A
:40218000E801010C4C0001021608E70A180E3F101E120114C6163918481C88208824DD262228232ADC2CC8301F320834E03A22541A560458045B045F018008824284F88698
:4021C000018704880F89028AF08D068EC792849308943996C698109C20A020A101A43FA6C0A906AA08AC30B031B106B308B501B6FFB702B982BE40BF11C062C101C5E0C6DA
:40220000CBC80EC9FFCAFFCBFFCEF0CF44D00CD804D904DA04DF01E6C0EA40EB02010D46002901100210030B04010709080209260A310D220E11108012481388151016502C
:402240001780180219021C081D021E201F20200421012208230128402920320238C839A43A083B10414042084921502053405E205F026540674887409088912093089502C2
:40228000978098409B4A9C029D259E049F04A420A504A72AB001B301C0DFC2FFC4FFCA05CC01CE0ED00CD204D6A0D8B0010E4E040906D007230B080C0C0D210E710F0E1048
:4022C00014141016AC170C18DC1A221B201E0321102410264029212A202B062D0C2F2330E03310350F361F37203A023B203F444004464049FF4A074BFF4C404D204EF04F8A
:4023000005500854015604580459045A045B045F01604061A862406320871F89198B0691019304950997029A01A506A719A919AA01AB06AF0FB201B310B507B708B908BB65
:4023400020BE04D804D904DB04DF01010F3C004404040504084809200A010B800E0810081210160418C01A011F042130224425102604270A280829212A802F2A303031047A
:402380003402370438883A103D284101500C5210581059015A886380680169046A206B406F0171407304821083408550868089048B04C005C24FC446CA7DCCC6CE6ED00101
:4023C000D60FD801E40C014005322035808180CC30E2200141038620A620E6400144058301870188C0E004E40401450F0C0857025B046401660193029889A040A301B009C2
:40240000C204D607D801E801EC0401460D8702900893029888A040A301A702AB04B40CB601E808EC02EE08014705900893029888A040A301014C0E5004544057015808607D
:40244000806702900893029888A040A301D406D607D80201500300010C010E01015101000F005100001000513000400051C000100051F000100100000A00010A800580018E
:40248000140008000140000A00014C000200015000002000008080207D050000040800130C0400030204200A031410130C0C7300088000400800004043003C404F003000DE
:4024C0000000734000303F0FC0800008002028000040003402010005C0000E12FFFFFF62A0F0410C00000000000210040404040000000100000000000040020010301000CE
:4025000010101200000000000000000000000000000000010A002493008061000026006930091E031E010100000000000000000000000000000000000000000000000000BD
:40254000000000000000000000000000000000000000000000000000000000000000000000000000000000000000000000000000000000000000000000000000000000005B
:40258000000000000000000000000000000000000000000000000000000000000000000000000000000000000000000000000000000000000000000000000000000000001B
:4025C00000000000000000000000000000000000000000000000000000000000000000000000000000000000000000000000000000000000000000000000000000000000DB
:40260000025AEF008F828E83E0540100000070F82278FFE4F6D8FD025B7D0227F7E86480F8E933E83360110460F0ED33EC337009E8FCE9FDEAFEEBFF220460DED3EB9FEA8F
:402640009EE99DE8C2E78CF0C2F795F0400CE8CCF8E9CDF9EACEFAEBCFFB1227C285D0F05804700320D5B3E80470075002B2D502280192D5EC0460F7E4CCC0E0C398F8600E
:402680003B94186008400DD0E0FB0227D9E4FBFAC9FC8028E830E406E4C9FBE4CAFCE830E305E4C9CACBFCE854076010F8C3E913F9EA13FAEB13FBEC13FCD8F130F52FC3CB
:4026C000E49CFCEF9BFFEE9AFEED99FDD0E0FBEF4E4D4C701222DB030227FEEC2CFCEF33FFEE33FEED33FDED30E7EB0227D9EF2BFFEE3AFEED39FDD0E0FB50130BBB000307
:40270000022801ED13FDEE13FEEF13FFEC13FC0227D974F8CC6480CCC86480C8F58204604FC3EB9FF5F0EA9E42F0E99D42F0E89C45F0603C501DE5825FFFE582D313CB5B50
:40274000CBF42B5582FB50280ABA002409B9002008801DE5825BFBE582D313CF5FCFF4C3132F5582FF50090EBE00050DBD00010CC3EB9FF5F0EA9E42F0E99D42F0E89C4572
:40278000F06007CC4820E701B3EC22EDD2E7CD33EC3392D524814006E4FFFEFDFC22FCE4CFCECDCC24E0501174FF80EDC3CC13CCCD13CDCE13CECF13CF0470F030D5DE02B3
:4027C0002CEBE9D2E7C933E833F892D5EDD2E7CD33EC33FC5002B2D522EC30E7100FBF000C0EBE00080DBD00040BEB6014A2D5EB13FCED92E7FD2274FFFCFDFEFF22E48010
:40280000F8A2D574FF13FC7D80E480EFF920E73624F950037907E4F42402FBE582158270021583DBF6E024FB501BE96014E4F0E582158270021583E004F0B40A08E4F0D975
:40284000EE7401F00A22C2D522ED33EC3392D5FA602AB4FF33EDC2E77BFF60067A28796EE4227A28797720D5047A287972224E614E002B494E46002D494E4600E47A08F06C
:40288000A3DAFC7B00740722C083C082ECC0E0EDC0E0EEC0E0EFC0E0EA75F010A4CAABF075F04DA42BFBE435F0FCEA2410FAEB34C5FBEC34D9FCEDC2E7FF75F056A4F424EB
:4028C00011C5F0F434C58FF0A42AE5F03BE43CF020E714122B24D0E0FFD0E0FED0E0FDD0E0FC122A578014F404122B24D0E0FFD0E0FED0E0FDD0E0FC12294ED082D083E042
:40290000FAEDD2E7CD33EC332482FBE4C3CF33CFCE33CECD33CD33DBF37B0775F00A846004F0A31B0AE5F0F0A38FF0740AA4FFACF08EF0740AA42CFEACF050010C8DF07439
:402940000AA42CFDE435F0F0A3DBDE740722EC4D6011E8497017ED33EC3304600DE4FCFFFEFD22E933E8330470F80227F71227C258046009E4CC24815006285009022801A6
:402980002840030227FEC0E0EB4A7044B98006D0E0FB0227EDEF4E701CBD8008EBFFEAFEE9FD80EBE98DF0A4FEE5F0022A37E9CDF9EAFEEBFFEF89F0A4FCE5F0CE89F0A442
:4029C0002EFFE435F0CD89F0A42DFEE435F08067EF4E7005BD80D780C3EF8BF0A4ACF0EE8BF0A42CFCE435F0F8EF8AF0A42CE5F038FCE433CB8DF0A42CFCE5F03BF8EE8AC6
:402A0000F0A42CFCE5F038F8E433CF89F0A42CFCE5F038CF3400CE89F0A42FFFE5F03EFEE433C98DF0A42EFEE5F039CD8AF0A42FFFE5F03EFEE43DFD33D0E0FB50070BBBF2
:402A4000000F022801EC2CFCEF33FFEE33FEED33FD0227D9022801EC5D046005E8590470030227F71227C2580460F6EC4860F2EC7004FDFEFF22C860DB2481C85009C39821
:402A8000600250060227FE9850CAF582E9294B4A7005AB820227ED75F0007C1A7880C3EF9BEE9AED99400DC3EF9BFFEE9AFEED99FDE842F0DC23ACF0D0E0FFD0E0FED0E0FD
:402AC000FDAB8220E7101BEB60BAEC2CFCEF33FFEE33FEED33FD0227D9E803F830E705C0F075F000EF2FFFEE33FEED33FD40B830E7C280AA3F8000004120000042C8000070
:402B0000447A0000461C400047C35000497424004B1896804CBEBC205A0E1BCA6753C21C749DC5AEFB60065407601C2323122B52EB54386009122B3E122B4D12294EECF8D3
:402B4000EDF9EEFAEFCB22EB122B4D80F1543803241C902AF4FE93FC0EEE93FD0EEE930ECE93FF22BB010689828A83E0225002E722BBFE02E32289828A83E49322BB010CA0
:402B8000E58229F582E5833AF583E0225006E92582F8E622BBFE06E92582F8E222E58229F582E5833AF583E49322BB010689828A83F0225002F722BBFE01F322EF8DF0A4D1
:402BC000A8F0CF8CF0A428CE8DF0A42EFE22E88FF0A4CC8BF0A42CFCE98EF0A42CFC8AF0EDA42CFCEA8EF0A4CDA8F08BF0A42DCC3825F0FDE98FF0A42CCD35F0FCEB8EF003
:402C0000A4FEA9F0EB8FF0A4CFC5F02ECD39FEE43CFCEAA42DCE35F0FDE43CFC2275F008758200EF2FFFEE33FECD33CDCC33CCC58233C5829BED9AEC99E58298400CF5822E
:402C4000EE9BFEED9AFDEC99FC0FD5F0D6E4CEFBE4CDFAE4CCF9A88222B800C1B90059BA002DEC8BF084CFCECDFCE5F0CBF97818EF2FFFEE33FEED33FDEC33FCEB33FB1048
:402C8000D703994004EB99FB0FD8E5E4F9FA227818EF2FFFEE33FEED33FDEC33FCC933C910D7059BE99A4007EC9BFCE99AF90FD8E0E4C9FAE4CCFB2275F010EF2FFFEE3312
:402CC000FEED33FDCC33CCC833C810D7079BEC9AE899400AED9BFDEC9AFCE899F80FD5F0DAE4CDFBE4CCFAE4C8F922C3E49FFFE49EFEE49DFDE49CFC22EB9FF5F0EA9E42EC
:402D0000F0E99D42F0EC6480C864809845F022EB9FF5F0EA9E42F0E99D42F0E89C45F022E8600FECC313FCED13FDEE13FEEF13FFD8F122E86010ECA2E713FCED13FDEE13ED
:402D4000FEEF13FFD8F022E8600FEFC333FFEE33FEED33FDEC33FCD8F122BB010789828A8302305E5005E9F8023052BBFE05E9F802306A89828A83023076BB010789828A75
:402D800083022D945005E9F8023086BBFE05E9F802309222ECF0A3EDF0A3EEF0A3EFF022A42582F582E5F03583F58322F8E0FBA3A3E0F925F0F0E582158270021583E0FA17
:402DC00038F022EBF0A3EAF0A3E9F022D083D082F8E4937012740193700DA3A393F8740193F5828883E4737402936860EFA3A3A380DFE5232582F582E5223583F583B5228A
:402E0000048582232210AF06858223F52222858223F522D2AF22EC8EF0A4CCC5F0CCCDF8EFA4CEC5F02DFDE43CFCE8A42EC8C5F03DFDE43CFCEFA4FFE5F028FEE43DFDE49E
:402E40003CFC22EF4E6012EF60010EEDBB010B89828A83F0A3DFFCDEFA2289F05007F709DFFCA9F022BBFEFCF309DFFCA9F022E709F608DFFA8046E709F208DFFA803E8874
:402E8000828C83E709F0A3DFFA8032E309F608DFFA806EE309F208DFFA806688828C83E309F0A3DFFA805A89828A83E0A3F608DFFA804E89828A83E0A3F208DFFA804280E2
:402EC000D280FA80C680D4805580F28029801080A680EA809A80A880DA80E280CA802988848C8589828A83E493A30586F0A30586DFF5DEF3800B89828A83E493A3F608DFB4
:402F0000F9ECFAA9F0EDFB2288848C8589828A83E0A30586F0A30586DFF6DEF480E389828A83E493A3F208DFF980D688F0EF60010E4E60CD88F0ED2402B4040050C3F5822C
:402F4000EB2402B4040050B92323458223902EBF73E709F60870FA8046E709F20870FA803E88828C83E709F0A370FA8074E309F60870FA806CE309F20870FA806488828C2B
:402F800083E309F0A370FA805889828A83E0A3F60870FA804C89828A83E0A3F20870FA804080D280FA80C680D4805180F28027801080A680EA809A80A880DA80E280CA8007
:402FC0002788848C8589828A83E493A30586F0A3058670F5800B89828A83E493A3F60870F9ECFAA9F0EDFB2288848C8589828A83E0A30586F0A3058670F680E589828A835C
:40300000E493A3F20870F980D888F0ED2402B4040050CEF582EB2402B4040050C42323458223902FA173C5F0F8A3E028F0C5F0F8E582158270021583E038F022A3F8E0C59C
:40304000F025F0F0E582158270021583E0C838F0E822E6FC08E6FD08E6FE08E6FF22E0FCA3E0FDA3E0FEA3E0FF22E2FC08E2FD08E2FE08E2FF22E493FC740193FD740293F7
:40308000FE740393FF22ECF608EDF608EEF608EFF622ECF208EDF208EEF208EFF222900522EBF0A3EAF0A3E9F0900001E064FA7003023842900522E0FBA3E0FAA3E0F8ACE8
:4030C00002AD037BFF7A3F793212300990058E74FFF0A3743FF0A37433F0900522E0FBA3E0FAA3E0F91267AB90058E74FFF0A3743FF0A37436F0900522E0FBA3E0FAA3E0A5
:40310000F91267AB90058E74FFF0A3743FF0A37449F0900522E0FBA3E0FAA3E0F91267AB90058E74FFF0A3743FF0A37459F0900522E0FBA3E0FAA3E0F91267AB90058E7435
:40314000FFF0A3743FF0A3745EF0900522E0FBA3E0FAA3E0F91267AB9009C074FFF0A3743FF0A3746CF0900001E0FF9009C3E4F0A3EFF07B017A05792712455490058E7492
:4031800001F0A37405F0A37427F0900522E0FBA3E0FAA3E0F91267AB9009C074FFF0A3743FF0A37475F090015EE0FF9009C3E4F0A3EFF07B017A05792712455490058E745A
:4031C00001F0A37405F0A37427F0900522E0FBA3E0FAA3E0F91267AB90058E74FFF0A3743FF0A37433F0900522E0FBA3E0FAA3E0F91267AB90058E74FFF0A3743FF0A3745D
:4032000089F0900522E0FBA3E0FAA3E0F91267ABE4900525F0A3F090015EE0FFC3900526E09F7480F8900525E064809840030234BC9009C074FFF0A3743FF0A3749EF0900C
:403240000525E0FEA3E0FF9009C3EEF0A3EFF02404F58274003EF583E0FF9009C5E4F0A3EFF07B017A05792712455490058E7401F0A37405F0A37427F0900522E0FBA3E08F
:40328000FAA3E0F91267AB9009C074FFF0A3743FF0A374B1F07B017A057927124554900525E0FEA3E02404F58274003EF583E075F005A424C5F582E43404F583E0601990C5
:4032C000058E74FFF0A3743FF0A374C3F07B017A0579271267AB801790058E74FFF0A3743FF0A374C9F07B017A0579271267AB90058E74FFF0A3743FF0A374CEF07B017A80
:403300000579271267AB900525E0FEA3E02404F58274003EF583E075F005A424C6F582E43404F583E0601990058E74FFF0A3743FF0A374C3F07B017A0579271267AB8017B8
:4033400090058E74FFF0A3743FF0A374C9F07B017A0579271267AB90058E74FFF0A3743FF0A374DCF07B017A0579271267AB900525E0FEA3E02404F58274003EF583E0754B
:40338000F005A424C7F582E43404F583E0601990058E74FFF0A3743FF0A374C3F07B017A0579271267AB801790058E74FFF0A3743FF0A374C9F07B017A0579271267AB904E
:4033C000058E74FFF0A3743FF0A374EDF07B017A0579271267AB900525E0FEA3E02404F58274003EF583E075F005A424C8F582E43404F583E0601990058E74FFF0A3743FE0
:40340000F0A374C3F07B017A0579271267AB801790058E74FFF0A3743FF0A374C9F07B017A0579271267AB90058E74FFF0A3743FF0A374FBF07B017A0579271267AB9005FF
:4034400025E0FEA3E02404F58274003EF583E075F005A424C9F582E43404F583E0601990058E74FFF0A3743FF0A374C3F07B017A0579271267AB801790058E74FFF0A37435
:403480003FF0A374C9F07B017A0579271267AB90058E7401F0A37405F0A37427F0900522E0FBA3E0FAA3E0F91267AB900526E004F07006900525E004F002321790058E7468
:4034C000FFF0A3743FF0A37433F0900522E0FBA3E0FAA3E0F91267AB90058E74FFF0A37440F0A3740AF0900522E0FBA3E0FAA3E0F91267ABE4900525F0A3F090015EE0FF32
:40350000C3900526E09F7480F8900525E064809840030237AA9009C074FFF0A3743FF0A3749EF0900525E0FEA3E0FF9009C3EEF0A3EFF02404F58274003EF583E0FF9009A8
:40354000C5E4F0A3EFF07B017A05792712455490058E7401F0A37405F0A37427F0900522E0FBA3E0FAA3E0F91267AB900525E0FEA3E0FF2404F58274003EF583E075F0054C
:40358000A424C5F582E43404F583E070030236259009C074FFF0A37440F0A37419F090001C75F013EF122DA0EE75F013A42583F583E0FDA3E09009C3CDF0A3EDF090001EDD
:4035C00075F013EF122DA0EE75F013A42583F583E0FFA3E09009C5CFF0A3EFF0900525E0A3E090002075F013122DA0EE75F013A42583F583E0FFA3E09009C7CFF0A3EFF009
:403600007B017A05792712455490058E7401F0A37405F0A37427F0900522E0FBA3E0FAA3E0F91267AB900525E0FEA3E0FF2404F58274003EF583E075F005A424C6F582E4BD
:403640003404F583E070030236DF9009C074FFF0A37440F0A3742AF090002275F013EF122DA0EE75F013A42583F583E0FDA3E09009C3CDF0A3EDF090002475F013EF122D87
:40368000A0EE75F013A42583F583E0FFA3E09009C5CFF0A3EFF0900525E0A3E090002675F013122DA0EE75F013A42583F583E0FFA3E09009C7CFF0A3EFF07B017A0579274D
:4036C00012455490058E7401F0A37405F0A37427F0900522E0FBA3E0FAA3E0F91267AB900525E0FEA3E0FF2404F58274003EF583E075F005A424C7F582E43404F583E07097
:40370000030237999009C074FFF0A37440F0A3743CF090002875F013EF122DA0EE75F013A42583F583E0FDA3E09009C3CDF0A3EDF090002A75F013EF122DA0EE75F013A443
:403740002583F583E0FFA3E09009C5CFF0A3EFF0900525E0A3E090002C75F013122DA0EE75F013A42583F583E0FFA3E09009C7CFF0A3EFF07B017A05792712455490058E62
:403780007401F0A37405F0A37427F0900522E0FBA3E0FAA3E0F91267AB900526E004F07006900525E004F00234FB9009C074FFF0A37440F0A3744DF090022BE0F8A3E0F98F
:4037C000A3E0FAA3E0FB900452E0FCA3E0FDA3E0FEA3E0C39BFFEE9AFEED99FDEC98FC9009C3122D947B017A05792712455490058E7401F0A37405F0A37427F0900522E0D4
:40380000FBA3E0FAA3E0F91267AB90058E74FFF0A3743FF0A37433F0900522E0FBA3E0FAA3E0F91267AB90058E74FFF0A3743FF0A37433F0900522E0FBA3E0FAA3E0F91218
:4038400067AB22900522EEF0A3EFF078247C057D017BFF7A4079587E047F1B122F2B90015EE075F032A424C9FEE435F090093FF0A3CEF078417C097D017BFF7A4479737E50
:40388000007F0F122F2B78507C097D017BFF7A4479827E007F1E122F2B786E7C097D017BFF7A4479A07E007F0D122F2B787B7C097D017BFF7A4479AD7E007F18122F2B788C
:4038C000937C097D017BFF7A4479C57E007F2A122F2B7B017A0979411272628F0F7B017A0979501272628F107B017A09796E1272628F117B017A09797B1272628F127B013D
:403900007A0979931272628F13900524740CF090015EE02404900525F0900522E0FEA3E0FFEE6003023DA8EF147003023D9E24FC4003023F1624056003023DA890052674A8
:4039400002F0A314F0900001E0900528F0750B00850F0CE50C450B602CC3E50F950CFFE4950BFE74412FF58274093EF583E0FD74292FF58274053EF583EDF0E50C150C708E
:4039800002150B80CE9005587402F0A314F090015EE090055AF0750B0085100CE50C450B602CC3E510950CFFE4950BFE74502FF58274093EF583E0FD745B2FF58274053E81
:4039C000F583EDF0E50C150C7002150B80CE90058A7402F090015EE090058BF0E4F50BF50C90015EE0FFC3E50C9FE50B940050267404250CF5827400350BF583E0FF748CF1
:403A0000250CF5827405350BF583EFF0050CE50C7002050B80CB750D0085110EE50E450D6041C3E511950EFFE4950DFE746E2FF58274093EF583E0FFE511FD90015EE02D8B
:403A4000FDE433FCC3ED950EFDEC950DFC748C2DF58274053CF583EFF0E50E150E7002150D80B99005BC7402F090015EE075F003A49005BDF0E4F50BF50C90015EE0FFC37F
:403A8000E50C9FE50B94004003023B307404250CF5827400350BF583E075F003A42433F582E43402F583E0FF9005BE75F003E50C122DA0E50B75F003A42583F583EFF074D1
:403AC00004250CF5827400350BF583E075F003A42434F582E43402F583E0FF9005BF75F003E50C122DA0E50B75F003A42583F583EFF07404250CF5827400350BF583E0759A
:403B0000F003A42435F582E43402F583E0FF9005C075F003E50C122DA0E50B75F003A42583F583EFF0050CE50C7002050B023A7A750D0085120EE50E450D6046E512FD7C69
:403B400000C3950EFFEC950DFE747B2FF58274093EF583E0FB90015EE075F003A42DFFEC35F0FEC3EF950EFFEE950DFE74BE2FF58274053EF583EBF0E50E150E7002150D2D
:403B800080B4E4F50BF50C90015EE0FFC3E50C9FE50B94004003023D6D9009C074FFF0A3743FF0A37417F0E50C24059009C4F0E4350B9009C3F07404250CF5827400350B8D
:403BC000F583E0FF9009C5E4F0A3EFF07B017A0979931245547B017A0979931272628F139005EE75F032E50C122DA0E50B75F032A42583F5837402F09005EF75F032E50CCA
:403C0000122DA0E50B75F032A42583F5837405F07404250CF5827400350BF583E075F005A424C5F582E43404F583E0FF9005F075F032E50C122DA0E50B75F032A42583F530
:403C400083EFF07404250CF5827400350BF583E075F005A424C6F582E43404F583E0FF9005F175F032E50C122DA0E50B75F032A42583F583EFF07404250CF5827400350BE9
:403C8000F583E075F005A424C7F582E43404F583E0FF9005F275F032E50C122DA0E50B75F032A42583F583EFF07404250CF5827400350BF583E075F005A424C8F582E434FC
:403CC00004F583E0FF9005F375F032E50C122DA0E50B75F032A42583F583EFF07404250CF5827400350BF583E075F005A424C9F582E43404F583E0FF9005F475F032E50C2E
:403D0000122DA0E50B75F032A42583F583EFF0750D0085130EE50E450D6047C3E513950EFFE4950DFE74932FF58274093EF583E0FBAE0BAF0C7C007D32122BBCEF2513FF0C
:403D4000EC3EFEC3EF950EFFEE950DFE74F52FF58274053EF583EBF0E50E150E7002150D80B3050CE50C7002050B023B877B017A05792490093FE0A3E014FD126E3B9009C3
:403D80003FE0FCA3E0FD2423F58274053CF583EFF07B017A05792412659F1272FE22900269E0900016F02222900269E0FF900522E0FCA3E0FD24FFF58274FF3CF583E07594
:403DC000F005A424C5F582E43404F583EFF090026AE0FF74FF2DF58274FF3CF583E075F005A424C6F582E43404F583EFF090026BE0FF74FF2DF58274FF3CF583E075F00518
:403E0000A424C7F582E43404F583EFF090026CE0FF74FF2DF58274FF3CF583E075F005A424C8F582E43404F583EFF090026DE0FF74FF2DF58274FF3CF583E075F005A424FC
:403E4000C9F582E43404F583EFF09004C0E4F0A304F0E4F50BF50C90015EE0FFC3E50C9FE50B94004003023F087404250CF5827400350BF583E0FF75F005A424C6F582E43C
:403E80003404F583E075F006A4FEEF75F005A424C5F582E43404F583E075F006A42EFF7404250CF5827400350BF583E0FE75F005A424C7F582E43404F583E075F006A42F0C
:403EC0002402FDEE25E0242FF582E43404F583E4F0A3EDF07404250CF5827400350BF583E025E0242FF582E43404F583E0FEA3E0FF9004C1E02FF09004C0E03EF0050CE55F
:403F00000C7002050B023E579004C1E004F070069004C0E004F0222575202D20494D5520256420636F6E66696775726174696F6E3A00000D0A004669726D7761726520761C
:403F4000657273696F6E3A2000494D55626F617264207620312E3030000D0A0D0A0044455649434520494E464F0D0A0049443A2025640D0A00494D5520436F6E6E65637452
:403F800065643A2025640D0A00494D557320434F4E46494755524154494F4E0D0A00496D75202564200D0A0949443A2025640D0A0009416363656C65726F6D65746572737F
:403FC0003A20005945530D0A004E4F0D0A00094779726F73636F7065733A2000094D61676E65746F6D65746572733A2000095175617465726E696F6E3A20000954656D7034
:40400000657261747572653A200053454E534F525320494E464F0D0A00094163633A2025640925640925640D0A00094779726F3A2025640925640925640D0A00094D61678A
:404040003A2025640925640925640D0A0064656275673A20256C640000000000000000000000000000000000000000000000000000000000000000000000000000000000CC
:404080000000000000000000000000000000000000000000000000000000000000000000000000000000000000000000000000000000000000000000000000000000000000
:4040C00000000000000000000000000000000000000000000000000000000000000000000000000000000000000000000000000000000000000000000000000000000000C0
:40410000000000000000000000000000000000000000000000000000000000000000000000000000000000000000000000000000000000000000000000000000000000007F
:40414000000000000000000000000000000000000000000000000000000000000000000000000000000000000000000000000000000000000000000000000000000000003F
:4041800000000000000000000000000000000000000000000000000000000000000000000000000000000000000000000000000000000000000000000000000000000000FF
:4041C00000000000000000000000000000000000000000000000000000000000000000000000000000000000000000000000000000000000000000000000000000000000BF
:40420000000000000000000000000000000000000000000000000000000000000000000000000000000000000000000000000000000000000000000000000000000000007E
:40424000000000000000000000000000000000000000000000000000000000000000000000000000000000000000000000000000000000000000000000000000000000003E
:4042800000000000000000000000000000000000000000000000000000000000000000000000000000000000000000000000000000000000000000000000000000000000FE
:4042C00000000000000000000000000000000000000000000000000000000000000000000000000000000000000000000000000000000000000000000000000000000000BE
:40430000000000000000000000000000000000000000000000000000000000000000000000000000000000000000000000000000000000000000000000000000000000007D
:40434000000000000000000000000000000000000000000000000000000000000000000000000000000000000000000000000000000000000000000000000000000000003D
:4043800000000000000000000000000000000000000000000000000000000000000000000000000000000000000000000000000000000000000000000000000000000000FD
:4043C00000000000000000000000000000000000000000000000000000000000000000000000000000000000000000000000000000000000000000000000000000000000BD
:40440000000000000000000000000000000000000000000000000000000000000000000000000000000000000000000000000000000000000000000000000000000000007C
:4044400000000000000000000000000000000000000000000000000000000000000000000000000000000000000000000000000000000031202D20446576696365204944A1
:404480003A0032202D204E756D626572206F6620636F6E6E656374656420494D55733A0033202D20494D55732049443A0034202D204D61672063616C20706172616D657445
:4044C0006572733A00000000000000000000000000000000000000000000000000000000000000000000000000000000000000E51424C0F582E43409F583E0051422900997
:40450000BD3008039009C0E475F001122DAC022B642001E97F2ED2018018EF540F2490D43440D4FF30050BEF24BFB41A0050032461FFE515600215150518E518700205173C
:4045400030080E9009BDE475F001122DACEF022BAA026F857403D2088003E4C208F5149009BD122DC3E4F515F517F518E51560077F2012453280F57516FFC202C201C203F0
:40458000C204C206C207C2091244FEFF700D3008057F00124543AF18AE1722B4255FC2D5C2051244FEFF24D0B40A00501A75F00A781530D50508B6FF0106C6A426F620D5BB
:4045C000047002D20480D924CFB41A00EF5004C2E5D205024835D20280C6D20180C0D20380BCD2D580BAD20680B47F201245322003077401B5150040F11244EFFF1245325B
:4046000002456CD209D20780951244EFFB1244EFFA1244EFF94A4B700679337A497BFF20032EE515602A7E008E82758300122B7D60060EEE651670F0C2D5EBC0E0EAC0E04F
:40464000E9C0E0EE124896D0E0F9D0E0FAD0E0FB122B64FF60AAEBC0E0EAC0E0E9C0E0124532D0E02401F9D0E03400FAD0E0FBE5160460DCD516D98087D20380A2124878DE
:4046800060F7E51670010412280CA916600DE516600914F516124920EF60F3EA30E702F404C3995079EAF425160430E701E404F516800D12487860C1EA0516251612280C33
:4046C000EA9009ECF030E701E4251604D5160420060114124896E4C0E01249209009ECE0601320E70714F012451A802204F0D0E014C0E07F0012451AE516600712451115E3
:4047000016800B300603124511D0E002456CD0E00480C4124878609EE5160412280C9009ECEAF0E516200602600104240412489674FF04C0E012492012451AE516200602A2
:404740006003124511D0E0B516E87F451245249009ECE07F2B30E7047F2DF404C0E0124532D0E075F00A84C0F012451BD0E012451B02456C791080027908C207C209800893
:40478000D2D5790A8004790AC2D5E516047002F516E4FAFDFEFF1244EFFC7B082002131244EFFD7B1030010A1244EFFE1244EFFF7B20EC3382D592D55013C3E43001069FFD
:4047C000FFE49EFEE42002039DFDE49CFCE4CBF8C202EC700CCFCECDCCE824F8F870F38017C3EF33FFEE33FEED33FDEC33FCEB33FB994002FB0FD8E9EB300205F8D0E0C494
:4048000048B202C0E00AEC4D4E4F78207B0070C2EAB5160040BCC0E0124898D0F0D0E0200204C4C0E0C4B202C0F012451BD0F0D5F0EB02456C122DCC46095347745845DADE
:404840004C45D64247784F47804447804945EF4347865546B346471345467D4749535045DE2D45E22E46052B45E623460320493C2A459E48000045FDE516B4FF03751606C9
:404880001244EFFC1244EFFD1244EFFE1244EFFF9009E5022849790AA2D5200414300609B910020404B9080104A2D52007025001042003689203B515005034C0E07F203021
:4048C00004197F30A20372077206500F1248EFC203C207C206C2097F30800F300603E9C0E0124532300603D0E0F9D0E0B515CC3006177F30B9100C1245327F583005077FF0
:40490000788003B908031245323003057F2D0245327F202009F87F2B2007F322920380CF7F00B40700500B24E5F582E43409F583E0FF22286E756C6C2900D2021244EF3044
:4049400002F8C202781530D50108F602459E2D504349581244EF2403B405004001E490494E93124523743A124523D204751504024774C0E0C0F0C083C082C085C084C08637
:40498000758600C093759300C0D075D000C000C001C002C003C004C005C006C0079009EDE4F0A3F0900E43E02404F582E43400F583E0FF7E00126B85900E43E02404F58214
:4049C000E43400F583E0FF7E00126816900E43E0FD2404F582E43400F583E0FF75F006A4245AF582E43404F583E0FB9009EDE4F0A3EBF0EF75F006A4245BF582E43404F51E
:404A000083E0FB9009EEE0FEEBFF75F013EDA42445F582E5F0340EF583EEF0A3EFF0900E43E0FD2404F582E43400F583E0FF75F006A4245CF582E43404F583E0FB9009ED2A
:404A4000E4F0A3EBF0EF75F006A4245DF582E43404F583E0FB9009EEE0FEEBFF75F013EDA42447F582E5F0340EF583EEF0A3EFF0900E43E0FD2404F582E43400F583E0FF8A
:404A800075F006A4245EF582E43404F583E0FB9009EDE4F0A3EBF0EF75F006A4245FF582E43404F583E0FB9009EEE0FEEBFF75F013EDA42449F582E5F0340EF583EEF0A3F4
:404AC000EFF0900E43E0FD2404F582E43400F583E0FF75F006A424C5F582E43401F583E0FB9009EDE4F0A3EBF0EF75F006A424C6F582E43401F583E0FB9009EEE0FEEBFF3E
:404B000075F013EDA4244BF582E5F0340EF583EEF0A3EFF0900E43E0FD2404F582E43400F583E0FF75F006A424C7F582E43401F583E0FB9009EDE4F0A3EBF0EF75F006A418
:404B400024C8F582E43401F583E0FB9009EEE0FEEBFF75F013EDA4244DF582E5F0340EF583EEF0A3EFF0900E43E0FD2404F582E43400F583E0FF75F006A424C9F582E434E0
:404B800001F583E0FB9009EDE4F0A3EBF0EF75F006A424CAF582E43401F583E0FB9009EEE0FEEBFF75F013EDA4244FF582E5F0340EF583EEF0A3EFF0900E43E0FD2404F5EE
:404BC00082E43400F583E0FF75F006A4245FF582E43401F583E0FB9009EDE4F0A3EBF0EF75F006A42460F582E43401F583E0FB9009EEE0FEEBFF75F013EDA42451F582E5E9
:404C0000F0340EF583EEF0A3EFF0900E43E0FD2404F582E43400F583E0FF75F006A42461F582E43401F583E0FB9009EDE4F0A3EBF0EF75F006A42462F582E43401F583E0E3
:404C4000FB9009EEE0FEEBFF75F013EDA42453F582E5F0340EF583EEF0A3EFF0900E43E0FD2404F582E43400F583E0FF75F006A42463F582E43401F583E0FB9009EDE4F065
:404C8000A3EBF0EF75F006A42464F582E43401F583E0FB9009EEE0FEEBFF75F013EDA42455F582E5F0340EF583EEF0A3EFF0900E43E004FF90015EE0FEEF8EF084AFF09025
:404CC0000E43EFF0701378EC7C027D017B017A0E79447E017F43122F2BD007D006D005D004D003D002D001D000D0D0D093D086D084D085D082D083D0F0D0E032E4900523B2
:404D0000F0FE7F13FD7B017A00791B122E437E007F117D007B017A007904122E43E4900522F0900522E0FFC3941150587E00126B85E47F0AFEFDFC12662C1260F1E47F0ADF
:404D4000FEFDFC12662C900522E0FF75F005A424C5F582E43404F5837401F0EF75F005A424C6F582E43404F5837401F0EF75F005A424C7F582E43404F583E4F0900522E0E6
:404D800004F0809EE47F32FEFDFC12662CE4900522F0900522E0FFC3941150177E00126B85900522E0FF7E001266B4900522E004F080DFE4FFFE126B85E47F0AFEFDFC12BE
:404DC000662C7F751271CB900524E4F0A3EFF0E4900524F0A3F090015EF0900522F0900522E0FFC39411505F7E00126B85E47F0AFEFDFC12662C7F751271CB7E009005247C
:404E0000EEF0A3EFF06471702390015EE004F0E4900524F0A3F0900522E025E02426F582E43405F583E4F0A304F08013900522E025E02426F582E43405F583E4F0A3F090EE
:404E40000522E004F080977E007F137D007B017A00791B122E437E007F117D007B017A007904122E437E007F227D007B017A04792F122E43E4900522F0900522E0FFC394CC
:404E8000115034EF25E02426F582E43405F583E0FEA3E064014E7017900522E0A3E02404F582E43400F583EFF0900523E004F0900522E004F080C2E4FF127334E47F0AFEF0
:404EC000FDFC12662C7F01127334E47F0AFEFDFC12662CE4900522F0900522E0FFC3941150797E00126B85E47F0AFEFDFC12662C126000E47F0AFEFDFC12662C900522E0E9
:404F0000FF75F005A424C5F582E43404F5837401F0EF75F005A424C6F582E43404F5837401F0EF75F005A424C7F582E43404F583E4F0EF75F005A424C8F582E43404F583F9
:404F4000E4F0EF75F005A424C9F582E43404F583E4F0900522E004F0024ED8E47F32FEFDFC12662C9004C0E4F0A304F0E4900522F090015EE0FF900522E0FEC39F4003025D
:404F8000501AE0FF2404F582E43400F583E0FD75F005A424C6F582E43404F583E075F006A4FCED75F005A424C5F582E43404F583E075F006A42CFD74042FF582E43400F57C
:404FC00083E0FF75F005A424C7F582E43404F583E075F006A42D2402FDEF25E0242FF582E43404F583E4F0A3EDF074042EF582E43400F583E025E0242FF582E43404F58376
:40500000E0FEA3E0FF9004C1E02FF09004C0E03EF0900522E004F0024F719004C1E004F070069004C0E004F022E4900522F0A3F09010AEF090015EE0FF9010AEE0FEC39F6C
:40504000400302535574042EF582E43400F583E0FF7E00126B859010AEE02404F582E43400F583E0FF7E001268169010AEE0FD2404F582E43400F583E0FF75F006A4245A27
:40508000F582E43404F583E0FB900522E4F0A3EBF0EF75F006A4245BF582E43404F583E0FB900523E0FEEBFF75F013EDA424EDF582E5F03402F583EEF0A3EFF09010AEE07C
:4050C000FD2404F582E43400F583E0FF75F006A4245CF582E43404F583E0FB900522E4F0A3EBF0EF75F006A4245DF582E43404F583E0FB900523E0FEEBFF75F013EDA42415
:40510000EFF582E5F03402F583EEF0A3EFF09010AEE0FD2404F582E43400F583E0FF75F006A4245EF582E43404F583E0FB900522E4F0A3EBF0EF75F006A4245FF582E4345D
:4051400004F583E0FB900523E0FEEBFF75F013EDA424F1F582E5F03402F583EEF0A3EFF09010AEE0FD2404F582E43400F583E0FF75F006A424C5F582E43401F583E0FB903C
:405180000522E4F0A3EBF0EF75F006A424C6F582E43401F583E0FB900523E0FEEBFF75F013EDA424F3F582E5F03402F583EEF0A3EFF09010AEE0FD2404F582E43400F58357
:4051C000E0FF75F006A424C7F582E43401F583E0FB900522E4F0A3EBF0EF75F006A424C8F582E43401F583E0FB900523E0FEEBFF75F013EDA424F5F582E5F03402F583EE93
:40520000F0A3EFF09010AEE0FD2404F582E43400F583E0FF75F006A424C9F582E43401F583E0FB900522E4F0A3EBF0EF75F006A424CAF582E43401F583E0FB900523E0FE76
:40524000EBFF75F013EDA424F7F582E5F03402F583EEF0A3EFF09010AEE0FD2404F582E43400F583E0FF75F006A4245FF582E43401F583E0FB900522E4F0A3EBF0EF75F0BB
:4052800006A42460F582E43401F583E0FB900523E0FEEBFF75F013EDA424F9F582E5F03402F583EEF0A3EFF09010AEE0FD2404F582E43400F583E0FF75F006A42461F58299
:4052C000E43401F583E0FB900522E4F0A3EBF0EF75F006A42462F582E43401F583E0FB900523E0FEEBFF75F013EDA424FBF582E5F03402F583EEF0A3EFF09010AEE0FD2481
:4053000004F582E43400F583E0FF75F006A42463F582E43401F583E0FB900522E4F0A3EBF0EF75F006A42464F582E43401F583E0FB900523E0FEEBFF75F013EDA424FDF5F9
:4053400082E5F03402F583EEF0A3EFF09010AEE004F0025034229005237401F0E4A3F0A304F0A37494F0E4900522F090015EE0FF900522E0FEC39F400302560190068474BE
:405380003AF074042EF582E43400F583E075F005A424C5F582E43404F583E0607B900522E0FF75F013A4241CF582E5F03400F583E0FCA3E0FD900523E0FE2484F582E43466
:4053C00006F583ECF0A3EDF075F013EFA4241EF582E5F03400F583E0FCA3E0FD74862EF582E43406F583ECF0A3EDF0900522E075F013A42420F582E5F03400F583E0FCA333
:40540000E0FD74882EF582E43406F583ECF0A3EDF0900523E02406F0900522E0FF2404F582E43400F583E075F005A424C6F582E43404F583E06078900522E0FE75F013A439
:405440002422F582E5F03400F583E0FCA3E0FD900523E0FB2484F582E43406F583ECF0A3EDF075F013EEA42424F582E5F03400F583E0FCA3E0FD74862BF582E43406F58316
:40548000ECF0A3EDF075F013EFA42426F582E5F03400F583E0FEA3E0FF74882BF582E43406F583EEF0A3EFF0900523E02406F0900522E0FF2404F582E43400F583E075F093
:4054C00005A424C7F582E43404F583E06078900522E0FE75F013A42428F582E5F03400F583E0FCA3E0FD900523E0FB2484F582E43406F583ECF0A3EDF075F013EEA4242A08
:40550000F582E5F03400F583E0FCA3E0FD74862BF582E43406F583ECF0A3EDF075F013EFA4242CF582E5F03400F583E0FEA3E0FF74882BF582E43406F583EEF0A3EFF090B2
:405540000523E02406F0900522E02404F582E43400F583E025E0242FF582E43404F583E0FEA3E02483F58274063EF583743AF09005237401F0E4A3F0900522E02404F582E9
:40558000E43400F583E0F925E0242FF582E43404F583E0FEA3E0FF900524E0FDD3EF9D7480F8EE648098402BE0FF2484F582E43406F583E0FEEF900525E02DFDE433FC745D
:4055C000262DF58274053CF583EEF0900524E004F080A5E925E0242FF582E43404F583E0A3E0FF900525E02FF07E007F147D007B017A067984122E43900522E004F00253D3
:405600006B7B017A0579269004C0E0A3E014FD126E3B9004C0E0FCA3E0FD2425F58274053CF583EFF07B017A05792612659F227B007A4079807D027C0012738090408274A0
:4056400018F07B007A4079847DFF7C0F127380904086741BF07B007A4079887D0B7C0012738090408A7419F07B007A40798C7D2F7C0012738090408E7418F07B007A40790A
:40568000907DBF7C5D1273809040927419F09043007406F09042007452F07B0C7A01790F12740B9046A1EFF07B007A4279227D107C071273807B007A4279207D517C121206
:4056C0007380E4900521F07F19FEFDFC90051D122D9490051DE0A3E0A3E0FEA3E0D39400EE9400404AA3E0FF64036043904225E05401FEEF25E04E5403900521F0E47FE055
:405700007E01FDFC126E0090051DE0FCA3E0FDA3E0FEA3E0FF74FFEF24FFFFEE34FFFEED34FFFDEC34FFFC90051D122D9480A390051DE0A3E0A3E0FEA3E04E70057F03126D
:40574000751A7B007A4079047D007C011273809040047407F0904006E4F09040087448F0904004E4F0904009F09040017402F09043A2E0441FF022900522EEF0A3EFF0A350
:40578000EDF0127475900526EFF0127439900527EEF0A3EFF0900522E0FCA3E0FD6F7002EC6E70030258A69043A2E05401900525F0A3E0703BA3E0FEA3E0FF4E6004ED4C6B
:4057C000702EEF4E70117B027A407980127382904082E054BFF022904082E04440F07B027A407980900522E0FCA3E0FD12738222900525E06053904001E4F090401004F0E7
:40580000904014E4F0904008E0547FF0904082E05408600A900522E07002A3E0702B7B027A407902900527E0FCA3E0FD1273829040017407F0904001E0540170F89043A226
:40584000E054FEF0904001E4F09043A2E05401602F7B027A407902900522E0FCA3E0FD127382900524E060047F0280027F00EF4401904001F0904001E05401602980F622C1
:405880007B027A407980900522E0FCA3E0FD1273829043A2C083C082E0FF900525E0FEEF4ED082D083F022E4F509126AE9EF70030259CDE509C3940640030259CD126940F7
:4058C0008F08E51914604914606014700302595D1470030259AB240470D0851D1C851E1D85081EE51DB43A11E51EB43A0CE4F51CF51DF51E75190180B1E51CB43FACE51DAB
:40590000B40DA7E51E640A70A1FFFE127150809A900001E065086004E5087004C2008002D200E4F51B751902808085081BE51BD394015008E4F51BF5190258AAE51BD39481
:40594000804008E4F51BF5190258AAE4F51A2000067519030258AA7519040258AA7487251AF582E4340FF583E508F0051AE51AC3951B50030258AA200025AF1B7E00786695
:405980007C027D017B017A0F7987122F2B9002E6E4F0A3E51BF09002EA7401F01259CEE4F51AF51BF51905090258AA151BE51B60030258AAF51AF51B7F011274BCE4FF12F1
:4059C00074BCE4F51905090258AA0258AA22900266E0F50A7B017A0279669002E6E0A3E014FD126E3B9002E6E0FCA3E02465F58274023CF583E0B50703D38001C34006E417
:405A00009002EAF022E50A122DCC5A87005A77015A8B035A8F045AA5055A6B065AC9095AB70A5A7B0C5A47805A5F815A4B825A67835A4F845A53855A57885A5B8A5A638B7A
:405A40005AEB9400005AEE12751F2212751E2212751D221275212212752322126C9D221275202212705F2212752222900267E0FEA3E0FF12715022126F2B22900267E0FE53
:405A8000A3E0FF1238432212727722127223227F087E001264F2EF60067F0112720E22E4FF12720E22126BCEEF60067F0112720E22E4FF12720E22126FF7EF60067F011278
:405AC000720E22E4FF12720E227F0112720EE47FE87E03FDFC12662CE4FF1274C2E47FE87E03FDFC12662C127443221253562275930078007583467582E8E04401F0009054
:405B0000480074C0F07581239076BCE4F0A3F0A3F0A3F0907010F0907019F0907020F09076007410F0907604E4F0A3F0A3F0A3F09078007800087400F0A37408F0E8B804C8
:405B40000274FFA3F0A37422F0A374BCF0A37476F0A3E4F0A3E81475F008A4F0A3B804D59070107401F0907014F07E707F18122604907010F0EA90109DF002261175221F29
:405B80007523FD125C09025BC40262C1E493A3F8E493A34003F68001F208DFF48029E493A3F85407240CC8C333C4540F4420C8834004F456800146F6DFE4800B010204085E
:405BC0001020408090687FE47E019360BCA3FF543F30E509541FFEE493A360010ECF54C025E060A840B8E493A3FAE493A3F8E493A3C8C582C8CAC583CAF0A3C8C582C8CAD0
:405C0000C583CADFE9DEE780BE7B007A4679E812740BEF4401FD7B007A4679E81274171263817B017A50790312740BEF4402FD7B017A5079031274177B017A5079131274BE
:405C40000BEF4402FD7B017A5079131274179043A0E04440F09043C2E04410F07B087A1F79E8900522E4F0A37451F0A37402F07F087E00126D867B087A1F79F0900522E465
:405C8000F0A37451F0A374C2F07F087E00126D867C777DED7B007A5179F27F087E00126FAC7C777DF57B007A5179107F0A7E00126FAC7C777DFF7B007A5179227F087E00CC
:405CC000126FAC9044F47401F0904322E04408F09046ECE0C394055006904689743AF090480074F1F012562F1270FC7B007A4379A0C003C002900522EBF0A3EAF0A374B0FA
:405D0000F0D002D0037F0E7E00126D869043B0E054FDF022E49009F1F0A3F0A3EEF0A3EFF07F3C1271CB9009F1EFF07F3B1271CB9009F2EFF0A3E0FCA3E0FD90045A75F0CE
:405D400006122DA0EC75F006A42583F583EFF09009F1E0FF90045B75F006ED122DA0EC75F006A42583F583EFF0E49009F1F0A3F07F3E1271CB9009F1EFF07F3D1271CB90BC
:405D800009F2EFF0A3E0FCA3E0FD90045C75F006122DA0EC75F006A42583F583EFF09009F1E0FF90045D75F006ED122DA0EC75F006A42583F583EFF0E49009F1F0A3F07FDB
:405DC000401271CB9009F1EFF07F3F1271CB9009F2EFF0A3E0FCA3E0FD90045E75F006122DA0EC75F006A42583F583EFF09009F1E0FF90045F75F006ED122DA0EC75F00617
:405E0000A42583F583EFF0E49009F1F0A3F022E49009F1F0A3F0A3EEF0A3EFF07F441271CB9009F1EFF07F431271CB9009F2EFF0A3E0FCA3E0FD9001C575F006122DA0EC39
:405E400075F006A42583F583EFF09009F1E0FF9001C675F006ED122DA0EC75F006A42583F583EFF0E49009F1F0A3F07F461271CB9009F1EFF07F451271CB9009F2EFF0A397
:405E8000E0FCA3E0FD9001C775F006122DA0EC75F006A42583F583EFF09009F1E0FF9001C875F006ED122DA0EC75F006A42583F583EFF0E49009F1F0A3F07F481271CB9061
:405EC00009F1EFF07F471271CB9009F2EFF0A3E0FCA3E0FD9001C975F006122DA0EC75F006A42583F583EFF09009F1E0FF9001CA75F006ED122DA0EC75F006A42583F58398
:405F0000EFF0E49009F1F0A3F0229009F3EEF0A3EFF07F491271CB9009F1EFF07F4A1271CB9009F2EFF0A3E0FCA3E0FD90015F75F006122DA0EC75F006A42583F583EFF050
:405F40009009F1E0FF90016075F006ED122DA0EC75F006A42583F583EFF0E49009F1F0A3F07F4B1271CB9009F1EFF07F4C1271CB9009F2EFF0A3E0FCA3E0FD90016175F04B
:405F800006122DA0EC75F006A42583F583EFF09009F1E0FF90016275F006ED122DA0EC75F006A42583F583EFF0E49009F1F0A3F07F4D1271CB9009F1EFF07F4E1271CB9056
:405FC00009F2EFF0A3E0FCA3E0FD90016375F006122DA0EC75F006A42583F583EFF09009F1E0FF90016475F006ED122DA0EC75F006A42583F583EFF0E49009F1F0A3F022EE
:406000007D107F6B126E9EE47F0AFEFDFC12662C7D207F6A126E9EE47F0AFEFDFC12662C7D067F1A126E9EE47F0AFEFDFC12662C7D187F1B126E9EE47F0AFEFDFC12662C80
:40604000E4FD7F1C126E9EE47F0AFEFDFC12662C7D057F1D126E9EE47F0AFEFDFC12662C7D0D7F24126E9EE47F0AFEFDFC12662C7D0C7F25126E9EE47F0AFEFDFC12662C94
:406080007D0A7F26126E9EE47F0AFEFDFC12662C7D167F63126E9EE47F0AFEFDFC12662C7D817F27126E9EE47F0AFEFDFC12662C7D8C7F25126E9EE47F0AFEFDFC12662C56
:4060C0007D037F26126E9EE47F0AFEFDFC12662C7D8D7F27126E9EE47F0AFEFDFC12662CE4FD7F6B126E9EE47F14FEFDFC12662C227D107F6B126E9EE47F0AFEFDFC1266F1
:406100002C7D207F6A126E9EE47F0AFEFDFC12662C7D067F1A126E9EE47F0AFEFDFC12662C7D187F1B126E9EE47F0AFEFDFC12662CE4FD7F1C126E9EE47F0AFEFDFC12667A
:406140002C7D057F1D126E9EE47F0AFEFDFC12662C7D0D7F24126E9EE47F0AFEFDFC12662C7D0C7F25126E9EE47F0AFEFDFC12662C7D0A7F26126E9EE47F0AFEFDFC1266E3
:406180002C7D1F7F63126E9EE47F0AFEFDFC12662C7D817F27126E9EE47F0AFEFDFC12662C7D8C7F25126E9EE47F0AFEFDFC12662C7D107F26126E9EE47F0AFEFDFC126646
:4061C0002C7D837F27126E9EE47F0AFEFDFC12662CE4FD7F6B126E9EE47F14FEFDFC12662C22900529EBF0A3EAF0A3E9F0A3EDF012724D90052CE0C3948040030262B512C1
:4062000070DDEF60030262AD90052D74FFF0900529E0FBA3E0FAA3E0F9900532E4F0A37410F07F40126738EF6407707C904722E0540260F8904722E054026009E0FF13136B
:40624000543FFF80027FFFEF700490052DF090052DE0704E90052CE0FD7C009010A5E0FBA3E0900532F07F40126A45EF6407702A90052D74FFF0904722E0540260F89047AC
:4062800022E054026009E0FF1313543FFF80027FFFEF701490052DF0800E90052D74FFF0800690052D74FFF0127423800E90052D7404F0800690052D7401F090052DE0FF54
:4062C00022127510126B38E47F64FEFDFC12662C7F011274C212703D126DED126DBA126ECE1272FE7E757F1712709F1272C57E757F141270BEE4FF1274BC1272B212729F9B
:40630000D2AF9044F474FDF01272D8127182126FD212735312731012707FE47F0AFEFDFC12662C7F01127334124CFCE490051CF0C20DC20A9002E6F0A3F09002EAF0E4FF8C
:406340001274C8126C151274CEEF701B300C0E7F011274ECC20CC20B1258A780E9300BE67F011274EC80DF7F011274C81274CEEF640160F812728BEF30E7C3126ECE80BE79
:4063800022E4FFFEFDFC9010A7122D949076007410F09070107401F0907019E4F07B027A78F97DA07C021273829078027401F0A374A3F07B027A787904C003C002C0017B1B
:4063C000FF7A75794DE9EAE4AD01AC02D001D002D0031273827B027A7879067D087C781273827B027A7679047D107C001273827B027A767906E4FDFC12738290702974097B
:40640000F090703904F09070697414F0907079741DF09070147401F0907018E0540170F8907028E0540170F8907038E0540170F8907068E0540170F8907078E0540170F882
:4064400022C0E0C083C082C085C084C086758600C093759300C0D075D000C001C002C003C006C007E4FBA2AF33FAD2AF9044F474FDF090646FE0FFFE541EF96006901072DE
:40648000E049F0EF30E545906444E0FE90106FE0244FF582E43410F583EEF07B01EB602C90104DE060069010717401F090106FE004F0E0C394204002E4F090104EE0FE90C5
:4064C000106FE0B5060690104D7401F0EF20E5A2AF02EA24FF92AFD007D006D003D002D001D0D0D093D086D084D085D082D083D0E032900522EEF0A3EFF09005287401F0B0
:4065000012749412719B78007C007D017B017A0079157E007F04122F2B900526E4F0A304F0E4900524F0A3F0900526E0FEA3E0FF900524E0FCA3E0FDC39FEE6480F8EC64CE
:406540008098503FEDC4F8540FC868FFECC454F048FE7B0174152FF974003EFA900522E0A3E0FFED2FFD1261E2EF6007E4900528F08010900525E004F07006900524E00487
:40658000F080A578157C007D017B017A0079007E007F04122F2B12748D900528E0FF229009BDEBF0A3EAF0A3E9F0A3ECF0A3EDF07F3A1273E47F3A1273E4900016E0FF128E
:4065C00073E49009C0E0A3E0FF1273E4E4F514F515D39009C1E095159009C0E0951440229009BDE0FBA3E0FAA3E02515F9EA3514FA122B64FF1273E40515E51570020514F5
:4066000080CFE4F514F5151274B0EF20E0130515E515AE147002051414D394E8EE940340E67F011274BCE4FF1274BC2290FFFC122DF2122D94852283852382E0A3E0A3E09B
:40664000FEA3E0D39400EE9480403D90109EE0FCA3E0FDA3E0FEA3E0FF126E00852283852382C083C082E0FCA3E0FDA3E0FEA3E02400FFEE3480FEED34FFFDEC34FFFCD092
:4066800082D083122D9480AD901094E0FCA3E0FDA3E0FEA3E0FF852283852382E0F8A3E0F9A3E0FAA3E0FB122BCE126E00900004122DF222E4900548F0A3EEF0A3EFF07F2A
:4066C000491271CB900548EFF0A3E0FCA3E090023375F003122DA0EC75F003A42583F583EFF0E4900548F07F4A1271CB900548EFF0A3E0FCA3E090023475F003122DA0ECC3
:4067000075F003A42583F583EFF0E4900548F07F4B1271CB900548EFF0A3E0FCA3E090023575F003122DA0EC75F003A42583F583EFF0E4900548F02290052FEBF0A3EAF0D3
:40674000A3E9F09005347407F0904722E05402604E90472074B6F074D5F07402F0904722E054027032904720EFF0E4FFFED3900533E09F900532E09E402B90052FE0FBA348
:40678000E0FAA3E02FF9EA3EFA122B64904720F00FEF70010E80D69005347409F080069005347404F0900534E0FF2290058BEBF0A3EAF0A3E9F0900591EBF0A3EAF0A3E922
:4067C000F090058BE0FBA3E475F00112303CA9F0FA122B6470EB90058C74FFF5F012302690058EE0FBA3E475F00112303CA9F0FA122B64FF90058BE0FBA3E475F00112300D
:406800003CA9F0FAEF122BAA70D6900591E0FBA3E0FAA3E0F9229009EFEEF0A3EFF09004C575F005122DA0EE75F005A42583F583E0600B9009EFE0FEA3E0FF125D1490095C
:40684000EFE0FEA3E0FF9004C675F005122DA0EE75F005A42583F583E06003125E0F9009EFE0FEA3E0FF9004C775F005122DA0EE75F005A42583F583E06003125F0A22427E
:406880000E41800001190042100700014110AE00411070004110720041104E0041106F0041104D00411071004110AF004110B0004310A200000044109902DC6C004410943E
:4068C0000000BB804110983044109E5DC000004110B1004110AD00410E43004110B2000090052BEBF0A3EAF0A3E9F0A3EDF0E4A3F090052EE0FFA3E0C39F503E904722E027
:4069000054016003D38001C340097F017E00126F2C80E9904720E0FF90052BE0FBA3E0FAA3E0F990052FE0FEE92EF9E43AFAEF122BAA90052FE004F080B790052FE0FF228D
:40694000E4FF9044C87402F090104EE0FE90106FE0FD90104DE07004EE6D6024744F2EF582E43410F583E0FF0EEEC394204002E4FE90104EEEF090104DE06018E4F0801463
:4069800090646FE0FE30E50C906444E0FFEE541E6002E4FF9044C07402F02212724D90052A74FFF01270DDEF703B7F01126EFDEF6407702C7B017A1079A57D021268E0EFD2
:4069C000B40215E490052AF0904722E0540270107F01FE126F2C80F0904722E0540260D4127423800690052A7404F090052AE0FF22900523ECF0A3EDF0900522EFF0541F59
:406A000025E0FFE433FEE42FFFEE3444FAA9077B01127373900525EEF0A3EFF0900522E075F002A42400FFE5F03444FAA9077B01A3E0FEA3E0FFFDAC06127382900525E002
:406A4000FEA3E0FF2290052FECF0A3EDF0AC077D07904722E05402603B90472074B6F074D8F07405F0904722E054027023904720ECF090052FE0904720F090052FE0A3E056
:406A8000904720F0EBF0900532E0904720F080067D0980027D04AF052212724D1270DDEF703B12713590052AEFF06407702A904722E0540270087F01FE126F2C80F0904763
:406AC00022E054026009E0FF1313543FFF80027FFFEF700490052AF0127423800690052A7404F090052AE0FF229044C87402F090106FE0FE90104EE0B5060E90104DE06063
:406B0000047F20802CE4FF802890106FE0FE90104EE0C39E500BE0FE90106FE0C39EFF801090104EE0FEC374209EFE90106FE02EFF9044C07402F022E4FFFEC3EF9404EE37
:406B400094005023900E41E0FCA3E02FF582EC3EF583E0FD74152FF58274003EF583EDF00FEF70010E80D4900015E07004126BCE2278007C007D017B017A0079157E007F4B
:406B800004122F2B229009EFEEF0A3EFF07F0F1275047F0312750A9009EFE0FEA3E0FFC3940FEE6480948050031275049009EFE07004A3E0640F7004FF12750A9009EFE0DF
:406BC0007004A3E0641070057F0112750A22E4FFFEC3EF9404EE9400502AEF2480FDE43EFC900E41E0FAA3E02DF582EA3CF583E0FD74152FF58274003EF583EDF00FEF70AE
:406C0000010E80CD900015E07004126FF722E4FFFE1264F222127344900452122D94300C05C20C1258A7125029781B7C007D017B017A0279EC7E017F43122F2B300C05C233
:406C40000C1258A712734490022B122D947F407E4B7D4C7C0012746122C2D5E830E70FB2D5E4C39BFBE49AFAE499F9E498F8EC30E717B2D5126C8F122C59E4C39BFBE49AFD
:406C8000FAE499F9E498F88003122C5930D50DE4C39FFFE49EFEE49DFDE49CFC22900267E0D39400500B7F011274E6E4900018F022900267E0D394FA400374FAF0900267EA
:406CC000E0FF7E007C017DF4122E16780A122D20900018EFF01273D6E4FF1274E622904F00E05401F0904F02E054FCF0904F0BE054CFF0E04430F0E054F0F0E0440FF090D2
:406D00004F01E04401F07F7F7EBB1273AC7F7F7EBB1273BAE4FF1274B622904F0CE05401F0904F0EE054FCF0904F0DE04401F0904F17E054CFF0E04430F0E054F0F0E0444C
:406D40000FF07F7F1273D6E4FF1271197F081274E022900522EBF0A3EAF0A3E9F0E4FDFC901070E0601F900522E0FBA3E0FAA3E02DF9EA3CFA122B64FF600A1273E40DED11
:406D800070010C80E122758600EF4E6027EF60010E759300900522E0F595A3E0F585A3E0F5848B938A838982E0A30586F0A31586DFF6DEF4E4F593F595227C647D417F0145
:406DC0001269F17D077F01127169E4901072F09064847469F090648F7420F09065267406F09065367447F0906585E4F022901070E07009126DBA9010707401F012701B2264
:406E0000EC4D4E700D78FCEF24E950032840FD2200007BF178DA0000EF28FF78FFEE38FEED38FDEC38FC50E7EF2BFFEE38FEED38FDEC38FC40F222050203049009BDEBF00A
:406E4000A3EAF0A3E9F0E4F515F514E514C39D50199009BDE0FBA3E0FAA3E02514F9E43AFA122B646215051480E1AF15221272389043A0E04408F09043B0E04408F09047AC
:406E80000174C8F09043ACE04410F09043BCE04410F0904700E0542060F81271B322900548EFF0A3EDF012735312731012707F900548E0FF1273FE127362EF30E1F9900516
:406EC00049E0FF1273FE127362EF30E1F922127238906494E04401F0E054FEF01271B39044C87402F0E490104EF090106FF090104DF0901071F09044C07402F0227E079062
:406F00004722E05402601F90472074B6F074E1F0740EF0904722E054027007904720EFF080067E0980027E04AF062222EEFA901098E0F88FF0A4FFAEF0E88AF0A42EFEE516
:406F4000F03400FDEF24C9FF78FFEE38FEED38FDE438FC5003026E00227F407E4B7D4C7C0012744D7F407E4B7D4C7C0012746112723890649EE04410F01271B31273F1E405
:406F8000FF1274D422EFB40A07740D126F90740A309811A899B8130CC2983098FDA899C298B811F63099FDC299F59922758600EF4E601BEF60010E8C838D828B958A858970
:406FC00084E493A30586F0A31586DFF5DEF3E4F59522127238906597E04420F090649CE04410F0906594E04410F01271B312738F127526127527229000167401F0900015B1
:40700000F0E4FFFE1264F2EF600E7F087E001264F2EF60047F0180027F0022127238906494E04420F090649FE04410F09044C07402F0906595E04410F01271B3221272386C
:40704000906494E054DFF090649FE054EFF09044C87402F0906595E054EFF01271B322900267E0900002F024F3700A7D017F0C7E00125777227D017F027E00125777229064
:407080006564E030E507906457E0FF80F2127238906497E04401F0E054FEF01271B322900522EEF0A3EFF0127494900522E0FEA3E0FF12739E7F0412742F12748D2290052C
:4070C00022EEF0A3EFF01274A9900522E0FEA3E0FF1273C87F0712746B1274A22290052E7404F01272389010B2E0700704F0E490052EF01271B390052EE0FF227B0C7A01A3
:4071000079CF12740BEF540790586EF0EFC4540FA3F09058767444F0229043A3E04402F07B027A4F7912EFFD7C001273829043A3E054FDF0227F07904722E05402600E90DD
:40714000472074B6F074E0F0740DF080027F0422EF7015EE70127B017A0979F512309E7B017A0979F5126D5222AC07ED540775F020A4FFEC541F2480F582E43444F583EFC1
:40718000F022906587740FF012707F1274F21274F890648CE4F0906584F022126A99900529EFF0700812699B900529EFF0900529E0FF22EF54016004D2AF8002C2AFEF54FD
:4071C00002FF9044F4E054FD4FF022EF4480FF1273FEE4FF1273FE127362EF30E0F91274FE229043A3E04401F09043B3E04401F0904F00E04401F0229043A3E04402F090BC
:4072000043B3E04402F0904F0CE04401F0227D027C00900522EFF0A3F07B017A05792212659F22E4FFFE1264F2EF60067F0112720E22E4FF12720E229044F4E0F84402F0EF
